{
	"Program1.sol": {
		"MyFirstContract": {
			"abi": [
				{
					"inputs": [],
					"name": "getAge",
					"outputs": [
						{
							"internalType": "uint256",
							"name": "",
							"type": "uint256"
						}
					],
					"stateMutability": "view",
					"type": "function"
				},
				{
					"inputs": [],
					"name": "getName",
					"outputs": [
						{
							"internalType": "string",
							"name": "",
							"type": "string"
						}
					],
					"stateMutability": "view",
					"type": "function"
				},
				{
					"inputs": [
						{
							"internalType": "uint256",
							"name": "newAge",
							"type": "uint256"
						}
					],
					"name": "setAge",
					"outputs": [],
					"stateMutability": "nonpayable",
					"type": "function"
				},
				{
					"inputs": [
						{
							"internalType": "string",
							"name": "newName",
							"type": "string"
						}
					],
					"name": "setName",
					"outputs": [],
					"stateMutability": "nonpayable",
					"type": "function"
				}
			],
			"devdoc": {
				"kind": "dev",
				"methods": {},
				"version": 1
			},
			"evm": {
				"assembly": "    /* \"Program1.sol\":62:581  contract MyFirstContract {\r... */\n  mstore(0x40, 0x80)\n  callvalue\n  dup1\n  iszero\n  tag_1\n  jumpi\n  0x00\n  dup1\n  revert\ntag_1:\n  pop\n  dataSize(sub_0)\n  dup1\n  dataOffset(sub_0)\n  0x00\n  codecopy\n  0x00\n  return\nstop\n\nsub_0: assembly {\n        /* \"Program1.sol\":62:581  contract MyFirstContract {\r... */\n      mstore(0x40, 0x80)\n      callvalue\n      dup1\n      iszero\n      tag_1\n      jumpi\n      0x00\n      dup1\n      revert\n    tag_1:\n      pop\n      jumpi(tag_2, lt(calldatasize, 0x04))\n      shr(0xe0, calldataload(0x00))\n      dup1\n      0x17d7de7c\n      eq\n      tag_3\n      jumpi\n      dup1\n      0x967e6e65\n      eq\n      tag_4\n      jumpi\n      dup1\n      0xc47f0027\n      eq\n      tag_5\n      jumpi\n      dup1\n      0xd5dcf127\n      eq\n      tag_6\n      jumpi\n    tag_2:\n      0x00\n      dup1\n      revert\n        /* \"Program1.sol\":300:386  function getName () public view returns (string memory) {\r... */\n    tag_3:\n      tag_7\n      tag_8\n      jump\t// in\n    tag_7:\n      mload(0x40)\n      tag_9\n      swap2\n      swap1\n      tag_10\n      jump\t// in\n    tag_9:\n      mload(0x40)\n      dup1\n      swap2\n      sub\n      swap1\n      return\n        /* \"Program1.sol\":497:572  function getAge () public view returns (uint) {\r... */\n    tag_4:\n      tag_11\n      tag_12\n      jump\t// in\n    tag_11:\n      mload(0x40)\n      tag_13\n      swap2\n      swap1\n      tag_14\n      jump\t// in\n    tag_13:\n      mload(0x40)\n      dup1\n      swap2\n      sub\n      swap1\n      return\n        /* \"Program1.sol\":205:285  function setName(string memory newName) public {\r... */\n    tag_5:\n      tag_15\n      0x04\n      dup1\n      calldatasize\n      sub\n      dup2\n      add\n      swap1\n      tag_16\n      swap2\n      swap1\n      tag_17\n      jump\t// in\n    tag_16:\n      tag_18\n      jump\t// in\n    tag_15:\n      stop\n        /* \"Program1.sol\":405:482  function setAge(uint newAge) public {\r... */\n    tag_6:\n      tag_19\n      0x04\n      dup1\n      calldatasize\n      sub\n      dup2\n      add\n      swap1\n      tag_20\n      swap2\n      swap1\n      tag_21\n      jump\t// in\n    tag_20:\n      tag_22\n      jump\t// in\n    tag_19:\n      stop\n        /* \"Program1.sol\":300:386  function getName () public view returns (string memory) {\r... */\n    tag_8:\n        /* \"Program1.sol\":341:354  string memory */\n      0x60\n        /* \"Program1.sol\":374:378  name */\n      0x00\n        /* \"Program1.sol\":367:378  return name */\n      dup1\n      sload\n      tag_24\n      swap1\n      tag_25\n      jump\t// in\n    tag_24:\n      dup1\n      0x1f\n      add\n      0x20\n      dup1\n      swap2\n      div\n      mul\n      0x20\n      add\n      mload(0x40)\n      swap1\n      dup2\n      add\n      0x40\n      mstore\n      dup1\n      swap3\n      swap2\n      swap1\n      dup2\n      dup2\n      mstore\n      0x20\n      add\n      dup3\n      dup1\n      sload\n      tag_26\n      swap1\n      tag_25\n      jump\t// in\n    tag_26:\n      dup1\n      iszero\n      tag_27\n      jumpi\n      dup1\n      0x1f\n      lt\n      tag_28\n      jumpi\n      0x0100\n      dup1\n      dup4\n      sload\n      div\n      mul\n      dup4\n      mstore\n      swap2\n      0x20\n      add\n      swap2\n      jump(tag_27)\n    tag_28:\n      dup3\n      add\n      swap2\n      swap1\n      0x00\n      mstore\n      keccak256(0x00, 0x20)\n      swap1\n    tag_29:\n      dup2\n      sload\n      dup2\n      mstore\n      swap1\n      0x01\n      add\n      swap1\n      0x20\n      add\n      dup1\n      dup4\n      gt\n      tag_29\n      jumpi\n      dup3\n      swap1\n      sub\n      0x1f\n      and\n      dup3\n      add\n      swap2\n    tag_27:\n      pop\n      pop\n      pop\n      pop\n      pop\n      swap1\n      pop\n        /* \"Program1.sol\":300:386  function getName () public view returns (string memory) {\r... */\n      swap1\n      jump\t// out\n        /* \"Program1.sol\":497:572  function getAge () public view returns (uint) {\r... */\n    tag_12:\n        /* \"Program1.sol\":537:541  uint */\n      0x00\n        /* \"Program1.sol\":561:564  age */\n      sload(0x01)\n        /* \"Program1.sol\":554:564  return age */\n      swap1\n      pop\n        /* \"Program1.sol\":497:572  function getAge () public view returns (uint) {\r... */\n      swap1\n      jump\t// out\n        /* \"Program1.sol\":205:285  function setName(string memory newName) public {\r... */\n    tag_18:\n        /* \"Program1.sol\":270:277  newName */\n      dup1\n        /* \"Program1.sol\":263:267  name */\n      0x00\n        /* \"Program1.sol\":263:277  name = newName */\n      swap1\n      dup1\n      mload\n      swap1\n      0x20\n      add\n      swap1\n      tag_32\n      swap3\n      swap2\n      swap1\n      tag_33\n      jump\t// in\n    tag_32:\n      pop\n        /* \"Program1.sol\":205:285  function setName(string memory newName) public {\r... */\n      pop\n      jump\t// out\n        /* \"Program1.sol\":405:482  function setAge(uint newAge) public {\r... */\n    tag_22:\n        /* \"Program1.sol\":458:464  newAge */\n      dup1\n        /* \"Program1.sol\":452:455  age */\n      0x01\n        /* \"Program1.sol\":452:464  age = newAge */\n      dup2\n      swap1\n      sstore\n      pop\n        /* \"Program1.sol\":405:482  function setAge(uint newAge) public {\r... */\n      pop\n      jump\t// out\n    tag_33:\n      dup3\n      dup1\n      sload\n      tag_35\n      swap1\n      tag_25\n      jump\t// in\n    tag_35:\n      swap1\n      0x00\n      mstore\n      keccak256(0x00, 0x20)\n      swap1\n      0x1f\n      add\n      0x20\n      swap1\n      div\n      dup2\n      add\n      swap3\n      dup3\n      tag_37\n      jumpi\n      0x00\n      dup6\n      sstore\n      jump(tag_36)\n    tag_37:\n      dup3\n      0x1f\n      lt\n      tag_38\n      jumpi\n      dup1\n      mload\n      not(0xff)\n      and\n      dup4\n      dup1\n      add\n      or\n      dup6\n      sstore\n      jump(tag_36)\n    tag_38:\n      dup3\n      dup1\n      add\n      0x01\n      add\n      dup6\n      sstore\n      dup3\n      iszero\n      tag_36\n      jumpi\n      swap2\n      dup3\n      add\n    tag_39:\n      dup3\n      dup2\n      gt\n      iszero\n      tag_40\n      jumpi\n      dup3\n      mload\n      dup3\n      sstore\n      swap2\n      0x20\n      add\n      swap2\n      swap1\n      0x01\n      add\n      swap1\n      jump(tag_39)\n    tag_40:\n    tag_36:\n      pop\n      swap1\n      pop\n      tag_41\n      swap2\n      swap1\n      tag_42\n      jump\t// in\n    tag_41:\n      pop\n      swap1\n      jump\t// out\n    tag_42:\n    tag_43:\n      dup1\n      dup3\n      gt\n      iszero\n      tag_44\n      jumpi\n      0x00\n      dup2\n      0x00\n      swap1\n      sstore\n      pop\n      0x01\n      add\n      jump(tag_43)\n    tag_44:\n      pop\n      swap1\n      jump\t// out\n        /* \"#utility.yul\":7:419   */\n    tag_46:\n        /* \"#utility.yul\":85:90   */\n      0x00\n        /* \"#utility.yul\":110:176   */\n      tag_48\n        /* \"#utility.yul\":126:175   */\n      tag_49\n        /* \"#utility.yul\":168:174   */\n      dup5\n        /* \"#utility.yul\":126:175   */\n      tag_50\n      jump\t// in\n    tag_49:\n        /* \"#utility.yul\":110:176   */\n      tag_51\n      jump\t// in\n    tag_48:\n        /* \"#utility.yul\":101:176   */\n      swap1\n      pop\n        /* \"#utility.yul\":199:205   */\n      dup3\n        /* \"#utility.yul\":192:197   */\n      dup2\n        /* \"#utility.yul\":185:206   */\n      mstore\n        /* \"#utility.yul\":237:241   */\n      0x20\n        /* \"#utility.yul\":230:235   */\n      dup2\n        /* \"#utility.yul\":226:242   */\n      add\n        /* \"#utility.yul\":275:278   */\n      dup5\n        /* \"#utility.yul\":266:272   */\n      dup5\n        /* \"#utility.yul\":261:264   */\n      dup5\n        /* \"#utility.yul\":257:273   */\n      add\n        /* \"#utility.yul\":254:279   */\n      gt\n        /* \"#utility.yul\":251:363   */\n      iszero\n      tag_52\n      jumpi\n        /* \"#utility.yul\":282:361   */\n      tag_53\n      tag_54\n      jump\t// in\n    tag_53:\n        /* \"#utility.yul\":251:363   */\n    tag_52:\n        /* \"#utility.yul\":372:413   */\n      tag_55\n        /* \"#utility.yul\":406:412   */\n      dup5\n        /* \"#utility.yul\":401:404   */\n      dup3\n        /* \"#utility.yul\":396:399   */\n      dup6\n        /* \"#utility.yul\":372:413   */\n      tag_56\n      jump\t// in\n    tag_55:\n        /* \"#utility.yul\":91:419   */\n      pop\n        /* \"#utility.yul\":7:419   */\n      swap4\n      swap3\n      pop\n      pop\n      pop\n      jump\t// out\n        /* \"#utility.yul\":439:779   */\n    tag_57:\n        /* \"#utility.yul\":495:500   */\n      0x00\n        /* \"#utility.yul\":544:547   */\n      dup3\n        /* \"#utility.yul\":537:541   */\n      0x1f\n        /* \"#utility.yul\":529:535   */\n      dup4\n        /* \"#utility.yul\":525:542   */\n      add\n        /* \"#utility.yul\":521:548   */\n      slt\n        /* \"#utility.yul\":511:633   */\n      tag_59\n      jumpi\n        /* \"#utility.yul\":552:631   */\n      tag_60\n      tag_61\n      jump\t// in\n    tag_60:\n        /* \"#utility.yul\":511:633   */\n    tag_59:\n        /* \"#utility.yul\":669:675   */\n      dup2\n        /* \"#utility.yul\":656:676   */\n      calldataload\n        /* \"#utility.yul\":694:773   */\n      tag_62\n        /* \"#utility.yul\":769:772   */\n      dup5\n        /* \"#utility.yul\":761:767   */\n      dup3\n        /* \"#utility.yul\":754:758   */\n      0x20\n        /* \"#utility.yul\":746:752   */\n      dup7\n        /* \"#utility.yul\":742:759   */\n      add\n        /* \"#utility.yul\":694:773   */\n      tag_46\n      jump\t// in\n    tag_62:\n        /* \"#utility.yul\":685:773   */\n      swap2\n      pop\n        /* \"#utility.yul\":501:779   */\n      pop\n        /* \"#utility.yul\":439:779   */\n      swap3\n      swap2\n      pop\n      pop\n      jump\t// out\n        /* \"#utility.yul\":785:924   */\n    tag_63:\n        /* \"#utility.yul\":831:836   */\n      0x00\n        /* \"#utility.yul\":869:875   */\n      dup2\n        /* \"#utility.yul\":856:876   */\n      calldataload\n        /* \"#utility.yul\":847:876   */\n      swap1\n      pop\n        /* \"#utility.yul\":885:918   */\n      tag_65\n        /* \"#utility.yul\":912:917   */\n      dup2\n        /* \"#utility.yul\":885:918   */\n      tag_66\n      jump\t// in\n    tag_65:\n        /* \"#utility.yul\":785:924   */\n      swap3\n      swap2\n      pop\n      pop\n      jump\t// out\n        /* \"#utility.yul\":930:1439   */\n    tag_17:\n        /* \"#utility.yul\":999:1005   */\n      0x00\n        /* \"#utility.yul\":1048:1050   */\n      0x20\n        /* \"#utility.yul\":1036:1045   */\n      dup3\n        /* \"#utility.yul\":1027:1034   */\n      dup5\n        /* \"#utility.yul\":1023:1046   */\n      sub\n        /* \"#utility.yul\":1019:1051   */\n      slt\n        /* \"#utility.yul\":1016:1135   */\n      iszero\n      tag_68\n      jumpi\n        /* \"#utility.yul\":1054:1133   */\n      tag_69\n      tag_70\n      jump\t// in\n    tag_69:\n        /* \"#utility.yul\":1016:1135   */\n    tag_68:\n        /* \"#utility.yul\":1202:1203   */\n      0x00\n        /* \"#utility.yul\":1191:1200   */\n      dup3\n        /* \"#utility.yul\":1187:1204   */\n      add\n        /* \"#utility.yul\":1174:1205   */\n      calldataload\n        /* \"#utility.yul\":1232:1250   */\n      0xffffffffffffffff\n        /* \"#utility.yul\":1224:1230   */\n      dup2\n        /* \"#utility.yul\":1221:1251   */\n      gt\n        /* \"#utility.yul\":1218:1335   */\n      iszero\n      tag_71\n      jumpi\n        /* \"#utility.yul\":1254:1333   */\n      tag_72\n      tag_73\n      jump\t// in\n    tag_72:\n        /* \"#utility.yul\":1218:1335   */\n    tag_71:\n        /* \"#utility.yul\":1359:1422   */\n      tag_74\n        /* \"#utility.yul\":1414:1421   */\n      dup5\n        /* \"#utility.yul\":1405:1411   */\n      dup3\n        /* \"#utility.yul\":1394:1403   */\n      dup6\n        /* \"#utility.yul\":1390:1412   */\n      add\n        /* \"#utility.yul\":1359:1422   */\n      tag_57\n      jump\t// in\n    tag_74:\n        /* \"#utility.yul\":1349:1422   */\n      swap2\n      pop\n        /* \"#utility.yul\":1145:1432   */\n      pop\n        /* \"#utility.yul\":930:1439   */\n      swap3\n      swap2\n      pop\n      pop\n      jump\t// out\n        /* \"#utility.yul\":1445:1774   */\n    tag_21:\n        /* \"#utility.yul\":1504:1510   */\n      0x00\n        /* \"#utility.yul\":1553:1555   */\n      0x20\n        /* \"#utility.yul\":1541:1550   */\n      dup3\n        /* \"#utility.yul\":1532:1539   */\n      dup5\n        /* \"#utility.yul\":1528:1551   */\n      sub\n        /* \"#utility.yul\":1524:1556   */\n      slt\n        /* \"#utility.yul\":1521:1640   */\n      iszero\n      tag_76\n      jumpi\n        /* \"#utility.yul\":1559:1638   */\n      tag_77\n      tag_70\n      jump\t// in\n    tag_77:\n        /* \"#utility.yul\":1521:1640   */\n    tag_76:\n        /* \"#utility.yul\":1679:1680   */\n      0x00\n        /* \"#utility.yul\":1704:1757   */\n      tag_78\n        /* \"#utility.yul\":1749:1756   */\n      dup5\n        /* \"#utility.yul\":1740:1746   */\n      dup3\n        /* \"#utility.yul\":1729:1738   */\n      dup6\n        /* \"#utility.yul\":1725:1747   */\n      add\n        /* \"#utility.yul\":1704:1757   */\n      tag_63\n      jump\t// in\n    tag_78:\n        /* \"#utility.yul\":1694:1757   */\n      swap2\n      pop\n        /* \"#utility.yul\":1650:1767   */\n      pop\n        /* \"#utility.yul\":1445:1774   */\n      swap3\n      swap2\n      pop\n      pop\n      jump\t// out\n        /* \"#utility.yul\":1780:2144   */\n    tag_79:\n        /* \"#utility.yul\":1868:1871   */\n      0x00\n        /* \"#utility.yul\":1896:1935   */\n      tag_81\n        /* \"#utility.yul\":1929:1934   */\n      dup3\n        /* \"#utility.yul\":1896:1935   */\n      tag_82\n      jump\t// in\n    tag_81:\n        /* \"#utility.yul\":1951:2022   */\n      tag_83\n        /* \"#utility.yul\":2015:2021   */\n      dup2\n        /* \"#utility.yul\":2010:2013   */\n      dup6\n        /* \"#utility.yul\":1951:2022   */\n      tag_84\n      jump\t// in\n    tag_83:\n        /* \"#utility.yul\":1944:2022   */\n      swap4\n      pop\n        /* \"#utility.yul\":2031:2083   */\n      tag_85\n        /* \"#utility.yul\":2076:2082   */\n      dup2\n        /* \"#utility.yul\":2071:2074   */\n      dup6\n        /* \"#utility.yul\":2064:2068   */\n      0x20\n        /* \"#utility.yul\":2057:2062   */\n      dup7\n        /* \"#utility.yul\":2053:2069   */\n      add\n        /* \"#utility.yul\":2031:2083   */\n      tag_86\n      jump\t// in\n    tag_85:\n        /* \"#utility.yul\":2108:2137   */\n      tag_87\n        /* \"#utility.yul\":2130:2136   */\n      dup2\n        /* \"#utility.yul\":2108:2137   */\n      tag_88\n      jump\t// in\n    tag_87:\n        /* \"#utility.yul\":2103:2106   */\n      dup5\n        /* \"#utility.yul\":2099:2138   */\n      add\n        /* \"#utility.yul\":2092:2138   */\n      swap2\n      pop\n        /* \"#utility.yul\":1872:2144   */\n      pop\n        /* \"#utility.yul\":1780:2144   */\n      swap3\n      swap2\n      pop\n      pop\n      jump\t// out\n        /* \"#utility.yul\":2150:2268   */\n    tag_89:\n        /* \"#utility.yul\":2237:2261   */\n      tag_91\n        /* \"#utility.yul\":2255:2260   */\n      dup2\n        /* \"#utility.yul\":2237:2261   */\n      tag_92\n      jump\t// in\n    tag_91:\n        /* \"#utility.yul\":2232:2235   */\n      dup3\n        /* \"#utility.yul\":2225:2262   */\n      mstore\n        /* \"#utility.yul\":2150:2268   */\n      pop\n      pop\n      jump\t// out\n        /* \"#utility.yul\":2274:2587   */\n    tag_10:\n        /* \"#utility.yul\":2387:2391   */\n      0x00\n        /* \"#utility.yul\":2425:2427   */\n      0x20\n        /* \"#utility.yul\":2414:2423   */\n      dup3\n        /* \"#utility.yul\":2410:2428   */\n      add\n        /* \"#utility.yul\":2402:2428   */\n      swap1\n      pop\n        /* \"#utility.yul\":2474:2483   */\n      dup2\n        /* \"#utility.yul\":2468:2472   */\n      dup2\n        /* \"#utility.yul\":2464:2484   */\n      sub\n        /* \"#utility.yul\":2460:2461   */\n      0x00\n        /* \"#utility.yul\":2449:2458   */\n      dup4\n        /* \"#utility.yul\":2445:2462   */\n      add\n        /* \"#utility.yul\":2438:2485   */\n      mstore\n        /* \"#utility.yul\":2502:2580   */\n      tag_94\n        /* \"#utility.yul\":2575:2579   */\n      dup2\n        /* \"#utility.yul\":2566:2572   */\n      dup5\n        /* \"#utility.yul\":2502:2580   */\n      tag_79\n      jump\t// in\n    tag_94:\n        /* \"#utility.yul\":2494:2580   */\n      swap1\n      pop\n        /* \"#utility.yul\":2274:2587   */\n      swap3\n      swap2\n      pop\n      pop\n      jump\t// out\n        /* \"#utility.yul\":2593:2815   */\n    tag_14:\n        /* \"#utility.yul\":2686:2690   */\n      0x00\n        /* \"#utility.yul\":2724:2726   */\n      0x20\n        /* \"#utility.yul\":2713:2722   */\n      dup3\n        /* \"#utility.yul\":2709:2727   */\n      add\n        /* \"#utility.yul\":2701:2727   */\n      swap1\n      pop\n        /* \"#utility.yul\":2737:2808   */\n      tag_96\n        /* \"#utility.yul\":2805:2806   */\n      0x00\n        /* \"#utility.yul\":2794:2803   */\n      dup4\n        /* \"#utility.yul\":2790:2807   */\n      add\n        /* \"#utility.yul\":2781:2787   */\n      dup5\n        /* \"#utility.yul\":2737:2808   */\n      tag_89\n      jump\t// in\n    tag_96:\n        /* \"#utility.yul\":2593:2815   */\n      swap3\n      swap2\n      pop\n      pop\n      jump\t// out\n        /* \"#utility.yul\":2821:2950   */\n    tag_51:\n        /* \"#utility.yul\":2855:2861   */\n      0x00\n        /* \"#utility.yul\":2882:2902   */\n      tag_98\n      tag_99\n      jump\t// in\n    tag_98:\n        /* \"#utility.yul\":2872:2902   */\n      swap1\n      pop\n        /* \"#utility.yul\":2911:2944   */\n      tag_100\n        /* \"#utility.yul\":2939:2943   */\n      dup3\n        /* \"#utility.yul\":2931:2937   */\n      dup3\n        /* \"#utility.yul\":2911:2944   */\n      tag_101\n      jump\t// in\n    tag_100:\n        /* \"#utility.yul\":2821:2950   */\n      swap2\n      swap1\n      pop\n      jump\t// out\n        /* \"#utility.yul\":2956:3031   */\n    tag_99:\n        /* \"#utility.yul\":2989:2995   */\n      0x00\n        /* \"#utility.yul\":3022:3024   */\n      0x40\n        /* \"#utility.yul\":3016:3025   */\n      mload\n        /* \"#utility.yul\":3006:3025   */\n      swap1\n      pop\n        /* \"#utility.yul\":2956:3031   */\n      swap1\n      jump\t// out\n        /* \"#utility.yul\":3037:3345   */\n    tag_50:\n        /* \"#utility.yul\":3099:3103   */\n      0x00\n        /* \"#utility.yul\":3189:3207   */\n      0xffffffffffffffff\n        /* \"#utility.yul\":3181:3187   */\n      dup3\n        /* \"#utility.yul\":3178:3208   */\n      gt\n        /* \"#utility.yul\":3175:3231   */\n      iszero\n      tag_104\n      jumpi\n        /* \"#utility.yul\":3211:3229   */\n      tag_105\n      tag_106\n      jump\t// in\n    tag_105:\n        /* \"#utility.yul\":3175:3231   */\n    tag_104:\n        /* \"#utility.yul\":3249:3278   */\n      tag_107\n        /* \"#utility.yul\":3271:3277   */\n      dup3\n        /* \"#utility.yul\":3249:3278   */\n      tag_88\n      jump\t// in\n    tag_107:\n        /* \"#utility.yul\":3241:3278   */\n      swap1\n      pop\n        /* \"#utility.yul\":3333:3337   */\n      0x20\n        /* \"#utility.yul\":3327:3331   */\n      dup2\n        /* \"#utility.yul\":3323:3338   */\n      add\n        /* \"#utility.yul\":3315:3338   */\n      swap1\n      pop\n        /* \"#utility.yul\":3037:3345   */\n      swap2\n      swap1\n      pop\n      jump\t// out\n        /* \"#utility.yul\":3351:3450   */\n    tag_82:\n        /* \"#utility.yul\":3403:3409   */\n      0x00\n        /* \"#utility.yul\":3437:3442   */\n      dup2\n        /* \"#utility.yul\":3431:3443   */\n      mload\n        /* \"#utility.yul\":3421:3443   */\n      swap1\n      pop\n        /* \"#utility.yul\":3351:3450   */\n      swap2\n      swap1\n      pop\n      jump\t// out\n        /* \"#utility.yul\":3456:3625   */\n    tag_84:\n        /* \"#utility.yul\":3540:3551   */\n      0x00\n        /* \"#utility.yul\":3574:3580   */\n      dup3\n        /* \"#utility.yul\":3569:3572   */\n      dup3\n        /* \"#utility.yul\":3562:3581   */\n      mstore\n        /* \"#utility.yul\":3614:3618   */\n      0x20\n        /* \"#utility.yul\":3609:3612   */\n      dup3\n        /* \"#utility.yul\":3605:3619   */\n      add\n        /* \"#utility.yul\":3590:3619   */\n      swap1\n      pop\n        /* \"#utility.yul\":3456:3625   */\n      swap3\n      swap2\n      pop\n      pop\n      jump\t// out\n        /* \"#utility.yul\":3631:3708   */\n    tag_92:\n        /* \"#utility.yul\":3668:3675   */\n      0x00\n        /* \"#utility.yul\":3697:3702   */\n      dup2\n        /* \"#utility.yul\":3686:3702   */\n      swap1\n      pop\n        /* \"#utility.yul\":3631:3708   */\n      swap2\n      swap1\n      pop\n      jump\t// out\n        /* \"#utility.yul\":3714:3868   */\n    tag_56:\n        /* \"#utility.yul\":3798:3804   */\n      dup3\n        /* \"#utility.yul\":3793:3796   */\n      dup2\n        /* \"#utility.yul\":3788:3791   */\n      dup4\n        /* \"#utility.yul\":3775:3805   */\n      calldatacopy\n        /* \"#utility.yul\":3860:3861   */\n      0x00\n        /* \"#utility.yul\":3851:3857   */\n      dup4\n        /* \"#utility.yul\":3846:3849   */\n      dup4\n        /* \"#utility.yul\":3842:3858   */\n      add\n        /* \"#utility.yul\":3835:3862   */\n      mstore\n        /* \"#utility.yul\":3714:3868   */\n      pop\n      pop\n      pop\n      jump\t// out\n        /* \"#utility.yul\":3874:4181   */\n    tag_86:\n        /* \"#utility.yul\":3942:3943   */\n      0x00\n        /* \"#utility.yul\":3952:4065   */\n    tag_113:\n        /* \"#utility.yul\":3966:3972   */\n      dup4\n        /* \"#utility.yul\":3963:3964   */\n      dup2\n        /* \"#utility.yul\":3960:3973   */\n      lt\n        /* \"#utility.yul\":3952:4065   */\n      iszero\n      tag_115\n      jumpi\n        /* \"#utility.yul\":4051:4052   */\n      dup1\n        /* \"#utility.yul\":4046:4049   */\n      dup3\n        /* \"#utility.yul\":4042:4053   */\n      add\n        /* \"#utility.yul\":4036:4054   */\n      mload\n        /* \"#utility.yul\":4032:4033   */\n      dup2\n        /* \"#utility.yul\":4027:4030   */\n      dup5\n        /* \"#utility.yul\":4023:4034   */\n      add\n        /* \"#utility.yul\":4016:4055   */\n      mstore\n        /* \"#utility.yul\":3988:3990   */\n      0x20\n        /* \"#utility.yul\":3985:3986   */\n      dup2\n        /* \"#utility.yul\":3981:3991   */\n      add\n        /* \"#utility.yul\":3976:3991   */\n      swap1\n      pop\n        /* \"#utility.yul\":3952:4065   */\n      jump(tag_113)\n    tag_115:\n        /* \"#utility.yul\":4083:4089   */\n      dup4\n        /* \"#utility.yul\":4080:4081   */\n      dup2\n        /* \"#utility.yul\":4077:4090   */\n      gt\n        /* \"#utility.yul\":4074:4175   */\n      iszero\n      tag_116\n      jumpi\n        /* \"#utility.yul\":4163:4164   */\n      0x00\n        /* \"#utility.yul\":4154:4160   */\n      dup5\n        /* \"#utility.yul\":4149:4152   */\n      dup5\n        /* \"#utility.yul\":4145:4161   */\n      add\n        /* \"#utility.yul\":4138:4165   */\n      mstore\n        /* \"#utility.yul\":4074:4175   */\n    tag_116:\n        /* \"#utility.yul\":3923:4181   */\n      pop\n        /* \"#utility.yul\":3874:4181   */\n      pop\n      pop\n      pop\n      jump\t// out\n        /* \"#utility.yul\":4187:4507   */\n    tag_25:\n        /* \"#utility.yul\":4231:4237   */\n      0x00\n        /* \"#utility.yul\":4268:4269   */\n      0x02\n        /* \"#utility.yul\":4262:4266   */\n      dup3\n        /* \"#utility.yul\":4258:4270   */\n      div\n        /* \"#utility.yul\":4248:4270   */\n      swap1\n      pop\n        /* \"#utility.yul\":4315:4316   */\n      0x01\n        /* \"#utility.yul\":4309:4313   */\n      dup3\n        /* \"#utility.yul\":4305:4317   */\n      and\n        /* \"#utility.yul\":4336:4354   */\n      dup1\n        /* \"#utility.yul\":4326:4407   */\n      tag_118\n      jumpi\n        /* \"#utility.yul\":4392:4396   */\n      0x7f\n        /* \"#utility.yul\":4384:4390   */\n      dup3\n        /* \"#utility.yul\":4380:4397   */\n      and\n        /* \"#utility.yul\":4370:4397   */\n      swap2\n      pop\n        /* \"#utility.yul\":4326:4407   */\n    tag_118:\n        /* \"#utility.yul\":4454:4456   */\n      0x20\n        /* \"#utility.yul\":4446:4452   */\n      dup3\n        /* \"#utility.yul\":4443:4457   */\n      lt\n        /* \"#utility.yul\":4423:4441   */\n      dup2\n        /* \"#utility.yul\":4420:4458   */\n      eq\n        /* \"#utility.yul\":4417:4501   */\n      iszero\n      tag_119\n      jumpi\n        /* \"#utility.yul\":4473:4491   */\n      tag_120\n      tag_121\n      jump\t// in\n    tag_120:\n        /* \"#utility.yul\":4417:4501   */\n    tag_119:\n        /* \"#utility.yul\":4238:4507   */\n      pop\n        /* \"#utility.yul\":4187:4507   */\n      swap2\n      swap1\n      pop\n      jump\t// out\n        /* \"#utility.yul\":4513:4794   */\n    tag_101:\n        /* \"#utility.yul\":4596:4623   */\n      tag_123\n        /* \"#utility.yul\":4618:4622   */\n      dup3\n        /* \"#utility.yul\":4596:4623   */\n      tag_88\n      jump\t// in\n    tag_123:\n        /* \"#utility.yul\":4588:4594   */\n      dup2\n        /* \"#utility.yul\":4584:4624   */\n      add\n        /* \"#utility.yul\":4726:4732   */\n      dup2\n        /* \"#utility.yul\":4714:4724   */\n      dup2\n        /* \"#utility.yul\":4711:4733   */\n      lt\n        /* \"#utility.yul\":4690:4708   */\n      0xffffffffffffffff\n        /* \"#utility.yul\":4678:4688   */\n      dup3\n        /* \"#utility.yul\":4675:4709   */\n      gt\n        /* \"#utility.yul\":4672:4734   */\n      or\n        /* \"#utility.yul\":4669:4757   */\n      iszero\n      tag_124\n      jumpi\n        /* \"#utility.yul\":4737:4755   */\n      tag_125\n      tag_106\n      jump\t// in\n    tag_125:\n        /* \"#utility.yul\":4669:4757   */\n    tag_124:\n        /* \"#utility.yul\":4777:4787   */\n      dup1\n        /* \"#utility.yul\":4773:4775   */\n      0x40\n        /* \"#utility.yul\":4766:4788   */\n      mstore\n        /* \"#utility.yul\":4556:4794   */\n      pop\n        /* \"#utility.yul\":4513:4794   */\n      pop\n      pop\n      jump\t// out\n        /* \"#utility.yul\":4800:4980   */\n    tag_121:\n        /* \"#utility.yul\":4848:4925   */\n      0x4e487b7100000000000000000000000000000000000000000000000000000000\n        /* \"#utility.yul\":4845:4846   */\n      0x00\n        /* \"#utility.yul\":4838:4926   */\n      mstore\n        /* \"#utility.yul\":4945:4949   */\n      0x22\n        /* \"#utility.yul\":4942:4943   */\n      0x04\n        /* \"#utility.yul\":4935:4950   */\n      mstore\n        /* \"#utility.yul\":4969:4973   */\n      0x24\n        /* \"#utility.yul\":4966:4967   */\n      0x00\n        /* \"#utility.yul\":4959:4974   */\n      revert\n        /* \"#utility.yul\":4986:5166   */\n    tag_106:\n        /* \"#utility.yul\":5034:5111   */\n      0x4e487b7100000000000000000000000000000000000000000000000000000000\n        /* \"#utility.yul\":5031:5032   */\n      0x00\n        /* \"#utility.yul\":5024:5112   */\n      mstore\n        /* \"#utility.yul\":5131:5135   */\n      0x41\n        /* \"#utility.yul\":5128:5129   */\n      0x04\n        /* \"#utility.yul\":5121:5136   */\n      mstore\n        /* \"#utility.yul\":5155:5159   */\n      0x24\n        /* \"#utility.yul\":5152:5153   */\n      0x00\n        /* \"#utility.yul\":5145:5160   */\n      revert\n        /* \"#utility.yul\":5172:5289   */\n    tag_61:\n        /* \"#utility.yul\":5281:5282   */\n      0x00\n        /* \"#utility.yul\":5278:5279   */\n      dup1\n        /* \"#utility.yul\":5271:5283   */\n      revert\n        /* \"#utility.yul\":5295:5412   */\n    tag_54:\n        /* \"#utility.yul\":5404:5405   */\n      0x00\n        /* \"#utility.yul\":5401:5402   */\n      dup1\n        /* \"#utility.yul\":5394:5406   */\n      revert\n        /* \"#utility.yul\":5418:5535   */\n    tag_73:\n        /* \"#utility.yul\":5527:5528   */\n      0x00\n        /* \"#utility.yul\":5524:5525   */\n      dup1\n        /* \"#utility.yul\":5517:5529   */\n      revert\n        /* \"#utility.yul\":5541:5658   */\n    tag_70:\n        /* \"#utility.yul\":5650:5651   */\n      0x00\n        /* \"#utility.yul\":5647:5648   */\n      dup1\n        /* \"#utility.yul\":5640:5652   */\n      revert\n        /* \"#utility.yul\":5664:5766   */\n    tag_88:\n        /* \"#utility.yul\":5705:5711   */\n      0x00\n        /* \"#utility.yul\":5756:5758   */\n      0x1f\n        /* \"#utility.yul\":5752:5759   */\n      not\n        /* \"#utility.yul\":5747:5749   */\n      0x1f\n        /* \"#utility.yul\":5740:5745   */\n      dup4\n        /* \"#utility.yul\":5736:5750   */\n      add\n        /* \"#utility.yul\":5732:5760   */\n      and\n        /* \"#utility.yul\":5722:5760   */\n      swap1\n      pop\n        /* \"#utility.yul\":5664:5766   */\n      swap2\n      swap1\n      pop\n      jump\t// out\n        /* \"#utility.yul\":5772:5894   */\n    tag_66:\n        /* \"#utility.yul\":5845:5869   */\n      tag_134\n        /* \"#utility.yul\":5863:5868   */\n      dup2\n        /* \"#utility.yul\":5845:5869   */\n      tag_92\n      jump\t// in\n    tag_134:\n        /* \"#utility.yul\":5838:5843   */\n      dup2\n        /* \"#utility.yul\":5835:5870   */\n      eq\n        /* \"#utility.yul\":5825:5888   */\n      tag_135\n      jumpi\n        /* \"#utility.yul\":5884:5885   */\n      0x00\n        /* \"#utility.yul\":5881:5882   */\n      dup1\n        /* \"#utility.yul\":5874:5886   */\n      revert\n        /* \"#utility.yul\":5825:5888   */\n    tag_135:\n        /* \"#utility.yul\":5772:5894   */\n      pop\n      jump\t// out\n\n    auxdata: 0xa26469706673582212202648e91cc910363fb0eaadc392ac2e4a871784152f16d53f87649d1ebf6813a964736f6c63430008070033\n}\n",
				"bytecode": {
					"linkReferences": {},
					"object": "608060405234801561001057600080fd5b50610599806100206000396000f3fe608060405234801561001057600080fd5b506004361061004c5760003560e01c806317d7de7c14610051578063967e6e651461006f578063c47f00271461008d578063d5dcf127146100a9575b600080fd5b6100596100c5565b604051610066919061036b565b60405180910390f35b610077610157565b604051610084919061038d565b60405180910390f35b6100a760048036038101906100a291906102ad565b610161565b005b6100c360048036038101906100be91906102f6565b61017b565b005b6060600080546100d490610466565b80601f016020809104026020016040519081016040528092919081815260200182805461010090610466565b801561014d5780601f106101225761010080835404028352916020019161014d565b820191906000526020600020905b81548152906001019060200180831161013057829003601f168201915b5050505050905090565b6000600154905090565b8060009080519060200190610177929190610185565b5050565b8060018190555050565b82805461019190610466565b90600052602060002090601f0160209004810192826101b357600085556101fa565b82601f106101cc57805160ff19168380011785556101fa565b828001600101855582156101fa579182015b828111156101f95782518255916020019190600101906101de565b5b509050610207919061020b565b5090565b5b8082111561022457600081600090555060010161020c565b5090565b600061023b610236846103cd565b6103a8565b9050828152602081018484840111156102575761025661052c565b5b610262848285610424565b509392505050565b600082601f83011261027f5761027e610527565b5b813561028f848260208601610228565b91505092915050565b6000813590506102a78161054c565b92915050565b6000602082840312156102c3576102c2610536565b5b600082013567ffffffffffffffff8111156102e1576102e0610531565b5b6102ed8482850161026a565b91505092915050565b60006020828403121561030c5761030b610536565b5b600061031a84828501610298565b91505092915050565b600061032e826103fe565b6103388185610409565b9350610348818560208601610433565b6103518161053b565b840191505092915050565b6103658161041a565b82525050565b600060208201905081810360008301526103858184610323565b905092915050565b60006020820190506103a2600083018461035c565b92915050565b60006103b26103c3565b90506103be8282610498565b919050565b6000604051905090565b600067ffffffffffffffff8211156103e8576103e76104f8565b5b6103f18261053b565b9050602081019050919050565b600081519050919050565b600082825260208201905092915050565b6000819050919050565b82818337600083830152505050565b60005b83811015610451578082015181840152602081019050610436565b83811115610460576000848401525b50505050565b6000600282049050600182168061047e57607f821691505b60208210811415610492576104916104c9565b5b50919050565b6104a18261053b565b810181811067ffffffffffffffff821117156104c0576104bf6104f8565b5b80604052505050565b7f4e487b7100000000000000000000000000000000000000000000000000000000600052602260045260246000fd5b7f4e487b7100000000000000000000000000000000000000000000000000000000600052604160045260246000fd5b600080fd5b600080fd5b600080fd5b600080fd5b6000601f19601f8301169050919050565b6105558161041a565b811461056057600080fd5b5056fea26469706673582212202648e91cc910363fb0eaadc392ac2e4a871784152f16d53f87649d1ebf6813a964736f6c63430008070033",
					"opcodes": "PUSH1 0x80 PUSH1 0x40 MSTORE CALLVALUE DUP1 ISZERO PUSH2 0x10 JUMPI PUSH1 0x0 DUP1 REVERT JUMPDEST POP PUSH2 0x599 DUP1 PUSH2 0x20 PUSH1 0x0 CODECOPY PUSH1 0x0 RETURN INVALID PUSH1 0x80 PUSH1 0x40 MSTORE CALLVALUE DUP1 ISZERO PUSH2 0x10 JUMPI PUSH1 0x0 DUP1 REVERT JUMPDEST POP PUSH1 0x4 CALLDATASIZE LT PUSH2 0x4C JUMPI PUSH1 0x0 CALLDATALOAD PUSH1 0xE0 SHR DUP1 PUSH4 0x17D7DE7C EQ PUSH2 0x51 JUMPI DUP1 PUSH4 0x967E6E65 EQ PUSH2 0x6F JUMPI DUP1 PUSH4 0xC47F0027 EQ PUSH2 0x8D JUMPI DUP1 PUSH4 0xD5DCF127 EQ PUSH2 0xA9 JUMPI JUMPDEST PUSH1 0x0 DUP1 REVERT JUMPDEST PUSH2 0x59 PUSH2 0xC5 JUMP JUMPDEST PUSH1 0x40 MLOAD PUSH2 0x66 SWAP2 SWAP1 PUSH2 0x36B JUMP JUMPDEST PUSH1 0x40 MLOAD DUP1 SWAP2 SUB SWAP1 RETURN JUMPDEST PUSH2 0x77 PUSH2 0x157 JUMP JUMPDEST PUSH1 0x40 MLOAD PUSH2 0x84 SWAP2 SWAP1 PUSH2 0x38D JUMP JUMPDEST PUSH1 0x40 MLOAD DUP1 SWAP2 SUB SWAP1 RETURN JUMPDEST PUSH2 0xA7 PUSH1 0x4 DUP1 CALLDATASIZE SUB DUP2 ADD SWAP1 PUSH2 0xA2 SWAP2 SWAP1 PUSH2 0x2AD JUMP JUMPDEST PUSH2 0x161 JUMP JUMPDEST STOP JUMPDEST PUSH2 0xC3 PUSH1 0x4 DUP1 CALLDATASIZE SUB DUP2 ADD SWAP1 PUSH2 0xBE SWAP2 SWAP1 PUSH2 0x2F6 JUMP JUMPDEST PUSH2 0x17B JUMP JUMPDEST STOP JUMPDEST PUSH1 0x60 PUSH1 0x0 DUP1 SLOAD PUSH2 0xD4 SWAP1 PUSH2 0x466 JUMP JUMPDEST DUP1 PUSH1 0x1F ADD PUSH1 0x20 DUP1 SWAP2 DIV MUL PUSH1 0x20 ADD PUSH1 0x40 MLOAD SWAP1 DUP2 ADD PUSH1 0x40 MSTORE DUP1 SWAP3 SWAP2 SWAP1 DUP2 DUP2 MSTORE PUSH1 0x20 ADD DUP3 DUP1 SLOAD PUSH2 0x100 SWAP1 PUSH2 0x466 JUMP JUMPDEST DUP1 ISZERO PUSH2 0x14D JUMPI DUP1 PUSH1 0x1F LT PUSH2 0x122 JUMPI PUSH2 0x100 DUP1 DUP4 SLOAD DIV MUL DUP4 MSTORE SWAP2 PUSH1 0x20 ADD SWAP2 PUSH2 0x14D JUMP JUMPDEST DUP3 ADD SWAP2 SWAP1 PUSH1 0x0 MSTORE PUSH1 0x20 PUSH1 0x0 KECCAK256 SWAP1 JUMPDEST DUP2 SLOAD DUP2 MSTORE SWAP1 PUSH1 0x1 ADD SWAP1 PUSH1 0x20 ADD DUP1 DUP4 GT PUSH2 0x130 JUMPI DUP3 SWAP1 SUB PUSH1 0x1F AND DUP3 ADD SWAP2 JUMPDEST POP POP POP POP POP SWAP1 POP SWAP1 JUMP JUMPDEST PUSH1 0x0 PUSH1 0x1 SLOAD SWAP1 POP SWAP1 JUMP JUMPDEST DUP1 PUSH1 0x0 SWAP1 DUP1 MLOAD SWAP1 PUSH1 0x20 ADD SWAP1 PUSH2 0x177 SWAP3 SWAP2 SWAP1 PUSH2 0x185 JUMP JUMPDEST POP POP JUMP JUMPDEST DUP1 PUSH1 0x1 DUP2 SWAP1 SSTORE POP POP JUMP JUMPDEST DUP3 DUP1 SLOAD PUSH2 0x191 SWAP1 PUSH2 0x466 JUMP JUMPDEST SWAP1 PUSH1 0x0 MSTORE PUSH1 0x20 PUSH1 0x0 KECCAK256 SWAP1 PUSH1 0x1F ADD PUSH1 0x20 SWAP1 DIV DUP2 ADD SWAP3 DUP3 PUSH2 0x1B3 JUMPI PUSH1 0x0 DUP6 SSTORE PUSH2 0x1FA JUMP JUMPDEST DUP3 PUSH1 0x1F LT PUSH2 0x1CC JUMPI DUP1 MLOAD PUSH1 0xFF NOT AND DUP4 DUP1 ADD OR DUP6 SSTORE PUSH2 0x1FA JUMP JUMPDEST DUP3 DUP1 ADD PUSH1 0x1 ADD DUP6 SSTORE DUP3 ISZERO PUSH2 0x1FA JUMPI SWAP2 DUP3 ADD JUMPDEST DUP3 DUP2 GT ISZERO PUSH2 0x1F9 JUMPI DUP3 MLOAD DUP3 SSTORE SWAP2 PUSH1 0x20 ADD SWAP2 SWAP1 PUSH1 0x1 ADD SWAP1 PUSH2 0x1DE JUMP JUMPDEST JUMPDEST POP SWAP1 POP PUSH2 0x207 SWAP2 SWAP1 PUSH2 0x20B JUMP JUMPDEST POP SWAP1 JUMP JUMPDEST JUMPDEST DUP1 DUP3 GT ISZERO PUSH2 0x224 JUMPI PUSH1 0x0 DUP2 PUSH1 0x0 SWAP1 SSTORE POP PUSH1 0x1 ADD PUSH2 0x20C JUMP JUMPDEST POP SWAP1 JUMP JUMPDEST PUSH1 0x0 PUSH2 0x23B PUSH2 0x236 DUP5 PUSH2 0x3CD JUMP JUMPDEST PUSH2 0x3A8 JUMP JUMPDEST SWAP1 POP DUP3 DUP2 MSTORE PUSH1 0x20 DUP2 ADD DUP5 DUP5 DUP5 ADD GT ISZERO PUSH2 0x257 JUMPI PUSH2 0x256 PUSH2 0x52C JUMP JUMPDEST JUMPDEST PUSH2 0x262 DUP5 DUP3 DUP6 PUSH2 0x424 JUMP JUMPDEST POP SWAP4 SWAP3 POP POP POP JUMP JUMPDEST PUSH1 0x0 DUP3 PUSH1 0x1F DUP4 ADD SLT PUSH2 0x27F JUMPI PUSH2 0x27E PUSH2 0x527 JUMP JUMPDEST JUMPDEST DUP2 CALLDATALOAD PUSH2 0x28F DUP5 DUP3 PUSH1 0x20 DUP7 ADD PUSH2 0x228 JUMP JUMPDEST SWAP2 POP POP SWAP3 SWAP2 POP POP JUMP JUMPDEST PUSH1 0x0 DUP2 CALLDATALOAD SWAP1 POP PUSH2 0x2A7 DUP2 PUSH2 0x54C JUMP JUMPDEST SWAP3 SWAP2 POP POP JUMP JUMPDEST PUSH1 0x0 PUSH1 0x20 DUP3 DUP5 SUB SLT ISZERO PUSH2 0x2C3 JUMPI PUSH2 0x2C2 PUSH2 0x536 JUMP JUMPDEST JUMPDEST PUSH1 0x0 DUP3 ADD CALLDATALOAD PUSH8 0xFFFFFFFFFFFFFFFF DUP2 GT ISZERO PUSH2 0x2E1 JUMPI PUSH2 0x2E0 PUSH2 0x531 JUMP JUMPDEST JUMPDEST PUSH2 0x2ED DUP5 DUP3 DUP6 ADD PUSH2 0x26A JUMP JUMPDEST SWAP2 POP POP SWAP3 SWAP2 POP POP JUMP JUMPDEST PUSH1 0x0 PUSH1 0x20 DUP3 DUP5 SUB SLT ISZERO PUSH2 0x30C JUMPI PUSH2 0x30B PUSH2 0x536 JUMP JUMPDEST JUMPDEST PUSH1 0x0 PUSH2 0x31A DUP5 DUP3 DUP6 ADD PUSH2 0x298 JUMP JUMPDEST SWAP2 POP POP SWAP3 SWAP2 POP POP JUMP JUMPDEST PUSH1 0x0 PUSH2 0x32E DUP3 PUSH2 0x3FE JUMP JUMPDEST PUSH2 0x338 DUP2 DUP6 PUSH2 0x409 JUMP JUMPDEST SWAP4 POP PUSH2 0x348 DUP2 DUP6 PUSH1 0x20 DUP7 ADD PUSH2 0x433 JUMP JUMPDEST PUSH2 0x351 DUP2 PUSH2 0x53B JUMP JUMPDEST DUP5 ADD SWAP2 POP POP SWAP3 SWAP2 POP POP JUMP JUMPDEST PUSH2 0x365 DUP2 PUSH2 0x41A JUMP JUMPDEST DUP3 MSTORE POP POP JUMP JUMPDEST PUSH1 0x0 PUSH1 0x20 DUP3 ADD SWAP1 POP DUP2 DUP2 SUB PUSH1 0x0 DUP4 ADD MSTORE PUSH2 0x385 DUP2 DUP5 PUSH2 0x323 JUMP JUMPDEST SWAP1 POP SWAP3 SWAP2 POP POP JUMP JUMPDEST PUSH1 0x0 PUSH1 0x20 DUP3 ADD SWAP1 POP PUSH2 0x3A2 PUSH1 0x0 DUP4 ADD DUP5 PUSH2 0x35C JUMP JUMPDEST SWAP3 SWAP2 POP POP JUMP JUMPDEST PUSH1 0x0 PUSH2 0x3B2 PUSH2 0x3C3 JUMP JUMPDEST SWAP1 POP PUSH2 0x3BE DUP3 DUP3 PUSH2 0x498 JUMP JUMPDEST SWAP2 SWAP1 POP JUMP JUMPDEST PUSH1 0x0 PUSH1 0x40 MLOAD SWAP1 POP SWAP1 JUMP JUMPDEST PUSH1 0x0 PUSH8 0xFFFFFFFFFFFFFFFF DUP3 GT ISZERO PUSH2 0x3E8 JUMPI PUSH2 0x3E7 PUSH2 0x4F8 JUMP JUMPDEST JUMPDEST PUSH2 0x3F1 DUP3 PUSH2 0x53B JUMP JUMPDEST SWAP1 POP PUSH1 0x20 DUP2 ADD SWAP1 POP SWAP2 SWAP1 POP JUMP JUMPDEST PUSH1 0x0 DUP2 MLOAD SWAP1 POP SWAP2 SWAP1 POP JUMP JUMPDEST PUSH1 0x0 DUP3 DUP3 MSTORE PUSH1 0x20 DUP3 ADD SWAP1 POP SWAP3 SWAP2 POP POP JUMP JUMPDEST PUSH1 0x0 DUP2 SWAP1 POP SWAP2 SWAP1 POP JUMP JUMPDEST DUP3 DUP2 DUP4 CALLDATACOPY PUSH1 0x0 DUP4 DUP4 ADD MSTORE POP POP POP JUMP JUMPDEST PUSH1 0x0 JUMPDEST DUP4 DUP2 LT ISZERO PUSH2 0x451 JUMPI DUP1 DUP3 ADD MLOAD DUP2 DUP5 ADD MSTORE PUSH1 0x20 DUP2 ADD SWAP1 POP PUSH2 0x436 JUMP JUMPDEST DUP4 DUP2 GT ISZERO PUSH2 0x460 JUMPI PUSH1 0x0 DUP5 DUP5 ADD MSTORE JUMPDEST POP POP POP POP JUMP JUMPDEST PUSH1 0x0 PUSH1 0x2 DUP3 DIV SWAP1 POP PUSH1 0x1 DUP3 AND DUP1 PUSH2 0x47E JUMPI PUSH1 0x7F DUP3 AND SWAP2 POP JUMPDEST PUSH1 0x20 DUP3 LT DUP2 EQ ISZERO PUSH2 0x492 JUMPI PUSH2 0x491 PUSH2 0x4C9 JUMP JUMPDEST JUMPDEST POP SWAP2 SWAP1 POP JUMP JUMPDEST PUSH2 0x4A1 DUP3 PUSH2 0x53B JUMP JUMPDEST DUP2 ADD DUP2 DUP2 LT PUSH8 0xFFFFFFFFFFFFFFFF DUP3 GT OR ISZERO PUSH2 0x4C0 JUMPI PUSH2 0x4BF PUSH2 0x4F8 JUMP JUMPDEST JUMPDEST DUP1 PUSH1 0x40 MSTORE POP POP POP JUMP JUMPDEST PUSH32 0x4E487B7100000000000000000000000000000000000000000000000000000000 PUSH1 0x0 MSTORE PUSH1 0x22 PUSH1 0x4 MSTORE PUSH1 0x24 PUSH1 0x0 REVERT JUMPDEST PUSH32 0x4E487B7100000000000000000000000000000000000000000000000000000000 PUSH1 0x0 MSTORE PUSH1 0x41 PUSH1 0x4 MSTORE PUSH1 0x24 PUSH1 0x0 REVERT JUMPDEST PUSH1 0x0 DUP1 REVERT JUMPDEST PUSH1 0x0 DUP1 REVERT JUMPDEST PUSH1 0x0 DUP1 REVERT JUMPDEST PUSH1 0x0 DUP1 REVERT JUMPDEST PUSH1 0x0 PUSH1 0x1F NOT PUSH1 0x1F DUP4 ADD AND SWAP1 POP SWAP2 SWAP1 POP JUMP JUMPDEST PUSH2 0x555 DUP2 PUSH2 0x41A JUMP JUMPDEST DUP2 EQ PUSH2 0x560 JUMPI PUSH1 0x0 DUP1 REVERT JUMPDEST POP JUMP INVALID LOG2 PUSH5 0x6970667358 0x22 SLT KECCAK256 0x26 BASEFEE 0xE9 SHR 0xC9 LT CALLDATASIZE EXTCODEHASH 0xB0 0xEA 0xAD 0xC3 SWAP3 0xAC 0x2E 0x4A DUP8 OR DUP5 ISZERO 0x2F AND 0xD5 EXTCODEHASH DUP8 PUSH5 0x9D1EBF6813 0xA9 PUSH5 0x736F6C6343 STOP ADDMOD SMOD STOP CALLER "
				},
				"gasEstimates": {
					"creation": {
						"codeDepositCost": "286600",
						"executionCost": "324",
						"totalCost": "286924"
					},
					"external": {
						"getAge()": "2437",
						"getName()": "infinite",
						"setAge(uint256)": "22564",
						"setName(string)": "infinite"
					}
				},
				"methodIdentifiers": {
					"getAge()": "967e6e65",
					"getName()": "17d7de7c",
					"setAge(uint256)": "d5dcf127",
					"setName(string)": "c47f0027"
				}
			},
			"storageLayout": {
				"storage": [
					{
						"astId": 3,
						"contract": "Program1.sol:MyFirstContract",
						"label": "name",
						"offset": 0,
						"slot": "0",
						"type": "t_string_storage"
					},
					{
						"astId": 5,
						"contract": "Program1.sol:MyFirstContract",
						"label": "age",
						"offset": 0,
						"slot": "1",
						"type": "t_uint256"
					}
				],
				"types": {
					"t_string_storage": {
						"encoding": "bytes",
						"label": "string",
						"numberOfBytes": "32"
					},
					"t_uint256": {
						"encoding": "inplace",
						"label": "uint256",
						"numberOfBytes": "32"
					}
				}
			},
			"userdoc": {
				"kind": "user",
				"methods": {},
				"version": 1
			}
		}
	}
}