{
	"primitiveDataTypes.sol": {
		"Primitives": {
			"abi": [
				{
					"inputs": [],
					"name": "boolean",
					"outputs": [
						{
							"internalType": "bool",
							"name": "",
							"type": "bool"
						}
					],
					"stateMutability": "view",
					"type": "function"
				},
				{
					"inputs": [],
					"name": "u8",
					"outputs": [
						{
							"internalType": "uint8",
							"name": "",
							"type": "uint8"
						}
					],
					"stateMutability": "view",
					"type": "function"
				}
			],
			"devdoc": {
				"kind": "dev",
				"methods": {},
				"version": 1
			},
			"evm": {
				"assembly": "    /* \"primitiveDataTypes.sol\":65:151  contract Primitives{... */\n  mstore(0x40, 0x80)\n    /* \"primitiveDataTypes.sol\":111:115  true */\n  0x01\n    /* \"primitiveDataTypes.sol\":91:115  bool public boolean=true */\n  0x00\n  dup1\n  0x0100\n  exp\n  dup2\n  sload\n  dup2\n  0xff\n  mul\n  not\n  and\n  swap1\n  dup4\n  iszero\n  iszero\n  mul\n  or\n  swap1\n  sstore\n  pop\n    /* \"primitiveDataTypes.sol\":140:141  1 */\n  0x01\n    /* \"primitiveDataTypes.sol\":124:141  uint8 public u8=1 */\n  0x00\n  exp(0x0100, 0x01)\n  dup2\n  sload\n  dup2\n  0xff\n  mul\n  not\n  and\n  swap1\n  dup4\n  0xff\n  and\n  mul\n  or\n  swap1\n  sstore\n  pop\n    /* \"primitiveDataTypes.sol\":65:151  contract Primitives{... */\n  callvalue\n  dup1\n  iszero\n  tag_1\n  jumpi\n  0x00\n  dup1\n  revert\ntag_1:\n  pop\n  dataSize(sub_0)\n  dup1\n  dataOffset(sub_0)\n  0x00\n  codecopy\n  0x00\n  return\nstop\n\nsub_0: assembly {\n        /* \"primitiveDataTypes.sol\":65:151  contract Primitives{... */\n      mstore(0x40, 0x80)\n      callvalue\n      dup1\n      iszero\n      tag_1\n      jumpi\n      0x00\n      dup1\n      revert\n    tag_1:\n      pop\n      jumpi(tag_2, lt(calldatasize, 0x04))\n      shr(0xe0, calldataload(0x00))\n      dup1\n      0xab3a58a3\n      eq\n      tag_3\n      jumpi\n      dup1\n      0xc5b57bdb\n      eq\n      tag_4\n      jumpi\n    tag_2:\n      0x00\n      dup1\n      revert\n        /* \"primitiveDataTypes.sol\":124:141  uint8 public u8=1 */\n    tag_3:\n      tag_5\n      tag_6\n      jump\t// in\n    tag_5:\n      mload(0x40)\n      tag_7\n      swap2\n      swap1\n      tag_8\n      jump\t// in\n    tag_7:\n      mload(0x40)\n      dup1\n      swap2\n      sub\n      swap1\n      return\n        /* \"primitiveDataTypes.sol\":91:115  bool public boolean=true */\n    tag_4:\n      tag_9\n      tag_10\n      jump\t// in\n    tag_9:\n      mload(0x40)\n      tag_11\n      swap2\n      swap1\n      tag_12\n      jump\t// in\n    tag_11:\n      mload(0x40)\n      dup1\n      swap2\n      sub\n      swap1\n      return\n        /* \"primitiveDataTypes.sol\":124:141  uint8 public u8=1 */\n    tag_6:\n      0x00\n      0x01\n      swap1\n      sload\n      swap1\n      0x0100\n      exp\n      swap1\n      div\n      0xff\n      and\n      dup2\n      jump\t// out\n        /* \"primitiveDataTypes.sol\":91:115  bool public boolean=true */\n    tag_10:\n      0x00\n      dup1\n      sload\n      swap1\n      0x0100\n      exp\n      swap1\n      div\n      0xff\n      and\n      dup2\n      jump\t// out\n        /* \"#utility.yul\":7:93   */\n    tag_13:\n        /* \"#utility.yul\":42:49   */\n      0x00\n        /* \"#utility.yul\":82:86   */\n      0xff\n        /* \"#utility.yul\":75:80   */\n      dup3\n        /* \"#utility.yul\":71:87   */\n      and\n        /* \"#utility.yul\":60:87   */\n      swap1\n      pop\n        /* \"#utility.yul\":7:93   */\n      swap2\n      swap1\n      pop\n      jump\t// out\n        /* \"#utility.yul\":99:211   */\n    tag_14:\n        /* \"#utility.yul\":182:204   */\n      tag_20\n        /* \"#utility.yul\":198:203   */\n      dup2\n        /* \"#utility.yul\":182:204   */\n      tag_13\n      jump\t// in\n    tag_20:\n        /* \"#utility.yul\":177:180   */\n      dup3\n        /* \"#utility.yul\":170:205   */\n      mstore\n        /* \"#utility.yul\":99:211   */\n      pop\n      pop\n      jump\t// out\n        /* \"#utility.yul\":217:431   */\n    tag_8:\n        /* \"#utility.yul\":306:310   */\n      0x00\n        /* \"#utility.yul\":344:346   */\n      0x20\n        /* \"#utility.yul\":333:342   */\n      dup3\n        /* \"#utility.yul\":329:347   */\n      add\n        /* \"#utility.yul\":321:347   */\n      swap1\n      pop\n        /* \"#utility.yul\":357:424   */\n      tag_22\n        /* \"#utility.yul\":421:422   */\n      0x00\n        /* \"#utility.yul\":410:419   */\n      dup4\n        /* \"#utility.yul\":406:423   */\n      add\n        /* \"#utility.yul\":397:403   */\n      dup5\n        /* \"#utility.yul\":357:424   */\n      tag_14\n      jump\t// in\n    tag_22:\n        /* \"#utility.yul\":217:431   */\n      swap3\n      swap2\n      pop\n      pop\n      jump\t// out\n        /* \"#utility.yul\":437:527   */\n    tag_15:\n        /* \"#utility.yul\":471:478   */\n      0x00\n        /* \"#utility.yul\":514:519   */\n      dup2\n        /* \"#utility.yul\":507:520   */\n      iszero\n        /* \"#utility.yul\":500:521   */\n      iszero\n        /* \"#utility.yul\":489:521   */\n      swap1\n      pop\n        /* \"#utility.yul\":437:527   */\n      swap2\n      swap1\n      pop\n      jump\t// out\n        /* \"#utility.yul\":533:642   */\n    tag_16:\n        /* \"#utility.yul\":614:635   */\n      tag_25\n        /* \"#utility.yul\":629:634   */\n      dup2\n        /* \"#utility.yul\":614:635   */\n      tag_15\n      jump\t// in\n    tag_25:\n        /* \"#utility.yul\":609:612   */\n      dup3\n        /* \"#utility.yul\":602:636   */\n      mstore\n        /* \"#utility.yul\":533:642   */\n      pop\n      pop\n      jump\t// out\n        /* \"#utility.yul\":648:858   */\n    tag_12:\n        /* \"#utility.yul\":735:739   */\n      0x00\n        /* \"#utility.yul\":773:775   */\n      0x20\n        /* \"#utility.yul\":762:771   */\n      dup3\n        /* \"#utility.yul\":758:776   */\n      add\n        /* \"#utility.yul\":750:776   */\n      swap1\n      pop\n        /* \"#utility.yul\":786:851   */\n      tag_27\n        /* \"#utility.yul\":848:849   */\n      0x00\n        /* \"#utility.yul\":837:846   */\n      dup4\n        /* \"#utility.yul\":833:850   */\n      add\n        /* \"#utility.yul\":824:830   */\n      dup5\n        /* \"#utility.yul\":786:851   */\n      tag_16\n      jump\t// in\n    tag_27:\n        /* \"#utility.yul\":648:858   */\n      swap3\n      swap2\n      pop\n      pop\n      jump\t// out\n\n    auxdata: 0xa264697066735822122005f7a8212f225479897ae0be607f722151a170e7413e69f8ce2dd74d5a0b4c6e64736f6c634300080f0033\n}\n",
				"bytecode": {
					"linkReferences": {},
					"object": "608060405260016000806101000a81548160ff0219169083151502179055506001600060016101000a81548160ff021916908360ff16021790555034801561004657600080fd5b5061012a806100566000396000f3fe6080604052348015600f57600080fd5b506004361060325760003560e01c8063ab3a58a3146037578063c5b57bdb146051575b600080fd5b603d606b565b6040516048919060a9565b60405180910390f35b6057607e565b6040516062919060db565b60405180910390f35b600060019054906101000a900460ff1681565b60008054906101000a900460ff1681565b600060ff82169050919050565b60a381608f565b82525050565b600060208201905060bc6000830184609c565b92915050565b60008115159050919050565b60d58160c2565b82525050565b600060208201905060ee600083018460ce565b9291505056fea264697066735822122005f7a8212f225479897ae0be607f722151a170e7413e69f8ce2dd74d5a0b4c6e64736f6c634300080f0033",
					"opcodes": "PUSH1 0x80 PUSH1 0x40 MSTORE PUSH1 0x1 PUSH1 0x0 DUP1 PUSH2 0x100 EXP DUP2 SLOAD DUP2 PUSH1 0xFF MUL NOT AND SWAP1 DUP4 ISZERO ISZERO MUL OR SWAP1 SSTORE POP PUSH1 0x1 PUSH1 0x0 PUSH1 0x1 PUSH2 0x100 EXP DUP2 SLOAD DUP2 PUSH1 0xFF MUL NOT AND SWAP1 DUP4 PUSH1 0xFF AND MUL OR SWAP1 SSTORE POP CALLVALUE DUP1 ISZERO PUSH2 0x46 JUMPI PUSH1 0x0 DUP1 REVERT JUMPDEST POP PUSH2 0x12A DUP1 PUSH2 0x56 PUSH1 0x0 CODECOPY PUSH1 0x0 RETURN INVALID PUSH1 0x80 PUSH1 0x40 MSTORE CALLVALUE DUP1 ISZERO PUSH1 0xF JUMPI PUSH1 0x0 DUP1 REVERT JUMPDEST POP PUSH1 0x4 CALLDATASIZE LT PUSH1 0x32 JUMPI PUSH1 0x0 CALLDATALOAD PUSH1 0xE0 SHR DUP1 PUSH4 0xAB3A58A3 EQ PUSH1 0x37 JUMPI DUP1 PUSH4 0xC5B57BDB EQ PUSH1 0x51 JUMPI JUMPDEST PUSH1 0x0 DUP1 REVERT JUMPDEST PUSH1 0x3D PUSH1 0x6B JUMP JUMPDEST PUSH1 0x40 MLOAD PUSH1 0x48 SWAP2 SWAP1 PUSH1 0xA9 JUMP JUMPDEST PUSH1 0x40 MLOAD DUP1 SWAP2 SUB SWAP1 RETURN JUMPDEST PUSH1 0x57 PUSH1 0x7E JUMP JUMPDEST PUSH1 0x40 MLOAD PUSH1 0x62 SWAP2 SWAP1 PUSH1 0xDB JUMP JUMPDEST PUSH1 0x40 MLOAD DUP1 SWAP2 SUB SWAP1 RETURN JUMPDEST PUSH1 0x0 PUSH1 0x1 SWAP1 SLOAD SWAP1 PUSH2 0x100 EXP SWAP1 DIV PUSH1 0xFF AND DUP2 JUMP JUMPDEST PUSH1 0x0 DUP1 SLOAD SWAP1 PUSH2 0x100 EXP SWAP1 DIV PUSH1 0xFF AND DUP2 JUMP JUMPDEST PUSH1 0x0 PUSH1 0xFF DUP3 AND SWAP1 POP SWAP2 SWAP1 POP JUMP JUMPDEST PUSH1 0xA3 DUP2 PUSH1 0x8F JUMP JUMPDEST DUP3 MSTORE POP POP JUMP JUMPDEST PUSH1 0x0 PUSH1 0x20 DUP3 ADD SWAP1 POP PUSH1 0xBC PUSH1 0x0 DUP4 ADD DUP5 PUSH1 0x9C JUMP JUMPDEST SWAP3 SWAP2 POP POP JUMP JUMPDEST PUSH1 0x0 DUP2 ISZERO ISZERO SWAP1 POP SWAP2 SWAP1 POP JUMP JUMPDEST PUSH1 0xD5 DUP2 PUSH1 0xC2 JUMP JUMPDEST DUP3 MSTORE POP POP JUMP JUMPDEST PUSH1 0x0 PUSH1 0x20 DUP3 ADD SWAP1 POP PUSH1 0xEE PUSH1 0x0 DUP4 ADD DUP5 PUSH1 0xCE JUMP JUMPDEST SWAP3 SWAP2 POP POP JUMP INVALID LOG2 PUSH5 0x6970667358 0x22 SLT KECCAK256 SDIV 0xF7 0xA8 0x21 0x2F 0x22 SLOAD PUSH26 0x897AE0BE607F722151A170E7413E69F8CE2DD74D5A0B4C6E6473 PUSH16 0x6C634300080F00330000000000000000 "
				},
				"gasEstimates": {
					"creation": {
						"codeDepositCost": "59600",
						"executionCost": "48695",
						"totalCost": "108295"
					},
					"external": {
						"boolean()": "2468",
						"u8()": "2499"
					}
				},
				"methodIdentifiers": {
					"boolean()": "c5b57bdb",
					"u8()": "ab3a58a3"
				}
			},
			"storageLayout": {
				"storage": [
					{
						"astId": 4,
						"contract": "primitiveDataTypes.sol:Primitives",
						"label": "boolean",
						"offset": 0,
						"slot": "0",
						"type": "t_bool"
					},
					{
						"astId": 7,
						"contract": "primitiveDataTypes.sol:Primitives",
						"label": "u8",
						"offset": 1,
						"slot": "0",
						"type": "t_uint8"
					}
				],
				"types": {
					"t_bool": {
						"encoding": "inplace",
						"label": "bool",
						"numberOfBytes": "1"
					},
					"t_uint8": {
						"encoding": "inplace",
						"label": "uint8",
						"numberOfBytes": "1"
					}
				}
			},
			"userdoc": {
				"kind": "user",
				"methods": {},
				"version": 1
			}
		}
	}
}