{
	"DataTypes.sol": {
		"calc_disp": {
			"abi": [
				{
					"inputs": [],
					"name": "getPersonName",
					"outputs": [
						{
							"internalType": "string",
							"name": "",
							"type": "string"
						}
					],
					"stateMutability": "view",
					"type": "function"
				},
				{
					"inputs": [],
					"name": "setData",
					"outputs": [],
					"stateMutability": "nonpayable",
					"type": "function"
				}
			],
			"devdoc": {
				"kind": "dev",
				"methods": {},
				"version": 1
			},
			"evm": {
				"assembly": "    /* \"DataTypes.sol\":65:396  contract calc_disp{... */\n  mstore(0x40, 0x80)\n  callvalue\n  dup1\n  iszero\n  tag_1\n  jumpi\n  0x00\n  dup1\n  revert\ntag_1:\n  pop\n  dataSize(sub_0)\n  dup1\n  dataOffset(sub_0)\n  0x00\n  codecopy\n  0x00\n  return\nstop\n\nsub_0: assembly {\n        /* \"DataTypes.sol\":65:396  contract calc_disp{... */\n      mstore(0x40, 0x80)\n      callvalue\n      dup1\n      iszero\n      tag_1\n      jumpi\n      0x00\n      dup1\n      revert\n    tag_1:\n      pop\n      jumpi(tag_2, lt(calldatasize, 0x04))\n      shr(0xe0, calldataload(0x00))\n      dup1\n      0xb55003fa\n      eq\n      tag_3\n      jumpi\n      dup1\n      0xf31604c7\n      eq\n      tag_4\n      jumpi\n    tag_2:\n      0x00\n      dup1\n      revert\n        /* \"DataTypes.sol\":285:385  function getPersonName() external view returns(string memory){... */\n    tag_3:\n      tag_5\n      tag_6\n      jump\t// in\n    tag_5:\n      mload(0x40)\n      tag_7\n      swap2\n      swap1\n      tag_8\n      jump\t// in\n    tag_7:\n      mload(0x40)\n      dup1\n      swap2\n      sub\n      swap1\n      return\n        /* \"DataTypes.sol\":203:277  function setData() public  {... */\n    tag_4:\n      tag_9\n      tag_10\n      jump\t// in\n    tag_9:\n      stop\n        /* \"DataTypes.sol\":285:385  function getPersonName() external view returns(string memory){... */\n    tag_6:\n        /* \"DataTypes.sol\":332:345  string memory */\n      0x60\n        /* \"DataTypes.sol\":364:370  person */\n      0x00\n        /* \"DataTypes.sol\":364:375  person.name */\n      dup1\n      add\n        /* \"DataTypes.sol\":357:375  return person.name */\n      dup1\n      sload\n      tag_12\n      swap1\n      tag_13\n      jump\t// in\n    tag_12:\n      dup1\n      0x1f\n      add\n      0x20\n      dup1\n      swap2\n      div\n      mul\n      0x20\n      add\n      mload(0x40)\n      swap1\n      dup2\n      add\n      0x40\n      mstore\n      dup1\n      swap3\n      swap2\n      swap1\n      dup2\n      dup2\n      mstore\n      0x20\n      add\n      dup3\n      dup1\n      sload\n      tag_14\n      swap1\n      tag_13\n      jump\t// in\n    tag_14:\n      dup1\n      iszero\n      tag_15\n      jumpi\n      dup1\n      0x1f\n      lt\n      tag_16\n      jumpi\n      0x0100\n      dup1\n      dup4\n      sload\n      div\n      mul\n      dup4\n      mstore\n      swap2\n      0x20\n      add\n      swap2\n      jump(tag_15)\n    tag_16:\n      dup3\n      add\n      swap2\n      swap1\n      0x00\n      mstore\n      keccak256(0x00, 0x20)\n      swap1\n    tag_17:\n      dup2\n      sload\n      dup2\n      mstore\n      swap1\n      0x01\n      add\n      swap1\n      0x20\n      add\n      dup1\n      dup4\n      gt\n      tag_17\n      jumpi\n      dup3\n      swap1\n      sub\n      0x1f\n      and\n      dup3\n      add\n      swap2\n    tag_15:\n      pop\n      pop\n      pop\n      pop\n      pop\n      swap1\n      pop\n        /* \"DataTypes.sol\":285:385  function getPersonName() external view returns(string memory){... */\n      swap1\n      jump\t// out\n        /* \"DataTypes.sol\":203:277  function setData() public  {... */\n    tag_10:\n        /* \"DataTypes.sol\":248:269  Person(\"Bablu\",20,56) */\n      mload(0x40)\n      dup1\n      0x60\n      add\n      0x40\n      mstore\n      dup1\n      mload(0x40)\n      dup1\n      0x40\n      add\n      0x40\n      mstore\n      dup1\n      0x05\n      dup2\n      mstore\n      0x20\n      add\n      0x4261626c75000000000000000000000000000000000000000000000000000000\n      dup2\n      mstore\n      pop\n      dup2\n      mstore\n      0x20\n      add\n        /* \"DataTypes.sol\":263:265  20 */\n      0x14\n        /* \"DataTypes.sol\":248:269  Person(\"Bablu\",20,56) */\n      dup2\n      mstore\n      0x20\n      add\n        /* \"DataTypes.sol\":266:268  56 */\n      0x38\n        /* \"DataTypes.sol\":248:269  Person(\"Bablu\",20,56) */\n      dup2\n      mstore\n      pop\n        /* \"DataTypes.sol\":241:247  person */\n      0x00\n        /* \"DataTypes.sol\":241:269  person=Person(\"Bablu\",20,56) */\n      dup1\n      dup3\n      add\n      mload\n      dup2\n      0x00\n      add\n      swap1\n      dup2\n      tag_19\n      swap2\n      swap1\n      tag_20\n      jump\t// in\n    tag_19:\n      pop\n      0x20\n      dup3\n      add\n      mload\n      dup2\n      0x01\n      add\n      sstore\n      0x40\n      dup3\n      add\n      mload\n      dup2\n      0x02\n      add\n      sstore\n      swap1\n      pop\n      pop\n        /* \"DataTypes.sol\":203:277  function setData() public  {... */\n      jump\t// out\n        /* \"#utility.yul\":7:106   */\n    tag_21:\n        /* \"#utility.yul\":59:65   */\n      0x00\n        /* \"#utility.yul\":93:98   */\n      dup2\n        /* \"#utility.yul\":87:99   */\n      mload\n        /* \"#utility.yul\":77:99   */\n      swap1\n      pop\n        /* \"#utility.yul\":7:106   */\n      swap2\n      swap1\n      pop\n      jump\t// out\n        /* \"#utility.yul\":112:281   */\n    tag_22:\n        /* \"#utility.yul\":196:207   */\n      0x00\n        /* \"#utility.yul\":230:236   */\n      dup3\n        /* \"#utility.yul\":225:228   */\n      dup3\n        /* \"#utility.yul\":218:237   */\n      mstore\n        /* \"#utility.yul\":270:274   */\n      0x20\n        /* \"#utility.yul\":265:268   */\n      dup3\n        /* \"#utility.yul\":261:275   */\n      add\n        /* \"#utility.yul\":246:275   */\n      swap1\n      pop\n        /* \"#utility.yul\":112:281   */\n      swap3\n      swap2\n      pop\n      pop\n      jump\t// out\n        /* \"#utility.yul\":287:594   */\n    tag_23:\n        /* \"#utility.yul\":355:356   */\n      0x00\n        /* \"#utility.yul\":365:478   */\n    tag_48:\n        /* \"#utility.yul\":379:385   */\n      dup4\n        /* \"#utility.yul\":376:377   */\n      dup2\n        /* \"#utility.yul\":373:386   */\n      lt\n        /* \"#utility.yul\":365:478   */\n      iszero\n      tag_50\n      jumpi\n        /* \"#utility.yul\":464:465   */\n      dup1\n        /* \"#utility.yul\":459:462   */\n      dup3\n        /* \"#utility.yul\":455:466   */\n      add\n        /* \"#utility.yul\":449:467   */\n      mload\n        /* \"#utility.yul\":445:446   */\n      dup2\n        /* \"#utility.yul\":440:443   */\n      dup5\n        /* \"#utility.yul\":436:447   */\n      add\n        /* \"#utility.yul\":429:468   */\n      mstore\n        /* \"#utility.yul\":401:403   */\n      0x20\n        /* \"#utility.yul\":398:399   */\n      dup2\n        /* \"#utility.yul\":394:404   */\n      add\n        /* \"#utility.yul\":389:404   */\n      swap1\n      pop\n        /* \"#utility.yul\":365:478   */\n      jump(tag_48)\n    tag_50:\n        /* \"#utility.yul\":496:502   */\n      dup4\n        /* \"#utility.yul\":493:494   */\n      dup2\n        /* \"#utility.yul\":490:503   */\n      gt\n        /* \"#utility.yul\":487:588   */\n      iszero\n      tag_51\n      jumpi\n        /* \"#utility.yul\":576:577   */\n      0x00\n        /* \"#utility.yul\":567:573   */\n      dup5\n        /* \"#utility.yul\":562:565   */\n      dup5\n        /* \"#utility.yul\":558:574   */\n      add\n        /* \"#utility.yul\":551:578   */\n      mstore\n        /* \"#utility.yul\":487:588   */\n    tag_51:\n        /* \"#utility.yul\":336:594   */\n      pop\n        /* \"#utility.yul\":287:594   */\n      pop\n      pop\n      pop\n      jump\t// out\n        /* \"#utility.yul\":600:702   */\n    tag_24:\n        /* \"#utility.yul\":641:647   */\n      0x00\n        /* \"#utility.yul\":692:694   */\n      0x1f\n        /* \"#utility.yul\":688:695   */\n      not\n        /* \"#utility.yul\":683:685   */\n      0x1f\n        /* \"#utility.yul\":676:681   */\n      dup4\n        /* \"#utility.yul\":672:686   */\n      add\n        /* \"#utility.yul\":668:696   */\n      and\n        /* \"#utility.yul\":658:696   */\n      swap1\n      pop\n        /* \"#utility.yul\":600:702   */\n      swap2\n      swap1\n      pop\n      jump\t// out\n        /* \"#utility.yul\":708:1072   */\n    tag_25:\n        /* \"#utility.yul\":796:799   */\n      0x00\n        /* \"#utility.yul\":824:863   */\n      tag_54\n        /* \"#utility.yul\":857:862   */\n      dup3\n        /* \"#utility.yul\":824:863   */\n      tag_21\n      jump\t// in\n    tag_54:\n        /* \"#utility.yul\":879:950   */\n      tag_55\n        /* \"#utility.yul\":943:949   */\n      dup2\n        /* \"#utility.yul\":938:941   */\n      dup6\n        /* \"#utility.yul\":879:950   */\n      tag_22\n      jump\t// in\n    tag_55:\n        /* \"#utility.yul\":872:950   */\n      swap4\n      pop\n        /* \"#utility.yul\":959:1011   */\n      tag_56\n        /* \"#utility.yul\":1004:1010   */\n      dup2\n        /* \"#utility.yul\":999:1002   */\n      dup6\n        /* \"#utility.yul\":992:996   */\n      0x20\n        /* \"#utility.yul\":985:990   */\n      dup7\n        /* \"#utility.yul\":981:997   */\n      add\n        /* \"#utility.yul\":959:1011   */\n      tag_23\n      jump\t// in\n    tag_56:\n        /* \"#utility.yul\":1036:1065   */\n      tag_57\n        /* \"#utility.yul\":1058:1064   */\n      dup2\n        /* \"#utility.yul\":1036:1065   */\n      tag_24\n      jump\t// in\n    tag_57:\n        /* \"#utility.yul\":1031:1034   */\n      dup5\n        /* \"#utility.yul\":1027:1066   */\n      add\n        /* \"#utility.yul\":1020:1066   */\n      swap2\n      pop\n        /* \"#utility.yul\":800:1072   */\n      pop\n        /* \"#utility.yul\":708:1072   */\n      swap3\n      swap2\n      pop\n      pop\n      jump\t// out\n        /* \"#utility.yul\":1078:1391   */\n    tag_8:\n        /* \"#utility.yul\":1191:1195   */\n      0x00\n        /* \"#utility.yul\":1229:1231   */\n      0x20\n        /* \"#utility.yul\":1218:1227   */\n      dup3\n        /* \"#utility.yul\":1214:1232   */\n      add\n        /* \"#utility.yul\":1206:1232   */\n      swap1\n      pop\n        /* \"#utility.yul\":1278:1287   */\n      dup2\n        /* \"#utility.yul\":1272:1276   */\n      dup2\n        /* \"#utility.yul\":1268:1288   */\n      sub\n        /* \"#utility.yul\":1264:1265   */\n      0x00\n        /* \"#utility.yul\":1253:1262   */\n      dup4\n        /* \"#utility.yul\":1249:1266   */\n      add\n        /* \"#utility.yul\":1242:1289   */\n      mstore\n        /* \"#utility.yul\":1306:1384   */\n      tag_59\n        /* \"#utility.yul\":1379:1383   */\n      dup2\n        /* \"#utility.yul\":1370:1376   */\n      dup5\n        /* \"#utility.yul\":1306:1384   */\n      tag_25\n      jump\t// in\n    tag_59:\n        /* \"#utility.yul\":1298:1384   */\n      swap1\n      pop\n        /* \"#utility.yul\":1078:1391   */\n      swap3\n      swap2\n      pop\n      pop\n      jump\t// out\n        /* \"#utility.yul\":1397:1577   */\n    tag_26:\n        /* \"#utility.yul\":1445:1522   */\n      0x4e487b7100000000000000000000000000000000000000000000000000000000\n        /* \"#utility.yul\":1442:1443   */\n      0x00\n        /* \"#utility.yul\":1435:1523   */\n      mstore\n        /* \"#utility.yul\":1542:1546   */\n      0x22\n        /* \"#utility.yul\":1539:1540   */\n      0x04\n        /* \"#utility.yul\":1532:1547   */\n      mstore\n        /* \"#utility.yul\":1566:1570   */\n      0x24\n        /* \"#utility.yul\":1563:1564   */\n      0x00\n        /* \"#utility.yul\":1556:1571   */\n      revert\n        /* \"#utility.yul\":1583:1903   */\n    tag_13:\n        /* \"#utility.yul\":1627:1633   */\n      0x00\n        /* \"#utility.yul\":1664:1665   */\n      0x02\n        /* \"#utility.yul\":1658:1662   */\n      dup3\n        /* \"#utility.yul\":1654:1666   */\n      div\n        /* \"#utility.yul\":1644:1666   */\n      swap1\n      pop\n        /* \"#utility.yul\":1711:1712   */\n      0x01\n        /* \"#utility.yul\":1705:1709   */\n      dup3\n        /* \"#utility.yul\":1701:1713   */\n      and\n        /* \"#utility.yul\":1732:1750   */\n      dup1\n        /* \"#utility.yul\":1722:1803   */\n      tag_62\n      jumpi\n        /* \"#utility.yul\":1788:1792   */\n      0x7f\n        /* \"#utility.yul\":1780:1786   */\n      dup3\n        /* \"#utility.yul\":1776:1793   */\n      and\n        /* \"#utility.yul\":1766:1793   */\n      swap2\n      pop\n        /* \"#utility.yul\":1722:1803   */\n    tag_62:\n        /* \"#utility.yul\":1850:1852   */\n      0x20\n        /* \"#utility.yul\":1842:1848   */\n      dup3\n        /* \"#utility.yul\":1839:1853   */\n      lt\n        /* \"#utility.yul\":1819:1837   */\n      dup2\n        /* \"#utility.yul\":1816:1854   */\n      sub\n        /* \"#utility.yul\":1813:1897   */\n      tag_63\n      jumpi\n        /* \"#utility.yul\":1869:1887   */\n      tag_64\n      tag_26\n      jump\t// in\n    tag_64:\n        /* \"#utility.yul\":1813:1897   */\n    tag_63:\n        /* \"#utility.yul\":1634:1903   */\n      pop\n        /* \"#utility.yul\":1583:1903   */\n      swap2\n      swap1\n      pop\n      jump\t// out\n        /* \"#utility.yul\":1909:2089   */\n    tag_27:\n        /* \"#utility.yul\":1957:2034   */\n      0x4e487b7100000000000000000000000000000000000000000000000000000000\n        /* \"#utility.yul\":1954:1955   */\n      0x00\n        /* \"#utility.yul\":1947:2035   */\n      mstore\n        /* \"#utility.yul\":2054:2058   */\n      0x41\n        /* \"#utility.yul\":2051:2052   */\n      0x04\n        /* \"#utility.yul\":2044:2059   */\n      mstore\n        /* \"#utility.yul\":2078:2082   */\n      0x24\n        /* \"#utility.yul\":2075:2076   */\n      0x00\n        /* \"#utility.yul\":2068:2083   */\n      revert\n        /* \"#utility.yul\":2095:2236   */\n    tag_28:\n        /* \"#utility.yul\":2144:2148   */\n      0x00\n        /* \"#utility.yul\":2167:2170   */\n      dup2\n        /* \"#utility.yul\":2159:2170   */\n      swap1\n      pop\n        /* \"#utility.yul\":2190:2193   */\n      dup2\n        /* \"#utility.yul\":2187:2188   */\n      0x00\n        /* \"#utility.yul\":2180:2194   */\n      mstore\n        /* \"#utility.yul\":2224:2228   */\n      0x20\n        /* \"#utility.yul\":2221:2222   */\n      0x00\n        /* \"#utility.yul\":2211:2229   */\n      keccak256\n        /* \"#utility.yul\":2203:2229   */\n      swap1\n      pop\n        /* \"#utility.yul\":2095:2236   */\n      swap2\n      swap1\n      pop\n      jump\t// out\n        /* \"#utility.yul\":2242:2335   */\n    tag_29:\n        /* \"#utility.yul\":2279:2285   */\n      0x00\n        /* \"#utility.yul\":2326:2328   */\n      0x20\n        /* \"#utility.yul\":2321:2323   */\n      0x1f\n        /* \"#utility.yul\":2314:2319   */\n      dup4\n        /* \"#utility.yul\":2310:2324   */\n      add\n        /* \"#utility.yul\":2306:2329   */\n      div\n        /* \"#utility.yul\":2296:2329   */\n      swap1\n      pop\n        /* \"#utility.yul\":2242:2335   */\n      swap2\n      swap1\n      pop\n      jump\t// out\n        /* \"#utility.yul\":2341:2448   */\n    tag_30:\n        /* \"#utility.yul\":2385:2393   */\n      0x00\n        /* \"#utility.yul\":2435:2440   */\n      dup3\n        /* \"#utility.yul\":2429:2433   */\n      dup3\n        /* \"#utility.yul\":2425:2441   */\n      shl\n        /* \"#utility.yul\":2404:2441   */\n      swap1\n      pop\n        /* \"#utility.yul\":2341:2448   */\n      swap3\n      swap2\n      pop\n      pop\n      jump\t// out\n        /* \"#utility.yul\":2454:2847   */\n    tag_31:\n        /* \"#utility.yul\":2523:2529   */\n      0x00\n        /* \"#utility.yul\":2573:2574   */\n      0x08\n        /* \"#utility.yul\":2561:2571   */\n      dup4\n        /* \"#utility.yul\":2557:2575   */\n      mul\n        /* \"#utility.yul\":2596:2693   */\n      tag_70\n        /* \"#utility.yul\":2626:2692   */\n      0xffffffffffffffffffffffffffffffffffffffffffffffffffffffffffffffff\n        /* \"#utility.yul\":2615:2624   */\n      dup3\n        /* \"#utility.yul\":2596:2693   */\n      tag_30\n      jump\t// in\n    tag_70:\n        /* \"#utility.yul\":2714:2753   */\n      tag_71\n        /* \"#utility.yul\":2744:2752   */\n      dup7\n        /* \"#utility.yul\":2733:2742   */\n      dup4\n        /* \"#utility.yul\":2714:2753   */\n      tag_30\n      jump\t// in\n    tag_71:\n        /* \"#utility.yul\":2702:2753   */\n      swap6\n      pop\n        /* \"#utility.yul\":2786:2790   */\n      dup1\n        /* \"#utility.yul\":2782:2791   */\n      not\n        /* \"#utility.yul\":2775:2780   */\n      dup5\n        /* \"#utility.yul\":2771:2792   */\n      and\n        /* \"#utility.yul\":2762:2792   */\n      swap4\n      pop\n        /* \"#utility.yul\":2835:2839   */\n      dup1\n        /* \"#utility.yul\":2825:2833   */\n      dup7\n        /* \"#utility.yul\":2821:2840   */\n      and\n        /* \"#utility.yul\":2814:2819   */\n      dup5\n        /* \"#utility.yul\":2811:2841   */\n      or\n        /* \"#utility.yul\":2801:2841   */\n      swap3\n      pop\n        /* \"#utility.yul\":2530:2847   */\n      pop\n      pop\n        /* \"#utility.yul\":2454:2847   */\n      swap4\n      swap3\n      pop\n      pop\n      pop\n      jump\t// out\n        /* \"#utility.yul\":2853:2930   */\n    tag_32:\n        /* \"#utility.yul\":2890:2897   */\n      0x00\n        /* \"#utility.yul\":2919:2924   */\n      dup2\n        /* \"#utility.yul\":2908:2924   */\n      swap1\n      pop\n        /* \"#utility.yul\":2853:2930   */\n      swap2\n      swap1\n      pop\n      jump\t// out\n        /* \"#utility.yul\":2936:2996   */\n    tag_33:\n        /* \"#utility.yul\":2964:2967   */\n      0x00\n        /* \"#utility.yul\":2985:2990   */\n      dup2\n        /* \"#utility.yul\":2978:2990   */\n      swap1\n      pop\n        /* \"#utility.yul\":2936:2996   */\n      swap2\n      swap1\n      pop\n      jump\t// out\n        /* \"#utility.yul\":3002:3144   */\n    tag_34:\n        /* \"#utility.yul\":3052:3061   */\n      0x00\n        /* \"#utility.yul\":3085:3138   */\n      tag_75\n        /* \"#utility.yul\":3103:3137   */\n      tag_76\n        /* \"#utility.yul\":3112:3136   */\n      tag_77\n        /* \"#utility.yul\":3130:3135   */\n      dup5\n        /* \"#utility.yul\":3112:3136   */\n      tag_32\n      jump\t// in\n    tag_77:\n        /* \"#utility.yul\":3103:3137   */\n      tag_33\n      jump\t// in\n    tag_76:\n        /* \"#utility.yul\":3085:3138   */\n      tag_32\n      jump\t// in\n    tag_75:\n        /* \"#utility.yul\":3072:3138   */\n      swap1\n      pop\n        /* \"#utility.yul\":3002:3144   */\n      swap2\n      swap1\n      pop\n      jump\t// out\n        /* \"#utility.yul\":3150:3225   */\n    tag_35:\n        /* \"#utility.yul\":3193:3196   */\n      0x00\n        /* \"#utility.yul\":3214:3219   */\n      dup2\n        /* \"#utility.yul\":3207:3219   */\n      swap1\n      pop\n        /* \"#utility.yul\":3150:3225   */\n      swap2\n      swap1\n      pop\n      jump\t// out\n        /* \"#utility.yul\":3231:3500   */\n    tag_36:\n        /* \"#utility.yul\":3341:3380   */\n      tag_80\n        /* \"#utility.yul\":3372:3379   */\n      dup4\n        /* \"#utility.yul\":3341:3380   */\n      tag_34\n      jump\t// in\n    tag_80:\n        /* \"#utility.yul\":3402:3493   */\n      tag_81\n        /* \"#utility.yul\":3451:3492   */\n      tag_82\n        /* \"#utility.yul\":3475:3491   */\n      dup3\n        /* \"#utility.yul\":3451:3492   */\n      tag_35\n      jump\t// in\n    tag_82:\n        /* \"#utility.yul\":3443:3449   */\n      dup5\n        /* \"#utility.yul\":3436:3440   */\n      dup5\n        /* \"#utility.yul\":3430:3441   */\n      sload\n        /* \"#utility.yul\":3402:3493   */\n      tag_31\n      jump\t// in\n    tag_81:\n        /* \"#utility.yul\":3396:3400   */\n      dup3\n        /* \"#utility.yul\":3389:3494   */\n      sstore\n        /* \"#utility.yul\":3307:3500   */\n      pop\n        /* \"#utility.yul\":3231:3500   */\n      pop\n      pop\n      pop\n      jump\t// out\n        /* \"#utility.yul\":3506:3579   */\n    tag_37:\n        /* \"#utility.yul\":3551:3554   */\n      0x00\n        /* \"#utility.yul\":3506:3579   */\n      swap1\n      jump\t// out\n        /* \"#utility.yul\":3585:3774   */\n    tag_38:\n        /* \"#utility.yul\":3662:3694   */\n      tag_85\n      tag_37\n      jump\t// in\n    tag_85:\n        /* \"#utility.yul\":3703:3768   */\n      tag_86\n        /* \"#utility.yul\":3761:3767   */\n      dup2\n        /* \"#utility.yul\":3753:3759   */\n      dup5\n        /* \"#utility.yul\":3747:3751   */\n      dup5\n        /* \"#utility.yul\":3703:3768   */\n      tag_36\n      jump\t// in\n    tag_86:\n        /* \"#utility.yul\":3638:3774   */\n      pop\n        /* \"#utility.yul\":3585:3774   */\n      pop\n      pop\n      jump\t// out\n        /* \"#utility.yul\":3780:3966   */\n    tag_39:\n        /* \"#utility.yul\":3840:3960   */\n    tag_88:\n        /* \"#utility.yul\":3857:3860   */\n      dup2\n        /* \"#utility.yul\":3850:3855   */\n      dup2\n        /* \"#utility.yul\":3847:3861   */\n      lt\n        /* \"#utility.yul\":3840:3960   */\n      iszero\n      tag_90\n      jumpi\n        /* \"#utility.yul\":3911:3950   */\n      tag_91\n        /* \"#utility.yul\":3948:3949   */\n      0x00\n        /* \"#utility.yul\":3941:3946   */\n      dup3\n        /* \"#utility.yul\":3911:3950   */\n      tag_38\n      jump\t// in\n    tag_91:\n        /* \"#utility.yul\":3884:3885   */\n      0x01\n        /* \"#utility.yul\":3877:3882   */\n      dup2\n        /* \"#utility.yul\":3873:3886   */\n      add\n        /* \"#utility.yul\":3864:3886   */\n      swap1\n      pop\n        /* \"#utility.yul\":3840:3960   */\n      jump(tag_88)\n    tag_90:\n        /* \"#utility.yul\":3780:3966   */\n      pop\n      pop\n      jump\t// out\n        /* \"#utility.yul\":3972:4515   */\n    tag_40:\n        /* \"#utility.yul\":4073:4075   */\n      0x1f\n        /* \"#utility.yul\":4068:4071   */\n      dup3\n        /* \"#utility.yul\":4065:4076   */\n      gt\n        /* \"#utility.yul\":4062:4508   */\n      iszero\n      tag_93\n      jumpi\n        /* \"#utility.yul\":4107:4145   */\n      tag_94\n        /* \"#utility.yul\":4139:4144   */\n      dup2\n        /* \"#utility.yul\":4107:4145   */\n      tag_28\n      jump\t// in\n    tag_94:\n        /* \"#utility.yul\":4191:4220   */\n      tag_95\n        /* \"#utility.yul\":4209:4219   */\n      dup5\n        /* \"#utility.yul\":4191:4220   */\n      tag_29\n      jump\t// in\n    tag_95:\n        /* \"#utility.yul\":4181:4189   */\n      dup2\n        /* \"#utility.yul\":4177:4221   */\n      add\n        /* \"#utility.yul\":4374:4376   */\n      0x20\n        /* \"#utility.yul\":4362:4372   */\n      dup6\n        /* \"#utility.yul\":4359:4377   */\n      lt\n        /* \"#utility.yul\":4356:4405   */\n      iszero\n      tag_96\n      jumpi\n        /* \"#utility.yul\":4395:4403   */\n      dup2\n        /* \"#utility.yul\":4380:4403   */\n      swap1\n      pop\n        /* \"#utility.yul\":4356:4405   */\n    tag_96:\n        /* \"#utility.yul\":4418:4498   */\n      tag_97\n        /* \"#utility.yul\":4474:4496   */\n      tag_98\n        /* \"#utility.yul\":4492:4495   */\n      dup6\n        /* \"#utility.yul\":4474:4496   */\n      tag_29\n      jump\t// in\n    tag_98:\n        /* \"#utility.yul\":4464:4472   */\n      dup4\n        /* \"#utility.yul\":4460:4497   */\n      add\n        /* \"#utility.yul\":4447:4458   */\n      dup3\n        /* \"#utility.yul\":4418:4498   */\n      tag_39\n      jump\t// in\n    tag_97:\n        /* \"#utility.yul\":4077:4508   */\n      pop\n      pop\n        /* \"#utility.yul\":4062:4508   */\n    tag_93:\n        /* \"#utility.yul\":3972:4515   */\n      pop\n      pop\n      pop\n      jump\t// out\n        /* \"#utility.yul\":4521:4638   */\n    tag_41:\n        /* \"#utility.yul\":4575:4583   */\n      0x00\n        /* \"#utility.yul\":4625:4630   */\n      dup3\n        /* \"#utility.yul\":4619:4623   */\n      dup3\n        /* \"#utility.yul\":4615:4631   */\n      shr\n        /* \"#utility.yul\":4594:4631   */\n      swap1\n      pop\n        /* \"#utility.yul\":4521:4638   */\n      swap3\n      swap2\n      pop\n      pop\n      jump\t// out\n        /* \"#utility.yul\":4644:4813   */\n    tag_42:\n        /* \"#utility.yul\":4688:4694   */\n      0x00\n        /* \"#utility.yul\":4721:4772   */\n      tag_101\n        /* \"#utility.yul\":4769:4770   */\n      0x00\n        /* \"#utility.yul\":4765:4771   */\n      not\n        /* \"#utility.yul\":4757:4762   */\n      dup5\n        /* \"#utility.yul\":4754:4755   */\n      0x08\n        /* \"#utility.yul\":4750:4763   */\n      mul\n        /* \"#utility.yul\":4721:4772   */\n      tag_41\n      jump\t// in\n    tag_101:\n        /* \"#utility.yul\":4717:4773   */\n      not\n        /* \"#utility.yul\":4802:4806   */\n      dup1\n        /* \"#utility.yul\":4796:4800   */\n      dup4\n        /* \"#utility.yul\":4792:4807   */\n      and\n        /* \"#utility.yul\":4782:4807   */\n      swap2\n      pop\n        /* \"#utility.yul\":4695:4813   */\n      pop\n        /* \"#utility.yul\":4644:4813   */\n      swap3\n      swap2\n      pop\n      pop\n      jump\t// out\n        /* \"#utility.yul\":4818:5113   */\n    tag_43:\n        /* \"#utility.yul\":4894:4898   */\n      0x00\n        /* \"#utility.yul\":5040:5069   */\n      tag_103\n        /* \"#utility.yul\":5065:5068   */\n      dup4\n        /* \"#utility.yul\":5059:5063   */\n      dup4\n        /* \"#utility.yul\":5040:5069   */\n      tag_42\n      jump\t// in\n    tag_103:\n        /* \"#utility.yul\":5032:5069   */\n      swap2\n      pop\n        /* \"#utility.yul\":5102:5105   */\n      dup3\n        /* \"#utility.yul\":5099:5100   */\n      0x02\n        /* \"#utility.yul\":5095:5106   */\n      mul\n        /* \"#utility.yul\":5089:5093   */\n      dup3\n        /* \"#utility.yul\":5086:5107   */\n      or\n        /* \"#utility.yul\":5078:5107   */\n      swap1\n      pop\n        /* \"#utility.yul\":4818:5113   */\n      swap3\n      swap2\n      pop\n      pop\n      jump\t// out\n        /* \"#utility.yul\":5118:6513   */\n    tag_20:\n        /* \"#utility.yul\":5235:5272   */\n      tag_105\n        /* \"#utility.yul\":5268:5271   */\n      dup3\n        /* \"#utility.yul\":5235:5272   */\n      tag_21\n      jump\t// in\n    tag_105:\n        /* \"#utility.yul\":5337:5355   */\n      0xffffffffffffffff\n        /* \"#utility.yul\":5329:5335   */\n      dup2\n        /* \"#utility.yul\":5326:5356   */\n      gt\n        /* \"#utility.yul\":5323:5379   */\n      iszero\n      tag_106\n      jumpi\n        /* \"#utility.yul\":5359:5377   */\n      tag_107\n      tag_27\n      jump\t// in\n    tag_107:\n        /* \"#utility.yul\":5323:5379   */\n    tag_106:\n        /* \"#utility.yul\":5403:5441   */\n      tag_108\n        /* \"#utility.yul\":5435:5439   */\n      dup3\n        /* \"#utility.yul\":5429:5440   */\n      sload\n        /* \"#utility.yul\":5403:5441   */\n      tag_13\n      jump\t// in\n    tag_108:\n        /* \"#utility.yul\":5488:5555   */\n      tag_109\n        /* \"#utility.yul\":5548:5554   */\n      dup3\n        /* \"#utility.yul\":5540:5546   */\n      dup3\n        /* \"#utility.yul\":5534:5538   */\n      dup6\n        /* \"#utility.yul\":5488:5555   */\n      tag_40\n      jump\t// in\n    tag_109:\n        /* \"#utility.yul\":5582:5583   */\n      0x00\n        /* \"#utility.yul\":5606:5610   */\n      0x20\n        /* \"#utility.yul\":5593:5610   */\n      swap1\n      pop\n        /* \"#utility.yul\":5638:5640   */\n      0x1f\n        /* \"#utility.yul\":5630:5636   */\n      dup4\n        /* \"#utility.yul\":5627:5641   */\n      gt\n        /* \"#utility.yul\":5655:5656   */\n      0x01\n        /* \"#utility.yul\":5650:6268   */\n      dup2\n      eq\n      tag_111\n      jumpi\n        /* \"#utility.yul\":6312:6313   */\n      0x00\n        /* \"#utility.yul\":6329:6335   */\n      dup5\n        /* \"#utility.yul\":6326:6403   */\n      iszero\n      tag_112\n      jumpi\n        /* \"#utility.yul\":6378:6387   */\n      dup3\n        /* \"#utility.yul\":6373:6376   */\n      dup8\n        /* \"#utility.yul\":6369:6388   */\n      add\n        /* \"#utility.yul\":6363:6389   */\n      mload\n        /* \"#utility.yul\":6354:6389   */\n      swap1\n      pop\n        /* \"#utility.yul\":6326:6403   */\n    tag_112:\n        /* \"#utility.yul\":6429:6496   */\n      tag_113\n        /* \"#utility.yul\":6489:6495   */\n      dup6\n        /* \"#utility.yul\":6482:6487   */\n      dup3\n        /* \"#utility.yul\":6429:6496   */\n      tag_43\n      jump\t// in\n    tag_113:\n        /* \"#utility.yul\":6423:6427   */\n      dup7\n        /* \"#utility.yul\":6416:6497   */\n      sstore\n        /* \"#utility.yul\":6285:6507   */\n      pop\n        /* \"#utility.yul\":5620:6507   */\n      jump(tag_110)\n        /* \"#utility.yul\":5650:6268   */\n    tag_111:\n        /* \"#utility.yul\":5702:5706   */\n      0x1f\n        /* \"#utility.yul\":5698:5707   */\n      not\n        /* \"#utility.yul\":5690:5696   */\n      dup5\n        /* \"#utility.yul\":5686:5708   */\n      and\n        /* \"#utility.yul\":5736:5773   */\n      tag_114\n        /* \"#utility.yul\":5768:5772   */\n      dup7\n        /* \"#utility.yul\":5736:5773   */\n      tag_28\n      jump\t// in\n    tag_114:\n        /* \"#utility.yul\":5795:5796   */\n      0x00\n        /* \"#utility.yul\":5809:6017   */\n    tag_115:\n        /* \"#utility.yul\":5823:5830   */\n      dup3\n        /* \"#utility.yul\":5820:5821   */\n      dup2\n        /* \"#utility.yul\":5817:5831   */\n      lt\n        /* \"#utility.yul\":5809:6017   */\n      iszero\n      tag_117\n      jumpi\n        /* \"#utility.yul\":5902:5911   */\n      dup5\n        /* \"#utility.yul\":5897:5900   */\n      dup10\n        /* \"#utility.yul\":5893:5912   */\n      add\n        /* \"#utility.yul\":5887:5913   */\n      mload\n        /* \"#utility.yul\":5879:5885   */\n      dup3\n        /* \"#utility.yul\":5872:5914   */\n      sstore\n        /* \"#utility.yul\":5953:5954   */\n      0x01\n        /* \"#utility.yul\":5945:5951   */\n      dup3\n        /* \"#utility.yul\":5941:5955   */\n      add\n        /* \"#utility.yul\":5931:5955   */\n      swap2\n      pop\n        /* \"#utility.yul\":6000:6002   */\n      0x20\n        /* \"#utility.yul\":5989:5998   */\n      dup6\n        /* \"#utility.yul\":5985:6003   */\n      add\n        /* \"#utility.yul\":5972:6003   */\n      swap5\n      pop\n        /* \"#utility.yul\":5846:5850   */\n      0x20\n        /* \"#utility.yul\":5843:5844   */\n      dup2\n        /* \"#utility.yul\":5839:5851   */\n      add\n        /* \"#utility.yul\":5834:5851   */\n      swap1\n      pop\n        /* \"#utility.yul\":5809:6017   */\n      jump(tag_115)\n    tag_117:\n        /* \"#utility.yul\":6045:6051   */\n      dup7\n        /* \"#utility.yul\":6036:6043   */\n      dup4\n        /* \"#utility.yul\":6033:6052   */\n      lt\n        /* \"#utility.yul\":6030:6209   */\n      iszero\n      tag_118\n      jumpi\n        /* \"#utility.yul\":6103:6112   */\n      dup5\n        /* \"#utility.yul\":6098:6101   */\n      dup10\n        /* \"#utility.yul\":6094:6113   */\n      add\n        /* \"#utility.yul\":6088:6114   */\n      mload\n        /* \"#utility.yul\":6146:6194   */\n      tag_119\n        /* \"#utility.yul\":6188:6192   */\n      0x1f\n        /* \"#utility.yul\":6180:6186   */\n      dup10\n        /* \"#utility.yul\":6176:6193   */\n      and\n        /* \"#utility.yul\":6165:6174   */\n      dup3\n        /* \"#utility.yul\":6146:6194   */\n      tag_42\n      jump\t// in\n    tag_119:\n        /* \"#utility.yul\":6138:6144   */\n      dup4\n        /* \"#utility.yul\":6131:6195   */\n      sstore\n        /* \"#utility.yul\":6053:6209   */\n      pop\n        /* \"#utility.yul\":6030:6209   */\n    tag_118:\n        /* \"#utility.yul\":6255:6256   */\n      0x01\n        /* \"#utility.yul\":6251:6252   */\n      0x02\n        /* \"#utility.yul\":6243:6249   */\n      dup9\n        /* \"#utility.yul\":6239:6253   */\n      mul\n        /* \"#utility.yul\":6235:6257   */\n      add\n        /* \"#utility.yul\":6229:6233   */\n      dup9\n        /* \"#utility.yul\":6222:6258   */\n      sstore\n        /* \"#utility.yul\":5657:6268   */\n      pop\n      pop\n      pop\n        /* \"#utility.yul\":5620:6507   */\n    tag_110:\n      pop\n        /* \"#utility.yul\":5210:6513   */\n      pop\n      pop\n      pop\n        /* \"#utility.yul\":5118:6513   */\n      pop\n      pop\n      jump\t// out\n\n    auxdata: 0xa2646970667358221220f37cfffdd54bf9f97a8ad7667a92a000f909a63b130be4b5e4fdf4a11f58536b64736f6c634300080f0033\n}\n",
				"bytecode": {
					"linkReferences": {},
					"object": "608060405234801561001057600080fd5b50610581806100206000396000f3fe608060405234801561001057600080fd5b50600436106100365760003560e01c8063b55003fa1461003b578063f31604c714610059575b600080fd5b610043610063565b6040516100509190610212565b60405180910390f35b6100616100f7565b005b606060008001805461007490610263565b80601f01602080910402602001604051908101604052809291908181526020018280546100a090610263565b80156100ed5780601f106100c2576101008083540402835291602001916100ed565b820191906000526020600020905b8154815290600101906020018083116100d057829003601f168201915b5050505050905090565b60405180606001604052806040518060400160405280600581526020017f4261626c75000000000000000000000000000000000000000000000000000000815250815260200160148152602001603881525060008082015181600001908161015f9190610479565b506020820151816001015560408201518160020155905050565b600081519050919050565b600082825260208201905092915050565b60005b838110156101b3578082015181840152602081019050610198565b838111156101c2576000848401525b50505050565b6000601f19601f8301169050919050565b60006101e482610179565b6101ee8185610184565b93506101fe818560208601610195565b610207816101c8565b840191505092915050565b6000602082019050818103600083015261022c81846101d9565b905092915050565b7f4e487b7100000000000000000000000000000000000000000000000000000000600052602260045260246000fd5b6000600282049050600182168061027b57607f821691505b60208210810361028e5761028d610234565b5b50919050565b7f4e487b7100000000000000000000000000000000000000000000000000000000600052604160045260246000fd5b60008190508160005260206000209050919050565b60006020601f8301049050919050565b600082821b905092915050565b6000600883026103257fffffffffffffffffffffffffffffffffffffffffffffffffffffffffffffffff826102e8565b61032f86836102e8565b95508019841693508086168417925050509392505050565b6000819050919050565b6000819050919050565b600061037661037161036c84610347565b610351565b610347565b9050919050565b6000819050919050565b6103908361035b565b6103a461039c8261037d565b8484546102f5565b825550505050565b600090565b6103b96103ac565b6103c4818484610387565b505050565b5b818110156103e8576103dd6000826103b1565b6001810190506103ca565b5050565b601f82111561042d576103fe816102c3565b610407846102d8565b81016020851015610416578190505b61042a610422856102d8565b8301826103c9565b50505b505050565b600082821c905092915050565b600061045060001984600802610432565b1980831691505092915050565b6000610469838361043f565b9150826002028217905092915050565b61048282610179565b67ffffffffffffffff81111561049b5761049a610294565b5b6104a58254610263565b6104b08282856103ec565b600060209050601f8311600181146104e357600084156104d1578287015190505b6104db858261045d565b865550610543565b601f1984166104f1866102c3565b60005b82811015610519578489015182556001820191506020850194506020810190506104f4565b868310156105365784890151610532601f89168261043f565b8355505b6001600288020188555050505b50505050505056fea2646970667358221220f37cfffdd54bf9f97a8ad7667a92a000f909a63b130be4b5e4fdf4a11f58536b64736f6c634300080f0033",
					"opcodes": "PUSH1 0x80 PUSH1 0x40 MSTORE CALLVALUE DUP1 ISZERO PUSH2 0x10 JUMPI PUSH1 0x0 DUP1 REVERT JUMPDEST POP PUSH2 0x581 DUP1 PUSH2 0x20 PUSH1 0x0 CODECOPY PUSH1 0x0 RETURN INVALID PUSH1 0x80 PUSH1 0x40 MSTORE CALLVALUE DUP1 ISZERO PUSH2 0x10 JUMPI PUSH1 0x0 DUP1 REVERT JUMPDEST POP PUSH1 0x4 CALLDATASIZE LT PUSH2 0x36 JUMPI PUSH1 0x0 CALLDATALOAD PUSH1 0xE0 SHR DUP1 PUSH4 0xB55003FA EQ PUSH2 0x3B JUMPI DUP1 PUSH4 0xF31604C7 EQ PUSH2 0x59 JUMPI JUMPDEST PUSH1 0x0 DUP1 REVERT JUMPDEST PUSH2 0x43 PUSH2 0x63 JUMP JUMPDEST PUSH1 0x40 MLOAD PUSH2 0x50 SWAP2 SWAP1 PUSH2 0x212 JUMP JUMPDEST PUSH1 0x40 MLOAD DUP1 SWAP2 SUB SWAP1 RETURN JUMPDEST PUSH2 0x61 PUSH2 0xF7 JUMP JUMPDEST STOP JUMPDEST PUSH1 0x60 PUSH1 0x0 DUP1 ADD DUP1 SLOAD PUSH2 0x74 SWAP1 PUSH2 0x263 JUMP JUMPDEST DUP1 PUSH1 0x1F ADD PUSH1 0x20 DUP1 SWAP2 DIV MUL PUSH1 0x20 ADD PUSH1 0x40 MLOAD SWAP1 DUP2 ADD PUSH1 0x40 MSTORE DUP1 SWAP3 SWAP2 SWAP1 DUP2 DUP2 MSTORE PUSH1 0x20 ADD DUP3 DUP1 SLOAD PUSH2 0xA0 SWAP1 PUSH2 0x263 JUMP JUMPDEST DUP1 ISZERO PUSH2 0xED JUMPI DUP1 PUSH1 0x1F LT PUSH2 0xC2 JUMPI PUSH2 0x100 DUP1 DUP4 SLOAD DIV MUL DUP4 MSTORE SWAP2 PUSH1 0x20 ADD SWAP2 PUSH2 0xED JUMP JUMPDEST DUP3 ADD SWAP2 SWAP1 PUSH1 0x0 MSTORE PUSH1 0x20 PUSH1 0x0 KECCAK256 SWAP1 JUMPDEST DUP2 SLOAD DUP2 MSTORE SWAP1 PUSH1 0x1 ADD SWAP1 PUSH1 0x20 ADD DUP1 DUP4 GT PUSH2 0xD0 JUMPI DUP3 SWAP1 SUB PUSH1 0x1F AND DUP3 ADD SWAP2 JUMPDEST POP POP POP POP POP SWAP1 POP SWAP1 JUMP JUMPDEST PUSH1 0x40 MLOAD DUP1 PUSH1 0x60 ADD PUSH1 0x40 MSTORE DUP1 PUSH1 0x40 MLOAD DUP1 PUSH1 0x40 ADD PUSH1 0x40 MSTORE DUP1 PUSH1 0x5 DUP2 MSTORE PUSH1 0x20 ADD PUSH32 0x4261626C75000000000000000000000000000000000000000000000000000000 DUP2 MSTORE POP DUP2 MSTORE PUSH1 0x20 ADD PUSH1 0x14 DUP2 MSTORE PUSH1 0x20 ADD PUSH1 0x38 DUP2 MSTORE POP PUSH1 0x0 DUP1 DUP3 ADD MLOAD DUP2 PUSH1 0x0 ADD SWAP1 DUP2 PUSH2 0x15F SWAP2 SWAP1 PUSH2 0x479 JUMP JUMPDEST POP PUSH1 0x20 DUP3 ADD MLOAD DUP2 PUSH1 0x1 ADD SSTORE PUSH1 0x40 DUP3 ADD MLOAD DUP2 PUSH1 0x2 ADD SSTORE SWAP1 POP POP JUMP JUMPDEST PUSH1 0x0 DUP2 MLOAD SWAP1 POP SWAP2 SWAP1 POP JUMP JUMPDEST PUSH1 0x0 DUP3 DUP3 MSTORE PUSH1 0x20 DUP3 ADD SWAP1 POP SWAP3 SWAP2 POP POP JUMP JUMPDEST PUSH1 0x0 JUMPDEST DUP4 DUP2 LT ISZERO PUSH2 0x1B3 JUMPI DUP1 DUP3 ADD MLOAD DUP2 DUP5 ADD MSTORE PUSH1 0x20 DUP2 ADD SWAP1 POP PUSH2 0x198 JUMP JUMPDEST DUP4 DUP2 GT ISZERO PUSH2 0x1C2 JUMPI PUSH1 0x0 DUP5 DUP5 ADD MSTORE JUMPDEST POP POP POP POP JUMP JUMPDEST PUSH1 0x0 PUSH1 0x1F NOT PUSH1 0x1F DUP4 ADD AND SWAP1 POP SWAP2 SWAP1 POP JUMP JUMPDEST PUSH1 0x0 PUSH2 0x1E4 DUP3 PUSH2 0x179 JUMP JUMPDEST PUSH2 0x1EE DUP2 DUP6 PUSH2 0x184 JUMP JUMPDEST SWAP4 POP PUSH2 0x1FE DUP2 DUP6 PUSH1 0x20 DUP7 ADD PUSH2 0x195 JUMP JUMPDEST PUSH2 0x207 DUP2 PUSH2 0x1C8 JUMP JUMPDEST DUP5 ADD SWAP2 POP POP SWAP3 SWAP2 POP POP JUMP JUMPDEST PUSH1 0x0 PUSH1 0x20 DUP3 ADD SWAP1 POP DUP2 DUP2 SUB PUSH1 0x0 DUP4 ADD MSTORE PUSH2 0x22C DUP2 DUP5 PUSH2 0x1D9 JUMP JUMPDEST SWAP1 POP SWAP3 SWAP2 POP POP JUMP JUMPDEST PUSH32 0x4E487B7100000000000000000000000000000000000000000000000000000000 PUSH1 0x0 MSTORE PUSH1 0x22 PUSH1 0x4 MSTORE PUSH1 0x24 PUSH1 0x0 REVERT JUMPDEST PUSH1 0x0 PUSH1 0x2 DUP3 DIV SWAP1 POP PUSH1 0x1 DUP3 AND DUP1 PUSH2 0x27B JUMPI PUSH1 0x7F DUP3 AND SWAP2 POP JUMPDEST PUSH1 0x20 DUP3 LT DUP2 SUB PUSH2 0x28E JUMPI PUSH2 0x28D PUSH2 0x234 JUMP JUMPDEST JUMPDEST POP SWAP2 SWAP1 POP JUMP JUMPDEST PUSH32 0x4E487B7100000000000000000000000000000000000000000000000000000000 PUSH1 0x0 MSTORE PUSH1 0x41 PUSH1 0x4 MSTORE PUSH1 0x24 PUSH1 0x0 REVERT JUMPDEST PUSH1 0x0 DUP2 SWAP1 POP DUP2 PUSH1 0x0 MSTORE PUSH1 0x20 PUSH1 0x0 KECCAK256 SWAP1 POP SWAP2 SWAP1 POP JUMP JUMPDEST PUSH1 0x0 PUSH1 0x20 PUSH1 0x1F DUP4 ADD DIV SWAP1 POP SWAP2 SWAP1 POP JUMP JUMPDEST PUSH1 0x0 DUP3 DUP3 SHL SWAP1 POP SWAP3 SWAP2 POP POP JUMP JUMPDEST PUSH1 0x0 PUSH1 0x8 DUP4 MUL PUSH2 0x325 PUSH32 0xFFFFFFFFFFFFFFFFFFFFFFFFFFFFFFFFFFFFFFFFFFFFFFFFFFFFFFFFFFFFFFFF DUP3 PUSH2 0x2E8 JUMP JUMPDEST PUSH2 0x32F DUP7 DUP4 PUSH2 0x2E8 JUMP JUMPDEST SWAP6 POP DUP1 NOT DUP5 AND SWAP4 POP DUP1 DUP7 AND DUP5 OR SWAP3 POP POP POP SWAP4 SWAP3 POP POP POP JUMP JUMPDEST PUSH1 0x0 DUP2 SWAP1 POP SWAP2 SWAP1 POP JUMP JUMPDEST PUSH1 0x0 DUP2 SWAP1 POP SWAP2 SWAP1 POP JUMP JUMPDEST PUSH1 0x0 PUSH2 0x376 PUSH2 0x371 PUSH2 0x36C DUP5 PUSH2 0x347 JUMP JUMPDEST PUSH2 0x351 JUMP JUMPDEST PUSH2 0x347 JUMP JUMPDEST SWAP1 POP SWAP2 SWAP1 POP JUMP JUMPDEST PUSH1 0x0 DUP2 SWAP1 POP SWAP2 SWAP1 POP JUMP JUMPDEST PUSH2 0x390 DUP4 PUSH2 0x35B JUMP JUMPDEST PUSH2 0x3A4 PUSH2 0x39C DUP3 PUSH2 0x37D JUMP JUMPDEST DUP5 DUP5 SLOAD PUSH2 0x2F5 JUMP JUMPDEST DUP3 SSTORE POP POP POP POP JUMP JUMPDEST PUSH1 0x0 SWAP1 JUMP JUMPDEST PUSH2 0x3B9 PUSH2 0x3AC JUMP JUMPDEST PUSH2 0x3C4 DUP2 DUP5 DUP5 PUSH2 0x387 JUMP JUMPDEST POP POP POP JUMP JUMPDEST JUMPDEST DUP2 DUP2 LT ISZERO PUSH2 0x3E8 JUMPI PUSH2 0x3DD PUSH1 0x0 DUP3 PUSH2 0x3B1 JUMP JUMPDEST PUSH1 0x1 DUP2 ADD SWAP1 POP PUSH2 0x3CA JUMP JUMPDEST POP POP JUMP JUMPDEST PUSH1 0x1F DUP3 GT ISZERO PUSH2 0x42D JUMPI PUSH2 0x3FE DUP2 PUSH2 0x2C3 JUMP JUMPDEST PUSH2 0x407 DUP5 PUSH2 0x2D8 JUMP JUMPDEST DUP2 ADD PUSH1 0x20 DUP6 LT ISZERO PUSH2 0x416 JUMPI DUP2 SWAP1 POP JUMPDEST PUSH2 0x42A PUSH2 0x422 DUP6 PUSH2 0x2D8 JUMP JUMPDEST DUP4 ADD DUP3 PUSH2 0x3C9 JUMP JUMPDEST POP POP JUMPDEST POP POP POP JUMP JUMPDEST PUSH1 0x0 DUP3 DUP3 SHR SWAP1 POP SWAP3 SWAP2 POP POP JUMP JUMPDEST PUSH1 0x0 PUSH2 0x450 PUSH1 0x0 NOT DUP5 PUSH1 0x8 MUL PUSH2 0x432 JUMP JUMPDEST NOT DUP1 DUP4 AND SWAP2 POP POP SWAP3 SWAP2 POP POP JUMP JUMPDEST PUSH1 0x0 PUSH2 0x469 DUP4 DUP4 PUSH2 0x43F JUMP JUMPDEST SWAP2 POP DUP3 PUSH1 0x2 MUL DUP3 OR SWAP1 POP SWAP3 SWAP2 POP POP JUMP JUMPDEST PUSH2 0x482 DUP3 PUSH2 0x179 JUMP JUMPDEST PUSH8 0xFFFFFFFFFFFFFFFF DUP2 GT ISZERO PUSH2 0x49B JUMPI PUSH2 0x49A PUSH2 0x294 JUMP JUMPDEST JUMPDEST PUSH2 0x4A5 DUP3 SLOAD PUSH2 0x263 JUMP JUMPDEST PUSH2 0x4B0 DUP3 DUP3 DUP6 PUSH2 0x3EC JUMP JUMPDEST PUSH1 0x0 PUSH1 0x20 SWAP1 POP PUSH1 0x1F DUP4 GT PUSH1 0x1 DUP2 EQ PUSH2 0x4E3 JUMPI PUSH1 0x0 DUP5 ISZERO PUSH2 0x4D1 JUMPI DUP3 DUP8 ADD MLOAD SWAP1 POP JUMPDEST PUSH2 0x4DB DUP6 DUP3 PUSH2 0x45D JUMP JUMPDEST DUP7 SSTORE POP PUSH2 0x543 JUMP JUMPDEST PUSH1 0x1F NOT DUP5 AND PUSH2 0x4F1 DUP7 PUSH2 0x2C3 JUMP JUMPDEST PUSH1 0x0 JUMPDEST DUP3 DUP2 LT ISZERO PUSH2 0x519 JUMPI DUP5 DUP10 ADD MLOAD DUP3 SSTORE PUSH1 0x1 DUP3 ADD SWAP2 POP PUSH1 0x20 DUP6 ADD SWAP5 POP PUSH1 0x20 DUP2 ADD SWAP1 POP PUSH2 0x4F4 JUMP JUMPDEST DUP7 DUP4 LT ISZERO PUSH2 0x536 JUMPI DUP5 DUP10 ADD MLOAD PUSH2 0x532 PUSH1 0x1F DUP10 AND DUP3 PUSH2 0x43F JUMP JUMPDEST DUP4 SSTORE POP JUMPDEST PUSH1 0x1 PUSH1 0x2 DUP9 MUL ADD DUP9 SSTORE POP POP POP JUMPDEST POP POP POP POP POP POP JUMP INVALID LOG2 PUSH5 0x6970667358 0x22 SLT KECCAK256 RETURN PUSH29 0xFFFDD54BF9F97A8AD7667A92A000F909A63B130BE4B5E4FDF4A11F5853 PUSH12 0x64736F6C634300080F003300 "
				},
				"gasEstimates": {
					"creation": {
						"codeDepositCost": "281800",
						"executionCost": "324",
						"totalCost": "282124"
					},
					"external": {
						"getPersonName()": "infinite",
						"setData()": "infinite"
					}
				},
				"methodIdentifiers": {
					"getPersonName()": "b55003fa",
					"setData()": "f31604c7"
				}
			},
			"storageLayout": {
				"storage": [
					{
						"astId": 11,
						"contract": "DataTypes.sol:calc_disp",
						"label": "person",
						"offset": 0,
						"slot": "0",
						"type": "t_struct(Person)8_storage"
					}
				],
				"types": {
					"t_string_storage": {
						"encoding": "bytes",
						"label": "string",
						"numberOfBytes": "32"
					},
					"t_struct(Person)8_storage": {
						"encoding": "inplace",
						"label": "struct calc_disp.Person",
						"members": [
							{
								"astId": 3,
								"contract": "DataTypes.sol:calc_disp",
								"label": "name",
								"offset": 0,
								"slot": "0",
								"type": "t_string_storage"
							},
							{
								"astId": 5,
								"contract": "DataTypes.sol:calc_disp",
								"label": "age",
								"offset": 0,
								"slot": "1",
								"type": "t_uint256"
							},
							{
								"astId": 7,
								"contract": "DataTypes.sol:calc_disp",
								"label": "marks",
								"offset": 0,
								"slot": "2",
								"type": "t_uint256"
							}
						],
						"numberOfBytes": "96"
					},
					"t_uint256": {
						"encoding": "inplace",
						"label": "uint256",
						"numberOfBytes": "32"
					}
				}
			},
			"userdoc": {
				"kind": "user",
				"methods": {},
				"version": 1
			}
		}
	}
}