{
	"primitiveDataTypes.sol": {
		"Primitives": {
			"abi": [
				{
					"inputs": [],
					"name": "boolean",
					"outputs": [
						{
							"internalType": "bool",
							"name": "",
							"type": "bool"
						}
					],
					"stateMutability": "view",
					"type": "function"
				},
				{
					"inputs": [],
					"name": "i",
					"outputs": [
						{
							"internalType": "int256",
							"name": "",
							"type": "int256"
						}
					],
					"stateMutability": "view",
					"type": "function"
				},
				{
					"inputs": [],
					"name": "i256",
					"outputs": [
						{
							"internalType": "int256",
							"name": "",
							"type": "int256"
						}
					],
					"stateMutability": "view",
					"type": "function"
				},
				{
					"inputs": [],
					"name": "i8",
					"outputs": [
						{
							"internalType": "int8",
							"name": "",
							"type": "int8"
						}
					],
					"stateMutability": "view",
					"type": "function"
				},
				{
					"inputs": [],
					"name": "u",
					"outputs": [
						{
							"internalType": "uint256",
							"name": "",
							"type": "uint256"
						}
					],
					"stateMutability": "view",
					"type": "function"
				},
				{
					"inputs": [],
					"name": "u8",
					"outputs": [
						{
							"internalType": "uint8",
							"name": "",
							"type": "uint8"
						}
					],
					"stateMutability": "view",
					"type": "function"
				}
			],
			"devdoc": {
				"kind": "dev",
				"methods": {},
				"version": 1
			},
			"evm": {
				"assembly": "    /* \"primitiveDataTypes.sol\":65:278  contract Primitives{... */\n  mstore(0x40, 0x80)\n    /* \"primitiveDataTypes.sol\":111:115  true */\n  0x01\n    /* \"primitiveDataTypes.sol\":91:115  bool public boolean=true */\n  0x00\n  dup1\n  0x0100\n  exp\n  dup2\n  sload\n  dup2\n  0xff\n  mul\n  not\n  and\n  swap1\n  dup4\n  iszero\n  iszero\n  mul\n  or\n  swap1\n  sstore\n  pop\n    /* \"primitiveDataTypes.sol\":140:141  1 */\n  0x01\n    /* \"primitiveDataTypes.sol\":124:141  uint8 public u8=1 */\n  0x00\n  exp(0x0100, 0x01)\n  dup2\n  sload\n  dup2\n  0xff\n  mul\n  not\n  and\n  swap1\n  dup4\n  0xff\n  and\n  mul\n  or\n  swap1\n  sstore\n  pop\n    /* \"primitiveDataTypes.sol\":161:164  456 */\n  0x01c8\n    /* \"primitiveDataTypes.sol\":148:164  uint256 u256=456 */\n  0x01\n  sstore\n    /* \"primitiveDataTypes.sol\":185:188  123 */\n  0x7b\n    /* \"primitiveDataTypes.sol\":171:188  uint public u=123 */\n  0x02\n  sstore\n    /* \"primitiveDataTypes.sol\":216:218  -1 */\n  0xffffffffffffffffffffffffffffffffffffffffffffffffffffffffffffffff\n    /* \"primitiveDataTypes.sol\":199:218  int8 public i8 = -1 */\n  0x03\n  exp(0x0100, 0x00)\n  dup2\n  sload\n  dup2\n  0xff\n  mul\n  not\n  and\n  swap1\n  dup4\n  0x00\n  signextend\n  0xff\n  and\n  mul\n  or\n  swap1\n  sstore\n  pop\n    /* \"primitiveDataTypes.sol\":243:246  456 */\n  0x01c8\n    /* \"primitiveDataTypes.sol\":225:246  int public i256 = 456 */\n  0x04\n  sstore\n    /* \"primitiveDataTypes.sol\":268:272  -123 */\n  0xffffffffffffffffffffffffffffffffffffffffffffffffffffffffffffff85\n    /* \"primitiveDataTypes.sol\":253:272  int public i = -123 */\n  0x05\n  sstore\n    /* \"primitiveDataTypes.sol\":65:278  contract Primitives{... */\n  callvalue\n  dup1\n  iszero\n  tag_1\n  jumpi\n  0x00\n  dup1\n  revert\ntag_1:\n  pop\n  dataSize(sub_0)\n  dup1\n  dataOffset(sub_0)\n  0x00\n  codecopy\n  0x00\n  return\nstop\n\nsub_0: assembly {\n        /* \"primitiveDataTypes.sol\":65:278  contract Primitives{... */\n      mstore(0x40, 0x80)\n      callvalue\n      dup1\n      iszero\n      tag_1\n      jumpi\n      0x00\n      dup1\n      revert\n    tag_1:\n      pop\n      jumpi(tag_2, lt(calldatasize, 0x04))\n      shr(0xe0, calldataload(0x00))\n      dup1\n      0x4c27fd62\n      eq\n      tag_3\n      jumpi\n      dup1\n      0x921cda74\n      eq\n      tag_4\n      jumpi\n      dup1\n      0xab3a58a3\n      eq\n      tag_5\n      jumpi\n      dup1\n      0xc5b57bdb\n      eq\n      tag_6\n      jumpi\n      dup1\n      0xc6a898c5\n      eq\n      tag_7\n      jumpi\n      dup1\n      0xe5aa3d58\n      eq\n      tag_8\n      jumpi\n    tag_2:\n      0x00\n      dup1\n      revert\n        /* \"primitiveDataTypes.sol\":225:246  int public i256 = 456 */\n    tag_3:\n      tag_9\n      tag_10\n      jump\t// in\n    tag_9:\n      mload(0x40)\n      tag_11\n      swap2\n      swap1\n      tag_12\n      jump\t// in\n    tag_11:\n      mload(0x40)\n      dup1\n      swap2\n      sub\n      swap1\n      return\n        /* \"primitiveDataTypes.sol\":199:218  int8 public i8 = -1 */\n    tag_4:\n      tag_13\n      tag_14\n      jump\t// in\n    tag_13:\n      mload(0x40)\n      tag_15\n      swap2\n      swap1\n      tag_16\n      jump\t// in\n    tag_15:\n      mload(0x40)\n      dup1\n      swap2\n      sub\n      swap1\n      return\n        /* \"primitiveDataTypes.sol\":124:141  uint8 public u8=1 */\n    tag_5:\n      tag_17\n      tag_18\n      jump\t// in\n    tag_17:\n      mload(0x40)\n      tag_19\n      swap2\n      swap1\n      tag_20\n      jump\t// in\n    tag_19:\n      mload(0x40)\n      dup1\n      swap2\n      sub\n      swap1\n      return\n        /* \"primitiveDataTypes.sol\":91:115  bool public boolean=true */\n    tag_6:\n      tag_21\n      tag_22\n      jump\t// in\n    tag_21:\n      mload(0x40)\n      tag_23\n      swap2\n      swap1\n      tag_24\n      jump\t// in\n    tag_23:\n      mload(0x40)\n      dup1\n      swap2\n      sub\n      swap1\n      return\n        /* \"primitiveDataTypes.sol\":171:188  uint public u=123 */\n    tag_7:\n      tag_25\n      tag_26\n      jump\t// in\n    tag_25:\n      mload(0x40)\n      tag_27\n      swap2\n      swap1\n      tag_28\n      jump\t// in\n    tag_27:\n      mload(0x40)\n      dup1\n      swap2\n      sub\n      swap1\n      return\n        /* \"primitiveDataTypes.sol\":253:272  int public i = -123 */\n    tag_8:\n      tag_29\n      tag_30\n      jump\t// in\n    tag_29:\n      mload(0x40)\n      tag_31\n      swap2\n      swap1\n      tag_12\n      jump\t// in\n    tag_31:\n      mload(0x40)\n      dup1\n      swap2\n      sub\n      swap1\n      return\n        /* \"primitiveDataTypes.sol\":225:246  int public i256 = 456 */\n    tag_10:\n      sload(0x04)\n      dup2\n      jump\t// out\n        /* \"primitiveDataTypes.sol\":199:218  int8 public i8 = -1 */\n    tag_14:\n      0x03\n      0x00\n      swap1\n      sload\n      swap1\n      0x0100\n      exp\n      swap1\n      div\n      0x00\n      signextend\n      dup2\n      jump\t// out\n        /* \"primitiveDataTypes.sol\":124:141  uint8 public u8=1 */\n    tag_18:\n      0x00\n      0x01\n      swap1\n      sload\n      swap1\n      0x0100\n      exp\n      swap1\n      div\n      0xff\n      and\n      dup2\n      jump\t// out\n        /* \"primitiveDataTypes.sol\":91:115  bool public boolean=true */\n    tag_22:\n      0x00\n      dup1\n      sload\n      swap1\n      0x0100\n      exp\n      swap1\n      div\n      0xff\n      and\n      dup2\n      jump\t// out\n        /* \"primitiveDataTypes.sol\":171:188  uint public u=123 */\n    tag_26:\n      sload(0x02)\n      dup2\n      jump\t// out\n        /* \"primitiveDataTypes.sol\":253:272  int public i = -123 */\n    tag_30:\n      sload(0x05)\n      dup2\n      jump\t// out\n        /* \"#utility.yul\":7:83   */\n    tag_32:\n        /* \"#utility.yul\":43:50   */\n      0x00\n        /* \"#utility.yul\":72:77   */\n      dup2\n        /* \"#utility.yul\":61:77   */\n      swap1\n      pop\n        /* \"#utility.yul\":7:83   */\n      swap2\n      swap1\n      pop\n      jump\t// out\n        /* \"#utility.yul\":89:204   */\n    tag_33:\n        /* \"#utility.yul\":174:197   */\n      tag_45\n        /* \"#utility.yul\":191:196   */\n      dup2\n        /* \"#utility.yul\":174:197   */\n      tag_32\n      jump\t// in\n    tag_45:\n        /* \"#utility.yul\":169:172   */\n      dup3\n        /* \"#utility.yul\":162:198   */\n      mstore\n        /* \"#utility.yul\":89:204   */\n      pop\n      pop\n      jump\t// out\n        /* \"#utility.yul\":210:428   */\n    tag_12:\n        /* \"#utility.yul\":301:305   */\n      0x00\n        /* \"#utility.yul\":339:341   */\n      0x20\n        /* \"#utility.yul\":328:337   */\n      dup3\n        /* \"#utility.yul\":324:342   */\n      add\n        /* \"#utility.yul\":316:342   */\n      swap1\n      pop\n        /* \"#utility.yul\":352:421   */\n      tag_47\n        /* \"#utility.yul\":418:419   */\n      0x00\n        /* \"#utility.yul\":407:416   */\n      dup4\n        /* \"#utility.yul\":403:420   */\n      add\n        /* \"#utility.yul\":394:400   */\n      dup5\n        /* \"#utility.yul\":352:421   */\n      tag_33\n      jump\t// in\n    tag_47:\n        /* \"#utility.yul\":210:428   */\n      swap3\n      swap2\n      pop\n      pop\n      jump\t// out\n        /* \"#utility.yul\":434:523   */\n    tag_34:\n        /* \"#utility.yul\":468:475   */\n      0x00\n        /* \"#utility.yul\":511:516   */\n      dup2\n        /* \"#utility.yul\":508:509   */\n      0x00\n        /* \"#utility.yul\":497:517   */\n      signextend\n        /* \"#utility.yul\":486:517   */\n      swap1\n      pop\n        /* \"#utility.yul\":434:523   */\n      swap2\n      swap1\n      pop\n      jump\t// out\n        /* \"#utility.yul\":529:638   */\n    tag_35:\n        /* \"#utility.yul\":610:631   */\n      tag_50\n        /* \"#utility.yul\":625:630   */\n      dup2\n        /* \"#utility.yul\":610:631   */\n      tag_34\n      jump\t// in\n    tag_50:\n        /* \"#utility.yul\":605:608   */\n      dup3\n        /* \"#utility.yul\":598:632   */\n      mstore\n        /* \"#utility.yul\":529:638   */\n      pop\n      pop\n      jump\t// out\n        /* \"#utility.yul\":644:854   */\n    tag_16:\n        /* \"#utility.yul\":731:735   */\n      0x00\n        /* \"#utility.yul\":769:771   */\n      0x20\n        /* \"#utility.yul\":758:767   */\n      dup3\n        /* \"#utility.yul\":754:772   */\n      add\n        /* \"#utility.yul\":746:772   */\n      swap1\n      pop\n        /* \"#utility.yul\":782:847   */\n      tag_52\n        /* \"#utility.yul\":844:845   */\n      0x00\n        /* \"#utility.yul\":833:842   */\n      dup4\n        /* \"#utility.yul\":829:846   */\n      add\n        /* \"#utility.yul\":820:826   */\n      dup5\n        /* \"#utility.yul\":782:847   */\n      tag_35\n      jump\t// in\n    tag_52:\n        /* \"#utility.yul\":644:854   */\n      swap3\n      swap2\n      pop\n      pop\n      jump\t// out\n        /* \"#utility.yul\":860:946   */\n    tag_36:\n        /* \"#utility.yul\":895:902   */\n      0x00\n        /* \"#utility.yul\":935:939   */\n      0xff\n        /* \"#utility.yul\":928:933   */\n      dup3\n        /* \"#utility.yul\":924:940   */\n      and\n        /* \"#utility.yul\":913:940   */\n      swap1\n      pop\n        /* \"#utility.yul\":860:946   */\n      swap2\n      swap1\n      pop\n      jump\t// out\n        /* \"#utility.yul\":952:1064   */\n    tag_37:\n        /* \"#utility.yul\":1035:1057   */\n      tag_55\n        /* \"#utility.yul\":1051:1056   */\n      dup2\n        /* \"#utility.yul\":1035:1057   */\n      tag_36\n      jump\t// in\n    tag_55:\n        /* \"#utility.yul\":1030:1033   */\n      dup3\n        /* \"#utility.yul\":1023:1058   */\n      mstore\n        /* \"#utility.yul\":952:1064   */\n      pop\n      pop\n      jump\t// out\n        /* \"#utility.yul\":1070:1284   */\n    tag_20:\n        /* \"#utility.yul\":1159:1163   */\n      0x00\n        /* \"#utility.yul\":1197:1199   */\n      0x20\n        /* \"#utility.yul\":1186:1195   */\n      dup3\n        /* \"#utility.yul\":1182:1200   */\n      add\n        /* \"#utility.yul\":1174:1200   */\n      swap1\n      pop\n        /* \"#utility.yul\":1210:1277   */\n      tag_57\n        /* \"#utility.yul\":1274:1275   */\n      0x00\n        /* \"#utility.yul\":1263:1272   */\n      dup4\n        /* \"#utility.yul\":1259:1276   */\n      add\n        /* \"#utility.yul\":1250:1256   */\n      dup5\n        /* \"#utility.yul\":1210:1277   */\n      tag_37\n      jump\t// in\n    tag_57:\n        /* \"#utility.yul\":1070:1284   */\n      swap3\n      swap2\n      pop\n      pop\n      jump\t// out\n        /* \"#utility.yul\":1290:1380   */\n    tag_38:\n        /* \"#utility.yul\":1324:1331   */\n      0x00\n        /* \"#utility.yul\":1367:1372   */\n      dup2\n        /* \"#utility.yul\":1360:1373   */\n      iszero\n        /* \"#utility.yul\":1353:1374   */\n      iszero\n        /* \"#utility.yul\":1342:1374   */\n      swap1\n      pop\n        /* \"#utility.yul\":1290:1380   */\n      swap2\n      swap1\n      pop\n      jump\t// out\n        /* \"#utility.yul\":1386:1495   */\n    tag_39:\n        /* \"#utility.yul\":1467:1488   */\n      tag_60\n        /* \"#utility.yul\":1482:1487   */\n      dup2\n        /* \"#utility.yul\":1467:1488   */\n      tag_38\n      jump\t// in\n    tag_60:\n        /* \"#utility.yul\":1462:1465   */\n      dup3\n        /* \"#utility.yul\":1455:1489   */\n      mstore\n        /* \"#utility.yul\":1386:1495   */\n      pop\n      pop\n      jump\t// out\n        /* \"#utility.yul\":1501:1711   */\n    tag_24:\n        /* \"#utility.yul\":1588:1592   */\n      0x00\n        /* \"#utility.yul\":1626:1628   */\n      0x20\n        /* \"#utility.yul\":1615:1624   */\n      dup3\n        /* \"#utility.yul\":1611:1629   */\n      add\n        /* \"#utility.yul\":1603:1629   */\n      swap1\n      pop\n        /* \"#utility.yul\":1639:1704   */\n      tag_62\n        /* \"#utility.yul\":1701:1702   */\n      0x00\n        /* \"#utility.yul\":1690:1699   */\n      dup4\n        /* \"#utility.yul\":1686:1703   */\n      add\n        /* \"#utility.yul\":1677:1683   */\n      dup5\n        /* \"#utility.yul\":1639:1704   */\n      tag_39\n      jump\t// in\n    tag_62:\n        /* \"#utility.yul\":1501:1711   */\n      swap3\n      swap2\n      pop\n      pop\n      jump\t// out\n        /* \"#utility.yul\":1717:1794   */\n    tag_40:\n        /* \"#utility.yul\":1754:1761   */\n      0x00\n        /* \"#utility.yul\":1783:1788   */\n      dup2\n        /* \"#utility.yul\":1772:1788   */\n      swap1\n      pop\n        /* \"#utility.yul\":1717:1794   */\n      swap2\n      swap1\n      pop\n      jump\t// out\n        /* \"#utility.yul\":1800:1918   */\n    tag_41:\n        /* \"#utility.yul\":1887:1911   */\n      tag_65\n        /* \"#utility.yul\":1905:1910   */\n      dup2\n        /* \"#utility.yul\":1887:1911   */\n      tag_40\n      jump\t// in\n    tag_65:\n        /* \"#utility.yul\":1882:1885   */\n      dup3\n        /* \"#utility.yul\":1875:1912   */\n      mstore\n        /* \"#utility.yul\":1800:1918   */\n      pop\n      pop\n      jump\t// out\n        /* \"#utility.yul\":1924:2146   */\n    tag_28:\n        /* \"#utility.yul\":2017:2021   */\n      0x00\n        /* \"#utility.yul\":2055:2057   */\n      0x20\n        /* \"#utility.yul\":2044:2053   */\n      dup3\n        /* \"#utility.yul\":2040:2058   */\n      add\n        /* \"#utility.yul\":2032:2058   */\n      swap1\n      pop\n        /* \"#utility.yul\":2068:2139   */\n      tag_67\n        /* \"#utility.yul\":2136:2137   */\n      0x00\n        /* \"#utility.yul\":2125:2134   */\n      dup4\n        /* \"#utility.yul\":2121:2138   */\n      add\n        /* \"#utility.yul\":2112:2118   */\n      dup5\n        /* \"#utility.yul\":2068:2139   */\n      tag_41\n      jump\t// in\n    tag_67:\n        /* \"#utility.yul\":1924:2146   */\n      swap3\n      swap2\n      pop\n      pop\n      jump\t// out\n\n    auxdata: 0xa2646970667358221220463bcb330622bb8d71c6f451beb7696674ee2c4f5bc306f07d1c6febb05fcdfb64736f6c634300080f0033\n}\n",
				"bytecode": {
					"linkReferences": {},
					"object": "608060405260016000806101000a81548160ff0219169083151502179055506001600060016101000a81548160ff021916908360ff1602179055506101c8600155607b6002557fffffffffffffffffffffffffffffffffffffffffffffffffffffffffffffffff600360006101000a81548160ff021916908360000b60ff1602179055506101c86004557fffffffffffffffffffffffffffffffffffffffffffffffffffffffffffffff856005553480156100b957600080fd5b506102a6806100c96000396000f3fe608060405234801561001057600080fd5b50600436106100625760003560e01c80634c27fd6214610067578063921cda7414610085578063ab3a58a3146100a3578063c5b57bdb146100c1578063c6a898c5146100df578063e5aa3d58146100fd575b600080fd5b61006f61011b565b60405161007c919061017d565b60405180910390f35b61008d610121565b60405161009a91906101b4565b60405180910390f35b6100ab610134565b6040516100b891906101eb565b60405180910390f35b6100c9610147565b6040516100d69190610221565b60405180910390f35b6100e7610158565b6040516100f49190610255565b60405180910390f35b61010561015e565b604051610112919061017d565b60405180910390f35b60045481565b600360009054906101000a900460000b81565b600060019054906101000a900460ff1681565b60008054906101000a900460ff1681565b60025481565b60055481565b6000819050919050565b61017781610164565b82525050565b6000602082019050610192600083018461016e565b92915050565b60008160000b9050919050565b6101ae81610198565b82525050565b60006020820190506101c960008301846101a5565b92915050565b600060ff82169050919050565b6101e5816101cf565b82525050565b600060208201905061020060008301846101dc565b92915050565b60008115159050919050565b61021b81610206565b82525050565b60006020820190506102366000830184610212565b92915050565b6000819050919050565b61024f8161023c565b82525050565b600060208201905061026a6000830184610246565b9291505056fea2646970667358221220463bcb330622bb8d71c6f451beb7696674ee2c4f5bc306f07d1c6febb05fcdfb64736f6c634300080f0033",
					"opcodes": "PUSH1 0x80 PUSH1 0x40 MSTORE PUSH1 0x1 PUSH1 0x0 DUP1 PUSH2 0x100 EXP DUP2 SLOAD DUP2 PUSH1 0xFF MUL NOT AND SWAP1 DUP4 ISZERO ISZERO MUL OR SWAP1 SSTORE POP PUSH1 0x1 PUSH1 0x0 PUSH1 0x1 PUSH2 0x100 EXP DUP2 SLOAD DUP2 PUSH1 0xFF MUL NOT AND SWAP1 DUP4 PUSH1 0xFF AND MUL OR SWAP1 SSTORE POP PUSH2 0x1C8 PUSH1 0x1 SSTORE PUSH1 0x7B PUSH1 0x2 SSTORE PUSH32 0xFFFFFFFFFFFFFFFFFFFFFFFFFFFFFFFFFFFFFFFFFFFFFFFFFFFFFFFFFFFFFFFF PUSH1 0x3 PUSH1 0x0 PUSH2 0x100 EXP DUP2 SLOAD DUP2 PUSH1 0xFF MUL NOT AND SWAP1 DUP4 PUSH1 0x0 SIGNEXTEND PUSH1 0xFF AND MUL OR SWAP1 SSTORE POP PUSH2 0x1C8 PUSH1 0x4 SSTORE PUSH32 0xFFFFFFFFFFFFFFFFFFFFFFFFFFFFFFFFFFFFFFFFFFFFFFFFFFFFFFFFFFFFFF85 PUSH1 0x5 SSTORE CALLVALUE DUP1 ISZERO PUSH2 0xB9 JUMPI PUSH1 0x0 DUP1 REVERT JUMPDEST POP PUSH2 0x2A6 DUP1 PUSH2 0xC9 PUSH1 0x0 CODECOPY PUSH1 0x0 RETURN INVALID PUSH1 0x80 PUSH1 0x40 MSTORE CALLVALUE DUP1 ISZERO PUSH2 0x10 JUMPI PUSH1 0x0 DUP1 REVERT JUMPDEST POP PUSH1 0x4 CALLDATASIZE LT PUSH2 0x62 JUMPI PUSH1 0x0 CALLDATALOAD PUSH1 0xE0 SHR DUP1 PUSH4 0x4C27FD62 EQ PUSH2 0x67 JUMPI DUP1 PUSH4 0x921CDA74 EQ PUSH2 0x85 JUMPI DUP1 PUSH4 0xAB3A58A3 EQ PUSH2 0xA3 JUMPI DUP1 PUSH4 0xC5B57BDB EQ PUSH2 0xC1 JUMPI DUP1 PUSH4 0xC6A898C5 EQ PUSH2 0xDF JUMPI DUP1 PUSH4 0xE5AA3D58 EQ PUSH2 0xFD JUMPI JUMPDEST PUSH1 0x0 DUP1 REVERT JUMPDEST PUSH2 0x6F PUSH2 0x11B JUMP JUMPDEST PUSH1 0x40 MLOAD PUSH2 0x7C SWAP2 SWAP1 PUSH2 0x17D JUMP JUMPDEST PUSH1 0x40 MLOAD DUP1 SWAP2 SUB SWAP1 RETURN JUMPDEST PUSH2 0x8D PUSH2 0x121 JUMP JUMPDEST PUSH1 0x40 MLOAD PUSH2 0x9A SWAP2 SWAP1 PUSH2 0x1B4 JUMP JUMPDEST PUSH1 0x40 MLOAD DUP1 SWAP2 SUB SWAP1 RETURN JUMPDEST PUSH2 0xAB PUSH2 0x134 JUMP JUMPDEST PUSH1 0x40 MLOAD PUSH2 0xB8 SWAP2 SWAP1 PUSH2 0x1EB JUMP JUMPDEST PUSH1 0x40 MLOAD DUP1 SWAP2 SUB SWAP1 RETURN JUMPDEST PUSH2 0xC9 PUSH2 0x147 JUMP JUMPDEST PUSH1 0x40 MLOAD PUSH2 0xD6 SWAP2 SWAP1 PUSH2 0x221 JUMP JUMPDEST PUSH1 0x40 MLOAD DUP1 SWAP2 SUB SWAP1 RETURN JUMPDEST PUSH2 0xE7 PUSH2 0x158 JUMP JUMPDEST PUSH1 0x40 MLOAD PUSH2 0xF4 SWAP2 SWAP1 PUSH2 0x255 JUMP JUMPDEST PUSH1 0x40 MLOAD DUP1 SWAP2 SUB SWAP1 RETURN JUMPDEST PUSH2 0x105 PUSH2 0x15E JUMP JUMPDEST PUSH1 0x40 MLOAD PUSH2 0x112 SWAP2 SWAP1 PUSH2 0x17D JUMP JUMPDEST PUSH1 0x40 MLOAD DUP1 SWAP2 SUB SWAP1 RETURN JUMPDEST PUSH1 0x4 SLOAD DUP2 JUMP JUMPDEST PUSH1 0x3 PUSH1 0x0 SWAP1 SLOAD SWAP1 PUSH2 0x100 EXP SWAP1 DIV PUSH1 0x0 SIGNEXTEND DUP2 JUMP JUMPDEST PUSH1 0x0 PUSH1 0x1 SWAP1 SLOAD SWAP1 PUSH2 0x100 EXP SWAP1 DIV PUSH1 0xFF AND DUP2 JUMP JUMPDEST PUSH1 0x0 DUP1 SLOAD SWAP1 PUSH2 0x100 EXP SWAP1 DIV PUSH1 0xFF AND DUP2 JUMP JUMPDEST PUSH1 0x2 SLOAD DUP2 JUMP JUMPDEST PUSH1 0x5 SLOAD DUP2 JUMP JUMPDEST PUSH1 0x0 DUP2 SWAP1 POP SWAP2 SWAP1 POP JUMP JUMPDEST PUSH2 0x177 DUP2 PUSH2 0x164 JUMP JUMPDEST DUP3 MSTORE POP POP JUMP JUMPDEST PUSH1 0x0 PUSH1 0x20 DUP3 ADD SWAP1 POP PUSH2 0x192 PUSH1 0x0 DUP4 ADD DUP5 PUSH2 0x16E JUMP JUMPDEST SWAP3 SWAP2 POP POP JUMP JUMPDEST PUSH1 0x0 DUP2 PUSH1 0x0 SIGNEXTEND SWAP1 POP SWAP2 SWAP1 POP JUMP JUMPDEST PUSH2 0x1AE DUP2 PUSH2 0x198 JUMP JUMPDEST DUP3 MSTORE POP POP JUMP JUMPDEST PUSH1 0x0 PUSH1 0x20 DUP3 ADD SWAP1 POP PUSH2 0x1C9 PUSH1 0x0 DUP4 ADD DUP5 PUSH2 0x1A5 JUMP JUMPDEST SWAP3 SWAP2 POP POP JUMP JUMPDEST PUSH1 0x0 PUSH1 0xFF DUP3 AND SWAP1 POP SWAP2 SWAP1 POP JUMP JUMPDEST PUSH2 0x1E5 DUP2 PUSH2 0x1CF JUMP JUMPDEST DUP3 MSTORE POP POP JUMP JUMPDEST PUSH1 0x0 PUSH1 0x20 DUP3 ADD SWAP1 POP PUSH2 0x200 PUSH1 0x0 DUP4 ADD DUP5 PUSH2 0x1DC JUMP JUMPDEST SWAP3 SWAP2 POP POP JUMP JUMPDEST PUSH1 0x0 DUP2 ISZERO ISZERO SWAP1 POP SWAP2 SWAP1 POP JUMP JUMPDEST PUSH2 0x21B DUP2 PUSH2 0x206 JUMP JUMPDEST DUP3 MSTORE POP POP JUMP JUMPDEST PUSH1 0x0 PUSH1 0x20 DUP3 ADD SWAP1 POP PUSH2 0x236 PUSH1 0x0 DUP4 ADD DUP5 PUSH2 0x212 JUMP JUMPDEST SWAP3 SWAP2 POP POP JUMP JUMPDEST PUSH1 0x0 DUP2 SWAP1 POP SWAP2 SWAP1 POP JUMP JUMPDEST PUSH2 0x24F DUP2 PUSH2 0x23C JUMP JUMPDEST DUP3 MSTORE POP POP JUMP JUMPDEST PUSH1 0x0 PUSH1 0x20 DUP3 ADD SWAP1 POP PUSH2 0x26A PUSH1 0x0 DUP4 ADD DUP5 PUSH2 0x246 JUMP JUMPDEST SWAP3 SWAP2 POP POP JUMP INVALID LOG2 PUSH5 0x6970667358 0x22 SLT KECCAK256 CHAINID EXTCODESIZE 0xCB CALLER MOD 0x22 0xBB DUP14 PUSH18 0xC6F451BEB7696674EE2C4F5BC306F07D1C6F 0xEB 0xB0 0x5F 0xCD 0xFB PUSH5 0x736F6C6343 STOP ADDMOD 0xF STOP CALLER "
				},
				"gasEstimates": {
					"creation": {
						"codeDepositCost": "135600",
						"executionCost": "161466",
						"totalCost": "297066"
					},
					"external": {
						"boolean()": "2512",
						"i()": "2517",
						"i256()": "2407",
						"i8()": "2475",
						"u()": "2495",
						"u8()": "2543"
					}
				},
				"methodIdentifiers": {
					"boolean()": "c5b57bdb",
					"i()": "e5aa3d58",
					"i256()": "4c27fd62",
					"i8()": "921cda74",
					"u()": "c6a898c5",
					"u8()": "ab3a58a3"
				}
			},
			"storageLayout": {
				"storage": [
					{
						"astId": 4,
						"contract": "primitiveDataTypes.sol:Primitives",
						"label": "boolean",
						"offset": 0,
						"slot": "0",
						"type": "t_bool"
					},
					{
						"astId": 7,
						"contract": "primitiveDataTypes.sol:Primitives",
						"label": "u8",
						"offset": 1,
						"slot": "0",
						"type": "t_uint8"
					},
					{
						"astId": 10,
						"contract": "primitiveDataTypes.sol:Primitives",
						"label": "u256",
						"offset": 0,
						"slot": "1",
						"type": "t_uint256"
					},
					{
						"astId": 13,
						"contract": "primitiveDataTypes.sol:Primitives",
						"label": "u",
						"offset": 0,
						"slot": "2",
						"type": "t_uint256"
					},
					{
						"astId": 17,
						"contract": "primitiveDataTypes.sol:Primitives",
						"label": "i8",
						"offset": 0,
						"slot": "3",
						"type": "t_int8"
					},
					{
						"astId": 20,
						"contract": "primitiveDataTypes.sol:Primitives",
						"label": "i256",
						"offset": 0,
						"slot": "4",
						"type": "t_int256"
					},
					{
						"astId": 24,
						"contract": "primitiveDataTypes.sol:Primitives",
						"label": "i",
						"offset": 0,
						"slot": "5",
						"type": "t_int256"
					}
				],
				"types": {
					"t_bool": {
						"encoding": "inplace",
						"label": "bool",
						"numberOfBytes": "1"
					},
					"t_int256": {
						"encoding": "inplace",
						"label": "int256",
						"numberOfBytes": "32"
					},
					"t_int8": {
						"encoding": "inplace",
						"label": "int8",
						"numberOfBytes": "1"
					},
					"t_uint256": {
						"encoding": "inplace",
						"label": "uint256",
						"numberOfBytes": "32"
					},
					"t_uint8": {
						"encoding": "inplace",
						"label": "uint8",
						"numberOfBytes": "1"
					}
				}
			},
			"userdoc": {
				"kind": "user",
				"methods": {},
				"version": 1
			}
		}
	}
}