{
	"Program1.sol": {
		"Program1": {
			"abi": [
				{
					"inputs": [],
					"name": "getMarks",
					"outputs": [
						{
							"internalType": "uint256",
							"name": "",
							"type": "uint256"
						}
					],
					"stateMutability": "view",
					"type": "function"
				},
				{
					"inputs": [],
					"name": "getName",
					"outputs": [
						{
							"internalType": "string",
							"name": "",
							"type": "string"
						}
					],
					"stateMutability": "view",
					"type": "function"
				},
				{
					"inputs": [
						{
							"internalType": "uint256",
							"name": "newMarks",
							"type": "uint256"
						}
					],
					"name": "setMarks",
					"outputs": [],
					"stateMutability": "nonpayable",
					"type": "function"
				},
				{
					"inputs": [
						{
							"internalType": "string",
							"name": "_newName",
							"type": "string"
						}
					],
					"name": "setName",
					"outputs": [],
					"stateMutability": "nonpayable",
					"type": "function"
				}
			],
			"devdoc": {
				"kind": "dev",
				"methods": {},
				"version": 1
			},
			"evm": {
				"assembly": "    /* \"Program1.sol\":60:521  contract Program1 {... */\n  mstore(0x40, 0x80)\n  callvalue\n  dup1\n  iszero\n  tag_1\n  jumpi\n  0x00\n  dup1\n  revert\ntag_1:\n  pop\n  dataSize(sub_0)\n  dup1\n  dataOffset(sub_0)\n  0x00\n  codecopy\n  0x00\n  return\nstop\n\nsub_0: assembly {\n        /* \"Program1.sol\":60:521  contract Program1 {... */\n      mstore(0x40, 0x80)\n      callvalue\n      dup1\n      iszero\n      tag_1\n      jumpi\n      0x00\n      dup1\n      revert\n    tag_1:\n      pop\n      jumpi(tag_2, lt(calldatasize, 0x04))\n      shr(0xe0, calldataload(0x00))\n      dup1\n      0x17d7de7c\n      eq\n      tag_3\n      jumpi\n      dup1\n      0xb780e507\n      eq\n      tag_4\n      jumpi\n      dup1\n      0xc47f0027\n      eq\n      tag_5\n      jumpi\n      dup1\n      0xf2ceb262\n      eq\n      tag_6\n      jumpi\n    tag_2:\n      0x00\n      dup1\n      revert\n        /* \"Program1.sol\":236:324  function getName () public view returns (string memory) {... */\n    tag_3:\n      tag_7\n      tag_8\n      jump\t// in\n    tag_7:\n      mload(0x40)\n      tag_9\n      swap2\n      swap1\n      tag_10\n      jump\t// in\n    tag_9:\n      mload(0x40)\n      dup1\n      swap2\n      sub\n      swap1\n      return\n        /* \"Program1.sol\":431:512  function getMarks () public view returns (uint) {... */\n    tag_4:\n      tag_11\n      tag_12\n      jump\t// in\n    tag_11:\n      mload(0x40)\n      tag_13\n      swap2\n      swap1\n      tag_14\n      jump\t// in\n    tag_13:\n      mload(0x40)\n      dup1\n      swap2\n      sub\n      swap1\n      return\n        /* \"Program1.sol\":144:228  function setName(string memory _newName) public {... */\n    tag_5:\n      tag_15\n      0x04\n      dup1\n      calldatasize\n      sub\n      dup2\n      add\n      swap1\n      tag_16\n      swap2\n      swap1\n      tag_17\n      jump\t// in\n    tag_16:\n      tag_18\n      jump\t// in\n    tag_15:\n      stop\n        /* \"Program1.sol\":336:423  function setMarks(uint newMarks) public {... */\n    tag_6:\n      tag_19\n      0x04\n      dup1\n      calldatasize\n      sub\n      dup2\n      add\n      swap1\n      tag_20\n      swap2\n      swap1\n      tag_21\n      jump\t// in\n    tag_20:\n      tag_22\n      jump\t// in\n    tag_19:\n      stop\n        /* \"Program1.sol\":236:324  function getName () public view returns (string memory) {... */\n    tag_8:\n        /* \"Program1.sol\":277:290  string memory */\n      0x60\n        /* \"Program1.sol\":310:316  myName */\n      0x00\n        /* \"Program1.sol\":303:316  return myName */\n      dup1\n      sload\n      tag_24\n      swap1\n      tag_25\n      jump\t// in\n    tag_24:\n      dup1\n      0x1f\n      add\n      0x20\n      dup1\n      swap2\n      div\n      mul\n      0x20\n      add\n      mload(0x40)\n      swap1\n      dup2\n      add\n      0x40\n      mstore\n      dup1\n      swap3\n      swap2\n      swap1\n      dup2\n      dup2\n      mstore\n      0x20\n      add\n      dup3\n      dup1\n      sload\n      tag_26\n      swap1\n      tag_25\n      jump\t// in\n    tag_26:\n      dup1\n      iszero\n      tag_27\n      jumpi\n      dup1\n      0x1f\n      lt\n      tag_28\n      jumpi\n      0x0100\n      dup1\n      dup4\n      sload\n      div\n      mul\n      dup4\n      mstore\n      swap2\n      0x20\n      add\n      swap2\n      jump(tag_27)\n    tag_28:\n      dup3\n      add\n      swap2\n      swap1\n      0x00\n      mstore\n      keccak256(0x00, 0x20)\n      swap1\n    tag_29:\n      dup2\n      sload\n      dup2\n      mstore\n      swap1\n      0x01\n      add\n      swap1\n      0x20\n      add\n      dup1\n      dup4\n      gt\n      tag_29\n      jumpi\n      dup3\n      swap1\n      sub\n      0x1f\n      and\n      dup3\n      add\n      swap2\n    tag_27:\n      pop\n      pop\n      pop\n      pop\n      pop\n      swap1\n      pop\n        /* \"Program1.sol\":236:324  function getName () public view returns (string memory) {... */\n      swap1\n      jump\t// out\n        /* \"Program1.sol\":431:512  function getMarks () public view returns (uint) {... */\n    tag_12:\n        /* \"Program1.sol\":473:477  uint */\n      0x00\n        /* \"Program1.sol\":497:504  myMarks */\n      sload(0x01)\n        /* \"Program1.sol\":490:504  return myMarks */\n      swap1\n      pop\n        /* \"Program1.sol\":431:512  function getMarks () public view returns (uint) {... */\n      swap1\n      jump\t// out\n        /* \"Program1.sol\":144:228  function setName(string memory _newName) public {... */\n    tag_18:\n        /* \"Program1.sol\":212:220  _newName */\n      dup1\n        /* \"Program1.sol\":203:209  myName */\n      0x00\n        /* \"Program1.sol\":203:220  myName = _newName */\n      swap1\n      dup2\n      tag_32\n      swap2\n      swap1\n      tag_33\n      jump\t// in\n    tag_32:\n      pop\n        /* \"Program1.sol\":144:228  function setName(string memory _newName) public {... */\n      pop\n      jump\t// out\n        /* \"Program1.sol\":336:423  function setMarks(uint newMarks) public {... */\n    tag_22:\n        /* \"Program1.sol\":397:405  newMarks */\n      dup1\n        /* \"Program1.sol\":387:394  myMarks */\n      0x01\n        /* \"Program1.sol\":387:405  myMarks = newMarks */\n      dup2\n      swap1\n      sstore\n      pop\n        /* \"Program1.sol\":336:423  function setMarks(uint newMarks) public {... */\n      pop\n      jump\t// out\n        /* \"#utility.yul\":7:106   */\n    tag_35:\n        /* \"#utility.yul\":59:65   */\n      0x00\n        /* \"#utility.yul\":93:98   */\n      dup2\n        /* \"#utility.yul\":87:99   */\n      mload\n        /* \"#utility.yul\":77:99   */\n      swap1\n      pop\n        /* \"#utility.yul\":7:106   */\n      swap2\n      swap1\n      pop\n      jump\t// out\n        /* \"#utility.yul\":112:281   */\n    tag_36:\n        /* \"#utility.yul\":196:207   */\n      0x00\n        /* \"#utility.yul\":230:236   */\n      dup3\n        /* \"#utility.yul\":225:228   */\n      dup3\n        /* \"#utility.yul\":218:237   */\n      mstore\n        /* \"#utility.yul\":270:274   */\n      0x20\n        /* \"#utility.yul\":265:268   */\n      dup3\n        /* \"#utility.yul\":261:275   */\n      add\n        /* \"#utility.yul\":246:275   */\n      swap1\n      pop\n        /* \"#utility.yul\":112:281   */\n      swap3\n      swap2\n      pop\n      pop\n      jump\t// out\n        /* \"#utility.yul\":287:594   */\n    tag_37:\n        /* \"#utility.yul\":355:356   */\n      0x00\n        /* \"#utility.yul\":365:478   */\n    tag_76:\n        /* \"#utility.yul\":379:385   */\n      dup4\n        /* \"#utility.yul\":376:377   */\n      dup2\n        /* \"#utility.yul\":373:386   */\n      lt\n        /* \"#utility.yul\":365:478   */\n      iszero\n      tag_78\n      jumpi\n        /* \"#utility.yul\":464:465   */\n      dup1\n        /* \"#utility.yul\":459:462   */\n      dup3\n        /* \"#utility.yul\":455:466   */\n      add\n        /* \"#utility.yul\":449:467   */\n      mload\n        /* \"#utility.yul\":445:446   */\n      dup2\n        /* \"#utility.yul\":440:443   */\n      dup5\n        /* \"#utility.yul\":436:447   */\n      add\n        /* \"#utility.yul\":429:468   */\n      mstore\n        /* \"#utility.yul\":401:403   */\n      0x20\n        /* \"#utility.yul\":398:399   */\n      dup2\n        /* \"#utility.yul\":394:404   */\n      add\n        /* \"#utility.yul\":389:404   */\n      swap1\n      pop\n        /* \"#utility.yul\":365:478   */\n      jump(tag_76)\n    tag_78:\n        /* \"#utility.yul\":496:502   */\n      dup4\n        /* \"#utility.yul\":493:494   */\n      dup2\n        /* \"#utility.yul\":490:503   */\n      gt\n        /* \"#utility.yul\":487:588   */\n      iszero\n      tag_79\n      jumpi\n        /* \"#utility.yul\":576:577   */\n      0x00\n        /* \"#utility.yul\":567:573   */\n      dup5\n        /* \"#utility.yul\":562:565   */\n      dup5\n        /* \"#utility.yul\":558:574   */\n      add\n        /* \"#utility.yul\":551:578   */\n      mstore\n        /* \"#utility.yul\":487:588   */\n    tag_79:\n        /* \"#utility.yul\":336:594   */\n      pop\n        /* \"#utility.yul\":287:594   */\n      pop\n      pop\n      pop\n      jump\t// out\n        /* \"#utility.yul\":600:702   */\n    tag_38:\n        /* \"#utility.yul\":641:647   */\n      0x00\n        /* \"#utility.yul\":692:694   */\n      0x1f\n        /* \"#utility.yul\":688:695   */\n      not\n        /* \"#utility.yul\":683:685   */\n      0x1f\n        /* \"#utility.yul\":676:681   */\n      dup4\n        /* \"#utility.yul\":672:686   */\n      add\n        /* \"#utility.yul\":668:696   */\n      and\n        /* \"#utility.yul\":658:696   */\n      swap1\n      pop\n        /* \"#utility.yul\":600:702   */\n      swap2\n      swap1\n      pop\n      jump\t// out\n        /* \"#utility.yul\":708:1072   */\n    tag_39:\n        /* \"#utility.yul\":796:799   */\n      0x00\n        /* \"#utility.yul\":824:863   */\n      tag_82\n        /* \"#utility.yul\":857:862   */\n      dup3\n        /* \"#utility.yul\":824:863   */\n      tag_35\n      jump\t// in\n    tag_82:\n        /* \"#utility.yul\":879:950   */\n      tag_83\n        /* \"#utility.yul\":943:949   */\n      dup2\n        /* \"#utility.yul\":938:941   */\n      dup6\n        /* \"#utility.yul\":879:950   */\n      tag_36\n      jump\t// in\n    tag_83:\n        /* \"#utility.yul\":872:950   */\n      swap4\n      pop\n        /* \"#utility.yul\":959:1011   */\n      tag_84\n        /* \"#utility.yul\":1004:1010   */\n      dup2\n        /* \"#utility.yul\":999:1002   */\n      dup6\n        /* \"#utility.yul\":992:996   */\n      0x20\n        /* \"#utility.yul\":985:990   */\n      dup7\n        /* \"#utility.yul\":981:997   */\n      add\n        /* \"#utility.yul\":959:1011   */\n      tag_37\n      jump\t// in\n    tag_84:\n        /* \"#utility.yul\":1036:1065   */\n      tag_85\n        /* \"#utility.yul\":1058:1064   */\n      dup2\n        /* \"#utility.yul\":1036:1065   */\n      tag_38\n      jump\t// in\n    tag_85:\n        /* \"#utility.yul\":1031:1034   */\n      dup5\n        /* \"#utility.yul\":1027:1066   */\n      add\n        /* \"#utility.yul\":1020:1066   */\n      swap2\n      pop\n        /* \"#utility.yul\":800:1072   */\n      pop\n        /* \"#utility.yul\":708:1072   */\n      swap3\n      swap2\n      pop\n      pop\n      jump\t// out\n        /* \"#utility.yul\":1078:1391   */\n    tag_10:\n        /* \"#utility.yul\":1191:1195   */\n      0x00\n        /* \"#utility.yul\":1229:1231   */\n      0x20\n        /* \"#utility.yul\":1218:1227   */\n      dup3\n        /* \"#utility.yul\":1214:1232   */\n      add\n        /* \"#utility.yul\":1206:1232   */\n      swap1\n      pop\n        /* \"#utility.yul\":1278:1287   */\n      dup2\n        /* \"#utility.yul\":1272:1276   */\n      dup2\n        /* \"#utility.yul\":1268:1288   */\n      sub\n        /* \"#utility.yul\":1264:1265   */\n      0x00\n        /* \"#utility.yul\":1253:1262   */\n      dup4\n        /* \"#utility.yul\":1249:1266   */\n      add\n        /* \"#utility.yul\":1242:1289   */\n      mstore\n        /* \"#utility.yul\":1306:1384   */\n      tag_87\n        /* \"#utility.yul\":1379:1383   */\n      dup2\n        /* \"#utility.yul\":1370:1376   */\n      dup5\n        /* \"#utility.yul\":1306:1384   */\n      tag_39\n      jump\t// in\n    tag_87:\n        /* \"#utility.yul\":1298:1384   */\n      swap1\n      pop\n        /* \"#utility.yul\":1078:1391   */\n      swap3\n      swap2\n      pop\n      pop\n      jump\t// out\n        /* \"#utility.yul\":1397:1474   */\n    tag_40:\n        /* \"#utility.yul\":1434:1441   */\n      0x00\n        /* \"#utility.yul\":1463:1468   */\n      dup2\n        /* \"#utility.yul\":1452:1468   */\n      swap1\n      pop\n        /* \"#utility.yul\":1397:1474   */\n      swap2\n      swap1\n      pop\n      jump\t// out\n        /* \"#utility.yul\":1480:1598   */\n    tag_41:\n        /* \"#utility.yul\":1567:1591   */\n      tag_90\n        /* \"#utility.yul\":1585:1590   */\n      dup2\n        /* \"#utility.yul\":1567:1591   */\n      tag_40\n      jump\t// in\n    tag_90:\n        /* \"#utility.yul\":1562:1565   */\n      dup3\n        /* \"#utility.yul\":1555:1592   */\n      mstore\n        /* \"#utility.yul\":1480:1598   */\n      pop\n      pop\n      jump\t// out\n        /* \"#utility.yul\":1604:1826   */\n    tag_14:\n        /* \"#utility.yul\":1697:1701   */\n      0x00\n        /* \"#utility.yul\":1735:1737   */\n      0x20\n        /* \"#utility.yul\":1724:1733   */\n      dup3\n        /* \"#utility.yul\":1720:1738   */\n      add\n        /* \"#utility.yul\":1712:1738   */\n      swap1\n      pop\n        /* \"#utility.yul\":1748:1819   */\n      tag_92\n        /* \"#utility.yul\":1816:1817   */\n      0x00\n        /* \"#utility.yul\":1805:1814   */\n      dup4\n        /* \"#utility.yul\":1801:1818   */\n      add\n        /* \"#utility.yul\":1792:1798   */\n      dup5\n        /* \"#utility.yul\":1748:1819   */\n      tag_41\n      jump\t// in\n    tag_92:\n        /* \"#utility.yul\":1604:1826   */\n      swap3\n      swap2\n      pop\n      pop\n      jump\t// out\n        /* \"#utility.yul\":1832:1907   */\n    tag_42:\n        /* \"#utility.yul\":1865:1871   */\n      0x00\n        /* \"#utility.yul\":1898:1900   */\n      0x40\n        /* \"#utility.yul\":1892:1901   */\n      mload\n        /* \"#utility.yul\":1882:1901   */\n      swap1\n      pop\n        /* \"#utility.yul\":1832:1907   */\n      swap1\n      jump\t// out\n        /* \"#utility.yul\":1913:2030   */\n    tag_43:\n        /* \"#utility.yul\":2022:2023   */\n      0x00\n        /* \"#utility.yul\":2019:2020   */\n      dup1\n        /* \"#utility.yul\":2012:2024   */\n      revert\n        /* \"#utility.yul\":2036:2153   */\n    tag_44:\n        /* \"#utility.yul\":2145:2146   */\n      0x00\n        /* \"#utility.yul\":2142:2143   */\n      dup1\n        /* \"#utility.yul\":2135:2147   */\n      revert\n        /* \"#utility.yul\":2159:2276   */\n    tag_45:\n        /* \"#utility.yul\":2268:2269   */\n      0x00\n        /* \"#utility.yul\":2265:2266   */\n      dup1\n        /* \"#utility.yul\":2258:2270   */\n      revert\n        /* \"#utility.yul\":2282:2399   */\n    tag_46:\n        /* \"#utility.yul\":2391:2392   */\n      0x00\n        /* \"#utility.yul\":2388:2389   */\n      dup1\n        /* \"#utility.yul\":2381:2393   */\n      revert\n        /* \"#utility.yul\":2405:2585   */\n    tag_47:\n        /* \"#utility.yul\":2453:2530   */\n      0x4e487b7100000000000000000000000000000000000000000000000000000000\n        /* \"#utility.yul\":2450:2451   */\n      0x00\n        /* \"#utility.yul\":2443:2531   */\n      mstore\n        /* \"#utility.yul\":2550:2554   */\n      0x41\n        /* \"#utility.yul\":2547:2548   */\n      0x04\n        /* \"#utility.yul\":2540:2555   */\n      mstore\n        /* \"#utility.yul\":2574:2578   */\n      0x24\n        /* \"#utility.yul\":2571:2572   */\n      0x00\n        /* \"#utility.yul\":2564:2579   */\n      revert\n        /* \"#utility.yul\":2591:2872   */\n    tag_48:\n        /* \"#utility.yul\":2674:2701   */\n      tag_100\n        /* \"#utility.yul\":2696:2700   */\n      dup3\n        /* \"#utility.yul\":2674:2701   */\n      tag_38\n      jump\t// in\n    tag_100:\n        /* \"#utility.yul\":2666:2672   */\n      dup2\n        /* \"#utility.yul\":2662:2702   */\n      add\n        /* \"#utility.yul\":2804:2810   */\n      dup2\n        /* \"#utility.yul\":2792:2802   */\n      dup2\n        /* \"#utility.yul\":2789:2811   */\n      lt\n        /* \"#utility.yul\":2768:2786   */\n      0xffffffffffffffff\n        /* \"#utility.yul\":2756:2766   */\n      dup3\n        /* \"#utility.yul\":2753:2787   */\n      gt\n        /* \"#utility.yul\":2750:2812   */\n      or\n        /* \"#utility.yul\":2747:2835   */\n      iszero\n      tag_101\n      jumpi\n        /* \"#utility.yul\":2815:2833   */\n      tag_102\n      tag_47\n      jump\t// in\n    tag_102:\n        /* \"#utility.yul\":2747:2835   */\n    tag_101:\n        /* \"#utility.yul\":2855:2865   */\n      dup1\n        /* \"#utility.yul\":2851:2853   */\n      0x40\n        /* \"#utility.yul\":2844:2866   */\n      mstore\n        /* \"#utility.yul\":2634:2872   */\n      pop\n        /* \"#utility.yul\":2591:2872   */\n      pop\n      pop\n      jump\t// out\n        /* \"#utility.yul\":2878:3007   */\n    tag_49:\n        /* \"#utility.yul\":2912:2918   */\n      0x00\n        /* \"#utility.yul\":2939:2959   */\n      tag_104\n      tag_42\n      jump\t// in\n    tag_104:\n        /* \"#utility.yul\":2929:2959   */\n      swap1\n      pop\n        /* \"#utility.yul\":2968:3001   */\n      tag_105\n        /* \"#utility.yul\":2996:3000   */\n      dup3\n        /* \"#utility.yul\":2988:2994   */\n      dup3\n        /* \"#utility.yul\":2968:3001   */\n      tag_48\n      jump\t// in\n    tag_105:\n        /* \"#utility.yul\":2878:3007   */\n      swap2\n      swap1\n      pop\n      jump\t// out\n        /* \"#utility.yul\":3013:3321   */\n    tag_50:\n        /* \"#utility.yul\":3075:3079   */\n      0x00\n        /* \"#utility.yul\":3165:3183   */\n      0xffffffffffffffff\n        /* \"#utility.yul\":3157:3163   */\n      dup3\n        /* \"#utility.yul\":3154:3184   */\n      gt\n        /* \"#utility.yul\":3151:3207   */\n      iszero\n      tag_107\n      jumpi\n        /* \"#utility.yul\":3187:3205   */\n      tag_108\n      tag_47\n      jump\t// in\n    tag_108:\n        /* \"#utility.yul\":3151:3207   */\n    tag_107:\n        /* \"#utility.yul\":3225:3254   */\n      tag_109\n        /* \"#utility.yul\":3247:3253   */\n      dup3\n        /* \"#utility.yul\":3225:3254   */\n      tag_38\n      jump\t// in\n    tag_109:\n        /* \"#utility.yul\":3217:3254   */\n      swap1\n      pop\n        /* \"#utility.yul\":3309:3313   */\n      0x20\n        /* \"#utility.yul\":3303:3307   */\n      dup2\n        /* \"#utility.yul\":3299:3314   */\n      add\n        /* \"#utility.yul\":3291:3314   */\n      swap1\n      pop\n        /* \"#utility.yul\":3013:3321   */\n      swap2\n      swap1\n      pop\n      jump\t// out\n        /* \"#utility.yul\":3327:3481   */\n    tag_51:\n        /* \"#utility.yul\":3411:3417   */\n      dup3\n        /* \"#utility.yul\":3406:3409   */\n      dup2\n        /* \"#utility.yul\":3401:3404   */\n      dup4\n        /* \"#utility.yul\":3388:3418   */\n      calldatacopy\n        /* \"#utility.yul\":3473:3474   */\n      0x00\n        /* \"#utility.yul\":3464:3470   */\n      dup4\n        /* \"#utility.yul\":3459:3462   */\n      dup4\n        /* \"#utility.yul\":3455:3471   */\n      add\n        /* \"#utility.yul\":3448:3475   */\n      mstore\n        /* \"#utility.yul\":3327:3481   */\n      pop\n      pop\n      pop\n      jump\t// out\n        /* \"#utility.yul\":3487:3899   */\n    tag_52:\n        /* \"#utility.yul\":3565:3570   */\n      0x00\n        /* \"#utility.yul\":3590:3656   */\n      tag_112\n        /* \"#utility.yul\":3606:3655   */\n      tag_113\n        /* \"#utility.yul\":3648:3654   */\n      dup5\n        /* \"#utility.yul\":3606:3655   */\n      tag_50\n      jump\t// in\n    tag_113:\n        /* \"#utility.yul\":3590:3656   */\n      tag_49\n      jump\t// in\n    tag_112:\n        /* \"#utility.yul\":3581:3656   */\n      swap1\n      pop\n        /* \"#utility.yul\":3679:3685   */\n      dup3\n        /* \"#utility.yul\":3672:3677   */\n      dup2\n        /* \"#utility.yul\":3665:3686   */\n      mstore\n        /* \"#utility.yul\":3717:3721   */\n      0x20\n        /* \"#utility.yul\":3710:3715   */\n      dup2\n        /* \"#utility.yul\":3706:3722   */\n      add\n        /* \"#utility.yul\":3755:3758   */\n      dup5\n        /* \"#utility.yul\":3746:3752   */\n      dup5\n        /* \"#utility.yul\":3741:3744   */\n      dup5\n        /* \"#utility.yul\":3737:3753   */\n      add\n        /* \"#utility.yul\":3734:3759   */\n      gt\n        /* \"#utility.yul\":3731:3843   */\n      iszero\n      tag_114\n      jumpi\n        /* \"#utility.yul\":3762:3841   */\n      tag_115\n      tag_46\n      jump\t// in\n    tag_115:\n        /* \"#utility.yul\":3731:3843   */\n    tag_114:\n        /* \"#utility.yul\":3852:3893   */\n      tag_116\n        /* \"#utility.yul\":3886:3892   */\n      dup5\n        /* \"#utility.yul\":3881:3884   */\n      dup3\n        /* \"#utility.yul\":3876:3879   */\n      dup6\n        /* \"#utility.yul\":3852:3893   */\n      tag_51\n      jump\t// in\n    tag_116:\n        /* \"#utility.yul\":3571:3899   */\n      pop\n        /* \"#utility.yul\":3487:3899   */\n      swap4\n      swap3\n      pop\n      pop\n      pop\n      jump\t// out\n        /* \"#utility.yul\":3919:4259   */\n    tag_53:\n        /* \"#utility.yul\":3975:3980   */\n      0x00\n        /* \"#utility.yul\":4024:4027   */\n      dup3\n        /* \"#utility.yul\":4017:4021   */\n      0x1f\n        /* \"#utility.yul\":4009:4015   */\n      dup4\n        /* \"#utility.yul\":4005:4022   */\n      add\n        /* \"#utility.yul\":4001:4028   */\n      slt\n        /* \"#utility.yul\":3991:4113   */\n      tag_118\n      jumpi\n        /* \"#utility.yul\":4032:4111   */\n      tag_119\n      tag_45\n      jump\t// in\n    tag_119:\n        /* \"#utility.yul\":3991:4113   */\n    tag_118:\n        /* \"#utility.yul\":4149:4155   */\n      dup2\n        /* \"#utility.yul\":4136:4156   */\n      calldataload\n        /* \"#utility.yul\":4174:4253   */\n      tag_120\n        /* \"#utility.yul\":4249:4252   */\n      dup5\n        /* \"#utility.yul\":4241:4247   */\n      dup3\n        /* \"#utility.yul\":4234:4238   */\n      0x20\n        /* \"#utility.yul\":4226:4232   */\n      dup7\n        /* \"#utility.yul\":4222:4239   */\n      add\n        /* \"#utility.yul\":4174:4253   */\n      tag_52\n      jump\t// in\n    tag_120:\n        /* \"#utility.yul\":4165:4253   */\n      swap2\n      pop\n        /* \"#utility.yul\":3981:4259   */\n      pop\n        /* \"#utility.yul\":3919:4259   */\n      swap3\n      swap2\n      pop\n      pop\n      jump\t// out\n        /* \"#utility.yul\":4265:4774   */\n    tag_17:\n        /* \"#utility.yul\":4334:4340   */\n      0x00\n        /* \"#utility.yul\":4383:4385   */\n      0x20\n        /* \"#utility.yul\":4371:4380   */\n      dup3\n        /* \"#utility.yul\":4362:4369   */\n      dup5\n        /* \"#utility.yul\":4358:4381   */\n      sub\n        /* \"#utility.yul\":4354:4386   */\n      slt\n        /* \"#utility.yul\":4351:4470   */\n      iszero\n      tag_122\n      jumpi\n        /* \"#utility.yul\":4389:4468   */\n      tag_123\n      tag_43\n      jump\t// in\n    tag_123:\n        /* \"#utility.yul\":4351:4470   */\n    tag_122:\n        /* \"#utility.yul\":4537:4538   */\n      0x00\n        /* \"#utility.yul\":4526:4535   */\n      dup3\n        /* \"#utility.yul\":4522:4539   */\n      add\n        /* \"#utility.yul\":4509:4540   */\n      calldataload\n        /* \"#utility.yul\":4567:4585   */\n      0xffffffffffffffff\n        /* \"#utility.yul\":4559:4565   */\n      dup2\n        /* \"#utility.yul\":4556:4586   */\n      gt\n        /* \"#utility.yul\":4553:4670   */\n      iszero\n      tag_124\n      jumpi\n        /* \"#utility.yul\":4589:4668   */\n      tag_125\n      tag_44\n      jump\t// in\n    tag_125:\n        /* \"#utility.yul\":4553:4670   */\n    tag_124:\n        /* \"#utility.yul\":4694:4757   */\n      tag_126\n        /* \"#utility.yul\":4749:4756   */\n      dup5\n        /* \"#utility.yul\":4740:4746   */\n      dup3\n        /* \"#utility.yul\":4729:4738   */\n      dup6\n        /* \"#utility.yul\":4725:4747   */\n      add\n        /* \"#utility.yul\":4694:4757   */\n      tag_53\n      jump\t// in\n    tag_126:\n        /* \"#utility.yul\":4684:4757   */\n      swap2\n      pop\n        /* \"#utility.yul\":4480:4767   */\n      pop\n        /* \"#utility.yul\":4265:4774   */\n      swap3\n      swap2\n      pop\n      pop\n      jump\t// out\n        /* \"#utility.yul\":4780:4902   */\n    tag_54:\n        /* \"#utility.yul\":4853:4877   */\n      tag_128\n        /* \"#utility.yul\":4871:4876   */\n      dup2\n        /* \"#utility.yul\":4853:4877   */\n      tag_40\n      jump\t// in\n    tag_128:\n        /* \"#utility.yul\":4846:4851   */\n      dup2\n        /* \"#utility.yul\":4843:4878   */\n      eq\n        /* \"#utility.yul\":4833:4896   */\n      tag_129\n      jumpi\n        /* \"#utility.yul\":4892:4893   */\n      0x00\n        /* \"#utility.yul\":4889:4890   */\n      dup1\n        /* \"#utility.yul\":4882:4894   */\n      revert\n        /* \"#utility.yul\":4833:4896   */\n    tag_129:\n        /* \"#utility.yul\":4780:4902   */\n      pop\n      jump\t// out\n        /* \"#utility.yul\":4908:5047   */\n    tag_55:\n        /* \"#utility.yul\":4954:4959   */\n      0x00\n        /* \"#utility.yul\":4992:4998   */\n      dup2\n        /* \"#utility.yul\":4979:4999   */\n      calldataload\n        /* \"#utility.yul\":4970:4999   */\n      swap1\n      pop\n        /* \"#utility.yul\":5008:5041   */\n      tag_131\n        /* \"#utility.yul\":5035:5040   */\n      dup2\n        /* \"#utility.yul\":5008:5041   */\n      tag_54\n      jump\t// in\n    tag_131:\n        /* \"#utility.yul\":4908:5047   */\n      swap3\n      swap2\n      pop\n      pop\n      jump\t// out\n        /* \"#utility.yul\":5053:5382   */\n    tag_21:\n        /* \"#utility.yul\":5112:5118   */\n      0x00\n        /* \"#utility.yul\":5161:5163   */\n      0x20\n        /* \"#utility.yul\":5149:5158   */\n      dup3\n        /* \"#utility.yul\":5140:5147   */\n      dup5\n        /* \"#utility.yul\":5136:5159   */\n      sub\n        /* \"#utility.yul\":5132:5164   */\n      slt\n        /* \"#utility.yul\":5129:5248   */\n      iszero\n      tag_133\n      jumpi\n        /* \"#utility.yul\":5167:5246   */\n      tag_134\n      tag_43\n      jump\t// in\n    tag_134:\n        /* \"#utility.yul\":5129:5248   */\n    tag_133:\n        /* \"#utility.yul\":5287:5288   */\n      0x00\n        /* \"#utility.yul\":5312:5365   */\n      tag_135\n        /* \"#utility.yul\":5357:5364   */\n      dup5\n        /* \"#utility.yul\":5348:5354   */\n      dup3\n        /* \"#utility.yul\":5337:5346   */\n      dup6\n        /* \"#utility.yul\":5333:5355   */\n      add\n        /* \"#utility.yul\":5312:5365   */\n      tag_55\n      jump\t// in\n    tag_135:\n        /* \"#utility.yul\":5302:5365   */\n      swap2\n      pop\n        /* \"#utility.yul\":5258:5375   */\n      pop\n        /* \"#utility.yul\":5053:5382   */\n      swap3\n      swap2\n      pop\n      pop\n      jump\t// out\n        /* \"#utility.yul\":5388:5568   */\n    tag_56:\n        /* \"#utility.yul\":5436:5513   */\n      0x4e487b7100000000000000000000000000000000000000000000000000000000\n        /* \"#utility.yul\":5433:5434   */\n      0x00\n        /* \"#utility.yul\":5426:5514   */\n      mstore\n        /* \"#utility.yul\":5533:5537   */\n      0x22\n        /* \"#utility.yul\":5530:5531   */\n      0x04\n        /* \"#utility.yul\":5523:5538   */\n      mstore\n        /* \"#utility.yul\":5557:5561   */\n      0x24\n        /* \"#utility.yul\":5554:5555   */\n      0x00\n        /* \"#utility.yul\":5547:5562   */\n      revert\n        /* \"#utility.yul\":5574:5894   */\n    tag_25:\n        /* \"#utility.yul\":5618:5624   */\n      0x00\n        /* \"#utility.yul\":5655:5656   */\n      0x02\n        /* \"#utility.yul\":5649:5653   */\n      dup3\n        /* \"#utility.yul\":5645:5657   */\n      div\n        /* \"#utility.yul\":5635:5657   */\n      swap1\n      pop\n        /* \"#utility.yul\":5702:5703   */\n      0x01\n        /* \"#utility.yul\":5696:5700   */\n      dup3\n        /* \"#utility.yul\":5692:5704   */\n      and\n        /* \"#utility.yul\":5723:5741   */\n      dup1\n        /* \"#utility.yul\":5713:5794   */\n      tag_138\n      jumpi\n        /* \"#utility.yul\":5779:5783   */\n      0x7f\n        /* \"#utility.yul\":5771:5777   */\n      dup3\n        /* \"#utility.yul\":5767:5784   */\n      and\n        /* \"#utility.yul\":5757:5784   */\n      swap2\n      pop\n        /* \"#utility.yul\":5713:5794   */\n    tag_138:\n        /* \"#utility.yul\":5841:5843   */\n      0x20\n        /* \"#utility.yul\":5833:5839   */\n      dup3\n        /* \"#utility.yul\":5830:5844   */\n      lt\n        /* \"#utility.yul\":5810:5828   */\n      dup2\n        /* \"#utility.yul\":5807:5845   */\n      sub\n        /* \"#utility.yul\":5804:5888   */\n      tag_139\n      jumpi\n        /* \"#utility.yul\":5860:5878   */\n      tag_140\n      tag_56\n      jump\t// in\n    tag_140:\n        /* \"#utility.yul\":5804:5888   */\n    tag_139:\n        /* \"#utility.yul\":5625:5894   */\n      pop\n        /* \"#utility.yul\":5574:5894   */\n      swap2\n      swap1\n      pop\n      jump\t// out\n        /* \"#utility.yul\":5900:6041   */\n    tag_57:\n        /* \"#utility.yul\":5949:5953   */\n      0x00\n        /* \"#utility.yul\":5972:5975   */\n      dup2\n        /* \"#utility.yul\":5964:5975   */\n      swap1\n      pop\n        /* \"#utility.yul\":5995:5998   */\n      dup2\n        /* \"#utility.yul\":5992:5993   */\n      0x00\n        /* \"#utility.yul\":5985:5999   */\n      mstore\n        /* \"#utility.yul\":6029:6033   */\n      0x20\n        /* \"#utility.yul\":6026:6027   */\n      0x00\n        /* \"#utility.yul\":6016:6034   */\n      keccak256\n        /* \"#utility.yul\":6008:6034   */\n      swap1\n      pop\n        /* \"#utility.yul\":5900:6041   */\n      swap2\n      swap1\n      pop\n      jump\t// out\n        /* \"#utility.yul\":6047:6140   */\n    tag_58:\n        /* \"#utility.yul\":6084:6090   */\n      0x00\n        /* \"#utility.yul\":6131:6133   */\n      0x20\n        /* \"#utility.yul\":6126:6128   */\n      0x1f\n        /* \"#utility.yul\":6119:6124   */\n      dup4\n        /* \"#utility.yul\":6115:6129   */\n      add\n        /* \"#utility.yul\":6111:6134   */\n      div\n        /* \"#utility.yul\":6101:6134   */\n      swap1\n      pop\n        /* \"#utility.yul\":6047:6140   */\n      swap2\n      swap1\n      pop\n      jump\t// out\n        /* \"#utility.yul\":6146:6253   */\n    tag_59:\n        /* \"#utility.yul\":6190:6198   */\n      0x00\n        /* \"#utility.yul\":6240:6245   */\n      dup3\n        /* \"#utility.yul\":6234:6238   */\n      dup3\n        /* \"#utility.yul\":6230:6246   */\n      shl\n        /* \"#utility.yul\":6209:6246   */\n      swap1\n      pop\n        /* \"#utility.yul\":6146:6253   */\n      swap3\n      swap2\n      pop\n      pop\n      jump\t// out\n        /* \"#utility.yul\":6259:6652   */\n    tag_60:\n        /* \"#utility.yul\":6328:6334   */\n      0x00\n        /* \"#utility.yul\":6378:6379   */\n      0x08\n        /* \"#utility.yul\":6366:6376   */\n      dup4\n        /* \"#utility.yul\":6362:6380   */\n      mul\n        /* \"#utility.yul\":6401:6498   */\n      tag_145\n        /* \"#utility.yul\":6431:6497   */\n      0xffffffffffffffffffffffffffffffffffffffffffffffffffffffffffffffff\n        /* \"#utility.yul\":6420:6429   */\n      dup3\n        /* \"#utility.yul\":6401:6498   */\n      tag_59\n      jump\t// in\n    tag_145:\n        /* \"#utility.yul\":6519:6558   */\n      tag_146\n        /* \"#utility.yul\":6549:6557   */\n      dup7\n        /* \"#utility.yul\":6538:6547   */\n      dup4\n        /* \"#utility.yul\":6519:6558   */\n      tag_59\n      jump\t// in\n    tag_146:\n        /* \"#utility.yul\":6507:6558   */\n      swap6\n      pop\n        /* \"#utility.yul\":6591:6595   */\n      dup1\n        /* \"#utility.yul\":6587:6596   */\n      not\n        /* \"#utility.yul\":6580:6585   */\n      dup5\n        /* \"#utility.yul\":6576:6597   */\n      and\n        /* \"#utility.yul\":6567:6597   */\n      swap4\n      pop\n        /* \"#utility.yul\":6640:6644   */\n      dup1\n        /* \"#utility.yul\":6630:6638   */\n      dup7\n        /* \"#utility.yul\":6626:6645   */\n      and\n        /* \"#utility.yul\":6619:6624   */\n      dup5\n        /* \"#utility.yul\":6616:6646   */\n      or\n        /* \"#utility.yul\":6606:6646   */\n      swap3\n      pop\n        /* \"#utility.yul\":6335:6652   */\n      pop\n      pop\n        /* \"#utility.yul\":6259:6652   */\n      swap4\n      swap3\n      pop\n      pop\n      pop\n      jump\t// out\n        /* \"#utility.yul\":6658:6718   */\n    tag_61:\n        /* \"#utility.yul\":6686:6689   */\n      0x00\n        /* \"#utility.yul\":6707:6712   */\n      dup2\n        /* \"#utility.yul\":6700:6712   */\n      swap1\n      pop\n        /* \"#utility.yul\":6658:6718   */\n      swap2\n      swap1\n      pop\n      jump\t// out\n        /* \"#utility.yul\":6724:6866   */\n    tag_62:\n        /* \"#utility.yul\":6774:6783   */\n      0x00\n        /* \"#utility.yul\":6807:6860   */\n      tag_149\n        /* \"#utility.yul\":6825:6859   */\n      tag_150\n        /* \"#utility.yul\":6834:6858   */\n      tag_151\n        /* \"#utility.yul\":6852:6857   */\n      dup5\n        /* \"#utility.yul\":6834:6858   */\n      tag_40\n      jump\t// in\n    tag_151:\n        /* \"#utility.yul\":6825:6859   */\n      tag_61\n      jump\t// in\n    tag_150:\n        /* \"#utility.yul\":6807:6860   */\n      tag_40\n      jump\t// in\n    tag_149:\n        /* \"#utility.yul\":6794:6860   */\n      swap1\n      pop\n        /* \"#utility.yul\":6724:6866   */\n      swap2\n      swap1\n      pop\n      jump\t// out\n        /* \"#utility.yul\":6872:6947   */\n    tag_63:\n        /* \"#utility.yul\":6915:6918   */\n      0x00\n        /* \"#utility.yul\":6936:6941   */\n      dup2\n        /* \"#utility.yul\":6929:6941   */\n      swap1\n      pop\n        /* \"#utility.yul\":6872:6947   */\n      swap2\n      swap1\n      pop\n      jump\t// out\n        /* \"#utility.yul\":6953:7222   */\n    tag_64:\n        /* \"#utility.yul\":7063:7102   */\n      tag_154\n        /* \"#utility.yul\":7094:7101   */\n      dup4\n        /* \"#utility.yul\":7063:7102   */\n      tag_62\n      jump\t// in\n    tag_154:\n        /* \"#utility.yul\":7124:7215   */\n      tag_155\n        /* \"#utility.yul\":7173:7214   */\n      tag_156\n        /* \"#utility.yul\":7197:7213   */\n      dup3\n        /* \"#utility.yul\":7173:7214   */\n      tag_63\n      jump\t// in\n    tag_156:\n        /* \"#utility.yul\":7165:7171   */\n      dup5\n        /* \"#utility.yul\":7158:7162   */\n      dup5\n        /* \"#utility.yul\":7152:7163   */\n      sload\n        /* \"#utility.yul\":7124:7215   */\n      tag_60\n      jump\t// in\n    tag_155:\n        /* \"#utility.yul\":7118:7122   */\n      dup3\n        /* \"#utility.yul\":7111:7216   */\n      sstore\n        /* \"#utility.yul\":7029:7222   */\n      pop\n        /* \"#utility.yul\":6953:7222   */\n      pop\n      pop\n      pop\n      jump\t// out\n        /* \"#utility.yul\":7228:7301   */\n    tag_65:\n        /* \"#utility.yul\":7273:7276   */\n      0x00\n        /* \"#utility.yul\":7228:7301   */\n      swap1\n      jump\t// out\n        /* \"#utility.yul\":7307:7496   */\n    tag_66:\n        /* \"#utility.yul\":7384:7416   */\n      tag_159\n      tag_65\n      jump\t// in\n    tag_159:\n        /* \"#utility.yul\":7425:7490   */\n      tag_160\n        /* \"#utility.yul\":7483:7489   */\n      dup2\n        /* \"#utility.yul\":7475:7481   */\n      dup5\n        /* \"#utility.yul\":7469:7473   */\n      dup5\n        /* \"#utility.yul\":7425:7490   */\n      tag_64\n      jump\t// in\n    tag_160:\n        /* \"#utility.yul\":7360:7496   */\n      pop\n        /* \"#utility.yul\":7307:7496   */\n      pop\n      pop\n      jump\t// out\n        /* \"#utility.yul\":7502:7688   */\n    tag_67:\n        /* \"#utility.yul\":7562:7682   */\n    tag_162:\n        /* \"#utility.yul\":7579:7582   */\n      dup2\n        /* \"#utility.yul\":7572:7577   */\n      dup2\n        /* \"#utility.yul\":7569:7583   */\n      lt\n        /* \"#utility.yul\":7562:7682   */\n      iszero\n      tag_164\n      jumpi\n        /* \"#utility.yul\":7633:7672   */\n      tag_165\n        /* \"#utility.yul\":7670:7671   */\n      0x00\n        /* \"#utility.yul\":7663:7668   */\n      dup3\n        /* \"#utility.yul\":7633:7672   */\n      tag_66\n      jump\t// in\n    tag_165:\n        /* \"#utility.yul\":7606:7607   */\n      0x01\n        /* \"#utility.yul\":7599:7604   */\n      dup2\n        /* \"#utility.yul\":7595:7608   */\n      add\n        /* \"#utility.yul\":7586:7608   */\n      swap1\n      pop\n        /* \"#utility.yul\":7562:7682   */\n      jump(tag_162)\n    tag_164:\n        /* \"#utility.yul\":7502:7688   */\n      pop\n      pop\n      jump\t// out\n        /* \"#utility.yul\":7694:8237   */\n    tag_68:\n        /* \"#utility.yul\":7795:7797   */\n      0x1f\n        /* \"#utility.yul\":7790:7793   */\n      dup3\n        /* \"#utility.yul\":7787:7798   */\n      gt\n        /* \"#utility.yul\":7784:8230   */\n      iszero\n      tag_167\n      jumpi\n        /* \"#utility.yul\":7829:7867   */\n      tag_168\n        /* \"#utility.yul\":7861:7866   */\n      dup2\n        /* \"#utility.yul\":7829:7867   */\n      tag_57\n      jump\t// in\n    tag_168:\n        /* \"#utility.yul\":7913:7942   */\n      tag_169\n        /* \"#utility.yul\":7931:7941   */\n      dup5\n        /* \"#utility.yul\":7913:7942   */\n      tag_58\n      jump\t// in\n    tag_169:\n        /* \"#utility.yul\":7903:7911   */\n      dup2\n        /* \"#utility.yul\":7899:7943   */\n      add\n        /* \"#utility.yul\":8096:8098   */\n      0x20\n        /* \"#utility.yul\":8084:8094   */\n      dup6\n        /* \"#utility.yul\":8081:8099   */\n      lt\n        /* \"#utility.yul\":8078:8127   */\n      iszero\n      tag_170\n      jumpi\n        /* \"#utility.yul\":8117:8125   */\n      dup2\n        /* \"#utility.yul\":8102:8125   */\n      swap1\n      pop\n        /* \"#utility.yul\":8078:8127   */\n    tag_170:\n        /* \"#utility.yul\":8140:8220   */\n      tag_171\n        /* \"#utility.yul\":8196:8218   */\n      tag_172\n        /* \"#utility.yul\":8214:8217   */\n      dup6\n        /* \"#utility.yul\":8196:8218   */\n      tag_58\n      jump\t// in\n    tag_172:\n        /* \"#utility.yul\":8186:8194   */\n      dup4\n        /* \"#utility.yul\":8182:8219   */\n      add\n        /* \"#utility.yul\":8169:8180   */\n      dup3\n        /* \"#utility.yul\":8140:8220   */\n      tag_67\n      jump\t// in\n    tag_171:\n        /* \"#utility.yul\":7799:8230   */\n      pop\n      pop\n        /* \"#utility.yul\":7784:8230   */\n    tag_167:\n        /* \"#utility.yul\":7694:8237   */\n      pop\n      pop\n      pop\n      jump\t// out\n        /* \"#utility.yul\":8243:8360   */\n    tag_69:\n        /* \"#utility.yul\":8297:8305   */\n      0x00\n        /* \"#utility.yul\":8347:8352   */\n      dup3\n        /* \"#utility.yul\":8341:8345   */\n      dup3\n        /* \"#utility.yul\":8337:8353   */\n      shr\n        /* \"#utility.yul\":8316:8353   */\n      swap1\n      pop\n        /* \"#utility.yul\":8243:8360   */\n      swap3\n      swap2\n      pop\n      pop\n      jump\t// out\n        /* \"#utility.yul\":8366:8535   */\n    tag_70:\n        /* \"#utility.yul\":8410:8416   */\n      0x00\n        /* \"#utility.yul\":8443:8494   */\n      tag_175\n        /* \"#utility.yul\":8491:8492   */\n      0x00\n        /* \"#utility.yul\":8487:8493   */\n      not\n        /* \"#utility.yul\":8479:8484   */\n      dup5\n        /* \"#utility.yul\":8476:8477   */\n      0x08\n        /* \"#utility.yul\":8472:8485   */\n      mul\n        /* \"#utility.yul\":8443:8494   */\n      tag_69\n      jump\t// in\n    tag_175:\n        /* \"#utility.yul\":8439:8495   */\n      not\n        /* \"#utility.yul\":8524:8528   */\n      dup1\n        /* \"#utility.yul\":8518:8522   */\n      dup4\n        /* \"#utility.yul\":8514:8529   */\n      and\n        /* \"#utility.yul\":8504:8529   */\n      swap2\n      pop\n        /* \"#utility.yul\":8417:8535   */\n      pop\n        /* \"#utility.yul\":8366:8535   */\n      swap3\n      swap2\n      pop\n      pop\n      jump\t// out\n        /* \"#utility.yul\":8540:8835   */\n    tag_71:\n        /* \"#utility.yul\":8616:8620   */\n      0x00\n        /* \"#utility.yul\":8762:8791   */\n      tag_177\n        /* \"#utility.yul\":8787:8790   */\n      dup4\n        /* \"#utility.yul\":8781:8785   */\n      dup4\n        /* \"#utility.yul\":8762:8791   */\n      tag_70\n      jump\t// in\n    tag_177:\n        /* \"#utility.yul\":8754:8791   */\n      swap2\n      pop\n        /* \"#utility.yul\":8824:8827   */\n      dup3\n        /* \"#utility.yul\":8821:8822   */\n      0x02\n        /* \"#utility.yul\":8817:8828   */\n      mul\n        /* \"#utility.yul\":8811:8815   */\n      dup3\n        /* \"#utility.yul\":8808:8829   */\n      or\n        /* \"#utility.yul\":8800:8829   */\n      swap1\n      pop\n        /* \"#utility.yul\":8540:8835   */\n      swap3\n      swap2\n      pop\n      pop\n      jump\t// out\n        /* \"#utility.yul\":8840:10235   */\n    tag_33:\n        /* \"#utility.yul\":8957:8994   */\n      tag_179\n        /* \"#utility.yul\":8990:8993   */\n      dup3\n        /* \"#utility.yul\":8957:8994   */\n      tag_35\n      jump\t// in\n    tag_179:\n        /* \"#utility.yul\":9059:9077   */\n      0xffffffffffffffff\n        /* \"#utility.yul\":9051:9057   */\n      dup2\n        /* \"#utility.yul\":9048:9078   */\n      gt\n        /* \"#utility.yul\":9045:9101   */\n      iszero\n      tag_180\n      jumpi\n        /* \"#utility.yul\":9081:9099   */\n      tag_181\n      tag_47\n      jump\t// in\n    tag_181:\n        /* \"#utility.yul\":9045:9101   */\n    tag_180:\n        /* \"#utility.yul\":9125:9163   */\n      tag_182\n        /* \"#utility.yul\":9157:9161   */\n      dup3\n        /* \"#utility.yul\":9151:9162   */\n      sload\n        /* \"#utility.yul\":9125:9163   */\n      tag_25\n      jump\t// in\n    tag_182:\n        /* \"#utility.yul\":9210:9277   */\n      tag_183\n        /* \"#utility.yul\":9270:9276   */\n      dup3\n        /* \"#utility.yul\":9262:9268   */\n      dup3\n        /* \"#utility.yul\":9256:9260   */\n      dup6\n        /* \"#utility.yul\":9210:9277   */\n      tag_68\n      jump\t// in\n    tag_183:\n        /* \"#utility.yul\":9304:9305   */\n      0x00\n        /* \"#utility.yul\":9328:9332   */\n      0x20\n        /* \"#utility.yul\":9315:9332   */\n      swap1\n      pop\n        /* \"#utility.yul\":9360:9362   */\n      0x1f\n        /* \"#utility.yul\":9352:9358   */\n      dup4\n        /* \"#utility.yul\":9349:9363   */\n      gt\n        /* \"#utility.yul\":9377:9378   */\n      0x01\n        /* \"#utility.yul\":9372:9990   */\n      dup2\n      eq\n      tag_185\n      jumpi\n        /* \"#utility.yul\":10034:10035   */\n      0x00\n        /* \"#utility.yul\":10051:10057   */\n      dup5\n        /* \"#utility.yul\":10048:10125   */\n      iszero\n      tag_186\n      jumpi\n        /* \"#utility.yul\":10100:10109   */\n      dup3\n        /* \"#utility.yul\":10095:10098   */\n      dup8\n        /* \"#utility.yul\":10091:10110   */\n      add\n        /* \"#utility.yul\":10085:10111   */\n      mload\n        /* \"#utility.yul\":10076:10111   */\n      swap1\n      pop\n        /* \"#utility.yul\":10048:10125   */\n    tag_186:\n        /* \"#utility.yul\":10151:10218   */\n      tag_187\n        /* \"#utility.yul\":10211:10217   */\n      dup6\n        /* \"#utility.yul\":10204:10209   */\n      dup3\n        /* \"#utility.yul\":10151:10218   */\n      tag_71\n      jump\t// in\n    tag_187:\n        /* \"#utility.yul\":10145:10149   */\n      dup7\n        /* \"#utility.yul\":10138:10219   */\n      sstore\n        /* \"#utility.yul\":10007:10229   */\n      pop\n        /* \"#utility.yul\":9342:10229   */\n      jump(tag_184)\n        /* \"#utility.yul\":9372:9990   */\n    tag_185:\n        /* \"#utility.yul\":9424:9428   */\n      0x1f\n        /* \"#utility.yul\":9420:9429   */\n      not\n        /* \"#utility.yul\":9412:9418   */\n      dup5\n        /* \"#utility.yul\":9408:9430   */\n      and\n        /* \"#utility.yul\":9458:9495   */\n      tag_188\n        /* \"#utility.yul\":9490:9494   */\n      dup7\n        /* \"#utility.yul\":9458:9495   */\n      tag_57\n      jump\t// in\n    tag_188:\n        /* \"#utility.yul\":9517:9518   */\n      0x00\n        /* \"#utility.yul\":9531:9739   */\n    tag_189:\n        /* \"#utility.yul\":9545:9552   */\n      dup3\n        /* \"#utility.yul\":9542:9543   */\n      dup2\n        /* \"#utility.yul\":9539:9553   */\n      lt\n        /* \"#utility.yul\":9531:9739   */\n      iszero\n      tag_191\n      jumpi\n        /* \"#utility.yul\":9624:9633   */\n      dup5\n        /* \"#utility.yul\":9619:9622   */\n      dup10\n        /* \"#utility.yul\":9615:9634   */\n      add\n        /* \"#utility.yul\":9609:9635   */\n      mload\n        /* \"#utility.yul\":9601:9607   */\n      dup3\n        /* \"#utility.yul\":9594:9636   */\n      sstore\n        /* \"#utility.yul\":9675:9676   */\n      0x01\n        /* \"#utility.yul\":9667:9673   */\n      dup3\n        /* \"#utility.yul\":9663:9677   */\n      add\n        /* \"#utility.yul\":9653:9677   */\n      swap2\n      pop\n        /* \"#utility.yul\":9722:9724   */\n      0x20\n        /* \"#utility.yul\":9711:9720   */\n      dup6\n        /* \"#utility.yul\":9707:9725   */\n      add\n        /* \"#utility.yul\":9694:9725   */\n      swap5\n      pop\n        /* \"#utility.yul\":9568:9572   */\n      0x20\n        /* \"#utility.yul\":9565:9566   */\n      dup2\n        /* \"#utility.yul\":9561:9573   */\n      add\n        /* \"#utility.yul\":9556:9573   */\n      swap1\n      pop\n        /* \"#utility.yul\":9531:9739   */\n      jump(tag_189)\n    tag_191:\n        /* \"#utility.yul\":9767:9773   */\n      dup7\n        /* \"#utility.yul\":9758:9765   */\n      dup4\n        /* \"#utility.yul\":9755:9774   */\n      lt\n        /* \"#utility.yul\":9752:9931   */\n      iszero\n      tag_192\n      jumpi\n        /* \"#utility.yul\":9825:9834   */\n      dup5\n        /* \"#utility.yul\":9820:9823   */\n      dup10\n        /* \"#utility.yul\":9816:9835   */\n      add\n        /* \"#utility.yul\":9810:9836   */\n      mload\n        /* \"#utility.yul\":9868:9916   */\n      tag_193\n        /* \"#utility.yul\":9910:9914   */\n      0x1f\n        /* \"#utility.yul\":9902:9908   */\n      dup10\n        /* \"#utility.yul\":9898:9915   */\n      and\n        /* \"#utility.yul\":9887:9896   */\n      dup3\n        /* \"#utility.yul\":9868:9916   */\n      tag_70\n      jump\t// in\n    tag_193:\n        /* \"#utility.yul\":9860:9866   */\n      dup4\n        /* \"#utility.yul\":9853:9917   */\n      sstore\n        /* \"#utility.yul\":9775:9931   */\n      pop\n        /* \"#utility.yul\":9752:9931   */\n    tag_192:\n        /* \"#utility.yul\":9977:9978   */\n      0x01\n        /* \"#utility.yul\":9973:9974   */\n      0x02\n        /* \"#utility.yul\":9965:9971   */\n      dup9\n        /* \"#utility.yul\":9961:9975   */\n      mul\n        /* \"#utility.yul\":9957:9979   */\n      add\n        /* \"#utility.yul\":9951:9955   */\n      dup9\n        /* \"#utility.yul\":9944:9980   */\n      sstore\n        /* \"#utility.yul\":9379:9990   */\n      pop\n      pop\n      pop\n        /* \"#utility.yul\":9342:10229   */\n    tag_184:\n      pop\n        /* \"#utility.yul\":8932:10235   */\n      pop\n      pop\n      pop\n        /* \"#utility.yul\":8840:10235   */\n      pop\n      pop\n      jump\t// out\n\n    auxdata: 0xa264697066735822122082c5c627eab69d26fc35836337707d6d9de1c66043a778430145553c6fcef3f864736f6c634300080f0033\n}\n",
				"bytecode": {
					"linkReferences": {},
					"object": "608060405234801561001057600080fd5b5061076c806100206000396000f3fe608060405234801561001057600080fd5b506004361061004c5760003560e01c806317d7de7c14610051578063b780e5071461006f578063c47f00271461008d578063f2ceb262146100a9575b600080fd5b6100596100c5565b6040516100669190610217565b60405180910390f35b610077610157565b6040516100849190610252565b60405180910390f35b6100a760048036038101906100a291906103b6565b610161565b005b6100c360048036038101906100be919061042b565b610174565b005b6060600080546100d490610487565b80601f016020809104026020016040519081016040528092919081815260200182805461010090610487565b801561014d5780601f106101225761010080835404028352916020019161014d565b820191906000526020600020905b81548152906001019060200180831161013057829003601f168201915b5050505050905090565b6000600154905090565b80600090816101709190610664565b5050565b8060018190555050565b600081519050919050565b600082825260208201905092915050565b60005b838110156101b857808201518184015260208101905061019d565b838111156101c7576000848401525b50505050565b6000601f19601f8301169050919050565b60006101e98261017e565b6101f38185610189565b935061020381856020860161019a565b61020c816101cd565b840191505092915050565b6000602082019050818103600083015261023181846101de565b905092915050565b6000819050919050565b61024c81610239565b82525050565b60006020820190506102676000830184610243565b92915050565b6000604051905090565b600080fd5b600080fd5b600080fd5b600080fd5b7f4e487b7100000000000000000000000000000000000000000000000000000000600052604160045260246000fd5b6102c3826101cd565b810181811067ffffffffffffffff821117156102e2576102e161028b565b5b80604052505050565b60006102f561026d565b905061030182826102ba565b919050565b600067ffffffffffffffff8211156103215761032061028b565b5b61032a826101cd565b9050602081019050919050565b82818337600083830152505050565b600061035961035484610306565b6102eb565b90508281526020810184848401111561037557610374610286565b5b610380848285610337565b509392505050565b600082601f83011261039d5761039c610281565b5b81356103ad848260208601610346565b91505092915050565b6000602082840312156103cc576103cb610277565b5b600082013567ffffffffffffffff8111156103ea576103e961027c565b5b6103f684828501610388565b91505092915050565b61040881610239565b811461041357600080fd5b50565b600081359050610425816103ff565b92915050565b60006020828403121561044157610440610277565b5b600061044f84828501610416565b91505092915050565b7f4e487b7100000000000000000000000000000000000000000000000000000000600052602260045260246000fd5b6000600282049050600182168061049f57607f821691505b6020821081036104b2576104b1610458565b5b50919050565b60008190508160005260206000209050919050565b60006020601f8301049050919050565b600082821b905092915050565b60006008830261051a7fffffffffffffffffffffffffffffffffffffffffffffffffffffffffffffffff826104dd565b61052486836104dd565b95508019841693508086168417925050509392505050565b6000819050919050565b600061056161055c61055784610239565b61053c565b610239565b9050919050565b6000819050919050565b61057b83610546565b61058f61058782610568565b8484546104ea565b825550505050565b600090565b6105a4610597565b6105af818484610572565b505050565b5b818110156105d3576105c860008261059c565b6001810190506105b5565b5050565b601f821115610618576105e9816104b8565b6105f2846104cd565b81016020851015610601578190505b61061561060d856104cd565b8301826105b4565b50505b505050565b600082821c905092915050565b600061063b6000198460080261061d565b1980831691505092915050565b6000610654838361062a565b9150826002028217905092915050565b61066d8261017e565b67ffffffffffffffff8111156106865761068561028b565b5b6106908254610487565b61069b8282856105d7565b600060209050601f8311600181146106ce57600084156106bc578287015190505b6106c68582610648565b86555061072e565b601f1984166106dc866104b8565b60005b82811015610704578489015182556001820191506020850194506020810190506106df565b86831015610721578489015161071d601f89168261062a565b8355505b6001600288020188555050505b50505050505056fea264697066735822122082c5c627eab69d26fc35836337707d6d9de1c66043a778430145553c6fcef3f864736f6c634300080f0033",
					"opcodes": "PUSH1 0x80 PUSH1 0x40 MSTORE CALLVALUE DUP1 ISZERO PUSH2 0x10 JUMPI PUSH1 0x0 DUP1 REVERT JUMPDEST POP PUSH2 0x76C DUP1 PUSH2 0x20 PUSH1 0x0 CODECOPY PUSH1 0x0 RETURN INVALID PUSH1 0x80 PUSH1 0x40 MSTORE CALLVALUE DUP1 ISZERO PUSH2 0x10 JUMPI PUSH1 0x0 DUP1 REVERT JUMPDEST POP PUSH1 0x4 CALLDATASIZE LT PUSH2 0x4C JUMPI PUSH1 0x0 CALLDATALOAD PUSH1 0xE0 SHR DUP1 PUSH4 0x17D7DE7C EQ PUSH2 0x51 JUMPI DUP1 PUSH4 0xB780E507 EQ PUSH2 0x6F JUMPI DUP1 PUSH4 0xC47F0027 EQ PUSH2 0x8D JUMPI DUP1 PUSH4 0xF2CEB262 EQ PUSH2 0xA9 JUMPI JUMPDEST PUSH1 0x0 DUP1 REVERT JUMPDEST PUSH2 0x59 PUSH2 0xC5 JUMP JUMPDEST PUSH1 0x40 MLOAD PUSH2 0x66 SWAP2 SWAP1 PUSH2 0x217 JUMP JUMPDEST PUSH1 0x40 MLOAD DUP1 SWAP2 SUB SWAP1 RETURN JUMPDEST PUSH2 0x77 PUSH2 0x157 JUMP JUMPDEST PUSH1 0x40 MLOAD PUSH2 0x84 SWAP2 SWAP1 PUSH2 0x252 JUMP JUMPDEST PUSH1 0x40 MLOAD DUP1 SWAP2 SUB SWAP1 RETURN JUMPDEST PUSH2 0xA7 PUSH1 0x4 DUP1 CALLDATASIZE SUB DUP2 ADD SWAP1 PUSH2 0xA2 SWAP2 SWAP1 PUSH2 0x3B6 JUMP JUMPDEST PUSH2 0x161 JUMP JUMPDEST STOP JUMPDEST PUSH2 0xC3 PUSH1 0x4 DUP1 CALLDATASIZE SUB DUP2 ADD SWAP1 PUSH2 0xBE SWAP2 SWAP1 PUSH2 0x42B JUMP JUMPDEST PUSH2 0x174 JUMP JUMPDEST STOP JUMPDEST PUSH1 0x60 PUSH1 0x0 DUP1 SLOAD PUSH2 0xD4 SWAP1 PUSH2 0x487 JUMP JUMPDEST DUP1 PUSH1 0x1F ADD PUSH1 0x20 DUP1 SWAP2 DIV MUL PUSH1 0x20 ADD PUSH1 0x40 MLOAD SWAP1 DUP2 ADD PUSH1 0x40 MSTORE DUP1 SWAP3 SWAP2 SWAP1 DUP2 DUP2 MSTORE PUSH1 0x20 ADD DUP3 DUP1 SLOAD PUSH2 0x100 SWAP1 PUSH2 0x487 JUMP JUMPDEST DUP1 ISZERO PUSH2 0x14D JUMPI DUP1 PUSH1 0x1F LT PUSH2 0x122 JUMPI PUSH2 0x100 DUP1 DUP4 SLOAD DIV MUL DUP4 MSTORE SWAP2 PUSH1 0x20 ADD SWAP2 PUSH2 0x14D JUMP JUMPDEST DUP3 ADD SWAP2 SWAP1 PUSH1 0x0 MSTORE PUSH1 0x20 PUSH1 0x0 KECCAK256 SWAP1 JUMPDEST DUP2 SLOAD DUP2 MSTORE SWAP1 PUSH1 0x1 ADD SWAP1 PUSH1 0x20 ADD DUP1 DUP4 GT PUSH2 0x130 JUMPI DUP3 SWAP1 SUB PUSH1 0x1F AND DUP3 ADD SWAP2 JUMPDEST POP POP POP POP POP SWAP1 POP SWAP1 JUMP JUMPDEST PUSH1 0x0 PUSH1 0x1 SLOAD SWAP1 POP SWAP1 JUMP JUMPDEST DUP1 PUSH1 0x0 SWAP1 DUP2 PUSH2 0x170 SWAP2 SWAP1 PUSH2 0x664 JUMP JUMPDEST POP POP JUMP JUMPDEST DUP1 PUSH1 0x1 DUP2 SWAP1 SSTORE POP POP JUMP JUMPDEST PUSH1 0x0 DUP2 MLOAD SWAP1 POP SWAP2 SWAP1 POP JUMP JUMPDEST PUSH1 0x0 DUP3 DUP3 MSTORE PUSH1 0x20 DUP3 ADD SWAP1 POP SWAP3 SWAP2 POP POP JUMP JUMPDEST PUSH1 0x0 JUMPDEST DUP4 DUP2 LT ISZERO PUSH2 0x1B8 JUMPI DUP1 DUP3 ADD MLOAD DUP2 DUP5 ADD MSTORE PUSH1 0x20 DUP2 ADD SWAP1 POP PUSH2 0x19D JUMP JUMPDEST DUP4 DUP2 GT ISZERO PUSH2 0x1C7 JUMPI PUSH1 0x0 DUP5 DUP5 ADD MSTORE JUMPDEST POP POP POP POP JUMP JUMPDEST PUSH1 0x0 PUSH1 0x1F NOT PUSH1 0x1F DUP4 ADD AND SWAP1 POP SWAP2 SWAP1 POP JUMP JUMPDEST PUSH1 0x0 PUSH2 0x1E9 DUP3 PUSH2 0x17E JUMP JUMPDEST PUSH2 0x1F3 DUP2 DUP6 PUSH2 0x189 JUMP JUMPDEST SWAP4 POP PUSH2 0x203 DUP2 DUP6 PUSH1 0x20 DUP7 ADD PUSH2 0x19A JUMP JUMPDEST PUSH2 0x20C DUP2 PUSH2 0x1CD JUMP JUMPDEST DUP5 ADD SWAP2 POP POP SWAP3 SWAP2 POP POP JUMP JUMPDEST PUSH1 0x0 PUSH1 0x20 DUP3 ADD SWAP1 POP DUP2 DUP2 SUB PUSH1 0x0 DUP4 ADD MSTORE PUSH2 0x231 DUP2 DUP5 PUSH2 0x1DE JUMP JUMPDEST SWAP1 POP SWAP3 SWAP2 POP POP JUMP JUMPDEST PUSH1 0x0 DUP2 SWAP1 POP SWAP2 SWAP1 POP JUMP JUMPDEST PUSH2 0x24C DUP2 PUSH2 0x239 JUMP JUMPDEST DUP3 MSTORE POP POP JUMP JUMPDEST PUSH1 0x0 PUSH1 0x20 DUP3 ADD SWAP1 POP PUSH2 0x267 PUSH1 0x0 DUP4 ADD DUP5 PUSH2 0x243 JUMP JUMPDEST SWAP3 SWAP2 POP POP JUMP JUMPDEST PUSH1 0x0 PUSH1 0x40 MLOAD SWAP1 POP SWAP1 JUMP JUMPDEST PUSH1 0x0 DUP1 REVERT JUMPDEST PUSH1 0x0 DUP1 REVERT JUMPDEST PUSH1 0x0 DUP1 REVERT JUMPDEST PUSH1 0x0 DUP1 REVERT JUMPDEST PUSH32 0x4E487B7100000000000000000000000000000000000000000000000000000000 PUSH1 0x0 MSTORE PUSH1 0x41 PUSH1 0x4 MSTORE PUSH1 0x24 PUSH1 0x0 REVERT JUMPDEST PUSH2 0x2C3 DUP3 PUSH2 0x1CD JUMP JUMPDEST DUP2 ADD DUP2 DUP2 LT PUSH8 0xFFFFFFFFFFFFFFFF DUP3 GT OR ISZERO PUSH2 0x2E2 JUMPI PUSH2 0x2E1 PUSH2 0x28B JUMP JUMPDEST JUMPDEST DUP1 PUSH1 0x40 MSTORE POP POP POP JUMP JUMPDEST PUSH1 0x0 PUSH2 0x2F5 PUSH2 0x26D JUMP JUMPDEST SWAP1 POP PUSH2 0x301 DUP3 DUP3 PUSH2 0x2BA JUMP JUMPDEST SWAP2 SWAP1 POP JUMP JUMPDEST PUSH1 0x0 PUSH8 0xFFFFFFFFFFFFFFFF DUP3 GT ISZERO PUSH2 0x321 JUMPI PUSH2 0x320 PUSH2 0x28B JUMP JUMPDEST JUMPDEST PUSH2 0x32A DUP3 PUSH2 0x1CD JUMP JUMPDEST SWAP1 POP PUSH1 0x20 DUP2 ADD SWAP1 POP SWAP2 SWAP1 POP JUMP JUMPDEST DUP3 DUP2 DUP4 CALLDATACOPY PUSH1 0x0 DUP4 DUP4 ADD MSTORE POP POP POP JUMP JUMPDEST PUSH1 0x0 PUSH2 0x359 PUSH2 0x354 DUP5 PUSH2 0x306 JUMP JUMPDEST PUSH2 0x2EB JUMP JUMPDEST SWAP1 POP DUP3 DUP2 MSTORE PUSH1 0x20 DUP2 ADD DUP5 DUP5 DUP5 ADD GT ISZERO PUSH2 0x375 JUMPI PUSH2 0x374 PUSH2 0x286 JUMP JUMPDEST JUMPDEST PUSH2 0x380 DUP5 DUP3 DUP6 PUSH2 0x337 JUMP JUMPDEST POP SWAP4 SWAP3 POP POP POP JUMP JUMPDEST PUSH1 0x0 DUP3 PUSH1 0x1F DUP4 ADD SLT PUSH2 0x39D JUMPI PUSH2 0x39C PUSH2 0x281 JUMP JUMPDEST JUMPDEST DUP2 CALLDATALOAD PUSH2 0x3AD DUP5 DUP3 PUSH1 0x20 DUP7 ADD PUSH2 0x346 JUMP JUMPDEST SWAP2 POP POP SWAP3 SWAP2 POP POP JUMP JUMPDEST PUSH1 0x0 PUSH1 0x20 DUP3 DUP5 SUB SLT ISZERO PUSH2 0x3CC JUMPI PUSH2 0x3CB PUSH2 0x277 JUMP JUMPDEST JUMPDEST PUSH1 0x0 DUP3 ADD CALLDATALOAD PUSH8 0xFFFFFFFFFFFFFFFF DUP2 GT ISZERO PUSH2 0x3EA JUMPI PUSH2 0x3E9 PUSH2 0x27C JUMP JUMPDEST JUMPDEST PUSH2 0x3F6 DUP5 DUP3 DUP6 ADD PUSH2 0x388 JUMP JUMPDEST SWAP2 POP POP SWAP3 SWAP2 POP POP JUMP JUMPDEST PUSH2 0x408 DUP2 PUSH2 0x239 JUMP JUMPDEST DUP2 EQ PUSH2 0x413 JUMPI PUSH1 0x0 DUP1 REVERT JUMPDEST POP JUMP JUMPDEST PUSH1 0x0 DUP2 CALLDATALOAD SWAP1 POP PUSH2 0x425 DUP2 PUSH2 0x3FF JUMP JUMPDEST SWAP3 SWAP2 POP POP JUMP JUMPDEST PUSH1 0x0 PUSH1 0x20 DUP3 DUP5 SUB SLT ISZERO PUSH2 0x441 JUMPI PUSH2 0x440 PUSH2 0x277 JUMP JUMPDEST JUMPDEST PUSH1 0x0 PUSH2 0x44F DUP5 DUP3 DUP6 ADD PUSH2 0x416 JUMP JUMPDEST SWAP2 POP POP SWAP3 SWAP2 POP POP JUMP JUMPDEST PUSH32 0x4E487B7100000000000000000000000000000000000000000000000000000000 PUSH1 0x0 MSTORE PUSH1 0x22 PUSH1 0x4 MSTORE PUSH1 0x24 PUSH1 0x0 REVERT JUMPDEST PUSH1 0x0 PUSH1 0x2 DUP3 DIV SWAP1 POP PUSH1 0x1 DUP3 AND DUP1 PUSH2 0x49F JUMPI PUSH1 0x7F DUP3 AND SWAP2 POP JUMPDEST PUSH1 0x20 DUP3 LT DUP2 SUB PUSH2 0x4B2 JUMPI PUSH2 0x4B1 PUSH2 0x458 JUMP JUMPDEST JUMPDEST POP SWAP2 SWAP1 POP JUMP JUMPDEST PUSH1 0x0 DUP2 SWAP1 POP DUP2 PUSH1 0x0 MSTORE PUSH1 0x20 PUSH1 0x0 KECCAK256 SWAP1 POP SWAP2 SWAP1 POP JUMP JUMPDEST PUSH1 0x0 PUSH1 0x20 PUSH1 0x1F DUP4 ADD DIV SWAP1 POP SWAP2 SWAP1 POP JUMP JUMPDEST PUSH1 0x0 DUP3 DUP3 SHL SWAP1 POP SWAP3 SWAP2 POP POP JUMP JUMPDEST PUSH1 0x0 PUSH1 0x8 DUP4 MUL PUSH2 0x51A PUSH32 0xFFFFFFFFFFFFFFFFFFFFFFFFFFFFFFFFFFFFFFFFFFFFFFFFFFFFFFFFFFFFFFFF DUP3 PUSH2 0x4DD JUMP JUMPDEST PUSH2 0x524 DUP7 DUP4 PUSH2 0x4DD JUMP JUMPDEST SWAP6 POP DUP1 NOT DUP5 AND SWAP4 POP DUP1 DUP7 AND DUP5 OR SWAP3 POP POP POP SWAP4 SWAP3 POP POP POP JUMP JUMPDEST PUSH1 0x0 DUP2 SWAP1 POP SWAP2 SWAP1 POP JUMP JUMPDEST PUSH1 0x0 PUSH2 0x561 PUSH2 0x55C PUSH2 0x557 DUP5 PUSH2 0x239 JUMP JUMPDEST PUSH2 0x53C JUMP JUMPDEST PUSH2 0x239 JUMP JUMPDEST SWAP1 POP SWAP2 SWAP1 POP JUMP JUMPDEST PUSH1 0x0 DUP2 SWAP1 POP SWAP2 SWAP1 POP JUMP JUMPDEST PUSH2 0x57B DUP4 PUSH2 0x546 JUMP JUMPDEST PUSH2 0x58F PUSH2 0x587 DUP3 PUSH2 0x568 JUMP JUMPDEST DUP5 DUP5 SLOAD PUSH2 0x4EA JUMP JUMPDEST DUP3 SSTORE POP POP POP POP JUMP JUMPDEST PUSH1 0x0 SWAP1 JUMP JUMPDEST PUSH2 0x5A4 PUSH2 0x597 JUMP JUMPDEST PUSH2 0x5AF DUP2 DUP5 DUP5 PUSH2 0x572 JUMP JUMPDEST POP POP POP JUMP JUMPDEST JUMPDEST DUP2 DUP2 LT ISZERO PUSH2 0x5D3 JUMPI PUSH2 0x5C8 PUSH1 0x0 DUP3 PUSH2 0x59C JUMP JUMPDEST PUSH1 0x1 DUP2 ADD SWAP1 POP PUSH2 0x5B5 JUMP JUMPDEST POP POP JUMP JUMPDEST PUSH1 0x1F DUP3 GT ISZERO PUSH2 0x618 JUMPI PUSH2 0x5E9 DUP2 PUSH2 0x4B8 JUMP JUMPDEST PUSH2 0x5F2 DUP5 PUSH2 0x4CD JUMP JUMPDEST DUP2 ADD PUSH1 0x20 DUP6 LT ISZERO PUSH2 0x601 JUMPI DUP2 SWAP1 POP JUMPDEST PUSH2 0x615 PUSH2 0x60D DUP6 PUSH2 0x4CD JUMP JUMPDEST DUP4 ADD DUP3 PUSH2 0x5B4 JUMP JUMPDEST POP POP JUMPDEST POP POP POP JUMP JUMPDEST PUSH1 0x0 DUP3 DUP3 SHR SWAP1 POP SWAP3 SWAP2 POP POP JUMP JUMPDEST PUSH1 0x0 PUSH2 0x63B PUSH1 0x0 NOT DUP5 PUSH1 0x8 MUL PUSH2 0x61D JUMP JUMPDEST NOT DUP1 DUP4 AND SWAP2 POP POP SWAP3 SWAP2 POP POP JUMP JUMPDEST PUSH1 0x0 PUSH2 0x654 DUP4 DUP4 PUSH2 0x62A JUMP JUMPDEST SWAP2 POP DUP3 PUSH1 0x2 MUL DUP3 OR SWAP1 POP SWAP3 SWAP2 POP POP JUMP JUMPDEST PUSH2 0x66D DUP3 PUSH2 0x17E JUMP JUMPDEST PUSH8 0xFFFFFFFFFFFFFFFF DUP2 GT ISZERO PUSH2 0x686 JUMPI PUSH2 0x685 PUSH2 0x28B JUMP JUMPDEST JUMPDEST PUSH2 0x690 DUP3 SLOAD PUSH2 0x487 JUMP JUMPDEST PUSH2 0x69B DUP3 DUP3 DUP6 PUSH2 0x5D7 JUMP JUMPDEST PUSH1 0x0 PUSH1 0x20 SWAP1 POP PUSH1 0x1F DUP4 GT PUSH1 0x1 DUP2 EQ PUSH2 0x6CE JUMPI PUSH1 0x0 DUP5 ISZERO PUSH2 0x6BC JUMPI DUP3 DUP8 ADD MLOAD SWAP1 POP JUMPDEST PUSH2 0x6C6 DUP6 DUP3 PUSH2 0x648 JUMP JUMPDEST DUP7 SSTORE POP PUSH2 0x72E JUMP JUMPDEST PUSH1 0x1F NOT DUP5 AND PUSH2 0x6DC DUP7 PUSH2 0x4B8 JUMP JUMPDEST PUSH1 0x0 JUMPDEST DUP3 DUP2 LT ISZERO PUSH2 0x704 JUMPI DUP5 DUP10 ADD MLOAD DUP3 SSTORE PUSH1 0x1 DUP3 ADD SWAP2 POP PUSH1 0x20 DUP6 ADD SWAP5 POP PUSH1 0x20 DUP2 ADD SWAP1 POP PUSH2 0x6DF JUMP JUMPDEST DUP7 DUP4 LT ISZERO PUSH2 0x721 JUMPI DUP5 DUP10 ADD MLOAD PUSH2 0x71D PUSH1 0x1F DUP10 AND DUP3 PUSH2 0x62A JUMP JUMPDEST DUP4 SSTORE POP JUMPDEST PUSH1 0x1 PUSH1 0x2 DUP9 MUL ADD DUP9 SSTORE POP POP POP JUMPDEST POP POP POP POP POP POP JUMP INVALID LOG2 PUSH5 0x6970667358 0x22 SLT KECCAK256 DUP3 0xC5 0xC6 0x27 0xEA 0xB6 SWAP14 0x26 0xFC CALLDATALOAD DUP4 PUSH4 0x37707D6D SWAP14 0xE1 0xC6 PUSH1 0x43 0xA7 PUSH25 0x430145553C6FCEF3F864736F6C634300080F00330000000000 "
				},
				"gasEstimates": {
					"creation": {
						"codeDepositCost": "380000",
						"executionCost": "418",
						"totalCost": "380418"
					},
					"external": {
						"getMarks()": "2437",
						"getName()": "infinite",
						"setMarks(uint256)": "22564",
						"setName(string)": "infinite"
					}
				},
				"methodIdentifiers": {
					"getMarks()": "b780e507",
					"getName()": "17d7de7c",
					"setMarks(uint256)": "f2ceb262",
					"setName(string)": "c47f0027"
				}
			},
			"storageLayout": {
				"storage": [
					{
						"astId": 3,
						"contract": "Program1.sol:Program1",
						"label": "myName",
						"offset": 0,
						"slot": "0",
						"type": "t_string_storage"
					},
					{
						"astId": 5,
						"contract": "Program1.sol:Program1",
						"label": "myMarks",
						"offset": 0,
						"slot": "1",
						"type": "t_uint256"
					}
				],
				"types": {
					"t_string_storage": {
						"encoding": "bytes",
						"label": "string",
						"numberOfBytes": "32"
					},
					"t_uint256": {
						"encoding": "inplace",
						"label": "uint256",
						"numberOfBytes": "32"
					}
				}
			},
			"userdoc": {
				"kind": "user",
				"methods": {},
				"version": 1
			}
		}
	}
}