{
	"SolidityCodes/Todo_List.sol": {
		"Todo_List": {
			"abi": [
				{
					"inputs": [
						{
							"internalType": "string",
							"name": "_text",
							"type": "string"
						}
					],
					"name": "create",
					"outputs": [],
					"stateMutability": "nonpayable",
					"type": "function"
				},
				{
					"inputs": [],
					"name": "getData",
					"outputs": [],
					"stateMutability": "view",
					"type": "function"
				},
				{
					"inputs": [
						{
							"internalType": "uint256",
							"name": "",
							"type": "uint256"
						}
					],
					"name": "todos",
					"outputs": [
						{
							"internalType": "string",
							"name": "text",
							"type": "string"
						},
						{
							"internalType": "bool",
							"name": "complete",
							"type": "bool"
						}
					],
					"stateMutability": "view",
					"type": "function"
				},
				{
					"inputs": [
						{
							"internalType": "uint256",
							"name": "_ind",
							"type": "uint256"
						},
						{
							"internalType": "string",
							"name": "_text",
							"type": "string"
						}
					],
					"name": "updateData",
					"outputs": [],
					"stateMutability": "nonpayable",
					"type": "function"
				}
			],
			"devdoc": {
				"kind": "dev",
				"methods": {},
				"version": 1
			},
			"evm": {
				"assembly": "    /* \"SolidityCodes/Todo_List.sol\":63:497  contract Todo_List{... */\n  mstore(0x40, 0x80)\n  callvalue\n  dup1\n  iszero\n  tag_1\n  jumpi\n  0x00\n  dup1\n  revert\ntag_1:\n  pop\n  dataSize(sub_0)\n  dup1\n  dataOffset(sub_0)\n  0x00\n  codecopy\n  0x00\n  return\nstop\n\nsub_0: assembly {\n        /* \"SolidityCodes/Todo_List.sol\":63:497  contract Todo_List{... */\n      mstore(0x40, 0x80)\n      callvalue\n      dup1\n      iszero\n      tag_1\n      jumpi\n      0x00\n      dup1\n      revert\n    tag_1:\n      pop\n      jumpi(tag_2, lt(calldatasize, 0x04))\n      shr(0xe0, calldataload(0x00))\n      dup1\n      0x3bc5de30\n      eq\n      tag_3\n      jumpi\n      dup1\n      0x89a8e2a7\n      eq\n      tag_4\n      jumpi\n      dup1\n      0xb6a46b3b\n      eq\n      tag_5\n      jumpi\n      dup1\n      0xbc8bc2b4\n      eq\n      tag_6\n      jumpi\n    tag_2:\n      0x00\n      dup1\n      revert\n        /* \"SolidityCodes/Todo_List.sol\":430:492  function getData() external view{... */\n    tag_3:\n      tag_7\n      tag_8\n      jump\t// in\n    tag_7:\n      stop\n        /* \"SolidityCodes/Todo_List.sol\":290:422  function updateData(uint _ind, string memory _text) external{... */\n    tag_4:\n      tag_9\n      0x04\n      dup1\n      calldatasize\n      sub\n      dup2\n      add\n      swap1\n      tag_10\n      swap2\n      swap1\n      tag_11\n      jump\t// in\n    tag_10:\n      tag_12\n      jump\t// in\n    tag_9:\n      stop\n        /* \"SolidityCodes/Todo_List.sol\":190:282  function create(string memory _text) external{... */\n    tag_5:\n      tag_13\n      0x04\n      dup1\n      calldatasize\n      sub\n      dup2\n      add\n      swap1\n      tag_14\n      swap2\n      swap1\n      tag_15\n      jump\t// in\n    tag_14:\n      tag_16\n      jump\t// in\n    tag_13:\n      stop\n        /* \"SolidityCodes/Todo_List.sol\":161:181  Todo [] public todos */\n    tag_6:\n      tag_17\n      0x04\n      dup1\n      calldatasize\n      sub\n      dup2\n      add\n      swap1\n      tag_18\n      swap2\n      swap1\n      tag_19\n      jump\t// in\n    tag_18:\n      tag_20\n      jump\t// in\n    tag_17:\n      mload(0x40)\n      tag_21\n      swap3\n      swap2\n      swap1\n      tag_22\n      jump\t// in\n    tag_21:\n      mload(0x40)\n      dup1\n      swap2\n      sub\n      swap1\n      return\n        /* \"SolidityCodes/Todo_List.sol\":430:492  function getData() external view{... */\n    tag_8:\n      jump\t// out\n        /* \"SolidityCodes/Todo_List.sol\":290:422  function updateData(uint _ind, string memory _text) external{... */\n    tag_12:\n        /* \"SolidityCodes/Todo_List.sol\":361:376  Todo storage td */\n      0x00\n        /* \"SolidityCodes/Todo_List.sol\":377:382  todos */\n      dup1\n        /* \"SolidityCodes/Todo_List.sol\":383:387  _ind */\n      dup4\n        /* \"SolidityCodes/Todo_List.sol\":377:388  todos[_ind] */\n      dup2\n      sload\n      dup2\n      lt\n      tag_25\n      jumpi\n      tag_26\n      tag_27\n      jump\t// in\n    tag_26:\n    tag_25:\n      swap1\n      0x00\n      mstore\n      keccak256(0x00, 0x20)\n      swap1\n      0x02\n      mul\n      add\n        /* \"SolidityCodes/Todo_List.sol\":361:388  Todo storage td=todos[_ind] */\n      swap1\n      pop\n        /* \"SolidityCodes/Todo_List.sol\":407:412  _text */\n      dup2\n        /* \"SolidityCodes/Todo_List.sol\":399:401  td */\n      dup2\n        /* \"SolidityCodes/Todo_List.sol\":399:406  td.text */\n      0x00\n      add\n        /* \"SolidityCodes/Todo_List.sol\":399:412  td.text=_text */\n      swap1\n      dup2\n      tag_29\n      swap2\n      swap1\n      tag_30\n      jump\t// in\n    tag_29:\n      pop\n        /* \"SolidityCodes/Todo_List.sol\":350:422  {... */\n      pop\n        /* \"SolidityCodes/Todo_List.sol\":290:422  function updateData(uint _ind, string memory _text) external{... */\n      pop\n      pop\n      jump\t// out\n        /* \"SolidityCodes/Todo_List.sol\":190:282  function create(string memory _text) external{... */\n    tag_16:\n        /* \"SolidityCodes/Todo_List.sol\":246:251  todos */\n      0x00\n        /* \"SolidityCodes/Todo_List.sol\":257:273  Todo(_text,true) */\n      mload(0x40)\n      dup1\n      0x40\n      add\n      0x40\n      mstore\n      dup1\n        /* \"SolidityCodes/Todo_List.sol\":262:267  _text */\n      dup4\n        /* \"SolidityCodes/Todo_List.sol\":257:273  Todo(_text,true) */\n      dup2\n      mstore\n      0x20\n      add\n        /* \"SolidityCodes/Todo_List.sol\":268:272  true */\n      0x01\n        /* \"SolidityCodes/Todo_List.sol\":257:273  Todo(_text,true) */\n      iszero\n      iszero\n      dup2\n      mstore\n      pop\n        /* \"SolidityCodes/Todo_List.sol\":246:274  todos.push(Todo(_text,true)) */\n      swap1\n      dup1\n      0x01\n      dup2\n      sload\n      add\n      dup1\n      dup3\n      sstore\n      dup1\n      swap2\n      pop\n      pop\n      0x01\n      swap1\n      sub\n      swap1\n      0x00\n      mstore\n      keccak256(0x00, 0x20)\n      swap1\n      0x02\n      mul\n      add\n      0x00\n      swap1\n      swap2\n      swap1\n      swap2\n      swap1\n      swap2\n      pop\n      0x00\n      dup3\n      add\n      mload\n      dup2\n      0x00\n      add\n      swap1\n      dup2\n      tag_33\n      swap2\n      swap1\n      tag_30\n      jump\t// in\n    tag_33:\n      pop\n      0x20\n      dup3\n      add\n      mload\n      dup2\n      0x01\n      add\n      exp(0x0100, 0x00)\n      dup2\n      sload\n      dup2\n      0xff\n      mul\n      not\n      and\n      swap1\n      dup4\n      iszero\n      iszero\n      mul\n      or\n      swap1\n      sstore\n      pop\n      pop\n      pop\n        /* \"SolidityCodes/Todo_List.sol\":190:282  function create(string memory _text) external{... */\n      pop\n      jump\t// out\n        /* \"SolidityCodes/Todo_List.sol\":161:181  Todo [] public todos */\n    tag_20:\n      0x00\n      dup2\n      dup2\n      sload\n      dup2\n      lt\n      tag_34\n      jumpi\n      0x00\n      dup1\n      revert\n    tag_34:\n      swap1\n      0x00\n      mstore\n      keccak256(0x00, 0x20)\n      swap1\n      0x02\n      mul\n      add\n      0x00\n      swap2\n      pop\n      swap1\n      pop\n      dup1\n      0x00\n      add\n      dup1\n      sload\n      tag_36\n      swap1\n      tag_37\n      jump\t// in\n    tag_36:\n      dup1\n      0x1f\n      add\n      0x20\n      dup1\n      swap2\n      div\n      mul\n      0x20\n      add\n      mload(0x40)\n      swap1\n      dup2\n      add\n      0x40\n      mstore\n      dup1\n      swap3\n      swap2\n      swap1\n      dup2\n      dup2\n      mstore\n      0x20\n      add\n      dup3\n      dup1\n      sload\n      tag_38\n      swap1\n      tag_37\n      jump\t// in\n    tag_38:\n      dup1\n      iszero\n      tag_39\n      jumpi\n      dup1\n      0x1f\n      lt\n      tag_40\n      jumpi\n      0x0100\n      dup1\n      dup4\n      sload\n      div\n      mul\n      dup4\n      mstore\n      swap2\n      0x20\n      add\n      swap2\n      jump(tag_39)\n    tag_40:\n      dup3\n      add\n      swap2\n      swap1\n      0x00\n      mstore\n      keccak256(0x00, 0x20)\n      swap1\n    tag_41:\n      dup2\n      sload\n      dup2\n      mstore\n      swap1\n      0x01\n      add\n      swap1\n      0x20\n      add\n      dup1\n      dup4\n      gt\n      tag_41\n      jumpi\n      dup3\n      swap1\n      sub\n      0x1f\n      and\n      dup3\n      add\n      swap2\n    tag_39:\n      pop\n      pop\n      pop\n      pop\n      pop\n      swap1\n      dup1\n      0x01\n      add\n      0x00\n      swap1\n      sload\n      swap1\n      0x0100\n      exp\n      swap1\n      div\n      0xff\n      and\n      swap1\n      pop\n      dup3\n      jump\t// out\n        /* \"#utility.yul\":7:82   */\n    tag_42:\n        /* \"#utility.yul\":40:46   */\n      0x00\n        /* \"#utility.yul\":73:75   */\n      0x40\n        /* \"#utility.yul\":67:76   */\n      mload\n        /* \"#utility.yul\":57:76   */\n      swap1\n      pop\n        /* \"#utility.yul\":7:82   */\n      swap1\n      jump\t// out\n        /* \"#utility.yul\":88:205   */\n    tag_43:\n        /* \"#utility.yul\":197:198   */\n      0x00\n        /* \"#utility.yul\":194:195   */\n      dup1\n        /* \"#utility.yul\":187:199   */\n      revert\n        /* \"#utility.yul\":211:328   */\n    tag_44:\n        /* \"#utility.yul\":320:321   */\n      0x00\n        /* \"#utility.yul\":317:318   */\n      dup1\n        /* \"#utility.yul\":310:322   */\n      revert\n        /* \"#utility.yul\":334:411   */\n    tag_45:\n        /* \"#utility.yul\":371:378   */\n      0x00\n        /* \"#utility.yul\":400:405   */\n      dup2\n        /* \"#utility.yul\":389:405   */\n      swap1\n      pop\n        /* \"#utility.yul\":334:411   */\n      swap2\n      swap1\n      pop\n      jump\t// out\n        /* \"#utility.yul\":417:539   */\n    tag_46:\n        /* \"#utility.yul\":490:514   */\n      tag_86\n        /* \"#utility.yul\":508:513   */\n      dup2\n        /* \"#utility.yul\":490:514   */\n      tag_45\n      jump\t// in\n    tag_86:\n        /* \"#utility.yul\":483:488   */\n      dup2\n        /* \"#utility.yul\":480:515   */\n      eq\n        /* \"#utility.yul\":470:533   */\n      tag_87\n      jumpi\n        /* \"#utility.yul\":529:530   */\n      0x00\n        /* \"#utility.yul\":526:527   */\n      dup1\n        /* \"#utility.yul\":519:531   */\n      revert\n        /* \"#utility.yul\":470:533   */\n    tag_87:\n        /* \"#utility.yul\":417:539   */\n      pop\n      jump\t// out\n        /* \"#utility.yul\":545:684   */\n    tag_47:\n        /* \"#utility.yul\":591:596   */\n      0x00\n        /* \"#utility.yul\":629:635   */\n      dup2\n        /* \"#utility.yul\":616:636   */\n      calldataload\n        /* \"#utility.yul\":607:636   */\n      swap1\n      pop\n        /* \"#utility.yul\":645:678   */\n      tag_89\n        /* \"#utility.yul\":672:677   */\n      dup2\n        /* \"#utility.yul\":645:678   */\n      tag_46\n      jump\t// in\n    tag_89:\n        /* \"#utility.yul\":545:684   */\n      swap3\n      swap2\n      pop\n      pop\n      jump\t// out\n        /* \"#utility.yul\":690:807   */\n    tag_48:\n        /* \"#utility.yul\":799:800   */\n      0x00\n        /* \"#utility.yul\":796:797   */\n      dup1\n        /* \"#utility.yul\":789:801   */\n      revert\n        /* \"#utility.yul\":813:930   */\n    tag_49:\n        /* \"#utility.yul\":922:923   */\n      0x00\n        /* \"#utility.yul\":919:920   */\n      dup1\n        /* \"#utility.yul\":912:924   */\n      revert\n        /* \"#utility.yul\":936:1038   */\n    tag_50:\n        /* \"#utility.yul\":977:983   */\n      0x00\n        /* \"#utility.yul\":1028:1030   */\n      0x1f\n        /* \"#utility.yul\":1024:1031   */\n      not\n        /* \"#utility.yul\":1019:1021   */\n      0x1f\n        /* \"#utility.yul\":1012:1017   */\n      dup4\n        /* \"#utility.yul\":1008:1022   */\n      add\n        /* \"#utility.yul\":1004:1032   */\n      and\n        /* \"#utility.yul\":994:1032   */\n      swap1\n      pop\n        /* \"#utility.yul\":936:1038   */\n      swap2\n      swap1\n      pop\n      jump\t// out\n        /* \"#utility.yul\":1044:1224   */\n    tag_51:\n        /* \"#utility.yul\":1092:1169   */\n      0x4e487b7100000000000000000000000000000000000000000000000000000000\n        /* \"#utility.yul\":1089:1090   */\n      0x00\n        /* \"#utility.yul\":1082:1170   */\n      mstore\n        /* \"#utility.yul\":1189:1193   */\n      0x41\n        /* \"#utility.yul\":1186:1187   */\n      0x04\n        /* \"#utility.yul\":1179:1194   */\n      mstore\n        /* \"#utility.yul\":1213:1217   */\n      0x24\n        /* \"#utility.yul\":1210:1211   */\n      0x00\n        /* \"#utility.yul\":1203:1218   */\n      revert\n        /* \"#utility.yul\":1230:1511   */\n    tag_52:\n        /* \"#utility.yul\":1313:1340   */\n      tag_95\n        /* \"#utility.yul\":1335:1339   */\n      dup3\n        /* \"#utility.yul\":1313:1340   */\n      tag_50\n      jump\t// in\n    tag_95:\n        /* \"#utility.yul\":1305:1311   */\n      dup2\n        /* \"#utility.yul\":1301:1341   */\n      add\n        /* \"#utility.yul\":1443:1449   */\n      dup2\n        /* \"#utility.yul\":1431:1441   */\n      dup2\n        /* \"#utility.yul\":1428:1450   */\n      lt\n        /* \"#utility.yul\":1407:1425   */\n      0xffffffffffffffff\n        /* \"#utility.yul\":1395:1405   */\n      dup3\n        /* \"#utility.yul\":1392:1426   */\n      gt\n        /* \"#utility.yul\":1389:1451   */\n      or\n        /* \"#utility.yul\":1386:1474   */\n      iszero\n      tag_96\n      jumpi\n        /* \"#utility.yul\":1454:1472   */\n      tag_97\n      tag_51\n      jump\t// in\n    tag_97:\n        /* \"#utility.yul\":1386:1474   */\n    tag_96:\n        /* \"#utility.yul\":1494:1504   */\n      dup1\n        /* \"#utility.yul\":1490:1492   */\n      0x40\n        /* \"#utility.yul\":1483:1505   */\n      mstore\n        /* \"#utility.yul\":1273:1511   */\n      pop\n        /* \"#utility.yul\":1230:1511   */\n      pop\n      pop\n      jump\t// out\n        /* \"#utility.yul\":1517:1646   */\n    tag_53:\n        /* \"#utility.yul\":1551:1557   */\n      0x00\n        /* \"#utility.yul\":1578:1598   */\n      tag_99\n      tag_42\n      jump\t// in\n    tag_99:\n        /* \"#utility.yul\":1568:1598   */\n      swap1\n      pop\n        /* \"#utility.yul\":1607:1640   */\n      tag_100\n        /* \"#utility.yul\":1635:1639   */\n      dup3\n        /* \"#utility.yul\":1627:1633   */\n      dup3\n        /* \"#utility.yul\":1607:1640   */\n      tag_52\n      jump\t// in\n    tag_100:\n        /* \"#utility.yul\":1517:1646   */\n      swap2\n      swap1\n      pop\n      jump\t// out\n        /* \"#utility.yul\":1652:1960   */\n    tag_54:\n        /* \"#utility.yul\":1714:1718   */\n      0x00\n        /* \"#utility.yul\":1804:1822   */\n      0xffffffffffffffff\n        /* \"#utility.yul\":1796:1802   */\n      dup3\n        /* \"#utility.yul\":1793:1823   */\n      gt\n        /* \"#utility.yul\":1790:1846   */\n      iszero\n      tag_102\n      jumpi\n        /* \"#utility.yul\":1826:1844   */\n      tag_103\n      tag_51\n      jump\t// in\n    tag_103:\n        /* \"#utility.yul\":1790:1846   */\n    tag_102:\n        /* \"#utility.yul\":1864:1893   */\n      tag_104\n        /* \"#utility.yul\":1886:1892   */\n      dup3\n        /* \"#utility.yul\":1864:1893   */\n      tag_50\n      jump\t// in\n    tag_104:\n        /* \"#utility.yul\":1856:1893   */\n      swap1\n      pop\n        /* \"#utility.yul\":1948:1952   */\n      0x20\n        /* \"#utility.yul\":1942:1946   */\n      dup2\n        /* \"#utility.yul\":1938:1953   */\n      add\n        /* \"#utility.yul\":1930:1953   */\n      swap1\n      pop\n        /* \"#utility.yul\":1652:1960   */\n      swap2\n      swap1\n      pop\n      jump\t// out\n        /* \"#utility.yul\":1966:2120   */\n    tag_55:\n        /* \"#utility.yul\":2050:2056   */\n      dup3\n        /* \"#utility.yul\":2045:2048   */\n      dup2\n        /* \"#utility.yul\":2040:2043   */\n      dup4\n        /* \"#utility.yul\":2027:2057   */\n      calldatacopy\n        /* \"#utility.yul\":2112:2113   */\n      0x00\n        /* \"#utility.yul\":2103:2109   */\n      dup4\n        /* \"#utility.yul\":2098:2101   */\n      dup4\n        /* \"#utility.yul\":2094:2110   */\n      add\n        /* \"#utility.yul\":2087:2114   */\n      mstore\n        /* \"#utility.yul\":1966:2120   */\n      pop\n      pop\n      pop\n      jump\t// out\n        /* \"#utility.yul\":2126:2538   */\n    tag_56:\n        /* \"#utility.yul\":2204:2209   */\n      0x00\n        /* \"#utility.yul\":2229:2295   */\n      tag_107\n        /* \"#utility.yul\":2245:2294   */\n      tag_108\n        /* \"#utility.yul\":2287:2293   */\n      dup5\n        /* \"#utility.yul\":2245:2294   */\n      tag_54\n      jump\t// in\n    tag_108:\n        /* \"#utility.yul\":2229:2295   */\n      tag_53\n      jump\t// in\n    tag_107:\n        /* \"#utility.yul\":2220:2295   */\n      swap1\n      pop\n        /* \"#utility.yul\":2318:2324   */\n      dup3\n        /* \"#utility.yul\":2311:2316   */\n      dup2\n        /* \"#utility.yul\":2304:2325   */\n      mstore\n        /* \"#utility.yul\":2356:2360   */\n      0x20\n        /* \"#utility.yul\":2349:2354   */\n      dup2\n        /* \"#utility.yul\":2345:2361   */\n      add\n        /* \"#utility.yul\":2394:2397   */\n      dup5\n        /* \"#utility.yul\":2385:2391   */\n      dup5\n        /* \"#utility.yul\":2380:2383   */\n      dup5\n        /* \"#utility.yul\":2376:2392   */\n      add\n        /* \"#utility.yul\":2373:2398   */\n      gt\n        /* \"#utility.yul\":2370:2482   */\n      iszero\n      tag_109\n      jumpi\n        /* \"#utility.yul\":2401:2480   */\n      tag_110\n      tag_49\n      jump\t// in\n    tag_110:\n        /* \"#utility.yul\":2370:2482   */\n    tag_109:\n        /* \"#utility.yul\":2491:2532   */\n      tag_111\n        /* \"#utility.yul\":2525:2531   */\n      dup5\n        /* \"#utility.yul\":2520:2523   */\n      dup3\n        /* \"#utility.yul\":2515:2518   */\n      dup6\n        /* \"#utility.yul\":2491:2532   */\n      tag_55\n      jump\t// in\n    tag_111:\n        /* \"#utility.yul\":2210:2538   */\n      pop\n        /* \"#utility.yul\":2126:2538   */\n      swap4\n      swap3\n      pop\n      pop\n      pop\n      jump\t// out\n        /* \"#utility.yul\":2558:2898   */\n    tag_57:\n        /* \"#utility.yul\":2614:2619   */\n      0x00\n        /* \"#utility.yul\":2663:2666   */\n      dup3\n        /* \"#utility.yul\":2656:2660   */\n      0x1f\n        /* \"#utility.yul\":2648:2654   */\n      dup4\n        /* \"#utility.yul\":2644:2661   */\n      add\n        /* \"#utility.yul\":2640:2667   */\n      slt\n        /* \"#utility.yul\":2630:2752   */\n      tag_113\n      jumpi\n        /* \"#utility.yul\":2671:2750   */\n      tag_114\n      tag_48\n      jump\t// in\n    tag_114:\n        /* \"#utility.yul\":2630:2752   */\n    tag_113:\n        /* \"#utility.yul\":2788:2794   */\n      dup2\n        /* \"#utility.yul\":2775:2795   */\n      calldataload\n        /* \"#utility.yul\":2813:2892   */\n      tag_115\n        /* \"#utility.yul\":2888:2891   */\n      dup5\n        /* \"#utility.yul\":2880:2886   */\n      dup3\n        /* \"#utility.yul\":2873:2877   */\n      0x20\n        /* \"#utility.yul\":2865:2871   */\n      dup7\n        /* \"#utility.yul\":2861:2878   */\n      add\n        /* \"#utility.yul\":2813:2892   */\n      tag_56\n      jump\t// in\n    tag_115:\n        /* \"#utility.yul\":2804:2892   */\n      swap2\n      pop\n        /* \"#utility.yul\":2620:2898   */\n      pop\n        /* \"#utility.yul\":2558:2898   */\n      swap3\n      swap2\n      pop\n      pop\n      jump\t// out\n        /* \"#utility.yul\":2904:3558   */\n    tag_11:\n        /* \"#utility.yul\":2982:2988   */\n      0x00\n        /* \"#utility.yul\":2990:2996   */\n      dup1\n        /* \"#utility.yul\":3039:3041   */\n      0x40\n        /* \"#utility.yul\":3027:3036   */\n      dup4\n        /* \"#utility.yul\":3018:3025   */\n      dup6\n        /* \"#utility.yul\":3014:3037   */\n      sub\n        /* \"#utility.yul\":3010:3042   */\n      slt\n        /* \"#utility.yul\":3007:3126   */\n      iszero\n      tag_117\n      jumpi\n        /* \"#utility.yul\":3045:3124   */\n      tag_118\n      tag_43\n      jump\t// in\n    tag_118:\n        /* \"#utility.yul\":3007:3126   */\n    tag_117:\n        /* \"#utility.yul\":3165:3166   */\n      0x00\n        /* \"#utility.yul\":3190:3243   */\n      tag_119\n        /* \"#utility.yul\":3235:3242   */\n      dup6\n        /* \"#utility.yul\":3226:3232   */\n      dup3\n        /* \"#utility.yul\":3215:3224   */\n      dup7\n        /* \"#utility.yul\":3211:3233   */\n      add\n        /* \"#utility.yul\":3190:3243   */\n      tag_47\n      jump\t// in\n    tag_119:\n        /* \"#utility.yul\":3180:3243   */\n      swap3\n      pop\n        /* \"#utility.yul\":3136:3253   */\n      pop\n        /* \"#utility.yul\":3320:3322   */\n      0x20\n        /* \"#utility.yul\":3309:3318   */\n      dup4\n        /* \"#utility.yul\":3305:3323   */\n      add\n        /* \"#utility.yul\":3292:3324   */\n      calldataload\n        /* \"#utility.yul\":3351:3369   */\n      0xffffffffffffffff\n        /* \"#utility.yul\":3343:3349   */\n      dup2\n        /* \"#utility.yul\":3340:3370   */\n      gt\n        /* \"#utility.yul\":3337:3454   */\n      iszero\n      tag_120\n      jumpi\n        /* \"#utility.yul\":3373:3452   */\n      tag_121\n      tag_44\n      jump\t// in\n    tag_121:\n        /* \"#utility.yul\":3337:3454   */\n    tag_120:\n        /* \"#utility.yul\":3478:3541   */\n      tag_122\n        /* \"#utility.yul\":3533:3540   */\n      dup6\n        /* \"#utility.yul\":3524:3530   */\n      dup3\n        /* \"#utility.yul\":3513:3522   */\n      dup7\n        /* \"#utility.yul\":3509:3531   */\n      add\n        /* \"#utility.yul\":3478:3541   */\n      tag_57\n      jump\t// in\n    tag_122:\n        /* \"#utility.yul\":3468:3541   */\n      swap2\n      pop\n        /* \"#utility.yul\":3263:3551   */\n      pop\n        /* \"#utility.yul\":2904:3558   */\n      swap3\n      pop\n      swap3\n      swap1\n      pop\n      jump\t// out\n        /* \"#utility.yul\":3564:4073   */\n    tag_15:\n        /* \"#utility.yul\":3633:3639   */\n      0x00\n        /* \"#utility.yul\":3682:3684   */\n      0x20\n        /* \"#utility.yul\":3670:3679   */\n      dup3\n        /* \"#utility.yul\":3661:3668   */\n      dup5\n        /* \"#utility.yul\":3657:3680   */\n      sub\n        /* \"#utility.yul\":3653:3685   */\n      slt\n        /* \"#utility.yul\":3650:3769   */\n      iszero\n      tag_124\n      jumpi\n        /* \"#utility.yul\":3688:3767   */\n      tag_125\n      tag_43\n      jump\t// in\n    tag_125:\n        /* \"#utility.yul\":3650:3769   */\n    tag_124:\n        /* \"#utility.yul\":3836:3837   */\n      0x00\n        /* \"#utility.yul\":3825:3834   */\n      dup3\n        /* \"#utility.yul\":3821:3838   */\n      add\n        /* \"#utility.yul\":3808:3839   */\n      calldataload\n        /* \"#utility.yul\":3866:3884   */\n      0xffffffffffffffff\n        /* \"#utility.yul\":3858:3864   */\n      dup2\n        /* \"#utility.yul\":3855:3885   */\n      gt\n        /* \"#utility.yul\":3852:3969   */\n      iszero\n      tag_126\n      jumpi\n        /* \"#utility.yul\":3888:3967   */\n      tag_127\n      tag_44\n      jump\t// in\n    tag_127:\n        /* \"#utility.yul\":3852:3969   */\n    tag_126:\n        /* \"#utility.yul\":3993:4056   */\n      tag_128\n        /* \"#utility.yul\":4048:4055   */\n      dup5\n        /* \"#utility.yul\":4039:4045   */\n      dup3\n        /* \"#utility.yul\":4028:4037   */\n      dup6\n        /* \"#utility.yul\":4024:4046   */\n      add\n        /* \"#utility.yul\":3993:4056   */\n      tag_57\n      jump\t// in\n    tag_128:\n        /* \"#utility.yul\":3983:4056   */\n      swap2\n      pop\n        /* \"#utility.yul\":3779:4066   */\n      pop\n        /* \"#utility.yul\":3564:4073   */\n      swap3\n      swap2\n      pop\n      pop\n      jump\t// out\n        /* \"#utility.yul\":4079:4408   */\n    tag_19:\n        /* \"#utility.yul\":4138:4144   */\n      0x00\n        /* \"#utility.yul\":4187:4189   */\n      0x20\n        /* \"#utility.yul\":4175:4184   */\n      dup3\n        /* \"#utility.yul\":4166:4173   */\n      dup5\n        /* \"#utility.yul\":4162:4185   */\n      sub\n        /* \"#utility.yul\":4158:4190   */\n      slt\n        /* \"#utility.yul\":4155:4274   */\n      iszero\n      tag_130\n      jumpi\n        /* \"#utility.yul\":4193:4272   */\n      tag_131\n      tag_43\n      jump\t// in\n    tag_131:\n        /* \"#utility.yul\":4155:4274   */\n    tag_130:\n        /* \"#utility.yul\":4313:4314   */\n      0x00\n        /* \"#utility.yul\":4338:4391   */\n      tag_132\n        /* \"#utility.yul\":4383:4390   */\n      dup5\n        /* \"#utility.yul\":4374:4380   */\n      dup3\n        /* \"#utility.yul\":4363:4372   */\n      dup6\n        /* \"#utility.yul\":4359:4381   */\n      add\n        /* \"#utility.yul\":4338:4391   */\n      tag_47\n      jump\t// in\n    tag_132:\n        /* \"#utility.yul\":4328:4391   */\n      swap2\n      pop\n        /* \"#utility.yul\":4284:4401   */\n      pop\n        /* \"#utility.yul\":4079:4408   */\n      swap3\n      swap2\n      pop\n      pop\n      jump\t// out\n        /* \"#utility.yul\":4414:4513   */\n    tag_58:\n        /* \"#utility.yul\":4466:4472   */\n      0x00\n        /* \"#utility.yul\":4500:4505   */\n      dup2\n        /* \"#utility.yul\":4494:4506   */\n      mload\n        /* \"#utility.yul\":4484:4506   */\n      swap1\n      pop\n        /* \"#utility.yul\":4414:4513   */\n      swap2\n      swap1\n      pop\n      jump\t// out\n        /* \"#utility.yul\":4519:4688   */\n    tag_59:\n        /* \"#utility.yul\":4603:4614   */\n      0x00\n        /* \"#utility.yul\":4637:4643   */\n      dup3\n        /* \"#utility.yul\":4632:4635   */\n      dup3\n        /* \"#utility.yul\":4625:4644   */\n      mstore\n        /* \"#utility.yul\":4677:4681   */\n      0x20\n        /* \"#utility.yul\":4672:4675   */\n      dup3\n        /* \"#utility.yul\":4668:4682   */\n      add\n        /* \"#utility.yul\":4653:4682   */\n      swap1\n      pop\n        /* \"#utility.yul\":4519:4688   */\n      swap3\n      swap2\n      pop\n      pop\n      jump\t// out\n        /* \"#utility.yul\":4694:5001   */\n    tag_60:\n        /* \"#utility.yul\":4762:4763   */\n      0x00\n        /* \"#utility.yul\":4772:4885   */\n    tag_136:\n        /* \"#utility.yul\":4786:4792   */\n      dup4\n        /* \"#utility.yul\":4783:4784   */\n      dup2\n        /* \"#utility.yul\":4780:4793   */\n      lt\n        /* \"#utility.yul\":4772:4885   */\n      iszero\n      tag_138\n      jumpi\n        /* \"#utility.yul\":4871:4872   */\n      dup1\n        /* \"#utility.yul\":4866:4869   */\n      dup3\n        /* \"#utility.yul\":4862:4873   */\n      add\n        /* \"#utility.yul\":4856:4874   */\n      mload\n        /* \"#utility.yul\":4852:4853   */\n      dup2\n        /* \"#utility.yul\":4847:4850   */\n      dup5\n        /* \"#utility.yul\":4843:4854   */\n      add\n        /* \"#utility.yul\":4836:4875   */\n      mstore\n        /* \"#utility.yul\":4808:4810   */\n      0x20\n        /* \"#utility.yul\":4805:4806   */\n      dup2\n        /* \"#utility.yul\":4801:4811   */\n      add\n        /* \"#utility.yul\":4796:4811   */\n      swap1\n      pop\n        /* \"#utility.yul\":4772:4885   */\n      jump(tag_136)\n    tag_138:\n        /* \"#utility.yul\":4903:4909   */\n      dup4\n        /* \"#utility.yul\":4900:4901   */\n      dup2\n        /* \"#utility.yul\":4897:4910   */\n      gt\n        /* \"#utility.yul\":4894:4995   */\n      iszero\n      tag_139\n      jumpi\n        /* \"#utility.yul\":4983:4984   */\n      0x00\n        /* \"#utility.yul\":4974:4980   */\n      dup5\n        /* \"#utility.yul\":4969:4972   */\n      dup5\n        /* \"#utility.yul\":4965:4981   */\n      add\n        /* \"#utility.yul\":4958:4985   */\n      mstore\n        /* \"#utility.yul\":4894:4995   */\n    tag_139:\n        /* \"#utility.yul\":4743:5001   */\n      pop\n        /* \"#utility.yul\":4694:5001   */\n      pop\n      pop\n      pop\n      jump\t// out\n        /* \"#utility.yul\":5007:5371   */\n    tag_61:\n        /* \"#utility.yul\":5095:5098   */\n      0x00\n        /* \"#utility.yul\":5123:5162   */\n      tag_141\n        /* \"#utility.yul\":5156:5161   */\n      dup3\n        /* \"#utility.yul\":5123:5162   */\n      tag_58\n      jump\t// in\n    tag_141:\n        /* \"#utility.yul\":5178:5249   */\n      tag_142\n        /* \"#utility.yul\":5242:5248   */\n      dup2\n        /* \"#utility.yul\":5237:5240   */\n      dup6\n        /* \"#utility.yul\":5178:5249   */\n      tag_59\n      jump\t// in\n    tag_142:\n        /* \"#utility.yul\":5171:5249   */\n      swap4\n      pop\n        /* \"#utility.yul\":5258:5310   */\n      tag_143\n        /* \"#utility.yul\":5303:5309   */\n      dup2\n        /* \"#utility.yul\":5298:5301   */\n      dup6\n        /* \"#utility.yul\":5291:5295   */\n      0x20\n        /* \"#utility.yul\":5284:5289   */\n      dup7\n        /* \"#utility.yul\":5280:5296   */\n      add\n        /* \"#utility.yul\":5258:5310   */\n      tag_60\n      jump\t// in\n    tag_143:\n        /* \"#utility.yul\":5335:5364   */\n      tag_144\n        /* \"#utility.yul\":5357:5363   */\n      dup2\n        /* \"#utility.yul\":5335:5364   */\n      tag_50\n      jump\t// in\n    tag_144:\n        /* \"#utility.yul\":5330:5333   */\n      dup5\n        /* \"#utility.yul\":5326:5365   */\n      add\n        /* \"#utility.yul\":5319:5365   */\n      swap2\n      pop\n        /* \"#utility.yul\":5099:5371   */\n      pop\n        /* \"#utility.yul\":5007:5371   */\n      swap3\n      swap2\n      pop\n      pop\n      jump\t// out\n        /* \"#utility.yul\":5377:5467   */\n    tag_62:\n        /* \"#utility.yul\":5411:5418   */\n      0x00\n        /* \"#utility.yul\":5454:5459   */\n      dup2\n        /* \"#utility.yul\":5447:5460   */\n      iszero\n        /* \"#utility.yul\":5440:5461   */\n      iszero\n        /* \"#utility.yul\":5429:5461   */\n      swap1\n      pop\n        /* \"#utility.yul\":5377:5467   */\n      swap2\n      swap1\n      pop\n      jump\t// out\n        /* \"#utility.yul\":5473:5582   */\n    tag_63:\n        /* \"#utility.yul\":5554:5575   */\n      tag_147\n        /* \"#utility.yul\":5569:5574   */\n      dup2\n        /* \"#utility.yul\":5554:5575   */\n      tag_62\n      jump\t// in\n    tag_147:\n        /* \"#utility.yul\":5549:5552   */\n      dup3\n        /* \"#utility.yul\":5542:5576   */\n      mstore\n        /* \"#utility.yul\":5473:5582   */\n      pop\n      pop\n      jump\t// out\n        /* \"#utility.yul\":5588:5999   */\n    tag_22:\n        /* \"#utility.yul\":5723:5727   */\n      0x00\n        /* \"#utility.yul\":5761:5763   */\n      0x40\n        /* \"#utility.yul\":5750:5759   */\n      dup3\n        /* \"#utility.yul\":5746:5764   */\n      add\n        /* \"#utility.yul\":5738:5764   */\n      swap1\n      pop\n        /* \"#utility.yul\":5810:5819   */\n      dup2\n        /* \"#utility.yul\":5804:5808   */\n      dup2\n        /* \"#utility.yul\":5800:5820   */\n      sub\n        /* \"#utility.yul\":5796:5797   */\n      0x00\n        /* \"#utility.yul\":5785:5794   */\n      dup4\n        /* \"#utility.yul\":5781:5798   */\n      add\n        /* \"#utility.yul\":5774:5821   */\n      mstore\n        /* \"#utility.yul\":5838:5916   */\n      tag_149\n        /* \"#utility.yul\":5911:5915   */\n      dup2\n        /* \"#utility.yul\":5902:5908   */\n      dup6\n        /* \"#utility.yul\":5838:5916   */\n      tag_61\n      jump\t// in\n    tag_149:\n        /* \"#utility.yul\":5830:5916   */\n      swap1\n      pop\n        /* \"#utility.yul\":5926:5992   */\n      tag_150\n        /* \"#utility.yul\":5988:5990   */\n      0x20\n        /* \"#utility.yul\":5977:5986   */\n      dup4\n        /* \"#utility.yul\":5973:5991   */\n      add\n        /* \"#utility.yul\":5964:5970   */\n      dup5\n        /* \"#utility.yul\":5926:5992   */\n      tag_63\n      jump\t// in\n    tag_150:\n        /* \"#utility.yul\":5588:5999   */\n      swap4\n      swap3\n      pop\n      pop\n      pop\n      jump\t// out\n        /* \"#utility.yul\":6005:6185   */\n    tag_27:\n        /* \"#utility.yul\":6053:6130   */\n      0x4e487b7100000000000000000000000000000000000000000000000000000000\n        /* \"#utility.yul\":6050:6051   */\n      0x00\n        /* \"#utility.yul\":6043:6131   */\n      mstore\n        /* \"#utility.yul\":6150:6154   */\n      0x32\n        /* \"#utility.yul\":6147:6148   */\n      0x04\n        /* \"#utility.yul\":6140:6155   */\n      mstore\n        /* \"#utility.yul\":6174:6178   */\n      0x24\n        /* \"#utility.yul\":6171:6172   */\n      0x00\n        /* \"#utility.yul\":6164:6179   */\n      revert\n        /* \"#utility.yul\":6191:6371   */\n    tag_64:\n        /* \"#utility.yul\":6239:6316   */\n      0x4e487b7100000000000000000000000000000000000000000000000000000000\n        /* \"#utility.yul\":6236:6237   */\n      0x00\n        /* \"#utility.yul\":6229:6317   */\n      mstore\n        /* \"#utility.yul\":6336:6340   */\n      0x22\n        /* \"#utility.yul\":6333:6334   */\n      0x04\n        /* \"#utility.yul\":6326:6341   */\n      mstore\n        /* \"#utility.yul\":6360:6364   */\n      0x24\n        /* \"#utility.yul\":6357:6358   */\n      0x00\n        /* \"#utility.yul\":6350:6365   */\n      revert\n        /* \"#utility.yul\":6377:6697   */\n    tag_37:\n        /* \"#utility.yul\":6421:6427   */\n      0x00\n        /* \"#utility.yul\":6458:6459   */\n      0x02\n        /* \"#utility.yul\":6452:6456   */\n      dup3\n        /* \"#utility.yul\":6448:6460   */\n      div\n        /* \"#utility.yul\":6438:6460   */\n      swap1\n      pop\n        /* \"#utility.yul\":6505:6506   */\n      0x01\n        /* \"#utility.yul\":6499:6503   */\n      dup3\n        /* \"#utility.yul\":6495:6507   */\n      and\n        /* \"#utility.yul\":6526:6544   */\n      dup1\n        /* \"#utility.yul\":6516:6597   */\n      tag_154\n      jumpi\n        /* \"#utility.yul\":6582:6586   */\n      0x7f\n        /* \"#utility.yul\":6574:6580   */\n      dup3\n        /* \"#utility.yul\":6570:6587   */\n      and\n        /* \"#utility.yul\":6560:6587   */\n      swap2\n      pop\n        /* \"#utility.yul\":6516:6597   */\n    tag_154:\n        /* \"#utility.yul\":6644:6646   */\n      0x20\n        /* \"#utility.yul\":6636:6642   */\n      dup3\n        /* \"#utility.yul\":6633:6647   */\n      lt\n        /* \"#utility.yul\":6613:6631   */\n      dup2\n        /* \"#utility.yul\":6610:6648   */\n      sub\n        /* \"#utility.yul\":6607:6691   */\n      tag_155\n      jumpi\n        /* \"#utility.yul\":6663:6681   */\n      tag_156\n      tag_64\n      jump\t// in\n    tag_156:\n        /* \"#utility.yul\":6607:6691   */\n    tag_155:\n        /* \"#utility.yul\":6428:6697   */\n      pop\n        /* \"#utility.yul\":6377:6697   */\n      swap2\n      swap1\n      pop\n      jump\t// out\n        /* \"#utility.yul\":6703:6844   */\n    tag_65:\n        /* \"#utility.yul\":6752:6756   */\n      0x00\n        /* \"#utility.yul\":6775:6778   */\n      dup2\n        /* \"#utility.yul\":6767:6778   */\n      swap1\n      pop\n        /* \"#utility.yul\":6798:6801   */\n      dup2\n        /* \"#utility.yul\":6795:6796   */\n      0x00\n        /* \"#utility.yul\":6788:6802   */\n      mstore\n        /* \"#utility.yul\":6832:6836   */\n      0x20\n        /* \"#utility.yul\":6829:6830   */\n      0x00\n        /* \"#utility.yul\":6819:6837   */\n      keccak256\n        /* \"#utility.yul\":6811:6837   */\n      swap1\n      pop\n        /* \"#utility.yul\":6703:6844   */\n      swap2\n      swap1\n      pop\n      jump\t// out\n        /* \"#utility.yul\":6850:6943   */\n    tag_66:\n        /* \"#utility.yul\":6887:6893   */\n      0x00\n        /* \"#utility.yul\":6934:6936   */\n      0x20\n        /* \"#utility.yul\":6929:6931   */\n      0x1f\n        /* \"#utility.yul\":6922:6927   */\n      dup4\n        /* \"#utility.yul\":6918:6932   */\n      add\n        /* \"#utility.yul\":6914:6937   */\n      div\n        /* \"#utility.yul\":6904:6937   */\n      swap1\n      pop\n        /* \"#utility.yul\":6850:6943   */\n      swap2\n      swap1\n      pop\n      jump\t// out\n        /* \"#utility.yul\":6949:7056   */\n    tag_67:\n        /* \"#utility.yul\":6993:7001   */\n      0x00\n        /* \"#utility.yul\":7043:7048   */\n      dup3\n        /* \"#utility.yul\":7037:7041   */\n      dup3\n        /* \"#utility.yul\":7033:7049   */\n      shl\n        /* \"#utility.yul\":7012:7049   */\n      swap1\n      pop\n        /* \"#utility.yul\":6949:7056   */\n      swap3\n      swap2\n      pop\n      pop\n      jump\t// out\n        /* \"#utility.yul\":7062:7455   */\n    tag_68:\n        /* \"#utility.yul\":7131:7137   */\n      0x00\n        /* \"#utility.yul\":7181:7182   */\n      0x08\n        /* \"#utility.yul\":7169:7179   */\n      dup4\n        /* \"#utility.yul\":7165:7183   */\n      mul\n        /* \"#utility.yul\":7204:7301   */\n      tag_161\n        /* \"#utility.yul\":7234:7300   */\n      0xffffffffffffffffffffffffffffffffffffffffffffffffffffffffffffffff\n        /* \"#utility.yul\":7223:7232   */\n      dup3\n        /* \"#utility.yul\":7204:7301   */\n      tag_67\n      jump\t// in\n    tag_161:\n        /* \"#utility.yul\":7322:7361   */\n      tag_162\n        /* \"#utility.yul\":7352:7360   */\n      dup7\n        /* \"#utility.yul\":7341:7350   */\n      dup4\n        /* \"#utility.yul\":7322:7361   */\n      tag_67\n      jump\t// in\n    tag_162:\n        /* \"#utility.yul\":7310:7361   */\n      swap6\n      pop\n        /* \"#utility.yul\":7394:7398   */\n      dup1\n        /* \"#utility.yul\":7390:7399   */\n      not\n        /* \"#utility.yul\":7383:7388   */\n      dup5\n        /* \"#utility.yul\":7379:7400   */\n      and\n        /* \"#utility.yul\":7370:7400   */\n      swap4\n      pop\n        /* \"#utility.yul\":7443:7447   */\n      dup1\n        /* \"#utility.yul\":7433:7441   */\n      dup7\n        /* \"#utility.yul\":7429:7448   */\n      and\n        /* \"#utility.yul\":7422:7427   */\n      dup5\n        /* \"#utility.yul\":7419:7449   */\n      or\n        /* \"#utility.yul\":7409:7449   */\n      swap3\n      pop\n        /* \"#utility.yul\":7138:7455   */\n      pop\n      pop\n        /* \"#utility.yul\":7062:7455   */\n      swap4\n      swap3\n      pop\n      pop\n      pop\n      jump\t// out\n        /* \"#utility.yul\":7461:7521   */\n    tag_69:\n        /* \"#utility.yul\":7489:7492   */\n      0x00\n        /* \"#utility.yul\":7510:7515   */\n      dup2\n        /* \"#utility.yul\":7503:7515   */\n      swap1\n      pop\n        /* \"#utility.yul\":7461:7521   */\n      swap2\n      swap1\n      pop\n      jump\t// out\n        /* \"#utility.yul\":7527:7669   */\n    tag_70:\n        /* \"#utility.yul\":7577:7586   */\n      0x00\n        /* \"#utility.yul\":7610:7663   */\n      tag_165\n        /* \"#utility.yul\":7628:7662   */\n      tag_166\n        /* \"#utility.yul\":7637:7661   */\n      tag_167\n        /* \"#utility.yul\":7655:7660   */\n      dup5\n        /* \"#utility.yul\":7637:7661   */\n      tag_45\n      jump\t// in\n    tag_167:\n        /* \"#utility.yul\":7628:7662   */\n      tag_69\n      jump\t// in\n    tag_166:\n        /* \"#utility.yul\":7610:7663   */\n      tag_45\n      jump\t// in\n    tag_165:\n        /* \"#utility.yul\":7597:7663   */\n      swap1\n      pop\n        /* \"#utility.yul\":7527:7669   */\n      swap2\n      swap1\n      pop\n      jump\t// out\n        /* \"#utility.yul\":7675:7750   */\n    tag_71:\n        /* \"#utility.yul\":7718:7721   */\n      0x00\n        /* \"#utility.yul\":7739:7744   */\n      dup2\n        /* \"#utility.yul\":7732:7744   */\n      swap1\n      pop\n        /* \"#utility.yul\":7675:7750   */\n      swap2\n      swap1\n      pop\n      jump\t// out\n        /* \"#utility.yul\":7756:8025   */\n    tag_72:\n        /* \"#utility.yul\":7866:7905   */\n      tag_170\n        /* \"#utility.yul\":7897:7904   */\n      dup4\n        /* \"#utility.yul\":7866:7905   */\n      tag_70\n      jump\t// in\n    tag_170:\n        /* \"#utility.yul\":7927:8018   */\n      tag_171\n        /* \"#utility.yul\":7976:8017   */\n      tag_172\n        /* \"#utility.yul\":8000:8016   */\n      dup3\n        /* \"#utility.yul\":7976:8017   */\n      tag_71\n      jump\t// in\n    tag_172:\n        /* \"#utility.yul\":7968:7974   */\n      dup5\n        /* \"#utility.yul\":7961:7965   */\n      dup5\n        /* \"#utility.yul\":7955:7966   */\n      sload\n        /* \"#utility.yul\":7927:8018   */\n      tag_68\n      jump\t// in\n    tag_171:\n        /* \"#utility.yul\":7921:7925   */\n      dup3\n        /* \"#utility.yul\":7914:8019   */\n      sstore\n        /* \"#utility.yul\":7832:8025   */\n      pop\n        /* \"#utility.yul\":7756:8025   */\n      pop\n      pop\n      pop\n      jump\t// out\n        /* \"#utility.yul\":8031:8104   */\n    tag_73:\n        /* \"#utility.yul\":8076:8079   */\n      0x00\n        /* \"#utility.yul\":8031:8104   */\n      swap1\n      jump\t// out\n        /* \"#utility.yul\":8110:8299   */\n    tag_74:\n        /* \"#utility.yul\":8187:8219   */\n      tag_175\n      tag_73\n      jump\t// in\n    tag_175:\n        /* \"#utility.yul\":8228:8293   */\n      tag_176\n        /* \"#utility.yul\":8286:8292   */\n      dup2\n        /* \"#utility.yul\":8278:8284   */\n      dup5\n        /* \"#utility.yul\":8272:8276   */\n      dup5\n        /* \"#utility.yul\":8228:8293   */\n      tag_72\n      jump\t// in\n    tag_176:\n        /* \"#utility.yul\":8163:8299   */\n      pop\n        /* \"#utility.yul\":8110:8299   */\n      pop\n      pop\n      jump\t// out\n        /* \"#utility.yul\":8305:8491   */\n    tag_75:\n        /* \"#utility.yul\":8365:8485   */\n    tag_178:\n        /* \"#utility.yul\":8382:8385   */\n      dup2\n        /* \"#utility.yul\":8375:8380   */\n      dup2\n        /* \"#utility.yul\":8372:8386   */\n      lt\n        /* \"#utility.yul\":8365:8485   */\n      iszero\n      tag_180\n      jumpi\n        /* \"#utility.yul\":8436:8475   */\n      tag_181\n        /* \"#utility.yul\":8473:8474   */\n      0x00\n        /* \"#utility.yul\":8466:8471   */\n      dup3\n        /* \"#utility.yul\":8436:8475   */\n      tag_74\n      jump\t// in\n    tag_181:\n        /* \"#utility.yul\":8409:8410   */\n      0x01\n        /* \"#utility.yul\":8402:8407   */\n      dup2\n        /* \"#utility.yul\":8398:8411   */\n      add\n        /* \"#utility.yul\":8389:8411   */\n      swap1\n      pop\n        /* \"#utility.yul\":8365:8485   */\n      jump(tag_178)\n    tag_180:\n        /* \"#utility.yul\":8305:8491   */\n      pop\n      pop\n      jump\t// out\n        /* \"#utility.yul\":8497:9040   */\n    tag_76:\n        /* \"#utility.yul\":8598:8600   */\n      0x1f\n        /* \"#utility.yul\":8593:8596   */\n      dup3\n        /* \"#utility.yul\":8590:8601   */\n      gt\n        /* \"#utility.yul\":8587:9033   */\n      iszero\n      tag_183\n      jumpi\n        /* \"#utility.yul\":8632:8670   */\n      tag_184\n        /* \"#utility.yul\":8664:8669   */\n      dup2\n        /* \"#utility.yul\":8632:8670   */\n      tag_65\n      jump\t// in\n    tag_184:\n        /* \"#utility.yul\":8716:8745   */\n      tag_185\n        /* \"#utility.yul\":8734:8744   */\n      dup5\n        /* \"#utility.yul\":8716:8745   */\n      tag_66\n      jump\t// in\n    tag_185:\n        /* \"#utility.yul\":8706:8714   */\n      dup2\n        /* \"#utility.yul\":8702:8746   */\n      add\n        /* \"#utility.yul\":8899:8901   */\n      0x20\n        /* \"#utility.yul\":8887:8897   */\n      dup6\n        /* \"#utility.yul\":8884:8902   */\n      lt\n        /* \"#utility.yul\":8881:8930   */\n      iszero\n      tag_186\n      jumpi\n        /* \"#utility.yul\":8920:8928   */\n      dup2\n        /* \"#utility.yul\":8905:8928   */\n      swap1\n      pop\n        /* \"#utility.yul\":8881:8930   */\n    tag_186:\n        /* \"#utility.yul\":8943:9023   */\n      tag_187\n        /* \"#utility.yul\":8999:9021   */\n      tag_188\n        /* \"#utility.yul\":9017:9020   */\n      dup6\n        /* \"#utility.yul\":8999:9021   */\n      tag_66\n      jump\t// in\n    tag_188:\n        /* \"#utility.yul\":8989:8997   */\n      dup4\n        /* \"#utility.yul\":8985:9022   */\n      add\n        /* \"#utility.yul\":8972:8983   */\n      dup3\n        /* \"#utility.yul\":8943:9023   */\n      tag_75\n      jump\t// in\n    tag_187:\n        /* \"#utility.yul\":8602:9033   */\n      pop\n      pop\n        /* \"#utility.yul\":8587:9033   */\n    tag_183:\n        /* \"#utility.yul\":8497:9040   */\n      pop\n      pop\n      pop\n      jump\t// out\n        /* \"#utility.yul\":9046:9163   */\n    tag_77:\n        /* \"#utility.yul\":9100:9108   */\n      0x00\n        /* \"#utility.yul\":9150:9155   */\n      dup3\n        /* \"#utility.yul\":9144:9148   */\n      dup3\n        /* \"#utility.yul\":9140:9156   */\n      shr\n        /* \"#utility.yul\":9119:9156   */\n      swap1\n      pop\n        /* \"#utility.yul\":9046:9163   */\n      swap3\n      swap2\n      pop\n      pop\n      jump\t// out\n        /* \"#utility.yul\":9169:9338   */\n    tag_78:\n        /* \"#utility.yul\":9213:9219   */\n      0x00\n        /* \"#utility.yul\":9246:9297   */\n      tag_191\n        /* \"#utility.yul\":9294:9295   */\n      0x00\n        /* \"#utility.yul\":9290:9296   */\n      not\n        /* \"#utility.yul\":9282:9287   */\n      dup5\n        /* \"#utility.yul\":9279:9280   */\n      0x08\n        /* \"#utility.yul\":9275:9288   */\n      mul\n        /* \"#utility.yul\":9246:9297   */\n      tag_77\n      jump\t// in\n    tag_191:\n        /* \"#utility.yul\":9242:9298   */\n      not\n        /* \"#utility.yul\":9327:9331   */\n      dup1\n        /* \"#utility.yul\":9321:9325   */\n      dup4\n        /* \"#utility.yul\":9317:9332   */\n      and\n        /* \"#utility.yul\":9307:9332   */\n      swap2\n      pop\n        /* \"#utility.yul\":9220:9338   */\n      pop\n        /* \"#utility.yul\":9169:9338   */\n      swap3\n      swap2\n      pop\n      pop\n      jump\t// out\n        /* \"#utility.yul\":9343:9638   */\n    tag_79:\n        /* \"#utility.yul\":9419:9423   */\n      0x00\n        /* \"#utility.yul\":9565:9594   */\n      tag_193\n        /* \"#utility.yul\":9590:9593   */\n      dup4\n        /* \"#utility.yul\":9584:9588   */\n      dup4\n        /* \"#utility.yul\":9565:9594   */\n      tag_78\n      jump\t// in\n    tag_193:\n        /* \"#utility.yul\":9557:9594   */\n      swap2\n      pop\n        /* \"#utility.yul\":9627:9630   */\n      dup3\n        /* \"#utility.yul\":9624:9625   */\n      0x02\n        /* \"#utility.yul\":9620:9631   */\n      mul\n        /* \"#utility.yul\":9614:9618   */\n      dup3\n        /* \"#utility.yul\":9611:9632   */\n      or\n        /* \"#utility.yul\":9603:9632   */\n      swap1\n      pop\n        /* \"#utility.yul\":9343:9638   */\n      swap3\n      swap2\n      pop\n      pop\n      jump\t// out\n        /* \"#utility.yul\":9643:11038   */\n    tag_30:\n        /* \"#utility.yul\":9760:9797   */\n      tag_195\n        /* \"#utility.yul\":9793:9796   */\n      dup3\n        /* \"#utility.yul\":9760:9797   */\n      tag_58\n      jump\t// in\n    tag_195:\n        /* \"#utility.yul\":9862:9880   */\n      0xffffffffffffffff\n        /* \"#utility.yul\":9854:9860   */\n      dup2\n        /* \"#utility.yul\":9851:9881   */\n      gt\n        /* \"#utility.yul\":9848:9904   */\n      iszero\n      tag_196\n      jumpi\n        /* \"#utility.yul\":9884:9902   */\n      tag_197\n      tag_51\n      jump\t// in\n    tag_197:\n        /* \"#utility.yul\":9848:9904   */\n    tag_196:\n        /* \"#utility.yul\":9928:9966   */\n      tag_198\n        /* \"#utility.yul\":9960:9964   */\n      dup3\n        /* \"#utility.yul\":9954:9965   */\n      sload\n        /* \"#utility.yul\":9928:9966   */\n      tag_37\n      jump\t// in\n    tag_198:\n        /* \"#utility.yul\":10013:10080   */\n      tag_199\n        /* \"#utility.yul\":10073:10079   */\n      dup3\n        /* \"#utility.yul\":10065:10071   */\n      dup3\n        /* \"#utility.yul\":10059:10063   */\n      dup6\n        /* \"#utility.yul\":10013:10080   */\n      tag_76\n      jump\t// in\n    tag_199:\n        /* \"#utility.yul\":10107:10108   */\n      0x00\n        /* \"#utility.yul\":10131:10135   */\n      0x20\n        /* \"#utility.yul\":10118:10135   */\n      swap1\n      pop\n        /* \"#utility.yul\":10163:10165   */\n      0x1f\n        /* \"#utility.yul\":10155:10161   */\n      dup4\n        /* \"#utility.yul\":10152:10166   */\n      gt\n        /* \"#utility.yul\":10180:10181   */\n      0x01\n        /* \"#utility.yul\":10175:10793   */\n      dup2\n      eq\n      tag_201\n      jumpi\n        /* \"#utility.yul\":10837:10838   */\n      0x00\n        /* \"#utility.yul\":10854:10860   */\n      dup5\n        /* \"#utility.yul\":10851:10928   */\n      iszero\n      tag_202\n      jumpi\n        /* \"#utility.yul\":10903:10912   */\n      dup3\n        /* \"#utility.yul\":10898:10901   */\n      dup8\n        /* \"#utility.yul\":10894:10913   */\n      add\n        /* \"#utility.yul\":10888:10914   */\n      mload\n        /* \"#utility.yul\":10879:10914   */\n      swap1\n      pop\n        /* \"#utility.yul\":10851:10928   */\n    tag_202:\n        /* \"#utility.yul\":10954:11021   */\n      tag_203\n        /* \"#utility.yul\":11014:11020   */\n      dup6\n        /* \"#utility.yul\":11007:11012   */\n      dup3\n        /* \"#utility.yul\":10954:11021   */\n      tag_79\n      jump\t// in\n    tag_203:\n        /* \"#utility.yul\":10948:10952   */\n      dup7\n        /* \"#utility.yul\":10941:11022   */\n      sstore\n        /* \"#utility.yul\":10810:11032   */\n      pop\n        /* \"#utility.yul\":10145:11032   */\n      jump(tag_200)\n        /* \"#utility.yul\":10175:10793   */\n    tag_201:\n        /* \"#utility.yul\":10227:10231   */\n      0x1f\n        /* \"#utility.yul\":10223:10232   */\n      not\n        /* \"#utility.yul\":10215:10221   */\n      dup5\n        /* \"#utility.yul\":10211:10233   */\n      and\n        /* \"#utility.yul\":10261:10298   */\n      tag_204\n        /* \"#utility.yul\":10293:10297   */\n      dup7\n        /* \"#utility.yul\":10261:10298   */\n      tag_65\n      jump\t// in\n    tag_204:\n        /* \"#utility.yul\":10320:10321   */\n      0x00\n        /* \"#utility.yul\":10334:10542   */\n    tag_205:\n        /* \"#utility.yul\":10348:10355   */\n      dup3\n        /* \"#utility.yul\":10345:10346   */\n      dup2\n        /* \"#utility.yul\":10342:10356   */\n      lt\n        /* \"#utility.yul\":10334:10542   */\n      iszero\n      tag_207\n      jumpi\n        /* \"#utility.yul\":10427:10436   */\n      dup5\n        /* \"#utility.yul\":10422:10425   */\n      dup10\n        /* \"#utility.yul\":10418:10437   */\n      add\n        /* \"#utility.yul\":10412:10438   */\n      mload\n        /* \"#utility.yul\":10404:10410   */\n      dup3\n        /* \"#utility.yul\":10397:10439   */\n      sstore\n        /* \"#utility.yul\":10478:10479   */\n      0x01\n        /* \"#utility.yul\":10470:10476   */\n      dup3\n        /* \"#utility.yul\":10466:10480   */\n      add\n        /* \"#utility.yul\":10456:10480   */\n      swap2\n      pop\n        /* \"#utility.yul\":10525:10527   */\n      0x20\n        /* \"#utility.yul\":10514:10523   */\n      dup6\n        /* \"#utility.yul\":10510:10528   */\n      add\n        /* \"#utility.yul\":10497:10528   */\n      swap5\n      pop\n        /* \"#utility.yul\":10371:10375   */\n      0x20\n        /* \"#utility.yul\":10368:10369   */\n      dup2\n        /* \"#utility.yul\":10364:10376   */\n      add\n        /* \"#utility.yul\":10359:10376   */\n      swap1\n      pop\n        /* \"#utility.yul\":10334:10542   */\n      jump(tag_205)\n    tag_207:\n        /* \"#utility.yul\":10570:10576   */\n      dup7\n        /* \"#utility.yul\":10561:10568   */\n      dup4\n        /* \"#utility.yul\":10558:10577   */\n      lt\n        /* \"#utility.yul\":10555:10734   */\n      iszero\n      tag_208\n      jumpi\n        /* \"#utility.yul\":10628:10637   */\n      dup5\n        /* \"#utility.yul\":10623:10626   */\n      dup10\n        /* \"#utility.yul\":10619:10638   */\n      add\n        /* \"#utility.yul\":10613:10639   */\n      mload\n        /* \"#utility.yul\":10671:10719   */\n      tag_209\n        /* \"#utility.yul\":10713:10717   */\n      0x1f\n        /* \"#utility.yul\":10705:10711   */\n      dup10\n        /* \"#utility.yul\":10701:10718   */\n      and\n        /* \"#utility.yul\":10690:10699   */\n      dup3\n        /* \"#utility.yul\":10671:10719   */\n      tag_78\n      jump\t// in\n    tag_209:\n        /* \"#utility.yul\":10663:10669   */\n      dup4\n        /* \"#utility.yul\":10656:10720   */\n      sstore\n        /* \"#utility.yul\":10578:10734   */\n      pop\n        /* \"#utility.yul\":10555:10734   */\n    tag_208:\n        /* \"#utility.yul\":10780:10781   */\n      0x01\n        /* \"#utility.yul\":10776:10777   */\n      0x02\n        /* \"#utility.yul\":10768:10774   */\n      dup9\n        /* \"#utility.yul\":10764:10778   */\n      mul\n        /* \"#utility.yul\":10760:10782   */\n      add\n        /* \"#utility.yul\":10754:10758   */\n      dup9\n        /* \"#utility.yul\":10747:10783   */\n      sstore\n        /* \"#utility.yul\":10182:10793   */\n      pop\n      pop\n      pop\n        /* \"#utility.yul\":10145:11032   */\n    tag_200:\n      pop\n        /* \"#utility.yul\":9735:11038   */\n      pop\n      pop\n      pop\n        /* \"#utility.yul\":9643:11038   */\n      pop\n      pop\n      jump\t// out\n\n    auxdata: 0xa2646970667358221220b6314221e6a92f30f538dcd505e000104c8fff58c3a808e53a0be79b8c475f5464736f6c634300080f0033\n}\n",
				"bytecode": {
					"linkReferences": {},
					"object": "608060405234801561001057600080fd5b506108c1806100206000396000f3fe608060405234801561001057600080fd5b506004361061004c5760003560e01c80633bc5de301461005157806389a8e2a71461005b578063b6a46b3b14610077578063bc8bc2b414610093575b600080fd5b6100596100c4565b005b610075600480360381019061007091906103d9565b6100c6565b005b610091600480360381019061008c9190610435565b610102565b005b6100ad60048036038101906100a8919061047e565b610180565b6040516100bb92919061054e565b60405180910390f35b565b60008083815481106100db576100da61057e565b5b90600052602060002090600202019050818160000190816100fc91906107b9565b50505050565b60006040518060400160405280838152602001600115158152509080600181540180825580915050600190039060005260206000209060020201600090919091909150600082015181600001908161015a91906107b9565b5060208201518160010160006101000a81548160ff021916908315150217905550505050565b6000818154811061019057600080fd5b90600052602060002090600202016000915090508060000180546101b3906105dc565b80601f01602080910402602001604051908101604052809291908181526020018280546101df906105dc565b801561022c5780601f106102015761010080835404028352916020019161022c565b820191906000526020600020905b81548152906001019060200180831161020f57829003601f168201915b5050505050908060010160009054906101000a900460ff16905082565b6000604051905090565b600080fd5b600080fd5b6000819050919050565b6102708161025d565b811461027b57600080fd5b50565b60008135905061028d81610267565b92915050565b600080fd5b600080fd5b6000601f19601f8301169050919050565b7f4e487b7100000000000000000000000000000000000000000000000000000000600052604160045260246000fd5b6102e68261029d565b810181811067ffffffffffffffff82111715610305576103046102ae565b5b80604052505050565b6000610318610249565b905061032482826102dd565b919050565b600067ffffffffffffffff821115610344576103436102ae565b5b61034d8261029d565b9050602081019050919050565b82818337600083830152505050565b600061037c61037784610329565b61030e565b90508281526020810184848401111561039857610397610298565b5b6103a384828561035a565b509392505050565b600082601f8301126103c0576103bf610293565b5b81356103d0848260208601610369565b91505092915050565b600080604083850312156103f0576103ef610253565b5b60006103fe8582860161027e565b925050602083013567ffffffffffffffff81111561041f5761041e610258565b5b61042b858286016103ab565b9150509250929050565b60006020828403121561044b5761044a610253565b5b600082013567ffffffffffffffff81111561046957610468610258565b5b610475848285016103ab565b91505092915050565b60006020828403121561049457610493610253565b5b60006104a28482850161027e565b91505092915050565b600081519050919050565b600082825260208201905092915050565b60005b838110156104e55780820151818401526020810190506104ca565b838111156104f4576000848401525b50505050565b6000610505826104ab565b61050f81856104b6565b935061051f8185602086016104c7565b6105288161029d565b840191505092915050565b60008115159050919050565b61054881610533565b82525050565b6000604082019050818103600083015261056881856104fa565b9050610577602083018461053f565b9392505050565b7f4e487b7100000000000000000000000000000000000000000000000000000000600052603260045260246000fd5b7f4e487b7100000000000000000000000000000000000000000000000000000000600052602260045260246000fd5b600060028204905060018216806105f457607f821691505b602082108103610607576106066105ad565b5b50919050565b60008190508160005260206000209050919050565b60006020601f8301049050919050565b600082821b905092915050565b60006008830261066f7fffffffffffffffffffffffffffffffffffffffffffffffffffffffffffffffff82610632565b6106798683610632565b95508019841693508086168417925050509392505050565b6000819050919050565b60006106b66106b16106ac8461025d565b610691565b61025d565b9050919050565b6000819050919050565b6106d08361069b565b6106e46106dc826106bd565b84845461063f565b825550505050565b600090565b6106f96106ec565b6107048184846106c7565b505050565b5b818110156107285761071d6000826106f1565b60018101905061070a565b5050565b601f82111561076d5761073e8161060d565b61074784610622565b81016020851015610756578190505b61076a61076285610622565b830182610709565b50505b505050565b600082821c905092915050565b600061079060001984600802610772565b1980831691505092915050565b60006107a9838361077f565b9150826002028217905092915050565b6107c2826104ab565b67ffffffffffffffff8111156107db576107da6102ae565b5b6107e582546105dc565b6107f082828561072c565b600060209050601f8311600181146108235760008415610811578287015190505b61081b858261079d565b865550610883565b601f1984166108318661060d565b60005b8281101561085957848901518255600182019150602085019450602081019050610834565b868310156108765784890151610872601f89168261077f565b8355505b6001600288020188555050505b50505050505056fea2646970667358221220b6314221e6a92f30f538dcd505e000104c8fff58c3a808e53a0be79b8c475f5464736f6c634300080f0033",
					"opcodes": "PUSH1 0x80 PUSH1 0x40 MSTORE CALLVALUE DUP1 ISZERO PUSH2 0x10 JUMPI PUSH1 0x0 DUP1 REVERT JUMPDEST POP PUSH2 0x8C1 DUP1 PUSH2 0x20 PUSH1 0x0 CODECOPY PUSH1 0x0 RETURN INVALID PUSH1 0x80 PUSH1 0x40 MSTORE CALLVALUE DUP1 ISZERO PUSH2 0x10 JUMPI PUSH1 0x0 DUP1 REVERT JUMPDEST POP PUSH1 0x4 CALLDATASIZE LT PUSH2 0x4C JUMPI PUSH1 0x0 CALLDATALOAD PUSH1 0xE0 SHR DUP1 PUSH4 0x3BC5DE30 EQ PUSH2 0x51 JUMPI DUP1 PUSH4 0x89A8E2A7 EQ PUSH2 0x5B JUMPI DUP1 PUSH4 0xB6A46B3B EQ PUSH2 0x77 JUMPI DUP1 PUSH4 0xBC8BC2B4 EQ PUSH2 0x93 JUMPI JUMPDEST PUSH1 0x0 DUP1 REVERT JUMPDEST PUSH2 0x59 PUSH2 0xC4 JUMP JUMPDEST STOP JUMPDEST PUSH2 0x75 PUSH1 0x4 DUP1 CALLDATASIZE SUB DUP2 ADD SWAP1 PUSH2 0x70 SWAP2 SWAP1 PUSH2 0x3D9 JUMP JUMPDEST PUSH2 0xC6 JUMP JUMPDEST STOP JUMPDEST PUSH2 0x91 PUSH1 0x4 DUP1 CALLDATASIZE SUB DUP2 ADD SWAP1 PUSH2 0x8C SWAP2 SWAP1 PUSH2 0x435 JUMP JUMPDEST PUSH2 0x102 JUMP JUMPDEST STOP JUMPDEST PUSH2 0xAD PUSH1 0x4 DUP1 CALLDATASIZE SUB DUP2 ADD SWAP1 PUSH2 0xA8 SWAP2 SWAP1 PUSH2 0x47E JUMP JUMPDEST PUSH2 0x180 JUMP JUMPDEST PUSH1 0x40 MLOAD PUSH2 0xBB SWAP3 SWAP2 SWAP1 PUSH2 0x54E JUMP JUMPDEST PUSH1 0x40 MLOAD DUP1 SWAP2 SUB SWAP1 RETURN JUMPDEST JUMP JUMPDEST PUSH1 0x0 DUP1 DUP4 DUP2 SLOAD DUP2 LT PUSH2 0xDB JUMPI PUSH2 0xDA PUSH2 0x57E JUMP JUMPDEST JUMPDEST SWAP1 PUSH1 0x0 MSTORE PUSH1 0x20 PUSH1 0x0 KECCAK256 SWAP1 PUSH1 0x2 MUL ADD SWAP1 POP DUP2 DUP2 PUSH1 0x0 ADD SWAP1 DUP2 PUSH2 0xFC SWAP2 SWAP1 PUSH2 0x7B9 JUMP JUMPDEST POP POP POP POP JUMP JUMPDEST PUSH1 0x0 PUSH1 0x40 MLOAD DUP1 PUSH1 0x40 ADD PUSH1 0x40 MSTORE DUP1 DUP4 DUP2 MSTORE PUSH1 0x20 ADD PUSH1 0x1 ISZERO ISZERO DUP2 MSTORE POP SWAP1 DUP1 PUSH1 0x1 DUP2 SLOAD ADD DUP1 DUP3 SSTORE DUP1 SWAP2 POP POP PUSH1 0x1 SWAP1 SUB SWAP1 PUSH1 0x0 MSTORE PUSH1 0x20 PUSH1 0x0 KECCAK256 SWAP1 PUSH1 0x2 MUL ADD PUSH1 0x0 SWAP1 SWAP2 SWAP1 SWAP2 SWAP1 SWAP2 POP PUSH1 0x0 DUP3 ADD MLOAD DUP2 PUSH1 0x0 ADD SWAP1 DUP2 PUSH2 0x15A SWAP2 SWAP1 PUSH2 0x7B9 JUMP JUMPDEST POP PUSH1 0x20 DUP3 ADD MLOAD DUP2 PUSH1 0x1 ADD PUSH1 0x0 PUSH2 0x100 EXP DUP2 SLOAD DUP2 PUSH1 0xFF MUL NOT AND SWAP1 DUP4 ISZERO ISZERO MUL OR SWAP1 SSTORE POP POP POP POP JUMP JUMPDEST PUSH1 0x0 DUP2 DUP2 SLOAD DUP2 LT PUSH2 0x190 JUMPI PUSH1 0x0 DUP1 REVERT JUMPDEST SWAP1 PUSH1 0x0 MSTORE PUSH1 0x20 PUSH1 0x0 KECCAK256 SWAP1 PUSH1 0x2 MUL ADD PUSH1 0x0 SWAP2 POP SWAP1 POP DUP1 PUSH1 0x0 ADD DUP1 SLOAD PUSH2 0x1B3 SWAP1 PUSH2 0x5DC JUMP JUMPDEST DUP1 PUSH1 0x1F ADD PUSH1 0x20 DUP1 SWAP2 DIV MUL PUSH1 0x20 ADD PUSH1 0x40 MLOAD SWAP1 DUP2 ADD PUSH1 0x40 MSTORE DUP1 SWAP3 SWAP2 SWAP1 DUP2 DUP2 MSTORE PUSH1 0x20 ADD DUP3 DUP1 SLOAD PUSH2 0x1DF SWAP1 PUSH2 0x5DC JUMP JUMPDEST DUP1 ISZERO PUSH2 0x22C JUMPI DUP1 PUSH1 0x1F LT PUSH2 0x201 JUMPI PUSH2 0x100 DUP1 DUP4 SLOAD DIV MUL DUP4 MSTORE SWAP2 PUSH1 0x20 ADD SWAP2 PUSH2 0x22C JUMP JUMPDEST DUP3 ADD SWAP2 SWAP1 PUSH1 0x0 MSTORE PUSH1 0x20 PUSH1 0x0 KECCAK256 SWAP1 JUMPDEST DUP2 SLOAD DUP2 MSTORE SWAP1 PUSH1 0x1 ADD SWAP1 PUSH1 0x20 ADD DUP1 DUP4 GT PUSH2 0x20F JUMPI DUP3 SWAP1 SUB PUSH1 0x1F AND DUP3 ADD SWAP2 JUMPDEST POP POP POP POP POP SWAP1 DUP1 PUSH1 0x1 ADD PUSH1 0x0 SWAP1 SLOAD SWAP1 PUSH2 0x100 EXP SWAP1 DIV PUSH1 0xFF AND SWAP1 POP DUP3 JUMP JUMPDEST PUSH1 0x0 PUSH1 0x40 MLOAD SWAP1 POP SWAP1 JUMP JUMPDEST PUSH1 0x0 DUP1 REVERT JUMPDEST PUSH1 0x0 DUP1 REVERT JUMPDEST PUSH1 0x0 DUP2 SWAP1 POP SWAP2 SWAP1 POP JUMP JUMPDEST PUSH2 0x270 DUP2 PUSH2 0x25D JUMP JUMPDEST DUP2 EQ PUSH2 0x27B JUMPI PUSH1 0x0 DUP1 REVERT JUMPDEST POP JUMP JUMPDEST PUSH1 0x0 DUP2 CALLDATALOAD SWAP1 POP PUSH2 0x28D DUP2 PUSH2 0x267 JUMP JUMPDEST SWAP3 SWAP2 POP POP JUMP JUMPDEST PUSH1 0x0 DUP1 REVERT JUMPDEST PUSH1 0x0 DUP1 REVERT JUMPDEST PUSH1 0x0 PUSH1 0x1F NOT PUSH1 0x1F DUP4 ADD AND SWAP1 POP SWAP2 SWAP1 POP JUMP JUMPDEST PUSH32 0x4E487B7100000000000000000000000000000000000000000000000000000000 PUSH1 0x0 MSTORE PUSH1 0x41 PUSH1 0x4 MSTORE PUSH1 0x24 PUSH1 0x0 REVERT JUMPDEST PUSH2 0x2E6 DUP3 PUSH2 0x29D JUMP JUMPDEST DUP2 ADD DUP2 DUP2 LT PUSH8 0xFFFFFFFFFFFFFFFF DUP3 GT OR ISZERO PUSH2 0x305 JUMPI PUSH2 0x304 PUSH2 0x2AE JUMP JUMPDEST JUMPDEST DUP1 PUSH1 0x40 MSTORE POP POP POP JUMP JUMPDEST PUSH1 0x0 PUSH2 0x318 PUSH2 0x249 JUMP JUMPDEST SWAP1 POP PUSH2 0x324 DUP3 DUP3 PUSH2 0x2DD JUMP JUMPDEST SWAP2 SWAP1 POP JUMP JUMPDEST PUSH1 0x0 PUSH8 0xFFFFFFFFFFFFFFFF DUP3 GT ISZERO PUSH2 0x344 JUMPI PUSH2 0x343 PUSH2 0x2AE JUMP JUMPDEST JUMPDEST PUSH2 0x34D DUP3 PUSH2 0x29D JUMP JUMPDEST SWAP1 POP PUSH1 0x20 DUP2 ADD SWAP1 POP SWAP2 SWAP1 POP JUMP JUMPDEST DUP3 DUP2 DUP4 CALLDATACOPY PUSH1 0x0 DUP4 DUP4 ADD MSTORE POP POP POP JUMP JUMPDEST PUSH1 0x0 PUSH2 0x37C PUSH2 0x377 DUP5 PUSH2 0x329 JUMP JUMPDEST PUSH2 0x30E JUMP JUMPDEST SWAP1 POP DUP3 DUP2 MSTORE PUSH1 0x20 DUP2 ADD DUP5 DUP5 DUP5 ADD GT ISZERO PUSH2 0x398 JUMPI PUSH2 0x397 PUSH2 0x298 JUMP JUMPDEST JUMPDEST PUSH2 0x3A3 DUP5 DUP3 DUP6 PUSH2 0x35A JUMP JUMPDEST POP SWAP4 SWAP3 POP POP POP JUMP JUMPDEST PUSH1 0x0 DUP3 PUSH1 0x1F DUP4 ADD SLT PUSH2 0x3C0 JUMPI PUSH2 0x3BF PUSH2 0x293 JUMP JUMPDEST JUMPDEST DUP2 CALLDATALOAD PUSH2 0x3D0 DUP5 DUP3 PUSH1 0x20 DUP7 ADD PUSH2 0x369 JUMP JUMPDEST SWAP2 POP POP SWAP3 SWAP2 POP POP JUMP JUMPDEST PUSH1 0x0 DUP1 PUSH1 0x40 DUP4 DUP6 SUB SLT ISZERO PUSH2 0x3F0 JUMPI PUSH2 0x3EF PUSH2 0x253 JUMP JUMPDEST JUMPDEST PUSH1 0x0 PUSH2 0x3FE DUP6 DUP3 DUP7 ADD PUSH2 0x27E JUMP JUMPDEST SWAP3 POP POP PUSH1 0x20 DUP4 ADD CALLDATALOAD PUSH8 0xFFFFFFFFFFFFFFFF DUP2 GT ISZERO PUSH2 0x41F JUMPI PUSH2 0x41E PUSH2 0x258 JUMP JUMPDEST JUMPDEST PUSH2 0x42B DUP6 DUP3 DUP7 ADD PUSH2 0x3AB JUMP JUMPDEST SWAP2 POP POP SWAP3 POP SWAP3 SWAP1 POP JUMP JUMPDEST PUSH1 0x0 PUSH1 0x20 DUP3 DUP5 SUB SLT ISZERO PUSH2 0x44B JUMPI PUSH2 0x44A PUSH2 0x253 JUMP JUMPDEST JUMPDEST PUSH1 0x0 DUP3 ADD CALLDATALOAD PUSH8 0xFFFFFFFFFFFFFFFF DUP2 GT ISZERO PUSH2 0x469 JUMPI PUSH2 0x468 PUSH2 0x258 JUMP JUMPDEST JUMPDEST PUSH2 0x475 DUP5 DUP3 DUP6 ADD PUSH2 0x3AB JUMP JUMPDEST SWAP2 POP POP SWAP3 SWAP2 POP POP JUMP JUMPDEST PUSH1 0x0 PUSH1 0x20 DUP3 DUP5 SUB SLT ISZERO PUSH2 0x494 JUMPI PUSH2 0x493 PUSH2 0x253 JUMP JUMPDEST JUMPDEST PUSH1 0x0 PUSH2 0x4A2 DUP5 DUP3 DUP6 ADD PUSH2 0x27E JUMP JUMPDEST SWAP2 POP POP SWAP3 SWAP2 POP POP JUMP JUMPDEST PUSH1 0x0 DUP2 MLOAD SWAP1 POP SWAP2 SWAP1 POP JUMP JUMPDEST PUSH1 0x0 DUP3 DUP3 MSTORE PUSH1 0x20 DUP3 ADD SWAP1 POP SWAP3 SWAP2 POP POP JUMP JUMPDEST PUSH1 0x0 JUMPDEST DUP4 DUP2 LT ISZERO PUSH2 0x4E5 JUMPI DUP1 DUP3 ADD MLOAD DUP2 DUP5 ADD MSTORE PUSH1 0x20 DUP2 ADD SWAP1 POP PUSH2 0x4CA JUMP JUMPDEST DUP4 DUP2 GT ISZERO PUSH2 0x4F4 JUMPI PUSH1 0x0 DUP5 DUP5 ADD MSTORE JUMPDEST POP POP POP POP JUMP JUMPDEST PUSH1 0x0 PUSH2 0x505 DUP3 PUSH2 0x4AB JUMP JUMPDEST PUSH2 0x50F DUP2 DUP6 PUSH2 0x4B6 JUMP JUMPDEST SWAP4 POP PUSH2 0x51F DUP2 DUP6 PUSH1 0x20 DUP7 ADD PUSH2 0x4C7 JUMP JUMPDEST PUSH2 0x528 DUP2 PUSH2 0x29D JUMP JUMPDEST DUP5 ADD SWAP2 POP POP SWAP3 SWAP2 POP POP JUMP JUMPDEST PUSH1 0x0 DUP2 ISZERO ISZERO SWAP1 POP SWAP2 SWAP1 POP JUMP JUMPDEST PUSH2 0x548 DUP2 PUSH2 0x533 JUMP JUMPDEST DUP3 MSTORE POP POP JUMP JUMPDEST PUSH1 0x0 PUSH1 0x40 DUP3 ADD SWAP1 POP DUP2 DUP2 SUB PUSH1 0x0 DUP4 ADD MSTORE PUSH2 0x568 DUP2 DUP6 PUSH2 0x4FA JUMP JUMPDEST SWAP1 POP PUSH2 0x577 PUSH1 0x20 DUP4 ADD DUP5 PUSH2 0x53F JUMP JUMPDEST SWAP4 SWAP3 POP POP POP JUMP JUMPDEST PUSH32 0x4E487B7100000000000000000000000000000000000000000000000000000000 PUSH1 0x0 MSTORE PUSH1 0x32 PUSH1 0x4 MSTORE PUSH1 0x24 PUSH1 0x0 REVERT JUMPDEST PUSH32 0x4E487B7100000000000000000000000000000000000000000000000000000000 PUSH1 0x0 MSTORE PUSH1 0x22 PUSH1 0x4 MSTORE PUSH1 0x24 PUSH1 0x0 REVERT JUMPDEST PUSH1 0x0 PUSH1 0x2 DUP3 DIV SWAP1 POP PUSH1 0x1 DUP3 AND DUP1 PUSH2 0x5F4 JUMPI PUSH1 0x7F DUP3 AND SWAP2 POP JUMPDEST PUSH1 0x20 DUP3 LT DUP2 SUB PUSH2 0x607 JUMPI PUSH2 0x606 PUSH2 0x5AD JUMP JUMPDEST JUMPDEST POP SWAP2 SWAP1 POP JUMP JUMPDEST PUSH1 0x0 DUP2 SWAP1 POP DUP2 PUSH1 0x0 MSTORE PUSH1 0x20 PUSH1 0x0 KECCAK256 SWAP1 POP SWAP2 SWAP1 POP JUMP JUMPDEST PUSH1 0x0 PUSH1 0x20 PUSH1 0x1F DUP4 ADD DIV SWAP1 POP SWAP2 SWAP1 POP JUMP JUMPDEST PUSH1 0x0 DUP3 DUP3 SHL SWAP1 POP SWAP3 SWAP2 POP POP JUMP JUMPDEST PUSH1 0x0 PUSH1 0x8 DUP4 MUL PUSH2 0x66F PUSH32 0xFFFFFFFFFFFFFFFFFFFFFFFFFFFFFFFFFFFFFFFFFFFFFFFFFFFFFFFFFFFFFFFF DUP3 PUSH2 0x632 JUMP JUMPDEST PUSH2 0x679 DUP7 DUP4 PUSH2 0x632 JUMP JUMPDEST SWAP6 POP DUP1 NOT DUP5 AND SWAP4 POP DUP1 DUP7 AND DUP5 OR SWAP3 POP POP POP SWAP4 SWAP3 POP POP POP JUMP JUMPDEST PUSH1 0x0 DUP2 SWAP1 POP SWAP2 SWAP1 POP JUMP JUMPDEST PUSH1 0x0 PUSH2 0x6B6 PUSH2 0x6B1 PUSH2 0x6AC DUP5 PUSH2 0x25D JUMP JUMPDEST PUSH2 0x691 JUMP JUMPDEST PUSH2 0x25D JUMP JUMPDEST SWAP1 POP SWAP2 SWAP1 POP JUMP JUMPDEST PUSH1 0x0 DUP2 SWAP1 POP SWAP2 SWAP1 POP JUMP JUMPDEST PUSH2 0x6D0 DUP4 PUSH2 0x69B JUMP JUMPDEST PUSH2 0x6E4 PUSH2 0x6DC DUP3 PUSH2 0x6BD JUMP JUMPDEST DUP5 DUP5 SLOAD PUSH2 0x63F JUMP JUMPDEST DUP3 SSTORE POP POP POP POP JUMP JUMPDEST PUSH1 0x0 SWAP1 JUMP JUMPDEST PUSH2 0x6F9 PUSH2 0x6EC JUMP JUMPDEST PUSH2 0x704 DUP2 DUP5 DUP5 PUSH2 0x6C7 JUMP JUMPDEST POP POP POP JUMP JUMPDEST JUMPDEST DUP2 DUP2 LT ISZERO PUSH2 0x728 JUMPI PUSH2 0x71D PUSH1 0x0 DUP3 PUSH2 0x6F1 JUMP JUMPDEST PUSH1 0x1 DUP2 ADD SWAP1 POP PUSH2 0x70A JUMP JUMPDEST POP POP JUMP JUMPDEST PUSH1 0x1F DUP3 GT ISZERO PUSH2 0x76D JUMPI PUSH2 0x73E DUP2 PUSH2 0x60D JUMP JUMPDEST PUSH2 0x747 DUP5 PUSH2 0x622 JUMP JUMPDEST DUP2 ADD PUSH1 0x20 DUP6 LT ISZERO PUSH2 0x756 JUMPI DUP2 SWAP1 POP JUMPDEST PUSH2 0x76A PUSH2 0x762 DUP6 PUSH2 0x622 JUMP JUMPDEST DUP4 ADD DUP3 PUSH2 0x709 JUMP JUMPDEST POP POP JUMPDEST POP POP POP JUMP JUMPDEST PUSH1 0x0 DUP3 DUP3 SHR SWAP1 POP SWAP3 SWAP2 POP POP JUMP JUMPDEST PUSH1 0x0 PUSH2 0x790 PUSH1 0x0 NOT DUP5 PUSH1 0x8 MUL PUSH2 0x772 JUMP JUMPDEST NOT DUP1 DUP4 AND SWAP2 POP POP SWAP3 SWAP2 POP POP JUMP JUMPDEST PUSH1 0x0 PUSH2 0x7A9 DUP4 DUP4 PUSH2 0x77F JUMP JUMPDEST SWAP2 POP DUP3 PUSH1 0x2 MUL DUP3 OR SWAP1 POP SWAP3 SWAP2 POP POP JUMP JUMPDEST PUSH2 0x7C2 DUP3 PUSH2 0x4AB JUMP JUMPDEST PUSH8 0xFFFFFFFFFFFFFFFF DUP2 GT ISZERO PUSH2 0x7DB JUMPI PUSH2 0x7DA PUSH2 0x2AE JUMP JUMPDEST JUMPDEST PUSH2 0x7E5 DUP3 SLOAD PUSH2 0x5DC JUMP JUMPDEST PUSH2 0x7F0 DUP3 DUP3 DUP6 PUSH2 0x72C JUMP JUMPDEST PUSH1 0x0 PUSH1 0x20 SWAP1 POP PUSH1 0x1F DUP4 GT PUSH1 0x1 DUP2 EQ PUSH2 0x823 JUMPI PUSH1 0x0 DUP5 ISZERO PUSH2 0x811 JUMPI DUP3 DUP8 ADD MLOAD SWAP1 POP JUMPDEST PUSH2 0x81B DUP6 DUP3 PUSH2 0x79D JUMP JUMPDEST DUP7 SSTORE POP PUSH2 0x883 JUMP JUMPDEST PUSH1 0x1F NOT DUP5 AND PUSH2 0x831 DUP7 PUSH2 0x60D JUMP JUMPDEST PUSH1 0x0 JUMPDEST DUP3 DUP2 LT ISZERO PUSH2 0x859 JUMPI DUP5 DUP10 ADD MLOAD DUP3 SSTORE PUSH1 0x1 DUP3 ADD SWAP2 POP PUSH1 0x20 DUP6 ADD SWAP5 POP PUSH1 0x20 DUP2 ADD SWAP1 POP PUSH2 0x834 JUMP JUMPDEST DUP7 DUP4 LT ISZERO PUSH2 0x876 JUMPI DUP5 DUP10 ADD MLOAD PUSH2 0x872 PUSH1 0x1F DUP10 AND DUP3 PUSH2 0x77F JUMP JUMPDEST DUP4 SSTORE POP JUMPDEST PUSH1 0x1 PUSH1 0x2 DUP9 MUL ADD DUP9 SSTORE POP POP POP JUMPDEST POP POP POP POP POP POP JUMP INVALID LOG2 PUSH5 0x6970667358 0x22 SLT KECCAK256 0xB6 BALANCE TIMESTAMP 0x21 0xE6 0xA9 0x2F ADDRESS CREATE2 CODESIZE 0xDC 0xD5 SDIV 0xE0 STOP LT 0x4C DUP16 SELFDESTRUCT PC 0xC3 0xA8 ADDMOD 0xE5 GASPRICE SIGNEXTEND 0xE7 SWAP12 DUP13 SELFBALANCE 0x5F SLOAD PUSH5 0x736F6C6343 STOP ADDMOD 0xF STOP CALLER "
				},
				"gasEstimates": {
					"creation": {
						"codeDepositCost": "448200",
						"executionCost": "486",
						"totalCost": "448686"
					},
					"external": {
						"create(string)": "infinite",
						"getData()": "122",
						"todos(uint256)": "infinite",
						"updateData(uint256,string)": "infinite"
					}
				},
				"methodIdentifiers": {
					"create(string)": "b6a46b3b",
					"getData()": "3bc5de30",
					"todos(uint256)": "bc8bc2b4",
					"updateData(uint256,string)": "89a8e2a7"
				}
			},
			"storageLayout": {
				"storage": [
					{
						"astId": 10,
						"contract": "SolidityCodes/Todo_List.sol:Todo_List",
						"label": "todos",
						"offset": 0,
						"slot": "0",
						"type": "t_array(t_struct(Todo)6_storage)dyn_storage"
					}
				],
				"types": {
					"t_array(t_struct(Todo)6_storage)dyn_storage": {
						"base": "t_struct(Todo)6_storage",
						"encoding": "dynamic_array",
						"label": "struct Todo_List.Todo[]",
						"numberOfBytes": "32"
					},
					"t_bool": {
						"encoding": "inplace",
						"label": "bool",
						"numberOfBytes": "1"
					},
					"t_string_storage": {
						"encoding": "bytes",
						"label": "string",
						"numberOfBytes": "32"
					},
					"t_struct(Todo)6_storage": {
						"encoding": "inplace",
						"label": "struct Todo_List.Todo",
						"members": [
							{
								"astId": 3,
								"contract": "SolidityCodes/Todo_List.sol:Todo_List",
								"label": "text",
								"offset": 0,
								"slot": "0",
								"type": "t_string_storage"
							},
							{
								"astId": 5,
								"contract": "SolidityCodes/Todo_List.sol:Todo_List",
								"label": "complete",
								"offset": 0,
								"slot": "1",
								"type": "t_bool"
							}
						],
						"numberOfBytes": "64"
					}
				}
			},
			"userdoc": {
				"kind": "user",
				"methods": {},
				"version": 1
			}
		}
	}
}