{
	"SolidityCodes/Enum.sol": {
		"Enum": {
			"abi": [
				{
					"inputs": [],
					"name": "cancel",
					"outputs": [],
					"stateMutability": "nonpayable",
					"type": "function"
				},
				{
					"inputs": [],
					"name": "get",
					"outputs": [
						{
							"internalType": "enum Enum.Person",
							"name": "",
							"type": "uint8"
						}
					],
					"stateMutability": "view",
					"type": "function"
				},
				{
					"inputs": [],
					"name": "person",
					"outputs": [
						{
							"internalType": "enum Enum.Person",
							"name": "",
							"type": "uint8"
						}
					],
					"stateMutability": "view",
					"type": "function"
				},
				{
					"inputs": [
						{
							"internalType": "enum Enum.Person",
							"name": "_person",
							"type": "uint8"
						}
					],
					"name": "set",
					"outputs": [],
					"stateMutability": "nonpayable",
					"type": "function"
				}
			],
			"devdoc": {
				"kind": "dev",
				"methods": {},
				"version": 1
			},
			"evm": {
				"assembly": "    /* \"SolidityCodes/Enum.sol\":61:372  contract Enum{... */\n  mstore(0x40, 0x80)\n  callvalue\n  dup1\n  iszero\n  tag_1\n  jumpi\n  0x00\n  dup1\n  revert\ntag_1:\n  pop\n  dataSize(sub_0)\n  dup1\n  dataOffset(sub_0)\n  0x00\n  codecopy\n  0x00\n  return\nstop\n\nsub_0: assembly {\n        /* \"SolidityCodes/Enum.sol\":61:372  contract Enum{... */\n      mstore(0x40, 0x80)\n      callvalue\n      dup1\n      iszero\n      tag_1\n      jumpi\n      0x00\n      dup1\n      revert\n    tag_1:\n      pop\n      jumpi(tag_2, lt(calldatasize, 0x04))\n      shr(0xe0, calldataload(0x00))\n      dup1\n      0x24b8ba5f\n      eq\n      tag_3\n      jumpi\n      dup1\n      0x6d4ce63c\n      eq\n      tag_4\n      jumpi\n      dup1\n      0x77ec2b55\n      eq\n      tag_5\n      jumpi\n      dup1\n      0xea8a1af0\n      eq\n      tag_6\n      jumpi\n    tag_2:\n      0x00\n      dup1\n      revert\n        /* \"SolidityCodes/Enum.sol\":251:319  function set(Person _person) public{... */\n    tag_3:\n      tag_7\n      0x04\n      dup1\n      calldatasize\n      sub\n      dup2\n      add\n      swap1\n      tag_8\n      swap2\n      swap1\n      tag_9\n      jump\t// in\n    tag_8:\n      tag_10\n      jump\t// in\n    tag_7:\n      stop\n        /* \"SolidityCodes/Enum.sol\":169:243  function get() public view returns(Person){... */\n    tag_4:\n      tag_11\n      tag_12\n      jump\t// in\n    tag_11:\n      mload(0x40)\n      tag_13\n      swap2\n      swap1\n      tag_14\n      jump\t// in\n    tag_13:\n      mload(0x40)\n      dup1\n      swap2\n      sub\n      swap1\n      return\n        /* \"SolidityCodes/Enum.sol\":140:160  Person public person */\n    tag_5:\n      tag_15\n      tag_16\n      jump\t// in\n    tag_15:\n      mload(0x40)\n      tag_17\n      swap2\n      swap1\n      tag_14\n      jump\t// in\n    tag_17:\n      mload(0x40)\n      dup1\n      swap2\n      sub\n      swap1\n      return\n        /* \"SolidityCodes/Enum.sol\":327:369  function cancel() public{... */\n    tag_6:\n      tag_18\n      tag_19\n      jump\t// in\n    tag_18:\n      stop\n        /* \"SolidityCodes/Enum.sol\":251:319  function set(Person _person) public{... */\n    tag_10:\n        /* \"SolidityCodes/Enum.sol\":304:311  _person */\n      dup1\n        /* \"SolidityCodes/Enum.sol\":297:303  person */\n      0x00\n      dup1\n        /* \"SolidityCodes/Enum.sol\":297:311  person=_person */\n      0x0100\n      exp\n      dup2\n      sload\n      dup2\n      0xff\n      mul\n      not\n      and\n      swap1\n      dup4\n      0x03\n      dup2\n      gt\n      iszero\n      tag_21\n      jumpi\n      tag_22\n      tag_23\n      jump\t// in\n    tag_22:\n    tag_21:\n      mul\n      or\n      swap1\n      sstore\n      pop\n        /* \"SolidityCodes/Enum.sol\":251:319  function set(Person _person) public{... */\n      pop\n      jump\t// out\n        /* \"SolidityCodes/Enum.sol\":169:243  function get() public view returns(Person){... */\n    tag_12:\n        /* \"SolidityCodes/Enum.sol\":204:210  Person */\n      0x00\n        /* \"SolidityCodes/Enum.sol\":229:235  person */\n      dup1\n      0x00\n      swap1\n      sload\n      swap1\n      0x0100\n      exp\n      swap1\n      div\n      0xff\n      and\n        /* \"SolidityCodes/Enum.sol\":222:235  return person */\n      swap1\n      pop\n        /* \"SolidityCodes/Enum.sol\":169:243  function get() public view returns(Person){... */\n      swap1\n      jump\t// out\n        /* \"SolidityCodes/Enum.sol\":140:160  Person public person */\n    tag_16:\n      0x00\n      dup1\n      sload\n      swap1\n      0x0100\n      exp\n      swap1\n      div\n      0xff\n      and\n      dup2\n      jump\t// out\n        /* \"SolidityCodes/Enum.sol\":327:369  function cancel() public{... */\n    tag_19:\n      jump\t// out\n        /* \"#utility.yul\":88:205   */\n    tag_27:\n        /* \"#utility.yul\":197:198   */\n      0x00\n        /* \"#utility.yul\":194:195   */\n      dup1\n        /* \"#utility.yul\":187:199   */\n      revert\n        /* \"#utility.yul\":334:441   */\n    tag_29:\n        /* \"#utility.yul\":415:416   */\n      0x04\n        /* \"#utility.yul\":408:413   */\n      dup2\n        /* \"#utility.yul\":405:417   */\n      lt\n        /* \"#utility.yul\":395:435   */\n      tag_40\n      jumpi\n        /* \"#utility.yul\":431:432   */\n      0x00\n        /* \"#utility.yul\":428:429   */\n      dup1\n        /* \"#utility.yul\":421:433   */\n      revert\n        /* \"#utility.yul\":395:435   */\n    tag_40:\n        /* \"#utility.yul\":334:441   */\n      pop\n      jump\t// out\n        /* \"#utility.yul\":447:602   */\n    tag_30:\n        /* \"#utility.yul\":501:506   */\n      0x00\n        /* \"#utility.yul\":539:545   */\n      dup2\n        /* \"#utility.yul\":526:546   */\n      calldataload\n        /* \"#utility.yul\":517:546   */\n      swap1\n      pop\n        /* \"#utility.yul\":555:596   */\n      tag_42\n        /* \"#utility.yul\":590:595   */\n      dup2\n        /* \"#utility.yul\":555:596   */\n      tag_29\n      jump\t// in\n    tag_42:\n        /* \"#utility.yul\":447:602   */\n      swap3\n      swap2\n      pop\n      pop\n      jump\t// out\n        /* \"#utility.yul\":608:953   */\n    tag_9:\n        /* \"#utility.yul\":675:681   */\n      0x00\n        /* \"#utility.yul\":724:726   */\n      0x20\n        /* \"#utility.yul\":712:721   */\n      dup3\n        /* \"#utility.yul\":703:710   */\n      dup5\n        /* \"#utility.yul\":699:722   */\n      sub\n        /* \"#utility.yul\":695:727   */\n      slt\n        /* \"#utility.yul\":692:811   */\n      iszero\n      tag_44\n      jumpi\n        /* \"#utility.yul\":730:809   */\n      tag_45\n      tag_27\n      jump\t// in\n    tag_45:\n        /* \"#utility.yul\":692:811   */\n    tag_44:\n        /* \"#utility.yul\":850:851   */\n      0x00\n        /* \"#utility.yul\":875:936   */\n      tag_46\n        /* \"#utility.yul\":928:935   */\n      dup5\n        /* \"#utility.yul\":919:925   */\n      dup3\n        /* \"#utility.yul\":908:917   */\n      dup6\n        /* \"#utility.yul\":904:926   */\n      add\n        /* \"#utility.yul\":875:936   */\n      tag_30\n      jump\t// in\n    tag_46:\n        /* \"#utility.yul\":865:936   */\n      swap2\n      pop\n        /* \"#utility.yul\":821:946   */\n      pop\n        /* \"#utility.yul\":608:953   */\n      swap3\n      swap2\n      pop\n      pop\n      jump\t// out\n        /* \"#utility.yul\":959:1139   */\n    tag_23:\n        /* \"#utility.yul\":1007:1084   */\n      0x4e487b7100000000000000000000000000000000000000000000000000000000\n        /* \"#utility.yul\":1004:1005   */\n      0x00\n        /* \"#utility.yul\":997:1085   */\n      mstore\n        /* \"#utility.yul\":1104:1108   */\n      0x21\n        /* \"#utility.yul\":1101:1102   */\n      0x04\n        /* \"#utility.yul\":1094:1109   */\n      mstore\n        /* \"#utility.yul\":1128:1132   */\n      0x24\n        /* \"#utility.yul\":1125:1126   */\n      0x00\n        /* \"#utility.yul\":1118:1133   */\n      revert\n        /* \"#utility.yul\":1145:1258   */\n    tag_31:\n        /* \"#utility.yul\":1226:1227   */\n      0x04\n        /* \"#utility.yul\":1219:1224   */\n      dup2\n        /* \"#utility.yul\":1216:1228   */\n      lt\n        /* \"#utility.yul\":1206:1252   */\n      tag_49\n      jumpi\n        /* \"#utility.yul\":1232:1250   */\n      tag_50\n      tag_23\n      jump\t// in\n    tag_50:\n        /* \"#utility.yul\":1206:1252   */\n    tag_49:\n        /* \"#utility.yul\":1145:1258   */\n      pop\n      jump\t// out\n        /* \"#utility.yul\":1264:1391   */\n    tag_32:\n        /* \"#utility.yul\":1309:1316   */\n      0x00\n        /* \"#utility.yul\":1338:1343   */\n      dup2\n        /* \"#utility.yul\":1327:1343   */\n      swap1\n      pop\n        /* \"#utility.yul\":1344:1385   */\n      tag_52\n        /* \"#utility.yul\":1379:1384   */\n      dup3\n        /* \"#utility.yul\":1344:1385   */\n      tag_31\n      jump\t// in\n    tag_52:\n        /* \"#utility.yul\":1264:1391   */\n      swap2\n      swap1\n      pop\n      jump\t// out\n        /* \"#utility.yul\":1397:1524   */\n    tag_33:\n        /* \"#utility.yul\":1453:1462   */\n      0x00\n        /* \"#utility.yul\":1486:1518   */\n      tag_54\n        /* \"#utility.yul\":1512:1517   */\n      dup3\n        /* \"#utility.yul\":1486:1518   */\n      tag_32\n      jump\t// in\n    tag_54:\n        /* \"#utility.yul\":1473:1518   */\n      swap1\n      pop\n        /* \"#utility.yul\":1397:1524   */\n      swap2\n      swap1\n      pop\n      jump\t// out\n        /* \"#utility.yul\":1530:1673   */\n    tag_34:\n        /* \"#utility.yul\":1623:1666   */\n      tag_56\n        /* \"#utility.yul\":1660:1665   */\n      dup2\n        /* \"#utility.yul\":1623:1666   */\n      tag_33\n      jump\t// in\n    tag_56:\n        /* \"#utility.yul\":1618:1621   */\n      dup3\n        /* \"#utility.yul\":1611:1667   */\n      mstore\n        /* \"#utility.yul\":1530:1673   */\n      pop\n      pop\n      jump\t// out\n        /* \"#utility.yul\":1679:1913   */\n    tag_14:\n        /* \"#utility.yul\":1778:1782   */\n      0x00\n        /* \"#utility.yul\":1816:1818   */\n      0x20\n        /* \"#utility.yul\":1805:1814   */\n      dup3\n        /* \"#utility.yul\":1801:1819   */\n      add\n        /* \"#utility.yul\":1793:1819   */\n      swap1\n      pop\n        /* \"#utility.yul\":1829:1906   */\n      tag_58\n        /* \"#utility.yul\":1903:1904   */\n      0x00\n        /* \"#utility.yul\":1892:1901   */\n      dup4\n        /* \"#utility.yul\":1888:1905   */\n      add\n        /* \"#utility.yul\":1879:1885   */\n      dup5\n        /* \"#utility.yul\":1829:1906   */\n      tag_34\n      jump\t// in\n    tag_58:\n        /* \"#utility.yul\":1679:1913   */\n      swap3\n      swap2\n      pop\n      pop\n      jump\t// out\n\n    auxdata: 0xa264697066735822122079e736247e645591e061a83630c4cc52db861a106b1922a2b610a1428d5e134764736f6c634300080f0033\n}\n",
				"bytecode": {
					"linkReferences": {},
					"object": "608060405234801561001057600080fd5b50610227806100206000396000f3fe608060405234801561001057600080fd5b506004361061004c5760003560e01c806324b8ba5f146100515780636d4ce63c1461006d57806377ec2b551461008b578063ea8a1af0146100a9575b600080fd5b61006b60048036038101906100669190610132565b6100b3565b005b6100756100df565b60405161008291906101d6565b60405180910390f35b6100936100f5565b6040516100a091906101d6565b60405180910390f35b6100b1610106565b005b806000806101000a81548160ff021916908360038111156100d7576100d661015f565b5b021790555050565b60008060009054906101000a900460ff16905090565b60008054906101000a900460ff1681565b565b600080fd5b6004811061011a57600080fd5b50565b60008135905061012c8161010d565b92915050565b60006020828403121561014857610147610108565b5b60006101568482850161011d565b91505092915050565b7f4e487b7100000000000000000000000000000000000000000000000000000000600052602160045260246000fd5b6004811061019f5761019e61015f565b5b50565b60008190506101b08261018e565b919050565b60006101c0826101a2565b9050919050565b6101d0816101b5565b82525050565b60006020820190506101eb60008301846101c7565b9291505056fea264697066735822122079e736247e645591e061a83630c4cc52db861a106b1922a2b610a1428d5e134764736f6c634300080f0033",
					"opcodes": "PUSH1 0x80 PUSH1 0x40 MSTORE CALLVALUE DUP1 ISZERO PUSH2 0x10 JUMPI PUSH1 0x0 DUP1 REVERT JUMPDEST POP PUSH2 0x227 DUP1 PUSH2 0x20 PUSH1 0x0 CODECOPY PUSH1 0x0 RETURN INVALID PUSH1 0x80 PUSH1 0x40 MSTORE CALLVALUE DUP1 ISZERO PUSH2 0x10 JUMPI PUSH1 0x0 DUP1 REVERT JUMPDEST POP PUSH1 0x4 CALLDATASIZE LT PUSH2 0x4C JUMPI PUSH1 0x0 CALLDATALOAD PUSH1 0xE0 SHR DUP1 PUSH4 0x24B8BA5F EQ PUSH2 0x51 JUMPI DUP1 PUSH4 0x6D4CE63C EQ PUSH2 0x6D JUMPI DUP1 PUSH4 0x77EC2B55 EQ PUSH2 0x8B JUMPI DUP1 PUSH4 0xEA8A1AF0 EQ PUSH2 0xA9 JUMPI JUMPDEST PUSH1 0x0 DUP1 REVERT JUMPDEST PUSH2 0x6B PUSH1 0x4 DUP1 CALLDATASIZE SUB DUP2 ADD SWAP1 PUSH2 0x66 SWAP2 SWAP1 PUSH2 0x132 JUMP JUMPDEST PUSH2 0xB3 JUMP JUMPDEST STOP JUMPDEST PUSH2 0x75 PUSH2 0xDF JUMP JUMPDEST PUSH1 0x40 MLOAD PUSH2 0x82 SWAP2 SWAP1 PUSH2 0x1D6 JUMP JUMPDEST PUSH1 0x40 MLOAD DUP1 SWAP2 SUB SWAP1 RETURN JUMPDEST PUSH2 0x93 PUSH2 0xF5 JUMP JUMPDEST PUSH1 0x40 MLOAD PUSH2 0xA0 SWAP2 SWAP1 PUSH2 0x1D6 JUMP JUMPDEST PUSH1 0x40 MLOAD DUP1 SWAP2 SUB SWAP1 RETURN JUMPDEST PUSH2 0xB1 PUSH2 0x106 JUMP JUMPDEST STOP JUMPDEST DUP1 PUSH1 0x0 DUP1 PUSH2 0x100 EXP DUP2 SLOAD DUP2 PUSH1 0xFF MUL NOT AND SWAP1 DUP4 PUSH1 0x3 DUP2 GT ISZERO PUSH2 0xD7 JUMPI PUSH2 0xD6 PUSH2 0x15F JUMP JUMPDEST JUMPDEST MUL OR SWAP1 SSTORE POP POP JUMP JUMPDEST PUSH1 0x0 DUP1 PUSH1 0x0 SWAP1 SLOAD SWAP1 PUSH2 0x100 EXP SWAP1 DIV PUSH1 0xFF AND SWAP1 POP SWAP1 JUMP JUMPDEST PUSH1 0x0 DUP1 SLOAD SWAP1 PUSH2 0x100 EXP SWAP1 DIV PUSH1 0xFF AND DUP2 JUMP JUMPDEST JUMP JUMPDEST PUSH1 0x0 DUP1 REVERT JUMPDEST PUSH1 0x4 DUP2 LT PUSH2 0x11A JUMPI PUSH1 0x0 DUP1 REVERT JUMPDEST POP JUMP JUMPDEST PUSH1 0x0 DUP2 CALLDATALOAD SWAP1 POP PUSH2 0x12C DUP2 PUSH2 0x10D JUMP JUMPDEST SWAP3 SWAP2 POP POP JUMP JUMPDEST PUSH1 0x0 PUSH1 0x20 DUP3 DUP5 SUB SLT ISZERO PUSH2 0x148 JUMPI PUSH2 0x147 PUSH2 0x108 JUMP JUMPDEST JUMPDEST PUSH1 0x0 PUSH2 0x156 DUP5 DUP3 DUP6 ADD PUSH2 0x11D JUMP JUMPDEST SWAP2 POP POP SWAP3 SWAP2 POP POP JUMP JUMPDEST PUSH32 0x4E487B7100000000000000000000000000000000000000000000000000000000 PUSH1 0x0 MSTORE PUSH1 0x21 PUSH1 0x4 MSTORE PUSH1 0x24 PUSH1 0x0 REVERT JUMPDEST PUSH1 0x4 DUP2 LT PUSH2 0x19F JUMPI PUSH2 0x19E PUSH2 0x15F JUMP JUMPDEST JUMPDEST POP JUMP JUMPDEST PUSH1 0x0 DUP2 SWAP1 POP PUSH2 0x1B0 DUP3 PUSH2 0x18E JUMP JUMPDEST SWAP2 SWAP1 POP JUMP JUMPDEST PUSH1 0x0 PUSH2 0x1C0 DUP3 PUSH2 0x1A2 JUMP JUMPDEST SWAP1 POP SWAP2 SWAP1 POP JUMP JUMPDEST PUSH2 0x1D0 DUP2 PUSH2 0x1B5 JUMP JUMPDEST DUP3 MSTORE POP POP JUMP JUMPDEST PUSH1 0x0 PUSH1 0x20 DUP3 ADD SWAP1 POP PUSH2 0x1EB PUSH1 0x0 DUP4 ADD DUP5 PUSH2 0x1C7 JUMP JUMPDEST SWAP3 SWAP2 POP POP JUMP INVALID LOG2 PUSH5 0x6970667358 0x22 SLT KECCAK256 PUSH26 0xE736247E645591E061A83630C4CC52DB861A106B1922A2B610A1 TIMESTAMP DUP14 0x5E SGT SELFBALANCE PUSH5 0x736F6C6343 STOP ADDMOD 0xF STOP CALLER "
				},
				"gasEstimates": {
					"creation": {
						"codeDepositCost": "110200",
						"executionCost": "159",
						"totalCost": "110359"
					},
					"external": {
						"cancel()": "188",
						"get()": "2568",
						"person()": "2579",
						"set(uint8)": "24628"
					}
				},
				"methodIdentifiers": {
					"cancel()": "ea8a1af0",
					"get()": "6d4ce63c",
					"person()": "77ec2b55",
					"set(uint8)": "24b8ba5f"
				}
			},
			"storageLayout": {
				"storage": [
					{
						"astId": 9,
						"contract": "SolidityCodes/Enum.sol:Enum",
						"label": "person",
						"offset": 0,
						"slot": "0",
						"type": "t_enum(Person)6"
					}
				],
				"types": {
					"t_enum(Person)6": {
						"encoding": "inplace",
						"label": "enum Enum.Person",
						"numberOfBytes": "1"
					}
				}
			},
			"userdoc": {
				"kind": "user",
				"methods": {},
				"version": 1
			}
		}
	}
}