{
	"SolidityCodes/Function.sol": {
		"Function": {
			"abi": [
				{
					"inputs": [],
					"name": "returnData",
					"outputs": [
						{
							"internalType": "uint256",
							"name": "",
							"type": "uint256"
						},
						{
							"internalType": "bool",
							"name": "",
							"type": "bool"
						},
						{
							"internalType": "uint256",
							"name": "",
							"type": "uint256"
						}
					],
					"stateMutability": "pure",
					"type": "function"
				},
				{
					"inputs": [],
					"name": "returnDataParams",
					"outputs": [
						{
							"internalType": "uint256",
							"name": "x",
							"type": "uint256"
						},
						{
							"internalType": "bool",
							"name": "b",
							"type": "bool"
						},
						{
							"internalType": "uint256",
							"name": "y",
							"type": "uint256"
						}
					],
					"stateMutability": "pure",
					"type": "function"
				}
			],
			"devdoc": {
				"kind": "dev",
				"methods": {},
				"version": 1
			},
			"evm": {
				"assembly": "    /* \"SolidityCodes/Function.sol\":61:303  contract Function{... */\n  mstore(0x40, 0x80)\n  callvalue\n  dup1\n  iszero\n  tag_1\n  jumpi\n  0x00\n  dup1\n  revert\ntag_1:\n  pop\n  dataSize(sub_0)\n  dup1\n  dataOffset(sub_0)\n  0x00\n  codecopy\n  0x00\n  return\nstop\n\nsub_0: assembly {\n        /* \"SolidityCodes/Function.sol\":61:303  contract Function{... */\n      mstore(0x40, 0x80)\n      callvalue\n      dup1\n      iszero\n      tag_1\n      jumpi\n      0x00\n      dup1\n      revert\n    tag_1:\n      pop\n      jumpi(tag_2, lt(calldatasize, 0x04))\n      shr(0xe0, calldataload(0x00))\n      dup1\n      0x18190617\n      eq\n      tag_3\n      jumpi\n      dup1\n      0xebddbaf6\n      eq\n      tag_4\n      jumpi\n    tag_2:\n      0x00\n      dup1\n      revert\n        /* \"SolidityCodes/Function.sol\":189:300  function returnDataParams() public pure returns(uint x, bool b, uint y){... */\n    tag_3:\n      tag_5\n      tag_6\n      jump\t// in\n    tag_5:\n      mload(0x40)\n      tag_7\n      swap4\n      swap3\n      swap2\n      swap1\n      tag_8\n      jump\t// in\n    tag_7:\n      mload(0x40)\n      dup1\n      swap2\n      sub\n      swap1\n      return\n        /* \"SolidityCodes/Function.sol\":85:181  function returnData() public pure returns(uint,bool,uint){... */\n    tag_4:\n      tag_9\n      tag_10\n      jump\t// in\n    tag_9:\n      mload(0x40)\n      tag_11\n      swap4\n      swap3\n      swap2\n      swap1\n      tag_8\n      jump\t// in\n    tag_11:\n      mload(0x40)\n      dup1\n      swap2\n      sub\n      swap1\n      return\n        /* \"SolidityCodes/Function.sol\":189:300  function returnDataParams() public pure returns(uint x, bool b, uint y){... */\n    tag_6:\n        /* \"SolidityCodes/Function.sol\":237:243  uint x */\n      0x00\n        /* \"SolidityCodes/Function.sol\":245:251  bool b */\n      dup1\n        /* \"SolidityCodes/Function.sol\":253:259  uint y */\n      0x00\n        /* \"SolidityCodes/Function.sol\":279:282  100 */\n      0x64\n        /* \"SolidityCodes/Function.sol\":283:287  true */\n      0x01\n        /* \"SolidityCodes/Function.sol\":288:291  500 */\n      0x01f4\n        /* \"SolidityCodes/Function.sol\":271:292  return (100,true,500) */\n      swap3\n      pop\n      swap3\n      pop\n      swap3\n      pop\n        /* \"SolidityCodes/Function.sol\":189:300  function returnDataParams() public pure returns(uint x, bool b, uint y){... */\n      swap1\n      swap2\n      swap3\n      jump\t// out\n        /* \"SolidityCodes/Function.sol\":85:181  function returnData() public pure returns(uint,bool,uint){... */\n    tag_10:\n        /* \"SolidityCodes/Function.sol\":127:131  uint */\n      0x00\n        /* \"SolidityCodes/Function.sol\":132:136  bool */\n      dup1\n        /* \"SolidityCodes/Function.sol\":137:141  uint */\n      0x00\n        /* \"SolidityCodes/Function.sol\":161:164  100 */\n      0x64\n        /* \"SolidityCodes/Function.sol\":165:169  true */\n      0x01\n        /* \"SolidityCodes/Function.sol\":170:172  50 */\n      0x32\n        /* \"SolidityCodes/Function.sol\":153:173  return (100,true,50) */\n      swap3\n      pop\n      swap3\n      pop\n      swap3\n      pop\n        /* \"SolidityCodes/Function.sol\":85:181  function returnData() public pure returns(uint,bool,uint){... */\n      swap1\n      swap2\n      swap3\n      jump\t// out\n        /* \"#utility.yul\":7:84   */\n    tag_14:\n        /* \"#utility.yul\":44:51   */\n      0x00\n        /* \"#utility.yul\":73:78   */\n      dup2\n        /* \"#utility.yul\":62:78   */\n      swap1\n      pop\n        /* \"#utility.yul\":7:84   */\n      swap2\n      swap1\n      pop\n      jump\t// out\n        /* \"#utility.yul\":90:208   */\n    tag_15:\n        /* \"#utility.yul\":177:201   */\n      tag_21\n        /* \"#utility.yul\":195:200   */\n      dup2\n        /* \"#utility.yul\":177:201   */\n      tag_14\n      jump\t// in\n    tag_21:\n        /* \"#utility.yul\":172:175   */\n      dup3\n        /* \"#utility.yul\":165:202   */\n      mstore\n        /* \"#utility.yul\":90:208   */\n      pop\n      pop\n      jump\t// out\n        /* \"#utility.yul\":214:304   */\n    tag_16:\n        /* \"#utility.yul\":248:255   */\n      0x00\n        /* \"#utility.yul\":291:296   */\n      dup2\n        /* \"#utility.yul\":284:297   */\n      iszero\n        /* \"#utility.yul\":277:298   */\n      iszero\n        /* \"#utility.yul\":266:298   */\n      swap1\n      pop\n        /* \"#utility.yul\":214:304   */\n      swap2\n      swap1\n      pop\n      jump\t// out\n        /* \"#utility.yul\":310:419   */\n    tag_17:\n        /* \"#utility.yul\":391:412   */\n      tag_24\n        /* \"#utility.yul\":406:411   */\n      dup2\n        /* \"#utility.yul\":391:412   */\n      tag_16\n      jump\t// in\n    tag_24:\n        /* \"#utility.yul\":386:389   */\n      dup3\n        /* \"#utility.yul\":379:413   */\n      mstore\n        /* \"#utility.yul\":310:419   */\n      pop\n      pop\n      jump\t// out\n        /* \"#utility.yul\":425:855   */\n    tag_8:\n        /* \"#utility.yul\":568:572   */\n      0x00\n        /* \"#utility.yul\":606:608   */\n      0x60\n        /* \"#utility.yul\":595:604   */\n      dup3\n        /* \"#utility.yul\":591:609   */\n      add\n        /* \"#utility.yul\":583:609   */\n      swap1\n      pop\n        /* \"#utility.yul\":619:690   */\n      tag_26\n        /* \"#utility.yul\":687:688   */\n      0x00\n        /* \"#utility.yul\":676:685   */\n      dup4\n        /* \"#utility.yul\":672:689   */\n      add\n        /* \"#utility.yul\":663:669   */\n      dup7\n        /* \"#utility.yul\":619:690   */\n      tag_15\n      jump\t// in\n    tag_26:\n        /* \"#utility.yul\":700:766   */\n      tag_27\n        /* \"#utility.yul\":762:764   */\n      0x20\n        /* \"#utility.yul\":751:760   */\n      dup4\n        /* \"#utility.yul\":747:765   */\n      add\n        /* \"#utility.yul\":738:744   */\n      dup6\n        /* \"#utility.yul\":700:766   */\n      tag_17\n      jump\t// in\n    tag_27:\n        /* \"#utility.yul\":776:848   */\n      tag_28\n        /* \"#utility.yul\":844:846   */\n      0x40\n        /* \"#utility.yul\":833:842   */\n      dup4\n        /* \"#utility.yul\":829:847   */\n      add\n        /* \"#utility.yul\":820:826   */\n      dup5\n        /* \"#utility.yul\":776:848   */\n      tag_15\n      jump\t// in\n    tag_28:\n        /* \"#utility.yul\":425:855   */\n      swap5\n      swap4\n      pop\n      pop\n      pop\n      pop\n      jump\t// out\n\n    auxdata: 0xa2646970667358221220d0a8a115705b8b95a7b0637fde0689d8bd530c5f31baab936727402dae2e4a1264736f6c634300080f0033\n}\n",
				"bytecode": {
					"linkReferences": {},
					"object": "608060405234801561001057600080fd5b50610133806100206000396000f3fe6080604052348015600f57600080fd5b506004361060325760003560e01c806318190617146037578063ebddbaf6146053575b600080fd5b603d606f565b604051604a9392919060cc565b60405180910390f35b60596086565b60405160669392919060cc565b60405180910390f35b6000806000606460016101f4925092509250909192565b6000806000606460016032925092509250909192565b6000819050919050565b60ad81609c565b82525050565b60008115159050919050565b60c68160b3565b82525050565b600060608201905060df600083018660a6565b60ea602083018560bf565b60f5604083018460a6565b94935050505056fea2646970667358221220d0a8a115705b8b95a7b0637fde0689d8bd530c5f31baab936727402dae2e4a1264736f6c634300080f0033",
					"opcodes": "PUSH1 0x80 PUSH1 0x40 MSTORE CALLVALUE DUP1 ISZERO PUSH2 0x10 JUMPI PUSH1 0x0 DUP1 REVERT JUMPDEST POP PUSH2 0x133 DUP1 PUSH2 0x20 PUSH1 0x0 CODECOPY PUSH1 0x0 RETURN INVALID PUSH1 0x80 PUSH1 0x40 MSTORE CALLVALUE DUP1 ISZERO PUSH1 0xF JUMPI PUSH1 0x0 DUP1 REVERT JUMPDEST POP PUSH1 0x4 CALLDATASIZE LT PUSH1 0x32 JUMPI PUSH1 0x0 CALLDATALOAD PUSH1 0xE0 SHR DUP1 PUSH4 0x18190617 EQ PUSH1 0x37 JUMPI DUP1 PUSH4 0xEBDDBAF6 EQ PUSH1 0x53 JUMPI JUMPDEST PUSH1 0x0 DUP1 REVERT JUMPDEST PUSH1 0x3D PUSH1 0x6F JUMP JUMPDEST PUSH1 0x40 MLOAD PUSH1 0x4A SWAP4 SWAP3 SWAP2 SWAP1 PUSH1 0xCC JUMP JUMPDEST PUSH1 0x40 MLOAD DUP1 SWAP2 SUB SWAP1 RETURN JUMPDEST PUSH1 0x59 PUSH1 0x86 JUMP JUMPDEST PUSH1 0x40 MLOAD PUSH1 0x66 SWAP4 SWAP3 SWAP2 SWAP1 PUSH1 0xCC JUMP JUMPDEST PUSH1 0x40 MLOAD DUP1 SWAP2 SUB SWAP1 RETURN JUMPDEST PUSH1 0x0 DUP1 PUSH1 0x0 PUSH1 0x64 PUSH1 0x1 PUSH2 0x1F4 SWAP3 POP SWAP3 POP SWAP3 POP SWAP1 SWAP2 SWAP3 JUMP JUMPDEST PUSH1 0x0 DUP1 PUSH1 0x0 PUSH1 0x64 PUSH1 0x1 PUSH1 0x32 SWAP3 POP SWAP3 POP SWAP3 POP SWAP1 SWAP2 SWAP3 JUMP JUMPDEST PUSH1 0x0 DUP2 SWAP1 POP SWAP2 SWAP1 POP JUMP JUMPDEST PUSH1 0xAD DUP2 PUSH1 0x9C JUMP JUMPDEST DUP3 MSTORE POP POP JUMP JUMPDEST PUSH1 0x0 DUP2 ISZERO ISZERO SWAP1 POP SWAP2 SWAP1 POP JUMP JUMPDEST PUSH1 0xC6 DUP2 PUSH1 0xB3 JUMP JUMPDEST DUP3 MSTORE POP POP JUMP JUMPDEST PUSH1 0x0 PUSH1 0x60 DUP3 ADD SWAP1 POP PUSH1 0xDF PUSH1 0x0 DUP4 ADD DUP7 PUSH1 0xA6 JUMP JUMPDEST PUSH1 0xEA PUSH1 0x20 DUP4 ADD DUP6 PUSH1 0xBF JUMP JUMPDEST PUSH1 0xF5 PUSH1 0x40 DUP4 ADD DUP5 PUSH1 0xA6 JUMP JUMPDEST SWAP5 SWAP4 POP POP POP POP JUMP INVALID LOG2 PUSH5 0x6970667358 0x22 SLT KECCAK256 0xD0 0xA8 LOG1 ISZERO PUSH17 0x5B8B95A7B0637FDE0689D8BD530C5F31BA 0xAB SWAP4 PUSH8 0x27402DAE2E4A1264 PUSH20 0x6F6C634300080F00330000000000000000000000 "
				},
				"gasEstimates": {
					"creation": {
						"codeDepositCost": "61400",
						"executionCost": "111",
						"totalCost": "61511"
					},
					"external": {
						"returnData()": "infinite",
						"returnDataParams()": "infinite"
					}
				},
				"methodIdentifiers": {
					"returnData()": "ebddbaf6",
					"returnDataParams()": "18190617"
				}
			},
			"storageLayout": {
				"storage": [],
				"types": null
			},
			"userdoc": {
				"kind": "user",
				"methods": {},
				"version": 1
			}
		}
	}
}