{
	"SolidityCodes/Function_Output.sol": {
		"FunctionOutput": {
			"abi": [
				{
					"inputs": [],
					"name": "assigned",
					"outputs": [
						{
							"internalType": "uint256",
							"name": "x",
							"type": "uint256"
						},
						{
							"internalType": "bool",
							"name": "b",
							"type": "bool"
						}
					],
					"stateMutability": "pure",
					"type": "function"
				},
				{
					"inputs": [],
					"name": "destructingAssignments",
					"outputs": [],
					"stateMutability": "pure",
					"type": "function"
				},
				{
					"inputs": [],
					"name": "named",
					"outputs": [
						{
							"internalType": "uint256",
							"name": "x",
							"type": "uint256"
						},
						{
							"internalType": "bool",
							"name": "b",
							"type": "bool"
						}
					],
					"stateMutability": "pure",
					"type": "function"
				},
				{
					"inputs": [],
					"name": "returnMany",
					"outputs": [
						{
							"internalType": "uint256",
							"name": "",
							"type": "uint256"
						},
						{
							"internalType": "bool",
							"name": "",
							"type": "bool"
						}
					],
					"stateMutability": "pure",
					"type": "function"
				}
			],
			"devdoc": {
				"kind": "dev",
				"methods": {},
				"version": 1
			},
			"evm": {
				"assembly": "    /* \"SolidityCodes/Function_Output.sol\":61:431  contract FunctionOutput{... */\n  mstore(0x40, 0x80)\n  callvalue\n  dup1\n  iszero\n  tag_1\n  jumpi\n  0x00\n  dup1\n  revert\ntag_1:\n  pop\n  dataSize(sub_0)\n  dup1\n  dataOffset(sub_0)\n  0x00\n  codecopy\n  0x00\n  return\nstop\n\nsub_0: assembly {\n        /* \"SolidityCodes/Function_Output.sol\":61:431  contract FunctionOutput{... */\n      mstore(0x40, 0x80)\n      callvalue\n      dup1\n      iszero\n      tag_1\n      jumpi\n      0x00\n      dup1\n      revert\n    tag_1:\n      pop\n      jumpi(tag_2, lt(calldatasize, 0x04))\n      shr(0xe0, calldataload(0x00))\n      dup1\n      0x3f7f3db6\n      eq\n      tag_3\n      jumpi\n      dup1\n      0x45f907a8\n      eq\n      tag_4\n      jumpi\n      dup1\n      0x86887544\n      eq\n      tag_5\n      jumpi\n      dup1\n      0xadb4d990\n      eq\n      tag_6\n      jumpi\n    tag_2:\n      0x00\n      dup1\n      revert\n        /* \"SolidityCodes/Function_Output.sol\":381:428  function destructingAssignments() public pure{} */\n    tag_3:\n      tag_7\n      tag_8\n      jump\t// in\n    tag_7:\n      stop\n        /* \"SolidityCodes/Function_Output.sol\":185:272  function named() public pure returns(uint x , bool b){... */\n    tag_4:\n      tag_9\n      tag_10\n      jump\t// in\n    tag_9:\n      mload(0x40)\n      tag_11\n      swap3\n      swap2\n      swap1\n      tag_12\n      jump\t// in\n    tag_11:\n      mload(0x40)\n      dup1\n      swap2\n      sub\n      swap1\n      return\n        /* \"SolidityCodes/Function_Output.sol\":91:177  function returnMany() public pure returns(uint,bool){... */\n    tag_5:\n      tag_13\n      tag_14\n      jump\t// in\n    tag_13:\n      mload(0x40)\n      tag_15\n      swap3\n      swap2\n      swap1\n      tag_12\n      jump\t// in\n    tag_15:\n      mload(0x40)\n      dup1\n      swap2\n      sub\n      swap1\n      return\n        /* \"SolidityCodes/Function_Output.sol\":280:375  function assigned() public pure returns (uint x, bool b){... */\n    tag_6:\n      tag_16\n      tag_17\n      jump\t// in\n    tag_16:\n      mload(0x40)\n      tag_18\n      swap3\n      swap2\n      swap1\n      tag_12\n      jump\t// in\n    tag_18:\n      mload(0x40)\n      dup1\n      swap2\n      sub\n      swap1\n      return\n        /* \"SolidityCodes/Function_Output.sol\":381:428  function destructingAssignments() public pure{} */\n    tag_8:\n      jump\t// out\n        /* \"SolidityCodes/Function_Output.sol\":185:272  function named() public pure returns(uint x , bool b){... */\n    tag_10:\n        /* \"SolidityCodes/Function_Output.sol\":222:228  uint x */\n      0x00\n        /* \"SolidityCodes/Function_Output.sol\":231:237  bool b */\n      dup1\n        /* \"SolidityCodes/Function_Output.sol\":257:258  1 */\n      0x01\n        /* \"SolidityCodes/Function_Output.sol\":259:263  true */\n      dup1\n        /* \"SolidityCodes/Function_Output.sol\":249:264  return (1,true) */\n      swap2\n      pop\n      swap2\n      pop\n        /* \"SolidityCodes/Function_Output.sol\":185:272  function named() public pure returns(uint x , bool b){... */\n      swap1\n      swap2\n      jump\t// out\n        /* \"SolidityCodes/Function_Output.sol\":91:177  function returnMany() public pure returns(uint,bool){... */\n    tag_14:\n        /* \"SolidityCodes/Function_Output.sol\":133:137  uint */\n      0x00\n        /* \"SolidityCodes/Function_Output.sol\":138:142  bool */\n      dup1\n        /* \"SolidityCodes/Function_Output.sol\":162:163  1 */\n      0x01\n        /* \"SolidityCodes/Function_Output.sol\":164:168  true */\n      dup1\n        /* \"SolidityCodes/Function_Output.sol\":154:169  return (1,true) */\n      swap2\n      pop\n      swap2\n      pop\n        /* \"SolidityCodes/Function_Output.sol\":91:177  function returnMany() public pure returns(uint,bool){... */\n      swap1\n      swap2\n      jump\t// out\n        /* \"SolidityCodes/Function_Output.sol\":280:375  function assigned() public pure returns (uint x, bool b){... */\n    tag_17:\n        /* \"SolidityCodes/Function_Output.sol\":321:327  uint x */\n      0x00\n        /* \"SolidityCodes/Function_Output.sol\":329:335  bool b */\n      dup1\n        /* \"SolidityCodes/Function_Output.sol\":349:350  1 */\n      0x01\n        /* \"SolidityCodes/Function_Output.sol\":347:350  x=1 */\n      swap2\n      pop\n        /* \"SolidityCodes/Function_Output.sol\":363:367  true */\n      0x01\n        /* \"SolidityCodes/Function_Output.sol\":361:367  b=true */\n      swap1\n      pop\n        /* \"SolidityCodes/Function_Output.sol\":280:375  function assigned() public pure returns (uint x, bool b){... */\n      swap1\n      swap2\n      jump\t// out\n        /* \"#utility.yul\":7:84   */\n    tag_23:\n        /* \"#utility.yul\":44:51   */\n      0x00\n        /* \"#utility.yul\":73:78   */\n      dup2\n        /* \"#utility.yul\":62:78   */\n      swap1\n      pop\n        /* \"#utility.yul\":7:84   */\n      swap2\n      swap1\n      pop\n      jump\t// out\n        /* \"#utility.yul\":90:208   */\n    tag_24:\n        /* \"#utility.yul\":177:201   */\n      tag_30\n        /* \"#utility.yul\":195:200   */\n      dup2\n        /* \"#utility.yul\":177:201   */\n      tag_23\n      jump\t// in\n    tag_30:\n        /* \"#utility.yul\":172:175   */\n      dup3\n        /* \"#utility.yul\":165:202   */\n      mstore\n        /* \"#utility.yul\":90:208   */\n      pop\n      pop\n      jump\t// out\n        /* \"#utility.yul\":214:304   */\n    tag_25:\n        /* \"#utility.yul\":248:255   */\n      0x00\n        /* \"#utility.yul\":291:296   */\n      dup2\n        /* \"#utility.yul\":284:297   */\n      iszero\n        /* \"#utility.yul\":277:298   */\n      iszero\n        /* \"#utility.yul\":266:298   */\n      swap1\n      pop\n        /* \"#utility.yul\":214:304   */\n      swap2\n      swap1\n      pop\n      jump\t// out\n        /* \"#utility.yul\":310:419   */\n    tag_26:\n        /* \"#utility.yul\":391:412   */\n      tag_33\n        /* \"#utility.yul\":406:411   */\n      dup2\n        /* \"#utility.yul\":391:412   */\n      tag_25\n      jump\t// in\n    tag_33:\n        /* \"#utility.yul\":386:389   */\n      dup3\n        /* \"#utility.yul\":379:413   */\n      mstore\n        /* \"#utility.yul\":310:419   */\n      pop\n      pop\n      jump\t// out\n        /* \"#utility.yul\":425:745   */\n    tag_12:\n        /* \"#utility.yul\":540:544   */\n      0x00\n        /* \"#utility.yul\":578:580   */\n      0x40\n        /* \"#utility.yul\":567:576   */\n      dup3\n        /* \"#utility.yul\":563:581   */\n      add\n        /* \"#utility.yul\":555:581   */\n      swap1\n      pop\n        /* \"#utility.yul\":591:662   */\n      tag_35\n        /* \"#utility.yul\":659:660   */\n      0x00\n        /* \"#utility.yul\":648:657   */\n      dup4\n        /* \"#utility.yul\":644:661   */\n      add\n        /* \"#utility.yul\":635:641   */\n      dup6\n        /* \"#utility.yul\":591:662   */\n      tag_24\n      jump\t// in\n    tag_35:\n        /* \"#utility.yul\":672:738   */\n      tag_36\n        /* \"#utility.yul\":734:736   */\n      0x20\n        /* \"#utility.yul\":723:732   */\n      dup4\n        /* \"#utility.yul\":719:737   */\n      add\n        /* \"#utility.yul\":710:716   */\n      dup5\n        /* \"#utility.yul\":672:738   */\n      tag_26\n      jump\t// in\n    tag_36:\n        /* \"#utility.yul\":425:745   */\n      swap4\n      swap3\n      pop\n      pop\n      pop\n      jump\t// out\n\n    auxdata: 0xa2646970667358221220221067d8f60514d5ee6569cf368d3e9791b206c7295c9ecd69a1ab6bf5f5496f64736f6c634300080f0033\n}\n",
				"bytecode": {
					"linkReferences": {},
					"object": "608060405234801561001057600080fd5b50610178806100206000396000f3fe608060405234801561001057600080fd5b506004361061004c5760003560e01c80633f7f3db61461005157806345f907a81461005b578063868875441461007a578063adb4d99014610099575b600080fd5b6100596100b8565b005b6100636100ba565b604051610071929190610119565b60405180910390f35b6100826100c8565b604051610090929190610119565b60405180910390f35b6100a16100d6565b6040516100af929190610119565b60405180910390f35b565b600080600180915091509091565b600080600180915091509091565b60008060019150600190509091565b6000819050919050565b6100f8816100e5565b82525050565b60008115159050919050565b610113816100fe565b82525050565b600060408201905061012e60008301856100ef565b61013b602083018461010a565b939250505056fea2646970667358221220221067d8f60514d5ee6569cf368d3e9791b206c7295c9ecd69a1ab6bf5f5496f64736f6c634300080f0033",
					"opcodes": "PUSH1 0x80 PUSH1 0x40 MSTORE CALLVALUE DUP1 ISZERO PUSH2 0x10 JUMPI PUSH1 0x0 DUP1 REVERT JUMPDEST POP PUSH2 0x178 DUP1 PUSH2 0x20 PUSH1 0x0 CODECOPY PUSH1 0x0 RETURN INVALID PUSH1 0x80 PUSH1 0x40 MSTORE CALLVALUE DUP1 ISZERO PUSH2 0x10 JUMPI PUSH1 0x0 DUP1 REVERT JUMPDEST POP PUSH1 0x4 CALLDATASIZE LT PUSH2 0x4C JUMPI PUSH1 0x0 CALLDATALOAD PUSH1 0xE0 SHR DUP1 PUSH4 0x3F7F3DB6 EQ PUSH2 0x51 JUMPI DUP1 PUSH4 0x45F907A8 EQ PUSH2 0x5B JUMPI DUP1 PUSH4 0x86887544 EQ PUSH2 0x7A JUMPI DUP1 PUSH4 0xADB4D990 EQ PUSH2 0x99 JUMPI JUMPDEST PUSH1 0x0 DUP1 REVERT JUMPDEST PUSH2 0x59 PUSH2 0xB8 JUMP JUMPDEST STOP JUMPDEST PUSH2 0x63 PUSH2 0xBA JUMP JUMPDEST PUSH1 0x40 MLOAD PUSH2 0x71 SWAP3 SWAP2 SWAP1 PUSH2 0x119 JUMP JUMPDEST PUSH1 0x40 MLOAD DUP1 SWAP2 SUB SWAP1 RETURN JUMPDEST PUSH2 0x82 PUSH2 0xC8 JUMP JUMPDEST PUSH1 0x40 MLOAD PUSH2 0x90 SWAP3 SWAP2 SWAP1 PUSH2 0x119 JUMP JUMPDEST PUSH1 0x40 MLOAD DUP1 SWAP2 SUB SWAP1 RETURN JUMPDEST PUSH2 0xA1 PUSH2 0xD6 JUMP JUMPDEST PUSH1 0x40 MLOAD PUSH2 0xAF SWAP3 SWAP2 SWAP1 PUSH2 0x119 JUMP JUMPDEST PUSH1 0x40 MLOAD DUP1 SWAP2 SUB SWAP1 RETURN JUMPDEST JUMP JUMPDEST PUSH1 0x0 DUP1 PUSH1 0x1 DUP1 SWAP2 POP SWAP2 POP SWAP1 SWAP2 JUMP JUMPDEST PUSH1 0x0 DUP1 PUSH1 0x1 DUP1 SWAP2 POP SWAP2 POP SWAP1 SWAP2 JUMP JUMPDEST PUSH1 0x0 DUP1 PUSH1 0x1 SWAP2 POP PUSH1 0x1 SWAP1 POP SWAP1 SWAP2 JUMP JUMPDEST PUSH1 0x0 DUP2 SWAP1 POP SWAP2 SWAP1 POP JUMP JUMPDEST PUSH2 0xF8 DUP2 PUSH2 0xE5 JUMP JUMPDEST DUP3 MSTORE POP POP JUMP JUMPDEST PUSH1 0x0 DUP2 ISZERO ISZERO SWAP1 POP SWAP2 SWAP1 POP JUMP JUMPDEST PUSH2 0x113 DUP2 PUSH2 0xFE JUMP JUMPDEST DUP3 MSTORE POP POP JUMP JUMPDEST PUSH1 0x0 PUSH1 0x40 DUP3 ADD SWAP1 POP PUSH2 0x12E PUSH1 0x0 DUP4 ADD DUP6 PUSH2 0xEF JUMP JUMPDEST PUSH2 0x13B PUSH1 0x20 DUP4 ADD DUP5 PUSH2 0x10A JUMP JUMPDEST SWAP4 SWAP3 POP POP POP JUMP INVALID LOG2 PUSH5 0x6970667358 0x22 SLT KECCAK256 0x22 LT PUSH8 0xD8F60514D5EE6569 0xCF CALLDATASIZE DUP14 RETURNDATACOPY SWAP8 SWAP2 0xB2 MOD 0xC7 0x29 0x5C SWAP15 0xCD PUSH10 0xA1AB6BF5F5496F64736F PUSH13 0x634300080F0033000000000000 "
				},
				"gasEstimates": {
					"creation": {
						"codeDepositCost": "75200",
						"executionCost": "123",
						"totalCost": "75323"
					},
					"external": {
						"assigned()": "501",
						"destructingAssignments()": "122",
						"named()": "457",
						"returnMany()": "479"
					}
				},
				"methodIdentifiers": {
					"assigned()": "adb4d990",
					"destructingAssignments()": "3f7f3db6",
					"named()": "45f907a8",
					"returnMany()": "86887544"
				}
			},
			"storageLayout": {
				"storage": [],
				"types": null
			},
			"userdoc": {
				"kind": "user",
				"methods": {},
				"version": 1
			}
		}
	}
}