{
	"SolidityCodes/Todo_List.sol": {
		"Todo_List": {
			"abi": [
				{
					"inputs": [
						{
							"internalType": "string",
							"name": "_text",
							"type": "string"
						}
					],
					"name": "create",
					"outputs": [],
					"stateMutability": "nonpayable",
					"type": "function"
				},
				{
					"inputs": [],
					"name": "getData",
					"outputs": [],
					"stateMutability": "view",
					"type": "function"
				},
				{
					"inputs": [
						{
							"internalType": "uint256",
							"name": "",
							"type": "uint256"
						}
					],
					"name": "todos",
					"outputs": [
						{
							"internalType": "string",
							"name": "text",
							"type": "string"
						},
						{
							"internalType": "bool",
							"name": "complete",
							"type": "bool"
						}
					],
					"stateMutability": "view",
					"type": "function"
				},
				{
					"inputs": [
						{
							"internalType": "uint256",
							"name": "_ind",
							"type": "uint256"
						}
					],
					"name": "updateData",
					"outputs": [],
					"stateMutability": "nonpayable",
					"type": "function"
				}
			],
			"devdoc": {
				"kind": "dev",
				"methods": {},
				"version": 1
			},
			"evm": {
				"assembly": "    /* \"SolidityCodes/Todo_List.sol\":63:450  contract Todo_List{... */\n  mstore(0x40, 0x80)\n  callvalue\n  dup1\n  iszero\n  tag_1\n  jumpi\n  0x00\n  dup1\n  revert\ntag_1:\n  pop\n  dataSize(sub_0)\n  dup1\n  dataOffset(sub_0)\n  0x00\n  codecopy\n  0x00\n  return\nstop\n\nsub_0: assembly {\n        /* \"SolidityCodes/Todo_List.sol\":63:450  contract Todo_List{... */\n      mstore(0x40, 0x80)\n      callvalue\n      dup1\n      iszero\n      tag_1\n      jumpi\n      0x00\n      dup1\n      revert\n    tag_1:\n      pop\n      jumpi(tag_2, lt(calldatasize, 0x04))\n      shr(0xe0, calldataload(0x00))\n      dup1\n      0x09e96008\n      eq\n      tag_3\n      jumpi\n      dup1\n      0x3bc5de30\n      eq\n      tag_4\n      jumpi\n      dup1\n      0xb6a46b3b\n      eq\n      tag_5\n      jumpi\n      dup1\n      0xbc8bc2b4\n      eq\n      tag_6\n      jumpi\n    tag_2:\n      0x00\n      dup1\n      revert\n        /* \"SolidityCodes/Todo_List.sol\":290:387  function updateData(uint _ind) external{... */\n    tag_3:\n      tag_7\n      0x04\n      dup1\n      calldatasize\n      sub\n      dup2\n      add\n      swap1\n      tag_8\n      swap2\n      swap1\n      tag_9\n      jump\t// in\n    tag_8:\n      tag_10\n      jump\t// in\n    tag_7:\n      stop\n        /* \"SolidityCodes/Todo_List.sol\":395:445  function getData() external view{... */\n    tag_4:\n      tag_11\n      tag_12\n      jump\t// in\n    tag_11:\n      stop\n        /* \"SolidityCodes/Todo_List.sol\":190:282  function create(string memory _text) external{... */\n    tag_5:\n      tag_13\n      0x04\n      dup1\n      calldatasize\n      sub\n      dup2\n      add\n      swap1\n      tag_14\n      swap2\n      swap1\n      tag_15\n      jump\t// in\n    tag_14:\n      tag_16\n      jump\t// in\n    tag_13:\n      stop\n        /* \"SolidityCodes/Todo_List.sol\":161:181  Todo [] public todos */\n    tag_6:\n      tag_17\n      0x04\n      dup1\n      calldatasize\n      sub\n      dup2\n      add\n      swap1\n      tag_18\n      swap2\n      swap1\n      tag_9\n      jump\t// in\n    tag_18:\n      tag_19\n      jump\t// in\n    tag_17:\n      mload(0x40)\n      tag_20\n      swap3\n      swap2\n      swap1\n      tag_21\n      jump\t// in\n    tag_20:\n      mload(0x40)\n      dup1\n      swap2\n      sub\n      swap1\n      return\n        /* \"SolidityCodes/Todo_List.sol\":290:387  function updateData(uint _ind) external{... */\n    tag_10:\n        /* \"SolidityCodes/Todo_List.sol\":340:355  Todo storage td */\n      0x00\n        /* \"SolidityCodes/Todo_List.sol\":356:361  todos */\n      dup1\n        /* \"SolidityCodes/Todo_List.sol\":362:366  _ind */\n      dup3\n        /* \"SolidityCodes/Todo_List.sol\":356:367  todos[_ind] */\n      dup2\n      sload\n      dup2\n      lt\n      tag_23\n      jumpi\n      tag_24\n      tag_25\n      jump\t// in\n    tag_24:\n    tag_23:\n      swap1\n      0x00\n      mstore\n      keccak256(0x00, 0x20)\n      swap1\n      0x02\n      mul\n      add\n        /* \"SolidityCodes/Todo_List.sol\":340:367  Todo storage td=todos[_ind] */\n      swap1\n      pop\n        /* \"SolidityCodes/Todo_List.sol\":329:387  {... */\n      pop\n        /* \"SolidityCodes/Todo_List.sol\":290:387  function updateData(uint _ind) external{... */\n      pop\n      jump\t// out\n        /* \"SolidityCodes/Todo_List.sol\":395:445  function getData() external view{... */\n    tag_12:\n      jump\t// out\n        /* \"SolidityCodes/Todo_List.sol\":190:282  function create(string memory _text) external{... */\n    tag_16:\n        /* \"SolidityCodes/Todo_List.sol\":246:251  todos */\n      0x00\n        /* \"SolidityCodes/Todo_List.sol\":257:273  Todo(_text,true) */\n      mload(0x40)\n      dup1\n      0x40\n      add\n      0x40\n      mstore\n      dup1\n        /* \"SolidityCodes/Todo_List.sol\":262:267  _text */\n      dup4\n        /* \"SolidityCodes/Todo_List.sol\":257:273  Todo(_text,true) */\n      dup2\n      mstore\n      0x20\n      add\n        /* \"SolidityCodes/Todo_List.sol\":268:272  true */\n      0x01\n        /* \"SolidityCodes/Todo_List.sol\":257:273  Todo(_text,true) */\n      iszero\n      iszero\n      dup2\n      mstore\n      pop\n        /* \"SolidityCodes/Todo_List.sol\":246:274  todos.push(Todo(_text,true)) */\n      swap1\n      dup1\n      0x01\n      dup2\n      sload\n      add\n      dup1\n      dup3\n      sstore\n      dup1\n      swap2\n      pop\n      pop\n      0x01\n      swap1\n      sub\n      swap1\n      0x00\n      mstore\n      keccak256(0x00, 0x20)\n      swap1\n      0x02\n      mul\n      add\n      0x00\n      swap1\n      swap2\n      swap1\n      swap2\n      swap1\n      swap2\n      pop\n      0x00\n      dup3\n      add\n      mload\n      dup2\n      0x00\n      add\n      swap1\n      dup2\n      tag_30\n      swap2\n      swap1\n      tag_31\n      jump\t// in\n    tag_30:\n      pop\n      0x20\n      dup3\n      add\n      mload\n      dup2\n      0x01\n      add\n      exp(0x0100, 0x00)\n      dup2\n      sload\n      dup2\n      0xff\n      mul\n      not\n      and\n      swap1\n      dup4\n      iszero\n      iszero\n      mul\n      or\n      swap1\n      sstore\n      pop\n      pop\n      pop\n        /* \"SolidityCodes/Todo_List.sol\":190:282  function create(string memory _text) external{... */\n      pop\n      jump\t// out\n        /* \"SolidityCodes/Todo_List.sol\":161:181  Todo [] public todos */\n    tag_19:\n      0x00\n      dup2\n      dup2\n      sload\n      dup2\n      lt\n      tag_32\n      jumpi\n      0x00\n      dup1\n      revert\n    tag_32:\n      swap1\n      0x00\n      mstore\n      keccak256(0x00, 0x20)\n      swap1\n      0x02\n      mul\n      add\n      0x00\n      swap2\n      pop\n      swap1\n      pop\n      dup1\n      0x00\n      add\n      dup1\n      sload\n      tag_34\n      swap1\n      tag_35\n      jump\t// in\n    tag_34:\n      dup1\n      0x1f\n      add\n      0x20\n      dup1\n      swap2\n      div\n      mul\n      0x20\n      add\n      mload(0x40)\n      swap1\n      dup2\n      add\n      0x40\n      mstore\n      dup1\n      swap3\n      swap2\n      swap1\n      dup2\n      dup2\n      mstore\n      0x20\n      add\n      dup3\n      dup1\n      sload\n      tag_36\n      swap1\n      tag_35\n      jump\t// in\n    tag_36:\n      dup1\n      iszero\n      tag_37\n      jumpi\n      dup1\n      0x1f\n      lt\n      tag_38\n      jumpi\n      0x0100\n      dup1\n      dup4\n      sload\n      div\n      mul\n      dup4\n      mstore\n      swap2\n      0x20\n      add\n      swap2\n      jump(tag_37)\n    tag_38:\n      dup3\n      add\n      swap2\n      swap1\n      0x00\n      mstore\n      keccak256(0x00, 0x20)\n      swap1\n    tag_39:\n      dup2\n      sload\n      dup2\n      mstore\n      swap1\n      0x01\n      add\n      swap1\n      0x20\n      add\n      dup1\n      dup4\n      gt\n      tag_39\n      jumpi\n      dup3\n      swap1\n      sub\n      0x1f\n      and\n      dup3\n      add\n      swap2\n    tag_37:\n      pop\n      pop\n      pop\n      pop\n      pop\n      swap1\n      dup1\n      0x01\n      add\n      0x00\n      swap1\n      sload\n      swap1\n      0x0100\n      exp\n      swap1\n      div\n      0xff\n      and\n      swap1\n      pop\n      dup3\n      jump\t// out\n        /* \"#utility.yul\":7:82   */\n    tag_40:\n        /* \"#utility.yul\":40:46   */\n      0x00\n        /* \"#utility.yul\":73:75   */\n      0x40\n        /* \"#utility.yul\":67:76   */\n      mload\n        /* \"#utility.yul\":57:76   */\n      swap1\n      pop\n        /* \"#utility.yul\":7:82   */\n      swap1\n      jump\t// out\n        /* \"#utility.yul\":88:205   */\n    tag_41:\n        /* \"#utility.yul\":197:198   */\n      0x00\n        /* \"#utility.yul\":194:195   */\n      dup1\n        /* \"#utility.yul\":187:199   */\n      revert\n        /* \"#utility.yul\":211:328   */\n    tag_42:\n        /* \"#utility.yul\":320:321   */\n      0x00\n        /* \"#utility.yul\":317:318   */\n      dup1\n        /* \"#utility.yul\":310:322   */\n      revert\n        /* \"#utility.yul\":334:411   */\n    tag_43:\n        /* \"#utility.yul\":371:378   */\n      0x00\n        /* \"#utility.yul\":400:405   */\n      dup2\n        /* \"#utility.yul\":389:405   */\n      swap1\n      pop\n        /* \"#utility.yul\":334:411   */\n      swap2\n      swap1\n      pop\n      jump\t// out\n        /* \"#utility.yul\":417:539   */\n    tag_44:\n        /* \"#utility.yul\":490:514   */\n      tag_84\n        /* \"#utility.yul\":508:513   */\n      dup2\n        /* \"#utility.yul\":490:514   */\n      tag_43\n      jump\t// in\n    tag_84:\n        /* \"#utility.yul\":483:488   */\n      dup2\n        /* \"#utility.yul\":480:515   */\n      eq\n        /* \"#utility.yul\":470:533   */\n      tag_85\n      jumpi\n        /* \"#utility.yul\":529:530   */\n      0x00\n        /* \"#utility.yul\":526:527   */\n      dup1\n        /* \"#utility.yul\":519:531   */\n      revert\n        /* \"#utility.yul\":470:533   */\n    tag_85:\n        /* \"#utility.yul\":417:539   */\n      pop\n      jump\t// out\n        /* \"#utility.yul\":545:684   */\n    tag_45:\n        /* \"#utility.yul\":591:596   */\n      0x00\n        /* \"#utility.yul\":629:635   */\n      dup2\n        /* \"#utility.yul\":616:636   */\n      calldataload\n        /* \"#utility.yul\":607:636   */\n      swap1\n      pop\n        /* \"#utility.yul\":645:678   */\n      tag_87\n        /* \"#utility.yul\":672:677   */\n      dup2\n        /* \"#utility.yul\":645:678   */\n      tag_44\n      jump\t// in\n    tag_87:\n        /* \"#utility.yul\":545:684   */\n      swap3\n      swap2\n      pop\n      pop\n      jump\t// out\n        /* \"#utility.yul\":690:1019   */\n    tag_9:\n        /* \"#utility.yul\":749:755   */\n      0x00\n        /* \"#utility.yul\":798:800   */\n      0x20\n        /* \"#utility.yul\":786:795   */\n      dup3\n        /* \"#utility.yul\":777:784   */\n      dup5\n        /* \"#utility.yul\":773:796   */\n      sub\n        /* \"#utility.yul\":769:801   */\n      slt\n        /* \"#utility.yul\":766:885   */\n      iszero\n      tag_89\n      jumpi\n        /* \"#utility.yul\":804:883   */\n      tag_90\n      tag_41\n      jump\t// in\n    tag_90:\n        /* \"#utility.yul\":766:885   */\n    tag_89:\n        /* \"#utility.yul\":924:925   */\n      0x00\n        /* \"#utility.yul\":949:1002   */\n      tag_91\n        /* \"#utility.yul\":994:1001   */\n      dup5\n        /* \"#utility.yul\":985:991   */\n      dup3\n        /* \"#utility.yul\":974:983   */\n      dup6\n        /* \"#utility.yul\":970:992   */\n      add\n        /* \"#utility.yul\":949:1002   */\n      tag_45\n      jump\t// in\n    tag_91:\n        /* \"#utility.yul\":939:1002   */\n      swap2\n      pop\n        /* \"#utility.yul\":895:1012   */\n      pop\n        /* \"#utility.yul\":690:1019   */\n      swap3\n      swap2\n      pop\n      pop\n      jump\t// out\n        /* \"#utility.yul\":1025:1142   */\n    tag_46:\n        /* \"#utility.yul\":1134:1135   */\n      0x00\n        /* \"#utility.yul\":1131:1132   */\n      dup1\n        /* \"#utility.yul\":1124:1136   */\n      revert\n        /* \"#utility.yul\":1148:1265   */\n    tag_47:\n        /* \"#utility.yul\":1257:1258   */\n      0x00\n        /* \"#utility.yul\":1254:1255   */\n      dup1\n        /* \"#utility.yul\":1247:1259   */\n      revert\n        /* \"#utility.yul\":1271:1373   */\n    tag_48:\n        /* \"#utility.yul\":1312:1318   */\n      0x00\n        /* \"#utility.yul\":1363:1365   */\n      0x1f\n        /* \"#utility.yul\":1359:1366   */\n      not\n        /* \"#utility.yul\":1354:1356   */\n      0x1f\n        /* \"#utility.yul\":1347:1352   */\n      dup4\n        /* \"#utility.yul\":1343:1357   */\n      add\n        /* \"#utility.yul\":1339:1367   */\n      and\n        /* \"#utility.yul\":1329:1367   */\n      swap1\n      pop\n        /* \"#utility.yul\":1271:1373   */\n      swap2\n      swap1\n      pop\n      jump\t// out\n        /* \"#utility.yul\":1379:1559   */\n    tag_49:\n        /* \"#utility.yul\":1427:1504   */\n      0x4e487b7100000000000000000000000000000000000000000000000000000000\n        /* \"#utility.yul\":1424:1425   */\n      0x00\n        /* \"#utility.yul\":1417:1505   */\n      mstore\n        /* \"#utility.yul\":1524:1528   */\n      0x41\n        /* \"#utility.yul\":1521:1522   */\n      0x04\n        /* \"#utility.yul\":1514:1529   */\n      mstore\n        /* \"#utility.yul\":1548:1552   */\n      0x24\n        /* \"#utility.yul\":1545:1546   */\n      0x00\n        /* \"#utility.yul\":1538:1553   */\n      revert\n        /* \"#utility.yul\":1565:1846   */\n    tag_50:\n        /* \"#utility.yul\":1648:1675   */\n      tag_97\n        /* \"#utility.yul\":1670:1674   */\n      dup3\n        /* \"#utility.yul\":1648:1675   */\n      tag_48\n      jump\t// in\n    tag_97:\n        /* \"#utility.yul\":1640:1646   */\n      dup2\n        /* \"#utility.yul\":1636:1676   */\n      add\n        /* \"#utility.yul\":1778:1784   */\n      dup2\n        /* \"#utility.yul\":1766:1776   */\n      dup2\n        /* \"#utility.yul\":1763:1785   */\n      lt\n        /* \"#utility.yul\":1742:1760   */\n      0xffffffffffffffff\n        /* \"#utility.yul\":1730:1740   */\n      dup3\n        /* \"#utility.yul\":1727:1761   */\n      gt\n        /* \"#utility.yul\":1724:1786   */\n      or\n        /* \"#utility.yul\":1721:1809   */\n      iszero\n      tag_98\n      jumpi\n        /* \"#utility.yul\":1789:1807   */\n      tag_99\n      tag_49\n      jump\t// in\n    tag_99:\n        /* \"#utility.yul\":1721:1809   */\n    tag_98:\n        /* \"#utility.yul\":1829:1839   */\n      dup1\n        /* \"#utility.yul\":1825:1827   */\n      0x40\n        /* \"#utility.yul\":1818:1840   */\n      mstore\n        /* \"#utility.yul\":1608:1846   */\n      pop\n        /* \"#utility.yul\":1565:1846   */\n      pop\n      pop\n      jump\t// out\n        /* \"#utility.yul\":1852:1981   */\n    tag_51:\n        /* \"#utility.yul\":1886:1892   */\n      0x00\n        /* \"#utility.yul\":1913:1933   */\n      tag_101\n      tag_40\n      jump\t// in\n    tag_101:\n        /* \"#utility.yul\":1903:1933   */\n      swap1\n      pop\n        /* \"#utility.yul\":1942:1975   */\n      tag_102\n        /* \"#utility.yul\":1970:1974   */\n      dup3\n        /* \"#utility.yul\":1962:1968   */\n      dup3\n        /* \"#utility.yul\":1942:1975   */\n      tag_50\n      jump\t// in\n    tag_102:\n        /* \"#utility.yul\":1852:1981   */\n      swap2\n      swap1\n      pop\n      jump\t// out\n        /* \"#utility.yul\":1987:2295   */\n    tag_52:\n        /* \"#utility.yul\":2049:2053   */\n      0x00\n        /* \"#utility.yul\":2139:2157   */\n      0xffffffffffffffff\n        /* \"#utility.yul\":2131:2137   */\n      dup3\n        /* \"#utility.yul\":2128:2158   */\n      gt\n        /* \"#utility.yul\":2125:2181   */\n      iszero\n      tag_104\n      jumpi\n        /* \"#utility.yul\":2161:2179   */\n      tag_105\n      tag_49\n      jump\t// in\n    tag_105:\n        /* \"#utility.yul\":2125:2181   */\n    tag_104:\n        /* \"#utility.yul\":2199:2228   */\n      tag_106\n        /* \"#utility.yul\":2221:2227   */\n      dup3\n        /* \"#utility.yul\":2199:2228   */\n      tag_48\n      jump\t// in\n    tag_106:\n        /* \"#utility.yul\":2191:2228   */\n      swap1\n      pop\n        /* \"#utility.yul\":2283:2287   */\n      0x20\n        /* \"#utility.yul\":2277:2281   */\n      dup2\n        /* \"#utility.yul\":2273:2288   */\n      add\n        /* \"#utility.yul\":2265:2288   */\n      swap1\n      pop\n        /* \"#utility.yul\":1987:2295   */\n      swap2\n      swap1\n      pop\n      jump\t// out\n        /* \"#utility.yul\":2301:2455   */\n    tag_53:\n        /* \"#utility.yul\":2385:2391   */\n      dup3\n        /* \"#utility.yul\":2380:2383   */\n      dup2\n        /* \"#utility.yul\":2375:2378   */\n      dup4\n        /* \"#utility.yul\":2362:2392   */\n      calldatacopy\n        /* \"#utility.yul\":2447:2448   */\n      0x00\n        /* \"#utility.yul\":2438:2444   */\n      dup4\n        /* \"#utility.yul\":2433:2436   */\n      dup4\n        /* \"#utility.yul\":2429:2445   */\n      add\n        /* \"#utility.yul\":2422:2449   */\n      mstore\n        /* \"#utility.yul\":2301:2455   */\n      pop\n      pop\n      pop\n      jump\t// out\n        /* \"#utility.yul\":2461:2873   */\n    tag_54:\n        /* \"#utility.yul\":2539:2544   */\n      0x00\n        /* \"#utility.yul\":2564:2630   */\n      tag_109\n        /* \"#utility.yul\":2580:2629   */\n      tag_110\n        /* \"#utility.yul\":2622:2628   */\n      dup5\n        /* \"#utility.yul\":2580:2629   */\n      tag_52\n      jump\t// in\n    tag_110:\n        /* \"#utility.yul\":2564:2630   */\n      tag_51\n      jump\t// in\n    tag_109:\n        /* \"#utility.yul\":2555:2630   */\n      swap1\n      pop\n        /* \"#utility.yul\":2653:2659   */\n      dup3\n        /* \"#utility.yul\":2646:2651   */\n      dup2\n        /* \"#utility.yul\":2639:2660   */\n      mstore\n        /* \"#utility.yul\":2691:2695   */\n      0x20\n        /* \"#utility.yul\":2684:2689   */\n      dup2\n        /* \"#utility.yul\":2680:2696   */\n      add\n        /* \"#utility.yul\":2729:2732   */\n      dup5\n        /* \"#utility.yul\":2720:2726   */\n      dup5\n        /* \"#utility.yul\":2715:2718   */\n      dup5\n        /* \"#utility.yul\":2711:2727   */\n      add\n        /* \"#utility.yul\":2708:2733   */\n      gt\n        /* \"#utility.yul\":2705:2817   */\n      iszero\n      tag_111\n      jumpi\n        /* \"#utility.yul\":2736:2815   */\n      tag_112\n      tag_47\n      jump\t// in\n    tag_112:\n        /* \"#utility.yul\":2705:2817   */\n    tag_111:\n        /* \"#utility.yul\":2826:2867   */\n      tag_113\n        /* \"#utility.yul\":2860:2866   */\n      dup5\n        /* \"#utility.yul\":2855:2858   */\n      dup3\n        /* \"#utility.yul\":2850:2853   */\n      dup6\n        /* \"#utility.yul\":2826:2867   */\n      tag_53\n      jump\t// in\n    tag_113:\n        /* \"#utility.yul\":2545:2873   */\n      pop\n        /* \"#utility.yul\":2461:2873   */\n      swap4\n      swap3\n      pop\n      pop\n      pop\n      jump\t// out\n        /* \"#utility.yul\":2893:3233   */\n    tag_55:\n        /* \"#utility.yul\":2949:2954   */\n      0x00\n        /* \"#utility.yul\":2998:3001   */\n      dup3\n        /* \"#utility.yul\":2991:2995   */\n      0x1f\n        /* \"#utility.yul\":2983:2989   */\n      dup4\n        /* \"#utility.yul\":2979:2996   */\n      add\n        /* \"#utility.yul\":2975:3002   */\n      slt\n        /* \"#utility.yul\":2965:3087   */\n      tag_115\n      jumpi\n        /* \"#utility.yul\":3006:3085   */\n      tag_116\n      tag_46\n      jump\t// in\n    tag_116:\n        /* \"#utility.yul\":2965:3087   */\n    tag_115:\n        /* \"#utility.yul\":3123:3129   */\n      dup2\n        /* \"#utility.yul\":3110:3130   */\n      calldataload\n        /* \"#utility.yul\":3148:3227   */\n      tag_117\n        /* \"#utility.yul\":3223:3226   */\n      dup5\n        /* \"#utility.yul\":3215:3221   */\n      dup3\n        /* \"#utility.yul\":3208:3212   */\n      0x20\n        /* \"#utility.yul\":3200:3206   */\n      dup7\n        /* \"#utility.yul\":3196:3213   */\n      add\n        /* \"#utility.yul\":3148:3227   */\n      tag_54\n      jump\t// in\n    tag_117:\n        /* \"#utility.yul\":3139:3227   */\n      swap2\n      pop\n        /* \"#utility.yul\":2955:3233   */\n      pop\n        /* \"#utility.yul\":2893:3233   */\n      swap3\n      swap2\n      pop\n      pop\n      jump\t// out\n        /* \"#utility.yul\":3239:3748   */\n    tag_15:\n        /* \"#utility.yul\":3308:3314   */\n      0x00\n        /* \"#utility.yul\":3357:3359   */\n      0x20\n        /* \"#utility.yul\":3345:3354   */\n      dup3\n        /* \"#utility.yul\":3336:3343   */\n      dup5\n        /* \"#utility.yul\":3332:3355   */\n      sub\n        /* \"#utility.yul\":3328:3360   */\n      slt\n        /* \"#utility.yul\":3325:3444   */\n      iszero\n      tag_119\n      jumpi\n        /* \"#utility.yul\":3363:3442   */\n      tag_120\n      tag_41\n      jump\t// in\n    tag_120:\n        /* \"#utility.yul\":3325:3444   */\n    tag_119:\n        /* \"#utility.yul\":3511:3512   */\n      0x00\n        /* \"#utility.yul\":3500:3509   */\n      dup3\n        /* \"#utility.yul\":3496:3513   */\n      add\n        /* \"#utility.yul\":3483:3514   */\n      calldataload\n        /* \"#utility.yul\":3541:3559   */\n      0xffffffffffffffff\n        /* \"#utility.yul\":3533:3539   */\n      dup2\n        /* \"#utility.yul\":3530:3560   */\n      gt\n        /* \"#utility.yul\":3527:3644   */\n      iszero\n      tag_121\n      jumpi\n        /* \"#utility.yul\":3563:3642   */\n      tag_122\n      tag_42\n      jump\t// in\n    tag_122:\n        /* \"#utility.yul\":3527:3644   */\n    tag_121:\n        /* \"#utility.yul\":3668:3731   */\n      tag_123\n        /* \"#utility.yul\":3723:3730   */\n      dup5\n        /* \"#utility.yul\":3714:3720   */\n      dup3\n        /* \"#utility.yul\":3703:3712   */\n      dup6\n        /* \"#utility.yul\":3699:3721   */\n      add\n        /* \"#utility.yul\":3668:3731   */\n      tag_55\n      jump\t// in\n    tag_123:\n        /* \"#utility.yul\":3658:3731   */\n      swap2\n      pop\n        /* \"#utility.yul\":3454:3741   */\n      pop\n        /* \"#utility.yul\":3239:3748   */\n      swap3\n      swap2\n      pop\n      pop\n      jump\t// out\n        /* \"#utility.yul\":3754:3853   */\n    tag_56:\n        /* \"#utility.yul\":3806:3812   */\n      0x00\n        /* \"#utility.yul\":3840:3845   */\n      dup2\n        /* \"#utility.yul\":3834:3846   */\n      mload\n        /* \"#utility.yul\":3824:3846   */\n      swap1\n      pop\n        /* \"#utility.yul\":3754:3853   */\n      swap2\n      swap1\n      pop\n      jump\t// out\n        /* \"#utility.yul\":3859:4028   */\n    tag_57:\n        /* \"#utility.yul\":3943:3954   */\n      0x00\n        /* \"#utility.yul\":3977:3983   */\n      dup3\n        /* \"#utility.yul\":3972:3975   */\n      dup3\n        /* \"#utility.yul\":3965:3984   */\n      mstore\n        /* \"#utility.yul\":4017:4021   */\n      0x20\n        /* \"#utility.yul\":4012:4015   */\n      dup3\n        /* \"#utility.yul\":4008:4022   */\n      add\n        /* \"#utility.yul\":3993:4022   */\n      swap1\n      pop\n        /* \"#utility.yul\":3859:4028   */\n      swap3\n      swap2\n      pop\n      pop\n      jump\t// out\n        /* \"#utility.yul\":4034:4341   */\n    tag_58:\n        /* \"#utility.yul\":4102:4103   */\n      0x00\n        /* \"#utility.yul\":4112:4225   */\n    tag_127:\n        /* \"#utility.yul\":4126:4132   */\n      dup4\n        /* \"#utility.yul\":4123:4124   */\n      dup2\n        /* \"#utility.yul\":4120:4133   */\n      lt\n        /* \"#utility.yul\":4112:4225   */\n      iszero\n      tag_129\n      jumpi\n        /* \"#utility.yul\":4211:4212   */\n      dup1\n        /* \"#utility.yul\":4206:4209   */\n      dup3\n        /* \"#utility.yul\":4202:4213   */\n      add\n        /* \"#utility.yul\":4196:4214   */\n      mload\n        /* \"#utility.yul\":4192:4193   */\n      dup2\n        /* \"#utility.yul\":4187:4190   */\n      dup5\n        /* \"#utility.yul\":4183:4194   */\n      add\n        /* \"#utility.yul\":4176:4215   */\n      mstore\n        /* \"#utility.yul\":4148:4150   */\n      0x20\n        /* \"#utility.yul\":4145:4146   */\n      dup2\n        /* \"#utility.yul\":4141:4151   */\n      add\n        /* \"#utility.yul\":4136:4151   */\n      swap1\n      pop\n        /* \"#utility.yul\":4112:4225   */\n      jump(tag_127)\n    tag_129:\n        /* \"#utility.yul\":4243:4249   */\n      dup4\n        /* \"#utility.yul\":4240:4241   */\n      dup2\n        /* \"#utility.yul\":4237:4250   */\n      gt\n        /* \"#utility.yul\":4234:4335   */\n      iszero\n      tag_130\n      jumpi\n        /* \"#utility.yul\":4323:4324   */\n      0x00\n        /* \"#utility.yul\":4314:4320   */\n      dup5\n        /* \"#utility.yul\":4309:4312   */\n      dup5\n        /* \"#utility.yul\":4305:4321   */\n      add\n        /* \"#utility.yul\":4298:4325   */\n      mstore\n        /* \"#utility.yul\":4234:4335   */\n    tag_130:\n        /* \"#utility.yul\":4083:4341   */\n      pop\n        /* \"#utility.yul\":4034:4341   */\n      pop\n      pop\n      pop\n      jump\t// out\n        /* \"#utility.yul\":4347:4711   */\n    tag_59:\n        /* \"#utility.yul\":4435:4438   */\n      0x00\n        /* \"#utility.yul\":4463:4502   */\n      tag_132\n        /* \"#utility.yul\":4496:4501   */\n      dup3\n        /* \"#utility.yul\":4463:4502   */\n      tag_56\n      jump\t// in\n    tag_132:\n        /* \"#utility.yul\":4518:4589   */\n      tag_133\n        /* \"#utility.yul\":4582:4588   */\n      dup2\n        /* \"#utility.yul\":4577:4580   */\n      dup6\n        /* \"#utility.yul\":4518:4589   */\n      tag_57\n      jump\t// in\n    tag_133:\n        /* \"#utility.yul\":4511:4589   */\n      swap4\n      pop\n        /* \"#utility.yul\":4598:4650   */\n      tag_134\n        /* \"#utility.yul\":4643:4649   */\n      dup2\n        /* \"#utility.yul\":4638:4641   */\n      dup6\n        /* \"#utility.yul\":4631:4635   */\n      0x20\n        /* \"#utility.yul\":4624:4629   */\n      dup7\n        /* \"#utility.yul\":4620:4636   */\n      add\n        /* \"#utility.yul\":4598:4650   */\n      tag_58\n      jump\t// in\n    tag_134:\n        /* \"#utility.yul\":4675:4704   */\n      tag_135\n        /* \"#utility.yul\":4697:4703   */\n      dup2\n        /* \"#utility.yul\":4675:4704   */\n      tag_48\n      jump\t// in\n    tag_135:\n        /* \"#utility.yul\":4670:4673   */\n      dup5\n        /* \"#utility.yul\":4666:4705   */\n      add\n        /* \"#utility.yul\":4659:4705   */\n      swap2\n      pop\n        /* \"#utility.yul\":4439:4711   */\n      pop\n        /* \"#utility.yul\":4347:4711   */\n      swap3\n      swap2\n      pop\n      pop\n      jump\t// out\n        /* \"#utility.yul\":4717:4807   */\n    tag_60:\n        /* \"#utility.yul\":4751:4758   */\n      0x00\n        /* \"#utility.yul\":4794:4799   */\n      dup2\n        /* \"#utility.yul\":4787:4800   */\n      iszero\n        /* \"#utility.yul\":4780:4801   */\n      iszero\n        /* \"#utility.yul\":4769:4801   */\n      swap1\n      pop\n        /* \"#utility.yul\":4717:4807   */\n      swap2\n      swap1\n      pop\n      jump\t// out\n        /* \"#utility.yul\":4813:4922   */\n    tag_61:\n        /* \"#utility.yul\":4894:4915   */\n      tag_138\n        /* \"#utility.yul\":4909:4914   */\n      dup2\n        /* \"#utility.yul\":4894:4915   */\n      tag_60\n      jump\t// in\n    tag_138:\n        /* \"#utility.yul\":4889:4892   */\n      dup3\n        /* \"#utility.yul\":4882:4916   */\n      mstore\n        /* \"#utility.yul\":4813:4922   */\n      pop\n      pop\n      jump\t// out\n        /* \"#utility.yul\":4928:5339   */\n    tag_21:\n        /* \"#utility.yul\":5063:5067   */\n      0x00\n        /* \"#utility.yul\":5101:5103   */\n      0x40\n        /* \"#utility.yul\":5090:5099   */\n      dup3\n        /* \"#utility.yul\":5086:5104   */\n      add\n        /* \"#utility.yul\":5078:5104   */\n      swap1\n      pop\n        /* \"#utility.yul\":5150:5159   */\n      dup2\n        /* \"#utility.yul\":5144:5148   */\n      dup2\n        /* \"#utility.yul\":5140:5160   */\n      sub\n        /* \"#utility.yul\":5136:5137   */\n      0x00\n        /* \"#utility.yul\":5125:5134   */\n      dup4\n        /* \"#utility.yul\":5121:5138   */\n      add\n        /* \"#utility.yul\":5114:5161   */\n      mstore\n        /* \"#utility.yul\":5178:5256   */\n      tag_140\n        /* \"#utility.yul\":5251:5255   */\n      dup2\n        /* \"#utility.yul\":5242:5248   */\n      dup6\n        /* \"#utility.yul\":5178:5256   */\n      tag_59\n      jump\t// in\n    tag_140:\n        /* \"#utility.yul\":5170:5256   */\n      swap1\n      pop\n        /* \"#utility.yul\":5266:5332   */\n      tag_141\n        /* \"#utility.yul\":5328:5330   */\n      0x20\n        /* \"#utility.yul\":5317:5326   */\n      dup4\n        /* \"#utility.yul\":5313:5331   */\n      add\n        /* \"#utility.yul\":5304:5310   */\n      dup5\n        /* \"#utility.yul\":5266:5332   */\n      tag_61\n      jump\t// in\n    tag_141:\n        /* \"#utility.yul\":4928:5339   */\n      swap4\n      swap3\n      pop\n      pop\n      pop\n      jump\t// out\n        /* \"#utility.yul\":5345:5525   */\n    tag_25:\n        /* \"#utility.yul\":5393:5470   */\n      0x4e487b7100000000000000000000000000000000000000000000000000000000\n        /* \"#utility.yul\":5390:5391   */\n      0x00\n        /* \"#utility.yul\":5383:5471   */\n      mstore\n        /* \"#utility.yul\":5490:5494   */\n      0x32\n        /* \"#utility.yul\":5487:5488   */\n      0x04\n        /* \"#utility.yul\":5480:5495   */\n      mstore\n        /* \"#utility.yul\":5514:5518   */\n      0x24\n        /* \"#utility.yul\":5511:5512   */\n      0x00\n        /* \"#utility.yul\":5504:5519   */\n      revert\n        /* \"#utility.yul\":5531:5711   */\n    tag_62:\n        /* \"#utility.yul\":5579:5656   */\n      0x4e487b7100000000000000000000000000000000000000000000000000000000\n        /* \"#utility.yul\":5576:5577   */\n      0x00\n        /* \"#utility.yul\":5569:5657   */\n      mstore\n        /* \"#utility.yul\":5676:5680   */\n      0x22\n        /* \"#utility.yul\":5673:5674   */\n      0x04\n        /* \"#utility.yul\":5666:5681   */\n      mstore\n        /* \"#utility.yul\":5700:5704   */\n      0x24\n        /* \"#utility.yul\":5697:5698   */\n      0x00\n        /* \"#utility.yul\":5690:5705   */\n      revert\n        /* \"#utility.yul\":5717:6037   */\n    tag_35:\n        /* \"#utility.yul\":5761:5767   */\n      0x00\n        /* \"#utility.yul\":5798:5799   */\n      0x02\n        /* \"#utility.yul\":5792:5796   */\n      dup3\n        /* \"#utility.yul\":5788:5800   */\n      div\n        /* \"#utility.yul\":5778:5800   */\n      swap1\n      pop\n        /* \"#utility.yul\":5845:5846   */\n      0x01\n        /* \"#utility.yul\":5839:5843   */\n      dup3\n        /* \"#utility.yul\":5835:5847   */\n      and\n        /* \"#utility.yul\":5866:5884   */\n      dup1\n        /* \"#utility.yul\":5856:5937   */\n      tag_145\n      jumpi\n        /* \"#utility.yul\":5922:5926   */\n      0x7f\n        /* \"#utility.yul\":5914:5920   */\n      dup3\n        /* \"#utility.yul\":5910:5927   */\n      and\n        /* \"#utility.yul\":5900:5927   */\n      swap2\n      pop\n        /* \"#utility.yul\":5856:5937   */\n    tag_145:\n        /* \"#utility.yul\":5984:5986   */\n      0x20\n        /* \"#utility.yul\":5976:5982   */\n      dup3\n        /* \"#utility.yul\":5973:5987   */\n      lt\n        /* \"#utility.yul\":5953:5971   */\n      dup2\n        /* \"#utility.yul\":5950:5988   */\n      sub\n        /* \"#utility.yul\":5947:6031   */\n      tag_146\n      jumpi\n        /* \"#utility.yul\":6003:6021   */\n      tag_147\n      tag_62\n      jump\t// in\n    tag_147:\n        /* \"#utility.yul\":5947:6031   */\n    tag_146:\n        /* \"#utility.yul\":5768:6037   */\n      pop\n        /* \"#utility.yul\":5717:6037   */\n      swap2\n      swap1\n      pop\n      jump\t// out\n        /* \"#utility.yul\":6043:6184   */\n    tag_63:\n        /* \"#utility.yul\":6092:6096   */\n      0x00\n        /* \"#utility.yul\":6115:6118   */\n      dup2\n        /* \"#utility.yul\":6107:6118   */\n      swap1\n      pop\n        /* \"#utility.yul\":6138:6141   */\n      dup2\n        /* \"#utility.yul\":6135:6136   */\n      0x00\n        /* \"#utility.yul\":6128:6142   */\n      mstore\n        /* \"#utility.yul\":6172:6176   */\n      0x20\n        /* \"#utility.yul\":6169:6170   */\n      0x00\n        /* \"#utility.yul\":6159:6177   */\n      keccak256\n        /* \"#utility.yul\":6151:6177   */\n      swap1\n      pop\n        /* \"#utility.yul\":6043:6184   */\n      swap2\n      swap1\n      pop\n      jump\t// out\n        /* \"#utility.yul\":6190:6283   */\n    tag_64:\n        /* \"#utility.yul\":6227:6233   */\n      0x00\n        /* \"#utility.yul\":6274:6276   */\n      0x20\n        /* \"#utility.yul\":6269:6271   */\n      0x1f\n        /* \"#utility.yul\":6262:6267   */\n      dup4\n        /* \"#utility.yul\":6258:6272   */\n      add\n        /* \"#utility.yul\":6254:6277   */\n      div\n        /* \"#utility.yul\":6244:6277   */\n      swap1\n      pop\n        /* \"#utility.yul\":6190:6283   */\n      swap2\n      swap1\n      pop\n      jump\t// out\n        /* \"#utility.yul\":6289:6396   */\n    tag_65:\n        /* \"#utility.yul\":6333:6341   */\n      0x00\n        /* \"#utility.yul\":6383:6388   */\n      dup3\n        /* \"#utility.yul\":6377:6381   */\n      dup3\n        /* \"#utility.yul\":6373:6389   */\n      shl\n        /* \"#utility.yul\":6352:6389   */\n      swap1\n      pop\n        /* \"#utility.yul\":6289:6396   */\n      swap3\n      swap2\n      pop\n      pop\n      jump\t// out\n        /* \"#utility.yul\":6402:6795   */\n    tag_66:\n        /* \"#utility.yul\":6471:6477   */\n      0x00\n        /* \"#utility.yul\":6521:6522   */\n      0x08\n        /* \"#utility.yul\":6509:6519   */\n      dup4\n        /* \"#utility.yul\":6505:6523   */\n      mul\n        /* \"#utility.yul\":6544:6641   */\n      tag_152\n        /* \"#utility.yul\":6574:6640   */\n      0xffffffffffffffffffffffffffffffffffffffffffffffffffffffffffffffff\n        /* \"#utility.yul\":6563:6572   */\n      dup3\n        /* \"#utility.yul\":6544:6641   */\n      tag_65\n      jump\t// in\n    tag_152:\n        /* \"#utility.yul\":6662:6701   */\n      tag_153\n        /* \"#utility.yul\":6692:6700   */\n      dup7\n        /* \"#utility.yul\":6681:6690   */\n      dup4\n        /* \"#utility.yul\":6662:6701   */\n      tag_65\n      jump\t// in\n    tag_153:\n        /* \"#utility.yul\":6650:6701   */\n      swap6\n      pop\n        /* \"#utility.yul\":6734:6738   */\n      dup1\n        /* \"#utility.yul\":6730:6739   */\n      not\n        /* \"#utility.yul\":6723:6728   */\n      dup5\n        /* \"#utility.yul\":6719:6740   */\n      and\n        /* \"#utility.yul\":6710:6740   */\n      swap4\n      pop\n        /* \"#utility.yul\":6783:6787   */\n      dup1\n        /* \"#utility.yul\":6773:6781   */\n      dup7\n        /* \"#utility.yul\":6769:6788   */\n      and\n        /* \"#utility.yul\":6762:6767   */\n      dup5\n        /* \"#utility.yul\":6759:6789   */\n      or\n        /* \"#utility.yul\":6749:6789   */\n      swap3\n      pop\n        /* \"#utility.yul\":6478:6795   */\n      pop\n      pop\n        /* \"#utility.yul\":6402:6795   */\n      swap4\n      swap3\n      pop\n      pop\n      pop\n      jump\t// out\n        /* \"#utility.yul\":6801:6861   */\n    tag_67:\n        /* \"#utility.yul\":6829:6832   */\n      0x00\n        /* \"#utility.yul\":6850:6855   */\n      dup2\n        /* \"#utility.yul\":6843:6855   */\n      swap1\n      pop\n        /* \"#utility.yul\":6801:6861   */\n      swap2\n      swap1\n      pop\n      jump\t// out\n        /* \"#utility.yul\":6867:7009   */\n    tag_68:\n        /* \"#utility.yul\":6917:6926   */\n      0x00\n        /* \"#utility.yul\":6950:7003   */\n      tag_156\n        /* \"#utility.yul\":6968:7002   */\n      tag_157\n        /* \"#utility.yul\":6977:7001   */\n      tag_158\n        /* \"#utility.yul\":6995:7000   */\n      dup5\n        /* \"#utility.yul\":6977:7001   */\n      tag_43\n      jump\t// in\n    tag_158:\n        /* \"#utility.yul\":6968:7002   */\n      tag_67\n      jump\t// in\n    tag_157:\n        /* \"#utility.yul\":6950:7003   */\n      tag_43\n      jump\t// in\n    tag_156:\n        /* \"#utility.yul\":6937:7003   */\n      swap1\n      pop\n        /* \"#utility.yul\":6867:7009   */\n      swap2\n      swap1\n      pop\n      jump\t// out\n        /* \"#utility.yul\":7015:7090   */\n    tag_69:\n        /* \"#utility.yul\":7058:7061   */\n      0x00\n        /* \"#utility.yul\":7079:7084   */\n      dup2\n        /* \"#utility.yul\":7072:7084   */\n      swap1\n      pop\n        /* \"#utility.yul\":7015:7090   */\n      swap2\n      swap1\n      pop\n      jump\t// out\n        /* \"#utility.yul\":7096:7365   */\n    tag_70:\n        /* \"#utility.yul\":7206:7245   */\n      tag_161\n        /* \"#utility.yul\":7237:7244   */\n      dup4\n        /* \"#utility.yul\":7206:7245   */\n      tag_68\n      jump\t// in\n    tag_161:\n        /* \"#utility.yul\":7267:7358   */\n      tag_162\n        /* \"#utility.yul\":7316:7357   */\n      tag_163\n        /* \"#utility.yul\":7340:7356   */\n      dup3\n        /* \"#utility.yul\":7316:7357   */\n      tag_69\n      jump\t// in\n    tag_163:\n        /* \"#utility.yul\":7308:7314   */\n      dup5\n        /* \"#utility.yul\":7301:7305   */\n      dup5\n        /* \"#utility.yul\":7295:7306   */\n      sload\n        /* \"#utility.yul\":7267:7358   */\n      tag_66\n      jump\t// in\n    tag_162:\n        /* \"#utility.yul\":7261:7265   */\n      dup3\n        /* \"#utility.yul\":7254:7359   */\n      sstore\n        /* \"#utility.yul\":7172:7365   */\n      pop\n        /* \"#utility.yul\":7096:7365   */\n      pop\n      pop\n      pop\n      jump\t// out\n        /* \"#utility.yul\":7371:7444   */\n    tag_71:\n        /* \"#utility.yul\":7416:7419   */\n      0x00\n        /* \"#utility.yul\":7371:7444   */\n      swap1\n      jump\t// out\n        /* \"#utility.yul\":7450:7639   */\n    tag_72:\n        /* \"#utility.yul\":7527:7559   */\n      tag_166\n      tag_71\n      jump\t// in\n    tag_166:\n        /* \"#utility.yul\":7568:7633   */\n      tag_167\n        /* \"#utility.yul\":7626:7632   */\n      dup2\n        /* \"#utility.yul\":7618:7624   */\n      dup5\n        /* \"#utility.yul\":7612:7616   */\n      dup5\n        /* \"#utility.yul\":7568:7633   */\n      tag_70\n      jump\t// in\n    tag_167:\n        /* \"#utility.yul\":7503:7639   */\n      pop\n        /* \"#utility.yul\":7450:7639   */\n      pop\n      pop\n      jump\t// out\n        /* \"#utility.yul\":7645:7831   */\n    tag_73:\n        /* \"#utility.yul\":7705:7825   */\n    tag_169:\n        /* \"#utility.yul\":7722:7725   */\n      dup2\n        /* \"#utility.yul\":7715:7720   */\n      dup2\n        /* \"#utility.yul\":7712:7726   */\n      lt\n        /* \"#utility.yul\":7705:7825   */\n      iszero\n      tag_171\n      jumpi\n        /* \"#utility.yul\":7776:7815   */\n      tag_172\n        /* \"#utility.yul\":7813:7814   */\n      0x00\n        /* \"#utility.yul\":7806:7811   */\n      dup3\n        /* \"#utility.yul\":7776:7815   */\n      tag_72\n      jump\t// in\n    tag_172:\n        /* \"#utility.yul\":7749:7750   */\n      0x01\n        /* \"#utility.yul\":7742:7747   */\n      dup2\n        /* \"#utility.yul\":7738:7751   */\n      add\n        /* \"#utility.yul\":7729:7751   */\n      swap1\n      pop\n        /* \"#utility.yul\":7705:7825   */\n      jump(tag_169)\n    tag_171:\n        /* \"#utility.yul\":7645:7831   */\n      pop\n      pop\n      jump\t// out\n        /* \"#utility.yul\":7837:8380   */\n    tag_74:\n        /* \"#utility.yul\":7938:7940   */\n      0x1f\n        /* \"#utility.yul\":7933:7936   */\n      dup3\n        /* \"#utility.yul\":7930:7941   */\n      gt\n        /* \"#utility.yul\":7927:8373   */\n      iszero\n      tag_174\n      jumpi\n        /* \"#utility.yul\":7972:8010   */\n      tag_175\n        /* \"#utility.yul\":8004:8009   */\n      dup2\n        /* \"#utility.yul\":7972:8010   */\n      tag_63\n      jump\t// in\n    tag_175:\n        /* \"#utility.yul\":8056:8085   */\n      tag_176\n        /* \"#utility.yul\":8074:8084   */\n      dup5\n        /* \"#utility.yul\":8056:8085   */\n      tag_64\n      jump\t// in\n    tag_176:\n        /* \"#utility.yul\":8046:8054   */\n      dup2\n        /* \"#utility.yul\":8042:8086   */\n      add\n        /* \"#utility.yul\":8239:8241   */\n      0x20\n        /* \"#utility.yul\":8227:8237   */\n      dup6\n        /* \"#utility.yul\":8224:8242   */\n      lt\n        /* \"#utility.yul\":8221:8270   */\n      iszero\n      tag_177\n      jumpi\n        /* \"#utility.yul\":8260:8268   */\n      dup2\n        /* \"#utility.yul\":8245:8268   */\n      swap1\n      pop\n        /* \"#utility.yul\":8221:8270   */\n    tag_177:\n        /* \"#utility.yul\":8283:8363   */\n      tag_178\n        /* \"#utility.yul\":8339:8361   */\n      tag_179\n        /* \"#utility.yul\":8357:8360   */\n      dup6\n        /* \"#utility.yul\":8339:8361   */\n      tag_64\n      jump\t// in\n    tag_179:\n        /* \"#utility.yul\":8329:8337   */\n      dup4\n        /* \"#utility.yul\":8325:8362   */\n      add\n        /* \"#utility.yul\":8312:8323   */\n      dup3\n        /* \"#utility.yul\":8283:8363   */\n      tag_73\n      jump\t// in\n    tag_178:\n        /* \"#utility.yul\":7942:8373   */\n      pop\n      pop\n        /* \"#utility.yul\":7927:8373   */\n    tag_174:\n        /* \"#utility.yul\":7837:8380   */\n      pop\n      pop\n      pop\n      jump\t// out\n        /* \"#utility.yul\":8386:8503   */\n    tag_75:\n        /* \"#utility.yul\":8440:8448   */\n      0x00\n        /* \"#utility.yul\":8490:8495   */\n      dup3\n        /* \"#utility.yul\":8484:8488   */\n      dup3\n        /* \"#utility.yul\":8480:8496   */\n      shr\n        /* \"#utility.yul\":8459:8496   */\n      swap1\n      pop\n        /* \"#utility.yul\":8386:8503   */\n      swap3\n      swap2\n      pop\n      pop\n      jump\t// out\n        /* \"#utility.yul\":8509:8678   */\n    tag_76:\n        /* \"#utility.yul\":8553:8559   */\n      0x00\n        /* \"#utility.yul\":8586:8637   */\n      tag_182\n        /* \"#utility.yul\":8634:8635   */\n      0x00\n        /* \"#utility.yul\":8630:8636   */\n      not\n        /* \"#utility.yul\":8622:8627   */\n      dup5\n        /* \"#utility.yul\":8619:8620   */\n      0x08\n        /* \"#utility.yul\":8615:8628   */\n      mul\n        /* \"#utility.yul\":8586:8637   */\n      tag_75\n      jump\t// in\n    tag_182:\n        /* \"#utility.yul\":8582:8638   */\n      not\n        /* \"#utility.yul\":8667:8671   */\n      dup1\n        /* \"#utility.yul\":8661:8665   */\n      dup4\n        /* \"#utility.yul\":8657:8672   */\n      and\n        /* \"#utility.yul\":8647:8672   */\n      swap2\n      pop\n        /* \"#utility.yul\":8560:8678   */\n      pop\n        /* \"#utility.yul\":8509:8678   */\n      swap3\n      swap2\n      pop\n      pop\n      jump\t// out\n        /* \"#utility.yul\":8683:8978   */\n    tag_77:\n        /* \"#utility.yul\":8759:8763   */\n      0x00\n        /* \"#utility.yul\":8905:8934   */\n      tag_184\n        /* \"#utility.yul\":8930:8933   */\n      dup4\n        /* \"#utility.yul\":8924:8928   */\n      dup4\n        /* \"#utility.yul\":8905:8934   */\n      tag_76\n      jump\t// in\n    tag_184:\n        /* \"#utility.yul\":8897:8934   */\n      swap2\n      pop\n        /* \"#utility.yul\":8967:8970   */\n      dup3\n        /* \"#utility.yul\":8964:8965   */\n      0x02\n        /* \"#utility.yul\":8960:8971   */\n      mul\n        /* \"#utility.yul\":8954:8958   */\n      dup3\n        /* \"#utility.yul\":8951:8972   */\n      or\n        /* \"#utility.yul\":8943:8972   */\n      swap1\n      pop\n        /* \"#utility.yul\":8683:8978   */\n      swap3\n      swap2\n      pop\n      pop\n      jump\t// out\n        /* \"#utility.yul\":8983:10378   */\n    tag_31:\n        /* \"#utility.yul\":9100:9137   */\n      tag_186\n        /* \"#utility.yul\":9133:9136   */\n      dup3\n        /* \"#utility.yul\":9100:9137   */\n      tag_56\n      jump\t// in\n    tag_186:\n        /* \"#utility.yul\":9202:9220   */\n      0xffffffffffffffff\n        /* \"#utility.yul\":9194:9200   */\n      dup2\n        /* \"#utility.yul\":9191:9221   */\n      gt\n        /* \"#utility.yul\":9188:9244   */\n      iszero\n      tag_187\n      jumpi\n        /* \"#utility.yul\":9224:9242   */\n      tag_188\n      tag_49\n      jump\t// in\n    tag_188:\n        /* \"#utility.yul\":9188:9244   */\n    tag_187:\n        /* \"#utility.yul\":9268:9306   */\n      tag_189\n        /* \"#utility.yul\":9300:9304   */\n      dup3\n        /* \"#utility.yul\":9294:9305   */\n      sload\n        /* \"#utility.yul\":9268:9306   */\n      tag_35\n      jump\t// in\n    tag_189:\n        /* \"#utility.yul\":9353:9420   */\n      tag_190\n        /* \"#utility.yul\":9413:9419   */\n      dup3\n        /* \"#utility.yul\":9405:9411   */\n      dup3\n        /* \"#utility.yul\":9399:9403   */\n      dup6\n        /* \"#utility.yul\":9353:9420   */\n      tag_74\n      jump\t// in\n    tag_190:\n        /* \"#utility.yul\":9447:9448   */\n      0x00\n        /* \"#utility.yul\":9471:9475   */\n      0x20\n        /* \"#utility.yul\":9458:9475   */\n      swap1\n      pop\n        /* \"#utility.yul\":9503:9505   */\n      0x1f\n        /* \"#utility.yul\":9495:9501   */\n      dup4\n        /* \"#utility.yul\":9492:9506   */\n      gt\n        /* \"#utility.yul\":9520:9521   */\n      0x01\n        /* \"#utility.yul\":9515:10133   */\n      dup2\n      eq\n      tag_192\n      jumpi\n        /* \"#utility.yul\":10177:10178   */\n      0x00\n        /* \"#utility.yul\":10194:10200   */\n      dup5\n        /* \"#utility.yul\":10191:10268   */\n      iszero\n      tag_193\n      jumpi\n        /* \"#utility.yul\":10243:10252   */\n      dup3\n        /* \"#utility.yul\":10238:10241   */\n      dup8\n        /* \"#utility.yul\":10234:10253   */\n      add\n        /* \"#utility.yul\":10228:10254   */\n      mload\n        /* \"#utility.yul\":10219:10254   */\n      swap1\n      pop\n        /* \"#utility.yul\":10191:10268   */\n    tag_193:\n        /* \"#utility.yul\":10294:10361   */\n      tag_194\n        /* \"#utility.yul\":10354:10360   */\n      dup6\n        /* \"#utility.yul\":10347:10352   */\n      dup3\n        /* \"#utility.yul\":10294:10361   */\n      tag_77\n      jump\t// in\n    tag_194:\n        /* \"#utility.yul\":10288:10292   */\n      dup7\n        /* \"#utility.yul\":10281:10362   */\n      sstore\n        /* \"#utility.yul\":10150:10372   */\n      pop\n        /* \"#utility.yul\":9485:10372   */\n      jump(tag_191)\n        /* \"#utility.yul\":9515:10133   */\n    tag_192:\n        /* \"#utility.yul\":9567:9571   */\n      0x1f\n        /* \"#utility.yul\":9563:9572   */\n      not\n        /* \"#utility.yul\":9555:9561   */\n      dup5\n        /* \"#utility.yul\":9551:9573   */\n      and\n        /* \"#utility.yul\":9601:9638   */\n      tag_195\n        /* \"#utility.yul\":9633:9637   */\n      dup7\n        /* \"#utility.yul\":9601:9638   */\n      tag_63\n      jump\t// in\n    tag_195:\n        /* \"#utility.yul\":9660:9661   */\n      0x00\n        /* \"#utility.yul\":9674:9882   */\n    tag_196:\n        /* \"#utility.yul\":9688:9695   */\n      dup3\n        /* \"#utility.yul\":9685:9686   */\n      dup2\n        /* \"#utility.yul\":9682:9696   */\n      lt\n        /* \"#utility.yul\":9674:9882   */\n      iszero\n      tag_198\n      jumpi\n        /* \"#utility.yul\":9767:9776   */\n      dup5\n        /* \"#utility.yul\":9762:9765   */\n      dup10\n        /* \"#utility.yul\":9758:9777   */\n      add\n        /* \"#utility.yul\":9752:9778   */\n      mload\n        /* \"#utility.yul\":9744:9750   */\n      dup3\n        /* \"#utility.yul\":9737:9779   */\n      sstore\n        /* \"#utility.yul\":9818:9819   */\n      0x01\n        /* \"#utility.yul\":9810:9816   */\n      dup3\n        /* \"#utility.yul\":9806:9820   */\n      add\n        /* \"#utility.yul\":9796:9820   */\n      swap2\n      pop\n        /* \"#utility.yul\":9865:9867   */\n      0x20\n        /* \"#utility.yul\":9854:9863   */\n      dup6\n        /* \"#utility.yul\":9850:9868   */\n      add\n        /* \"#utility.yul\":9837:9868   */\n      swap5\n      pop\n        /* \"#utility.yul\":9711:9715   */\n      0x20\n        /* \"#utility.yul\":9708:9709   */\n      dup2\n        /* \"#utility.yul\":9704:9716   */\n      add\n        /* \"#utility.yul\":9699:9716   */\n      swap1\n      pop\n        /* \"#utility.yul\":9674:9882   */\n      jump(tag_196)\n    tag_198:\n        /* \"#utility.yul\":9910:9916   */\n      dup7\n        /* \"#utility.yul\":9901:9908   */\n      dup4\n        /* \"#utility.yul\":9898:9917   */\n      lt\n        /* \"#utility.yul\":9895:10074   */\n      iszero\n      tag_199\n      jumpi\n        /* \"#utility.yul\":9968:9977   */\n      dup5\n        /* \"#utility.yul\":9963:9966   */\n      dup10\n        /* \"#utility.yul\":9959:9978   */\n      add\n        /* \"#utility.yul\":9953:9979   */\n      mload\n        /* \"#utility.yul\":10011:10059   */\n      tag_200\n        /* \"#utility.yul\":10053:10057   */\n      0x1f\n        /* \"#utility.yul\":10045:10051   */\n      dup10\n        /* \"#utility.yul\":10041:10058   */\n      and\n        /* \"#utility.yul\":10030:10039   */\n      dup3\n        /* \"#utility.yul\":10011:10059   */\n      tag_76\n      jump\t// in\n    tag_200:\n        /* \"#utility.yul\":10003:10009   */\n      dup4\n        /* \"#utility.yul\":9996:10060   */\n      sstore\n        /* \"#utility.yul\":9918:10074   */\n      pop\n        /* \"#utility.yul\":9895:10074   */\n    tag_199:\n        /* \"#utility.yul\":10120:10121   */\n      0x01\n        /* \"#utility.yul\":10116:10117   */\n      0x02\n        /* \"#utility.yul\":10108:10114   */\n      dup9\n        /* \"#utility.yul\":10104:10118   */\n      mul\n        /* \"#utility.yul\":10100:10122   */\n      add\n        /* \"#utility.yul\":10094:10098   */\n      dup9\n        /* \"#utility.yul\":10087:10123   */\n      sstore\n        /* \"#utility.yul\":9522:10133   */\n      pop\n      pop\n      pop\n        /* \"#utility.yul\":9485:10372   */\n    tag_191:\n      pop\n        /* \"#utility.yul\":9075:10378   */\n      pop\n      pop\n      pop\n        /* \"#utility.yul\":8983:10378   */\n      pop\n      pop\n      jump\t// out\n\n    auxdata: 0xa2646970667358221220f8e771353f8f3987d12b31b3198147127979e7b3fe06d0898c18d949ed845b7d64736f6c634300080f0033\n}\n",
				"bytecode": {
					"linkReferences": {},
					"object": "608060405234801561001057600080fd5b50610852806100206000396000f3fe608060405234801561001057600080fd5b506004361061004c5760003560e01c806309e96008146100515780633bc5de301461006d578063b6a46b3b14610077578063bc8bc2b414610093575b600080fd5b61006b60048036038101906100669190610280565b6100c4565b005b6100756100ed565b005b610091600480360381019061008c91906103f3565b6100ef565b005b6100ad60048036038101906100a89190610280565b61016d565b6040516100bb9291906104df565b60405180910390f35b60008082815481106100d9576100d861050f565b5b906000526020600020906002020190505050565b565b600060405180604001604052808381526020016001151581525090806001815401808255809150506001900390600052602060002090600202016000909190919091506000820151816000019081610147919061074a565b5060208201518160010160006101000a81548160ff021916908315150217905550505050565b6000818154811061017d57600080fd5b90600052602060002090600202016000915090508060000180546101a09061056d565b80601f01602080910402602001604051908101604052809291908181526020018280546101cc9061056d565b80156102195780601f106101ee57610100808354040283529160200191610219565b820191906000526020600020905b8154815290600101906020018083116101fc57829003601f168201915b5050505050908060010160009054906101000a900460ff16905082565b6000604051905090565b600080fd5b600080fd5b6000819050919050565b61025d8161024a565b811461026857600080fd5b50565b60008135905061027a81610254565b92915050565b60006020828403121561029657610295610240565b5b60006102a48482850161026b565b91505092915050565b600080fd5b600080fd5b6000601f19601f8301169050919050565b7f4e487b7100000000000000000000000000000000000000000000000000000000600052604160045260246000fd5b610300826102b7565b810181811067ffffffffffffffff8211171561031f5761031e6102c8565b5b80604052505050565b6000610332610236565b905061033e82826102f7565b919050565b600067ffffffffffffffff82111561035e5761035d6102c8565b5b610367826102b7565b9050602081019050919050565b82818337600083830152505050565b600061039661039184610343565b610328565b9050828152602081018484840111156103b2576103b16102b2565b5b6103bd848285610374565b509392505050565b600082601f8301126103da576103d96102ad565b5b81356103ea848260208601610383565b91505092915050565b60006020828403121561040957610408610240565b5b600082013567ffffffffffffffff81111561042757610426610245565b5b610433848285016103c5565b91505092915050565b600081519050919050565b600082825260208201905092915050565b60005b8381101561047657808201518184015260208101905061045b565b83811115610485576000848401525b50505050565b60006104968261043c565b6104a08185610447565b93506104b0818560208601610458565b6104b9816102b7565b840191505092915050565b60008115159050919050565b6104d9816104c4565b82525050565b600060408201905081810360008301526104f9818561048b565b905061050860208301846104d0565b9392505050565b7f4e487b7100000000000000000000000000000000000000000000000000000000600052603260045260246000fd5b7f4e487b7100000000000000000000000000000000000000000000000000000000600052602260045260246000fd5b6000600282049050600182168061058557607f821691505b6020821081036105985761059761053e565b5b50919050565b60008190508160005260206000209050919050565b60006020601f8301049050919050565b600082821b905092915050565b6000600883026106007fffffffffffffffffffffffffffffffffffffffffffffffffffffffffffffffff826105c3565b61060a86836105c3565b95508019841693508086168417925050509392505050565b6000819050919050565b600061064761064261063d8461024a565b610622565b61024a565b9050919050565b6000819050919050565b6106618361062c565b61067561066d8261064e565b8484546105d0565b825550505050565b600090565b61068a61067d565b610695818484610658565b505050565b5b818110156106b9576106ae600082610682565b60018101905061069b565b5050565b601f8211156106fe576106cf8161059e565b6106d8846105b3565b810160208510156106e7578190505b6106fb6106f3856105b3565b83018261069a565b50505b505050565b600082821c905092915050565b600061072160001984600802610703565b1980831691505092915050565b600061073a8383610710565b9150826002028217905092915050565b6107538261043c565b67ffffffffffffffff81111561076c5761076b6102c8565b5b610776825461056d565b6107818282856106bd565b600060209050601f8311600181146107b457600084156107a2578287015190505b6107ac858261072e565b865550610814565b601f1984166107c28661059e565b60005b828110156107ea578489015182556001820191506020850194506020810190506107c5565b868310156108075784890151610803601f891682610710565b8355505b6001600288020188555050505b50505050505056fea2646970667358221220f8e771353f8f3987d12b31b3198147127979e7b3fe06d0898c18d949ed845b7d64736f6c634300080f0033",
					"opcodes": "PUSH1 0x80 PUSH1 0x40 MSTORE CALLVALUE DUP1 ISZERO PUSH2 0x10 JUMPI PUSH1 0x0 DUP1 REVERT JUMPDEST POP PUSH2 0x852 DUP1 PUSH2 0x20 PUSH1 0x0 CODECOPY PUSH1 0x0 RETURN INVALID PUSH1 0x80 PUSH1 0x40 MSTORE CALLVALUE DUP1 ISZERO PUSH2 0x10 JUMPI PUSH1 0x0 DUP1 REVERT JUMPDEST POP PUSH1 0x4 CALLDATASIZE LT PUSH2 0x4C JUMPI PUSH1 0x0 CALLDATALOAD PUSH1 0xE0 SHR DUP1 PUSH4 0x9E96008 EQ PUSH2 0x51 JUMPI DUP1 PUSH4 0x3BC5DE30 EQ PUSH2 0x6D JUMPI DUP1 PUSH4 0xB6A46B3B EQ PUSH2 0x77 JUMPI DUP1 PUSH4 0xBC8BC2B4 EQ PUSH2 0x93 JUMPI JUMPDEST PUSH1 0x0 DUP1 REVERT JUMPDEST PUSH2 0x6B PUSH1 0x4 DUP1 CALLDATASIZE SUB DUP2 ADD SWAP1 PUSH2 0x66 SWAP2 SWAP1 PUSH2 0x280 JUMP JUMPDEST PUSH2 0xC4 JUMP JUMPDEST STOP JUMPDEST PUSH2 0x75 PUSH2 0xED JUMP JUMPDEST STOP JUMPDEST PUSH2 0x91 PUSH1 0x4 DUP1 CALLDATASIZE SUB DUP2 ADD SWAP1 PUSH2 0x8C SWAP2 SWAP1 PUSH2 0x3F3 JUMP JUMPDEST PUSH2 0xEF JUMP JUMPDEST STOP JUMPDEST PUSH2 0xAD PUSH1 0x4 DUP1 CALLDATASIZE SUB DUP2 ADD SWAP1 PUSH2 0xA8 SWAP2 SWAP1 PUSH2 0x280 JUMP JUMPDEST PUSH2 0x16D JUMP JUMPDEST PUSH1 0x40 MLOAD PUSH2 0xBB SWAP3 SWAP2 SWAP1 PUSH2 0x4DF JUMP JUMPDEST PUSH1 0x40 MLOAD DUP1 SWAP2 SUB SWAP1 RETURN JUMPDEST PUSH1 0x0 DUP1 DUP3 DUP2 SLOAD DUP2 LT PUSH2 0xD9 JUMPI PUSH2 0xD8 PUSH2 0x50F JUMP JUMPDEST JUMPDEST SWAP1 PUSH1 0x0 MSTORE PUSH1 0x20 PUSH1 0x0 KECCAK256 SWAP1 PUSH1 0x2 MUL ADD SWAP1 POP POP POP JUMP JUMPDEST JUMP JUMPDEST PUSH1 0x0 PUSH1 0x40 MLOAD DUP1 PUSH1 0x40 ADD PUSH1 0x40 MSTORE DUP1 DUP4 DUP2 MSTORE PUSH1 0x20 ADD PUSH1 0x1 ISZERO ISZERO DUP2 MSTORE POP SWAP1 DUP1 PUSH1 0x1 DUP2 SLOAD ADD DUP1 DUP3 SSTORE DUP1 SWAP2 POP POP PUSH1 0x1 SWAP1 SUB SWAP1 PUSH1 0x0 MSTORE PUSH1 0x20 PUSH1 0x0 KECCAK256 SWAP1 PUSH1 0x2 MUL ADD PUSH1 0x0 SWAP1 SWAP2 SWAP1 SWAP2 SWAP1 SWAP2 POP PUSH1 0x0 DUP3 ADD MLOAD DUP2 PUSH1 0x0 ADD SWAP1 DUP2 PUSH2 0x147 SWAP2 SWAP1 PUSH2 0x74A JUMP JUMPDEST POP PUSH1 0x20 DUP3 ADD MLOAD DUP2 PUSH1 0x1 ADD PUSH1 0x0 PUSH2 0x100 EXP DUP2 SLOAD DUP2 PUSH1 0xFF MUL NOT AND SWAP1 DUP4 ISZERO ISZERO MUL OR SWAP1 SSTORE POP POP POP POP JUMP JUMPDEST PUSH1 0x0 DUP2 DUP2 SLOAD DUP2 LT PUSH2 0x17D JUMPI PUSH1 0x0 DUP1 REVERT JUMPDEST SWAP1 PUSH1 0x0 MSTORE PUSH1 0x20 PUSH1 0x0 KECCAK256 SWAP1 PUSH1 0x2 MUL ADD PUSH1 0x0 SWAP2 POP SWAP1 POP DUP1 PUSH1 0x0 ADD DUP1 SLOAD PUSH2 0x1A0 SWAP1 PUSH2 0x56D JUMP JUMPDEST DUP1 PUSH1 0x1F ADD PUSH1 0x20 DUP1 SWAP2 DIV MUL PUSH1 0x20 ADD PUSH1 0x40 MLOAD SWAP1 DUP2 ADD PUSH1 0x40 MSTORE DUP1 SWAP3 SWAP2 SWAP1 DUP2 DUP2 MSTORE PUSH1 0x20 ADD DUP3 DUP1 SLOAD PUSH2 0x1CC SWAP1 PUSH2 0x56D JUMP JUMPDEST DUP1 ISZERO PUSH2 0x219 JUMPI DUP1 PUSH1 0x1F LT PUSH2 0x1EE JUMPI PUSH2 0x100 DUP1 DUP4 SLOAD DIV MUL DUP4 MSTORE SWAP2 PUSH1 0x20 ADD SWAP2 PUSH2 0x219 JUMP JUMPDEST DUP3 ADD SWAP2 SWAP1 PUSH1 0x0 MSTORE PUSH1 0x20 PUSH1 0x0 KECCAK256 SWAP1 JUMPDEST DUP2 SLOAD DUP2 MSTORE SWAP1 PUSH1 0x1 ADD SWAP1 PUSH1 0x20 ADD DUP1 DUP4 GT PUSH2 0x1FC JUMPI DUP3 SWAP1 SUB PUSH1 0x1F AND DUP3 ADD SWAP2 JUMPDEST POP POP POP POP POP SWAP1 DUP1 PUSH1 0x1 ADD PUSH1 0x0 SWAP1 SLOAD SWAP1 PUSH2 0x100 EXP SWAP1 DIV PUSH1 0xFF AND SWAP1 POP DUP3 JUMP JUMPDEST PUSH1 0x0 PUSH1 0x40 MLOAD SWAP1 POP SWAP1 JUMP JUMPDEST PUSH1 0x0 DUP1 REVERT JUMPDEST PUSH1 0x0 DUP1 REVERT JUMPDEST PUSH1 0x0 DUP2 SWAP1 POP SWAP2 SWAP1 POP JUMP JUMPDEST PUSH2 0x25D DUP2 PUSH2 0x24A JUMP JUMPDEST DUP2 EQ PUSH2 0x268 JUMPI PUSH1 0x0 DUP1 REVERT JUMPDEST POP JUMP JUMPDEST PUSH1 0x0 DUP2 CALLDATALOAD SWAP1 POP PUSH2 0x27A DUP2 PUSH2 0x254 JUMP JUMPDEST SWAP3 SWAP2 POP POP JUMP JUMPDEST PUSH1 0x0 PUSH1 0x20 DUP3 DUP5 SUB SLT ISZERO PUSH2 0x296 JUMPI PUSH2 0x295 PUSH2 0x240 JUMP JUMPDEST JUMPDEST PUSH1 0x0 PUSH2 0x2A4 DUP5 DUP3 DUP6 ADD PUSH2 0x26B JUMP JUMPDEST SWAP2 POP POP SWAP3 SWAP2 POP POP JUMP JUMPDEST PUSH1 0x0 DUP1 REVERT JUMPDEST PUSH1 0x0 DUP1 REVERT JUMPDEST PUSH1 0x0 PUSH1 0x1F NOT PUSH1 0x1F DUP4 ADD AND SWAP1 POP SWAP2 SWAP1 POP JUMP JUMPDEST PUSH32 0x4E487B7100000000000000000000000000000000000000000000000000000000 PUSH1 0x0 MSTORE PUSH1 0x41 PUSH1 0x4 MSTORE PUSH1 0x24 PUSH1 0x0 REVERT JUMPDEST PUSH2 0x300 DUP3 PUSH2 0x2B7 JUMP JUMPDEST DUP2 ADD DUP2 DUP2 LT PUSH8 0xFFFFFFFFFFFFFFFF DUP3 GT OR ISZERO PUSH2 0x31F JUMPI PUSH2 0x31E PUSH2 0x2C8 JUMP JUMPDEST JUMPDEST DUP1 PUSH1 0x40 MSTORE POP POP POP JUMP JUMPDEST PUSH1 0x0 PUSH2 0x332 PUSH2 0x236 JUMP JUMPDEST SWAP1 POP PUSH2 0x33E DUP3 DUP3 PUSH2 0x2F7 JUMP JUMPDEST SWAP2 SWAP1 POP JUMP JUMPDEST PUSH1 0x0 PUSH8 0xFFFFFFFFFFFFFFFF DUP3 GT ISZERO PUSH2 0x35E JUMPI PUSH2 0x35D PUSH2 0x2C8 JUMP JUMPDEST JUMPDEST PUSH2 0x367 DUP3 PUSH2 0x2B7 JUMP JUMPDEST SWAP1 POP PUSH1 0x20 DUP2 ADD SWAP1 POP SWAP2 SWAP1 POP JUMP JUMPDEST DUP3 DUP2 DUP4 CALLDATACOPY PUSH1 0x0 DUP4 DUP4 ADD MSTORE POP POP POP JUMP JUMPDEST PUSH1 0x0 PUSH2 0x396 PUSH2 0x391 DUP5 PUSH2 0x343 JUMP JUMPDEST PUSH2 0x328 JUMP JUMPDEST SWAP1 POP DUP3 DUP2 MSTORE PUSH1 0x20 DUP2 ADD DUP5 DUP5 DUP5 ADD GT ISZERO PUSH2 0x3B2 JUMPI PUSH2 0x3B1 PUSH2 0x2B2 JUMP JUMPDEST JUMPDEST PUSH2 0x3BD DUP5 DUP3 DUP6 PUSH2 0x374 JUMP JUMPDEST POP SWAP4 SWAP3 POP POP POP JUMP JUMPDEST PUSH1 0x0 DUP3 PUSH1 0x1F DUP4 ADD SLT PUSH2 0x3DA JUMPI PUSH2 0x3D9 PUSH2 0x2AD JUMP JUMPDEST JUMPDEST DUP2 CALLDATALOAD PUSH2 0x3EA DUP5 DUP3 PUSH1 0x20 DUP7 ADD PUSH2 0x383 JUMP JUMPDEST SWAP2 POP POP SWAP3 SWAP2 POP POP JUMP JUMPDEST PUSH1 0x0 PUSH1 0x20 DUP3 DUP5 SUB SLT ISZERO PUSH2 0x409 JUMPI PUSH2 0x408 PUSH2 0x240 JUMP JUMPDEST JUMPDEST PUSH1 0x0 DUP3 ADD CALLDATALOAD PUSH8 0xFFFFFFFFFFFFFFFF DUP2 GT ISZERO PUSH2 0x427 JUMPI PUSH2 0x426 PUSH2 0x245 JUMP JUMPDEST JUMPDEST PUSH2 0x433 DUP5 DUP3 DUP6 ADD PUSH2 0x3C5 JUMP JUMPDEST SWAP2 POP POP SWAP3 SWAP2 POP POP JUMP JUMPDEST PUSH1 0x0 DUP2 MLOAD SWAP1 POP SWAP2 SWAP1 POP JUMP JUMPDEST PUSH1 0x0 DUP3 DUP3 MSTORE PUSH1 0x20 DUP3 ADD SWAP1 POP SWAP3 SWAP2 POP POP JUMP JUMPDEST PUSH1 0x0 JUMPDEST DUP4 DUP2 LT ISZERO PUSH2 0x476 JUMPI DUP1 DUP3 ADD MLOAD DUP2 DUP5 ADD MSTORE PUSH1 0x20 DUP2 ADD SWAP1 POP PUSH2 0x45B JUMP JUMPDEST DUP4 DUP2 GT ISZERO PUSH2 0x485 JUMPI PUSH1 0x0 DUP5 DUP5 ADD MSTORE JUMPDEST POP POP POP POP JUMP JUMPDEST PUSH1 0x0 PUSH2 0x496 DUP3 PUSH2 0x43C JUMP JUMPDEST PUSH2 0x4A0 DUP2 DUP6 PUSH2 0x447 JUMP JUMPDEST SWAP4 POP PUSH2 0x4B0 DUP2 DUP6 PUSH1 0x20 DUP7 ADD PUSH2 0x458 JUMP JUMPDEST PUSH2 0x4B9 DUP2 PUSH2 0x2B7 JUMP JUMPDEST DUP5 ADD SWAP2 POP POP SWAP3 SWAP2 POP POP JUMP JUMPDEST PUSH1 0x0 DUP2 ISZERO ISZERO SWAP1 POP SWAP2 SWAP1 POP JUMP JUMPDEST PUSH2 0x4D9 DUP2 PUSH2 0x4C4 JUMP JUMPDEST DUP3 MSTORE POP POP JUMP JUMPDEST PUSH1 0x0 PUSH1 0x40 DUP3 ADD SWAP1 POP DUP2 DUP2 SUB PUSH1 0x0 DUP4 ADD MSTORE PUSH2 0x4F9 DUP2 DUP6 PUSH2 0x48B JUMP JUMPDEST SWAP1 POP PUSH2 0x508 PUSH1 0x20 DUP4 ADD DUP5 PUSH2 0x4D0 JUMP JUMPDEST SWAP4 SWAP3 POP POP POP JUMP JUMPDEST PUSH32 0x4E487B7100000000000000000000000000000000000000000000000000000000 PUSH1 0x0 MSTORE PUSH1 0x32 PUSH1 0x4 MSTORE PUSH1 0x24 PUSH1 0x0 REVERT JUMPDEST PUSH32 0x4E487B7100000000000000000000000000000000000000000000000000000000 PUSH1 0x0 MSTORE PUSH1 0x22 PUSH1 0x4 MSTORE PUSH1 0x24 PUSH1 0x0 REVERT JUMPDEST PUSH1 0x0 PUSH1 0x2 DUP3 DIV SWAP1 POP PUSH1 0x1 DUP3 AND DUP1 PUSH2 0x585 JUMPI PUSH1 0x7F DUP3 AND SWAP2 POP JUMPDEST PUSH1 0x20 DUP3 LT DUP2 SUB PUSH2 0x598 JUMPI PUSH2 0x597 PUSH2 0x53E JUMP JUMPDEST JUMPDEST POP SWAP2 SWAP1 POP JUMP JUMPDEST PUSH1 0x0 DUP2 SWAP1 POP DUP2 PUSH1 0x0 MSTORE PUSH1 0x20 PUSH1 0x0 KECCAK256 SWAP1 POP SWAP2 SWAP1 POP JUMP JUMPDEST PUSH1 0x0 PUSH1 0x20 PUSH1 0x1F DUP4 ADD DIV SWAP1 POP SWAP2 SWAP1 POP JUMP JUMPDEST PUSH1 0x0 DUP3 DUP3 SHL SWAP1 POP SWAP3 SWAP2 POP POP JUMP JUMPDEST PUSH1 0x0 PUSH1 0x8 DUP4 MUL PUSH2 0x600 PUSH32 0xFFFFFFFFFFFFFFFFFFFFFFFFFFFFFFFFFFFFFFFFFFFFFFFFFFFFFFFFFFFFFFFF DUP3 PUSH2 0x5C3 JUMP JUMPDEST PUSH2 0x60A DUP7 DUP4 PUSH2 0x5C3 JUMP JUMPDEST SWAP6 POP DUP1 NOT DUP5 AND SWAP4 POP DUP1 DUP7 AND DUP5 OR SWAP3 POP POP POP SWAP4 SWAP3 POP POP POP JUMP JUMPDEST PUSH1 0x0 DUP2 SWAP1 POP SWAP2 SWAP1 POP JUMP JUMPDEST PUSH1 0x0 PUSH2 0x647 PUSH2 0x642 PUSH2 0x63D DUP5 PUSH2 0x24A JUMP JUMPDEST PUSH2 0x622 JUMP JUMPDEST PUSH2 0x24A JUMP JUMPDEST SWAP1 POP SWAP2 SWAP1 POP JUMP JUMPDEST PUSH1 0x0 DUP2 SWAP1 POP SWAP2 SWAP1 POP JUMP JUMPDEST PUSH2 0x661 DUP4 PUSH2 0x62C JUMP JUMPDEST PUSH2 0x675 PUSH2 0x66D DUP3 PUSH2 0x64E JUMP JUMPDEST DUP5 DUP5 SLOAD PUSH2 0x5D0 JUMP JUMPDEST DUP3 SSTORE POP POP POP POP JUMP JUMPDEST PUSH1 0x0 SWAP1 JUMP JUMPDEST PUSH2 0x68A PUSH2 0x67D JUMP JUMPDEST PUSH2 0x695 DUP2 DUP5 DUP5 PUSH2 0x658 JUMP JUMPDEST POP POP POP JUMP JUMPDEST JUMPDEST DUP2 DUP2 LT ISZERO PUSH2 0x6B9 JUMPI PUSH2 0x6AE PUSH1 0x0 DUP3 PUSH2 0x682 JUMP JUMPDEST PUSH1 0x1 DUP2 ADD SWAP1 POP PUSH2 0x69B JUMP JUMPDEST POP POP JUMP JUMPDEST PUSH1 0x1F DUP3 GT ISZERO PUSH2 0x6FE JUMPI PUSH2 0x6CF DUP2 PUSH2 0x59E JUMP JUMPDEST PUSH2 0x6D8 DUP5 PUSH2 0x5B3 JUMP JUMPDEST DUP2 ADD PUSH1 0x20 DUP6 LT ISZERO PUSH2 0x6E7 JUMPI DUP2 SWAP1 POP JUMPDEST PUSH2 0x6FB PUSH2 0x6F3 DUP6 PUSH2 0x5B3 JUMP JUMPDEST DUP4 ADD DUP3 PUSH2 0x69A JUMP JUMPDEST POP POP JUMPDEST POP POP POP JUMP JUMPDEST PUSH1 0x0 DUP3 DUP3 SHR SWAP1 POP SWAP3 SWAP2 POP POP JUMP JUMPDEST PUSH1 0x0 PUSH2 0x721 PUSH1 0x0 NOT DUP5 PUSH1 0x8 MUL PUSH2 0x703 JUMP JUMPDEST NOT DUP1 DUP4 AND SWAP2 POP POP SWAP3 SWAP2 POP POP JUMP JUMPDEST PUSH1 0x0 PUSH2 0x73A DUP4 DUP4 PUSH2 0x710 JUMP JUMPDEST SWAP2 POP DUP3 PUSH1 0x2 MUL DUP3 OR SWAP1 POP SWAP3 SWAP2 POP POP JUMP JUMPDEST PUSH2 0x753 DUP3 PUSH2 0x43C JUMP JUMPDEST PUSH8 0xFFFFFFFFFFFFFFFF DUP2 GT ISZERO PUSH2 0x76C JUMPI PUSH2 0x76B PUSH2 0x2C8 JUMP JUMPDEST JUMPDEST PUSH2 0x776 DUP3 SLOAD PUSH2 0x56D JUMP JUMPDEST PUSH2 0x781 DUP3 DUP3 DUP6 PUSH2 0x6BD JUMP JUMPDEST PUSH1 0x0 PUSH1 0x20 SWAP1 POP PUSH1 0x1F DUP4 GT PUSH1 0x1 DUP2 EQ PUSH2 0x7B4 JUMPI PUSH1 0x0 DUP5 ISZERO PUSH2 0x7A2 JUMPI DUP3 DUP8 ADD MLOAD SWAP1 POP JUMPDEST PUSH2 0x7AC DUP6 DUP3 PUSH2 0x72E JUMP JUMPDEST DUP7 SSTORE POP PUSH2 0x814 JUMP JUMPDEST PUSH1 0x1F NOT DUP5 AND PUSH2 0x7C2 DUP7 PUSH2 0x59E JUMP JUMPDEST PUSH1 0x0 JUMPDEST DUP3 DUP2 LT ISZERO PUSH2 0x7EA JUMPI DUP5 DUP10 ADD MLOAD DUP3 SSTORE PUSH1 0x1 DUP3 ADD SWAP2 POP PUSH1 0x20 DUP6 ADD SWAP5 POP PUSH1 0x20 DUP2 ADD SWAP1 POP PUSH2 0x7C5 JUMP JUMPDEST DUP7 DUP4 LT ISZERO PUSH2 0x807 JUMPI DUP5 DUP10 ADD MLOAD PUSH2 0x803 PUSH1 0x1F DUP10 AND DUP3 PUSH2 0x710 JUMP JUMPDEST DUP4 SSTORE POP JUMPDEST PUSH1 0x1 PUSH1 0x2 DUP9 MUL ADD DUP9 SSTORE POP POP POP JUMPDEST POP POP POP POP POP POP JUMP INVALID LOG2 PUSH5 0x6970667358 0x22 SLT KECCAK256 0xF8 0xE7 PUSH18 0x353F8F3987D12B31B3198147127979E7B3FE MOD 0xD0 DUP10 DUP13 XOR 0xD9 0x49 0xED DUP5 JUMPDEST PUSH30 0x64736F6C634300080F003300000000000000000000000000000000000000 "
				},
				"gasEstimates": {
					"creation": {
						"codeDepositCost": "426000",
						"executionCost": "461",
						"totalCost": "426461"
					},
					"external": {
						"create(string)": "infinite",
						"getData()": "144",
						"todos(uint256)": "infinite",
						"updateData(uint256)": "2588"
					}
				},
				"methodIdentifiers": {
					"create(string)": "b6a46b3b",
					"getData()": "3bc5de30",
					"todos(uint256)": "bc8bc2b4",
					"updateData(uint256)": "09e96008"
				}
			},
			"storageLayout": {
				"storage": [
					{
						"astId": 10,
						"contract": "SolidityCodes/Todo_List.sol:Todo_List",
						"label": "todos",
						"offset": 0,
						"slot": "0",
						"type": "t_array(t_struct(Todo)6_storage)dyn_storage"
					}
				],
				"types": {
					"t_array(t_struct(Todo)6_storage)dyn_storage": {
						"base": "t_struct(Todo)6_storage",
						"encoding": "dynamic_array",
						"label": "struct Todo_List.Todo[]",
						"numberOfBytes": "32"
					},
					"t_bool": {
						"encoding": "inplace",
						"label": "bool",
						"numberOfBytes": "1"
					},
					"t_string_storage": {
						"encoding": "bytes",
						"label": "string",
						"numberOfBytes": "32"
					},
					"t_struct(Todo)6_storage": {
						"encoding": "inplace",
						"label": "struct Todo_List.Todo",
						"members": [
							{
								"astId": 3,
								"contract": "SolidityCodes/Todo_List.sol:Todo_List",
								"label": "text",
								"offset": 0,
								"slot": "0",
								"type": "t_string_storage"
							},
							{
								"astId": 5,
								"contract": "SolidityCodes/Todo_List.sol:Todo_List",
								"label": "complete",
								"offset": 0,
								"slot": "1",
								"type": "t_bool"
							}
						],
						"numberOfBytes": "64"
					}
				}
			},
			"userdoc": {
				"kind": "user",
				"methods": {},
				"version": 1
			}
		}
	}
}