{
	"SolidityCodes/Function.sol": {
		"Function": {
			"abi": [
				{
					"inputs": [
						{
							"internalType": "uint256",
							"name": "",
							"type": "uint256"
						}
					],
					"name": "arr",
					"outputs": [
						{
							"internalType": "uint256",
							"name": "",
							"type": "uint256"
						}
					],
					"stateMutability": "view",
					"type": "function"
				},
				{
					"inputs": [
						{
							"internalType": "uint256[]",
							"name": "_arr",
							"type": "uint256[]"
						}
					],
					"name": "arrayInput",
					"outputs": [],
					"stateMutability": "nonpayable",
					"type": "function"
				},
				{
					"inputs": [],
					"name": "arrayOutput",
					"outputs": [
						{
							"internalType": "uint256[]",
							"name": "",
							"type": "uint256[]"
						}
					],
					"stateMutability": "view",
					"type": "function"
				},
				{
					"inputs": [],
					"name": "returnData",
					"outputs": [
						{
							"internalType": "uint256",
							"name": "",
							"type": "uint256"
						},
						{
							"internalType": "bool",
							"name": "",
							"type": "bool"
						},
						{
							"internalType": "uint256",
							"name": "",
							"type": "uint256"
						}
					],
					"stateMutability": "pure",
					"type": "function"
				},
				{
					"inputs": [],
					"name": "returnDataAssigned",
					"outputs": [
						{
							"internalType": "uint256",
							"name": "a",
							"type": "uint256"
						},
						{
							"internalType": "bool",
							"name": "b",
							"type": "bool"
						},
						{
							"internalType": "uint256",
							"name": "c",
							"type": "uint256"
						}
					],
					"stateMutability": "pure",
					"type": "function"
				},
				{
					"inputs": [],
					"name": "returnDataParams",
					"outputs": [
						{
							"internalType": "uint256",
							"name": "x",
							"type": "uint256"
						},
						{
							"internalType": "bool",
							"name": "b",
							"type": "bool"
						},
						{
							"internalType": "uint256",
							"name": "y",
							"type": "uint256"
						}
					],
					"stateMutability": "pure",
					"type": "function"
				}
			],
			"devdoc": {
				"kind": "dev",
				"methods": {},
				"version": 1
			},
			"evm": {
				"assembly": "    /* \"SolidityCodes/Function.sol\":61:658  contract Function{... */\n  mstore(0x40, 0x80)\n  callvalue\n  dup1\n  iszero\n  tag_1\n  jumpi\n  0x00\n  dup1\n  revert\ntag_1:\n  pop\n  dataSize(sub_0)\n  dup1\n  dataOffset(sub_0)\n  0x00\n  codecopy\n  0x00\n  return\nstop\n\nsub_0: assembly {\n        /* \"SolidityCodes/Function.sol\":61:658  contract Function{... */\n      mstore(0x40, 0x80)\n      callvalue\n      dup1\n      iszero\n      tag_1\n      jumpi\n      0x00\n      dup1\n      revert\n    tag_1:\n      pop\n      jumpi(tag_2, lt(calldatasize, 0x04))\n      shr(0xe0, calldataload(0x00))\n      dup1\n      0x18190617\n      eq\n      tag_3\n      jumpi\n      dup1\n      0x1990532b\n      eq\n      tag_4\n      jumpi\n      dup1\n      0x71e5ee5f\n      eq\n      tag_5\n      jumpi\n      dup1\n      0x808b905f\n      eq\n      tag_6\n      jumpi\n      dup1\n      0xebddbaf6\n      eq\n      tag_7\n      jumpi\n      dup1\n      0xf4bb6e6b\n      eq\n      tag_8\n      jumpi\n    tag_2:\n      0x00\n      dup1\n      revert\n        /* \"SolidityCodes/Function.sol\":189:300  function returnDataParams() public pure returns(uint x, bool b, uint y){... */\n    tag_3:\n      tag_9\n      tag_10\n      jump\t// in\n    tag_9:\n      mload(0x40)\n      tag_11\n      swap4\n      swap3\n      swap2\n      swap1\n      tag_12\n      jump\t// in\n    tag_11:\n      mload(0x40)\n      dup1\n      swap2\n      sub\n      swap1\n      return\n        /* \"SolidityCodes/Function.sol\":563:651  function arrayOutput() public view returns (uint[] memory) {... */\n    tag_4:\n      tag_13\n      tag_14\n      jump\t// in\n    tag_13:\n      mload(0x40)\n      tag_15\n      swap2\n      swap1\n      tag_16\n      jump\t// in\n    tag_15:\n      mload(0x40)\n      dup1\n      swap2\n      sub\n      swap1\n      return\n        /* \"SolidityCodes/Function.sol\":537:554  uint[] public arr */\n    tag_5:\n      tag_17\n      0x04\n      dup1\n      calldatasize\n      sub\n      dup2\n      add\n      swap1\n      tag_18\n      swap2\n      swap1\n      tag_19\n      jump\t// in\n    tag_18:\n      tag_20\n      jump\t// in\n    tag_17:\n      mload(0x40)\n      tag_21\n      swap2\n      swap1\n      tag_22\n      jump\t// in\n    tag_21:\n      mload(0x40)\n      dup1\n      swap2\n      sub\n      swap1\n      return\n        /* \"SolidityCodes/Function.sol\":308:439  function returnDataAssigned() public pure returns(uint a, bool b, uint c){... */\n    tag_6:\n      tag_23\n      tag_24\n      jump\t// in\n    tag_23:\n      mload(0x40)\n      tag_25\n      swap4\n      swap3\n      swap2\n      swap1\n      tag_12\n      jump\t// in\n    tag_25:\n      mload(0x40)\n      dup1\n      swap2\n      sub\n      swap1\n      return\n        /* \"SolidityCodes/Function.sol\":85:181  function returnData() public pure returns(uint,bool,uint){... */\n    tag_7:\n      tag_26\n      tag_27\n      jump\t// in\n    tag_26:\n      mload(0x40)\n      tag_28\n      swap4\n      swap3\n      swap2\n      swap1\n      tag_12\n      jump\t// in\n    tag_28:\n      mload(0x40)\n      dup1\n      swap2\n      sub\n      swap1\n      return\n        /* \"SolidityCodes/Function.sol\":447:496  function arrayInput(uint[] memory _arr) public {} */\n    tag_8:\n      tag_29\n      0x04\n      dup1\n      calldatasize\n      sub\n      dup2\n      add\n      swap1\n      tag_30\n      swap2\n      swap1\n      tag_31\n      jump\t// in\n    tag_30:\n      tag_32\n      jump\t// in\n    tag_29:\n      stop\n        /* \"SolidityCodes/Function.sol\":189:300  function returnDataParams() public pure returns(uint x, bool b, uint y){... */\n    tag_10:\n        /* \"SolidityCodes/Function.sol\":237:243  uint x */\n      0x00\n        /* \"SolidityCodes/Function.sol\":245:251  bool b */\n      dup1\n        /* \"SolidityCodes/Function.sol\":253:259  uint y */\n      0x00\n        /* \"SolidityCodes/Function.sol\":279:282  100 */\n      0x64\n        /* \"SolidityCodes/Function.sol\":283:287  true */\n      0x01\n        /* \"SolidityCodes/Function.sol\":288:291  500 */\n      0x01f4\n        /* \"SolidityCodes/Function.sol\":271:292  return (100,true,500) */\n      swap3\n      pop\n      swap3\n      pop\n      swap3\n      pop\n        /* \"SolidityCodes/Function.sol\":189:300  function returnDataParams() public pure returns(uint x, bool b, uint y){... */\n      swap1\n      swap2\n      swap3\n      jump\t// out\n        /* \"SolidityCodes/Function.sol\":563:651  function arrayOutput() public view returns (uint[] memory) {... */\n    tag_14:\n        /* \"SolidityCodes/Function.sol\":607:620  uint[] memory */\n      0x60\n        /* \"SolidityCodes/Function.sol\":640:643  arr */\n      0x00\n        /* \"SolidityCodes/Function.sol\":633:643  return arr */\n      dup1\n      sload\n      dup1\n      0x20\n      mul\n      0x20\n      add\n      mload(0x40)\n      swap1\n      dup2\n      add\n      0x40\n      mstore\n      dup1\n      swap3\n      swap2\n      swap1\n      dup2\n      dup2\n      mstore\n      0x20\n      add\n      dup3\n      dup1\n      sload\n      dup1\n      iszero\n      tag_35\n      jumpi\n      0x20\n      mul\n      dup3\n      add\n      swap2\n      swap1\n      0x00\n      mstore\n      keccak256(0x00, 0x20)\n      swap1\n    tag_36:\n      dup2\n      sload\n      dup2\n      mstore\n      0x20\n      add\n      swap1\n      0x01\n      add\n      swap1\n      dup1\n      dup4\n      gt\n      tag_36\n      jumpi\n    tag_35:\n      pop\n      pop\n      pop\n      pop\n      pop\n      swap1\n      pop\n        /* \"SolidityCodes/Function.sol\":563:651  function arrayOutput() public view returns (uint[] memory) {... */\n      swap1\n      jump\t// out\n        /* \"SolidityCodes/Function.sol\":537:554  uint[] public arr */\n    tag_20:\n      0x00\n      dup2\n      dup2\n      sload\n      dup2\n      lt\n      tag_37\n      jumpi\n      0x00\n      dup1\n      revert\n    tag_37:\n      swap1\n      0x00\n      mstore\n      keccak256(0x00, 0x20)\n      add\n      0x00\n      swap2\n      pop\n      swap1\n      pop\n      sload\n      dup2\n      jump\t// out\n        /* \"SolidityCodes/Function.sol\":308:439  function returnDataAssigned() public pure returns(uint a, bool b, uint c){... */\n    tag_24:\n        /* \"SolidityCodes/Function.sol\":358:364  uint a */\n      0x00\n        /* \"SolidityCodes/Function.sol\":366:372  bool b */\n      dup1\n        /* \"SolidityCodes/Function.sol\":374:380  uint c */\n      0x00\n        /* \"SolidityCodes/Function.sol\":394:397  123 */\n      0x7b\n        /* \"SolidityCodes/Function.sol\":392:397  a=123 */\n      swap3\n      pop\n        /* \"SolidityCodes/Function.sol\":410:415  false */\n      0x00\n        /* \"SolidityCodes/Function.sol\":408:415  b=false */\n      swap2\n      pop\n        /* \"SolidityCodes/Function.sol\":428:431  567 */\n      0x0237\n        /* \"SolidityCodes/Function.sol\":426:431  c=567 */\n      swap1\n      pop\n        /* \"SolidityCodes/Function.sol\":308:439  function returnDataAssigned() public pure returns(uint a, bool b, uint c){... */\n      swap1\n      swap2\n      swap3\n      jump\t// out\n        /* \"SolidityCodes/Function.sol\":85:181  function returnData() public pure returns(uint,bool,uint){... */\n    tag_27:\n        /* \"SolidityCodes/Function.sol\":127:131  uint */\n      0x00\n        /* \"SolidityCodes/Function.sol\":132:136  bool */\n      dup1\n        /* \"SolidityCodes/Function.sol\":137:141  uint */\n      0x00\n        /* \"SolidityCodes/Function.sol\":161:164  100 */\n      0x64\n        /* \"SolidityCodes/Function.sol\":165:169  true */\n      0x01\n        /* \"SolidityCodes/Function.sol\":170:172  50 */\n      0x32\n        /* \"SolidityCodes/Function.sol\":153:173  return (100,true,50) */\n      swap3\n      pop\n      swap3\n      pop\n      swap3\n      pop\n        /* \"SolidityCodes/Function.sol\":85:181  function returnData() public pure returns(uint,bool,uint){... */\n      swap1\n      swap2\n      swap3\n      jump\t// out\n        /* \"SolidityCodes/Function.sol\":447:496  function arrayInput(uint[] memory _arr) public {} */\n    tag_32:\n      pop\n      jump\t// out\n        /* \"#utility.yul\":7:84   */\n    tag_42:\n        /* \"#utility.yul\":44:51   */\n      0x00\n        /* \"#utility.yul\":73:78   */\n      dup2\n        /* \"#utility.yul\":62:78   */\n      swap1\n      pop\n        /* \"#utility.yul\":7:84   */\n      swap2\n      swap1\n      pop\n      jump\t// out\n        /* \"#utility.yul\":90:208   */\n    tag_43:\n        /* \"#utility.yul\":177:201   */\n      tag_70\n        /* \"#utility.yul\":195:200   */\n      dup2\n        /* \"#utility.yul\":177:201   */\n      tag_42\n      jump\t// in\n    tag_70:\n        /* \"#utility.yul\":172:175   */\n      dup3\n        /* \"#utility.yul\":165:202   */\n      mstore\n        /* \"#utility.yul\":90:208   */\n      pop\n      pop\n      jump\t// out\n        /* \"#utility.yul\":214:304   */\n    tag_44:\n        /* \"#utility.yul\":248:255   */\n      0x00\n        /* \"#utility.yul\":291:296   */\n      dup2\n        /* \"#utility.yul\":284:297   */\n      iszero\n        /* \"#utility.yul\":277:298   */\n      iszero\n        /* \"#utility.yul\":266:298   */\n      swap1\n      pop\n        /* \"#utility.yul\":214:304   */\n      swap2\n      swap1\n      pop\n      jump\t// out\n        /* \"#utility.yul\":310:419   */\n    tag_45:\n        /* \"#utility.yul\":391:412   */\n      tag_73\n        /* \"#utility.yul\":406:411   */\n      dup2\n        /* \"#utility.yul\":391:412   */\n      tag_44\n      jump\t// in\n    tag_73:\n        /* \"#utility.yul\":386:389   */\n      dup3\n        /* \"#utility.yul\":379:413   */\n      mstore\n        /* \"#utility.yul\":310:419   */\n      pop\n      pop\n      jump\t// out\n        /* \"#utility.yul\":425:855   */\n    tag_12:\n        /* \"#utility.yul\":568:572   */\n      0x00\n        /* \"#utility.yul\":606:608   */\n      0x60\n        /* \"#utility.yul\":595:604   */\n      dup3\n        /* \"#utility.yul\":591:609   */\n      add\n        /* \"#utility.yul\":583:609   */\n      swap1\n      pop\n        /* \"#utility.yul\":619:690   */\n      tag_75\n        /* \"#utility.yul\":687:688   */\n      0x00\n        /* \"#utility.yul\":676:685   */\n      dup4\n        /* \"#utility.yul\":672:689   */\n      add\n        /* \"#utility.yul\":663:669   */\n      dup7\n        /* \"#utility.yul\":619:690   */\n      tag_43\n      jump\t// in\n    tag_75:\n        /* \"#utility.yul\":700:766   */\n      tag_76\n        /* \"#utility.yul\":762:764   */\n      0x20\n        /* \"#utility.yul\":751:760   */\n      dup4\n        /* \"#utility.yul\":747:765   */\n      add\n        /* \"#utility.yul\":738:744   */\n      dup6\n        /* \"#utility.yul\":700:766   */\n      tag_45\n      jump\t// in\n    tag_76:\n        /* \"#utility.yul\":776:848   */\n      tag_77\n        /* \"#utility.yul\":844:846   */\n      0x40\n        /* \"#utility.yul\":833:842   */\n      dup4\n        /* \"#utility.yul\":829:847   */\n      add\n        /* \"#utility.yul\":820:826   */\n      dup5\n        /* \"#utility.yul\":776:848   */\n      tag_43\n      jump\t// in\n    tag_77:\n        /* \"#utility.yul\":425:855   */\n      swap5\n      swap4\n      pop\n      pop\n      pop\n      pop\n      jump\t// out\n        /* \"#utility.yul\":861:975   */\n    tag_46:\n        /* \"#utility.yul\":928:934   */\n      0x00\n        /* \"#utility.yul\":962:967   */\n      dup2\n        /* \"#utility.yul\":956:968   */\n      mload\n        /* \"#utility.yul\":946:968   */\n      swap1\n      pop\n        /* \"#utility.yul\":861:975   */\n      swap2\n      swap1\n      pop\n      jump\t// out\n        /* \"#utility.yul\":981:1165   */\n    tag_47:\n        /* \"#utility.yul\":1080:1091   */\n      0x00\n        /* \"#utility.yul\":1114:1120   */\n      dup3\n        /* \"#utility.yul\":1109:1112   */\n      dup3\n        /* \"#utility.yul\":1102:1121   */\n      mstore\n        /* \"#utility.yul\":1154:1158   */\n      0x20\n        /* \"#utility.yul\":1149:1152   */\n      dup3\n        /* \"#utility.yul\":1145:1159   */\n      add\n        /* \"#utility.yul\":1130:1159   */\n      swap1\n      pop\n        /* \"#utility.yul\":981:1165   */\n      swap3\n      swap2\n      pop\n      pop\n      jump\t// out\n        /* \"#utility.yul\":1171:1303   */\n    tag_48:\n        /* \"#utility.yul\":1238:1242   */\n      0x00\n        /* \"#utility.yul\":1261:1264   */\n      dup2\n        /* \"#utility.yul\":1253:1264   */\n      swap1\n      pop\n        /* \"#utility.yul\":1291:1295   */\n      0x20\n        /* \"#utility.yul\":1286:1289   */\n      dup3\n        /* \"#utility.yul\":1282:1296   */\n      add\n        /* \"#utility.yul\":1274:1296   */\n      swap1\n      pop\n        /* \"#utility.yul\":1171:1303   */\n      swap2\n      swap1\n      pop\n      jump\t// out\n        /* \"#utility.yul\":1309:1417   */\n    tag_49:\n        /* \"#utility.yul\":1386:1410   */\n      tag_82\n        /* \"#utility.yul\":1404:1409   */\n      dup2\n        /* \"#utility.yul\":1386:1410   */\n      tag_42\n      jump\t// in\n    tag_82:\n        /* \"#utility.yul\":1381:1384   */\n      dup3\n        /* \"#utility.yul\":1374:1411   */\n      mstore\n        /* \"#utility.yul\":1309:1417   */\n      pop\n      pop\n      jump\t// out\n        /* \"#utility.yul\":1423:1602   */\n    tag_50:\n        /* \"#utility.yul\":1492:1502   */\n      0x00\n        /* \"#utility.yul\":1513:1559   */\n      tag_84\n        /* \"#utility.yul\":1555:1558   */\n      dup4\n        /* \"#utility.yul\":1547:1553   */\n      dup4\n        /* \"#utility.yul\":1513:1559   */\n      tag_49\n      jump\t// in\n    tag_84:\n        /* \"#utility.yul\":1591:1595   */\n      0x20\n        /* \"#utility.yul\":1586:1589   */\n      dup4\n        /* \"#utility.yul\":1582:1596   */\n      add\n        /* \"#utility.yul\":1568:1596   */\n      swap1\n      pop\n        /* \"#utility.yul\":1423:1602   */\n      swap3\n      swap2\n      pop\n      pop\n      jump\t// out\n        /* \"#utility.yul\":1608:1721   */\n    tag_51:\n        /* \"#utility.yul\":1678:1682   */\n      0x00\n        /* \"#utility.yul\":1710:1714   */\n      0x20\n        /* \"#utility.yul\":1705:1708   */\n      dup3\n        /* \"#utility.yul\":1701:1715   */\n      add\n        /* \"#utility.yul\":1693:1715   */\n      swap1\n      pop\n        /* \"#utility.yul\":1608:1721   */\n      swap2\n      swap1\n      pop\n      jump\t// out\n        /* \"#utility.yul\":1757:2489   */\n    tag_52:\n        /* \"#utility.yul\":1876:1879   */\n      0x00\n        /* \"#utility.yul\":1905:1959   */\n      tag_87\n        /* \"#utility.yul\":1953:1958   */\n      dup3\n        /* \"#utility.yul\":1905:1959   */\n      tag_46\n      jump\t// in\n    tag_87:\n        /* \"#utility.yul\":1975:2061   */\n      tag_88\n        /* \"#utility.yul\":2054:2060   */\n      dup2\n        /* \"#utility.yul\":2049:2052   */\n      dup6\n        /* \"#utility.yul\":1975:2061   */\n      tag_47\n      jump\t// in\n    tag_88:\n        /* \"#utility.yul\":1968:2061   */\n      swap4\n      pop\n        /* \"#utility.yul\":2085:2141   */\n      tag_89\n        /* \"#utility.yul\":2135:2140   */\n      dup4\n        /* \"#utility.yul\":2085:2141   */\n      tag_48\n      jump\t// in\n    tag_89:\n        /* \"#utility.yul\":2164:2171   */\n      dup1\n        /* \"#utility.yul\":2195:2196   */\n      0x00\n        /* \"#utility.yul\":2180:2464   */\n    tag_90:\n        /* \"#utility.yul\":2205:2211   */\n      dup4\n        /* \"#utility.yul\":2202:2203   */\n      dup2\n        /* \"#utility.yul\":2199:2212   */\n      lt\n        /* \"#utility.yul\":2180:2464   */\n      iszero\n      tag_92\n      jumpi\n        /* \"#utility.yul\":2281:2287   */\n      dup2\n        /* \"#utility.yul\":2275:2288   */\n      mload\n        /* \"#utility.yul\":2308:2371   */\n      tag_93\n        /* \"#utility.yul\":2367:2370   */\n      dup9\n        /* \"#utility.yul\":2352:2365   */\n      dup3\n        /* \"#utility.yul\":2308:2371   */\n      tag_50\n      jump\t// in\n    tag_93:\n        /* \"#utility.yul\":2301:2371   */\n      swap8\n      pop\n        /* \"#utility.yul\":2394:2454   */\n      tag_94\n        /* \"#utility.yul\":2447:2453   */\n      dup4\n        /* \"#utility.yul\":2394:2454   */\n      tag_51\n      jump\t// in\n    tag_94:\n        /* \"#utility.yul\":2384:2454   */\n      swap3\n      pop\n        /* \"#utility.yul\":2240:2464   */\n      pop\n        /* \"#utility.yul\":2227:2228   */\n      0x01\n        /* \"#utility.yul\":2224:2225   */\n      dup2\n        /* \"#utility.yul\":2220:2229   */\n      add\n        /* \"#utility.yul\":2215:2229   */\n      swap1\n      pop\n        /* \"#utility.yul\":2180:2464   */\n      jump(tag_90)\n    tag_92:\n        /* \"#utility.yul\":2184:2198   */\n      pop\n        /* \"#utility.yul\":2480:2483   */\n      dup6\n        /* \"#utility.yul\":2473:2483   */\n      swap4\n      pop\n        /* \"#utility.yul\":1881:2489   */\n      pop\n      pop\n      pop\n        /* \"#utility.yul\":1757:2489   */\n      swap3\n      swap2\n      pop\n      pop\n      jump\t// out\n        /* \"#utility.yul\":2495:2868   */\n    tag_16:\n        /* \"#utility.yul\":2638:2642   */\n      0x00\n        /* \"#utility.yul\":2676:2678   */\n      0x20\n        /* \"#utility.yul\":2665:2674   */\n      dup3\n        /* \"#utility.yul\":2661:2679   */\n      add\n        /* \"#utility.yul\":2653:2679   */\n      swap1\n      pop\n        /* \"#utility.yul\":2725:2734   */\n      dup2\n        /* \"#utility.yul\":2719:2723   */\n      dup2\n        /* \"#utility.yul\":2715:2735   */\n      sub\n        /* \"#utility.yul\":2711:2712   */\n      0x00\n        /* \"#utility.yul\":2700:2709   */\n      dup4\n        /* \"#utility.yul\":2696:2713   */\n      add\n        /* \"#utility.yul\":2689:2736   */\n      mstore\n        /* \"#utility.yul\":2753:2861   */\n      tag_96\n        /* \"#utility.yul\":2856:2860   */\n      dup2\n        /* \"#utility.yul\":2847:2853   */\n      dup5\n        /* \"#utility.yul\":2753:2861   */\n      tag_52\n      jump\t// in\n    tag_96:\n        /* \"#utility.yul\":2745:2861   */\n      swap1\n      pop\n        /* \"#utility.yul\":2495:2868   */\n      swap3\n      swap2\n      pop\n      pop\n      jump\t// out\n        /* \"#utility.yul\":2874:2949   */\n    tag_53:\n        /* \"#utility.yul\":2907:2913   */\n      0x00\n        /* \"#utility.yul\":2940:2942   */\n      0x40\n        /* \"#utility.yul\":2934:2943   */\n      mload\n        /* \"#utility.yul\":2924:2943   */\n      swap1\n      pop\n        /* \"#utility.yul\":2874:2949   */\n      swap1\n      jump\t// out\n        /* \"#utility.yul\":2955:3072   */\n    tag_54:\n        /* \"#utility.yul\":3064:3065   */\n      0x00\n        /* \"#utility.yul\":3061:3062   */\n      dup1\n        /* \"#utility.yul\":3054:3066   */\n      revert\n        /* \"#utility.yul\":3078:3195   */\n    tag_55:\n        /* \"#utility.yul\":3187:3188   */\n      0x00\n        /* \"#utility.yul\":3184:3185   */\n      dup1\n        /* \"#utility.yul\":3177:3189   */\n      revert\n        /* \"#utility.yul\":3201:3323   */\n    tag_56:\n        /* \"#utility.yul\":3274:3298   */\n      tag_101\n        /* \"#utility.yul\":3292:3297   */\n      dup2\n        /* \"#utility.yul\":3274:3298   */\n      tag_42\n      jump\t// in\n    tag_101:\n        /* \"#utility.yul\":3267:3272   */\n      dup2\n        /* \"#utility.yul\":3264:3299   */\n      eq\n        /* \"#utility.yul\":3254:3317   */\n      tag_102\n      jumpi\n        /* \"#utility.yul\":3313:3314   */\n      0x00\n        /* \"#utility.yul\":3310:3311   */\n      dup1\n        /* \"#utility.yul\":3303:3315   */\n      revert\n        /* \"#utility.yul\":3254:3317   */\n    tag_102:\n        /* \"#utility.yul\":3201:3323   */\n      pop\n      jump\t// out\n        /* \"#utility.yul\":3329:3468   */\n    tag_57:\n        /* \"#utility.yul\":3375:3380   */\n      0x00\n        /* \"#utility.yul\":3413:3419   */\n      dup2\n        /* \"#utility.yul\":3400:3420   */\n      calldataload\n        /* \"#utility.yul\":3391:3420   */\n      swap1\n      pop\n        /* \"#utility.yul\":3429:3462   */\n      tag_104\n        /* \"#utility.yul\":3456:3461   */\n      dup2\n        /* \"#utility.yul\":3429:3462   */\n      tag_56\n      jump\t// in\n    tag_104:\n        /* \"#utility.yul\":3329:3468   */\n      swap3\n      swap2\n      pop\n      pop\n      jump\t// out\n        /* \"#utility.yul\":3474:3803   */\n    tag_19:\n        /* \"#utility.yul\":3533:3539   */\n      0x00\n        /* \"#utility.yul\":3582:3584   */\n      0x20\n        /* \"#utility.yul\":3570:3579   */\n      dup3\n        /* \"#utility.yul\":3561:3568   */\n      dup5\n        /* \"#utility.yul\":3557:3580   */\n      sub\n        /* \"#utility.yul\":3553:3585   */\n      slt\n        /* \"#utility.yul\":3550:3669   */\n      iszero\n      tag_106\n      jumpi\n        /* \"#utility.yul\":3588:3667   */\n      tag_107\n      tag_54\n      jump\t// in\n    tag_107:\n        /* \"#utility.yul\":3550:3669   */\n    tag_106:\n        /* \"#utility.yul\":3708:3709   */\n      0x00\n        /* \"#utility.yul\":3733:3786   */\n      tag_108\n        /* \"#utility.yul\":3778:3785   */\n      dup5\n        /* \"#utility.yul\":3769:3775   */\n      dup3\n        /* \"#utility.yul\":3758:3767   */\n      dup6\n        /* \"#utility.yul\":3754:3776   */\n      add\n        /* \"#utility.yul\":3733:3786   */\n      tag_57\n      jump\t// in\n    tag_108:\n        /* \"#utility.yul\":3723:3786   */\n      swap2\n      pop\n        /* \"#utility.yul\":3679:3796   */\n      pop\n        /* \"#utility.yul\":3474:3803   */\n      swap3\n      swap2\n      pop\n      pop\n      jump\t// out\n        /* \"#utility.yul\":3809:4031   */\n    tag_22:\n        /* \"#utility.yul\":3902:3906   */\n      0x00\n        /* \"#utility.yul\":3940:3942   */\n      0x20\n        /* \"#utility.yul\":3929:3938   */\n      dup3\n        /* \"#utility.yul\":3925:3943   */\n      add\n        /* \"#utility.yul\":3917:3943   */\n      swap1\n      pop\n        /* \"#utility.yul\":3953:4024   */\n      tag_110\n        /* \"#utility.yul\":4021:4022   */\n      0x00\n        /* \"#utility.yul\":4010:4019   */\n      dup4\n        /* \"#utility.yul\":4006:4023   */\n      add\n        /* \"#utility.yul\":3997:4003   */\n      dup5\n        /* \"#utility.yul\":3953:4024   */\n      tag_43\n      jump\t// in\n    tag_110:\n        /* \"#utility.yul\":3809:4031   */\n      swap3\n      swap2\n      pop\n      pop\n      jump\t// out\n        /* \"#utility.yul\":4037:4154   */\n    tag_58:\n        /* \"#utility.yul\":4146:4147   */\n      0x00\n        /* \"#utility.yul\":4143:4144   */\n      dup1\n        /* \"#utility.yul\":4136:4148   */\n      revert\n        /* \"#utility.yul\":4160:4262   */\n    tag_59:\n        /* \"#utility.yul\":4201:4207   */\n      0x00\n        /* \"#utility.yul\":4252:4254   */\n      0x1f\n        /* \"#utility.yul\":4248:4255   */\n      not\n        /* \"#utility.yul\":4243:4245   */\n      0x1f\n        /* \"#utility.yul\":4236:4241   */\n      dup4\n        /* \"#utility.yul\":4232:4246   */\n      add\n        /* \"#utility.yul\":4228:4256   */\n      and\n        /* \"#utility.yul\":4218:4256   */\n      swap1\n      pop\n        /* \"#utility.yul\":4160:4262   */\n      swap2\n      swap1\n      pop\n      jump\t// out\n        /* \"#utility.yul\":4268:4448   */\n    tag_60:\n        /* \"#utility.yul\":4316:4393   */\n      0x4e487b7100000000000000000000000000000000000000000000000000000000\n        /* \"#utility.yul\":4313:4314   */\n      0x00\n        /* \"#utility.yul\":4306:4394   */\n      mstore\n        /* \"#utility.yul\":4413:4417   */\n      0x41\n        /* \"#utility.yul\":4410:4411   */\n      0x04\n        /* \"#utility.yul\":4403:4418   */\n      mstore\n        /* \"#utility.yul\":4437:4441   */\n      0x24\n        /* \"#utility.yul\":4434:4435   */\n      0x00\n        /* \"#utility.yul\":4427:4442   */\n      revert\n        /* \"#utility.yul\":4454:4735   */\n    tag_61:\n        /* \"#utility.yul\":4537:4564   */\n      tag_115\n        /* \"#utility.yul\":4559:4563   */\n      dup3\n        /* \"#utility.yul\":4537:4564   */\n      tag_59\n      jump\t// in\n    tag_115:\n        /* \"#utility.yul\":4529:4535   */\n      dup2\n        /* \"#utility.yul\":4525:4565   */\n      add\n        /* \"#utility.yul\":4667:4673   */\n      dup2\n        /* \"#utility.yul\":4655:4665   */\n      dup2\n        /* \"#utility.yul\":4652:4674   */\n      lt\n        /* \"#utility.yul\":4631:4649   */\n      0xffffffffffffffff\n        /* \"#utility.yul\":4619:4629   */\n      dup3\n        /* \"#utility.yul\":4616:4650   */\n      gt\n        /* \"#utility.yul\":4613:4675   */\n      or\n        /* \"#utility.yul\":4610:4698   */\n      iszero\n      tag_116\n      jumpi\n        /* \"#utility.yul\":4678:4696   */\n      tag_117\n      tag_60\n      jump\t// in\n    tag_117:\n        /* \"#utility.yul\":4610:4698   */\n    tag_116:\n        /* \"#utility.yul\":4718:4728   */\n      dup1\n        /* \"#utility.yul\":4714:4716   */\n      0x40\n        /* \"#utility.yul\":4707:4729   */\n      mstore\n        /* \"#utility.yul\":4497:4735   */\n      pop\n        /* \"#utility.yul\":4454:4735   */\n      pop\n      pop\n      jump\t// out\n        /* \"#utility.yul\":4741:4870   */\n    tag_62:\n        /* \"#utility.yul\":4775:4781   */\n      0x00\n        /* \"#utility.yul\":4802:4822   */\n      tag_119\n      tag_53\n      jump\t// in\n    tag_119:\n        /* \"#utility.yul\":4792:4822   */\n      swap1\n      pop\n        /* \"#utility.yul\":4831:4864   */\n      tag_120\n        /* \"#utility.yul\":4859:4863   */\n      dup3\n        /* \"#utility.yul\":4851:4857   */\n      dup3\n        /* \"#utility.yul\":4831:4864   */\n      tag_61\n      jump\t// in\n    tag_120:\n        /* \"#utility.yul\":4741:4870   */\n      swap2\n      swap1\n      pop\n      jump\t// out\n        /* \"#utility.yul\":4876:5187   */\n    tag_63:\n        /* \"#utility.yul\":4953:4957   */\n      0x00\n        /* \"#utility.yul\":5043:5061   */\n      0xffffffffffffffff\n        /* \"#utility.yul\":5035:5041   */\n      dup3\n        /* \"#utility.yul\":5032:5062   */\n      gt\n        /* \"#utility.yul\":5029:5085   */\n      iszero\n      tag_122\n      jumpi\n        /* \"#utility.yul\":5065:5083   */\n      tag_123\n      tag_60\n      jump\t// in\n    tag_123:\n        /* \"#utility.yul\":5029:5085   */\n    tag_122:\n        /* \"#utility.yul\":5115:5119   */\n      0x20\n        /* \"#utility.yul\":5107:5113   */\n      dup3\n        /* \"#utility.yul\":5103:5120   */\n      mul\n        /* \"#utility.yul\":5095:5120   */\n      swap1\n      pop\n        /* \"#utility.yul\":5175:5179   */\n      0x20\n        /* \"#utility.yul\":5169:5173   */\n      dup2\n        /* \"#utility.yul\":5165:5180   */\n      add\n        /* \"#utility.yul\":5157:5180   */\n      swap1\n      pop\n        /* \"#utility.yul\":4876:5187   */\n      swap2\n      swap1\n      pop\n      jump\t// out\n        /* \"#utility.yul\":5193:5310   */\n    tag_64:\n        /* \"#utility.yul\":5302:5303   */\n      0x00\n        /* \"#utility.yul\":5299:5300   */\n      dup1\n        /* \"#utility.yul\":5292:5304   */\n      revert\n        /* \"#utility.yul\":5333:6043   */\n    tag_65:\n        /* \"#utility.yul\":5429:5434   */\n      0x00\n        /* \"#utility.yul\":5454:5535   */\n      tag_126\n        /* \"#utility.yul\":5470:5534   */\n      tag_127\n        /* \"#utility.yul\":5527:5533   */\n      dup5\n        /* \"#utility.yul\":5470:5534   */\n      tag_63\n      jump\t// in\n    tag_127:\n        /* \"#utility.yul\":5454:5535   */\n      tag_62\n      jump\t// in\n    tag_126:\n        /* \"#utility.yul\":5445:5535   */\n      swap1\n      pop\n        /* \"#utility.yul\":5555:5560   */\n      dup1\n        /* \"#utility.yul\":5584:5590   */\n      dup4\n        /* \"#utility.yul\":5577:5582   */\n      dup3\n        /* \"#utility.yul\":5570:5591   */\n      mstore\n        /* \"#utility.yul\":5618:5622   */\n      0x20\n        /* \"#utility.yul\":5611:5616   */\n      dup3\n        /* \"#utility.yul\":5607:5623   */\n      add\n        /* \"#utility.yul\":5600:5623   */\n      swap1\n      pop\n        /* \"#utility.yul\":5671:5675   */\n      0x20\n        /* \"#utility.yul\":5663:5669   */\n      dup5\n        /* \"#utility.yul\":5659:5676   */\n      mul\n        /* \"#utility.yul\":5651:5657   */\n      dup4\n        /* \"#utility.yul\":5647:5677   */\n      add\n        /* \"#utility.yul\":5700:5703   */\n      dup6\n        /* \"#utility.yul\":5692:5698   */\n      dup2\n        /* \"#utility.yul\":5689:5704   */\n      gt\n        /* \"#utility.yul\":5686:5808   */\n      iszero\n      tag_128\n      jumpi\n        /* \"#utility.yul\":5719:5798   */\n      tag_129\n      tag_64\n      jump\t// in\n    tag_129:\n        /* \"#utility.yul\":5686:5808   */\n    tag_128:\n        /* \"#utility.yul\":5834:5840   */\n      dup4\n        /* \"#utility.yul\":5817:6037   */\n    tag_130:\n        /* \"#utility.yul\":5851:5857   */\n      dup2\n        /* \"#utility.yul\":5846:5849   */\n      dup2\n        /* \"#utility.yul\":5843:5858   */\n      lt\n        /* \"#utility.yul\":5817:6037   */\n      iszero\n      tag_132\n      jumpi\n        /* \"#utility.yul\":5926:5929   */\n      dup1\n        /* \"#utility.yul\":5955:5992   */\n      tag_133\n        /* \"#utility.yul\":5988:5991   */\n      dup9\n        /* \"#utility.yul\":5976:5986   */\n      dup3\n        /* \"#utility.yul\":5955:5992   */\n      tag_57\n      jump\t// in\n    tag_133:\n        /* \"#utility.yul\":5950:5953   */\n      dup5\n        /* \"#utility.yul\":5943:5993   */\n      mstore\n        /* \"#utility.yul\":6022:6026   */\n      0x20\n        /* \"#utility.yul\":6017:6020   */\n      dup5\n        /* \"#utility.yul\":6013:6027   */\n      add\n        /* \"#utility.yul\":6006:6027   */\n      swap4\n      pop\n        /* \"#utility.yul\":5893:6037   */\n      pop\n        /* \"#utility.yul\":5877:5881   */\n      0x20\n        /* \"#utility.yul\":5872:5875   */\n      dup2\n        /* \"#utility.yul\":5868:5882   */\n      add\n        /* \"#utility.yul\":5861:5882   */\n      swap1\n      pop\n        /* \"#utility.yul\":5817:6037   */\n      jump(tag_130)\n    tag_132:\n        /* \"#utility.yul\":5821:5842   */\n      pop\n        /* \"#utility.yul\":5435:6043   */\n      pop\n      pop\n        /* \"#utility.yul\":5333:6043   */\n      swap4\n      swap3\n      pop\n      pop\n      pop\n      jump\t// out\n        /* \"#utility.yul\":6066:6436   */\n    tag_66:\n        /* \"#utility.yul\":6137:6142   */\n      0x00\n        /* \"#utility.yul\":6186:6189   */\n      dup3\n        /* \"#utility.yul\":6179:6183   */\n      0x1f\n        /* \"#utility.yul\":6171:6177   */\n      dup4\n        /* \"#utility.yul\":6167:6184   */\n      add\n        /* \"#utility.yul\":6163:6190   */\n      slt\n        /* \"#utility.yul\":6153:6275   */\n      tag_135\n      jumpi\n        /* \"#utility.yul\":6194:6273   */\n      tag_136\n      tag_58\n      jump\t// in\n    tag_136:\n        /* \"#utility.yul\":6153:6275   */\n    tag_135:\n        /* \"#utility.yul\":6311:6317   */\n      dup2\n        /* \"#utility.yul\":6298:6318   */\n      calldataload\n        /* \"#utility.yul\":6336:6430   */\n      tag_137\n        /* \"#utility.yul\":6426:6429   */\n      dup5\n        /* \"#utility.yul\":6418:6424   */\n      dup3\n        /* \"#utility.yul\":6411:6415   */\n      0x20\n        /* \"#utility.yul\":6403:6409   */\n      dup7\n        /* \"#utility.yul\":6399:6416   */\n      add\n        /* \"#utility.yul\":6336:6430   */\n      tag_65\n      jump\t// in\n    tag_137:\n        /* \"#utility.yul\":6327:6430   */\n      swap2\n      pop\n        /* \"#utility.yul\":6143:6436   */\n      pop\n        /* \"#utility.yul\":6066:6436   */\n      swap3\n      swap2\n      pop\n      pop\n      jump\t// out\n        /* \"#utility.yul\":6442:6981   */\n    tag_31:\n        /* \"#utility.yul\":6526:6532   */\n      0x00\n        /* \"#utility.yul\":6575:6577   */\n      0x20\n        /* \"#utility.yul\":6563:6572   */\n      dup3\n        /* \"#utility.yul\":6554:6561   */\n      dup5\n        /* \"#utility.yul\":6550:6573   */\n      sub\n        /* \"#utility.yul\":6546:6578   */\n      slt\n        /* \"#utility.yul\":6543:6662   */\n      iszero\n      tag_139\n      jumpi\n        /* \"#utility.yul\":6581:6660   */\n      tag_140\n      tag_54\n      jump\t// in\n    tag_140:\n        /* \"#utility.yul\":6543:6662   */\n    tag_139:\n        /* \"#utility.yul\":6729:6730   */\n      0x00\n        /* \"#utility.yul\":6718:6727   */\n      dup3\n        /* \"#utility.yul\":6714:6731   */\n      add\n        /* \"#utility.yul\":6701:6732   */\n      calldataload\n        /* \"#utility.yul\":6759:6777   */\n      0xffffffffffffffff\n        /* \"#utility.yul\":6751:6757   */\n      dup2\n        /* \"#utility.yul\":6748:6778   */\n      gt\n        /* \"#utility.yul\":6745:6862   */\n      iszero\n      tag_141\n      jumpi\n        /* \"#utility.yul\":6781:6860   */\n      tag_142\n      tag_55\n      jump\t// in\n    tag_142:\n        /* \"#utility.yul\":6745:6862   */\n    tag_141:\n        /* \"#utility.yul\":6886:6964   */\n      tag_143\n        /* \"#utility.yul\":6956:6963   */\n      dup5\n        /* \"#utility.yul\":6947:6953   */\n      dup3\n        /* \"#utility.yul\":6936:6945   */\n      dup6\n        /* \"#utility.yul\":6932:6954   */\n      add\n        /* \"#utility.yul\":6886:6964   */\n      tag_66\n      jump\t// in\n    tag_143:\n        /* \"#utility.yul\":6876:6964   */\n      swap2\n      pop\n        /* \"#utility.yul\":6672:6974   */\n      pop\n        /* \"#utility.yul\":6442:6981   */\n      swap3\n      swap2\n      pop\n      pop\n      jump\t// out\n\n    auxdata: 0xa26469706673582212207ed68ba836fb21336864d52874ac36c2bad06b007d90fa7c9bd9b669645279f964736f6c634300080f0033\n}\n",
				"bytecode": {
					"linkReferences": {},
					"object": "608060405234801561001057600080fd5b5061059f806100206000396000f3fe608060405234801561001057600080fd5b50600436106100625760003560e01c806318190617146100675780631990532b1461008757806371e5ee5f146100a5578063808b905f146100d5578063ebddbaf6146100f5578063f4bb6e6b14610115575b600080fd5b61006f610131565b60405161007e93929190610228565b60405180910390f35b61008f610148565b60405161009c919061031d565b60405180910390f35b6100bf60048036038101906100ba919061037f565b6101a0565b6040516100cc91906103ac565b60405180910390f35b6100dd6101c4565b6040516100ec93929190610228565b60405180910390f35b6100fd6101db565b60405161010c93929190610228565b60405180910390f35b61012f600480360381019061012a9190610520565b6101f1565b005b6000806000606460016101f4925092509250909192565b6060600080548060200260200160405190810160405280929190818152602001828054801561019657602002820191906000526020600020905b815481526020019060010190808311610182575b5050505050905090565b600081815481106101b057600080fd5b906000526020600020016000915090505481565b6000806000607b9250600091506102379050909192565b6000806000606460016032925092509250909192565b50565b6000819050919050565b610207816101f4565b82525050565b60008115159050919050565b6102228161020d565b82525050565b600060608201905061023d60008301866101fe565b61024a6020830185610219565b61025760408301846101fe565b949350505050565b600081519050919050565b600082825260208201905092915050565b6000819050602082019050919050565b610294816101f4565b82525050565b60006102a6838361028b565b60208301905092915050565b6000602082019050919050565b60006102ca8261025f565b6102d4818561026a565b93506102df8361027b565b8060005b838110156103105781516102f7888261029a565b9750610302836102b2565b9250506001810190506102e3565b5085935050505092915050565b6000602082019050818103600083015261033781846102bf565b905092915050565b6000604051905090565b600080fd5b600080fd5b61035c816101f4565b811461036757600080fd5b50565b60008135905061037981610353565b92915050565b60006020828403121561039557610394610349565b5b60006103a38482850161036a565b91505092915050565b60006020820190506103c160008301846101fe565b92915050565b600080fd5b6000601f19601f8301169050919050565b7f4e487b7100000000000000000000000000000000000000000000000000000000600052604160045260246000fd5b610415826103cc565b810181811067ffffffffffffffff82111715610434576104336103dd565b5b80604052505050565b600061044761033f565b9050610453828261040c565b919050565b600067ffffffffffffffff821115610473576104726103dd565b5b602082029050602081019050919050565b600080fd5b600061049c61049784610458565b61043d565b905080838252602082019050602084028301858111156104bf576104be610484565b5b835b818110156104e857806104d4888261036a565b8452602084019350506020810190506104c1565b5050509392505050565b600082601f830112610507576105066103c7565b5b8135610517848260208601610489565b91505092915050565b60006020828403121561053657610535610349565b5b600082013567ffffffffffffffff8111156105545761055361034e565b5b610560848285016104f2565b9150509291505056fea26469706673582212207ed68ba836fb21336864d52874ac36c2bad06b007d90fa7c9bd9b669645279f964736f6c634300080f0033",
					"opcodes": "PUSH1 0x80 PUSH1 0x40 MSTORE CALLVALUE DUP1 ISZERO PUSH2 0x10 JUMPI PUSH1 0x0 DUP1 REVERT JUMPDEST POP PUSH2 0x59F DUP1 PUSH2 0x20 PUSH1 0x0 CODECOPY PUSH1 0x0 RETURN INVALID PUSH1 0x80 PUSH1 0x40 MSTORE CALLVALUE DUP1 ISZERO PUSH2 0x10 JUMPI PUSH1 0x0 DUP1 REVERT JUMPDEST POP PUSH1 0x4 CALLDATASIZE LT PUSH2 0x62 JUMPI PUSH1 0x0 CALLDATALOAD PUSH1 0xE0 SHR DUP1 PUSH4 0x18190617 EQ PUSH2 0x67 JUMPI DUP1 PUSH4 0x1990532B EQ PUSH2 0x87 JUMPI DUP1 PUSH4 0x71E5EE5F EQ PUSH2 0xA5 JUMPI DUP1 PUSH4 0x808B905F EQ PUSH2 0xD5 JUMPI DUP1 PUSH4 0xEBDDBAF6 EQ PUSH2 0xF5 JUMPI DUP1 PUSH4 0xF4BB6E6B EQ PUSH2 0x115 JUMPI JUMPDEST PUSH1 0x0 DUP1 REVERT JUMPDEST PUSH2 0x6F PUSH2 0x131 JUMP JUMPDEST PUSH1 0x40 MLOAD PUSH2 0x7E SWAP4 SWAP3 SWAP2 SWAP1 PUSH2 0x228 JUMP JUMPDEST PUSH1 0x40 MLOAD DUP1 SWAP2 SUB SWAP1 RETURN JUMPDEST PUSH2 0x8F PUSH2 0x148 JUMP JUMPDEST PUSH1 0x40 MLOAD PUSH2 0x9C SWAP2 SWAP1 PUSH2 0x31D JUMP JUMPDEST PUSH1 0x40 MLOAD DUP1 SWAP2 SUB SWAP1 RETURN JUMPDEST PUSH2 0xBF PUSH1 0x4 DUP1 CALLDATASIZE SUB DUP2 ADD SWAP1 PUSH2 0xBA SWAP2 SWAP1 PUSH2 0x37F JUMP JUMPDEST PUSH2 0x1A0 JUMP JUMPDEST PUSH1 0x40 MLOAD PUSH2 0xCC SWAP2 SWAP1 PUSH2 0x3AC JUMP JUMPDEST PUSH1 0x40 MLOAD DUP1 SWAP2 SUB SWAP1 RETURN JUMPDEST PUSH2 0xDD PUSH2 0x1C4 JUMP JUMPDEST PUSH1 0x40 MLOAD PUSH2 0xEC SWAP4 SWAP3 SWAP2 SWAP1 PUSH2 0x228 JUMP JUMPDEST PUSH1 0x40 MLOAD DUP1 SWAP2 SUB SWAP1 RETURN JUMPDEST PUSH2 0xFD PUSH2 0x1DB JUMP JUMPDEST PUSH1 0x40 MLOAD PUSH2 0x10C SWAP4 SWAP3 SWAP2 SWAP1 PUSH2 0x228 JUMP JUMPDEST PUSH1 0x40 MLOAD DUP1 SWAP2 SUB SWAP1 RETURN JUMPDEST PUSH2 0x12F PUSH1 0x4 DUP1 CALLDATASIZE SUB DUP2 ADD SWAP1 PUSH2 0x12A SWAP2 SWAP1 PUSH2 0x520 JUMP JUMPDEST PUSH2 0x1F1 JUMP JUMPDEST STOP JUMPDEST PUSH1 0x0 DUP1 PUSH1 0x0 PUSH1 0x64 PUSH1 0x1 PUSH2 0x1F4 SWAP3 POP SWAP3 POP SWAP3 POP SWAP1 SWAP2 SWAP3 JUMP JUMPDEST PUSH1 0x60 PUSH1 0x0 DUP1 SLOAD DUP1 PUSH1 0x20 MUL PUSH1 0x20 ADD PUSH1 0x40 MLOAD SWAP1 DUP2 ADD PUSH1 0x40 MSTORE DUP1 SWAP3 SWAP2 SWAP1 DUP2 DUP2 MSTORE PUSH1 0x20 ADD DUP3 DUP1 SLOAD DUP1 ISZERO PUSH2 0x196 JUMPI PUSH1 0x20 MUL DUP3 ADD SWAP2 SWAP1 PUSH1 0x0 MSTORE PUSH1 0x20 PUSH1 0x0 KECCAK256 SWAP1 JUMPDEST DUP2 SLOAD DUP2 MSTORE PUSH1 0x20 ADD SWAP1 PUSH1 0x1 ADD SWAP1 DUP1 DUP4 GT PUSH2 0x182 JUMPI JUMPDEST POP POP POP POP POP SWAP1 POP SWAP1 JUMP JUMPDEST PUSH1 0x0 DUP2 DUP2 SLOAD DUP2 LT PUSH2 0x1B0 JUMPI PUSH1 0x0 DUP1 REVERT JUMPDEST SWAP1 PUSH1 0x0 MSTORE PUSH1 0x20 PUSH1 0x0 KECCAK256 ADD PUSH1 0x0 SWAP2 POP SWAP1 POP SLOAD DUP2 JUMP JUMPDEST PUSH1 0x0 DUP1 PUSH1 0x0 PUSH1 0x7B SWAP3 POP PUSH1 0x0 SWAP2 POP PUSH2 0x237 SWAP1 POP SWAP1 SWAP2 SWAP3 JUMP JUMPDEST PUSH1 0x0 DUP1 PUSH1 0x0 PUSH1 0x64 PUSH1 0x1 PUSH1 0x32 SWAP3 POP SWAP3 POP SWAP3 POP SWAP1 SWAP2 SWAP3 JUMP JUMPDEST POP JUMP JUMPDEST PUSH1 0x0 DUP2 SWAP1 POP SWAP2 SWAP1 POP JUMP JUMPDEST PUSH2 0x207 DUP2 PUSH2 0x1F4 JUMP JUMPDEST DUP3 MSTORE POP POP JUMP JUMPDEST PUSH1 0x0 DUP2 ISZERO ISZERO SWAP1 POP SWAP2 SWAP1 POP JUMP JUMPDEST PUSH2 0x222 DUP2 PUSH2 0x20D JUMP JUMPDEST DUP3 MSTORE POP POP JUMP JUMPDEST PUSH1 0x0 PUSH1 0x60 DUP3 ADD SWAP1 POP PUSH2 0x23D PUSH1 0x0 DUP4 ADD DUP7 PUSH2 0x1FE JUMP JUMPDEST PUSH2 0x24A PUSH1 0x20 DUP4 ADD DUP6 PUSH2 0x219 JUMP JUMPDEST PUSH2 0x257 PUSH1 0x40 DUP4 ADD DUP5 PUSH2 0x1FE JUMP JUMPDEST SWAP5 SWAP4 POP POP POP POP JUMP JUMPDEST PUSH1 0x0 DUP2 MLOAD SWAP1 POP SWAP2 SWAP1 POP JUMP JUMPDEST PUSH1 0x0 DUP3 DUP3 MSTORE PUSH1 0x20 DUP3 ADD SWAP1 POP SWAP3 SWAP2 POP POP JUMP JUMPDEST PUSH1 0x0 DUP2 SWAP1 POP PUSH1 0x20 DUP3 ADD SWAP1 POP SWAP2 SWAP1 POP JUMP JUMPDEST PUSH2 0x294 DUP2 PUSH2 0x1F4 JUMP JUMPDEST DUP3 MSTORE POP POP JUMP JUMPDEST PUSH1 0x0 PUSH2 0x2A6 DUP4 DUP4 PUSH2 0x28B JUMP JUMPDEST PUSH1 0x20 DUP4 ADD SWAP1 POP SWAP3 SWAP2 POP POP JUMP JUMPDEST PUSH1 0x0 PUSH1 0x20 DUP3 ADD SWAP1 POP SWAP2 SWAP1 POP JUMP JUMPDEST PUSH1 0x0 PUSH2 0x2CA DUP3 PUSH2 0x25F JUMP JUMPDEST PUSH2 0x2D4 DUP2 DUP6 PUSH2 0x26A JUMP JUMPDEST SWAP4 POP PUSH2 0x2DF DUP4 PUSH2 0x27B JUMP JUMPDEST DUP1 PUSH1 0x0 JUMPDEST DUP4 DUP2 LT ISZERO PUSH2 0x310 JUMPI DUP2 MLOAD PUSH2 0x2F7 DUP9 DUP3 PUSH2 0x29A JUMP JUMPDEST SWAP8 POP PUSH2 0x302 DUP4 PUSH2 0x2B2 JUMP JUMPDEST SWAP3 POP POP PUSH1 0x1 DUP2 ADD SWAP1 POP PUSH2 0x2E3 JUMP JUMPDEST POP DUP6 SWAP4 POP POP POP POP SWAP3 SWAP2 POP POP JUMP JUMPDEST PUSH1 0x0 PUSH1 0x20 DUP3 ADD SWAP1 POP DUP2 DUP2 SUB PUSH1 0x0 DUP4 ADD MSTORE PUSH2 0x337 DUP2 DUP5 PUSH2 0x2BF JUMP JUMPDEST SWAP1 POP SWAP3 SWAP2 POP POP JUMP JUMPDEST PUSH1 0x0 PUSH1 0x40 MLOAD SWAP1 POP SWAP1 JUMP JUMPDEST PUSH1 0x0 DUP1 REVERT JUMPDEST PUSH1 0x0 DUP1 REVERT JUMPDEST PUSH2 0x35C DUP2 PUSH2 0x1F4 JUMP JUMPDEST DUP2 EQ PUSH2 0x367 JUMPI PUSH1 0x0 DUP1 REVERT JUMPDEST POP JUMP JUMPDEST PUSH1 0x0 DUP2 CALLDATALOAD SWAP1 POP PUSH2 0x379 DUP2 PUSH2 0x353 JUMP JUMPDEST SWAP3 SWAP2 POP POP JUMP JUMPDEST PUSH1 0x0 PUSH1 0x20 DUP3 DUP5 SUB SLT ISZERO PUSH2 0x395 JUMPI PUSH2 0x394 PUSH2 0x349 JUMP JUMPDEST JUMPDEST PUSH1 0x0 PUSH2 0x3A3 DUP5 DUP3 DUP6 ADD PUSH2 0x36A JUMP JUMPDEST SWAP2 POP POP SWAP3 SWAP2 POP POP JUMP JUMPDEST PUSH1 0x0 PUSH1 0x20 DUP3 ADD SWAP1 POP PUSH2 0x3C1 PUSH1 0x0 DUP4 ADD DUP5 PUSH2 0x1FE JUMP JUMPDEST SWAP3 SWAP2 POP POP JUMP JUMPDEST PUSH1 0x0 DUP1 REVERT JUMPDEST PUSH1 0x0 PUSH1 0x1F NOT PUSH1 0x1F DUP4 ADD AND SWAP1 POP SWAP2 SWAP1 POP JUMP JUMPDEST PUSH32 0x4E487B7100000000000000000000000000000000000000000000000000000000 PUSH1 0x0 MSTORE PUSH1 0x41 PUSH1 0x4 MSTORE PUSH1 0x24 PUSH1 0x0 REVERT JUMPDEST PUSH2 0x415 DUP3 PUSH2 0x3CC JUMP JUMPDEST DUP2 ADD DUP2 DUP2 LT PUSH8 0xFFFFFFFFFFFFFFFF DUP3 GT OR ISZERO PUSH2 0x434 JUMPI PUSH2 0x433 PUSH2 0x3DD JUMP JUMPDEST JUMPDEST DUP1 PUSH1 0x40 MSTORE POP POP POP JUMP JUMPDEST PUSH1 0x0 PUSH2 0x447 PUSH2 0x33F JUMP JUMPDEST SWAP1 POP PUSH2 0x453 DUP3 DUP3 PUSH2 0x40C JUMP JUMPDEST SWAP2 SWAP1 POP JUMP JUMPDEST PUSH1 0x0 PUSH8 0xFFFFFFFFFFFFFFFF DUP3 GT ISZERO PUSH2 0x473 JUMPI PUSH2 0x472 PUSH2 0x3DD JUMP JUMPDEST JUMPDEST PUSH1 0x20 DUP3 MUL SWAP1 POP PUSH1 0x20 DUP2 ADD SWAP1 POP SWAP2 SWAP1 POP JUMP JUMPDEST PUSH1 0x0 DUP1 REVERT JUMPDEST PUSH1 0x0 PUSH2 0x49C PUSH2 0x497 DUP5 PUSH2 0x458 JUMP JUMPDEST PUSH2 0x43D JUMP JUMPDEST SWAP1 POP DUP1 DUP4 DUP3 MSTORE PUSH1 0x20 DUP3 ADD SWAP1 POP PUSH1 0x20 DUP5 MUL DUP4 ADD DUP6 DUP2 GT ISZERO PUSH2 0x4BF JUMPI PUSH2 0x4BE PUSH2 0x484 JUMP JUMPDEST JUMPDEST DUP4 JUMPDEST DUP2 DUP2 LT ISZERO PUSH2 0x4E8 JUMPI DUP1 PUSH2 0x4D4 DUP9 DUP3 PUSH2 0x36A JUMP JUMPDEST DUP5 MSTORE PUSH1 0x20 DUP5 ADD SWAP4 POP POP PUSH1 0x20 DUP2 ADD SWAP1 POP PUSH2 0x4C1 JUMP JUMPDEST POP POP POP SWAP4 SWAP3 POP POP POP JUMP JUMPDEST PUSH1 0x0 DUP3 PUSH1 0x1F DUP4 ADD SLT PUSH2 0x507 JUMPI PUSH2 0x506 PUSH2 0x3C7 JUMP JUMPDEST JUMPDEST DUP2 CALLDATALOAD PUSH2 0x517 DUP5 DUP3 PUSH1 0x20 DUP7 ADD PUSH2 0x489 JUMP JUMPDEST SWAP2 POP POP SWAP3 SWAP2 POP POP JUMP JUMPDEST PUSH1 0x0 PUSH1 0x20 DUP3 DUP5 SUB SLT ISZERO PUSH2 0x536 JUMPI PUSH2 0x535 PUSH2 0x349 JUMP JUMPDEST JUMPDEST PUSH1 0x0 DUP3 ADD CALLDATALOAD PUSH8 0xFFFFFFFFFFFFFFFF DUP2 GT ISZERO PUSH2 0x554 JUMPI PUSH2 0x553 PUSH2 0x34E JUMP JUMPDEST JUMPDEST PUSH2 0x560 DUP5 DUP3 DUP6 ADD PUSH2 0x4F2 JUMP JUMPDEST SWAP2 POP POP SWAP3 SWAP2 POP POP JUMP INVALID LOG2 PUSH5 0x6970667358 0x22 SLT KECCAK256 PUSH31 0xD68BA836FB21336864D52874AC36C2BAD06B007D90FA7C9BD9B669645279F9 PUSH5 0x736F6C6343 STOP ADDMOD 0xF STOP CALLER "
				},
				"gasEstimates": {
					"creation": {
						"codeDepositCost": "287800",
						"executionCost": "324",
						"totalCost": "288124"
					},
					"external": {
						"arr(uint256)": "infinite",
						"arrayInput(uint256[])": "infinite",
						"arrayOutput()": "infinite",
						"returnData()": "infinite",
						"returnDataAssigned()": "infinite",
						"returnDataParams()": "infinite"
					}
				},
				"methodIdentifiers": {
					"arr(uint256)": "71e5ee5f",
					"arrayInput(uint256[])": "f4bb6e6b",
					"arrayOutput()": "1990532b",
					"returnData()": "ebddbaf6",
					"returnDataAssigned()": "808b905f",
					"returnDataParams()": "18190617"
				}
			},
			"storageLayout": {
				"storage": [
					{
						"astId": 63,
						"contract": "SolidityCodes/Function.sol:Function",
						"label": "arr",
						"offset": 0,
						"slot": "0",
						"type": "t_array(t_uint256)dyn_storage"
					}
				],
				"types": {
					"t_array(t_uint256)dyn_storage": {
						"base": "t_uint256",
						"encoding": "dynamic_array",
						"label": "uint256[]",
						"numberOfBytes": "32"
					},
					"t_uint256": {
						"encoding": "inplace",
						"label": "uint256",
						"numberOfBytes": "32"
					}
				}
			},
			"userdoc": {
				"kind": "user",
				"methods": {},
				"version": 1
			}
		}
	}
}