{
	"SolidityCodes/Todo_List.sol": {
		"Todo_List": {
			"abi": [
				{
					"inputs": [
						{
							"internalType": "string",
							"name": "_text",
							"type": "string"
						}
					],
					"name": "create",
					"outputs": [],
					"stateMutability": "nonpayable",
					"type": "function"
				},
				{
					"inputs": [
						{
							"internalType": "uint256",
							"name": "_ind",
							"type": "uint256"
						}
					],
					"name": "getData",
					"outputs": [
						{
							"internalType": "string",
							"name": "",
							"type": "string"
						}
					],
					"stateMutability": "view",
					"type": "function"
				},
				{
					"inputs": [
						{
							"internalType": "uint256",
							"name": "",
							"type": "uint256"
						}
					],
					"name": "todos",
					"outputs": [
						{
							"internalType": "string",
							"name": "text",
							"type": "string"
						},
						{
							"internalType": "bool",
							"name": "complete",
							"type": "bool"
						}
					],
					"stateMutability": "view",
					"type": "function"
				},
				{
					"inputs": [
						{
							"internalType": "uint256",
							"name": "_ind",
							"type": "uint256"
						},
						{
							"internalType": "string",
							"name": "_text",
							"type": "string"
						}
					],
					"name": "updateData",
					"outputs": [],
					"stateMutability": "nonpayable",
					"type": "function"
				}
			],
			"devdoc": {
				"kind": "dev",
				"methods": {},
				"version": 1
			},
			"evm": {
				"assembly": "    /* \"SolidityCodes/Todo_List.sol\":63:647  contract Todo_List{... */\n  mstore(0x40, 0x80)\n  callvalue\n  dup1\n  iszero\n  tag_1\n  jumpi\n  0x00\n  dup1\n  revert\ntag_1:\n  pop\n  dataSize(sub_0)\n  dup1\n  dataOffset(sub_0)\n  0x00\n  codecopy\n  0x00\n  return\nstop\n\nsub_0: assembly {\n        /* \"SolidityCodes/Todo_List.sol\":63:647  contract Todo_List{... */\n      mstore(0x40, 0x80)\n      callvalue\n      dup1\n      iszero\n      tag_1\n      jumpi\n      0x00\n      dup1\n      revert\n    tag_1:\n      pop\n      jumpi(tag_2, lt(calldatasize, 0x04))\n      shr(0xe0, calldataload(0x00))\n      dup1\n      0x0178fe3f\n      eq\n      tag_3\n      jumpi\n      dup1\n      0x89a8e2a7\n      eq\n      tag_4\n      jumpi\n      dup1\n      0xb6a46b3b\n      eq\n      tag_5\n      jumpi\n      dup1\n      0xbc8bc2b4\n      eq\n      tag_6\n      jumpi\n    tag_2:\n      0x00\n      dup1\n      revert\n        /* \"SolidityCodes/Todo_List.sol\":489:642  function getData(uint _ind) external view returns(string memory){... */\n    tag_3:\n      tag_7\n      0x04\n      dup1\n      calldatasize\n      sub\n      dup2\n      add\n      swap1\n      tag_8\n      swap2\n      swap1\n      tag_9\n      jump\t// in\n    tag_8:\n      tag_10\n      jump\t// in\n    tag_7:\n      mload(0x40)\n      tag_11\n      swap2\n      swap1\n      tag_12\n      jump\t// in\n    tag_11:\n      mload(0x40)\n      dup1\n      swap2\n      sub\n      swap1\n      return\n        /* \"SolidityCodes/Todo_List.sol\":347:481  function updateData(uint _ind, string calldata _text) external{... */\n    tag_4:\n      tag_13\n      0x04\n      dup1\n      calldatasize\n      sub\n      dup2\n      add\n      swap1\n      tag_14\n      swap2\n      swap1\n      tag_15\n      jump\t// in\n    tag_14:\n      tag_16\n      jump\t// in\n    tag_13:\n      stop\n        /* \"SolidityCodes/Todo_List.sol\":190:339  function create(string calldata _text) external{... */\n    tag_5:\n      tag_17\n      0x04\n      dup1\n      calldatasize\n      sub\n      dup2\n      add\n      swap1\n      tag_18\n      swap2\n      swap1\n      tag_19\n      jump\t// in\n    tag_18:\n      tag_20\n      jump\t// in\n    tag_17:\n      stop\n        /* \"SolidityCodes/Todo_List.sol\":161:181  Todo [] public todos */\n    tag_6:\n      tag_21\n      0x04\n      dup1\n      calldatasize\n      sub\n      dup2\n      add\n      swap1\n      tag_22\n      swap2\n      swap1\n      tag_9\n      jump\t// in\n    tag_22:\n      tag_23\n      jump\t// in\n    tag_21:\n      mload(0x40)\n      tag_24\n      swap3\n      swap2\n      swap1\n      tag_25\n      jump\t// in\n    tag_24:\n      mload(0x40)\n      dup1\n      swap2\n      sub\n      swap1\n      return\n        /* \"SolidityCodes/Todo_List.sol\":489:642  function getData(uint _ind) external view returns(string memory){... */\n    tag_10:\n        /* \"SolidityCodes/Todo_List.sol\":539:552  string memory */\n      0x60\n        /* \"SolidityCodes/Todo_List.sol\":564:579  Todo storage td */\n      0x00\n        /* \"SolidityCodes/Todo_List.sol\":580:585  todos */\n      dup1\n        /* \"SolidityCodes/Todo_List.sol\":586:590  _ind */\n      dup4\n        /* \"SolidityCodes/Todo_List.sol\":580:591  todos[_ind] */\n      dup2\n      sload\n      dup2\n      lt\n      tag_27\n      jumpi\n      tag_28\n      tag_29\n      jump\t// in\n    tag_28:\n    tag_27:\n      swap1\n      0x00\n      mstore\n      keccak256(0x00, 0x20)\n      swap1\n      0x02\n      mul\n      add\n        /* \"SolidityCodes/Todo_List.sol\":564:591  Todo storage td=todos[_ind] */\n      swap1\n      pop\n        /* \"SolidityCodes/Todo_List.sol\":611:613  td */\n      dup1\n        /* \"SolidityCodes/Todo_List.sol\":611:618  td.text */\n      0x00\n      add\n        /* \"SolidityCodes/Todo_List.sol\":604:618  return td.text */\n      dup1\n      sload\n      tag_31\n      swap1\n      tag_32\n      jump\t// in\n    tag_31:\n      dup1\n      0x1f\n      add\n      0x20\n      dup1\n      swap2\n      div\n      mul\n      0x20\n      add\n      mload(0x40)\n      swap1\n      dup2\n      add\n      0x40\n      mstore\n      dup1\n      swap3\n      swap2\n      swap1\n      dup2\n      dup2\n      mstore\n      0x20\n      add\n      dup3\n      dup1\n      sload\n      tag_33\n      swap1\n      tag_32\n      jump\t// in\n    tag_33:\n      dup1\n      iszero\n      tag_34\n      jumpi\n      dup1\n      0x1f\n      lt\n      tag_35\n      jumpi\n      0x0100\n      dup1\n      dup4\n      sload\n      div\n      mul\n      dup4\n      mstore\n      swap2\n      0x20\n      add\n      swap2\n      jump(tag_34)\n    tag_35:\n      dup3\n      add\n      swap2\n      swap1\n      0x00\n      mstore\n      keccak256(0x00, 0x20)\n      swap1\n    tag_36:\n      dup2\n      sload\n      dup2\n      mstore\n      swap1\n      0x01\n      add\n      swap1\n      0x20\n      add\n      dup1\n      dup4\n      gt\n      tag_36\n      jumpi\n      dup3\n      swap1\n      sub\n      0x1f\n      and\n      dup3\n      add\n      swap2\n    tag_34:\n      pop\n      pop\n      pop\n      pop\n      pop\n      swap2\n      pop\n      pop\n        /* \"SolidityCodes/Todo_List.sol\":489:642  function getData(uint _ind) external view returns(string memory){... */\n      swap2\n      swap1\n      pop\n      jump\t// out\n        /* \"SolidityCodes/Todo_List.sol\":347:481  function updateData(uint _ind, string calldata _text) external{... */\n    tag_16:\n        /* \"SolidityCodes/Todo_List.sol\":420:435  Todo storage td */\n      0x00\n        /* \"SolidityCodes/Todo_List.sol\":436:441  todos */\n      dup1\n        /* \"SolidityCodes/Todo_List.sol\":442:446  _ind */\n      dup5\n        /* \"SolidityCodes/Todo_List.sol\":436:447  todos[_ind] */\n      dup2\n      sload\n      dup2\n      lt\n      tag_38\n      jumpi\n      tag_39\n      tag_29\n      jump\t// in\n    tag_39:\n    tag_38:\n      swap1\n      0x00\n      mstore\n      keccak256(0x00, 0x20)\n      swap1\n      0x02\n      mul\n      add\n        /* \"SolidityCodes/Todo_List.sol\":420:447  Todo storage td=todos[_ind] */\n      swap1\n      pop\n        /* \"SolidityCodes/Todo_List.sol\":466:471  _text */\n      dup3\n      dup3\n        /* \"SolidityCodes/Todo_List.sol\":458:460  td */\n      dup3\n        /* \"SolidityCodes/Todo_List.sol\":458:465  td.text */\n      0x00\n      add\n        /* \"SolidityCodes/Todo_List.sol\":458:471  td.text=_text */\n      swap2\n      dup3\n      tag_41\n      swap3\n      swap2\n      swap1\n      tag_42\n      jump\t// in\n    tag_41:\n      pop\n        /* \"SolidityCodes/Todo_List.sol\":409:481  {... */\n      pop\n        /* \"SolidityCodes/Todo_List.sol\":347:481  function updateData(uint _ind, string calldata _text) external{... */\n      pop\n      pop\n      pop\n      jump\t// out\n        /* \"SolidityCodes/Todo_List.sol\":190:339  function create(string calldata _text) external{... */\n    tag_20:\n        /* \"SolidityCodes/Todo_List.sol\":248:253  todos */\n      0x00\n        /* \"SolidityCodes/Todo_List.sol\":259:330  Todo({... */\n      mload(0x40)\n      dup1\n      0x40\n      add\n      0x40\n      mstore\n      dup1\n        /* \"SolidityCodes/Todo_List.sol\":284:289  _text */\n      dup5\n      dup5\n        /* \"SolidityCodes/Todo_List.sol\":259:330  Todo({... */\n      dup1\n      dup1\n      0x1f\n      add\n      0x20\n      dup1\n      swap2\n      div\n      mul\n      0x20\n      add\n      mload(0x40)\n      swap1\n      dup2\n      add\n      0x40\n      mstore\n      dup1\n      swap4\n      swap3\n      swap2\n      swap1\n      dup2\n      dup2\n      mstore\n      0x20\n      add\n      dup4\n      dup4\n      dup1\n      dup3\n      dup5\n      calldatacopy\n      0x00\n      dup2\n      dup5\n      add\n      mstore\n      not(0x1f)\n      0x1f\n      dup3\n      add\n      and\n      swap1\n      pop\n      dup1\n      dup4\n      add\n      swap3\n      pop\n      pop\n      pop\n      pop\n      pop\n      pop\n      pop\n      dup2\n      mstore\n      0x20\n      add\n        /* \"SolidityCodes/Todo_List.sol\":313:318  false */\n      0x00\n        /* \"SolidityCodes/Todo_List.sol\":259:330  Todo({... */\n      iszero\n      iszero\n      dup2\n      mstore\n      pop\n        /* \"SolidityCodes/Todo_List.sol\":248:331  todos.push(Todo({... */\n      swap1\n      dup1\n      0x01\n      dup2\n      sload\n      add\n      dup1\n      dup3\n      sstore\n      dup1\n      swap2\n      pop\n      pop\n      0x01\n      swap1\n      sub\n      swap1\n      0x00\n      mstore\n      keccak256(0x00, 0x20)\n      swap1\n      0x02\n      mul\n      add\n      0x00\n      swap1\n      swap2\n      swap1\n      swap2\n      swap1\n      swap2\n      pop\n      0x00\n      dup3\n      add\n      mload\n      dup2\n      0x00\n      add\n      swap1\n      dup2\n      tag_45\n      swap2\n      swap1\n      tag_46\n      jump\t// in\n    tag_45:\n      pop\n      0x20\n      dup3\n      add\n      mload\n      dup2\n      0x01\n      add\n      exp(0x0100, 0x00)\n      dup2\n      sload\n      dup2\n      0xff\n      mul\n      not\n      and\n      swap1\n      dup4\n      iszero\n      iszero\n      mul\n      or\n      swap1\n      sstore\n      pop\n      pop\n      pop\n        /* \"SolidityCodes/Todo_List.sol\":190:339  function create(string calldata _text) external{... */\n      pop\n      pop\n      jump\t// out\n        /* \"SolidityCodes/Todo_List.sol\":161:181  Todo [] public todos */\n    tag_23:\n      0x00\n      dup2\n      dup2\n      sload\n      dup2\n      lt\n      tag_47\n      jumpi\n      0x00\n      dup1\n      revert\n    tag_47:\n      swap1\n      0x00\n      mstore\n      keccak256(0x00, 0x20)\n      swap1\n      0x02\n      mul\n      add\n      0x00\n      swap2\n      pop\n      swap1\n      pop\n      dup1\n      0x00\n      add\n      dup1\n      sload\n      tag_49\n      swap1\n      tag_32\n      jump\t// in\n    tag_49:\n      dup1\n      0x1f\n      add\n      0x20\n      dup1\n      swap2\n      div\n      mul\n      0x20\n      add\n      mload(0x40)\n      swap1\n      dup2\n      add\n      0x40\n      mstore\n      dup1\n      swap3\n      swap2\n      swap1\n      dup2\n      dup2\n      mstore\n      0x20\n      add\n      dup3\n      dup1\n      sload\n      tag_50\n      swap1\n      tag_32\n      jump\t// in\n    tag_50:\n      dup1\n      iszero\n      tag_51\n      jumpi\n      dup1\n      0x1f\n      lt\n      tag_52\n      jumpi\n      0x0100\n      dup1\n      dup4\n      sload\n      div\n      mul\n      dup4\n      mstore\n      swap2\n      0x20\n      add\n      swap2\n      jump(tag_51)\n    tag_52:\n      dup3\n      add\n      swap2\n      swap1\n      0x00\n      mstore\n      keccak256(0x00, 0x20)\n      swap1\n    tag_53:\n      dup2\n      sload\n      dup2\n      mstore\n      swap1\n      0x01\n      add\n      swap1\n      0x20\n      add\n      dup1\n      dup4\n      gt\n      tag_53\n      jumpi\n      dup3\n      swap1\n      sub\n      0x1f\n      and\n      dup3\n      add\n      swap2\n    tag_51:\n      pop\n      pop\n      pop\n      pop\n      pop\n      swap1\n      dup1\n      0x01\n      add\n      0x00\n      swap1\n      sload\n      swap1\n      0x0100\n      exp\n      swap1\n      div\n      0xff\n      and\n      swap1\n      pop\n      dup3\n      jump\t// out\n        /* \"#utility.yul\":88:205   */\n    tag_55:\n        /* \"#utility.yul\":197:198   */\n      0x00\n        /* \"#utility.yul\":194:195   */\n      dup1\n        /* \"#utility.yul\":187:199   */\n      revert\n        /* \"#utility.yul\":211:328   */\n    tag_56:\n        /* \"#utility.yul\":320:321   */\n      0x00\n        /* \"#utility.yul\":317:318   */\n      dup1\n        /* \"#utility.yul\":310:322   */\n      revert\n        /* \"#utility.yul\":334:411   */\n    tag_57:\n        /* \"#utility.yul\":371:378   */\n      0x00\n        /* \"#utility.yul\":400:405   */\n      dup2\n        /* \"#utility.yul\":389:405   */\n      swap1\n      pop\n        /* \"#utility.yul\":334:411   */\n      swap2\n      swap1\n      pop\n      jump\t// out\n        /* \"#utility.yul\":417:539   */\n    tag_58:\n        /* \"#utility.yul\":490:514   */\n      tag_95\n        /* \"#utility.yul\":508:513   */\n      dup2\n        /* \"#utility.yul\":490:514   */\n      tag_57\n      jump\t// in\n    tag_95:\n        /* \"#utility.yul\":483:488   */\n      dup2\n        /* \"#utility.yul\":480:515   */\n      eq\n        /* \"#utility.yul\":470:533   */\n      tag_96\n      jumpi\n        /* \"#utility.yul\":529:530   */\n      0x00\n        /* \"#utility.yul\":526:527   */\n      dup1\n        /* \"#utility.yul\":519:531   */\n      revert\n        /* \"#utility.yul\":470:533   */\n    tag_96:\n        /* \"#utility.yul\":417:539   */\n      pop\n      jump\t// out\n        /* \"#utility.yul\":545:684   */\n    tag_59:\n        /* \"#utility.yul\":591:596   */\n      0x00\n        /* \"#utility.yul\":629:635   */\n      dup2\n        /* \"#utility.yul\":616:636   */\n      calldataload\n        /* \"#utility.yul\":607:636   */\n      swap1\n      pop\n        /* \"#utility.yul\":645:678   */\n      tag_98\n        /* \"#utility.yul\":672:677   */\n      dup2\n        /* \"#utility.yul\":645:678   */\n      tag_58\n      jump\t// in\n    tag_98:\n        /* \"#utility.yul\":545:684   */\n      swap3\n      swap2\n      pop\n      pop\n      jump\t// out\n        /* \"#utility.yul\":690:1019   */\n    tag_9:\n        /* \"#utility.yul\":749:755   */\n      0x00\n        /* \"#utility.yul\":798:800   */\n      0x20\n        /* \"#utility.yul\":786:795   */\n      dup3\n        /* \"#utility.yul\":777:784   */\n      dup5\n        /* \"#utility.yul\":773:796   */\n      sub\n        /* \"#utility.yul\":769:801   */\n      slt\n        /* \"#utility.yul\":766:885   */\n      iszero\n      tag_100\n      jumpi\n        /* \"#utility.yul\":804:883   */\n      tag_101\n      tag_55\n      jump\t// in\n    tag_101:\n        /* \"#utility.yul\":766:885   */\n    tag_100:\n        /* \"#utility.yul\":924:925   */\n      0x00\n        /* \"#utility.yul\":949:1002   */\n      tag_102\n        /* \"#utility.yul\":994:1001   */\n      dup5\n        /* \"#utility.yul\":985:991   */\n      dup3\n        /* \"#utility.yul\":974:983   */\n      dup6\n        /* \"#utility.yul\":970:992   */\n      add\n        /* \"#utility.yul\":949:1002   */\n      tag_59\n      jump\t// in\n    tag_102:\n        /* \"#utility.yul\":939:1002   */\n      swap2\n      pop\n        /* \"#utility.yul\":895:1012   */\n      pop\n        /* \"#utility.yul\":690:1019   */\n      swap3\n      swap2\n      pop\n      pop\n      jump\t// out\n        /* \"#utility.yul\":1025:1124   */\n    tag_60:\n        /* \"#utility.yul\":1077:1083   */\n      0x00\n        /* \"#utility.yul\":1111:1116   */\n      dup2\n        /* \"#utility.yul\":1105:1117   */\n      mload\n        /* \"#utility.yul\":1095:1117   */\n      swap1\n      pop\n        /* \"#utility.yul\":1025:1124   */\n      swap2\n      swap1\n      pop\n      jump\t// out\n        /* \"#utility.yul\":1130:1299   */\n    tag_61:\n        /* \"#utility.yul\":1214:1225   */\n      0x00\n        /* \"#utility.yul\":1248:1254   */\n      dup3\n        /* \"#utility.yul\":1243:1246   */\n      dup3\n        /* \"#utility.yul\":1236:1255   */\n      mstore\n        /* \"#utility.yul\":1288:1292   */\n      0x20\n        /* \"#utility.yul\":1283:1286   */\n      dup3\n        /* \"#utility.yul\":1279:1293   */\n      add\n        /* \"#utility.yul\":1264:1293   */\n      swap1\n      pop\n        /* \"#utility.yul\":1130:1299   */\n      swap3\n      swap2\n      pop\n      pop\n      jump\t// out\n        /* \"#utility.yul\":1305:1612   */\n    tag_62:\n        /* \"#utility.yul\":1373:1374   */\n      0x00\n        /* \"#utility.yul\":1383:1496   */\n    tag_106:\n        /* \"#utility.yul\":1397:1403   */\n      dup4\n        /* \"#utility.yul\":1394:1395   */\n      dup2\n        /* \"#utility.yul\":1391:1404   */\n      lt\n        /* \"#utility.yul\":1383:1496   */\n      iszero\n      tag_108\n      jumpi\n        /* \"#utility.yul\":1482:1483   */\n      dup1\n        /* \"#utility.yul\":1477:1480   */\n      dup3\n        /* \"#utility.yul\":1473:1484   */\n      add\n        /* \"#utility.yul\":1467:1485   */\n      mload\n        /* \"#utility.yul\":1463:1464   */\n      dup2\n        /* \"#utility.yul\":1458:1461   */\n      dup5\n        /* \"#utility.yul\":1454:1465   */\n      add\n        /* \"#utility.yul\":1447:1486   */\n      mstore\n        /* \"#utility.yul\":1419:1421   */\n      0x20\n        /* \"#utility.yul\":1416:1417   */\n      dup2\n        /* \"#utility.yul\":1412:1422   */\n      add\n        /* \"#utility.yul\":1407:1422   */\n      swap1\n      pop\n        /* \"#utility.yul\":1383:1496   */\n      jump(tag_106)\n    tag_108:\n        /* \"#utility.yul\":1514:1520   */\n      dup4\n        /* \"#utility.yul\":1511:1512   */\n      dup2\n        /* \"#utility.yul\":1508:1521   */\n      gt\n        /* \"#utility.yul\":1505:1606   */\n      iszero\n      tag_109\n      jumpi\n        /* \"#utility.yul\":1594:1595   */\n      0x00\n        /* \"#utility.yul\":1585:1591   */\n      dup5\n        /* \"#utility.yul\":1580:1583   */\n      dup5\n        /* \"#utility.yul\":1576:1592   */\n      add\n        /* \"#utility.yul\":1569:1596   */\n      mstore\n        /* \"#utility.yul\":1505:1606   */\n    tag_109:\n        /* \"#utility.yul\":1354:1612   */\n      pop\n        /* \"#utility.yul\":1305:1612   */\n      pop\n      pop\n      pop\n      jump\t// out\n        /* \"#utility.yul\":1618:1720   */\n    tag_63:\n        /* \"#utility.yul\":1659:1665   */\n      0x00\n        /* \"#utility.yul\":1710:1712   */\n      0x1f\n        /* \"#utility.yul\":1706:1713   */\n      not\n        /* \"#utility.yul\":1701:1703   */\n      0x1f\n        /* \"#utility.yul\":1694:1699   */\n      dup4\n        /* \"#utility.yul\":1690:1704   */\n      add\n        /* \"#utility.yul\":1686:1714   */\n      and\n        /* \"#utility.yul\":1676:1714   */\n      swap1\n      pop\n        /* \"#utility.yul\":1618:1720   */\n      swap2\n      swap1\n      pop\n      jump\t// out\n        /* \"#utility.yul\":1726:2090   */\n    tag_64:\n        /* \"#utility.yul\":1814:1817   */\n      0x00\n        /* \"#utility.yul\":1842:1881   */\n      tag_112\n        /* \"#utility.yul\":1875:1880   */\n      dup3\n        /* \"#utility.yul\":1842:1881   */\n      tag_60\n      jump\t// in\n    tag_112:\n        /* \"#utility.yul\":1897:1968   */\n      tag_113\n        /* \"#utility.yul\":1961:1967   */\n      dup2\n        /* \"#utility.yul\":1956:1959   */\n      dup6\n        /* \"#utility.yul\":1897:1968   */\n      tag_61\n      jump\t// in\n    tag_113:\n        /* \"#utility.yul\":1890:1968   */\n      swap4\n      pop\n        /* \"#utility.yul\":1977:2029   */\n      tag_114\n        /* \"#utility.yul\":2022:2028   */\n      dup2\n        /* \"#utility.yul\":2017:2020   */\n      dup6\n        /* \"#utility.yul\":2010:2014   */\n      0x20\n        /* \"#utility.yul\":2003:2008   */\n      dup7\n        /* \"#utility.yul\":1999:2015   */\n      add\n        /* \"#utility.yul\":1977:2029   */\n      tag_62\n      jump\t// in\n    tag_114:\n        /* \"#utility.yul\":2054:2083   */\n      tag_115\n        /* \"#utility.yul\":2076:2082   */\n      dup2\n        /* \"#utility.yul\":2054:2083   */\n      tag_63\n      jump\t// in\n    tag_115:\n        /* \"#utility.yul\":2049:2052   */\n      dup5\n        /* \"#utility.yul\":2045:2084   */\n      add\n        /* \"#utility.yul\":2038:2084   */\n      swap2\n      pop\n        /* \"#utility.yul\":1818:2090   */\n      pop\n        /* \"#utility.yul\":1726:2090   */\n      swap3\n      swap2\n      pop\n      pop\n      jump\t// out\n        /* \"#utility.yul\":2096:2409   */\n    tag_12:\n        /* \"#utility.yul\":2209:2213   */\n      0x00\n        /* \"#utility.yul\":2247:2249   */\n      0x20\n        /* \"#utility.yul\":2236:2245   */\n      dup3\n        /* \"#utility.yul\":2232:2250   */\n      add\n        /* \"#utility.yul\":2224:2250   */\n      swap1\n      pop\n        /* \"#utility.yul\":2296:2305   */\n      dup2\n        /* \"#utility.yul\":2290:2294   */\n      dup2\n        /* \"#utility.yul\":2286:2306   */\n      sub\n        /* \"#utility.yul\":2282:2283   */\n      0x00\n        /* \"#utility.yul\":2271:2280   */\n      dup4\n        /* \"#utility.yul\":2267:2284   */\n      add\n        /* \"#utility.yul\":2260:2307   */\n      mstore\n        /* \"#utility.yul\":2324:2402   */\n      tag_117\n        /* \"#utility.yul\":2397:2401   */\n      dup2\n        /* \"#utility.yul\":2388:2394   */\n      dup5\n        /* \"#utility.yul\":2324:2402   */\n      tag_64\n      jump\t// in\n    tag_117:\n        /* \"#utility.yul\":2316:2402   */\n      swap1\n      pop\n        /* \"#utility.yul\":2096:2409   */\n      swap3\n      swap2\n      pop\n      pop\n      jump\t// out\n        /* \"#utility.yul\":2415:2532   */\n    tag_65:\n        /* \"#utility.yul\":2524:2525   */\n      0x00\n        /* \"#utility.yul\":2521:2522   */\n      dup1\n        /* \"#utility.yul\":2514:2526   */\n      revert\n        /* \"#utility.yul\":2538:2655   */\n    tag_66:\n        /* \"#utility.yul\":2647:2648   */\n      0x00\n        /* \"#utility.yul\":2644:2645   */\n      dup1\n        /* \"#utility.yul\":2637:2649   */\n      revert\n        /* \"#utility.yul\":2661:2778   */\n    tag_67:\n        /* \"#utility.yul\":2770:2771   */\n      0x00\n        /* \"#utility.yul\":2767:2768   */\n      dup1\n        /* \"#utility.yul\":2760:2772   */\n      revert\n        /* \"#utility.yul\":2798:3351   */\n    tag_68:\n        /* \"#utility.yul\":2856:2864   */\n      0x00\n        /* \"#utility.yul\":2866:2872   */\n      dup1\n        /* \"#utility.yul\":2916:2919   */\n      dup4\n        /* \"#utility.yul\":2909:2913   */\n      0x1f\n        /* \"#utility.yul\":2901:2907   */\n      dup5\n        /* \"#utility.yul\":2897:2914   */\n      add\n        /* \"#utility.yul\":2893:2920   */\n      slt\n        /* \"#utility.yul\":2883:3005   */\n      tag_122\n      jumpi\n        /* \"#utility.yul\":2924:3003   */\n      tag_123\n      tag_65\n      jump\t// in\n    tag_123:\n        /* \"#utility.yul\":2883:3005   */\n    tag_122:\n        /* \"#utility.yul\":3037:3043   */\n      dup3\n        /* \"#utility.yul\":3024:3044   */\n      calldataload\n        /* \"#utility.yul\":3014:3044   */\n      swap1\n      pop\n        /* \"#utility.yul\":3067:3085   */\n      0xffffffffffffffff\n        /* \"#utility.yul\":3059:3065   */\n      dup2\n        /* \"#utility.yul\":3056:3086   */\n      gt\n        /* \"#utility.yul\":3053:3170   */\n      iszero\n      tag_124\n      jumpi\n        /* \"#utility.yul\":3089:3168   */\n      tag_125\n      tag_66\n      jump\t// in\n    tag_125:\n        /* \"#utility.yul\":3053:3170   */\n    tag_124:\n        /* \"#utility.yul\":3203:3207   */\n      0x20\n        /* \"#utility.yul\":3195:3201   */\n      dup4\n        /* \"#utility.yul\":3191:3208   */\n      add\n        /* \"#utility.yul\":3179:3208   */\n      swap2\n      pop\n        /* \"#utility.yul\":3257:3260   */\n      dup4\n        /* \"#utility.yul\":3249:3253   */\n      0x01\n        /* \"#utility.yul\":3241:3247   */\n      dup3\n        /* \"#utility.yul\":3237:3254   */\n      mul\n        /* \"#utility.yul\":3227:3235   */\n      dup4\n        /* \"#utility.yul\":3223:3255   */\n      add\n        /* \"#utility.yul\":3220:3261   */\n      gt\n        /* \"#utility.yul\":3217:3345   */\n      iszero\n      tag_126\n      jumpi\n        /* \"#utility.yul\":3264:3343   */\n      tag_127\n      tag_67\n      jump\t// in\n    tag_127:\n        /* \"#utility.yul\":3217:3345   */\n    tag_126:\n        /* \"#utility.yul\":2798:3351   */\n      swap3\n      pop\n      swap3\n      swap1\n      pop\n      jump\t// out\n        /* \"#utility.yul\":3357:4031   */\n    tag_15:\n        /* \"#utility.yul\":3437:3443   */\n      0x00\n        /* \"#utility.yul\":3445:3451   */\n      dup1\n        /* \"#utility.yul\":3453:3459   */\n      0x00\n        /* \"#utility.yul\":3502:3504   */\n      0x40\n        /* \"#utility.yul\":3490:3499   */\n      dup5\n        /* \"#utility.yul\":3481:3488   */\n      dup7\n        /* \"#utility.yul\":3477:3500   */\n      sub\n        /* \"#utility.yul\":3473:3505   */\n      slt\n        /* \"#utility.yul\":3470:3589   */\n      iszero\n      tag_129\n      jumpi\n        /* \"#utility.yul\":3508:3587   */\n      tag_130\n      tag_55\n      jump\t// in\n    tag_130:\n        /* \"#utility.yul\":3470:3589   */\n    tag_129:\n        /* \"#utility.yul\":3628:3629   */\n      0x00\n        /* \"#utility.yul\":3653:3706   */\n      tag_131\n        /* \"#utility.yul\":3698:3705   */\n      dup7\n        /* \"#utility.yul\":3689:3695   */\n      dup3\n        /* \"#utility.yul\":3678:3687   */\n      dup8\n        /* \"#utility.yul\":3674:3696   */\n      add\n        /* \"#utility.yul\":3653:3706   */\n      tag_59\n      jump\t// in\n    tag_131:\n        /* \"#utility.yul\":3643:3706   */\n      swap4\n      pop\n        /* \"#utility.yul\":3599:3716   */\n      pop\n        /* \"#utility.yul\":3783:3785   */\n      0x20\n        /* \"#utility.yul\":3772:3781   */\n      dup5\n        /* \"#utility.yul\":3768:3786   */\n      add\n        /* \"#utility.yul\":3755:3787   */\n      calldataload\n        /* \"#utility.yul\":3814:3832   */\n      0xffffffffffffffff\n        /* \"#utility.yul\":3806:3812   */\n      dup2\n        /* \"#utility.yul\":3803:3833   */\n      gt\n        /* \"#utility.yul\":3800:3917   */\n      iszero\n      tag_132\n      jumpi\n        /* \"#utility.yul\":3836:3915   */\n      tag_133\n      tag_56\n      jump\t// in\n    tag_133:\n        /* \"#utility.yul\":3800:3917   */\n    tag_132:\n        /* \"#utility.yul\":3949:4014   */\n      tag_134\n        /* \"#utility.yul\":4006:4013   */\n      dup7\n        /* \"#utility.yul\":3997:4003   */\n      dup3\n        /* \"#utility.yul\":3986:3995   */\n      dup8\n        /* \"#utility.yul\":3982:4004   */\n      add\n        /* \"#utility.yul\":3949:4014   */\n      tag_68\n      jump\t// in\n    tag_134:\n        /* \"#utility.yul\":3931:4014   */\n      swap3\n      pop\n      swap3\n      pop\n        /* \"#utility.yul\":3726:4024   */\n      pop\n        /* \"#utility.yul\":3357:4031   */\n      swap3\n      pop\n      swap3\n      pop\n      swap3\n      jump\t// out\n        /* \"#utility.yul\":4037:4566   */\n    tag_19:\n        /* \"#utility.yul\":4108:4114   */\n      0x00\n        /* \"#utility.yul\":4116:4122   */\n      dup1\n        /* \"#utility.yul\":4165:4167   */\n      0x20\n        /* \"#utility.yul\":4153:4162   */\n      dup4\n        /* \"#utility.yul\":4144:4151   */\n      dup6\n        /* \"#utility.yul\":4140:4163   */\n      sub\n        /* \"#utility.yul\":4136:4168   */\n      slt\n        /* \"#utility.yul\":4133:4252   */\n      iszero\n      tag_136\n      jumpi\n        /* \"#utility.yul\":4171:4250   */\n      tag_137\n      tag_55\n      jump\t// in\n    tag_137:\n        /* \"#utility.yul\":4133:4252   */\n    tag_136:\n        /* \"#utility.yul\":4319:4320   */\n      0x00\n        /* \"#utility.yul\":4308:4317   */\n      dup4\n        /* \"#utility.yul\":4304:4321   */\n      add\n        /* \"#utility.yul\":4291:4322   */\n      calldataload\n        /* \"#utility.yul\":4349:4367   */\n      0xffffffffffffffff\n        /* \"#utility.yul\":4341:4347   */\n      dup2\n        /* \"#utility.yul\":4338:4368   */\n      gt\n        /* \"#utility.yul\":4335:4452   */\n      iszero\n      tag_138\n      jumpi\n        /* \"#utility.yul\":4371:4450   */\n      tag_139\n      tag_56\n      jump\t// in\n    tag_139:\n        /* \"#utility.yul\":4335:4452   */\n    tag_138:\n        /* \"#utility.yul\":4484:4549   */\n      tag_140\n        /* \"#utility.yul\":4541:4548   */\n      dup6\n        /* \"#utility.yul\":4532:4538   */\n      dup3\n        /* \"#utility.yul\":4521:4530   */\n      dup7\n        /* \"#utility.yul\":4517:4539   */\n      add\n        /* \"#utility.yul\":4484:4549   */\n      tag_68\n      jump\t// in\n    tag_140:\n        /* \"#utility.yul\":4466:4549   */\n      swap3\n      pop\n      swap3\n      pop\n        /* \"#utility.yul\":4262:4559   */\n      pop\n        /* \"#utility.yul\":4037:4566   */\n      swap3\n      pop\n      swap3\n      swap1\n      pop\n      jump\t// out\n        /* \"#utility.yul\":4572:4662   */\n    tag_69:\n        /* \"#utility.yul\":4606:4613   */\n      0x00\n        /* \"#utility.yul\":4649:4654   */\n      dup2\n        /* \"#utility.yul\":4642:4655   */\n      iszero\n        /* \"#utility.yul\":4635:4656   */\n      iszero\n        /* \"#utility.yul\":4624:4656   */\n      swap1\n      pop\n        /* \"#utility.yul\":4572:4662   */\n      swap2\n      swap1\n      pop\n      jump\t// out\n        /* \"#utility.yul\":4668:4777   */\n    tag_70:\n        /* \"#utility.yul\":4749:4770   */\n      tag_143\n        /* \"#utility.yul\":4764:4769   */\n      dup2\n        /* \"#utility.yul\":4749:4770   */\n      tag_69\n      jump\t// in\n    tag_143:\n        /* \"#utility.yul\":4744:4747   */\n      dup3\n        /* \"#utility.yul\":4737:4771   */\n      mstore\n        /* \"#utility.yul\":4668:4777   */\n      pop\n      pop\n      jump\t// out\n        /* \"#utility.yul\":4783:5194   */\n    tag_25:\n        /* \"#utility.yul\":4918:4922   */\n      0x00\n        /* \"#utility.yul\":4956:4958   */\n      0x40\n        /* \"#utility.yul\":4945:4954   */\n      dup3\n        /* \"#utility.yul\":4941:4959   */\n      add\n        /* \"#utility.yul\":4933:4959   */\n      swap1\n      pop\n        /* \"#utility.yul\":5005:5014   */\n      dup2\n        /* \"#utility.yul\":4999:5003   */\n      dup2\n        /* \"#utility.yul\":4995:5015   */\n      sub\n        /* \"#utility.yul\":4991:4992   */\n      0x00\n        /* \"#utility.yul\":4980:4989   */\n      dup4\n        /* \"#utility.yul\":4976:4993   */\n      add\n        /* \"#utility.yul\":4969:5016   */\n      mstore\n        /* \"#utility.yul\":5033:5111   */\n      tag_145\n        /* \"#utility.yul\":5106:5110   */\n      dup2\n        /* \"#utility.yul\":5097:5103   */\n      dup6\n        /* \"#utility.yul\":5033:5111   */\n      tag_64\n      jump\t// in\n    tag_145:\n        /* \"#utility.yul\":5025:5111   */\n      swap1\n      pop\n        /* \"#utility.yul\":5121:5187   */\n      tag_146\n        /* \"#utility.yul\":5183:5185   */\n      0x20\n        /* \"#utility.yul\":5172:5181   */\n      dup4\n        /* \"#utility.yul\":5168:5186   */\n      add\n        /* \"#utility.yul\":5159:5165   */\n      dup5\n        /* \"#utility.yul\":5121:5187   */\n      tag_70\n      jump\t// in\n    tag_146:\n        /* \"#utility.yul\":4783:5194   */\n      swap4\n      swap3\n      pop\n      pop\n      pop\n      jump\t// out\n        /* \"#utility.yul\":5200:5380   */\n    tag_29:\n        /* \"#utility.yul\":5248:5325   */\n      0x4e487b7100000000000000000000000000000000000000000000000000000000\n        /* \"#utility.yul\":5245:5246   */\n      0x00\n        /* \"#utility.yul\":5238:5326   */\n      mstore\n        /* \"#utility.yul\":5345:5349   */\n      0x32\n        /* \"#utility.yul\":5342:5343   */\n      0x04\n        /* \"#utility.yul\":5335:5350   */\n      mstore\n        /* \"#utility.yul\":5369:5373   */\n      0x24\n        /* \"#utility.yul\":5366:5367   */\n      0x00\n        /* \"#utility.yul\":5359:5374   */\n      revert\n        /* \"#utility.yul\":5386:5566   */\n    tag_71:\n        /* \"#utility.yul\":5434:5511   */\n      0x4e487b7100000000000000000000000000000000000000000000000000000000\n        /* \"#utility.yul\":5431:5432   */\n      0x00\n        /* \"#utility.yul\":5424:5512   */\n      mstore\n        /* \"#utility.yul\":5531:5535   */\n      0x22\n        /* \"#utility.yul\":5528:5529   */\n      0x04\n        /* \"#utility.yul\":5521:5536   */\n      mstore\n        /* \"#utility.yul\":5555:5559   */\n      0x24\n        /* \"#utility.yul\":5552:5553   */\n      0x00\n        /* \"#utility.yul\":5545:5560   */\n      revert\n        /* \"#utility.yul\":5572:5892   */\n    tag_32:\n        /* \"#utility.yul\":5616:5622   */\n      0x00\n        /* \"#utility.yul\":5653:5654   */\n      0x02\n        /* \"#utility.yul\":5647:5651   */\n      dup3\n        /* \"#utility.yul\":5643:5655   */\n      div\n        /* \"#utility.yul\":5633:5655   */\n      swap1\n      pop\n        /* \"#utility.yul\":5700:5701   */\n      0x01\n        /* \"#utility.yul\":5694:5698   */\n      dup3\n        /* \"#utility.yul\":5690:5702   */\n      and\n        /* \"#utility.yul\":5721:5739   */\n      dup1\n        /* \"#utility.yul\":5711:5792   */\n      tag_150\n      jumpi\n        /* \"#utility.yul\":5777:5781   */\n      0x7f\n        /* \"#utility.yul\":5769:5775   */\n      dup3\n        /* \"#utility.yul\":5765:5782   */\n      and\n        /* \"#utility.yul\":5755:5782   */\n      swap2\n      pop\n        /* \"#utility.yul\":5711:5792   */\n    tag_150:\n        /* \"#utility.yul\":5839:5841   */\n      0x20\n        /* \"#utility.yul\":5831:5837   */\n      dup3\n        /* \"#utility.yul\":5828:5842   */\n      lt\n        /* \"#utility.yul\":5808:5826   */\n      dup2\n        /* \"#utility.yul\":5805:5843   */\n      sub\n        /* \"#utility.yul\":5802:5886   */\n      tag_151\n      jumpi\n        /* \"#utility.yul\":5858:5876   */\n      tag_152\n      tag_71\n      jump\t// in\n    tag_152:\n        /* \"#utility.yul\":5802:5886   */\n    tag_151:\n        /* \"#utility.yul\":5623:5892   */\n      pop\n        /* \"#utility.yul\":5572:5892   */\n      swap2\n      swap1\n      pop\n      jump\t// out\n        /* \"#utility.yul\":5898:5995   */\n    tag_72:\n        /* \"#utility.yul\":5957:5963   */\n      0x00\n        /* \"#utility.yul\":5985:5988   */\n      dup3\n        /* \"#utility.yul\":5975:5988   */\n      swap1\n      pop\n        /* \"#utility.yul\":5898:5995   */\n      swap3\n      swap2\n      pop\n      pop\n      jump\t// out\n        /* \"#utility.yul\":6001:6181   */\n    tag_73:\n        /* \"#utility.yul\":6049:6126   */\n      0x4e487b7100000000000000000000000000000000000000000000000000000000\n        /* \"#utility.yul\":6046:6047   */\n      0x00\n        /* \"#utility.yul\":6039:6127   */\n      mstore\n        /* \"#utility.yul\":6146:6150   */\n      0x41\n        /* \"#utility.yul\":6143:6144   */\n      0x04\n        /* \"#utility.yul\":6136:6151   */\n      mstore\n        /* \"#utility.yul\":6170:6174   */\n      0x24\n        /* \"#utility.yul\":6167:6168   */\n      0x00\n        /* \"#utility.yul\":6160:6175   */\n      revert\n        /* \"#utility.yul\":6187:6328   */\n    tag_74:\n        /* \"#utility.yul\":6236:6240   */\n      0x00\n        /* \"#utility.yul\":6259:6262   */\n      dup2\n        /* \"#utility.yul\":6251:6262   */\n      swap1\n      pop\n        /* \"#utility.yul\":6282:6285   */\n      dup2\n        /* \"#utility.yul\":6279:6280   */\n      0x00\n        /* \"#utility.yul\":6272:6286   */\n      mstore\n        /* \"#utility.yul\":6316:6320   */\n      0x20\n        /* \"#utility.yul\":6313:6314   */\n      0x00\n        /* \"#utility.yul\":6303:6321   */\n      keccak256\n        /* \"#utility.yul\":6295:6321   */\n      swap1\n      pop\n        /* \"#utility.yul\":6187:6328   */\n      swap2\n      swap1\n      pop\n      jump\t// out\n        /* \"#utility.yul\":6334:6427   */\n    tag_75:\n        /* \"#utility.yul\":6371:6377   */\n      0x00\n        /* \"#utility.yul\":6418:6420   */\n      0x20\n        /* \"#utility.yul\":6413:6415   */\n      0x1f\n        /* \"#utility.yul\":6406:6411   */\n      dup4\n        /* \"#utility.yul\":6402:6416   */\n      add\n        /* \"#utility.yul\":6398:6421   */\n      div\n        /* \"#utility.yul\":6388:6421   */\n      swap1\n      pop\n        /* \"#utility.yul\":6334:6427   */\n      swap2\n      swap1\n      pop\n      jump\t// out\n        /* \"#utility.yul\":6433:6540   */\n    tag_76:\n        /* \"#utility.yul\":6477:6485   */\n      0x00\n        /* \"#utility.yul\":6527:6532   */\n      dup3\n        /* \"#utility.yul\":6521:6525   */\n      dup3\n        /* \"#utility.yul\":6517:6533   */\n      shl\n        /* \"#utility.yul\":6496:6533   */\n      swap1\n      pop\n        /* \"#utility.yul\":6433:6540   */\n      swap3\n      swap2\n      pop\n      pop\n      jump\t// out\n        /* \"#utility.yul\":6546:6939   */\n    tag_77:\n        /* \"#utility.yul\":6615:6621   */\n      0x00\n        /* \"#utility.yul\":6665:6666   */\n      0x08\n        /* \"#utility.yul\":6653:6663   */\n      dup4\n        /* \"#utility.yul\":6649:6667   */\n      mul\n        /* \"#utility.yul\":6688:6785   */\n      tag_159\n        /* \"#utility.yul\":6718:6784   */\n      0xffffffffffffffffffffffffffffffffffffffffffffffffffffffffffffffff\n        /* \"#utility.yul\":6707:6716   */\n      dup3\n        /* \"#utility.yul\":6688:6785   */\n      tag_76\n      jump\t// in\n    tag_159:\n        /* \"#utility.yul\":6806:6845   */\n      tag_160\n        /* \"#utility.yul\":6836:6844   */\n      dup7\n        /* \"#utility.yul\":6825:6834   */\n      dup4\n        /* \"#utility.yul\":6806:6845   */\n      tag_76\n      jump\t// in\n    tag_160:\n        /* \"#utility.yul\":6794:6845   */\n      swap6\n      pop\n        /* \"#utility.yul\":6878:6882   */\n      dup1\n        /* \"#utility.yul\":6874:6883   */\n      not\n        /* \"#utility.yul\":6867:6872   */\n      dup5\n        /* \"#utility.yul\":6863:6884   */\n      and\n        /* \"#utility.yul\":6854:6884   */\n      swap4\n      pop\n        /* \"#utility.yul\":6927:6931   */\n      dup1\n        /* \"#utility.yul\":6917:6925   */\n      dup7\n        /* \"#utility.yul\":6913:6932   */\n      and\n        /* \"#utility.yul\":6906:6911   */\n      dup5\n        /* \"#utility.yul\":6903:6933   */\n      or\n        /* \"#utility.yul\":6893:6933   */\n      swap3\n      pop\n        /* \"#utility.yul\":6622:6939   */\n      pop\n      pop\n        /* \"#utility.yul\":6546:6939   */\n      swap4\n      swap3\n      pop\n      pop\n      pop\n      jump\t// out\n        /* \"#utility.yul\":6945:7005   */\n    tag_78:\n        /* \"#utility.yul\":6973:6976   */\n      0x00\n        /* \"#utility.yul\":6994:6999   */\n      dup2\n        /* \"#utility.yul\":6987:6999   */\n      swap1\n      pop\n        /* \"#utility.yul\":6945:7005   */\n      swap2\n      swap1\n      pop\n      jump\t// out\n        /* \"#utility.yul\":7011:7153   */\n    tag_79:\n        /* \"#utility.yul\":7061:7070   */\n      0x00\n        /* \"#utility.yul\":7094:7147   */\n      tag_163\n        /* \"#utility.yul\":7112:7146   */\n      tag_164\n        /* \"#utility.yul\":7121:7145   */\n      tag_165\n        /* \"#utility.yul\":7139:7144   */\n      dup5\n        /* \"#utility.yul\":7121:7145   */\n      tag_57\n      jump\t// in\n    tag_165:\n        /* \"#utility.yul\":7112:7146   */\n      tag_78\n      jump\t// in\n    tag_164:\n        /* \"#utility.yul\":7094:7147   */\n      tag_57\n      jump\t// in\n    tag_163:\n        /* \"#utility.yul\":7081:7147   */\n      swap1\n      pop\n        /* \"#utility.yul\":7011:7153   */\n      swap2\n      swap1\n      pop\n      jump\t// out\n        /* \"#utility.yul\":7159:7234   */\n    tag_80:\n        /* \"#utility.yul\":7202:7205   */\n      0x00\n        /* \"#utility.yul\":7223:7228   */\n      dup2\n        /* \"#utility.yul\":7216:7228   */\n      swap1\n      pop\n        /* \"#utility.yul\":7159:7234   */\n      swap2\n      swap1\n      pop\n      jump\t// out\n        /* \"#utility.yul\":7240:7509   */\n    tag_81:\n        /* \"#utility.yul\":7350:7389   */\n      tag_168\n        /* \"#utility.yul\":7381:7388   */\n      dup4\n        /* \"#utility.yul\":7350:7389   */\n      tag_79\n      jump\t// in\n    tag_168:\n        /* \"#utility.yul\":7411:7502   */\n      tag_169\n        /* \"#utility.yul\":7460:7501   */\n      tag_170\n        /* \"#utility.yul\":7484:7500   */\n      dup3\n        /* \"#utility.yul\":7460:7501   */\n      tag_80\n      jump\t// in\n    tag_170:\n        /* \"#utility.yul\":7452:7458   */\n      dup5\n        /* \"#utility.yul\":7445:7449   */\n      dup5\n        /* \"#utility.yul\":7439:7450   */\n      sload\n        /* \"#utility.yul\":7411:7502   */\n      tag_77\n      jump\t// in\n    tag_169:\n        /* \"#utility.yul\":7405:7409   */\n      dup3\n        /* \"#utility.yul\":7398:7503   */\n      sstore\n        /* \"#utility.yul\":7316:7509   */\n      pop\n        /* \"#utility.yul\":7240:7509   */\n      pop\n      pop\n      pop\n      jump\t// out\n        /* \"#utility.yul\":7515:7588   */\n    tag_82:\n        /* \"#utility.yul\":7560:7563   */\n      0x00\n        /* \"#utility.yul\":7515:7588   */\n      swap1\n      jump\t// out\n        /* \"#utility.yul\":7594:7783   */\n    tag_83:\n        /* \"#utility.yul\":7671:7703   */\n      tag_173\n      tag_82\n      jump\t// in\n    tag_173:\n        /* \"#utility.yul\":7712:7777   */\n      tag_174\n        /* \"#utility.yul\":7770:7776   */\n      dup2\n        /* \"#utility.yul\":7762:7768   */\n      dup5\n        /* \"#utility.yul\":7756:7760   */\n      dup5\n        /* \"#utility.yul\":7712:7777   */\n      tag_81\n      jump\t// in\n    tag_174:\n        /* \"#utility.yul\":7647:7783   */\n      pop\n        /* \"#utility.yul\":7594:7783   */\n      pop\n      pop\n      jump\t// out\n        /* \"#utility.yul\":7789:7975   */\n    tag_84:\n        /* \"#utility.yul\":7849:7969   */\n    tag_176:\n        /* \"#utility.yul\":7866:7869   */\n      dup2\n        /* \"#utility.yul\":7859:7864   */\n      dup2\n        /* \"#utility.yul\":7856:7870   */\n      lt\n        /* \"#utility.yul\":7849:7969   */\n      iszero\n      tag_178\n      jumpi\n        /* \"#utility.yul\":7920:7959   */\n      tag_179\n        /* \"#utility.yul\":7957:7958   */\n      0x00\n        /* \"#utility.yul\":7950:7955   */\n      dup3\n        /* \"#utility.yul\":7920:7959   */\n      tag_83\n      jump\t// in\n    tag_179:\n        /* \"#utility.yul\":7893:7894   */\n      0x01\n        /* \"#utility.yul\":7886:7891   */\n      dup2\n        /* \"#utility.yul\":7882:7895   */\n      add\n        /* \"#utility.yul\":7873:7895   */\n      swap1\n      pop\n        /* \"#utility.yul\":7849:7969   */\n      jump(tag_176)\n    tag_178:\n        /* \"#utility.yul\":7789:7975   */\n      pop\n      pop\n      jump\t// out\n        /* \"#utility.yul\":7981:8524   */\n    tag_85:\n        /* \"#utility.yul\":8082:8084   */\n      0x1f\n        /* \"#utility.yul\":8077:8080   */\n      dup3\n        /* \"#utility.yul\":8074:8085   */\n      gt\n        /* \"#utility.yul\":8071:8517   */\n      iszero\n      tag_181\n      jumpi\n        /* \"#utility.yul\":8116:8154   */\n      tag_182\n        /* \"#utility.yul\":8148:8153   */\n      dup2\n        /* \"#utility.yul\":8116:8154   */\n      tag_74\n      jump\t// in\n    tag_182:\n        /* \"#utility.yul\":8200:8229   */\n      tag_183\n        /* \"#utility.yul\":8218:8228   */\n      dup5\n        /* \"#utility.yul\":8200:8229   */\n      tag_75\n      jump\t// in\n    tag_183:\n        /* \"#utility.yul\":8190:8198   */\n      dup2\n        /* \"#utility.yul\":8186:8230   */\n      add\n        /* \"#utility.yul\":8383:8385   */\n      0x20\n        /* \"#utility.yul\":8371:8381   */\n      dup6\n        /* \"#utility.yul\":8368:8386   */\n      lt\n        /* \"#utility.yul\":8365:8414   */\n      iszero\n      tag_184\n      jumpi\n        /* \"#utility.yul\":8404:8412   */\n      dup2\n        /* \"#utility.yul\":8389:8412   */\n      swap1\n      pop\n        /* \"#utility.yul\":8365:8414   */\n    tag_184:\n        /* \"#utility.yul\":8427:8507   */\n      tag_185\n        /* \"#utility.yul\":8483:8505   */\n      tag_186\n        /* \"#utility.yul\":8501:8504   */\n      dup6\n        /* \"#utility.yul\":8483:8505   */\n      tag_75\n      jump\t// in\n    tag_186:\n        /* \"#utility.yul\":8473:8481   */\n      dup4\n        /* \"#utility.yul\":8469:8506   */\n      add\n        /* \"#utility.yul\":8456:8467   */\n      dup3\n        /* \"#utility.yul\":8427:8507   */\n      tag_84\n      jump\t// in\n    tag_185:\n        /* \"#utility.yul\":8086:8517   */\n      pop\n      pop\n        /* \"#utility.yul\":8071:8517   */\n    tag_181:\n        /* \"#utility.yul\":7981:8524   */\n      pop\n      pop\n      pop\n      jump\t// out\n        /* \"#utility.yul\":8530:8647   */\n    tag_86:\n        /* \"#utility.yul\":8584:8592   */\n      0x00\n        /* \"#utility.yul\":8634:8639   */\n      dup3\n        /* \"#utility.yul\":8628:8632   */\n      dup3\n        /* \"#utility.yul\":8624:8640   */\n      shr\n        /* \"#utility.yul\":8603:8640   */\n      swap1\n      pop\n        /* \"#utility.yul\":8530:8647   */\n      swap3\n      swap2\n      pop\n      pop\n      jump\t// out\n        /* \"#utility.yul\":8653:8822   */\n    tag_87:\n        /* \"#utility.yul\":8697:8703   */\n      0x00\n        /* \"#utility.yul\":8730:8781   */\n      tag_189\n        /* \"#utility.yul\":8778:8779   */\n      0x00\n        /* \"#utility.yul\":8774:8780   */\n      not\n        /* \"#utility.yul\":8766:8771   */\n      dup5\n        /* \"#utility.yul\":8763:8764   */\n      0x08\n        /* \"#utility.yul\":8759:8772   */\n      mul\n        /* \"#utility.yul\":8730:8781   */\n      tag_86\n      jump\t// in\n    tag_189:\n        /* \"#utility.yul\":8726:8782   */\n      not\n        /* \"#utility.yul\":8811:8815   */\n      dup1\n        /* \"#utility.yul\":8805:8809   */\n      dup4\n        /* \"#utility.yul\":8801:8816   */\n      and\n        /* \"#utility.yul\":8791:8816   */\n      swap2\n      pop\n        /* \"#utility.yul\":8704:8822   */\n      pop\n        /* \"#utility.yul\":8653:8822   */\n      swap3\n      swap2\n      pop\n      pop\n      jump\t// out\n        /* \"#utility.yul\":8827:9122   */\n    tag_88:\n        /* \"#utility.yul\":8903:8907   */\n      0x00\n        /* \"#utility.yul\":9049:9078   */\n      tag_191\n        /* \"#utility.yul\":9074:9077   */\n      dup4\n        /* \"#utility.yul\":9068:9072   */\n      dup4\n        /* \"#utility.yul\":9049:9078   */\n      tag_87\n      jump\t// in\n    tag_191:\n        /* \"#utility.yul\":9041:9078   */\n      swap2\n      pop\n        /* \"#utility.yul\":9111:9114   */\n      dup3\n        /* \"#utility.yul\":9108:9109   */\n      0x02\n        /* \"#utility.yul\":9104:9115   */\n      mul\n        /* \"#utility.yul\":9098:9102   */\n      dup3\n        /* \"#utility.yul\":9095:9116   */\n      or\n        /* \"#utility.yul\":9087:9116   */\n      swap1\n      pop\n        /* \"#utility.yul\":8827:9122   */\n      swap3\n      swap2\n      pop\n      pop\n      jump\t// out\n        /* \"#utility.yul\":9127:10530   */\n    tag_42:\n        /* \"#utility.yul\":9251:9295   */\n      tag_193\n        /* \"#utility.yul\":9291:9294   */\n      dup4\n        /* \"#utility.yul\":9286:9289   */\n      dup4\n        /* \"#utility.yul\":9251:9295   */\n      tag_72\n      jump\t// in\n    tag_193:\n        /* \"#utility.yul\":9360:9378   */\n      0xffffffffffffffff\n        /* \"#utility.yul\":9352:9358   */\n      dup2\n        /* \"#utility.yul\":9349:9379   */\n      gt\n        /* \"#utility.yul\":9346:9402   */\n      iszero\n      tag_194\n      jumpi\n        /* \"#utility.yul\":9382:9400   */\n      tag_195\n      tag_73\n      jump\t// in\n    tag_195:\n        /* \"#utility.yul\":9346:9402   */\n    tag_194:\n        /* \"#utility.yul\":9426:9464   */\n      tag_196\n        /* \"#utility.yul\":9458:9462   */\n      dup3\n        /* \"#utility.yul\":9452:9463   */\n      sload\n        /* \"#utility.yul\":9426:9464   */\n      tag_32\n      jump\t// in\n    tag_196:\n        /* \"#utility.yul\":9511:9578   */\n      tag_197\n        /* \"#utility.yul\":9571:9577   */\n      dup3\n        /* \"#utility.yul\":9563:9569   */\n      dup3\n        /* \"#utility.yul\":9557:9561   */\n      dup6\n        /* \"#utility.yul\":9511:9578   */\n      tag_85\n      jump\t// in\n    tag_197:\n        /* \"#utility.yul\":9605:9606   */\n      0x00\n        /* \"#utility.yul\":9634:9636   */\n      0x1f\n        /* \"#utility.yul\":9626:9632   */\n      dup4\n        /* \"#utility.yul\":9623:9637   */\n      gt\n        /* \"#utility.yul\":9651:9652   */\n      0x01\n        /* \"#utility.yul\":9646:10278   */\n      dup2\n      eq\n      tag_199\n      jumpi\n        /* \"#utility.yul\":10322:10323   */\n      0x00\n        /* \"#utility.yul\":10339:10345   */\n      dup5\n        /* \"#utility.yul\":10336:10420   */\n      iszero\n      tag_200\n      jumpi\n        /* \"#utility.yul\":10395:10404   */\n      dup3\n        /* \"#utility.yul\":10390:10393   */\n      dup8\n        /* \"#utility.yul\":10386:10405   */\n      add\n        /* \"#utility.yul\":10373:10406   */\n      calldataload\n        /* \"#utility.yul\":10364:10406   */\n      swap1\n      pop\n        /* \"#utility.yul\":10336:10420   */\n    tag_200:\n        /* \"#utility.yul\":10446:10513   */\n      tag_201\n        /* \"#utility.yul\":10506:10512   */\n      dup6\n        /* \"#utility.yul\":10499:10504   */\n      dup3\n        /* \"#utility.yul\":10446:10513   */\n      tag_88\n      jump\t// in\n    tag_201:\n        /* \"#utility.yul\":10440:10444   */\n      dup7\n        /* \"#utility.yul\":10433:10514   */\n      sstore\n        /* \"#utility.yul\":10295:10524   */\n      pop\n        /* \"#utility.yul\":9616:10524   */\n      jump(tag_198)\n        /* \"#utility.yul\":9646:10278   */\n    tag_199:\n        /* \"#utility.yul\":9698:9702   */\n      0x1f\n        /* \"#utility.yul\":9694:9703   */\n      not\n        /* \"#utility.yul\":9686:9692   */\n      dup5\n        /* \"#utility.yul\":9682:9704   */\n      and\n        /* \"#utility.yul\":9732:9769   */\n      tag_202\n        /* \"#utility.yul\":9764:9768   */\n      dup7\n        /* \"#utility.yul\":9732:9769   */\n      tag_74\n      jump\t// in\n    tag_202:\n        /* \"#utility.yul\":9791:9792   */\n      0x00\n        /* \"#utility.yul\":9805:10020   */\n    tag_203:\n        /* \"#utility.yul\":9819:9826   */\n      dup3\n        /* \"#utility.yul\":9816:9817   */\n      dup2\n        /* \"#utility.yul\":9813:9827   */\n      lt\n        /* \"#utility.yul\":9805:10020   */\n      iszero\n      tag_205\n      jumpi\n        /* \"#utility.yul\":9905:9914   */\n      dup5\n        /* \"#utility.yul\":9900:9903   */\n      dup10\n        /* \"#utility.yul\":9896:9915   */\n      add\n        /* \"#utility.yul\":9883:9916   */\n      calldataload\n        /* \"#utility.yul\":9875:9881   */\n      dup3\n        /* \"#utility.yul\":9868:9917   */\n      sstore\n        /* \"#utility.yul\":9956:9957   */\n      0x01\n        /* \"#utility.yul\":9948:9954   */\n      dup3\n        /* \"#utility.yul\":9944:9958   */\n      add\n        /* \"#utility.yul\":9934:9958   */\n      swap2\n      pop\n        /* \"#utility.yul\":10003:10005   */\n      0x20\n        /* \"#utility.yul\":9992:10001   */\n      dup6\n        /* \"#utility.yul\":9988:10006   */\n      add\n        /* \"#utility.yul\":9975:10006   */\n      swap5\n      pop\n        /* \"#utility.yul\":9842:9846   */\n      0x20\n        /* \"#utility.yul\":9839:9840   */\n      dup2\n        /* \"#utility.yul\":9835:9847   */\n      add\n        /* \"#utility.yul\":9830:9847   */\n      swap1\n      pop\n        /* \"#utility.yul\":9805:10020   */\n      jump(tag_203)\n    tag_205:\n        /* \"#utility.yul\":10048:10054   */\n      dup7\n        /* \"#utility.yul\":10039:10046   */\n      dup4\n        /* \"#utility.yul\":10036:10055   */\n      lt\n        /* \"#utility.yul\":10033:10219   */\n      iszero\n      tag_206\n      jumpi\n        /* \"#utility.yul\":10113:10122   */\n      dup5\n        /* \"#utility.yul\":10108:10111   */\n      dup10\n        /* \"#utility.yul\":10104:10123   */\n      add\n        /* \"#utility.yul\":10091:10124   */\n      calldataload\n        /* \"#utility.yul\":10156:10204   */\n      tag_207\n        /* \"#utility.yul\":10198:10202   */\n      0x1f\n        /* \"#utility.yul\":10190:10196   */\n      dup10\n        /* \"#utility.yul\":10186:10203   */\n      and\n        /* \"#utility.yul\":10175:10184   */\n      dup3\n        /* \"#utility.yul\":10156:10204   */\n      tag_87\n      jump\t// in\n    tag_207:\n        /* \"#utility.yul\":10148:10154   */\n      dup4\n        /* \"#utility.yul\":10141:10205   */\n      sstore\n        /* \"#utility.yul\":10056:10219   */\n      pop\n        /* \"#utility.yul\":10033:10219   */\n    tag_206:\n        /* \"#utility.yul\":10265:10266   */\n      0x01\n        /* \"#utility.yul\":10261:10262   */\n      0x02\n        /* \"#utility.yul\":10253:10259   */\n      dup9\n        /* \"#utility.yul\":10249:10263   */\n      mul\n        /* \"#utility.yul\":10245:10267   */\n      add\n        /* \"#utility.yul\":10239:10243   */\n      dup9\n        /* \"#utility.yul\":10232:10268   */\n      sstore\n        /* \"#utility.yul\":9653:10278   */\n      pop\n      pop\n      pop\n        /* \"#utility.yul\":9616:10524   */\n    tag_198:\n      pop\n        /* \"#utility.yul\":9226:10530   */\n      pop\n      pop\n      pop\n        /* \"#utility.yul\":9127:10530   */\n      pop\n      pop\n      pop\n      jump\t// out\n        /* \"#utility.yul\":10536:11931   */\n    tag_46:\n        /* \"#utility.yul\":10653:10690   */\n      tag_209\n        /* \"#utility.yul\":10686:10689   */\n      dup3\n        /* \"#utility.yul\":10653:10690   */\n      tag_60\n      jump\t// in\n    tag_209:\n        /* \"#utility.yul\":10755:10773   */\n      0xffffffffffffffff\n        /* \"#utility.yul\":10747:10753   */\n      dup2\n        /* \"#utility.yul\":10744:10774   */\n      gt\n        /* \"#utility.yul\":10741:10797   */\n      iszero\n      tag_210\n      jumpi\n        /* \"#utility.yul\":10777:10795   */\n      tag_211\n      tag_73\n      jump\t// in\n    tag_211:\n        /* \"#utility.yul\":10741:10797   */\n    tag_210:\n        /* \"#utility.yul\":10821:10859   */\n      tag_212\n        /* \"#utility.yul\":10853:10857   */\n      dup3\n        /* \"#utility.yul\":10847:10858   */\n      sload\n        /* \"#utility.yul\":10821:10859   */\n      tag_32\n      jump\t// in\n    tag_212:\n        /* \"#utility.yul\":10906:10973   */\n      tag_213\n        /* \"#utility.yul\":10966:10972   */\n      dup3\n        /* \"#utility.yul\":10958:10964   */\n      dup3\n        /* \"#utility.yul\":10952:10956   */\n      dup6\n        /* \"#utility.yul\":10906:10973   */\n      tag_85\n      jump\t// in\n    tag_213:\n        /* \"#utility.yul\":11000:11001   */\n      0x00\n        /* \"#utility.yul\":11024:11028   */\n      0x20\n        /* \"#utility.yul\":11011:11028   */\n      swap1\n      pop\n        /* \"#utility.yul\":11056:11058   */\n      0x1f\n        /* \"#utility.yul\":11048:11054   */\n      dup4\n        /* \"#utility.yul\":11045:11059   */\n      gt\n        /* \"#utility.yul\":11073:11074   */\n      0x01\n        /* \"#utility.yul\":11068:11686   */\n      dup2\n      eq\n      tag_215\n      jumpi\n        /* \"#utility.yul\":11730:11731   */\n      0x00\n        /* \"#utility.yul\":11747:11753   */\n      dup5\n        /* \"#utility.yul\":11744:11821   */\n      iszero\n      tag_216\n      jumpi\n        /* \"#utility.yul\":11796:11805   */\n      dup3\n        /* \"#utility.yul\":11791:11794   */\n      dup8\n        /* \"#utility.yul\":11787:11806   */\n      add\n        /* \"#utility.yul\":11781:11807   */\n      mload\n        /* \"#utility.yul\":11772:11807   */\n      swap1\n      pop\n        /* \"#utility.yul\":11744:11821   */\n    tag_216:\n        /* \"#utility.yul\":11847:11914   */\n      tag_217\n        /* \"#utility.yul\":11907:11913   */\n      dup6\n        /* \"#utility.yul\":11900:11905   */\n      dup3\n        /* \"#utility.yul\":11847:11914   */\n      tag_88\n      jump\t// in\n    tag_217:\n        /* \"#utility.yul\":11841:11845   */\n      dup7\n        /* \"#utility.yul\":11834:11915   */\n      sstore\n        /* \"#utility.yul\":11703:11925   */\n      pop\n        /* \"#utility.yul\":11038:11925   */\n      jump(tag_214)\n        /* \"#utility.yul\":11068:11686   */\n    tag_215:\n        /* \"#utility.yul\":11120:11124   */\n      0x1f\n        /* \"#utility.yul\":11116:11125   */\n      not\n        /* \"#utility.yul\":11108:11114   */\n      dup5\n        /* \"#utility.yul\":11104:11126   */\n      and\n        /* \"#utility.yul\":11154:11191   */\n      tag_218\n        /* \"#utility.yul\":11186:11190   */\n      dup7\n        /* \"#utility.yul\":11154:11191   */\n      tag_74\n      jump\t// in\n    tag_218:\n        /* \"#utility.yul\":11213:11214   */\n      0x00\n        /* \"#utility.yul\":11227:11435   */\n    tag_219:\n        /* \"#utility.yul\":11241:11248   */\n      dup3\n        /* \"#utility.yul\":11238:11239   */\n      dup2\n        /* \"#utility.yul\":11235:11249   */\n      lt\n        /* \"#utility.yul\":11227:11435   */\n      iszero\n      tag_221\n      jumpi\n        /* \"#utility.yul\":11320:11329   */\n      dup5\n        /* \"#utility.yul\":11315:11318   */\n      dup10\n        /* \"#utility.yul\":11311:11330   */\n      add\n        /* \"#utility.yul\":11305:11331   */\n      mload\n        /* \"#utility.yul\":11297:11303   */\n      dup3\n        /* \"#utility.yul\":11290:11332   */\n      sstore\n        /* \"#utility.yul\":11371:11372   */\n      0x01\n        /* \"#utility.yul\":11363:11369   */\n      dup3\n        /* \"#utility.yul\":11359:11373   */\n      add\n        /* \"#utility.yul\":11349:11373   */\n      swap2\n      pop\n        /* \"#utility.yul\":11418:11420   */\n      0x20\n        /* \"#utility.yul\":11407:11416   */\n      dup6\n        /* \"#utility.yul\":11403:11421   */\n      add\n        /* \"#utility.yul\":11390:11421   */\n      swap5\n      pop\n        /* \"#utility.yul\":11264:11268   */\n      0x20\n        /* \"#utility.yul\":11261:11262   */\n      dup2\n        /* \"#utility.yul\":11257:11269   */\n      add\n        /* \"#utility.yul\":11252:11269   */\n      swap1\n      pop\n        /* \"#utility.yul\":11227:11435   */\n      jump(tag_219)\n    tag_221:\n        /* \"#utility.yul\":11463:11469   */\n      dup7\n        /* \"#utility.yul\":11454:11461   */\n      dup4\n        /* \"#utility.yul\":11451:11470   */\n      lt\n        /* \"#utility.yul\":11448:11627   */\n      iszero\n      tag_222\n      jumpi\n        /* \"#utility.yul\":11521:11530   */\n      dup5\n        /* \"#utility.yul\":11516:11519   */\n      dup10\n        /* \"#utility.yul\":11512:11531   */\n      add\n        /* \"#utility.yul\":11506:11532   */\n      mload\n        /* \"#utility.yul\":11564:11612   */\n      tag_223\n        /* \"#utility.yul\":11606:11610   */\n      0x1f\n        /* \"#utility.yul\":11598:11604   */\n      dup10\n        /* \"#utility.yul\":11594:11611   */\n      and\n        /* \"#utility.yul\":11583:11592   */\n      dup3\n        /* \"#utility.yul\":11564:11612   */\n      tag_87\n      jump\t// in\n    tag_223:\n        /* \"#utility.yul\":11556:11562   */\n      dup4\n        /* \"#utility.yul\":11549:11613   */\n      sstore\n        /* \"#utility.yul\":11471:11627   */\n      pop\n        /* \"#utility.yul\":11448:11627   */\n    tag_222:\n        /* \"#utility.yul\":11673:11674   */\n      0x01\n        /* \"#utility.yul\":11669:11670   */\n      0x02\n        /* \"#utility.yul\":11661:11667   */\n      dup9\n        /* \"#utility.yul\":11657:11671   */\n      mul\n        /* \"#utility.yul\":11653:11675   */\n      add\n        /* \"#utility.yul\":11647:11651   */\n      dup9\n        /* \"#utility.yul\":11640:11676   */\n      sstore\n        /* \"#utility.yul\":11075:11686   */\n      pop\n      pop\n      pop\n        /* \"#utility.yul\":11038:11925   */\n    tag_214:\n      pop\n        /* \"#utility.yul\":10628:11931   */\n      pop\n      pop\n      pop\n        /* \"#utility.yul\":10536:11931   */\n      pop\n      pop\n      jump\t// out\n\n    auxdata: 0xa2646970667358221220528faa1b3979c5d87c0532d57768ee987b8aab0e8305c56cd326ba23b48ac29464736f6c634300080f0033\n}\n",
				"bytecode": {
					"linkReferences": {},
					"object": "608060405234801561001057600080fd5b50610a43806100206000396000f3fe608060405234801561001057600080fd5b506004361061004c5760003560e01c80630178fe3f1461005157806389a8e2a714610081578063b6a46b3b1461009d578063bc8bc2b4146100b9575b600080fd5b61006b600480360381019061006691906103b1565b6100ea565b6040516100789190610477565b60405180910390f35b61009b600480360381019061009691906104fe565b6101a6565b005b6100b760048036038101906100b2919061055e565b6101e5565b005b6100d360048036038101906100ce91906103b1565b6102a8565b6040516100e19291906105c6565b60405180910390f35b60606000808381548110610101576101006105f6565b5b9060005260206000209060020201905080600001805461012090610654565b80601f016020809104026020016040519081016040528092919081815260200182805461014c90610654565b80156101995780601f1061016e57610100808354040283529160200191610199565b820191906000526020600020905b81548152906001019060200180831161017c57829003601f168201915b5050505050915050919050565b60008084815481106101bb576101ba6105f6565b5b9060005260206000209060020201905082828260000191826101de92919061086b565b5050505050565b6000604051806040016040528084848080601f016020809104026020016040519081016040528093929190818152602001838380828437600081840152601f19601f8201169050808301925050505050505081526020016000151581525090806001815401808255809150506001900390600052602060002090600202016000909190919091506000820151816000019081610281919061093b565b5060208201518160010160006101000a81548160ff02191690831515021790555050505050565b600081815481106102b857600080fd5b90600052602060002090600202016000915090508060000180546102db90610654565b80601f016020809104026020016040519081016040528092919081815260200182805461030790610654565b80156103545780601f1061032957610100808354040283529160200191610354565b820191906000526020600020905b81548152906001019060200180831161033757829003601f168201915b5050505050908060010160009054906101000a900460ff16905082565b600080fd5b600080fd5b6000819050919050565b61038e8161037b565b811461039957600080fd5b50565b6000813590506103ab81610385565b92915050565b6000602082840312156103c7576103c6610371565b5b60006103d58482850161039c565b91505092915050565b600081519050919050565b600082825260208201905092915050565b60005b838110156104185780820151818401526020810190506103fd565b83811115610427576000848401525b50505050565b6000601f19601f8301169050919050565b6000610449826103de565b61045381856103e9565b93506104638185602086016103fa565b61046c8161042d565b840191505092915050565b60006020820190508181036000830152610491818461043e565b905092915050565b600080fd5b600080fd5b600080fd5b60008083601f8401126104be576104bd610499565b5b8235905067ffffffffffffffff8111156104db576104da61049e565b5b6020830191508360018202830111156104f7576104f66104a3565b5b9250929050565b60008060006040848603121561051757610516610371565b5b60006105258682870161039c565b935050602084013567ffffffffffffffff81111561054657610545610376565b5b610552868287016104a8565b92509250509250925092565b6000806020838503121561057557610574610371565b5b600083013567ffffffffffffffff81111561059357610592610376565b5b61059f858286016104a8565b92509250509250929050565b60008115159050919050565b6105c0816105ab565b82525050565b600060408201905081810360008301526105e0818561043e565b90506105ef60208301846105b7565b9392505050565b7f4e487b7100000000000000000000000000000000000000000000000000000000600052603260045260246000fd5b7f4e487b7100000000000000000000000000000000000000000000000000000000600052602260045260246000fd5b6000600282049050600182168061066c57607f821691505b60208210810361067f5761067e610625565b5b50919050565b600082905092915050565b7f4e487b7100000000000000000000000000000000000000000000000000000000600052604160045260246000fd5b60008190508160005260206000209050919050565b60006020601f8301049050919050565b600082821b905092915050565b6000600883026107217fffffffffffffffffffffffffffffffffffffffffffffffffffffffffffffffff826106e4565b61072b86836106e4565b95508019841693508086168417925050509392505050565b6000819050919050565b600061076861076361075e8461037b565b610743565b61037b565b9050919050565b6000819050919050565b6107828361074d565b61079661078e8261076f565b8484546106f1565b825550505050565b600090565b6107ab61079e565b6107b6818484610779565b505050565b5b818110156107da576107cf6000826107a3565b6001810190506107bc565b5050565b601f82111561081f576107f0816106bf565b6107f9846106d4565b81016020851015610808578190505b61081c610814856106d4565b8301826107bb565b50505b505050565b600082821c905092915050565b600061084260001984600802610824565b1980831691505092915050565b600061085b8383610831565b9150826002028217905092915050565b6108758383610685565b67ffffffffffffffff81111561088e5761088d610690565b5b6108988254610654565b6108a38282856107de565b6000601f8311600181146108d257600084156108c0578287013590505b6108ca858261084f565b865550610932565b601f1984166108e0866106bf565b60005b82811015610908578489013582556001820191506020850194506020810190506108e3565b868310156109255784890135610921601f891682610831565b8355505b6001600288020188555050505b50505050505050565b610944826103de565b67ffffffffffffffff81111561095d5761095c610690565b5b6109678254610654565b6109728282856107de565b600060209050601f8311600181146109a55760008415610993578287015190505b61099d858261084f565b865550610a05565b601f1984166109b3866106bf565b60005b828110156109db578489015182556001820191506020850194506020810190506109b6565b868310156109f857848901516109f4601f891682610831565b8355505b6001600288020188555050505b50505050505056fea2646970667358221220528faa1b3979c5d87c0532d57768ee987b8aab0e8305c56cd326ba23b48ac29464736f6c634300080f0033",
					"opcodes": "PUSH1 0x80 PUSH1 0x40 MSTORE CALLVALUE DUP1 ISZERO PUSH2 0x10 JUMPI PUSH1 0x0 DUP1 REVERT JUMPDEST POP PUSH2 0xA43 DUP1 PUSH2 0x20 PUSH1 0x0 CODECOPY PUSH1 0x0 RETURN INVALID PUSH1 0x80 PUSH1 0x40 MSTORE CALLVALUE DUP1 ISZERO PUSH2 0x10 JUMPI PUSH1 0x0 DUP1 REVERT JUMPDEST POP PUSH1 0x4 CALLDATASIZE LT PUSH2 0x4C JUMPI PUSH1 0x0 CALLDATALOAD PUSH1 0xE0 SHR DUP1 PUSH4 0x178FE3F EQ PUSH2 0x51 JUMPI DUP1 PUSH4 0x89A8E2A7 EQ PUSH2 0x81 JUMPI DUP1 PUSH4 0xB6A46B3B EQ PUSH2 0x9D JUMPI DUP1 PUSH4 0xBC8BC2B4 EQ PUSH2 0xB9 JUMPI JUMPDEST PUSH1 0x0 DUP1 REVERT JUMPDEST PUSH2 0x6B PUSH1 0x4 DUP1 CALLDATASIZE SUB DUP2 ADD SWAP1 PUSH2 0x66 SWAP2 SWAP1 PUSH2 0x3B1 JUMP JUMPDEST PUSH2 0xEA JUMP JUMPDEST PUSH1 0x40 MLOAD PUSH2 0x78 SWAP2 SWAP1 PUSH2 0x477 JUMP JUMPDEST PUSH1 0x40 MLOAD DUP1 SWAP2 SUB SWAP1 RETURN JUMPDEST PUSH2 0x9B PUSH1 0x4 DUP1 CALLDATASIZE SUB DUP2 ADD SWAP1 PUSH2 0x96 SWAP2 SWAP1 PUSH2 0x4FE JUMP JUMPDEST PUSH2 0x1A6 JUMP JUMPDEST STOP JUMPDEST PUSH2 0xB7 PUSH1 0x4 DUP1 CALLDATASIZE SUB DUP2 ADD SWAP1 PUSH2 0xB2 SWAP2 SWAP1 PUSH2 0x55E JUMP JUMPDEST PUSH2 0x1E5 JUMP JUMPDEST STOP JUMPDEST PUSH2 0xD3 PUSH1 0x4 DUP1 CALLDATASIZE SUB DUP2 ADD SWAP1 PUSH2 0xCE SWAP2 SWAP1 PUSH2 0x3B1 JUMP JUMPDEST PUSH2 0x2A8 JUMP JUMPDEST PUSH1 0x40 MLOAD PUSH2 0xE1 SWAP3 SWAP2 SWAP1 PUSH2 0x5C6 JUMP JUMPDEST PUSH1 0x40 MLOAD DUP1 SWAP2 SUB SWAP1 RETURN JUMPDEST PUSH1 0x60 PUSH1 0x0 DUP1 DUP4 DUP2 SLOAD DUP2 LT PUSH2 0x101 JUMPI PUSH2 0x100 PUSH2 0x5F6 JUMP JUMPDEST JUMPDEST SWAP1 PUSH1 0x0 MSTORE PUSH1 0x20 PUSH1 0x0 KECCAK256 SWAP1 PUSH1 0x2 MUL ADD SWAP1 POP DUP1 PUSH1 0x0 ADD DUP1 SLOAD PUSH2 0x120 SWAP1 PUSH2 0x654 JUMP JUMPDEST DUP1 PUSH1 0x1F ADD PUSH1 0x20 DUP1 SWAP2 DIV MUL PUSH1 0x20 ADD PUSH1 0x40 MLOAD SWAP1 DUP2 ADD PUSH1 0x40 MSTORE DUP1 SWAP3 SWAP2 SWAP1 DUP2 DUP2 MSTORE PUSH1 0x20 ADD DUP3 DUP1 SLOAD PUSH2 0x14C SWAP1 PUSH2 0x654 JUMP JUMPDEST DUP1 ISZERO PUSH2 0x199 JUMPI DUP1 PUSH1 0x1F LT PUSH2 0x16E JUMPI PUSH2 0x100 DUP1 DUP4 SLOAD DIV MUL DUP4 MSTORE SWAP2 PUSH1 0x20 ADD SWAP2 PUSH2 0x199 JUMP JUMPDEST DUP3 ADD SWAP2 SWAP1 PUSH1 0x0 MSTORE PUSH1 0x20 PUSH1 0x0 KECCAK256 SWAP1 JUMPDEST DUP2 SLOAD DUP2 MSTORE SWAP1 PUSH1 0x1 ADD SWAP1 PUSH1 0x20 ADD DUP1 DUP4 GT PUSH2 0x17C JUMPI DUP3 SWAP1 SUB PUSH1 0x1F AND DUP3 ADD SWAP2 JUMPDEST POP POP POP POP POP SWAP2 POP POP SWAP2 SWAP1 POP JUMP JUMPDEST PUSH1 0x0 DUP1 DUP5 DUP2 SLOAD DUP2 LT PUSH2 0x1BB JUMPI PUSH2 0x1BA PUSH2 0x5F6 JUMP JUMPDEST JUMPDEST SWAP1 PUSH1 0x0 MSTORE PUSH1 0x20 PUSH1 0x0 KECCAK256 SWAP1 PUSH1 0x2 MUL ADD SWAP1 POP DUP3 DUP3 DUP3 PUSH1 0x0 ADD SWAP2 DUP3 PUSH2 0x1DE SWAP3 SWAP2 SWAP1 PUSH2 0x86B JUMP JUMPDEST POP POP POP POP POP JUMP JUMPDEST PUSH1 0x0 PUSH1 0x40 MLOAD DUP1 PUSH1 0x40 ADD PUSH1 0x40 MSTORE DUP1 DUP5 DUP5 DUP1 DUP1 PUSH1 0x1F ADD PUSH1 0x20 DUP1 SWAP2 DIV MUL PUSH1 0x20 ADD PUSH1 0x40 MLOAD SWAP1 DUP2 ADD PUSH1 0x40 MSTORE DUP1 SWAP4 SWAP3 SWAP2 SWAP1 DUP2 DUP2 MSTORE PUSH1 0x20 ADD DUP4 DUP4 DUP1 DUP3 DUP5 CALLDATACOPY PUSH1 0x0 DUP2 DUP5 ADD MSTORE PUSH1 0x1F NOT PUSH1 0x1F DUP3 ADD AND SWAP1 POP DUP1 DUP4 ADD SWAP3 POP POP POP POP POP POP POP DUP2 MSTORE PUSH1 0x20 ADD PUSH1 0x0 ISZERO ISZERO DUP2 MSTORE POP SWAP1 DUP1 PUSH1 0x1 DUP2 SLOAD ADD DUP1 DUP3 SSTORE DUP1 SWAP2 POP POP PUSH1 0x1 SWAP1 SUB SWAP1 PUSH1 0x0 MSTORE PUSH1 0x20 PUSH1 0x0 KECCAK256 SWAP1 PUSH1 0x2 MUL ADD PUSH1 0x0 SWAP1 SWAP2 SWAP1 SWAP2 SWAP1 SWAP2 POP PUSH1 0x0 DUP3 ADD MLOAD DUP2 PUSH1 0x0 ADD SWAP1 DUP2 PUSH2 0x281 SWAP2 SWAP1 PUSH2 0x93B JUMP JUMPDEST POP PUSH1 0x20 DUP3 ADD MLOAD DUP2 PUSH1 0x1 ADD PUSH1 0x0 PUSH2 0x100 EXP DUP2 SLOAD DUP2 PUSH1 0xFF MUL NOT AND SWAP1 DUP4 ISZERO ISZERO MUL OR SWAP1 SSTORE POP POP POP POP POP JUMP JUMPDEST PUSH1 0x0 DUP2 DUP2 SLOAD DUP2 LT PUSH2 0x2B8 JUMPI PUSH1 0x0 DUP1 REVERT JUMPDEST SWAP1 PUSH1 0x0 MSTORE PUSH1 0x20 PUSH1 0x0 KECCAK256 SWAP1 PUSH1 0x2 MUL ADD PUSH1 0x0 SWAP2 POP SWAP1 POP DUP1 PUSH1 0x0 ADD DUP1 SLOAD PUSH2 0x2DB SWAP1 PUSH2 0x654 JUMP JUMPDEST DUP1 PUSH1 0x1F ADD PUSH1 0x20 DUP1 SWAP2 DIV MUL PUSH1 0x20 ADD PUSH1 0x40 MLOAD SWAP1 DUP2 ADD PUSH1 0x40 MSTORE DUP1 SWAP3 SWAP2 SWAP1 DUP2 DUP2 MSTORE PUSH1 0x20 ADD DUP3 DUP1 SLOAD PUSH2 0x307 SWAP1 PUSH2 0x654 JUMP JUMPDEST DUP1 ISZERO PUSH2 0x354 JUMPI DUP1 PUSH1 0x1F LT PUSH2 0x329 JUMPI PUSH2 0x100 DUP1 DUP4 SLOAD DIV MUL DUP4 MSTORE SWAP2 PUSH1 0x20 ADD SWAP2 PUSH2 0x354 JUMP JUMPDEST DUP3 ADD SWAP2 SWAP1 PUSH1 0x0 MSTORE PUSH1 0x20 PUSH1 0x0 KECCAK256 SWAP1 JUMPDEST DUP2 SLOAD DUP2 MSTORE SWAP1 PUSH1 0x1 ADD SWAP1 PUSH1 0x20 ADD DUP1 DUP4 GT PUSH2 0x337 JUMPI DUP3 SWAP1 SUB PUSH1 0x1F AND DUP3 ADD SWAP2 JUMPDEST POP POP POP POP POP SWAP1 DUP1 PUSH1 0x1 ADD PUSH1 0x0 SWAP1 SLOAD SWAP1 PUSH2 0x100 EXP SWAP1 DIV PUSH1 0xFF AND SWAP1 POP DUP3 JUMP JUMPDEST PUSH1 0x0 DUP1 REVERT JUMPDEST PUSH1 0x0 DUP1 REVERT JUMPDEST PUSH1 0x0 DUP2 SWAP1 POP SWAP2 SWAP1 POP JUMP JUMPDEST PUSH2 0x38E DUP2 PUSH2 0x37B JUMP JUMPDEST DUP2 EQ PUSH2 0x399 JUMPI PUSH1 0x0 DUP1 REVERT JUMPDEST POP JUMP JUMPDEST PUSH1 0x0 DUP2 CALLDATALOAD SWAP1 POP PUSH2 0x3AB DUP2 PUSH2 0x385 JUMP JUMPDEST SWAP3 SWAP2 POP POP JUMP JUMPDEST PUSH1 0x0 PUSH1 0x20 DUP3 DUP5 SUB SLT ISZERO PUSH2 0x3C7 JUMPI PUSH2 0x3C6 PUSH2 0x371 JUMP JUMPDEST JUMPDEST PUSH1 0x0 PUSH2 0x3D5 DUP5 DUP3 DUP6 ADD PUSH2 0x39C JUMP JUMPDEST SWAP2 POP POP SWAP3 SWAP2 POP POP JUMP JUMPDEST PUSH1 0x0 DUP2 MLOAD SWAP1 POP SWAP2 SWAP1 POP JUMP JUMPDEST PUSH1 0x0 DUP3 DUP3 MSTORE PUSH1 0x20 DUP3 ADD SWAP1 POP SWAP3 SWAP2 POP POP JUMP JUMPDEST PUSH1 0x0 JUMPDEST DUP4 DUP2 LT ISZERO PUSH2 0x418 JUMPI DUP1 DUP3 ADD MLOAD DUP2 DUP5 ADD MSTORE PUSH1 0x20 DUP2 ADD SWAP1 POP PUSH2 0x3FD JUMP JUMPDEST DUP4 DUP2 GT ISZERO PUSH2 0x427 JUMPI PUSH1 0x0 DUP5 DUP5 ADD MSTORE JUMPDEST POP POP POP POP JUMP JUMPDEST PUSH1 0x0 PUSH1 0x1F NOT PUSH1 0x1F DUP4 ADD AND SWAP1 POP SWAP2 SWAP1 POP JUMP JUMPDEST PUSH1 0x0 PUSH2 0x449 DUP3 PUSH2 0x3DE JUMP JUMPDEST PUSH2 0x453 DUP2 DUP6 PUSH2 0x3E9 JUMP JUMPDEST SWAP4 POP PUSH2 0x463 DUP2 DUP6 PUSH1 0x20 DUP7 ADD PUSH2 0x3FA JUMP JUMPDEST PUSH2 0x46C DUP2 PUSH2 0x42D JUMP JUMPDEST DUP5 ADD SWAP2 POP POP SWAP3 SWAP2 POP POP JUMP JUMPDEST PUSH1 0x0 PUSH1 0x20 DUP3 ADD SWAP1 POP DUP2 DUP2 SUB PUSH1 0x0 DUP4 ADD MSTORE PUSH2 0x491 DUP2 DUP5 PUSH2 0x43E JUMP JUMPDEST SWAP1 POP SWAP3 SWAP2 POP POP JUMP JUMPDEST PUSH1 0x0 DUP1 REVERT JUMPDEST PUSH1 0x0 DUP1 REVERT JUMPDEST PUSH1 0x0 DUP1 REVERT JUMPDEST PUSH1 0x0 DUP1 DUP4 PUSH1 0x1F DUP5 ADD SLT PUSH2 0x4BE JUMPI PUSH2 0x4BD PUSH2 0x499 JUMP JUMPDEST JUMPDEST DUP3 CALLDATALOAD SWAP1 POP PUSH8 0xFFFFFFFFFFFFFFFF DUP2 GT ISZERO PUSH2 0x4DB JUMPI PUSH2 0x4DA PUSH2 0x49E JUMP JUMPDEST JUMPDEST PUSH1 0x20 DUP4 ADD SWAP2 POP DUP4 PUSH1 0x1 DUP3 MUL DUP4 ADD GT ISZERO PUSH2 0x4F7 JUMPI PUSH2 0x4F6 PUSH2 0x4A3 JUMP JUMPDEST JUMPDEST SWAP3 POP SWAP3 SWAP1 POP JUMP JUMPDEST PUSH1 0x0 DUP1 PUSH1 0x0 PUSH1 0x40 DUP5 DUP7 SUB SLT ISZERO PUSH2 0x517 JUMPI PUSH2 0x516 PUSH2 0x371 JUMP JUMPDEST JUMPDEST PUSH1 0x0 PUSH2 0x525 DUP7 DUP3 DUP8 ADD PUSH2 0x39C JUMP JUMPDEST SWAP4 POP POP PUSH1 0x20 DUP5 ADD CALLDATALOAD PUSH8 0xFFFFFFFFFFFFFFFF DUP2 GT ISZERO PUSH2 0x546 JUMPI PUSH2 0x545 PUSH2 0x376 JUMP JUMPDEST JUMPDEST PUSH2 0x552 DUP7 DUP3 DUP8 ADD PUSH2 0x4A8 JUMP JUMPDEST SWAP3 POP SWAP3 POP POP SWAP3 POP SWAP3 POP SWAP3 JUMP JUMPDEST PUSH1 0x0 DUP1 PUSH1 0x20 DUP4 DUP6 SUB SLT ISZERO PUSH2 0x575 JUMPI PUSH2 0x574 PUSH2 0x371 JUMP JUMPDEST JUMPDEST PUSH1 0x0 DUP4 ADD CALLDATALOAD PUSH8 0xFFFFFFFFFFFFFFFF DUP2 GT ISZERO PUSH2 0x593 JUMPI PUSH2 0x592 PUSH2 0x376 JUMP JUMPDEST JUMPDEST PUSH2 0x59F DUP6 DUP3 DUP7 ADD PUSH2 0x4A8 JUMP JUMPDEST SWAP3 POP SWAP3 POP POP SWAP3 POP SWAP3 SWAP1 POP JUMP JUMPDEST PUSH1 0x0 DUP2 ISZERO ISZERO SWAP1 POP SWAP2 SWAP1 POP JUMP JUMPDEST PUSH2 0x5C0 DUP2 PUSH2 0x5AB JUMP JUMPDEST DUP3 MSTORE POP POP JUMP JUMPDEST PUSH1 0x0 PUSH1 0x40 DUP3 ADD SWAP1 POP DUP2 DUP2 SUB PUSH1 0x0 DUP4 ADD MSTORE PUSH2 0x5E0 DUP2 DUP6 PUSH2 0x43E JUMP JUMPDEST SWAP1 POP PUSH2 0x5EF PUSH1 0x20 DUP4 ADD DUP5 PUSH2 0x5B7 JUMP JUMPDEST SWAP4 SWAP3 POP POP POP JUMP JUMPDEST PUSH32 0x4E487B7100000000000000000000000000000000000000000000000000000000 PUSH1 0x0 MSTORE PUSH1 0x32 PUSH1 0x4 MSTORE PUSH1 0x24 PUSH1 0x0 REVERT JUMPDEST PUSH32 0x4E487B7100000000000000000000000000000000000000000000000000000000 PUSH1 0x0 MSTORE PUSH1 0x22 PUSH1 0x4 MSTORE PUSH1 0x24 PUSH1 0x0 REVERT JUMPDEST PUSH1 0x0 PUSH1 0x2 DUP3 DIV SWAP1 POP PUSH1 0x1 DUP3 AND DUP1 PUSH2 0x66C JUMPI PUSH1 0x7F DUP3 AND SWAP2 POP JUMPDEST PUSH1 0x20 DUP3 LT DUP2 SUB PUSH2 0x67F JUMPI PUSH2 0x67E PUSH2 0x625 JUMP JUMPDEST JUMPDEST POP SWAP2 SWAP1 POP JUMP JUMPDEST PUSH1 0x0 DUP3 SWAP1 POP SWAP3 SWAP2 POP POP JUMP JUMPDEST PUSH32 0x4E487B7100000000000000000000000000000000000000000000000000000000 PUSH1 0x0 MSTORE PUSH1 0x41 PUSH1 0x4 MSTORE PUSH1 0x24 PUSH1 0x0 REVERT JUMPDEST PUSH1 0x0 DUP2 SWAP1 POP DUP2 PUSH1 0x0 MSTORE PUSH1 0x20 PUSH1 0x0 KECCAK256 SWAP1 POP SWAP2 SWAP1 POP JUMP JUMPDEST PUSH1 0x0 PUSH1 0x20 PUSH1 0x1F DUP4 ADD DIV SWAP1 POP SWAP2 SWAP1 POP JUMP JUMPDEST PUSH1 0x0 DUP3 DUP3 SHL SWAP1 POP SWAP3 SWAP2 POP POP JUMP JUMPDEST PUSH1 0x0 PUSH1 0x8 DUP4 MUL PUSH2 0x721 PUSH32 0xFFFFFFFFFFFFFFFFFFFFFFFFFFFFFFFFFFFFFFFFFFFFFFFFFFFFFFFFFFFFFFFF DUP3 PUSH2 0x6E4 JUMP JUMPDEST PUSH2 0x72B DUP7 DUP4 PUSH2 0x6E4 JUMP JUMPDEST SWAP6 POP DUP1 NOT DUP5 AND SWAP4 POP DUP1 DUP7 AND DUP5 OR SWAP3 POP POP POP SWAP4 SWAP3 POP POP POP JUMP JUMPDEST PUSH1 0x0 DUP2 SWAP1 POP SWAP2 SWAP1 POP JUMP JUMPDEST PUSH1 0x0 PUSH2 0x768 PUSH2 0x763 PUSH2 0x75E DUP5 PUSH2 0x37B JUMP JUMPDEST PUSH2 0x743 JUMP JUMPDEST PUSH2 0x37B JUMP JUMPDEST SWAP1 POP SWAP2 SWAP1 POP JUMP JUMPDEST PUSH1 0x0 DUP2 SWAP1 POP SWAP2 SWAP1 POP JUMP JUMPDEST PUSH2 0x782 DUP4 PUSH2 0x74D JUMP JUMPDEST PUSH2 0x796 PUSH2 0x78E DUP3 PUSH2 0x76F JUMP JUMPDEST DUP5 DUP5 SLOAD PUSH2 0x6F1 JUMP JUMPDEST DUP3 SSTORE POP POP POP POP JUMP JUMPDEST PUSH1 0x0 SWAP1 JUMP JUMPDEST PUSH2 0x7AB PUSH2 0x79E JUMP JUMPDEST PUSH2 0x7B6 DUP2 DUP5 DUP5 PUSH2 0x779 JUMP JUMPDEST POP POP POP JUMP JUMPDEST JUMPDEST DUP2 DUP2 LT ISZERO PUSH2 0x7DA JUMPI PUSH2 0x7CF PUSH1 0x0 DUP3 PUSH2 0x7A3 JUMP JUMPDEST PUSH1 0x1 DUP2 ADD SWAP1 POP PUSH2 0x7BC JUMP JUMPDEST POP POP JUMP JUMPDEST PUSH1 0x1F DUP3 GT ISZERO PUSH2 0x81F JUMPI PUSH2 0x7F0 DUP2 PUSH2 0x6BF JUMP JUMPDEST PUSH2 0x7F9 DUP5 PUSH2 0x6D4 JUMP JUMPDEST DUP2 ADD PUSH1 0x20 DUP6 LT ISZERO PUSH2 0x808 JUMPI DUP2 SWAP1 POP JUMPDEST PUSH2 0x81C PUSH2 0x814 DUP6 PUSH2 0x6D4 JUMP JUMPDEST DUP4 ADD DUP3 PUSH2 0x7BB JUMP JUMPDEST POP POP JUMPDEST POP POP POP JUMP JUMPDEST PUSH1 0x0 DUP3 DUP3 SHR SWAP1 POP SWAP3 SWAP2 POP POP JUMP JUMPDEST PUSH1 0x0 PUSH2 0x842 PUSH1 0x0 NOT DUP5 PUSH1 0x8 MUL PUSH2 0x824 JUMP JUMPDEST NOT DUP1 DUP4 AND SWAP2 POP POP SWAP3 SWAP2 POP POP JUMP JUMPDEST PUSH1 0x0 PUSH2 0x85B DUP4 DUP4 PUSH2 0x831 JUMP JUMPDEST SWAP2 POP DUP3 PUSH1 0x2 MUL DUP3 OR SWAP1 POP SWAP3 SWAP2 POP POP JUMP JUMPDEST PUSH2 0x875 DUP4 DUP4 PUSH2 0x685 JUMP JUMPDEST PUSH8 0xFFFFFFFFFFFFFFFF DUP2 GT ISZERO PUSH2 0x88E JUMPI PUSH2 0x88D PUSH2 0x690 JUMP JUMPDEST JUMPDEST PUSH2 0x898 DUP3 SLOAD PUSH2 0x654 JUMP JUMPDEST PUSH2 0x8A3 DUP3 DUP3 DUP6 PUSH2 0x7DE JUMP JUMPDEST PUSH1 0x0 PUSH1 0x1F DUP4 GT PUSH1 0x1 DUP2 EQ PUSH2 0x8D2 JUMPI PUSH1 0x0 DUP5 ISZERO PUSH2 0x8C0 JUMPI DUP3 DUP8 ADD CALLDATALOAD SWAP1 POP JUMPDEST PUSH2 0x8CA DUP6 DUP3 PUSH2 0x84F JUMP JUMPDEST DUP7 SSTORE POP PUSH2 0x932 JUMP JUMPDEST PUSH1 0x1F NOT DUP5 AND PUSH2 0x8E0 DUP7 PUSH2 0x6BF JUMP JUMPDEST PUSH1 0x0 JUMPDEST DUP3 DUP2 LT ISZERO PUSH2 0x908 JUMPI DUP5 DUP10 ADD CALLDATALOAD DUP3 SSTORE PUSH1 0x1 DUP3 ADD SWAP2 POP PUSH1 0x20 DUP6 ADD SWAP5 POP PUSH1 0x20 DUP2 ADD SWAP1 POP PUSH2 0x8E3 JUMP JUMPDEST DUP7 DUP4 LT ISZERO PUSH2 0x925 JUMPI DUP5 DUP10 ADD CALLDATALOAD PUSH2 0x921 PUSH1 0x1F DUP10 AND DUP3 PUSH2 0x831 JUMP JUMPDEST DUP4 SSTORE POP JUMPDEST PUSH1 0x1 PUSH1 0x2 DUP9 MUL ADD DUP9 SSTORE POP POP POP JUMPDEST POP POP POP POP POP POP POP JUMP JUMPDEST PUSH2 0x944 DUP3 PUSH2 0x3DE JUMP JUMPDEST PUSH8 0xFFFFFFFFFFFFFFFF DUP2 GT ISZERO PUSH2 0x95D JUMPI PUSH2 0x95C PUSH2 0x690 JUMP JUMPDEST JUMPDEST PUSH2 0x967 DUP3 SLOAD PUSH2 0x654 JUMP JUMPDEST PUSH2 0x972 DUP3 DUP3 DUP6 PUSH2 0x7DE JUMP JUMPDEST PUSH1 0x0 PUSH1 0x20 SWAP1 POP PUSH1 0x1F DUP4 GT PUSH1 0x1 DUP2 EQ PUSH2 0x9A5 JUMPI PUSH1 0x0 DUP5 ISZERO PUSH2 0x993 JUMPI DUP3 DUP8 ADD MLOAD SWAP1 POP JUMPDEST PUSH2 0x99D DUP6 DUP3 PUSH2 0x84F JUMP JUMPDEST DUP7 SSTORE POP PUSH2 0xA05 JUMP JUMPDEST PUSH1 0x1F NOT DUP5 AND PUSH2 0x9B3 DUP7 PUSH2 0x6BF JUMP JUMPDEST PUSH1 0x0 JUMPDEST DUP3 DUP2 LT ISZERO PUSH2 0x9DB JUMPI DUP5 DUP10 ADD MLOAD DUP3 SSTORE PUSH1 0x1 DUP3 ADD SWAP2 POP PUSH1 0x20 DUP6 ADD SWAP5 POP PUSH1 0x20 DUP2 ADD SWAP1 POP PUSH2 0x9B6 JUMP JUMPDEST DUP7 DUP4 LT ISZERO PUSH2 0x9F8 JUMPI DUP5 DUP10 ADD MLOAD PUSH2 0x9F4 PUSH1 0x1F DUP10 AND DUP3 PUSH2 0x831 JUMP JUMPDEST DUP4 SSTORE POP JUMPDEST PUSH1 0x1 PUSH1 0x2 DUP9 MUL ADD DUP9 SSTORE POP POP POP JUMPDEST POP POP POP POP POP POP JUMP INVALID LOG2 PUSH5 0x6970667358 0x22 SLT KECCAK256 MSTORE DUP16 0xAA SHL CODECOPY PUSH26 0xC5D87C0532D57768EE987B8AAB0E8305C56CD326BA23B48AC294 PUSH5 0x736F6C6343 STOP ADDMOD 0xF STOP CALLER "
				},
				"gasEstimates": {
					"creation": {
						"codeDepositCost": "525400",
						"executionCost": "562",
						"totalCost": "525962"
					},
					"external": {
						"create(string)": "infinite",
						"getData(uint256)": "infinite",
						"todos(uint256)": "infinite",
						"updateData(uint256,string)": "infinite"
					}
				},
				"methodIdentifiers": {
					"create(string)": "b6a46b3b",
					"getData(uint256)": "0178fe3f",
					"todos(uint256)": "bc8bc2b4",
					"updateData(uint256,string)": "89a8e2a7"
				}
			},
			"storageLayout": {
				"storage": [
					{
						"astId": 10,
						"contract": "SolidityCodes/Todo_List.sol:Todo_List",
						"label": "todos",
						"offset": 0,
						"slot": "0",
						"type": "t_array(t_struct(Todo)6_storage)dyn_storage"
					}
				],
				"types": {
					"t_array(t_struct(Todo)6_storage)dyn_storage": {
						"base": "t_struct(Todo)6_storage",
						"encoding": "dynamic_array",
						"label": "struct Todo_List.Todo[]",
						"numberOfBytes": "32"
					},
					"t_bool": {
						"encoding": "inplace",
						"label": "bool",
						"numberOfBytes": "1"
					},
					"t_string_storage": {
						"encoding": "bytes",
						"label": "string",
						"numberOfBytes": "32"
					},
					"t_struct(Todo)6_storage": {
						"encoding": "inplace",
						"label": "struct Todo_List.Todo",
						"members": [
							{
								"astId": 3,
								"contract": "SolidityCodes/Todo_List.sol:Todo_List",
								"label": "text",
								"offset": 0,
								"slot": "0",
								"type": "t_string_storage"
							},
							{
								"astId": 5,
								"contract": "SolidityCodes/Todo_List.sol:Todo_List",
								"label": "complete",
								"offset": 0,
								"slot": "1",
								"type": "t_bool"
							}
						],
						"numberOfBytes": "64"
					}
				}
			},
			"userdoc": {
				"kind": "user",
				"methods": {},
				"version": 1
			}
		}
	}
}