{
	"SolidityCodes/Struct.sol": {
		"Struct": {
			"abi": [
				{
					"inputs": [
						{
							"internalType": "uint256",
							"name": "_ind",
							"type": "uint256"
						}
					],
					"name": "getData",
					"outputs": [
						{
							"internalType": "string",
							"name": "_name",
							"type": "string"
						},
						{
							"internalType": "uint256",
							"name": "_age",
							"type": "uint256"
						}
					],
					"stateMutability": "view",
					"type": "function"
				},
				{
					"inputs": [
						{
							"internalType": "uint256",
							"name": "",
							"type": "uint256"
						}
					],
					"name": "person",
					"outputs": [
						{
							"internalType": "string",
							"name": "_name",
							"type": "string"
						},
						{
							"internalType": "uint256",
							"name": "_age",
							"type": "uint256"
						}
					],
					"stateMutability": "view",
					"type": "function"
				},
				{
					"inputs": [
						{
							"internalType": "string",
							"name": "_name",
							"type": "string"
						},
						{
							"internalType": "uint256",
							"name": "_age",
							"type": "uint256"
						}
					],
					"name": "setData",
					"outputs": [],
					"stateMutability": "nonpayable",
					"type": "function"
				},
				{
					"inputs": [
						{
							"internalType": "uint256",
							"name": "_ind",
							"type": "uint256"
						},
						{
							"internalType": "string",
							"name": "_name",
							"type": "string"
						},
						{
							"internalType": "uint256",
							"name": "_age",
							"type": "uint256"
						}
					],
					"name": "updateData",
					"outputs": [],
					"stateMutability": "nonpayable",
					"type": "function"
				}
			],
			"devdoc": {
				"kind": "dev",
				"methods": {},
				"version": 1
			},
			"evm": {
				"assembly": "    /* \"SolidityCodes/Struct.sol\":61:613  contract Struct{... */\n  mstore(0x40, 0x80)\n  callvalue\n  dup1\n  iszero\n  tag_1\n  jumpi\n  0x00\n  dup1\n  revert\ntag_1:\n  pop\n  dataSize(sub_0)\n  dup1\n  dataOffset(sub_0)\n  0x00\n  codecopy\n  0x00\n  return\nstop\n\nsub_0: assembly {\n        /* \"SolidityCodes/Struct.sol\":61:613  contract Struct{... */\n      mstore(0x40, 0x80)\n      callvalue\n      dup1\n      iszero\n      tag_1\n      jumpi\n      0x00\n      dup1\n      revert\n    tag_1:\n      pop\n      jumpi(tag_2, lt(calldatasize, 0x04))\n      shr(0xe0, calldataload(0x00))\n      dup1\n      0x0178fe3f\n      eq\n      tag_3\n      jumpi\n      dup1\n      0x092a1820\n      eq\n      tag_4\n      jumpi\n      dup1\n      0xa6227551\n      eq\n      tag_5\n      jumpi\n      dup1\n      0xaf22068e\n      eq\n      tag_6\n      jumpi\n    tag_2:\n      0x00\n      dup1\n      revert\n        /* \"SolidityCodes/Struct.sol\":298:461  function getData(uint _ind) public view returns(string memory _name,uint _age){... */\n    tag_3:\n      tag_7\n      0x04\n      dup1\n      calldatasize\n      sub\n      dup2\n      add\n      swap1\n      tag_8\n      swap2\n      swap1\n      tag_9\n      jump\t// in\n    tag_8:\n      tag_10\n      jump\t// in\n    tag_7:\n      mload(0x40)\n      tag_11\n      swap3\n      swap2\n      swap1\n      tag_12\n      jump\t// in\n    tag_11:\n      mload(0x40)\n      dup1\n      swap2\n      sub\n      swap1\n      return\n        /* \"SolidityCodes/Struct.sol\":155:177  Person[] public person */\n    tag_4:\n      tag_13\n      0x04\n      dup1\n      calldatasize\n      sub\n      dup2\n      add\n      swap1\n      tag_14\n      swap2\n      swap1\n      tag_9\n      jump\t// in\n    tag_14:\n      tag_15\n      jump\t// in\n    tag_13:\n      mload(0x40)\n      tag_16\n      swap3\n      swap2\n      swap1\n      tag_12\n      jump\t// in\n    tag_16:\n      mload(0x40)\n      dup1\n      swap2\n      sub\n      swap1\n      return\n        /* \"SolidityCodes/Struct.sol\":469:597  function updateData (uint _ind, string memory _name, uint _age) public{... */\n    tag_5:\n      tag_17\n      0x04\n      dup1\n      calldatasize\n      sub\n      dup2\n      add\n      swap1\n      tag_18\n      swap2\n      swap1\n      tag_19\n      jump\t// in\n    tag_18:\n      tag_20\n      jump\t// in\n    tag_17:\n      stop\n        /* \"SolidityCodes/Struct.sol\":186:290  function setData(string memory _name,uint _age) public{... */\n    tag_6:\n      tag_21\n      0x04\n      dup1\n      calldatasize\n      sub\n      dup2\n      add\n      swap1\n      tag_22\n      swap2\n      swap1\n      tag_23\n      jump\t// in\n    tag_22:\n      tag_24\n      jump\t// in\n    tag_21:\n      stop\n        /* \"SolidityCodes/Struct.sol\":298:461  function getData(uint _ind) public view returns(string memory _name,uint _age){... */\n    tag_10:\n        /* \"SolidityCodes/Struct.sol\":346:365  string memory _name */\n      0x60\n        /* \"SolidityCodes/Struct.sol\":366:375  uint _age */\n      0x00\n        /* \"SolidityCodes/Struct.sol\":387:403  Person storage p */\n      dup1\n        /* \"SolidityCodes/Struct.sol\":404:410  person */\n      0x00\n        /* \"SolidityCodes/Struct.sol\":411:415  _ind */\n      dup5\n        /* \"SolidityCodes/Struct.sol\":404:416  person[_ind] */\n      dup2\n      sload\n      dup2\n      lt\n      tag_26\n      jumpi\n      tag_27\n      tag_28\n      jump\t// in\n    tag_27:\n    tag_26:\n      swap1\n      0x00\n      mstore\n      keccak256(0x00, 0x20)\n      swap1\n      0x02\n      mul\n      add\n        /* \"SolidityCodes/Struct.sol\":387:416  Person storage p=person[_ind] */\n      swap1\n      pop\n        /* \"SolidityCodes/Struct.sol\":436:437  p */\n      dup1\n        /* \"SolidityCodes/Struct.sol\":436:443  p._name */\n      0x00\n      add\n        /* \"SolidityCodes/Struct.sol\":444:445  p */\n      dup2\n        /* \"SolidityCodes/Struct.sol\":444:450  p._age */\n      0x01\n      add\n      sload\n        /* \"SolidityCodes/Struct.sol\":427:451  return ( p._name,p._age) */\n      dup2\n      dup1\n      sload\n      tag_30\n      swap1\n      tag_31\n      jump\t// in\n    tag_30:\n      dup1\n      0x1f\n      add\n      0x20\n      dup1\n      swap2\n      div\n      mul\n      0x20\n      add\n      mload(0x40)\n      swap1\n      dup2\n      add\n      0x40\n      mstore\n      dup1\n      swap3\n      swap2\n      swap1\n      dup2\n      dup2\n      mstore\n      0x20\n      add\n      dup3\n      dup1\n      sload\n      tag_32\n      swap1\n      tag_31\n      jump\t// in\n    tag_32:\n      dup1\n      iszero\n      tag_33\n      jumpi\n      dup1\n      0x1f\n      lt\n      tag_34\n      jumpi\n      0x0100\n      dup1\n      dup4\n      sload\n      div\n      mul\n      dup4\n      mstore\n      swap2\n      0x20\n      add\n      swap2\n      jump(tag_33)\n    tag_34:\n      dup3\n      add\n      swap2\n      swap1\n      0x00\n      mstore\n      keccak256(0x00, 0x20)\n      swap1\n    tag_35:\n      dup2\n      sload\n      dup2\n      mstore\n      swap1\n      0x01\n      add\n      swap1\n      0x20\n      add\n      dup1\n      dup4\n      gt\n      tag_35\n      jumpi\n      dup3\n      swap1\n      sub\n      0x1f\n      and\n      dup3\n      add\n      swap2\n    tag_33:\n      pop\n      pop\n      pop\n      pop\n      pop\n      swap2\n      pop\n      swap3\n      pop\n      swap3\n      pop\n      pop\n        /* \"SolidityCodes/Struct.sol\":298:461  function getData(uint _ind) public view returns(string memory _name,uint _age){... */\n      swap2\n      pop\n      swap2\n      jump\t// out\n        /* \"SolidityCodes/Struct.sol\":155:177  Person[] public person */\n    tag_15:\n      0x00\n      dup2\n      dup2\n      sload\n      dup2\n      lt\n      tag_36\n      jumpi\n      0x00\n      dup1\n      revert\n    tag_36:\n      swap1\n      0x00\n      mstore\n      keccak256(0x00, 0x20)\n      swap1\n      0x02\n      mul\n      add\n      0x00\n      swap2\n      pop\n      swap1\n      pop\n      dup1\n      0x00\n      add\n      dup1\n      sload\n      tag_38\n      swap1\n      tag_31\n      jump\t// in\n    tag_38:\n      dup1\n      0x1f\n      add\n      0x20\n      dup1\n      swap2\n      div\n      mul\n      0x20\n      add\n      mload(0x40)\n      swap1\n      dup2\n      add\n      0x40\n      mstore\n      dup1\n      swap3\n      swap2\n      swap1\n      dup2\n      dup2\n      mstore\n      0x20\n      add\n      dup3\n      dup1\n      sload\n      tag_39\n      swap1\n      tag_31\n      jump\t// in\n    tag_39:\n      dup1\n      iszero\n      tag_40\n      jumpi\n      dup1\n      0x1f\n      lt\n      tag_41\n      jumpi\n      0x0100\n      dup1\n      dup4\n      sload\n      div\n      mul\n      dup4\n      mstore\n      swap2\n      0x20\n      add\n      swap2\n      jump(tag_40)\n    tag_41:\n      dup3\n      add\n      swap2\n      swap1\n      0x00\n      mstore\n      keccak256(0x00, 0x20)\n      swap1\n    tag_42:\n      dup2\n      sload\n      dup2\n      mstore\n      swap1\n      0x01\n      add\n      swap1\n      0x20\n      add\n      dup1\n      dup4\n      gt\n      tag_42\n      jumpi\n      dup3\n      swap1\n      sub\n      0x1f\n      and\n      dup3\n      add\n      swap2\n    tag_40:\n      pop\n      pop\n      pop\n      pop\n      pop\n      swap1\n      dup1\n      0x01\n      add\n      sload\n      swap1\n      pop\n      dup3\n      jump\t// out\n        /* \"SolidityCodes/Struct.sol\":469:597  function updateData (uint _ind, string memory _name, uint _age) public{... */\n    tag_20:\n        /* \"SolidityCodes/Struct.sol\":550:566  Person storage p */\n      0x00\n        /* \"SolidityCodes/Struct.sol\":567:573  person */\n      dup1\n        /* \"SolidityCodes/Struct.sol\":574:578  _ind */\n      dup5\n        /* \"SolidityCodes/Struct.sol\":567:579  person[_ind] */\n      dup2\n      sload\n      dup2\n      lt\n      tag_44\n      jumpi\n      tag_45\n      tag_28\n      jump\t// in\n    tag_45:\n    tag_44:\n      swap1\n      0x00\n      mstore\n      keccak256(0x00, 0x20)\n      swap1\n      0x02\n      mul\n      add\n        /* \"SolidityCodes/Struct.sol\":550:579  Person storage p=person[_ind] */\n      swap1\n      pop\n        /* \"SolidityCodes/Struct.sol\":539:597  {... */\n      pop\n        /* \"SolidityCodes/Struct.sol\":469:597  function updateData (uint _ind, string memory _name, uint _age) public{... */\n      pop\n      pop\n      pop\n      jump\t// out\n        /* \"SolidityCodes/Struct.sol\":186:290  function setData(string memory _name,uint _age) public{... */\n    tag_24:\n        /* \"SolidityCodes/Struct.sol\":251:257  person */\n      0x00\n        /* \"SolidityCodes/Struct.sol\":263:281  Person(_name,_age) */\n      mload(0x40)\n      dup1\n      0x40\n      add\n      0x40\n      mstore\n      dup1\n        /* \"SolidityCodes/Struct.sol\":270:275  _name */\n      dup5\n        /* \"SolidityCodes/Struct.sol\":263:281  Person(_name,_age) */\n      dup2\n      mstore\n      0x20\n      add\n        /* \"SolidityCodes/Struct.sol\":276:280  _age */\n      dup4\n        /* \"SolidityCodes/Struct.sol\":263:281  Person(_name,_age) */\n      dup2\n      mstore\n      pop\n        /* \"SolidityCodes/Struct.sol\":251:282  person.push(Person(_name,_age)) */\n      swap1\n      dup1\n      0x01\n      dup2\n      sload\n      add\n      dup1\n      dup3\n      sstore\n      dup1\n      swap2\n      pop\n      pop\n      0x01\n      swap1\n      sub\n      swap1\n      0x00\n      mstore\n      keccak256(0x00, 0x20)\n      swap1\n      0x02\n      mul\n      add\n      0x00\n      swap1\n      swap2\n      swap1\n      swap2\n      swap1\n      swap2\n      pop\n      0x00\n      dup3\n      add\n      mload\n      dup2\n      0x00\n      add\n      swap1\n      dup2\n      tag_49\n      swap2\n      swap1\n      tag_50\n      jump\t// in\n    tag_49:\n      pop\n      0x20\n      dup3\n      add\n      mload\n      dup2\n      0x01\n      add\n      sstore\n      pop\n      pop\n        /* \"SolidityCodes/Struct.sol\":186:290  function setData(string memory _name,uint _age) public{... */\n      pop\n      pop\n      jump\t// out\n        /* \"#utility.yul\":7:82   */\n    tag_51:\n        /* \"#utility.yul\":40:46   */\n      0x00\n        /* \"#utility.yul\":73:75   */\n      0x40\n        /* \"#utility.yul\":67:76   */\n      mload\n        /* \"#utility.yul\":57:76   */\n      swap1\n      pop\n        /* \"#utility.yul\":7:82   */\n      swap1\n      jump\t// out\n        /* \"#utility.yul\":88:205   */\n    tag_52:\n        /* \"#utility.yul\":197:198   */\n      0x00\n        /* \"#utility.yul\":194:195   */\n      dup1\n        /* \"#utility.yul\":187:199   */\n      revert\n        /* \"#utility.yul\":211:328   */\n    tag_53:\n        /* \"#utility.yul\":320:321   */\n      0x00\n        /* \"#utility.yul\":317:318   */\n      dup1\n        /* \"#utility.yul\":310:322   */\n      revert\n        /* \"#utility.yul\":334:411   */\n    tag_54:\n        /* \"#utility.yul\":371:378   */\n      0x00\n        /* \"#utility.yul\":400:405   */\n      dup2\n        /* \"#utility.yul\":389:405   */\n      swap1\n      pop\n        /* \"#utility.yul\":334:411   */\n      swap2\n      swap1\n      pop\n      jump\t// out\n        /* \"#utility.yul\":417:539   */\n    tag_55:\n        /* \"#utility.yul\":490:514   */\n      tag_94\n        /* \"#utility.yul\":508:513   */\n      dup2\n        /* \"#utility.yul\":490:514   */\n      tag_54\n      jump\t// in\n    tag_94:\n        /* \"#utility.yul\":483:488   */\n      dup2\n        /* \"#utility.yul\":480:515   */\n      eq\n        /* \"#utility.yul\":470:533   */\n      tag_95\n      jumpi\n        /* \"#utility.yul\":529:530   */\n      0x00\n        /* \"#utility.yul\":526:527   */\n      dup1\n        /* \"#utility.yul\":519:531   */\n      revert\n        /* \"#utility.yul\":470:533   */\n    tag_95:\n        /* \"#utility.yul\":417:539   */\n      pop\n      jump\t// out\n        /* \"#utility.yul\":545:684   */\n    tag_56:\n        /* \"#utility.yul\":591:596   */\n      0x00\n        /* \"#utility.yul\":629:635   */\n      dup2\n        /* \"#utility.yul\":616:636   */\n      calldataload\n        /* \"#utility.yul\":607:636   */\n      swap1\n      pop\n        /* \"#utility.yul\":645:678   */\n      tag_97\n        /* \"#utility.yul\":672:677   */\n      dup2\n        /* \"#utility.yul\":645:678   */\n      tag_55\n      jump\t// in\n    tag_97:\n        /* \"#utility.yul\":545:684   */\n      swap3\n      swap2\n      pop\n      pop\n      jump\t// out\n        /* \"#utility.yul\":690:1019   */\n    tag_9:\n        /* \"#utility.yul\":749:755   */\n      0x00\n        /* \"#utility.yul\":798:800   */\n      0x20\n        /* \"#utility.yul\":786:795   */\n      dup3\n        /* \"#utility.yul\":777:784   */\n      dup5\n        /* \"#utility.yul\":773:796   */\n      sub\n        /* \"#utility.yul\":769:801   */\n      slt\n        /* \"#utility.yul\":766:885   */\n      iszero\n      tag_99\n      jumpi\n        /* \"#utility.yul\":804:883   */\n      tag_100\n      tag_52\n      jump\t// in\n    tag_100:\n        /* \"#utility.yul\":766:885   */\n    tag_99:\n        /* \"#utility.yul\":924:925   */\n      0x00\n        /* \"#utility.yul\":949:1002   */\n      tag_101\n        /* \"#utility.yul\":994:1001   */\n      dup5\n        /* \"#utility.yul\":985:991   */\n      dup3\n        /* \"#utility.yul\":974:983   */\n      dup6\n        /* \"#utility.yul\":970:992   */\n      add\n        /* \"#utility.yul\":949:1002   */\n      tag_56\n      jump\t// in\n    tag_101:\n        /* \"#utility.yul\":939:1002   */\n      swap2\n      pop\n        /* \"#utility.yul\":895:1012   */\n      pop\n        /* \"#utility.yul\":690:1019   */\n      swap3\n      swap2\n      pop\n      pop\n      jump\t// out\n        /* \"#utility.yul\":1025:1124   */\n    tag_57:\n        /* \"#utility.yul\":1077:1083   */\n      0x00\n        /* \"#utility.yul\":1111:1116   */\n      dup2\n        /* \"#utility.yul\":1105:1117   */\n      mload\n        /* \"#utility.yul\":1095:1117   */\n      swap1\n      pop\n        /* \"#utility.yul\":1025:1124   */\n      swap2\n      swap1\n      pop\n      jump\t// out\n        /* \"#utility.yul\":1130:1299   */\n    tag_58:\n        /* \"#utility.yul\":1214:1225   */\n      0x00\n        /* \"#utility.yul\":1248:1254   */\n      dup3\n        /* \"#utility.yul\":1243:1246   */\n      dup3\n        /* \"#utility.yul\":1236:1255   */\n      mstore\n        /* \"#utility.yul\":1288:1292   */\n      0x20\n        /* \"#utility.yul\":1283:1286   */\n      dup3\n        /* \"#utility.yul\":1279:1293   */\n      add\n        /* \"#utility.yul\":1264:1293   */\n      swap1\n      pop\n        /* \"#utility.yul\":1130:1299   */\n      swap3\n      swap2\n      pop\n      pop\n      jump\t// out\n        /* \"#utility.yul\":1305:1612   */\n    tag_59:\n        /* \"#utility.yul\":1373:1374   */\n      0x00\n        /* \"#utility.yul\":1383:1496   */\n    tag_105:\n        /* \"#utility.yul\":1397:1403   */\n      dup4\n        /* \"#utility.yul\":1394:1395   */\n      dup2\n        /* \"#utility.yul\":1391:1404   */\n      lt\n        /* \"#utility.yul\":1383:1496   */\n      iszero\n      tag_107\n      jumpi\n        /* \"#utility.yul\":1482:1483   */\n      dup1\n        /* \"#utility.yul\":1477:1480   */\n      dup3\n        /* \"#utility.yul\":1473:1484   */\n      add\n        /* \"#utility.yul\":1467:1485   */\n      mload\n        /* \"#utility.yul\":1463:1464   */\n      dup2\n        /* \"#utility.yul\":1458:1461   */\n      dup5\n        /* \"#utility.yul\":1454:1465   */\n      add\n        /* \"#utility.yul\":1447:1486   */\n      mstore\n        /* \"#utility.yul\":1419:1421   */\n      0x20\n        /* \"#utility.yul\":1416:1417   */\n      dup2\n        /* \"#utility.yul\":1412:1422   */\n      add\n        /* \"#utility.yul\":1407:1422   */\n      swap1\n      pop\n        /* \"#utility.yul\":1383:1496   */\n      jump(tag_105)\n    tag_107:\n        /* \"#utility.yul\":1514:1520   */\n      dup4\n        /* \"#utility.yul\":1511:1512   */\n      dup2\n        /* \"#utility.yul\":1508:1521   */\n      gt\n        /* \"#utility.yul\":1505:1606   */\n      iszero\n      tag_108\n      jumpi\n        /* \"#utility.yul\":1594:1595   */\n      0x00\n        /* \"#utility.yul\":1585:1591   */\n      dup5\n        /* \"#utility.yul\":1580:1583   */\n      dup5\n        /* \"#utility.yul\":1576:1592   */\n      add\n        /* \"#utility.yul\":1569:1596   */\n      mstore\n        /* \"#utility.yul\":1505:1606   */\n    tag_108:\n        /* \"#utility.yul\":1354:1612   */\n      pop\n        /* \"#utility.yul\":1305:1612   */\n      pop\n      pop\n      pop\n      jump\t// out\n        /* \"#utility.yul\":1618:1720   */\n    tag_60:\n        /* \"#utility.yul\":1659:1665   */\n      0x00\n        /* \"#utility.yul\":1710:1712   */\n      0x1f\n        /* \"#utility.yul\":1706:1713   */\n      not\n        /* \"#utility.yul\":1701:1703   */\n      0x1f\n        /* \"#utility.yul\":1694:1699   */\n      dup4\n        /* \"#utility.yul\":1690:1704   */\n      add\n        /* \"#utility.yul\":1686:1714   */\n      and\n        /* \"#utility.yul\":1676:1714   */\n      swap1\n      pop\n        /* \"#utility.yul\":1618:1720   */\n      swap2\n      swap1\n      pop\n      jump\t// out\n        /* \"#utility.yul\":1726:2090   */\n    tag_61:\n        /* \"#utility.yul\":1814:1817   */\n      0x00\n        /* \"#utility.yul\":1842:1881   */\n      tag_111\n        /* \"#utility.yul\":1875:1880   */\n      dup3\n        /* \"#utility.yul\":1842:1881   */\n      tag_57\n      jump\t// in\n    tag_111:\n        /* \"#utility.yul\":1897:1968   */\n      tag_112\n        /* \"#utility.yul\":1961:1967   */\n      dup2\n        /* \"#utility.yul\":1956:1959   */\n      dup6\n        /* \"#utility.yul\":1897:1968   */\n      tag_58\n      jump\t// in\n    tag_112:\n        /* \"#utility.yul\":1890:1968   */\n      swap4\n      pop\n        /* \"#utility.yul\":1977:2029   */\n      tag_113\n        /* \"#utility.yul\":2022:2028   */\n      dup2\n        /* \"#utility.yul\":2017:2020   */\n      dup6\n        /* \"#utility.yul\":2010:2014   */\n      0x20\n        /* \"#utility.yul\":2003:2008   */\n      dup7\n        /* \"#utility.yul\":1999:2015   */\n      add\n        /* \"#utility.yul\":1977:2029   */\n      tag_59\n      jump\t// in\n    tag_113:\n        /* \"#utility.yul\":2054:2083   */\n      tag_114\n        /* \"#utility.yul\":2076:2082   */\n      dup2\n        /* \"#utility.yul\":2054:2083   */\n      tag_60\n      jump\t// in\n    tag_114:\n        /* \"#utility.yul\":2049:2052   */\n      dup5\n        /* \"#utility.yul\":2045:2084   */\n      add\n        /* \"#utility.yul\":2038:2084   */\n      swap2\n      pop\n        /* \"#utility.yul\":1818:2090   */\n      pop\n        /* \"#utility.yul\":1726:2090   */\n      swap3\n      swap2\n      pop\n      pop\n      jump\t// out\n        /* \"#utility.yul\":2096:2214   */\n    tag_62:\n        /* \"#utility.yul\":2183:2207   */\n      tag_116\n        /* \"#utility.yul\":2201:2206   */\n      dup2\n        /* \"#utility.yul\":2183:2207   */\n      tag_54\n      jump\t// in\n    tag_116:\n        /* \"#utility.yul\":2178:2181   */\n      dup3\n        /* \"#utility.yul\":2171:2208   */\n      mstore\n        /* \"#utility.yul\":2096:2214   */\n      pop\n      pop\n      jump\t// out\n        /* \"#utility.yul\":2220:2643   */\n    tag_12:\n        /* \"#utility.yul\":2361:2365   */\n      0x00\n        /* \"#utility.yul\":2399:2401   */\n      0x40\n        /* \"#utility.yul\":2388:2397   */\n      dup3\n        /* \"#utility.yul\":2384:2402   */\n      add\n        /* \"#utility.yul\":2376:2402   */\n      swap1\n      pop\n        /* \"#utility.yul\":2448:2457   */\n      dup2\n        /* \"#utility.yul\":2442:2446   */\n      dup2\n        /* \"#utility.yul\":2438:2458   */\n      sub\n        /* \"#utility.yul\":2434:2435   */\n      0x00\n        /* \"#utility.yul\":2423:2432   */\n      dup4\n        /* \"#utility.yul\":2419:2436   */\n      add\n        /* \"#utility.yul\":2412:2459   */\n      mstore\n        /* \"#utility.yul\":2476:2554   */\n      tag_118\n        /* \"#utility.yul\":2549:2553   */\n      dup2\n        /* \"#utility.yul\":2540:2546   */\n      dup6\n        /* \"#utility.yul\":2476:2554   */\n      tag_61\n      jump\t// in\n    tag_118:\n        /* \"#utility.yul\":2468:2554   */\n      swap1\n      pop\n        /* \"#utility.yul\":2564:2636   */\n      tag_119\n        /* \"#utility.yul\":2632:2634   */\n      0x20\n        /* \"#utility.yul\":2621:2630   */\n      dup4\n        /* \"#utility.yul\":2617:2635   */\n      add\n        /* \"#utility.yul\":2608:2614   */\n      dup5\n        /* \"#utility.yul\":2564:2636   */\n      tag_62\n      jump\t// in\n    tag_119:\n        /* \"#utility.yul\":2220:2643   */\n      swap4\n      swap3\n      pop\n      pop\n      pop\n      jump\t// out\n        /* \"#utility.yul\":2649:2766   */\n    tag_63:\n        /* \"#utility.yul\":2758:2759   */\n      0x00\n        /* \"#utility.yul\":2755:2756   */\n      dup1\n        /* \"#utility.yul\":2748:2760   */\n      revert\n        /* \"#utility.yul\":2772:2889   */\n    tag_64:\n        /* \"#utility.yul\":2881:2882   */\n      0x00\n        /* \"#utility.yul\":2878:2879   */\n      dup1\n        /* \"#utility.yul\":2871:2883   */\n      revert\n        /* \"#utility.yul\":2895:3075   */\n    tag_65:\n        /* \"#utility.yul\":2943:3020   */\n      0x4e487b7100000000000000000000000000000000000000000000000000000000\n        /* \"#utility.yul\":2940:2941   */\n      0x00\n        /* \"#utility.yul\":2933:3021   */\n      mstore\n        /* \"#utility.yul\":3040:3044   */\n      0x41\n        /* \"#utility.yul\":3037:3038   */\n      0x04\n        /* \"#utility.yul\":3030:3045   */\n      mstore\n        /* \"#utility.yul\":3064:3068   */\n      0x24\n        /* \"#utility.yul\":3061:3062   */\n      0x00\n        /* \"#utility.yul\":3054:3069   */\n      revert\n        /* \"#utility.yul\":3081:3362   */\n    tag_66:\n        /* \"#utility.yul\":3164:3191   */\n      tag_124\n        /* \"#utility.yul\":3186:3190   */\n      dup3\n        /* \"#utility.yul\":3164:3191   */\n      tag_60\n      jump\t// in\n    tag_124:\n        /* \"#utility.yul\":3156:3162   */\n      dup2\n        /* \"#utility.yul\":3152:3192   */\n      add\n        /* \"#utility.yul\":3294:3300   */\n      dup2\n        /* \"#utility.yul\":3282:3292   */\n      dup2\n        /* \"#utility.yul\":3279:3301   */\n      lt\n        /* \"#utility.yul\":3258:3276   */\n      0xffffffffffffffff\n        /* \"#utility.yul\":3246:3256   */\n      dup3\n        /* \"#utility.yul\":3243:3277   */\n      gt\n        /* \"#utility.yul\":3240:3302   */\n      or\n        /* \"#utility.yul\":3237:3325   */\n      iszero\n      tag_125\n      jumpi\n        /* \"#utility.yul\":3305:3323   */\n      tag_126\n      tag_65\n      jump\t// in\n    tag_126:\n        /* \"#utility.yul\":3237:3325   */\n    tag_125:\n        /* \"#utility.yul\":3345:3355   */\n      dup1\n        /* \"#utility.yul\":3341:3343   */\n      0x40\n        /* \"#utility.yul\":3334:3356   */\n      mstore\n        /* \"#utility.yul\":3124:3362   */\n      pop\n        /* \"#utility.yul\":3081:3362   */\n      pop\n      pop\n      jump\t// out\n        /* \"#utility.yul\":3368:3497   */\n    tag_67:\n        /* \"#utility.yul\":3402:3408   */\n      0x00\n        /* \"#utility.yul\":3429:3449   */\n      tag_128\n      tag_51\n      jump\t// in\n    tag_128:\n        /* \"#utility.yul\":3419:3449   */\n      swap1\n      pop\n        /* \"#utility.yul\":3458:3491   */\n      tag_129\n        /* \"#utility.yul\":3486:3490   */\n      dup3\n        /* \"#utility.yul\":3478:3484   */\n      dup3\n        /* \"#utility.yul\":3458:3491   */\n      tag_66\n      jump\t// in\n    tag_129:\n        /* \"#utility.yul\":3368:3497   */\n      swap2\n      swap1\n      pop\n      jump\t// out\n        /* \"#utility.yul\":3503:3811   */\n    tag_68:\n        /* \"#utility.yul\":3565:3569   */\n      0x00\n        /* \"#utility.yul\":3655:3673   */\n      0xffffffffffffffff\n        /* \"#utility.yul\":3647:3653   */\n      dup3\n        /* \"#utility.yul\":3644:3674   */\n      gt\n        /* \"#utility.yul\":3641:3697   */\n      iszero\n      tag_131\n      jumpi\n        /* \"#utility.yul\":3677:3695   */\n      tag_132\n      tag_65\n      jump\t// in\n    tag_132:\n        /* \"#utility.yul\":3641:3697   */\n    tag_131:\n        /* \"#utility.yul\":3715:3744   */\n      tag_133\n        /* \"#utility.yul\":3737:3743   */\n      dup3\n        /* \"#utility.yul\":3715:3744   */\n      tag_60\n      jump\t// in\n    tag_133:\n        /* \"#utility.yul\":3707:3744   */\n      swap1\n      pop\n        /* \"#utility.yul\":3799:3803   */\n      0x20\n        /* \"#utility.yul\":3793:3797   */\n      dup2\n        /* \"#utility.yul\":3789:3804   */\n      add\n        /* \"#utility.yul\":3781:3804   */\n      swap1\n      pop\n        /* \"#utility.yul\":3503:3811   */\n      swap2\n      swap1\n      pop\n      jump\t// out\n        /* \"#utility.yul\":3817:3971   */\n    tag_69:\n        /* \"#utility.yul\":3901:3907   */\n      dup3\n        /* \"#utility.yul\":3896:3899   */\n      dup2\n        /* \"#utility.yul\":3891:3894   */\n      dup4\n        /* \"#utility.yul\":3878:3908   */\n      calldatacopy\n        /* \"#utility.yul\":3963:3964   */\n      0x00\n        /* \"#utility.yul\":3954:3960   */\n      dup4\n        /* \"#utility.yul\":3949:3952   */\n      dup4\n        /* \"#utility.yul\":3945:3961   */\n      add\n        /* \"#utility.yul\":3938:3965   */\n      mstore\n        /* \"#utility.yul\":3817:3971   */\n      pop\n      pop\n      pop\n      jump\t// out\n        /* \"#utility.yul\":3977:4389   */\n    tag_70:\n        /* \"#utility.yul\":4055:4060   */\n      0x00\n        /* \"#utility.yul\":4080:4146   */\n      tag_136\n        /* \"#utility.yul\":4096:4145   */\n      tag_137\n        /* \"#utility.yul\":4138:4144   */\n      dup5\n        /* \"#utility.yul\":4096:4145   */\n      tag_68\n      jump\t// in\n    tag_137:\n        /* \"#utility.yul\":4080:4146   */\n      tag_67\n      jump\t// in\n    tag_136:\n        /* \"#utility.yul\":4071:4146   */\n      swap1\n      pop\n        /* \"#utility.yul\":4169:4175   */\n      dup3\n        /* \"#utility.yul\":4162:4167   */\n      dup2\n        /* \"#utility.yul\":4155:4176   */\n      mstore\n        /* \"#utility.yul\":4207:4211   */\n      0x20\n        /* \"#utility.yul\":4200:4205   */\n      dup2\n        /* \"#utility.yul\":4196:4212   */\n      add\n        /* \"#utility.yul\":4245:4248   */\n      dup5\n        /* \"#utility.yul\":4236:4242   */\n      dup5\n        /* \"#utility.yul\":4231:4234   */\n      dup5\n        /* \"#utility.yul\":4227:4243   */\n      add\n        /* \"#utility.yul\":4224:4249   */\n      gt\n        /* \"#utility.yul\":4221:4333   */\n      iszero\n      tag_138\n      jumpi\n        /* \"#utility.yul\":4252:4331   */\n      tag_139\n      tag_64\n      jump\t// in\n    tag_139:\n        /* \"#utility.yul\":4221:4333   */\n    tag_138:\n        /* \"#utility.yul\":4342:4383   */\n      tag_140\n        /* \"#utility.yul\":4376:4382   */\n      dup5\n        /* \"#utility.yul\":4371:4374   */\n      dup3\n        /* \"#utility.yul\":4366:4369   */\n      dup6\n        /* \"#utility.yul\":4342:4383   */\n      tag_69\n      jump\t// in\n    tag_140:\n        /* \"#utility.yul\":4061:4389   */\n      pop\n        /* \"#utility.yul\":3977:4389   */\n      swap4\n      swap3\n      pop\n      pop\n      pop\n      jump\t// out\n        /* \"#utility.yul\":4409:4749   */\n    tag_71:\n        /* \"#utility.yul\":4465:4470   */\n      0x00\n        /* \"#utility.yul\":4514:4517   */\n      dup3\n        /* \"#utility.yul\":4507:4511   */\n      0x1f\n        /* \"#utility.yul\":4499:4505   */\n      dup4\n        /* \"#utility.yul\":4495:4512   */\n      add\n        /* \"#utility.yul\":4491:4518   */\n      slt\n        /* \"#utility.yul\":4481:4603   */\n      tag_142\n      jumpi\n        /* \"#utility.yul\":4522:4601   */\n      tag_143\n      tag_63\n      jump\t// in\n    tag_143:\n        /* \"#utility.yul\":4481:4603   */\n    tag_142:\n        /* \"#utility.yul\":4639:4645   */\n      dup2\n        /* \"#utility.yul\":4626:4646   */\n      calldataload\n        /* \"#utility.yul\":4664:4743   */\n      tag_144\n        /* \"#utility.yul\":4739:4742   */\n      dup5\n        /* \"#utility.yul\":4731:4737   */\n      dup3\n        /* \"#utility.yul\":4724:4728   */\n      0x20\n        /* \"#utility.yul\":4716:4722   */\n      dup7\n        /* \"#utility.yul\":4712:4729   */\n      add\n        /* \"#utility.yul\":4664:4743   */\n      tag_70\n      jump\t// in\n    tag_144:\n        /* \"#utility.yul\":4655:4743   */\n      swap2\n      pop\n        /* \"#utility.yul\":4471:4749   */\n      pop\n        /* \"#utility.yul\":4409:4749   */\n      swap3\n      swap2\n      pop\n      pop\n      jump\t// out\n        /* \"#utility.yul\":4755:5554   */\n    tag_19:\n        /* \"#utility.yul\":4842:4848   */\n      0x00\n        /* \"#utility.yul\":4850:4856   */\n      dup1\n        /* \"#utility.yul\":4858:4864   */\n      0x00\n        /* \"#utility.yul\":4907:4909   */\n      0x60\n        /* \"#utility.yul\":4895:4904   */\n      dup5\n        /* \"#utility.yul\":4886:4893   */\n      dup7\n        /* \"#utility.yul\":4882:4905   */\n      sub\n        /* \"#utility.yul\":4878:4910   */\n      slt\n        /* \"#utility.yul\":4875:4994   */\n      iszero\n      tag_146\n      jumpi\n        /* \"#utility.yul\":4913:4992   */\n      tag_147\n      tag_52\n      jump\t// in\n    tag_147:\n        /* \"#utility.yul\":4875:4994   */\n    tag_146:\n        /* \"#utility.yul\":5033:5034   */\n      0x00\n        /* \"#utility.yul\":5058:5111   */\n      tag_148\n        /* \"#utility.yul\":5103:5110   */\n      dup7\n        /* \"#utility.yul\":5094:5100   */\n      dup3\n        /* \"#utility.yul\":5083:5092   */\n      dup8\n        /* \"#utility.yul\":5079:5101   */\n      add\n        /* \"#utility.yul\":5058:5111   */\n      tag_56\n      jump\t// in\n    tag_148:\n        /* \"#utility.yul\":5048:5111   */\n      swap4\n      pop\n        /* \"#utility.yul\":5004:5121   */\n      pop\n        /* \"#utility.yul\":5188:5190   */\n      0x20\n        /* \"#utility.yul\":5177:5186   */\n      dup5\n        /* \"#utility.yul\":5173:5191   */\n      add\n        /* \"#utility.yul\":5160:5192   */\n      calldataload\n        /* \"#utility.yul\":5219:5237   */\n      0xffffffffffffffff\n        /* \"#utility.yul\":5211:5217   */\n      dup2\n        /* \"#utility.yul\":5208:5238   */\n      gt\n        /* \"#utility.yul\":5205:5322   */\n      iszero\n      tag_149\n      jumpi\n        /* \"#utility.yul\":5241:5320   */\n      tag_150\n      tag_53\n      jump\t// in\n    tag_150:\n        /* \"#utility.yul\":5205:5322   */\n    tag_149:\n        /* \"#utility.yul\":5346:5409   */\n      tag_151\n        /* \"#utility.yul\":5401:5408   */\n      dup7\n        /* \"#utility.yul\":5392:5398   */\n      dup3\n        /* \"#utility.yul\":5381:5390   */\n      dup8\n        /* \"#utility.yul\":5377:5399   */\n      add\n        /* \"#utility.yul\":5346:5409   */\n      tag_71\n      jump\t// in\n    tag_151:\n        /* \"#utility.yul\":5336:5409   */\n      swap3\n      pop\n        /* \"#utility.yul\":5131:5419   */\n      pop\n        /* \"#utility.yul\":5458:5460   */\n      0x40\n        /* \"#utility.yul\":5484:5537   */\n      tag_152\n        /* \"#utility.yul\":5529:5536   */\n      dup7\n        /* \"#utility.yul\":5520:5526   */\n      dup3\n        /* \"#utility.yul\":5509:5518   */\n      dup8\n        /* \"#utility.yul\":5505:5527   */\n      add\n        /* \"#utility.yul\":5484:5537   */\n      tag_56\n      jump\t// in\n    tag_152:\n        /* \"#utility.yul\":5474:5537   */\n      swap2\n      pop\n        /* \"#utility.yul\":5429:5547   */\n      pop\n        /* \"#utility.yul\":4755:5554   */\n      swap3\n      pop\n      swap3\n      pop\n      swap3\n      jump\t// out\n        /* \"#utility.yul\":5560:6214   */\n    tag_23:\n        /* \"#utility.yul\":5638:5644   */\n      0x00\n        /* \"#utility.yul\":5646:5652   */\n      dup1\n        /* \"#utility.yul\":5695:5697   */\n      0x40\n        /* \"#utility.yul\":5683:5692   */\n      dup4\n        /* \"#utility.yul\":5674:5681   */\n      dup6\n        /* \"#utility.yul\":5670:5693   */\n      sub\n        /* \"#utility.yul\":5666:5698   */\n      slt\n        /* \"#utility.yul\":5663:5782   */\n      iszero\n      tag_154\n      jumpi\n        /* \"#utility.yul\":5701:5780   */\n      tag_155\n      tag_52\n      jump\t// in\n    tag_155:\n        /* \"#utility.yul\":5663:5782   */\n    tag_154:\n        /* \"#utility.yul\":5849:5850   */\n      0x00\n        /* \"#utility.yul\":5838:5847   */\n      dup4\n        /* \"#utility.yul\":5834:5851   */\n      add\n        /* \"#utility.yul\":5821:5852   */\n      calldataload\n        /* \"#utility.yul\":5879:5897   */\n      0xffffffffffffffff\n        /* \"#utility.yul\":5871:5877   */\n      dup2\n        /* \"#utility.yul\":5868:5898   */\n      gt\n        /* \"#utility.yul\":5865:5982   */\n      iszero\n      tag_156\n      jumpi\n        /* \"#utility.yul\":5901:5980   */\n      tag_157\n      tag_53\n      jump\t// in\n    tag_157:\n        /* \"#utility.yul\":5865:5982   */\n    tag_156:\n        /* \"#utility.yul\":6006:6069   */\n      tag_158\n        /* \"#utility.yul\":6061:6068   */\n      dup6\n        /* \"#utility.yul\":6052:6058   */\n      dup3\n        /* \"#utility.yul\":6041:6050   */\n      dup7\n        /* \"#utility.yul\":6037:6059   */\n      add\n        /* \"#utility.yul\":6006:6069   */\n      tag_71\n      jump\t// in\n    tag_158:\n        /* \"#utility.yul\":5996:6069   */\n      swap3\n      pop\n        /* \"#utility.yul\":5792:6079   */\n      pop\n        /* \"#utility.yul\":6118:6120   */\n      0x20\n        /* \"#utility.yul\":6144:6197   */\n      tag_159\n        /* \"#utility.yul\":6189:6196   */\n      dup6\n        /* \"#utility.yul\":6180:6186   */\n      dup3\n        /* \"#utility.yul\":6169:6178   */\n      dup7\n        /* \"#utility.yul\":6165:6187   */\n      add\n        /* \"#utility.yul\":6144:6197   */\n      tag_56\n      jump\t// in\n    tag_159:\n        /* \"#utility.yul\":6134:6197   */\n      swap2\n      pop\n        /* \"#utility.yul\":6089:6207   */\n      pop\n        /* \"#utility.yul\":5560:6214   */\n      swap3\n      pop\n      swap3\n      swap1\n      pop\n      jump\t// out\n        /* \"#utility.yul\":6220:6400   */\n    tag_28:\n        /* \"#utility.yul\":6268:6345   */\n      0x4e487b7100000000000000000000000000000000000000000000000000000000\n        /* \"#utility.yul\":6265:6266   */\n      0x00\n        /* \"#utility.yul\":6258:6346   */\n      mstore\n        /* \"#utility.yul\":6365:6369   */\n      0x32\n        /* \"#utility.yul\":6362:6363   */\n      0x04\n        /* \"#utility.yul\":6355:6370   */\n      mstore\n        /* \"#utility.yul\":6389:6393   */\n      0x24\n        /* \"#utility.yul\":6386:6387   */\n      0x00\n        /* \"#utility.yul\":6379:6394   */\n      revert\n        /* \"#utility.yul\":6406:6586   */\n    tag_72:\n        /* \"#utility.yul\":6454:6531   */\n      0x4e487b7100000000000000000000000000000000000000000000000000000000\n        /* \"#utility.yul\":6451:6452   */\n      0x00\n        /* \"#utility.yul\":6444:6532   */\n      mstore\n        /* \"#utility.yul\":6551:6555   */\n      0x22\n        /* \"#utility.yul\":6548:6549   */\n      0x04\n        /* \"#utility.yul\":6541:6556   */\n      mstore\n        /* \"#utility.yul\":6575:6579   */\n      0x24\n        /* \"#utility.yul\":6572:6573   */\n      0x00\n        /* \"#utility.yul\":6565:6580   */\n      revert\n        /* \"#utility.yul\":6592:6912   */\n    tag_31:\n        /* \"#utility.yul\":6636:6642   */\n      0x00\n        /* \"#utility.yul\":6673:6674   */\n      0x02\n        /* \"#utility.yul\":6667:6671   */\n      dup3\n        /* \"#utility.yul\":6663:6675   */\n      div\n        /* \"#utility.yul\":6653:6675   */\n      swap1\n      pop\n        /* \"#utility.yul\":6720:6721   */\n      0x01\n        /* \"#utility.yul\":6714:6718   */\n      dup3\n        /* \"#utility.yul\":6710:6722   */\n      and\n        /* \"#utility.yul\":6741:6759   */\n      dup1\n        /* \"#utility.yul\":6731:6812   */\n      tag_163\n      jumpi\n        /* \"#utility.yul\":6797:6801   */\n      0x7f\n        /* \"#utility.yul\":6789:6795   */\n      dup3\n        /* \"#utility.yul\":6785:6802   */\n      and\n        /* \"#utility.yul\":6775:6802   */\n      swap2\n      pop\n        /* \"#utility.yul\":6731:6812   */\n    tag_163:\n        /* \"#utility.yul\":6859:6861   */\n      0x20\n        /* \"#utility.yul\":6851:6857   */\n      dup3\n        /* \"#utility.yul\":6848:6862   */\n      lt\n        /* \"#utility.yul\":6828:6846   */\n      dup2\n        /* \"#utility.yul\":6825:6863   */\n      sub\n        /* \"#utility.yul\":6822:6906   */\n      tag_164\n      jumpi\n        /* \"#utility.yul\":6878:6896   */\n      tag_165\n      tag_72\n      jump\t// in\n    tag_165:\n        /* \"#utility.yul\":6822:6906   */\n    tag_164:\n        /* \"#utility.yul\":6643:6912   */\n      pop\n        /* \"#utility.yul\":6592:6912   */\n      swap2\n      swap1\n      pop\n      jump\t// out\n        /* \"#utility.yul\":6918:7059   */\n    tag_73:\n        /* \"#utility.yul\":6967:6971   */\n      0x00\n        /* \"#utility.yul\":6990:6993   */\n      dup2\n        /* \"#utility.yul\":6982:6993   */\n      swap1\n      pop\n        /* \"#utility.yul\":7013:7016   */\n      dup2\n        /* \"#utility.yul\":7010:7011   */\n      0x00\n        /* \"#utility.yul\":7003:7017   */\n      mstore\n        /* \"#utility.yul\":7047:7051   */\n      0x20\n        /* \"#utility.yul\":7044:7045   */\n      0x00\n        /* \"#utility.yul\":7034:7052   */\n      keccak256\n        /* \"#utility.yul\":7026:7052   */\n      swap1\n      pop\n        /* \"#utility.yul\":6918:7059   */\n      swap2\n      swap1\n      pop\n      jump\t// out\n        /* \"#utility.yul\":7065:7158   */\n    tag_74:\n        /* \"#utility.yul\":7102:7108   */\n      0x00\n        /* \"#utility.yul\":7149:7151   */\n      0x20\n        /* \"#utility.yul\":7144:7146   */\n      0x1f\n        /* \"#utility.yul\":7137:7142   */\n      dup4\n        /* \"#utility.yul\":7133:7147   */\n      add\n        /* \"#utility.yul\":7129:7152   */\n      div\n        /* \"#utility.yul\":7119:7152   */\n      swap1\n      pop\n        /* \"#utility.yul\":7065:7158   */\n      swap2\n      swap1\n      pop\n      jump\t// out\n        /* \"#utility.yul\":7164:7271   */\n    tag_75:\n        /* \"#utility.yul\":7208:7216   */\n      0x00\n        /* \"#utility.yul\":7258:7263   */\n      dup3\n        /* \"#utility.yul\":7252:7256   */\n      dup3\n        /* \"#utility.yul\":7248:7264   */\n      shl\n        /* \"#utility.yul\":7227:7264   */\n      swap1\n      pop\n        /* \"#utility.yul\":7164:7271   */\n      swap3\n      swap2\n      pop\n      pop\n      jump\t// out\n        /* \"#utility.yul\":7277:7670   */\n    tag_76:\n        /* \"#utility.yul\":7346:7352   */\n      0x00\n        /* \"#utility.yul\":7396:7397   */\n      0x08\n        /* \"#utility.yul\":7384:7394   */\n      dup4\n        /* \"#utility.yul\":7380:7398   */\n      mul\n        /* \"#utility.yul\":7419:7516   */\n      tag_170\n        /* \"#utility.yul\":7449:7515   */\n      0xffffffffffffffffffffffffffffffffffffffffffffffffffffffffffffffff\n        /* \"#utility.yul\":7438:7447   */\n      dup3\n        /* \"#utility.yul\":7419:7516   */\n      tag_75\n      jump\t// in\n    tag_170:\n        /* \"#utility.yul\":7537:7576   */\n      tag_171\n        /* \"#utility.yul\":7567:7575   */\n      dup7\n        /* \"#utility.yul\":7556:7565   */\n      dup4\n        /* \"#utility.yul\":7537:7576   */\n      tag_75\n      jump\t// in\n    tag_171:\n        /* \"#utility.yul\":7525:7576   */\n      swap6\n      pop\n        /* \"#utility.yul\":7609:7613   */\n      dup1\n        /* \"#utility.yul\":7605:7614   */\n      not\n        /* \"#utility.yul\":7598:7603   */\n      dup5\n        /* \"#utility.yul\":7594:7615   */\n      and\n        /* \"#utility.yul\":7585:7615   */\n      swap4\n      pop\n        /* \"#utility.yul\":7658:7662   */\n      dup1\n        /* \"#utility.yul\":7648:7656   */\n      dup7\n        /* \"#utility.yul\":7644:7663   */\n      and\n        /* \"#utility.yul\":7637:7642   */\n      dup5\n        /* \"#utility.yul\":7634:7664   */\n      or\n        /* \"#utility.yul\":7624:7664   */\n      swap3\n      pop\n        /* \"#utility.yul\":7353:7670   */\n      pop\n      pop\n        /* \"#utility.yul\":7277:7670   */\n      swap4\n      swap3\n      pop\n      pop\n      pop\n      jump\t// out\n        /* \"#utility.yul\":7676:7736   */\n    tag_77:\n        /* \"#utility.yul\":7704:7707   */\n      0x00\n        /* \"#utility.yul\":7725:7730   */\n      dup2\n        /* \"#utility.yul\":7718:7730   */\n      swap1\n      pop\n        /* \"#utility.yul\":7676:7736   */\n      swap2\n      swap1\n      pop\n      jump\t// out\n        /* \"#utility.yul\":7742:7884   */\n    tag_78:\n        /* \"#utility.yul\":7792:7801   */\n      0x00\n        /* \"#utility.yul\":7825:7878   */\n      tag_174\n        /* \"#utility.yul\":7843:7877   */\n      tag_175\n        /* \"#utility.yul\":7852:7876   */\n      tag_176\n        /* \"#utility.yul\":7870:7875   */\n      dup5\n        /* \"#utility.yul\":7852:7876   */\n      tag_54\n      jump\t// in\n    tag_176:\n        /* \"#utility.yul\":7843:7877   */\n      tag_77\n      jump\t// in\n    tag_175:\n        /* \"#utility.yul\":7825:7878   */\n      tag_54\n      jump\t// in\n    tag_174:\n        /* \"#utility.yul\":7812:7878   */\n      swap1\n      pop\n        /* \"#utility.yul\":7742:7884   */\n      swap2\n      swap1\n      pop\n      jump\t// out\n        /* \"#utility.yul\":7890:7965   */\n    tag_79:\n        /* \"#utility.yul\":7933:7936   */\n      0x00\n        /* \"#utility.yul\":7954:7959   */\n      dup2\n        /* \"#utility.yul\":7947:7959   */\n      swap1\n      pop\n        /* \"#utility.yul\":7890:7965   */\n      swap2\n      swap1\n      pop\n      jump\t// out\n        /* \"#utility.yul\":7971:8240   */\n    tag_80:\n        /* \"#utility.yul\":8081:8120   */\n      tag_179\n        /* \"#utility.yul\":8112:8119   */\n      dup4\n        /* \"#utility.yul\":8081:8120   */\n      tag_78\n      jump\t// in\n    tag_179:\n        /* \"#utility.yul\":8142:8233   */\n      tag_180\n        /* \"#utility.yul\":8191:8232   */\n      tag_181\n        /* \"#utility.yul\":8215:8231   */\n      dup3\n        /* \"#utility.yul\":8191:8232   */\n      tag_79\n      jump\t// in\n    tag_181:\n        /* \"#utility.yul\":8183:8189   */\n      dup5\n        /* \"#utility.yul\":8176:8180   */\n      dup5\n        /* \"#utility.yul\":8170:8181   */\n      sload\n        /* \"#utility.yul\":8142:8233   */\n      tag_76\n      jump\t// in\n    tag_180:\n        /* \"#utility.yul\":8136:8140   */\n      dup3\n        /* \"#utility.yul\":8129:8234   */\n      sstore\n        /* \"#utility.yul\":8047:8240   */\n      pop\n        /* \"#utility.yul\":7971:8240   */\n      pop\n      pop\n      pop\n      jump\t// out\n        /* \"#utility.yul\":8246:8319   */\n    tag_81:\n        /* \"#utility.yul\":8291:8294   */\n      0x00\n        /* \"#utility.yul\":8246:8319   */\n      swap1\n      jump\t// out\n        /* \"#utility.yul\":8325:8514   */\n    tag_82:\n        /* \"#utility.yul\":8402:8434   */\n      tag_184\n      tag_81\n      jump\t// in\n    tag_184:\n        /* \"#utility.yul\":8443:8508   */\n      tag_185\n        /* \"#utility.yul\":8501:8507   */\n      dup2\n        /* \"#utility.yul\":8493:8499   */\n      dup5\n        /* \"#utility.yul\":8487:8491   */\n      dup5\n        /* \"#utility.yul\":8443:8508   */\n      tag_80\n      jump\t// in\n    tag_185:\n        /* \"#utility.yul\":8378:8514   */\n      pop\n        /* \"#utility.yul\":8325:8514   */\n      pop\n      pop\n      jump\t// out\n        /* \"#utility.yul\":8520:8706   */\n    tag_83:\n        /* \"#utility.yul\":8580:8700   */\n    tag_187:\n        /* \"#utility.yul\":8597:8600   */\n      dup2\n        /* \"#utility.yul\":8590:8595   */\n      dup2\n        /* \"#utility.yul\":8587:8601   */\n      lt\n        /* \"#utility.yul\":8580:8700   */\n      iszero\n      tag_189\n      jumpi\n        /* \"#utility.yul\":8651:8690   */\n      tag_190\n        /* \"#utility.yul\":8688:8689   */\n      0x00\n        /* \"#utility.yul\":8681:8686   */\n      dup3\n        /* \"#utility.yul\":8651:8690   */\n      tag_82\n      jump\t// in\n    tag_190:\n        /* \"#utility.yul\":8624:8625   */\n      0x01\n        /* \"#utility.yul\":8617:8622   */\n      dup2\n        /* \"#utility.yul\":8613:8626   */\n      add\n        /* \"#utility.yul\":8604:8626   */\n      swap1\n      pop\n        /* \"#utility.yul\":8580:8700   */\n      jump(tag_187)\n    tag_189:\n        /* \"#utility.yul\":8520:8706   */\n      pop\n      pop\n      jump\t// out\n        /* \"#utility.yul\":8712:9255   */\n    tag_84:\n        /* \"#utility.yul\":8813:8815   */\n      0x1f\n        /* \"#utility.yul\":8808:8811   */\n      dup3\n        /* \"#utility.yul\":8805:8816   */\n      gt\n        /* \"#utility.yul\":8802:9248   */\n      iszero\n      tag_192\n      jumpi\n        /* \"#utility.yul\":8847:8885   */\n      tag_193\n        /* \"#utility.yul\":8879:8884   */\n      dup2\n        /* \"#utility.yul\":8847:8885   */\n      tag_73\n      jump\t// in\n    tag_193:\n        /* \"#utility.yul\":8931:8960   */\n      tag_194\n        /* \"#utility.yul\":8949:8959   */\n      dup5\n        /* \"#utility.yul\":8931:8960   */\n      tag_74\n      jump\t// in\n    tag_194:\n        /* \"#utility.yul\":8921:8929   */\n      dup2\n        /* \"#utility.yul\":8917:8961   */\n      add\n        /* \"#utility.yul\":9114:9116   */\n      0x20\n        /* \"#utility.yul\":9102:9112   */\n      dup6\n        /* \"#utility.yul\":9099:9117   */\n      lt\n        /* \"#utility.yul\":9096:9145   */\n      iszero\n      tag_195\n      jumpi\n        /* \"#utility.yul\":9135:9143   */\n      dup2\n        /* \"#utility.yul\":9120:9143   */\n      swap1\n      pop\n        /* \"#utility.yul\":9096:9145   */\n    tag_195:\n        /* \"#utility.yul\":9158:9238   */\n      tag_196\n        /* \"#utility.yul\":9214:9236   */\n      tag_197\n        /* \"#utility.yul\":9232:9235   */\n      dup6\n        /* \"#utility.yul\":9214:9236   */\n      tag_74\n      jump\t// in\n    tag_197:\n        /* \"#utility.yul\":9204:9212   */\n      dup4\n        /* \"#utility.yul\":9200:9237   */\n      add\n        /* \"#utility.yul\":9187:9198   */\n      dup3\n        /* \"#utility.yul\":9158:9238   */\n      tag_83\n      jump\t// in\n    tag_196:\n        /* \"#utility.yul\":8817:9248   */\n      pop\n      pop\n        /* \"#utility.yul\":8802:9248   */\n    tag_192:\n        /* \"#utility.yul\":8712:9255   */\n      pop\n      pop\n      pop\n      jump\t// out\n        /* \"#utility.yul\":9261:9378   */\n    tag_85:\n        /* \"#utility.yul\":9315:9323   */\n      0x00\n        /* \"#utility.yul\":9365:9370   */\n      dup3\n        /* \"#utility.yul\":9359:9363   */\n      dup3\n        /* \"#utility.yul\":9355:9371   */\n      shr\n        /* \"#utility.yul\":9334:9371   */\n      swap1\n      pop\n        /* \"#utility.yul\":9261:9378   */\n      swap3\n      swap2\n      pop\n      pop\n      jump\t// out\n        /* \"#utility.yul\":9384:9553   */\n    tag_86:\n        /* \"#utility.yul\":9428:9434   */\n      0x00\n        /* \"#utility.yul\":9461:9512   */\n      tag_200\n        /* \"#utility.yul\":9509:9510   */\n      0x00\n        /* \"#utility.yul\":9505:9511   */\n      not\n        /* \"#utility.yul\":9497:9502   */\n      dup5\n        /* \"#utility.yul\":9494:9495   */\n      0x08\n        /* \"#utility.yul\":9490:9503   */\n      mul\n        /* \"#utility.yul\":9461:9512   */\n      tag_85\n      jump\t// in\n    tag_200:\n        /* \"#utility.yul\":9457:9513   */\n      not\n        /* \"#utility.yul\":9542:9546   */\n      dup1\n        /* \"#utility.yul\":9536:9540   */\n      dup4\n        /* \"#utility.yul\":9532:9547   */\n      and\n        /* \"#utility.yul\":9522:9547   */\n      swap2\n      pop\n        /* \"#utility.yul\":9435:9553   */\n      pop\n        /* \"#utility.yul\":9384:9553   */\n      swap3\n      swap2\n      pop\n      pop\n      jump\t// out\n        /* \"#utility.yul\":9558:9853   */\n    tag_87:\n        /* \"#utility.yul\":9634:9638   */\n      0x00\n        /* \"#utility.yul\":9780:9809   */\n      tag_202\n        /* \"#utility.yul\":9805:9808   */\n      dup4\n        /* \"#utility.yul\":9799:9803   */\n      dup4\n        /* \"#utility.yul\":9780:9809   */\n      tag_86\n      jump\t// in\n    tag_202:\n        /* \"#utility.yul\":9772:9809   */\n      swap2\n      pop\n        /* \"#utility.yul\":9842:9845   */\n      dup3\n        /* \"#utility.yul\":9839:9840   */\n      0x02\n        /* \"#utility.yul\":9835:9846   */\n      mul\n        /* \"#utility.yul\":9829:9833   */\n      dup3\n        /* \"#utility.yul\":9826:9847   */\n      or\n        /* \"#utility.yul\":9818:9847   */\n      swap1\n      pop\n        /* \"#utility.yul\":9558:9853   */\n      swap3\n      swap2\n      pop\n      pop\n      jump\t// out\n        /* \"#utility.yul\":9858:11253   */\n    tag_50:\n        /* \"#utility.yul\":9975:10012   */\n      tag_204\n        /* \"#utility.yul\":10008:10011   */\n      dup3\n        /* \"#utility.yul\":9975:10012   */\n      tag_57\n      jump\t// in\n    tag_204:\n        /* \"#utility.yul\":10077:10095   */\n      0xffffffffffffffff\n        /* \"#utility.yul\":10069:10075   */\n      dup2\n        /* \"#utility.yul\":10066:10096   */\n      gt\n        /* \"#utility.yul\":10063:10119   */\n      iszero\n      tag_205\n      jumpi\n        /* \"#utility.yul\":10099:10117   */\n      tag_206\n      tag_65\n      jump\t// in\n    tag_206:\n        /* \"#utility.yul\":10063:10119   */\n    tag_205:\n        /* \"#utility.yul\":10143:10181   */\n      tag_207\n        /* \"#utility.yul\":10175:10179   */\n      dup3\n        /* \"#utility.yul\":10169:10180   */\n      sload\n        /* \"#utility.yul\":10143:10181   */\n      tag_31\n      jump\t// in\n    tag_207:\n        /* \"#utility.yul\":10228:10295   */\n      tag_208\n        /* \"#utility.yul\":10288:10294   */\n      dup3\n        /* \"#utility.yul\":10280:10286   */\n      dup3\n        /* \"#utility.yul\":10274:10278   */\n      dup6\n        /* \"#utility.yul\":10228:10295   */\n      tag_84\n      jump\t// in\n    tag_208:\n        /* \"#utility.yul\":10322:10323   */\n      0x00\n        /* \"#utility.yul\":10346:10350   */\n      0x20\n        /* \"#utility.yul\":10333:10350   */\n      swap1\n      pop\n        /* \"#utility.yul\":10378:10380   */\n      0x1f\n        /* \"#utility.yul\":10370:10376   */\n      dup4\n        /* \"#utility.yul\":10367:10381   */\n      gt\n        /* \"#utility.yul\":10395:10396   */\n      0x01\n        /* \"#utility.yul\":10390:11008   */\n      dup2\n      eq\n      tag_210\n      jumpi\n        /* \"#utility.yul\":11052:11053   */\n      0x00\n        /* \"#utility.yul\":11069:11075   */\n      dup5\n        /* \"#utility.yul\":11066:11143   */\n      iszero\n      tag_211\n      jumpi\n        /* \"#utility.yul\":11118:11127   */\n      dup3\n        /* \"#utility.yul\":11113:11116   */\n      dup8\n        /* \"#utility.yul\":11109:11128   */\n      add\n        /* \"#utility.yul\":11103:11129   */\n      mload\n        /* \"#utility.yul\":11094:11129   */\n      swap1\n      pop\n        /* \"#utility.yul\":11066:11143   */\n    tag_211:\n        /* \"#utility.yul\":11169:11236   */\n      tag_212\n        /* \"#utility.yul\":11229:11235   */\n      dup6\n        /* \"#utility.yul\":11222:11227   */\n      dup3\n        /* \"#utility.yul\":11169:11236   */\n      tag_87\n      jump\t// in\n    tag_212:\n        /* \"#utility.yul\":11163:11167   */\n      dup7\n        /* \"#utility.yul\":11156:11237   */\n      sstore\n        /* \"#utility.yul\":11025:11247   */\n      pop\n        /* \"#utility.yul\":10360:11247   */\n      jump(tag_209)\n        /* \"#utility.yul\":10390:11008   */\n    tag_210:\n        /* \"#utility.yul\":10442:10446   */\n      0x1f\n        /* \"#utility.yul\":10438:10447   */\n      not\n        /* \"#utility.yul\":10430:10436   */\n      dup5\n        /* \"#utility.yul\":10426:10448   */\n      and\n        /* \"#utility.yul\":10476:10513   */\n      tag_213\n        /* \"#utility.yul\":10508:10512   */\n      dup7\n        /* \"#utility.yul\":10476:10513   */\n      tag_73\n      jump\t// in\n    tag_213:\n        /* \"#utility.yul\":10535:10536   */\n      0x00\n        /* \"#utility.yul\":10549:10757   */\n    tag_214:\n        /* \"#utility.yul\":10563:10570   */\n      dup3\n        /* \"#utility.yul\":10560:10561   */\n      dup2\n        /* \"#utility.yul\":10557:10571   */\n      lt\n        /* \"#utility.yul\":10549:10757   */\n      iszero\n      tag_216\n      jumpi\n        /* \"#utility.yul\":10642:10651   */\n      dup5\n        /* \"#utility.yul\":10637:10640   */\n      dup10\n        /* \"#utility.yul\":10633:10652   */\n      add\n        /* \"#utility.yul\":10627:10653   */\n      mload\n        /* \"#utility.yul\":10619:10625   */\n      dup3\n        /* \"#utility.yul\":10612:10654   */\n      sstore\n        /* \"#utility.yul\":10693:10694   */\n      0x01\n        /* \"#utility.yul\":10685:10691   */\n      dup3\n        /* \"#utility.yul\":10681:10695   */\n      add\n        /* \"#utility.yul\":10671:10695   */\n      swap2\n      pop\n        /* \"#utility.yul\":10740:10742   */\n      0x20\n        /* \"#utility.yul\":10729:10738   */\n      dup6\n        /* \"#utility.yul\":10725:10743   */\n      add\n        /* \"#utility.yul\":10712:10743   */\n      swap5\n      pop\n        /* \"#utility.yul\":10586:10590   */\n      0x20\n        /* \"#utility.yul\":10583:10584   */\n      dup2\n        /* \"#utility.yul\":10579:10591   */\n      add\n        /* \"#utility.yul\":10574:10591   */\n      swap1\n      pop\n        /* \"#utility.yul\":10549:10757   */\n      jump(tag_214)\n    tag_216:\n        /* \"#utility.yul\":10785:10791   */\n      dup7\n        /* \"#utility.yul\":10776:10783   */\n      dup4\n        /* \"#utility.yul\":10773:10792   */\n      lt\n        /* \"#utility.yul\":10770:10949   */\n      iszero\n      tag_217\n      jumpi\n        /* \"#utility.yul\":10843:10852   */\n      dup5\n        /* \"#utility.yul\":10838:10841   */\n      dup10\n        /* \"#utility.yul\":10834:10853   */\n      add\n        /* \"#utility.yul\":10828:10854   */\n      mload\n        /* \"#utility.yul\":10886:10934   */\n      tag_218\n        /* \"#utility.yul\":10928:10932   */\n      0x1f\n        /* \"#utility.yul\":10920:10926   */\n      dup10\n        /* \"#utility.yul\":10916:10933   */\n      and\n        /* \"#utility.yul\":10905:10914   */\n      dup3\n        /* \"#utility.yul\":10886:10934   */\n      tag_86\n      jump\t// in\n    tag_218:\n        /* \"#utility.yul\":10878:10884   */\n      dup4\n        /* \"#utility.yul\":10871:10935   */\n      sstore\n        /* \"#utility.yul\":10793:10949   */\n      pop\n        /* \"#utility.yul\":10770:10949   */\n    tag_217:\n        /* \"#utility.yul\":10995:10996   */\n      0x01\n        /* \"#utility.yul\":10991:10992   */\n      0x02\n        /* \"#utility.yul\":10983:10989   */\n      dup9\n        /* \"#utility.yul\":10979:10993   */\n      mul\n        /* \"#utility.yul\":10975:10997   */\n      add\n        /* \"#utility.yul\":10969:10973   */\n      dup9\n        /* \"#utility.yul\":10962:10998   */\n      sstore\n        /* \"#utility.yul\":10397:11008   */\n      pop\n      pop\n      pop\n        /* \"#utility.yul\":10360:11247   */\n    tag_209:\n      pop\n        /* \"#utility.yul\":9950:11253   */\n      pop\n      pop\n      pop\n        /* \"#utility.yul\":9858:11253   */\n      pop\n      pop\n      jump\t// out\n\n    auxdata: 0xa2646970667358221220a7ae8cb3e0c1e2bfb0d71b167384a859f7ff663829b154ab685c812cace83e5164736f6c634300080f0033\n}\n",
				"bytecode": {
					"linkReferences": {},
					"object": "608060405234801561001057600080fd5b50610992806100206000396000f3fe608060405234801561001057600080fd5b506004361061004c5760003560e01c80630178fe3f14610051578063092a182014610082578063a6227551146100b3578063af22068e146100cf575b600080fd5b61006b6004803603810190610066919061034a565b6100eb565b60405161007992919061041f565b60405180910390f35b61009c6004803603810190610097919061034a565b6101b3565b6040516100aa92919061041f565b60405180910390f35b6100cd60048036038101906100c89190610584565b61026f565b005b6100e960048036038101906100e491906105f3565b61029a565b005b6060600080600084815481106101045761010361064f565b5b90600052602060002090600202019050806000018160010154818054610129906106ad565b80601f0160208091040260200160405190810160405280929190818152602001828054610155906106ad565b80156101a25780601f10610177576101008083540402835291602001916101a2565b820191906000526020600020905b81548152906001019060200180831161018557829003601f168201915b505050505091509250925050915091565b600081815481106101c357600080fd5b90600052602060002090600202016000915090508060000180546101e6906106ad565b80601f0160208091040260200160405190810160405280929190818152602001828054610212906106ad565b801561025f5780601f106102345761010080835404028352916020019161025f565b820191906000526020600020905b81548152906001019060200180831161024257829003601f168201915b5050505050908060010154905082565b60008084815481106102845761028361064f565b5b9060005260206000209060020201905050505050565b6000604051806040016040528084815260200183815250908060018154018082558091505060019003906000526020600020906002020160009091909190915060008201518160000190816102ef919061088a565b506020820151816001015550505050565b6000604051905090565b600080fd5b600080fd5b6000819050919050565b61032781610314565b811461033257600080fd5b50565b6000813590506103448161031e565b92915050565b6000602082840312156103605761035f61030a565b5b600061036e84828501610335565b91505092915050565b600081519050919050565b600082825260208201905092915050565b60005b838110156103b1578082015181840152602081019050610396565b838111156103c0576000848401525b50505050565b6000601f19601f8301169050919050565b60006103e282610377565b6103ec8185610382565b93506103fc818560208601610393565b610405816103c6565b840191505092915050565b61041981610314565b82525050565b6000604082019050818103600083015261043981856103d7565b90506104486020830184610410565b9392505050565b600080fd5b600080fd5b7f4e487b7100000000000000000000000000000000000000000000000000000000600052604160045260246000fd5b610491826103c6565b810181811067ffffffffffffffff821117156104b0576104af610459565b5b80604052505050565b60006104c3610300565b90506104cf8282610488565b919050565b600067ffffffffffffffff8211156104ef576104ee610459565b5b6104f8826103c6565b9050602081019050919050565b82818337600083830152505050565b6000610527610522846104d4565b6104b9565b90508281526020810184848401111561054357610542610454565b5b61054e848285610505565b509392505050565b600082601f83011261056b5761056a61044f565b5b813561057b848260208601610514565b91505092915050565b60008060006060848603121561059d5761059c61030a565b5b60006105ab86828701610335565b935050602084013567ffffffffffffffff8111156105cc576105cb61030f565b5b6105d886828701610556565b92505060406105e986828701610335565b9150509250925092565b6000806040838503121561060a5761060961030a565b5b600083013567ffffffffffffffff8111156106285761062761030f565b5b61063485828601610556565b925050602061064585828601610335565b9150509250929050565b7f4e487b7100000000000000000000000000000000000000000000000000000000600052603260045260246000fd5b7f4e487b7100000000000000000000000000000000000000000000000000000000600052602260045260246000fd5b600060028204905060018216806106c557607f821691505b6020821081036106d8576106d761067e565b5b50919050565b60008190508160005260206000209050919050565b60006020601f8301049050919050565b600082821b905092915050565b6000600883026107407fffffffffffffffffffffffffffffffffffffffffffffffffffffffffffffffff82610703565b61074a8683610703565b95508019841693508086168417925050509392505050565b6000819050919050565b600061078761078261077d84610314565b610762565b610314565b9050919050565b6000819050919050565b6107a18361076c565b6107b56107ad8261078e565b848454610710565b825550505050565b600090565b6107ca6107bd565b6107d5818484610798565b505050565b5b818110156107f9576107ee6000826107c2565b6001810190506107db565b5050565b601f82111561083e5761080f816106de565b610818846106f3565b81016020851015610827578190505b61083b610833856106f3565b8301826107da565b50505b505050565b600082821c905092915050565b600061086160001984600802610843565b1980831691505092915050565b600061087a8383610850565b9150826002028217905092915050565b61089382610377565b67ffffffffffffffff8111156108ac576108ab610459565b5b6108b682546106ad565b6108c18282856107fd565b600060209050601f8311600181146108f457600084156108e2578287015190505b6108ec858261086e565b865550610954565b601f198416610902866106de565b60005b8281101561092a57848901518255600182019150602085019450602081019050610905565b868310156109475784890151610943601f891682610850565b8355505b6001600288020188555050505b50505050505056fea2646970667358221220a7ae8cb3e0c1e2bfb0d71b167384a859f7ff663829b154ab685c812cace83e5164736f6c634300080f0033",
					"opcodes": "PUSH1 0x80 PUSH1 0x40 MSTORE CALLVALUE DUP1 ISZERO PUSH2 0x10 JUMPI PUSH1 0x0 DUP1 REVERT JUMPDEST POP PUSH2 0x992 DUP1 PUSH2 0x20 PUSH1 0x0 CODECOPY PUSH1 0x0 RETURN INVALID PUSH1 0x80 PUSH1 0x40 MSTORE CALLVALUE DUP1 ISZERO PUSH2 0x10 JUMPI PUSH1 0x0 DUP1 REVERT JUMPDEST POP PUSH1 0x4 CALLDATASIZE LT PUSH2 0x4C JUMPI PUSH1 0x0 CALLDATALOAD PUSH1 0xE0 SHR DUP1 PUSH4 0x178FE3F EQ PUSH2 0x51 JUMPI DUP1 PUSH4 0x92A1820 EQ PUSH2 0x82 JUMPI DUP1 PUSH4 0xA6227551 EQ PUSH2 0xB3 JUMPI DUP1 PUSH4 0xAF22068E EQ PUSH2 0xCF JUMPI JUMPDEST PUSH1 0x0 DUP1 REVERT JUMPDEST PUSH2 0x6B PUSH1 0x4 DUP1 CALLDATASIZE SUB DUP2 ADD SWAP1 PUSH2 0x66 SWAP2 SWAP1 PUSH2 0x34A JUMP JUMPDEST PUSH2 0xEB JUMP JUMPDEST PUSH1 0x40 MLOAD PUSH2 0x79 SWAP3 SWAP2 SWAP1 PUSH2 0x41F JUMP JUMPDEST PUSH1 0x40 MLOAD DUP1 SWAP2 SUB SWAP1 RETURN JUMPDEST PUSH2 0x9C PUSH1 0x4 DUP1 CALLDATASIZE SUB DUP2 ADD SWAP1 PUSH2 0x97 SWAP2 SWAP1 PUSH2 0x34A JUMP JUMPDEST PUSH2 0x1B3 JUMP JUMPDEST PUSH1 0x40 MLOAD PUSH2 0xAA SWAP3 SWAP2 SWAP1 PUSH2 0x41F JUMP JUMPDEST PUSH1 0x40 MLOAD DUP1 SWAP2 SUB SWAP1 RETURN JUMPDEST PUSH2 0xCD PUSH1 0x4 DUP1 CALLDATASIZE SUB DUP2 ADD SWAP1 PUSH2 0xC8 SWAP2 SWAP1 PUSH2 0x584 JUMP JUMPDEST PUSH2 0x26F JUMP JUMPDEST STOP JUMPDEST PUSH2 0xE9 PUSH1 0x4 DUP1 CALLDATASIZE SUB DUP2 ADD SWAP1 PUSH2 0xE4 SWAP2 SWAP1 PUSH2 0x5F3 JUMP JUMPDEST PUSH2 0x29A JUMP JUMPDEST STOP JUMPDEST PUSH1 0x60 PUSH1 0x0 DUP1 PUSH1 0x0 DUP5 DUP2 SLOAD DUP2 LT PUSH2 0x104 JUMPI PUSH2 0x103 PUSH2 0x64F JUMP JUMPDEST JUMPDEST SWAP1 PUSH1 0x0 MSTORE PUSH1 0x20 PUSH1 0x0 KECCAK256 SWAP1 PUSH1 0x2 MUL ADD SWAP1 POP DUP1 PUSH1 0x0 ADD DUP2 PUSH1 0x1 ADD SLOAD DUP2 DUP1 SLOAD PUSH2 0x129 SWAP1 PUSH2 0x6AD JUMP JUMPDEST DUP1 PUSH1 0x1F ADD PUSH1 0x20 DUP1 SWAP2 DIV MUL PUSH1 0x20 ADD PUSH1 0x40 MLOAD SWAP1 DUP2 ADD PUSH1 0x40 MSTORE DUP1 SWAP3 SWAP2 SWAP1 DUP2 DUP2 MSTORE PUSH1 0x20 ADD DUP3 DUP1 SLOAD PUSH2 0x155 SWAP1 PUSH2 0x6AD JUMP JUMPDEST DUP1 ISZERO PUSH2 0x1A2 JUMPI DUP1 PUSH1 0x1F LT PUSH2 0x177 JUMPI PUSH2 0x100 DUP1 DUP4 SLOAD DIV MUL DUP4 MSTORE SWAP2 PUSH1 0x20 ADD SWAP2 PUSH2 0x1A2 JUMP JUMPDEST DUP3 ADD SWAP2 SWAP1 PUSH1 0x0 MSTORE PUSH1 0x20 PUSH1 0x0 KECCAK256 SWAP1 JUMPDEST DUP2 SLOAD DUP2 MSTORE SWAP1 PUSH1 0x1 ADD SWAP1 PUSH1 0x20 ADD DUP1 DUP4 GT PUSH2 0x185 JUMPI DUP3 SWAP1 SUB PUSH1 0x1F AND DUP3 ADD SWAP2 JUMPDEST POP POP POP POP POP SWAP2 POP SWAP3 POP SWAP3 POP POP SWAP2 POP SWAP2 JUMP JUMPDEST PUSH1 0x0 DUP2 DUP2 SLOAD DUP2 LT PUSH2 0x1C3 JUMPI PUSH1 0x0 DUP1 REVERT JUMPDEST SWAP1 PUSH1 0x0 MSTORE PUSH1 0x20 PUSH1 0x0 KECCAK256 SWAP1 PUSH1 0x2 MUL ADD PUSH1 0x0 SWAP2 POP SWAP1 POP DUP1 PUSH1 0x0 ADD DUP1 SLOAD PUSH2 0x1E6 SWAP1 PUSH2 0x6AD JUMP JUMPDEST DUP1 PUSH1 0x1F ADD PUSH1 0x20 DUP1 SWAP2 DIV MUL PUSH1 0x20 ADD PUSH1 0x40 MLOAD SWAP1 DUP2 ADD PUSH1 0x40 MSTORE DUP1 SWAP3 SWAP2 SWAP1 DUP2 DUP2 MSTORE PUSH1 0x20 ADD DUP3 DUP1 SLOAD PUSH2 0x212 SWAP1 PUSH2 0x6AD JUMP JUMPDEST DUP1 ISZERO PUSH2 0x25F JUMPI DUP1 PUSH1 0x1F LT PUSH2 0x234 JUMPI PUSH2 0x100 DUP1 DUP4 SLOAD DIV MUL DUP4 MSTORE SWAP2 PUSH1 0x20 ADD SWAP2 PUSH2 0x25F JUMP JUMPDEST DUP3 ADD SWAP2 SWAP1 PUSH1 0x0 MSTORE PUSH1 0x20 PUSH1 0x0 KECCAK256 SWAP1 JUMPDEST DUP2 SLOAD DUP2 MSTORE SWAP1 PUSH1 0x1 ADD SWAP1 PUSH1 0x20 ADD DUP1 DUP4 GT PUSH2 0x242 JUMPI DUP3 SWAP1 SUB PUSH1 0x1F AND DUP3 ADD SWAP2 JUMPDEST POP POP POP POP POP SWAP1 DUP1 PUSH1 0x1 ADD SLOAD SWAP1 POP DUP3 JUMP JUMPDEST PUSH1 0x0 DUP1 DUP5 DUP2 SLOAD DUP2 LT PUSH2 0x284 JUMPI PUSH2 0x283 PUSH2 0x64F JUMP JUMPDEST JUMPDEST SWAP1 PUSH1 0x0 MSTORE PUSH1 0x20 PUSH1 0x0 KECCAK256 SWAP1 PUSH1 0x2 MUL ADD SWAP1 POP POP POP POP POP JUMP JUMPDEST PUSH1 0x0 PUSH1 0x40 MLOAD DUP1 PUSH1 0x40 ADD PUSH1 0x40 MSTORE DUP1 DUP5 DUP2 MSTORE PUSH1 0x20 ADD DUP4 DUP2 MSTORE POP SWAP1 DUP1 PUSH1 0x1 DUP2 SLOAD ADD DUP1 DUP3 SSTORE DUP1 SWAP2 POP POP PUSH1 0x1 SWAP1 SUB SWAP1 PUSH1 0x0 MSTORE PUSH1 0x20 PUSH1 0x0 KECCAK256 SWAP1 PUSH1 0x2 MUL ADD PUSH1 0x0 SWAP1 SWAP2 SWAP1 SWAP2 SWAP1 SWAP2 POP PUSH1 0x0 DUP3 ADD MLOAD DUP2 PUSH1 0x0 ADD SWAP1 DUP2 PUSH2 0x2EF SWAP2 SWAP1 PUSH2 0x88A JUMP JUMPDEST POP PUSH1 0x20 DUP3 ADD MLOAD DUP2 PUSH1 0x1 ADD SSTORE POP POP POP POP JUMP JUMPDEST PUSH1 0x0 PUSH1 0x40 MLOAD SWAP1 POP SWAP1 JUMP JUMPDEST PUSH1 0x0 DUP1 REVERT JUMPDEST PUSH1 0x0 DUP1 REVERT JUMPDEST PUSH1 0x0 DUP2 SWAP1 POP SWAP2 SWAP1 POP JUMP JUMPDEST PUSH2 0x327 DUP2 PUSH2 0x314 JUMP JUMPDEST DUP2 EQ PUSH2 0x332 JUMPI PUSH1 0x0 DUP1 REVERT JUMPDEST POP JUMP JUMPDEST PUSH1 0x0 DUP2 CALLDATALOAD SWAP1 POP PUSH2 0x344 DUP2 PUSH2 0x31E JUMP JUMPDEST SWAP3 SWAP2 POP POP JUMP JUMPDEST PUSH1 0x0 PUSH1 0x20 DUP3 DUP5 SUB SLT ISZERO PUSH2 0x360 JUMPI PUSH2 0x35F PUSH2 0x30A JUMP JUMPDEST JUMPDEST PUSH1 0x0 PUSH2 0x36E DUP5 DUP3 DUP6 ADD PUSH2 0x335 JUMP JUMPDEST SWAP2 POP POP SWAP3 SWAP2 POP POP JUMP JUMPDEST PUSH1 0x0 DUP2 MLOAD SWAP1 POP SWAP2 SWAP1 POP JUMP JUMPDEST PUSH1 0x0 DUP3 DUP3 MSTORE PUSH1 0x20 DUP3 ADD SWAP1 POP SWAP3 SWAP2 POP POP JUMP JUMPDEST PUSH1 0x0 JUMPDEST DUP4 DUP2 LT ISZERO PUSH2 0x3B1 JUMPI DUP1 DUP3 ADD MLOAD DUP2 DUP5 ADD MSTORE PUSH1 0x20 DUP2 ADD SWAP1 POP PUSH2 0x396 JUMP JUMPDEST DUP4 DUP2 GT ISZERO PUSH2 0x3C0 JUMPI PUSH1 0x0 DUP5 DUP5 ADD MSTORE JUMPDEST POP POP POP POP JUMP JUMPDEST PUSH1 0x0 PUSH1 0x1F NOT PUSH1 0x1F DUP4 ADD AND SWAP1 POP SWAP2 SWAP1 POP JUMP JUMPDEST PUSH1 0x0 PUSH2 0x3E2 DUP3 PUSH2 0x377 JUMP JUMPDEST PUSH2 0x3EC DUP2 DUP6 PUSH2 0x382 JUMP JUMPDEST SWAP4 POP PUSH2 0x3FC DUP2 DUP6 PUSH1 0x20 DUP7 ADD PUSH2 0x393 JUMP JUMPDEST PUSH2 0x405 DUP2 PUSH2 0x3C6 JUMP JUMPDEST DUP5 ADD SWAP2 POP POP SWAP3 SWAP2 POP POP JUMP JUMPDEST PUSH2 0x419 DUP2 PUSH2 0x314 JUMP JUMPDEST DUP3 MSTORE POP POP JUMP JUMPDEST PUSH1 0x0 PUSH1 0x40 DUP3 ADD SWAP1 POP DUP2 DUP2 SUB PUSH1 0x0 DUP4 ADD MSTORE PUSH2 0x439 DUP2 DUP6 PUSH2 0x3D7 JUMP JUMPDEST SWAP1 POP PUSH2 0x448 PUSH1 0x20 DUP4 ADD DUP5 PUSH2 0x410 JUMP JUMPDEST SWAP4 SWAP3 POP POP POP JUMP JUMPDEST PUSH1 0x0 DUP1 REVERT JUMPDEST PUSH1 0x0 DUP1 REVERT JUMPDEST PUSH32 0x4E487B7100000000000000000000000000000000000000000000000000000000 PUSH1 0x0 MSTORE PUSH1 0x41 PUSH1 0x4 MSTORE PUSH1 0x24 PUSH1 0x0 REVERT JUMPDEST PUSH2 0x491 DUP3 PUSH2 0x3C6 JUMP JUMPDEST DUP2 ADD DUP2 DUP2 LT PUSH8 0xFFFFFFFFFFFFFFFF DUP3 GT OR ISZERO PUSH2 0x4B0 JUMPI PUSH2 0x4AF PUSH2 0x459 JUMP JUMPDEST JUMPDEST DUP1 PUSH1 0x40 MSTORE POP POP POP JUMP JUMPDEST PUSH1 0x0 PUSH2 0x4C3 PUSH2 0x300 JUMP JUMPDEST SWAP1 POP PUSH2 0x4CF DUP3 DUP3 PUSH2 0x488 JUMP JUMPDEST SWAP2 SWAP1 POP JUMP JUMPDEST PUSH1 0x0 PUSH8 0xFFFFFFFFFFFFFFFF DUP3 GT ISZERO PUSH2 0x4EF JUMPI PUSH2 0x4EE PUSH2 0x459 JUMP JUMPDEST JUMPDEST PUSH2 0x4F8 DUP3 PUSH2 0x3C6 JUMP JUMPDEST SWAP1 POP PUSH1 0x20 DUP2 ADD SWAP1 POP SWAP2 SWAP1 POP JUMP JUMPDEST DUP3 DUP2 DUP4 CALLDATACOPY PUSH1 0x0 DUP4 DUP4 ADD MSTORE POP POP POP JUMP JUMPDEST PUSH1 0x0 PUSH2 0x527 PUSH2 0x522 DUP5 PUSH2 0x4D4 JUMP JUMPDEST PUSH2 0x4B9 JUMP JUMPDEST SWAP1 POP DUP3 DUP2 MSTORE PUSH1 0x20 DUP2 ADD DUP5 DUP5 DUP5 ADD GT ISZERO PUSH2 0x543 JUMPI PUSH2 0x542 PUSH2 0x454 JUMP JUMPDEST JUMPDEST PUSH2 0x54E DUP5 DUP3 DUP6 PUSH2 0x505 JUMP JUMPDEST POP SWAP4 SWAP3 POP POP POP JUMP JUMPDEST PUSH1 0x0 DUP3 PUSH1 0x1F DUP4 ADD SLT PUSH2 0x56B JUMPI PUSH2 0x56A PUSH2 0x44F JUMP JUMPDEST JUMPDEST DUP2 CALLDATALOAD PUSH2 0x57B DUP5 DUP3 PUSH1 0x20 DUP7 ADD PUSH2 0x514 JUMP JUMPDEST SWAP2 POP POP SWAP3 SWAP2 POP POP JUMP JUMPDEST PUSH1 0x0 DUP1 PUSH1 0x0 PUSH1 0x60 DUP5 DUP7 SUB SLT ISZERO PUSH2 0x59D JUMPI PUSH2 0x59C PUSH2 0x30A JUMP JUMPDEST JUMPDEST PUSH1 0x0 PUSH2 0x5AB DUP7 DUP3 DUP8 ADD PUSH2 0x335 JUMP JUMPDEST SWAP4 POP POP PUSH1 0x20 DUP5 ADD CALLDATALOAD PUSH8 0xFFFFFFFFFFFFFFFF DUP2 GT ISZERO PUSH2 0x5CC JUMPI PUSH2 0x5CB PUSH2 0x30F JUMP JUMPDEST JUMPDEST PUSH2 0x5D8 DUP7 DUP3 DUP8 ADD PUSH2 0x556 JUMP JUMPDEST SWAP3 POP POP PUSH1 0x40 PUSH2 0x5E9 DUP7 DUP3 DUP8 ADD PUSH2 0x335 JUMP JUMPDEST SWAP2 POP POP SWAP3 POP SWAP3 POP SWAP3 JUMP JUMPDEST PUSH1 0x0 DUP1 PUSH1 0x40 DUP4 DUP6 SUB SLT ISZERO PUSH2 0x60A JUMPI PUSH2 0x609 PUSH2 0x30A JUMP JUMPDEST JUMPDEST PUSH1 0x0 DUP4 ADD CALLDATALOAD PUSH8 0xFFFFFFFFFFFFFFFF DUP2 GT ISZERO PUSH2 0x628 JUMPI PUSH2 0x627 PUSH2 0x30F JUMP JUMPDEST JUMPDEST PUSH2 0x634 DUP6 DUP3 DUP7 ADD PUSH2 0x556 JUMP JUMPDEST SWAP3 POP POP PUSH1 0x20 PUSH2 0x645 DUP6 DUP3 DUP7 ADD PUSH2 0x335 JUMP JUMPDEST SWAP2 POP POP SWAP3 POP SWAP3 SWAP1 POP JUMP JUMPDEST PUSH32 0x4E487B7100000000000000000000000000000000000000000000000000000000 PUSH1 0x0 MSTORE PUSH1 0x32 PUSH1 0x4 MSTORE PUSH1 0x24 PUSH1 0x0 REVERT JUMPDEST PUSH32 0x4E487B7100000000000000000000000000000000000000000000000000000000 PUSH1 0x0 MSTORE PUSH1 0x22 PUSH1 0x4 MSTORE PUSH1 0x24 PUSH1 0x0 REVERT JUMPDEST PUSH1 0x0 PUSH1 0x2 DUP3 DIV SWAP1 POP PUSH1 0x1 DUP3 AND DUP1 PUSH2 0x6C5 JUMPI PUSH1 0x7F DUP3 AND SWAP2 POP JUMPDEST PUSH1 0x20 DUP3 LT DUP2 SUB PUSH2 0x6D8 JUMPI PUSH2 0x6D7 PUSH2 0x67E JUMP JUMPDEST JUMPDEST POP SWAP2 SWAP1 POP JUMP JUMPDEST PUSH1 0x0 DUP2 SWAP1 POP DUP2 PUSH1 0x0 MSTORE PUSH1 0x20 PUSH1 0x0 KECCAK256 SWAP1 POP SWAP2 SWAP1 POP JUMP JUMPDEST PUSH1 0x0 PUSH1 0x20 PUSH1 0x1F DUP4 ADD DIV SWAP1 POP SWAP2 SWAP1 POP JUMP JUMPDEST PUSH1 0x0 DUP3 DUP3 SHL SWAP1 POP SWAP3 SWAP2 POP POP JUMP JUMPDEST PUSH1 0x0 PUSH1 0x8 DUP4 MUL PUSH2 0x740 PUSH32 0xFFFFFFFFFFFFFFFFFFFFFFFFFFFFFFFFFFFFFFFFFFFFFFFFFFFFFFFFFFFFFFFF DUP3 PUSH2 0x703 JUMP JUMPDEST PUSH2 0x74A DUP7 DUP4 PUSH2 0x703 JUMP JUMPDEST SWAP6 POP DUP1 NOT DUP5 AND SWAP4 POP DUP1 DUP7 AND DUP5 OR SWAP3 POP POP POP SWAP4 SWAP3 POP POP POP JUMP JUMPDEST PUSH1 0x0 DUP2 SWAP1 POP SWAP2 SWAP1 POP JUMP JUMPDEST PUSH1 0x0 PUSH2 0x787 PUSH2 0x782 PUSH2 0x77D DUP5 PUSH2 0x314 JUMP JUMPDEST PUSH2 0x762 JUMP JUMPDEST PUSH2 0x314 JUMP JUMPDEST SWAP1 POP SWAP2 SWAP1 POP JUMP JUMPDEST PUSH1 0x0 DUP2 SWAP1 POP SWAP2 SWAP1 POP JUMP JUMPDEST PUSH2 0x7A1 DUP4 PUSH2 0x76C JUMP JUMPDEST PUSH2 0x7B5 PUSH2 0x7AD DUP3 PUSH2 0x78E JUMP JUMPDEST DUP5 DUP5 SLOAD PUSH2 0x710 JUMP JUMPDEST DUP3 SSTORE POP POP POP POP JUMP JUMPDEST PUSH1 0x0 SWAP1 JUMP JUMPDEST PUSH2 0x7CA PUSH2 0x7BD JUMP JUMPDEST PUSH2 0x7D5 DUP2 DUP5 DUP5 PUSH2 0x798 JUMP JUMPDEST POP POP POP JUMP JUMPDEST JUMPDEST DUP2 DUP2 LT ISZERO PUSH2 0x7F9 JUMPI PUSH2 0x7EE PUSH1 0x0 DUP3 PUSH2 0x7C2 JUMP JUMPDEST PUSH1 0x1 DUP2 ADD SWAP1 POP PUSH2 0x7DB JUMP JUMPDEST POP POP JUMP JUMPDEST PUSH1 0x1F DUP3 GT ISZERO PUSH2 0x83E JUMPI PUSH2 0x80F DUP2 PUSH2 0x6DE JUMP JUMPDEST PUSH2 0x818 DUP5 PUSH2 0x6F3 JUMP JUMPDEST DUP2 ADD PUSH1 0x20 DUP6 LT ISZERO PUSH2 0x827 JUMPI DUP2 SWAP1 POP JUMPDEST PUSH2 0x83B PUSH2 0x833 DUP6 PUSH2 0x6F3 JUMP JUMPDEST DUP4 ADD DUP3 PUSH2 0x7DA JUMP JUMPDEST POP POP JUMPDEST POP POP POP JUMP JUMPDEST PUSH1 0x0 DUP3 DUP3 SHR SWAP1 POP SWAP3 SWAP2 POP POP JUMP JUMPDEST PUSH1 0x0 PUSH2 0x861 PUSH1 0x0 NOT DUP5 PUSH1 0x8 MUL PUSH2 0x843 JUMP JUMPDEST NOT DUP1 DUP4 AND SWAP2 POP POP SWAP3 SWAP2 POP POP JUMP JUMPDEST PUSH1 0x0 PUSH2 0x87A DUP4 DUP4 PUSH2 0x850 JUMP JUMPDEST SWAP2 POP DUP3 PUSH1 0x2 MUL DUP3 OR SWAP1 POP SWAP3 SWAP2 POP POP JUMP JUMPDEST PUSH2 0x893 DUP3 PUSH2 0x377 JUMP JUMPDEST PUSH8 0xFFFFFFFFFFFFFFFF DUP2 GT ISZERO PUSH2 0x8AC JUMPI PUSH2 0x8AB PUSH2 0x459 JUMP JUMPDEST JUMPDEST PUSH2 0x8B6 DUP3 SLOAD PUSH2 0x6AD JUMP JUMPDEST PUSH2 0x8C1 DUP3 DUP3 DUP6 PUSH2 0x7FD JUMP JUMPDEST PUSH1 0x0 PUSH1 0x20 SWAP1 POP PUSH1 0x1F DUP4 GT PUSH1 0x1 DUP2 EQ PUSH2 0x8F4 JUMPI PUSH1 0x0 DUP5 ISZERO PUSH2 0x8E2 JUMPI DUP3 DUP8 ADD MLOAD SWAP1 POP JUMPDEST PUSH2 0x8EC DUP6 DUP3 PUSH2 0x86E JUMP JUMPDEST DUP7 SSTORE POP PUSH2 0x954 JUMP JUMPDEST PUSH1 0x1F NOT DUP5 AND PUSH2 0x902 DUP7 PUSH2 0x6DE JUMP JUMPDEST PUSH1 0x0 JUMPDEST DUP3 DUP2 LT ISZERO PUSH2 0x92A JUMPI DUP5 DUP10 ADD MLOAD DUP3 SSTORE PUSH1 0x1 DUP3 ADD SWAP2 POP PUSH1 0x20 DUP6 ADD SWAP5 POP PUSH1 0x20 DUP2 ADD SWAP1 POP PUSH2 0x905 JUMP JUMPDEST DUP7 DUP4 LT ISZERO PUSH2 0x947 JUMPI DUP5 DUP10 ADD MLOAD PUSH2 0x943 PUSH1 0x1F DUP10 AND DUP3 PUSH2 0x850 JUMP JUMPDEST DUP4 SSTORE POP JUMPDEST PUSH1 0x1 PUSH1 0x2 DUP9 MUL ADD DUP9 SSTORE POP POP POP JUMPDEST POP POP POP POP POP POP JUMP INVALID LOG2 PUSH5 0x6970667358 0x22 SLT KECCAK256 0xA7 0xAE DUP13 0xB3 0xE0 0xC1 0xE2 0xBF 0xB0 0xD7 SHL AND PUSH20 0x84A859F7FF663829B154AB685C812CACE83E5164 PUSH20 0x6F6C634300080F00330000000000000000000000 "
				},
				"gasEstimates": {
					"creation": {
						"codeDepositCost": "490000",
						"executionCost": "524",
						"totalCost": "490524"
					},
					"external": {
						"getData(uint256)": "infinite",
						"person(uint256)": "infinite",
						"setData(string,uint256)": "infinite",
						"updateData(uint256,string,uint256)": "infinite"
					}
				},
				"methodIdentifiers": {
					"getData(uint256)": "0178fe3f",
					"person(uint256)": "092a1820",
					"setData(string,uint256)": "af22068e",
					"updateData(uint256,string,uint256)": "a6227551"
				}
			},
			"storageLayout": {
				"storage": [
					{
						"astId": 10,
						"contract": "SolidityCodes/Struct.sol:Struct",
						"label": "person",
						"offset": 0,
						"slot": "0",
						"type": "t_array(t_struct(Person)6_storage)dyn_storage"
					}
				],
				"types": {
					"t_array(t_struct(Person)6_storage)dyn_storage": {
						"base": "t_struct(Person)6_storage",
						"encoding": "dynamic_array",
						"label": "struct Struct.Person[]",
						"numberOfBytes": "32"
					},
					"t_string_storage": {
						"encoding": "bytes",
						"label": "string",
						"numberOfBytes": "32"
					},
					"t_struct(Person)6_storage": {
						"encoding": "inplace",
						"label": "struct Struct.Person",
						"members": [
							{
								"astId": 3,
								"contract": "SolidityCodes/Struct.sol:Struct",
								"label": "_name",
								"offset": 0,
								"slot": "0",
								"type": "t_string_storage"
							},
							{
								"astId": 5,
								"contract": "SolidityCodes/Struct.sol:Struct",
								"label": "_age",
								"offset": 0,
								"slot": "1",
								"type": "t_uint256"
							}
						],
						"numberOfBytes": "64"
					},
					"t_uint256": {
						"encoding": "inplace",
						"label": "uint256",
						"numberOfBytes": "32"
					}
				}
			},
			"userdoc": {
				"kind": "user",
				"methods": {},
				"version": 1
			}
		}
	}
}