{
	"SolidityCodes/Function.sol": {
		"Function": {
			"abi": [
				{
					"inputs": [],
					"name": "returnData",
					"outputs": [
						{
							"internalType": "uint256",
							"name": "",
							"type": "uint256"
						},
						{
							"internalType": "bool",
							"name": "",
							"type": "bool"
						},
						{
							"internalType": "uint256",
							"name": "",
							"type": "uint256"
						}
					],
					"stateMutability": "pure",
					"type": "function"
				},
				{
					"inputs": [],
					"name": "returnDataAssigned",
					"outputs": [
						{
							"internalType": "uint256",
							"name": "a",
							"type": "uint256"
						},
						{
							"internalType": "bool",
							"name": "b",
							"type": "bool"
						},
						{
							"internalType": "uint256",
							"name": "c",
							"type": "uint256"
						}
					],
					"stateMutability": "pure",
					"type": "function"
				},
				{
					"inputs": [],
					"name": "returnDataParams",
					"outputs": [
						{
							"internalType": "uint256",
							"name": "x",
							"type": "uint256"
						},
						{
							"internalType": "bool",
							"name": "b",
							"type": "bool"
						},
						{
							"internalType": "uint256",
							"name": "y",
							"type": "uint256"
						}
					],
					"stateMutability": "pure",
					"type": "function"
				}
			],
			"devdoc": {
				"kind": "dev",
				"methods": {},
				"version": 1
			},
			"evm": {
				"assembly": "    /* \"SolidityCodes/Function.sol\":61:442  contract Function{... */\n  mstore(0x40, 0x80)\n  callvalue\n  dup1\n  iszero\n  tag_1\n  jumpi\n  0x00\n  dup1\n  revert\ntag_1:\n  pop\n  dataSize(sub_0)\n  dup1\n  dataOffset(sub_0)\n  0x00\n  codecopy\n  0x00\n  return\nstop\n\nsub_0: assembly {\n        /* \"SolidityCodes/Function.sol\":61:442  contract Function{... */\n      mstore(0x40, 0x80)\n      callvalue\n      dup1\n      iszero\n      tag_1\n      jumpi\n      0x00\n      dup1\n      revert\n    tag_1:\n      pop\n      jumpi(tag_2, lt(calldatasize, 0x04))\n      shr(0xe0, calldataload(0x00))\n      dup1\n      0x18190617\n      eq\n      tag_3\n      jumpi\n      dup1\n      0x808b905f\n      eq\n      tag_4\n      jumpi\n      dup1\n      0xebddbaf6\n      eq\n      tag_5\n      jumpi\n    tag_2:\n      0x00\n      dup1\n      revert\n        /* \"SolidityCodes/Function.sol\":189:300  function returnDataParams() public pure returns(uint x, bool b, uint y){... */\n    tag_3:\n      tag_6\n      tag_7\n      jump\t// in\n    tag_6:\n      mload(0x40)\n      tag_8\n      swap4\n      swap3\n      swap2\n      swap1\n      tag_9\n      jump\t// in\n    tag_8:\n      mload(0x40)\n      dup1\n      swap2\n      sub\n      swap1\n      return\n        /* \"SolidityCodes/Function.sol\":308:439  function returnDataAssigned() public pure returns(uint a, bool b, uint c){... */\n    tag_4:\n      tag_10\n      tag_11\n      jump\t// in\n    tag_10:\n      mload(0x40)\n      tag_12\n      swap4\n      swap3\n      swap2\n      swap1\n      tag_9\n      jump\t// in\n    tag_12:\n      mload(0x40)\n      dup1\n      swap2\n      sub\n      swap1\n      return\n        /* \"SolidityCodes/Function.sol\":85:181  function returnData() public pure returns(uint,bool,uint){... */\n    tag_5:\n      tag_13\n      tag_14\n      jump\t// in\n    tag_13:\n      mload(0x40)\n      tag_15\n      swap4\n      swap3\n      swap2\n      swap1\n      tag_9\n      jump\t// in\n    tag_15:\n      mload(0x40)\n      dup1\n      swap2\n      sub\n      swap1\n      return\n        /* \"SolidityCodes/Function.sol\":189:300  function returnDataParams() public pure returns(uint x, bool b, uint y){... */\n    tag_7:\n        /* \"SolidityCodes/Function.sol\":237:243  uint x */\n      0x00\n        /* \"SolidityCodes/Function.sol\":245:251  bool b */\n      dup1\n        /* \"SolidityCodes/Function.sol\":253:259  uint y */\n      0x00\n        /* \"SolidityCodes/Function.sol\":279:282  100 */\n      0x64\n        /* \"SolidityCodes/Function.sol\":283:287  true */\n      0x01\n        /* \"SolidityCodes/Function.sol\":288:291  500 */\n      0x01f4\n        /* \"SolidityCodes/Function.sol\":271:292  return (100,true,500) */\n      swap3\n      pop\n      swap3\n      pop\n      swap3\n      pop\n        /* \"SolidityCodes/Function.sol\":189:300  function returnDataParams() public pure returns(uint x, bool b, uint y){... */\n      swap1\n      swap2\n      swap3\n      jump\t// out\n        /* \"SolidityCodes/Function.sol\":308:439  function returnDataAssigned() public pure returns(uint a, bool b, uint c){... */\n    tag_11:\n        /* \"SolidityCodes/Function.sol\":358:364  uint a */\n      0x00\n        /* \"SolidityCodes/Function.sol\":366:372  bool b */\n      dup1\n        /* \"SolidityCodes/Function.sol\":374:380  uint c */\n      0x00\n        /* \"SolidityCodes/Function.sol\":394:397  123 */\n      0x7b\n        /* \"SolidityCodes/Function.sol\":392:397  a=123 */\n      swap3\n      pop\n        /* \"SolidityCodes/Function.sol\":410:415  false */\n      0x00\n        /* \"SolidityCodes/Function.sol\":408:415  b=false */\n      swap2\n      pop\n        /* \"SolidityCodes/Function.sol\":428:431  567 */\n      0x0237\n        /* \"SolidityCodes/Function.sol\":426:431  c=567 */\n      swap1\n      pop\n        /* \"SolidityCodes/Function.sol\":308:439  function returnDataAssigned() public pure returns(uint a, bool b, uint c){... */\n      swap1\n      swap2\n      swap3\n      jump\t// out\n        /* \"SolidityCodes/Function.sol\":85:181  function returnData() public pure returns(uint,bool,uint){... */\n    tag_14:\n        /* \"SolidityCodes/Function.sol\":127:131  uint */\n      0x00\n        /* \"SolidityCodes/Function.sol\":132:136  bool */\n      dup1\n        /* \"SolidityCodes/Function.sol\":137:141  uint */\n      0x00\n        /* \"SolidityCodes/Function.sol\":161:164  100 */\n      0x64\n        /* \"SolidityCodes/Function.sol\":165:169  true */\n      0x01\n        /* \"SolidityCodes/Function.sol\":170:172  50 */\n      0x32\n        /* \"SolidityCodes/Function.sol\":153:173  return (100,true,50) */\n      swap3\n      pop\n      swap3\n      pop\n      swap3\n      pop\n        /* \"SolidityCodes/Function.sol\":85:181  function returnData() public pure returns(uint,bool,uint){... */\n      swap1\n      swap2\n      swap3\n      jump\t// out\n        /* \"#utility.yul\":7:84   */\n    tag_19:\n        /* \"#utility.yul\":44:51   */\n      0x00\n        /* \"#utility.yul\":73:78   */\n      dup2\n        /* \"#utility.yul\":62:78   */\n      swap1\n      pop\n        /* \"#utility.yul\":7:84   */\n      swap2\n      swap1\n      pop\n      jump\t// out\n        /* \"#utility.yul\":90:208   */\n    tag_20:\n        /* \"#utility.yul\":177:201   */\n      tag_26\n        /* \"#utility.yul\":195:200   */\n      dup2\n        /* \"#utility.yul\":177:201   */\n      tag_19\n      jump\t// in\n    tag_26:\n        /* \"#utility.yul\":172:175   */\n      dup3\n        /* \"#utility.yul\":165:202   */\n      mstore\n        /* \"#utility.yul\":90:208   */\n      pop\n      pop\n      jump\t// out\n        /* \"#utility.yul\":214:304   */\n    tag_21:\n        /* \"#utility.yul\":248:255   */\n      0x00\n        /* \"#utility.yul\":291:296   */\n      dup2\n        /* \"#utility.yul\":284:297   */\n      iszero\n        /* \"#utility.yul\":277:298   */\n      iszero\n        /* \"#utility.yul\":266:298   */\n      swap1\n      pop\n        /* \"#utility.yul\":214:304   */\n      swap2\n      swap1\n      pop\n      jump\t// out\n        /* \"#utility.yul\":310:419   */\n    tag_22:\n        /* \"#utility.yul\":391:412   */\n      tag_29\n        /* \"#utility.yul\":406:411   */\n      dup2\n        /* \"#utility.yul\":391:412   */\n      tag_21\n      jump\t// in\n    tag_29:\n        /* \"#utility.yul\":386:389   */\n      dup3\n        /* \"#utility.yul\":379:413   */\n      mstore\n        /* \"#utility.yul\":310:419   */\n      pop\n      pop\n      jump\t// out\n        /* \"#utility.yul\":425:855   */\n    tag_9:\n        /* \"#utility.yul\":568:572   */\n      0x00\n        /* \"#utility.yul\":606:608   */\n      0x60\n        /* \"#utility.yul\":595:604   */\n      dup3\n        /* \"#utility.yul\":591:609   */\n      add\n        /* \"#utility.yul\":583:609   */\n      swap1\n      pop\n        /* \"#utility.yul\":619:690   */\n      tag_31\n        /* \"#utility.yul\":687:688   */\n      0x00\n        /* \"#utility.yul\":676:685   */\n      dup4\n        /* \"#utility.yul\":672:689   */\n      add\n        /* \"#utility.yul\":663:669   */\n      dup7\n        /* \"#utility.yul\":619:690   */\n      tag_20\n      jump\t// in\n    tag_31:\n        /* \"#utility.yul\":700:766   */\n      tag_32\n        /* \"#utility.yul\":762:764   */\n      0x20\n        /* \"#utility.yul\":751:760   */\n      dup4\n        /* \"#utility.yul\":747:765   */\n      add\n        /* \"#utility.yul\":738:744   */\n      dup6\n        /* \"#utility.yul\":700:766   */\n      tag_22\n      jump\t// in\n    tag_32:\n        /* \"#utility.yul\":776:848   */\n      tag_33\n        /* \"#utility.yul\":844:846   */\n      0x40\n        /* \"#utility.yul\":833:842   */\n      dup4\n        /* \"#utility.yul\":829:847   */\n      add\n        /* \"#utility.yul\":820:826   */\n      dup5\n        /* \"#utility.yul\":776:848   */\n      tag_20\n      jump\t// in\n    tag_33:\n        /* \"#utility.yul\":425:855   */\n      swap5\n      swap4\n      pop\n      pop\n      pop\n      pop\n      jump\t// out\n\n    auxdata: 0xa2646970667358221220296001bcc211d700de3de26d4782d9552886ef2a003981b499ad674cc582d5cc64736f6c634300080f0033\n}\n",
				"bytecode": {
					"linkReferences": {},
					"object": "608060405234801561001057600080fd5b5061018b806100206000396000f3fe608060405234801561001057600080fd5b50600436106100415760003560e01c80631819061714610046578063808b905f14610066578063ebddbaf614610086575b600080fd5b61004e6100a6565b60405161005d9392919061011e565b60405180910390f35b61006e6100bd565b60405161007d9392919061011e565b60405180910390f35b61008e6100d4565b60405161009d9392919061011e565b60405180910390f35b6000806000606460016101f4925092509250909192565b6000806000607b9250600091506102379050909192565b6000806000606460016032925092509250909192565b6000819050919050565b6100fd816100ea565b82525050565b60008115159050919050565b61011881610103565b82525050565b600060608201905061013360008301866100f4565b610140602083018561010f565b61014d60408301846100f4565b94935050505056fea2646970667358221220296001bcc211d700de3de26d4782d9552886ef2a003981b499ad674cc582d5cc64736f6c634300080f0033",
					"opcodes": "PUSH1 0x80 PUSH1 0x40 MSTORE CALLVALUE DUP1 ISZERO PUSH2 0x10 JUMPI PUSH1 0x0 DUP1 REVERT JUMPDEST POP PUSH2 0x18B DUP1 PUSH2 0x20 PUSH1 0x0 CODECOPY PUSH1 0x0 RETURN INVALID PUSH1 0x80 PUSH1 0x40 MSTORE CALLVALUE DUP1 ISZERO PUSH2 0x10 JUMPI PUSH1 0x0 DUP1 REVERT JUMPDEST POP PUSH1 0x4 CALLDATASIZE LT PUSH2 0x41 JUMPI PUSH1 0x0 CALLDATALOAD PUSH1 0xE0 SHR DUP1 PUSH4 0x18190617 EQ PUSH2 0x46 JUMPI DUP1 PUSH4 0x808B905F EQ PUSH2 0x66 JUMPI DUP1 PUSH4 0xEBDDBAF6 EQ PUSH2 0x86 JUMPI JUMPDEST PUSH1 0x0 DUP1 REVERT JUMPDEST PUSH2 0x4E PUSH2 0xA6 JUMP JUMPDEST PUSH1 0x40 MLOAD PUSH2 0x5D SWAP4 SWAP3 SWAP2 SWAP1 PUSH2 0x11E JUMP JUMPDEST PUSH1 0x40 MLOAD DUP1 SWAP2 SUB SWAP1 RETURN JUMPDEST PUSH2 0x6E PUSH2 0xBD JUMP JUMPDEST PUSH1 0x40 MLOAD PUSH2 0x7D SWAP4 SWAP3 SWAP2 SWAP1 PUSH2 0x11E JUMP JUMPDEST PUSH1 0x40 MLOAD DUP1 SWAP2 SUB SWAP1 RETURN JUMPDEST PUSH2 0x8E PUSH2 0xD4 JUMP JUMPDEST PUSH1 0x40 MLOAD PUSH2 0x9D SWAP4 SWAP3 SWAP2 SWAP1 PUSH2 0x11E JUMP JUMPDEST PUSH1 0x40 MLOAD DUP1 SWAP2 SUB SWAP1 RETURN JUMPDEST PUSH1 0x0 DUP1 PUSH1 0x0 PUSH1 0x64 PUSH1 0x1 PUSH2 0x1F4 SWAP3 POP SWAP3 POP SWAP3 POP SWAP1 SWAP2 SWAP3 JUMP JUMPDEST PUSH1 0x0 DUP1 PUSH1 0x0 PUSH1 0x7B SWAP3 POP PUSH1 0x0 SWAP2 POP PUSH2 0x237 SWAP1 POP SWAP1 SWAP2 SWAP3 JUMP JUMPDEST PUSH1 0x0 DUP1 PUSH1 0x0 PUSH1 0x64 PUSH1 0x1 PUSH1 0x32 SWAP3 POP SWAP3 POP SWAP3 POP SWAP1 SWAP2 SWAP3 JUMP JUMPDEST PUSH1 0x0 DUP2 SWAP1 POP SWAP2 SWAP1 POP JUMP JUMPDEST PUSH2 0xFD DUP2 PUSH2 0xEA JUMP JUMPDEST DUP3 MSTORE POP POP JUMP JUMPDEST PUSH1 0x0 DUP2 ISZERO ISZERO SWAP1 POP SWAP2 SWAP1 POP JUMP JUMPDEST PUSH2 0x118 DUP2 PUSH2 0x103 JUMP JUMPDEST DUP3 MSTORE POP POP JUMP JUMPDEST PUSH1 0x0 PUSH1 0x60 DUP3 ADD SWAP1 POP PUSH2 0x133 PUSH1 0x0 DUP4 ADD DUP7 PUSH2 0xF4 JUMP JUMPDEST PUSH2 0x140 PUSH1 0x20 DUP4 ADD DUP6 PUSH2 0x10F JUMP JUMPDEST PUSH2 0x14D PUSH1 0x40 DUP4 ADD DUP5 PUSH2 0xF4 JUMP JUMPDEST SWAP5 SWAP4 POP POP POP POP JUMP INVALID LOG2 PUSH5 0x6970667358 0x22 SLT KECCAK256 0x29 PUSH1 0x1 0xBC 0xC2 GT 0xD7 STOP 0xDE RETURNDATASIZE 0xE2 PUSH14 0x4782D9552886EF2A003981B499AD PUSH8 0x4CC582D5CC64736F PUSH13 0x634300080F0033000000000000 "
				},
				"gasEstimates": {
					"creation": {
						"codeDepositCost": "79000",
						"executionCost": "129",
						"totalCost": "79129"
					},
					"external": {
						"returnData()": "infinite",
						"returnDataAssigned()": "infinite",
						"returnDataParams()": "infinite"
					}
				},
				"methodIdentifiers": {
					"returnData()": "ebddbaf6",
					"returnDataAssigned()": "808b905f",
					"returnDataParams()": "18190617"
				}
			},
			"storageLayout": {
				"storage": [],
				"types": null
			},
			"userdoc": {
				"kind": "user",
				"methods": {},
				"version": 1
			}
		}
	}
}