{
	"SolidityCodes/Todo_List.sol": {
		"Todo_List": {
			"abi": [
				{
					"inputs": [
						{
							"internalType": "string",
							"name": "_text",
							"type": "string"
						}
					],
					"name": "create",
					"outputs": [],
					"stateMutability": "nonpayable",
					"type": "function"
				},
				{
					"inputs": [],
					"name": "getData",
					"outputs": [],
					"stateMutability": "view",
					"type": "function"
				},
				{
					"inputs": [
						{
							"internalType": "uint256",
							"name": "",
							"type": "uint256"
						}
					],
					"name": "todos",
					"outputs": [
						{
							"internalType": "string",
							"name": "text",
							"type": "string"
						},
						{
							"internalType": "bool",
							"name": "complete",
							"type": "bool"
						}
					],
					"stateMutability": "view",
					"type": "function"
				},
				{
					"inputs": [
						{
							"internalType": "uint256",
							"name": "_ind",
							"type": "uint256"
						}
					],
					"name": "updateData",
					"outputs": [],
					"stateMutability": "nonpayable",
					"type": "function"
				}
			],
			"devdoc": {
				"kind": "dev",
				"methods": {},
				"version": 1
			},
			"evm": {
				"assembly": "    /* \"SolidityCodes/Todo_List.sol\":63:402  contract Todo_List{... */\n  mstore(0x40, 0x80)\n  callvalue\n  dup1\n  iszero\n  tag_1\n  jumpi\n  0x00\n  dup1\n  revert\ntag_1:\n  pop\n  dataSize(sub_0)\n  dup1\n  dataOffset(sub_0)\n  0x00\n  codecopy\n  0x00\n  return\nstop\n\nsub_0: assembly {\n        /* \"SolidityCodes/Todo_List.sol\":63:402  contract Todo_List{... */\n      mstore(0x40, 0x80)\n      callvalue\n      dup1\n      iszero\n      tag_1\n      jumpi\n      0x00\n      dup1\n      revert\n    tag_1:\n      pop\n      jumpi(tag_2, lt(calldatasize, 0x04))\n      shr(0xe0, calldataload(0x00))\n      dup1\n      0x09e96008\n      eq\n      tag_3\n      jumpi\n      dup1\n      0x3bc5de30\n      eq\n      tag_4\n      jumpi\n      dup1\n      0xb6a46b3b\n      eq\n      tag_5\n      jumpi\n      dup1\n      0xbc8bc2b4\n      eq\n      tag_6\n      jumpi\n    tag_2:\n      0x00\n      dup1\n      revert\n        /* \"SolidityCodes/Todo_List.sol\":290:339  function updateData(uint _ind) external{... */\n    tag_3:\n      tag_7\n      0x04\n      dup1\n      calldatasize\n      sub\n      dup2\n      add\n      swap1\n      tag_8\n      swap2\n      swap1\n      tag_9\n      jump\t// in\n    tag_8:\n      tag_10\n      jump\t// in\n    tag_7:\n      stop\n        /* \"SolidityCodes/Todo_List.sol\":347:397  function getData() external view{... */\n    tag_4:\n      tag_11\n      tag_12\n      jump\t// in\n    tag_11:\n      stop\n        /* \"SolidityCodes/Todo_List.sol\":190:282  function create(string memory _text) external{... */\n    tag_5:\n      tag_13\n      0x04\n      dup1\n      calldatasize\n      sub\n      dup2\n      add\n      swap1\n      tag_14\n      swap2\n      swap1\n      tag_15\n      jump\t// in\n    tag_14:\n      tag_16\n      jump\t// in\n    tag_13:\n      stop\n        /* \"SolidityCodes/Todo_List.sol\":161:181  Todo [] public todos */\n    tag_6:\n      tag_17\n      0x04\n      dup1\n      calldatasize\n      sub\n      dup2\n      add\n      swap1\n      tag_18\n      swap2\n      swap1\n      tag_9\n      jump\t// in\n    tag_18:\n      tag_19\n      jump\t// in\n    tag_17:\n      mload(0x40)\n      tag_20\n      swap3\n      swap2\n      swap1\n      tag_21\n      jump\t// in\n    tag_20:\n      mload(0x40)\n      dup1\n      swap2\n      sub\n      swap1\n      return\n        /* \"SolidityCodes/Todo_List.sol\":290:339  function updateData(uint _ind) external{... */\n    tag_10:\n      pop\n      jump\t// out\n        /* \"SolidityCodes/Todo_List.sol\":347:397  function getData() external view{... */\n    tag_12:\n      jump\t// out\n        /* \"SolidityCodes/Todo_List.sol\":190:282  function create(string memory _text) external{... */\n    tag_16:\n        /* \"SolidityCodes/Todo_List.sol\":246:251  todos */\n      0x00\n        /* \"SolidityCodes/Todo_List.sol\":257:273  Todo(_text,true) */\n      mload(0x40)\n      dup1\n      0x40\n      add\n      0x40\n      mstore\n      dup1\n        /* \"SolidityCodes/Todo_List.sol\":262:267  _text */\n      dup4\n        /* \"SolidityCodes/Todo_List.sol\":257:273  Todo(_text,true) */\n      dup2\n      mstore\n      0x20\n      add\n        /* \"SolidityCodes/Todo_List.sol\":268:272  true */\n      0x01\n        /* \"SolidityCodes/Todo_List.sol\":257:273  Todo(_text,true) */\n      iszero\n      iszero\n      dup2\n      mstore\n      pop\n        /* \"SolidityCodes/Todo_List.sol\":246:274  todos.push(Todo(_text,true)) */\n      swap1\n      dup1\n      0x01\n      dup2\n      sload\n      add\n      dup1\n      dup3\n      sstore\n      dup1\n      swap2\n      pop\n      pop\n      0x01\n      swap1\n      sub\n      swap1\n      0x00\n      mstore\n      keccak256(0x00, 0x20)\n      swap1\n      0x02\n      mul\n      add\n      0x00\n      swap1\n      swap2\n      swap1\n      swap2\n      swap1\n      swap2\n      pop\n      0x00\n      dup3\n      add\n      mload\n      dup2\n      0x00\n      add\n      swap1\n      dup2\n      tag_26\n      swap2\n      swap1\n      tag_27\n      jump\t// in\n    tag_26:\n      pop\n      0x20\n      dup3\n      add\n      mload\n      dup2\n      0x01\n      add\n      exp(0x0100, 0x00)\n      dup2\n      sload\n      dup2\n      0xff\n      mul\n      not\n      and\n      swap1\n      dup4\n      iszero\n      iszero\n      mul\n      or\n      swap1\n      sstore\n      pop\n      pop\n      pop\n        /* \"SolidityCodes/Todo_List.sol\":190:282  function create(string memory _text) external{... */\n      pop\n      jump\t// out\n        /* \"SolidityCodes/Todo_List.sol\":161:181  Todo [] public todos */\n    tag_19:\n      0x00\n      dup2\n      dup2\n      sload\n      dup2\n      lt\n      tag_28\n      jumpi\n      0x00\n      dup1\n      revert\n    tag_28:\n      swap1\n      0x00\n      mstore\n      keccak256(0x00, 0x20)\n      swap1\n      0x02\n      mul\n      add\n      0x00\n      swap2\n      pop\n      swap1\n      pop\n      dup1\n      0x00\n      add\n      dup1\n      sload\n      tag_30\n      swap1\n      tag_31\n      jump\t// in\n    tag_30:\n      dup1\n      0x1f\n      add\n      0x20\n      dup1\n      swap2\n      div\n      mul\n      0x20\n      add\n      mload(0x40)\n      swap1\n      dup2\n      add\n      0x40\n      mstore\n      dup1\n      swap3\n      swap2\n      swap1\n      dup2\n      dup2\n      mstore\n      0x20\n      add\n      dup3\n      dup1\n      sload\n      tag_32\n      swap1\n      tag_31\n      jump\t// in\n    tag_32:\n      dup1\n      iszero\n      tag_33\n      jumpi\n      dup1\n      0x1f\n      lt\n      tag_34\n      jumpi\n      0x0100\n      dup1\n      dup4\n      sload\n      div\n      mul\n      dup4\n      mstore\n      swap2\n      0x20\n      add\n      swap2\n      jump(tag_33)\n    tag_34:\n      dup3\n      add\n      swap2\n      swap1\n      0x00\n      mstore\n      keccak256(0x00, 0x20)\n      swap1\n    tag_35:\n      dup2\n      sload\n      dup2\n      mstore\n      swap1\n      0x01\n      add\n      swap1\n      0x20\n      add\n      dup1\n      dup4\n      gt\n      tag_35\n      jumpi\n      dup3\n      swap1\n      sub\n      0x1f\n      and\n      dup3\n      add\n      swap2\n    tag_33:\n      pop\n      pop\n      pop\n      pop\n      pop\n      swap1\n      dup1\n      0x01\n      add\n      0x00\n      swap1\n      sload\n      swap1\n      0x0100\n      exp\n      swap1\n      div\n      0xff\n      and\n      swap1\n      pop\n      dup3\n      jump\t// out\n        /* \"#utility.yul\":7:82   */\n    tag_36:\n        /* \"#utility.yul\":40:46   */\n      0x00\n        /* \"#utility.yul\":73:75   */\n      0x40\n        /* \"#utility.yul\":67:76   */\n      mload\n        /* \"#utility.yul\":57:76   */\n      swap1\n      pop\n        /* \"#utility.yul\":7:82   */\n      swap1\n      jump\t// out\n        /* \"#utility.yul\":88:205   */\n    tag_37:\n        /* \"#utility.yul\":197:198   */\n      0x00\n        /* \"#utility.yul\":194:195   */\n      dup1\n        /* \"#utility.yul\":187:199   */\n      revert\n        /* \"#utility.yul\":211:328   */\n    tag_38:\n        /* \"#utility.yul\":320:321   */\n      0x00\n        /* \"#utility.yul\":317:318   */\n      dup1\n        /* \"#utility.yul\":310:322   */\n      revert\n        /* \"#utility.yul\":334:411   */\n    tag_39:\n        /* \"#utility.yul\":371:378   */\n      0x00\n        /* \"#utility.yul\":400:405   */\n      dup2\n        /* \"#utility.yul\":389:405   */\n      swap1\n      pop\n        /* \"#utility.yul\":334:411   */\n      swap2\n      swap1\n      pop\n      jump\t// out\n        /* \"#utility.yul\":417:539   */\n    tag_40:\n        /* \"#utility.yul\":490:514   */\n      tag_80\n        /* \"#utility.yul\":508:513   */\n      dup2\n        /* \"#utility.yul\":490:514   */\n      tag_39\n      jump\t// in\n    tag_80:\n        /* \"#utility.yul\":483:488   */\n      dup2\n        /* \"#utility.yul\":480:515   */\n      eq\n        /* \"#utility.yul\":470:533   */\n      tag_81\n      jumpi\n        /* \"#utility.yul\":529:530   */\n      0x00\n        /* \"#utility.yul\":526:527   */\n      dup1\n        /* \"#utility.yul\":519:531   */\n      revert\n        /* \"#utility.yul\":470:533   */\n    tag_81:\n        /* \"#utility.yul\":417:539   */\n      pop\n      jump\t// out\n        /* \"#utility.yul\":545:684   */\n    tag_41:\n        /* \"#utility.yul\":591:596   */\n      0x00\n        /* \"#utility.yul\":629:635   */\n      dup2\n        /* \"#utility.yul\":616:636   */\n      calldataload\n        /* \"#utility.yul\":607:636   */\n      swap1\n      pop\n        /* \"#utility.yul\":645:678   */\n      tag_83\n        /* \"#utility.yul\":672:677   */\n      dup2\n        /* \"#utility.yul\":645:678   */\n      tag_40\n      jump\t// in\n    tag_83:\n        /* \"#utility.yul\":545:684   */\n      swap3\n      swap2\n      pop\n      pop\n      jump\t// out\n        /* \"#utility.yul\":690:1019   */\n    tag_9:\n        /* \"#utility.yul\":749:755   */\n      0x00\n        /* \"#utility.yul\":798:800   */\n      0x20\n        /* \"#utility.yul\":786:795   */\n      dup3\n        /* \"#utility.yul\":777:784   */\n      dup5\n        /* \"#utility.yul\":773:796   */\n      sub\n        /* \"#utility.yul\":769:801   */\n      slt\n        /* \"#utility.yul\":766:885   */\n      iszero\n      tag_85\n      jumpi\n        /* \"#utility.yul\":804:883   */\n      tag_86\n      tag_37\n      jump\t// in\n    tag_86:\n        /* \"#utility.yul\":766:885   */\n    tag_85:\n        /* \"#utility.yul\":924:925   */\n      0x00\n        /* \"#utility.yul\":949:1002   */\n      tag_87\n        /* \"#utility.yul\":994:1001   */\n      dup5\n        /* \"#utility.yul\":985:991   */\n      dup3\n        /* \"#utility.yul\":974:983   */\n      dup6\n        /* \"#utility.yul\":970:992   */\n      add\n        /* \"#utility.yul\":949:1002   */\n      tag_41\n      jump\t// in\n    tag_87:\n        /* \"#utility.yul\":939:1002   */\n      swap2\n      pop\n        /* \"#utility.yul\":895:1012   */\n      pop\n        /* \"#utility.yul\":690:1019   */\n      swap3\n      swap2\n      pop\n      pop\n      jump\t// out\n        /* \"#utility.yul\":1025:1142   */\n    tag_42:\n        /* \"#utility.yul\":1134:1135   */\n      0x00\n        /* \"#utility.yul\":1131:1132   */\n      dup1\n        /* \"#utility.yul\":1124:1136   */\n      revert\n        /* \"#utility.yul\":1148:1265   */\n    tag_43:\n        /* \"#utility.yul\":1257:1258   */\n      0x00\n        /* \"#utility.yul\":1254:1255   */\n      dup1\n        /* \"#utility.yul\":1247:1259   */\n      revert\n        /* \"#utility.yul\":1271:1373   */\n    tag_44:\n        /* \"#utility.yul\":1312:1318   */\n      0x00\n        /* \"#utility.yul\":1363:1365   */\n      0x1f\n        /* \"#utility.yul\":1359:1366   */\n      not\n        /* \"#utility.yul\":1354:1356   */\n      0x1f\n        /* \"#utility.yul\":1347:1352   */\n      dup4\n        /* \"#utility.yul\":1343:1357   */\n      add\n        /* \"#utility.yul\":1339:1367   */\n      and\n        /* \"#utility.yul\":1329:1367   */\n      swap1\n      pop\n        /* \"#utility.yul\":1271:1373   */\n      swap2\n      swap1\n      pop\n      jump\t// out\n        /* \"#utility.yul\":1379:1559   */\n    tag_45:\n        /* \"#utility.yul\":1427:1504   */\n      0x4e487b7100000000000000000000000000000000000000000000000000000000\n        /* \"#utility.yul\":1424:1425   */\n      0x00\n        /* \"#utility.yul\":1417:1505   */\n      mstore\n        /* \"#utility.yul\":1524:1528   */\n      0x41\n        /* \"#utility.yul\":1521:1522   */\n      0x04\n        /* \"#utility.yul\":1514:1529   */\n      mstore\n        /* \"#utility.yul\":1548:1552   */\n      0x24\n        /* \"#utility.yul\":1545:1546   */\n      0x00\n        /* \"#utility.yul\":1538:1553   */\n      revert\n        /* \"#utility.yul\":1565:1846   */\n    tag_46:\n        /* \"#utility.yul\":1648:1675   */\n      tag_93\n        /* \"#utility.yul\":1670:1674   */\n      dup3\n        /* \"#utility.yul\":1648:1675   */\n      tag_44\n      jump\t// in\n    tag_93:\n        /* \"#utility.yul\":1640:1646   */\n      dup2\n        /* \"#utility.yul\":1636:1676   */\n      add\n        /* \"#utility.yul\":1778:1784   */\n      dup2\n        /* \"#utility.yul\":1766:1776   */\n      dup2\n        /* \"#utility.yul\":1763:1785   */\n      lt\n        /* \"#utility.yul\":1742:1760   */\n      0xffffffffffffffff\n        /* \"#utility.yul\":1730:1740   */\n      dup3\n        /* \"#utility.yul\":1727:1761   */\n      gt\n        /* \"#utility.yul\":1724:1786   */\n      or\n        /* \"#utility.yul\":1721:1809   */\n      iszero\n      tag_94\n      jumpi\n        /* \"#utility.yul\":1789:1807   */\n      tag_95\n      tag_45\n      jump\t// in\n    tag_95:\n        /* \"#utility.yul\":1721:1809   */\n    tag_94:\n        /* \"#utility.yul\":1829:1839   */\n      dup1\n        /* \"#utility.yul\":1825:1827   */\n      0x40\n        /* \"#utility.yul\":1818:1840   */\n      mstore\n        /* \"#utility.yul\":1608:1846   */\n      pop\n        /* \"#utility.yul\":1565:1846   */\n      pop\n      pop\n      jump\t// out\n        /* \"#utility.yul\":1852:1981   */\n    tag_47:\n        /* \"#utility.yul\":1886:1892   */\n      0x00\n        /* \"#utility.yul\":1913:1933   */\n      tag_97\n      tag_36\n      jump\t// in\n    tag_97:\n        /* \"#utility.yul\":1903:1933   */\n      swap1\n      pop\n        /* \"#utility.yul\":1942:1975   */\n      tag_98\n        /* \"#utility.yul\":1970:1974   */\n      dup3\n        /* \"#utility.yul\":1962:1968   */\n      dup3\n        /* \"#utility.yul\":1942:1975   */\n      tag_46\n      jump\t// in\n    tag_98:\n        /* \"#utility.yul\":1852:1981   */\n      swap2\n      swap1\n      pop\n      jump\t// out\n        /* \"#utility.yul\":1987:2295   */\n    tag_48:\n        /* \"#utility.yul\":2049:2053   */\n      0x00\n        /* \"#utility.yul\":2139:2157   */\n      0xffffffffffffffff\n        /* \"#utility.yul\":2131:2137   */\n      dup3\n        /* \"#utility.yul\":2128:2158   */\n      gt\n        /* \"#utility.yul\":2125:2181   */\n      iszero\n      tag_100\n      jumpi\n        /* \"#utility.yul\":2161:2179   */\n      tag_101\n      tag_45\n      jump\t// in\n    tag_101:\n        /* \"#utility.yul\":2125:2181   */\n    tag_100:\n        /* \"#utility.yul\":2199:2228   */\n      tag_102\n        /* \"#utility.yul\":2221:2227   */\n      dup3\n        /* \"#utility.yul\":2199:2228   */\n      tag_44\n      jump\t// in\n    tag_102:\n        /* \"#utility.yul\":2191:2228   */\n      swap1\n      pop\n        /* \"#utility.yul\":2283:2287   */\n      0x20\n        /* \"#utility.yul\":2277:2281   */\n      dup2\n        /* \"#utility.yul\":2273:2288   */\n      add\n        /* \"#utility.yul\":2265:2288   */\n      swap1\n      pop\n        /* \"#utility.yul\":1987:2295   */\n      swap2\n      swap1\n      pop\n      jump\t// out\n        /* \"#utility.yul\":2301:2455   */\n    tag_49:\n        /* \"#utility.yul\":2385:2391   */\n      dup3\n        /* \"#utility.yul\":2380:2383   */\n      dup2\n        /* \"#utility.yul\":2375:2378   */\n      dup4\n        /* \"#utility.yul\":2362:2392   */\n      calldatacopy\n        /* \"#utility.yul\":2447:2448   */\n      0x00\n        /* \"#utility.yul\":2438:2444   */\n      dup4\n        /* \"#utility.yul\":2433:2436   */\n      dup4\n        /* \"#utility.yul\":2429:2445   */\n      add\n        /* \"#utility.yul\":2422:2449   */\n      mstore\n        /* \"#utility.yul\":2301:2455   */\n      pop\n      pop\n      pop\n      jump\t// out\n        /* \"#utility.yul\":2461:2873   */\n    tag_50:\n        /* \"#utility.yul\":2539:2544   */\n      0x00\n        /* \"#utility.yul\":2564:2630   */\n      tag_105\n        /* \"#utility.yul\":2580:2629   */\n      tag_106\n        /* \"#utility.yul\":2622:2628   */\n      dup5\n        /* \"#utility.yul\":2580:2629   */\n      tag_48\n      jump\t// in\n    tag_106:\n        /* \"#utility.yul\":2564:2630   */\n      tag_47\n      jump\t// in\n    tag_105:\n        /* \"#utility.yul\":2555:2630   */\n      swap1\n      pop\n        /* \"#utility.yul\":2653:2659   */\n      dup3\n        /* \"#utility.yul\":2646:2651   */\n      dup2\n        /* \"#utility.yul\":2639:2660   */\n      mstore\n        /* \"#utility.yul\":2691:2695   */\n      0x20\n        /* \"#utility.yul\":2684:2689   */\n      dup2\n        /* \"#utility.yul\":2680:2696   */\n      add\n        /* \"#utility.yul\":2729:2732   */\n      dup5\n        /* \"#utility.yul\":2720:2726   */\n      dup5\n        /* \"#utility.yul\":2715:2718   */\n      dup5\n        /* \"#utility.yul\":2711:2727   */\n      add\n        /* \"#utility.yul\":2708:2733   */\n      gt\n        /* \"#utility.yul\":2705:2817   */\n      iszero\n      tag_107\n      jumpi\n        /* \"#utility.yul\":2736:2815   */\n      tag_108\n      tag_43\n      jump\t// in\n    tag_108:\n        /* \"#utility.yul\":2705:2817   */\n    tag_107:\n        /* \"#utility.yul\":2826:2867   */\n      tag_109\n        /* \"#utility.yul\":2860:2866   */\n      dup5\n        /* \"#utility.yul\":2855:2858   */\n      dup3\n        /* \"#utility.yul\":2850:2853   */\n      dup6\n        /* \"#utility.yul\":2826:2867   */\n      tag_49\n      jump\t// in\n    tag_109:\n        /* \"#utility.yul\":2545:2873   */\n      pop\n        /* \"#utility.yul\":2461:2873   */\n      swap4\n      swap3\n      pop\n      pop\n      pop\n      jump\t// out\n        /* \"#utility.yul\":2893:3233   */\n    tag_51:\n        /* \"#utility.yul\":2949:2954   */\n      0x00\n        /* \"#utility.yul\":2998:3001   */\n      dup3\n        /* \"#utility.yul\":2991:2995   */\n      0x1f\n        /* \"#utility.yul\":2983:2989   */\n      dup4\n        /* \"#utility.yul\":2979:2996   */\n      add\n        /* \"#utility.yul\":2975:3002   */\n      slt\n        /* \"#utility.yul\":2965:3087   */\n      tag_111\n      jumpi\n        /* \"#utility.yul\":3006:3085   */\n      tag_112\n      tag_42\n      jump\t// in\n    tag_112:\n        /* \"#utility.yul\":2965:3087   */\n    tag_111:\n        /* \"#utility.yul\":3123:3129   */\n      dup2\n        /* \"#utility.yul\":3110:3130   */\n      calldataload\n        /* \"#utility.yul\":3148:3227   */\n      tag_113\n        /* \"#utility.yul\":3223:3226   */\n      dup5\n        /* \"#utility.yul\":3215:3221   */\n      dup3\n        /* \"#utility.yul\":3208:3212   */\n      0x20\n        /* \"#utility.yul\":3200:3206   */\n      dup7\n        /* \"#utility.yul\":3196:3213   */\n      add\n        /* \"#utility.yul\":3148:3227   */\n      tag_50\n      jump\t// in\n    tag_113:\n        /* \"#utility.yul\":3139:3227   */\n      swap2\n      pop\n        /* \"#utility.yul\":2955:3233   */\n      pop\n        /* \"#utility.yul\":2893:3233   */\n      swap3\n      swap2\n      pop\n      pop\n      jump\t// out\n        /* \"#utility.yul\":3239:3748   */\n    tag_15:\n        /* \"#utility.yul\":3308:3314   */\n      0x00\n        /* \"#utility.yul\":3357:3359   */\n      0x20\n        /* \"#utility.yul\":3345:3354   */\n      dup3\n        /* \"#utility.yul\":3336:3343   */\n      dup5\n        /* \"#utility.yul\":3332:3355   */\n      sub\n        /* \"#utility.yul\":3328:3360   */\n      slt\n        /* \"#utility.yul\":3325:3444   */\n      iszero\n      tag_115\n      jumpi\n        /* \"#utility.yul\":3363:3442   */\n      tag_116\n      tag_37\n      jump\t// in\n    tag_116:\n        /* \"#utility.yul\":3325:3444   */\n    tag_115:\n        /* \"#utility.yul\":3511:3512   */\n      0x00\n        /* \"#utility.yul\":3500:3509   */\n      dup3\n        /* \"#utility.yul\":3496:3513   */\n      add\n        /* \"#utility.yul\":3483:3514   */\n      calldataload\n        /* \"#utility.yul\":3541:3559   */\n      0xffffffffffffffff\n        /* \"#utility.yul\":3533:3539   */\n      dup2\n        /* \"#utility.yul\":3530:3560   */\n      gt\n        /* \"#utility.yul\":3527:3644   */\n      iszero\n      tag_117\n      jumpi\n        /* \"#utility.yul\":3563:3642   */\n      tag_118\n      tag_38\n      jump\t// in\n    tag_118:\n        /* \"#utility.yul\":3527:3644   */\n    tag_117:\n        /* \"#utility.yul\":3668:3731   */\n      tag_119\n        /* \"#utility.yul\":3723:3730   */\n      dup5\n        /* \"#utility.yul\":3714:3720   */\n      dup3\n        /* \"#utility.yul\":3703:3712   */\n      dup6\n        /* \"#utility.yul\":3699:3721   */\n      add\n        /* \"#utility.yul\":3668:3731   */\n      tag_51\n      jump\t// in\n    tag_119:\n        /* \"#utility.yul\":3658:3731   */\n      swap2\n      pop\n        /* \"#utility.yul\":3454:3741   */\n      pop\n        /* \"#utility.yul\":3239:3748   */\n      swap3\n      swap2\n      pop\n      pop\n      jump\t// out\n        /* \"#utility.yul\":3754:3853   */\n    tag_52:\n        /* \"#utility.yul\":3806:3812   */\n      0x00\n        /* \"#utility.yul\":3840:3845   */\n      dup2\n        /* \"#utility.yul\":3834:3846   */\n      mload\n        /* \"#utility.yul\":3824:3846   */\n      swap1\n      pop\n        /* \"#utility.yul\":3754:3853   */\n      swap2\n      swap1\n      pop\n      jump\t// out\n        /* \"#utility.yul\":3859:4028   */\n    tag_53:\n        /* \"#utility.yul\":3943:3954   */\n      0x00\n        /* \"#utility.yul\":3977:3983   */\n      dup3\n        /* \"#utility.yul\":3972:3975   */\n      dup3\n        /* \"#utility.yul\":3965:3984   */\n      mstore\n        /* \"#utility.yul\":4017:4021   */\n      0x20\n        /* \"#utility.yul\":4012:4015   */\n      dup3\n        /* \"#utility.yul\":4008:4022   */\n      add\n        /* \"#utility.yul\":3993:4022   */\n      swap1\n      pop\n        /* \"#utility.yul\":3859:4028   */\n      swap3\n      swap2\n      pop\n      pop\n      jump\t// out\n        /* \"#utility.yul\":4034:4341   */\n    tag_54:\n        /* \"#utility.yul\":4102:4103   */\n      0x00\n        /* \"#utility.yul\":4112:4225   */\n    tag_123:\n        /* \"#utility.yul\":4126:4132   */\n      dup4\n        /* \"#utility.yul\":4123:4124   */\n      dup2\n        /* \"#utility.yul\":4120:4133   */\n      lt\n        /* \"#utility.yul\":4112:4225   */\n      iszero\n      tag_125\n      jumpi\n        /* \"#utility.yul\":4211:4212   */\n      dup1\n        /* \"#utility.yul\":4206:4209   */\n      dup3\n        /* \"#utility.yul\":4202:4213   */\n      add\n        /* \"#utility.yul\":4196:4214   */\n      mload\n        /* \"#utility.yul\":4192:4193   */\n      dup2\n        /* \"#utility.yul\":4187:4190   */\n      dup5\n        /* \"#utility.yul\":4183:4194   */\n      add\n        /* \"#utility.yul\":4176:4215   */\n      mstore\n        /* \"#utility.yul\":4148:4150   */\n      0x20\n        /* \"#utility.yul\":4145:4146   */\n      dup2\n        /* \"#utility.yul\":4141:4151   */\n      add\n        /* \"#utility.yul\":4136:4151   */\n      swap1\n      pop\n        /* \"#utility.yul\":4112:4225   */\n      jump(tag_123)\n    tag_125:\n        /* \"#utility.yul\":4243:4249   */\n      dup4\n        /* \"#utility.yul\":4240:4241   */\n      dup2\n        /* \"#utility.yul\":4237:4250   */\n      gt\n        /* \"#utility.yul\":4234:4335   */\n      iszero\n      tag_126\n      jumpi\n        /* \"#utility.yul\":4323:4324   */\n      0x00\n        /* \"#utility.yul\":4314:4320   */\n      dup5\n        /* \"#utility.yul\":4309:4312   */\n      dup5\n        /* \"#utility.yul\":4305:4321   */\n      add\n        /* \"#utility.yul\":4298:4325   */\n      mstore\n        /* \"#utility.yul\":4234:4335   */\n    tag_126:\n        /* \"#utility.yul\":4083:4341   */\n      pop\n        /* \"#utility.yul\":4034:4341   */\n      pop\n      pop\n      pop\n      jump\t// out\n        /* \"#utility.yul\":4347:4711   */\n    tag_55:\n        /* \"#utility.yul\":4435:4438   */\n      0x00\n        /* \"#utility.yul\":4463:4502   */\n      tag_128\n        /* \"#utility.yul\":4496:4501   */\n      dup3\n        /* \"#utility.yul\":4463:4502   */\n      tag_52\n      jump\t// in\n    tag_128:\n        /* \"#utility.yul\":4518:4589   */\n      tag_129\n        /* \"#utility.yul\":4582:4588   */\n      dup2\n        /* \"#utility.yul\":4577:4580   */\n      dup6\n        /* \"#utility.yul\":4518:4589   */\n      tag_53\n      jump\t// in\n    tag_129:\n        /* \"#utility.yul\":4511:4589   */\n      swap4\n      pop\n        /* \"#utility.yul\":4598:4650   */\n      tag_130\n        /* \"#utility.yul\":4643:4649   */\n      dup2\n        /* \"#utility.yul\":4638:4641   */\n      dup6\n        /* \"#utility.yul\":4631:4635   */\n      0x20\n        /* \"#utility.yul\":4624:4629   */\n      dup7\n        /* \"#utility.yul\":4620:4636   */\n      add\n        /* \"#utility.yul\":4598:4650   */\n      tag_54\n      jump\t// in\n    tag_130:\n        /* \"#utility.yul\":4675:4704   */\n      tag_131\n        /* \"#utility.yul\":4697:4703   */\n      dup2\n        /* \"#utility.yul\":4675:4704   */\n      tag_44\n      jump\t// in\n    tag_131:\n        /* \"#utility.yul\":4670:4673   */\n      dup5\n        /* \"#utility.yul\":4666:4705   */\n      add\n        /* \"#utility.yul\":4659:4705   */\n      swap2\n      pop\n        /* \"#utility.yul\":4439:4711   */\n      pop\n        /* \"#utility.yul\":4347:4711   */\n      swap3\n      swap2\n      pop\n      pop\n      jump\t// out\n        /* \"#utility.yul\":4717:4807   */\n    tag_56:\n        /* \"#utility.yul\":4751:4758   */\n      0x00\n        /* \"#utility.yul\":4794:4799   */\n      dup2\n        /* \"#utility.yul\":4787:4800   */\n      iszero\n        /* \"#utility.yul\":4780:4801   */\n      iszero\n        /* \"#utility.yul\":4769:4801   */\n      swap1\n      pop\n        /* \"#utility.yul\":4717:4807   */\n      swap2\n      swap1\n      pop\n      jump\t// out\n        /* \"#utility.yul\":4813:4922   */\n    tag_57:\n        /* \"#utility.yul\":4894:4915   */\n      tag_134\n        /* \"#utility.yul\":4909:4914   */\n      dup2\n        /* \"#utility.yul\":4894:4915   */\n      tag_56\n      jump\t// in\n    tag_134:\n        /* \"#utility.yul\":4889:4892   */\n      dup3\n        /* \"#utility.yul\":4882:4916   */\n      mstore\n        /* \"#utility.yul\":4813:4922   */\n      pop\n      pop\n      jump\t// out\n        /* \"#utility.yul\":4928:5339   */\n    tag_21:\n        /* \"#utility.yul\":5063:5067   */\n      0x00\n        /* \"#utility.yul\":5101:5103   */\n      0x40\n        /* \"#utility.yul\":5090:5099   */\n      dup3\n        /* \"#utility.yul\":5086:5104   */\n      add\n        /* \"#utility.yul\":5078:5104   */\n      swap1\n      pop\n        /* \"#utility.yul\":5150:5159   */\n      dup2\n        /* \"#utility.yul\":5144:5148   */\n      dup2\n        /* \"#utility.yul\":5140:5160   */\n      sub\n        /* \"#utility.yul\":5136:5137   */\n      0x00\n        /* \"#utility.yul\":5125:5134   */\n      dup4\n        /* \"#utility.yul\":5121:5138   */\n      add\n        /* \"#utility.yul\":5114:5161   */\n      mstore\n        /* \"#utility.yul\":5178:5256   */\n      tag_136\n        /* \"#utility.yul\":5251:5255   */\n      dup2\n        /* \"#utility.yul\":5242:5248   */\n      dup6\n        /* \"#utility.yul\":5178:5256   */\n      tag_55\n      jump\t// in\n    tag_136:\n        /* \"#utility.yul\":5170:5256   */\n      swap1\n      pop\n        /* \"#utility.yul\":5266:5332   */\n      tag_137\n        /* \"#utility.yul\":5328:5330   */\n      0x20\n        /* \"#utility.yul\":5317:5326   */\n      dup4\n        /* \"#utility.yul\":5313:5331   */\n      add\n        /* \"#utility.yul\":5304:5310   */\n      dup5\n        /* \"#utility.yul\":5266:5332   */\n      tag_57\n      jump\t// in\n    tag_137:\n        /* \"#utility.yul\":4928:5339   */\n      swap4\n      swap3\n      pop\n      pop\n      pop\n      jump\t// out\n        /* \"#utility.yul\":5345:5525   */\n    tag_58:\n        /* \"#utility.yul\":5393:5470   */\n      0x4e487b7100000000000000000000000000000000000000000000000000000000\n        /* \"#utility.yul\":5390:5391   */\n      0x00\n        /* \"#utility.yul\":5383:5471   */\n      mstore\n        /* \"#utility.yul\":5490:5494   */\n      0x22\n        /* \"#utility.yul\":5487:5488   */\n      0x04\n        /* \"#utility.yul\":5480:5495   */\n      mstore\n        /* \"#utility.yul\":5514:5518   */\n      0x24\n        /* \"#utility.yul\":5511:5512   */\n      0x00\n        /* \"#utility.yul\":5504:5519   */\n      revert\n        /* \"#utility.yul\":5531:5851   */\n    tag_31:\n        /* \"#utility.yul\":5575:5581   */\n      0x00\n        /* \"#utility.yul\":5612:5613   */\n      0x02\n        /* \"#utility.yul\":5606:5610   */\n      dup3\n        /* \"#utility.yul\":5602:5614   */\n      div\n        /* \"#utility.yul\":5592:5614   */\n      swap1\n      pop\n        /* \"#utility.yul\":5659:5660   */\n      0x01\n        /* \"#utility.yul\":5653:5657   */\n      dup3\n        /* \"#utility.yul\":5649:5661   */\n      and\n        /* \"#utility.yul\":5680:5698   */\n      dup1\n        /* \"#utility.yul\":5670:5751   */\n      tag_140\n      jumpi\n        /* \"#utility.yul\":5736:5740   */\n      0x7f\n        /* \"#utility.yul\":5728:5734   */\n      dup3\n        /* \"#utility.yul\":5724:5741   */\n      and\n        /* \"#utility.yul\":5714:5741   */\n      swap2\n      pop\n        /* \"#utility.yul\":5670:5751   */\n    tag_140:\n        /* \"#utility.yul\":5798:5800   */\n      0x20\n        /* \"#utility.yul\":5790:5796   */\n      dup3\n        /* \"#utility.yul\":5787:5801   */\n      lt\n        /* \"#utility.yul\":5767:5785   */\n      dup2\n        /* \"#utility.yul\":5764:5802   */\n      sub\n        /* \"#utility.yul\":5761:5845   */\n      tag_141\n      jumpi\n        /* \"#utility.yul\":5817:5835   */\n      tag_142\n      tag_58\n      jump\t// in\n    tag_142:\n        /* \"#utility.yul\":5761:5845   */\n    tag_141:\n        /* \"#utility.yul\":5582:5851   */\n      pop\n        /* \"#utility.yul\":5531:5851   */\n      swap2\n      swap1\n      pop\n      jump\t// out\n        /* \"#utility.yul\":5857:5998   */\n    tag_59:\n        /* \"#utility.yul\":5906:5910   */\n      0x00\n        /* \"#utility.yul\":5929:5932   */\n      dup2\n        /* \"#utility.yul\":5921:5932   */\n      swap1\n      pop\n        /* \"#utility.yul\":5952:5955   */\n      dup2\n        /* \"#utility.yul\":5949:5950   */\n      0x00\n        /* \"#utility.yul\":5942:5956   */\n      mstore\n        /* \"#utility.yul\":5986:5990   */\n      0x20\n        /* \"#utility.yul\":5983:5984   */\n      0x00\n        /* \"#utility.yul\":5973:5991   */\n      keccak256\n        /* \"#utility.yul\":5965:5991   */\n      swap1\n      pop\n        /* \"#utility.yul\":5857:5998   */\n      swap2\n      swap1\n      pop\n      jump\t// out\n        /* \"#utility.yul\":6004:6097   */\n    tag_60:\n        /* \"#utility.yul\":6041:6047   */\n      0x00\n        /* \"#utility.yul\":6088:6090   */\n      0x20\n        /* \"#utility.yul\":6083:6085   */\n      0x1f\n        /* \"#utility.yul\":6076:6081   */\n      dup4\n        /* \"#utility.yul\":6072:6086   */\n      add\n        /* \"#utility.yul\":6068:6091   */\n      div\n        /* \"#utility.yul\":6058:6091   */\n      swap1\n      pop\n        /* \"#utility.yul\":6004:6097   */\n      swap2\n      swap1\n      pop\n      jump\t// out\n        /* \"#utility.yul\":6103:6210   */\n    tag_61:\n        /* \"#utility.yul\":6147:6155   */\n      0x00\n        /* \"#utility.yul\":6197:6202   */\n      dup3\n        /* \"#utility.yul\":6191:6195   */\n      dup3\n        /* \"#utility.yul\":6187:6203   */\n      shl\n        /* \"#utility.yul\":6166:6203   */\n      swap1\n      pop\n        /* \"#utility.yul\":6103:6210   */\n      swap3\n      swap2\n      pop\n      pop\n      jump\t// out\n        /* \"#utility.yul\":6216:6609   */\n    tag_62:\n        /* \"#utility.yul\":6285:6291   */\n      0x00\n        /* \"#utility.yul\":6335:6336   */\n      0x08\n        /* \"#utility.yul\":6323:6333   */\n      dup4\n        /* \"#utility.yul\":6319:6337   */\n      mul\n        /* \"#utility.yul\":6358:6455   */\n      tag_147\n        /* \"#utility.yul\":6388:6454   */\n      0xffffffffffffffffffffffffffffffffffffffffffffffffffffffffffffffff\n        /* \"#utility.yul\":6377:6386   */\n      dup3\n        /* \"#utility.yul\":6358:6455   */\n      tag_61\n      jump\t// in\n    tag_147:\n        /* \"#utility.yul\":6476:6515   */\n      tag_148\n        /* \"#utility.yul\":6506:6514   */\n      dup7\n        /* \"#utility.yul\":6495:6504   */\n      dup4\n        /* \"#utility.yul\":6476:6515   */\n      tag_61\n      jump\t// in\n    tag_148:\n        /* \"#utility.yul\":6464:6515   */\n      swap6\n      pop\n        /* \"#utility.yul\":6548:6552   */\n      dup1\n        /* \"#utility.yul\":6544:6553   */\n      not\n        /* \"#utility.yul\":6537:6542   */\n      dup5\n        /* \"#utility.yul\":6533:6554   */\n      and\n        /* \"#utility.yul\":6524:6554   */\n      swap4\n      pop\n        /* \"#utility.yul\":6597:6601   */\n      dup1\n        /* \"#utility.yul\":6587:6595   */\n      dup7\n        /* \"#utility.yul\":6583:6602   */\n      and\n        /* \"#utility.yul\":6576:6581   */\n      dup5\n        /* \"#utility.yul\":6573:6603   */\n      or\n        /* \"#utility.yul\":6563:6603   */\n      swap3\n      pop\n        /* \"#utility.yul\":6292:6609   */\n      pop\n      pop\n        /* \"#utility.yul\":6216:6609   */\n      swap4\n      swap3\n      pop\n      pop\n      pop\n      jump\t// out\n        /* \"#utility.yul\":6615:6675   */\n    tag_63:\n        /* \"#utility.yul\":6643:6646   */\n      0x00\n        /* \"#utility.yul\":6664:6669   */\n      dup2\n        /* \"#utility.yul\":6657:6669   */\n      swap1\n      pop\n        /* \"#utility.yul\":6615:6675   */\n      swap2\n      swap1\n      pop\n      jump\t// out\n        /* \"#utility.yul\":6681:6823   */\n    tag_64:\n        /* \"#utility.yul\":6731:6740   */\n      0x00\n        /* \"#utility.yul\":6764:6817   */\n      tag_151\n        /* \"#utility.yul\":6782:6816   */\n      tag_152\n        /* \"#utility.yul\":6791:6815   */\n      tag_153\n        /* \"#utility.yul\":6809:6814   */\n      dup5\n        /* \"#utility.yul\":6791:6815   */\n      tag_39\n      jump\t// in\n    tag_153:\n        /* \"#utility.yul\":6782:6816   */\n      tag_63\n      jump\t// in\n    tag_152:\n        /* \"#utility.yul\":6764:6817   */\n      tag_39\n      jump\t// in\n    tag_151:\n        /* \"#utility.yul\":6751:6817   */\n      swap1\n      pop\n        /* \"#utility.yul\":6681:6823   */\n      swap2\n      swap1\n      pop\n      jump\t// out\n        /* \"#utility.yul\":6829:6904   */\n    tag_65:\n        /* \"#utility.yul\":6872:6875   */\n      0x00\n        /* \"#utility.yul\":6893:6898   */\n      dup2\n        /* \"#utility.yul\":6886:6898   */\n      swap1\n      pop\n        /* \"#utility.yul\":6829:6904   */\n      swap2\n      swap1\n      pop\n      jump\t// out\n        /* \"#utility.yul\":6910:7179   */\n    tag_66:\n        /* \"#utility.yul\":7020:7059   */\n      tag_156\n        /* \"#utility.yul\":7051:7058   */\n      dup4\n        /* \"#utility.yul\":7020:7059   */\n      tag_64\n      jump\t// in\n    tag_156:\n        /* \"#utility.yul\":7081:7172   */\n      tag_157\n        /* \"#utility.yul\":7130:7171   */\n      tag_158\n        /* \"#utility.yul\":7154:7170   */\n      dup3\n        /* \"#utility.yul\":7130:7171   */\n      tag_65\n      jump\t// in\n    tag_158:\n        /* \"#utility.yul\":7122:7128   */\n      dup5\n        /* \"#utility.yul\":7115:7119   */\n      dup5\n        /* \"#utility.yul\":7109:7120   */\n      sload\n        /* \"#utility.yul\":7081:7172   */\n      tag_62\n      jump\t// in\n    tag_157:\n        /* \"#utility.yul\":7075:7079   */\n      dup3\n        /* \"#utility.yul\":7068:7173   */\n      sstore\n        /* \"#utility.yul\":6986:7179   */\n      pop\n        /* \"#utility.yul\":6910:7179   */\n      pop\n      pop\n      pop\n      jump\t// out\n        /* \"#utility.yul\":7185:7258   */\n    tag_67:\n        /* \"#utility.yul\":7230:7233   */\n      0x00\n        /* \"#utility.yul\":7185:7258   */\n      swap1\n      jump\t// out\n        /* \"#utility.yul\":7264:7453   */\n    tag_68:\n        /* \"#utility.yul\":7341:7373   */\n      tag_161\n      tag_67\n      jump\t// in\n    tag_161:\n        /* \"#utility.yul\":7382:7447   */\n      tag_162\n        /* \"#utility.yul\":7440:7446   */\n      dup2\n        /* \"#utility.yul\":7432:7438   */\n      dup5\n        /* \"#utility.yul\":7426:7430   */\n      dup5\n        /* \"#utility.yul\":7382:7447   */\n      tag_66\n      jump\t// in\n    tag_162:\n        /* \"#utility.yul\":7317:7453   */\n      pop\n        /* \"#utility.yul\":7264:7453   */\n      pop\n      pop\n      jump\t// out\n        /* \"#utility.yul\":7459:7645   */\n    tag_69:\n        /* \"#utility.yul\":7519:7639   */\n    tag_164:\n        /* \"#utility.yul\":7536:7539   */\n      dup2\n        /* \"#utility.yul\":7529:7534   */\n      dup2\n        /* \"#utility.yul\":7526:7540   */\n      lt\n        /* \"#utility.yul\":7519:7639   */\n      iszero\n      tag_166\n      jumpi\n        /* \"#utility.yul\":7590:7629   */\n      tag_167\n        /* \"#utility.yul\":7627:7628   */\n      0x00\n        /* \"#utility.yul\":7620:7625   */\n      dup3\n        /* \"#utility.yul\":7590:7629   */\n      tag_68\n      jump\t// in\n    tag_167:\n        /* \"#utility.yul\":7563:7564   */\n      0x01\n        /* \"#utility.yul\":7556:7561   */\n      dup2\n        /* \"#utility.yul\":7552:7565   */\n      add\n        /* \"#utility.yul\":7543:7565   */\n      swap1\n      pop\n        /* \"#utility.yul\":7519:7639   */\n      jump(tag_164)\n    tag_166:\n        /* \"#utility.yul\":7459:7645   */\n      pop\n      pop\n      jump\t// out\n        /* \"#utility.yul\":7651:8194   */\n    tag_70:\n        /* \"#utility.yul\":7752:7754   */\n      0x1f\n        /* \"#utility.yul\":7747:7750   */\n      dup3\n        /* \"#utility.yul\":7744:7755   */\n      gt\n        /* \"#utility.yul\":7741:8187   */\n      iszero\n      tag_169\n      jumpi\n        /* \"#utility.yul\":7786:7824   */\n      tag_170\n        /* \"#utility.yul\":7818:7823   */\n      dup2\n        /* \"#utility.yul\":7786:7824   */\n      tag_59\n      jump\t// in\n    tag_170:\n        /* \"#utility.yul\":7870:7899   */\n      tag_171\n        /* \"#utility.yul\":7888:7898   */\n      dup5\n        /* \"#utility.yul\":7870:7899   */\n      tag_60\n      jump\t// in\n    tag_171:\n        /* \"#utility.yul\":7860:7868   */\n      dup2\n        /* \"#utility.yul\":7856:7900   */\n      add\n        /* \"#utility.yul\":8053:8055   */\n      0x20\n        /* \"#utility.yul\":8041:8051   */\n      dup6\n        /* \"#utility.yul\":8038:8056   */\n      lt\n        /* \"#utility.yul\":8035:8084   */\n      iszero\n      tag_172\n      jumpi\n        /* \"#utility.yul\":8074:8082   */\n      dup2\n        /* \"#utility.yul\":8059:8082   */\n      swap1\n      pop\n        /* \"#utility.yul\":8035:8084   */\n    tag_172:\n        /* \"#utility.yul\":8097:8177   */\n      tag_173\n        /* \"#utility.yul\":8153:8175   */\n      tag_174\n        /* \"#utility.yul\":8171:8174   */\n      dup6\n        /* \"#utility.yul\":8153:8175   */\n      tag_60\n      jump\t// in\n    tag_174:\n        /* \"#utility.yul\":8143:8151   */\n      dup4\n        /* \"#utility.yul\":8139:8176   */\n      add\n        /* \"#utility.yul\":8126:8137   */\n      dup3\n        /* \"#utility.yul\":8097:8177   */\n      tag_69\n      jump\t// in\n    tag_173:\n        /* \"#utility.yul\":7756:8187   */\n      pop\n      pop\n        /* \"#utility.yul\":7741:8187   */\n    tag_169:\n        /* \"#utility.yul\":7651:8194   */\n      pop\n      pop\n      pop\n      jump\t// out\n        /* \"#utility.yul\":8200:8317   */\n    tag_71:\n        /* \"#utility.yul\":8254:8262   */\n      0x00\n        /* \"#utility.yul\":8304:8309   */\n      dup3\n        /* \"#utility.yul\":8298:8302   */\n      dup3\n        /* \"#utility.yul\":8294:8310   */\n      shr\n        /* \"#utility.yul\":8273:8310   */\n      swap1\n      pop\n        /* \"#utility.yul\":8200:8317   */\n      swap3\n      swap2\n      pop\n      pop\n      jump\t// out\n        /* \"#utility.yul\":8323:8492   */\n    tag_72:\n        /* \"#utility.yul\":8367:8373   */\n      0x00\n        /* \"#utility.yul\":8400:8451   */\n      tag_177\n        /* \"#utility.yul\":8448:8449   */\n      0x00\n        /* \"#utility.yul\":8444:8450   */\n      not\n        /* \"#utility.yul\":8436:8441   */\n      dup5\n        /* \"#utility.yul\":8433:8434   */\n      0x08\n        /* \"#utility.yul\":8429:8442   */\n      mul\n        /* \"#utility.yul\":8400:8451   */\n      tag_71\n      jump\t// in\n    tag_177:\n        /* \"#utility.yul\":8396:8452   */\n      not\n        /* \"#utility.yul\":8481:8485   */\n      dup1\n        /* \"#utility.yul\":8475:8479   */\n      dup4\n        /* \"#utility.yul\":8471:8486   */\n      and\n        /* \"#utility.yul\":8461:8486   */\n      swap2\n      pop\n        /* \"#utility.yul\":8374:8492   */\n      pop\n        /* \"#utility.yul\":8323:8492   */\n      swap3\n      swap2\n      pop\n      pop\n      jump\t// out\n        /* \"#utility.yul\":8497:8792   */\n    tag_73:\n        /* \"#utility.yul\":8573:8577   */\n      0x00\n        /* \"#utility.yul\":8719:8748   */\n      tag_179\n        /* \"#utility.yul\":8744:8747   */\n      dup4\n        /* \"#utility.yul\":8738:8742   */\n      dup4\n        /* \"#utility.yul\":8719:8748   */\n      tag_72\n      jump\t// in\n    tag_179:\n        /* \"#utility.yul\":8711:8748   */\n      swap2\n      pop\n        /* \"#utility.yul\":8781:8784   */\n      dup3\n        /* \"#utility.yul\":8778:8779   */\n      0x02\n        /* \"#utility.yul\":8774:8785   */\n      mul\n        /* \"#utility.yul\":8768:8772   */\n      dup3\n        /* \"#utility.yul\":8765:8786   */\n      or\n        /* \"#utility.yul\":8757:8786   */\n      swap1\n      pop\n        /* \"#utility.yul\":8497:8792   */\n      swap3\n      swap2\n      pop\n      pop\n      jump\t// out\n        /* \"#utility.yul\":8797:10192   */\n    tag_27:\n        /* \"#utility.yul\":8914:8951   */\n      tag_181\n        /* \"#utility.yul\":8947:8950   */\n      dup3\n        /* \"#utility.yul\":8914:8951   */\n      tag_52\n      jump\t// in\n    tag_181:\n        /* \"#utility.yul\":9016:9034   */\n      0xffffffffffffffff\n        /* \"#utility.yul\":9008:9014   */\n      dup2\n        /* \"#utility.yul\":9005:9035   */\n      gt\n        /* \"#utility.yul\":9002:9058   */\n      iszero\n      tag_182\n      jumpi\n        /* \"#utility.yul\":9038:9056   */\n      tag_183\n      tag_45\n      jump\t// in\n    tag_183:\n        /* \"#utility.yul\":9002:9058   */\n    tag_182:\n        /* \"#utility.yul\":9082:9120   */\n      tag_184\n        /* \"#utility.yul\":9114:9118   */\n      dup3\n        /* \"#utility.yul\":9108:9119   */\n      sload\n        /* \"#utility.yul\":9082:9120   */\n      tag_31\n      jump\t// in\n    tag_184:\n        /* \"#utility.yul\":9167:9234   */\n      tag_185\n        /* \"#utility.yul\":9227:9233   */\n      dup3\n        /* \"#utility.yul\":9219:9225   */\n      dup3\n        /* \"#utility.yul\":9213:9217   */\n      dup6\n        /* \"#utility.yul\":9167:9234   */\n      tag_70\n      jump\t// in\n    tag_185:\n        /* \"#utility.yul\":9261:9262   */\n      0x00\n        /* \"#utility.yul\":9285:9289   */\n      0x20\n        /* \"#utility.yul\":9272:9289   */\n      swap1\n      pop\n        /* \"#utility.yul\":9317:9319   */\n      0x1f\n        /* \"#utility.yul\":9309:9315   */\n      dup4\n        /* \"#utility.yul\":9306:9320   */\n      gt\n        /* \"#utility.yul\":9334:9335   */\n      0x01\n        /* \"#utility.yul\":9329:9947   */\n      dup2\n      eq\n      tag_187\n      jumpi\n        /* \"#utility.yul\":9991:9992   */\n      0x00\n        /* \"#utility.yul\":10008:10014   */\n      dup5\n        /* \"#utility.yul\":10005:10082   */\n      iszero\n      tag_188\n      jumpi\n        /* \"#utility.yul\":10057:10066   */\n      dup3\n        /* \"#utility.yul\":10052:10055   */\n      dup8\n        /* \"#utility.yul\":10048:10067   */\n      add\n        /* \"#utility.yul\":10042:10068   */\n      mload\n        /* \"#utility.yul\":10033:10068   */\n      swap1\n      pop\n        /* \"#utility.yul\":10005:10082   */\n    tag_188:\n        /* \"#utility.yul\":10108:10175   */\n      tag_189\n        /* \"#utility.yul\":10168:10174   */\n      dup6\n        /* \"#utility.yul\":10161:10166   */\n      dup3\n        /* \"#utility.yul\":10108:10175   */\n      tag_73\n      jump\t// in\n    tag_189:\n        /* \"#utility.yul\":10102:10106   */\n      dup7\n        /* \"#utility.yul\":10095:10176   */\n      sstore\n        /* \"#utility.yul\":9964:10186   */\n      pop\n        /* \"#utility.yul\":9299:10186   */\n      jump(tag_186)\n        /* \"#utility.yul\":9329:9947   */\n    tag_187:\n        /* \"#utility.yul\":9381:9385   */\n      0x1f\n        /* \"#utility.yul\":9377:9386   */\n      not\n        /* \"#utility.yul\":9369:9375   */\n      dup5\n        /* \"#utility.yul\":9365:9387   */\n      and\n        /* \"#utility.yul\":9415:9452   */\n      tag_190\n        /* \"#utility.yul\":9447:9451   */\n      dup7\n        /* \"#utility.yul\":9415:9452   */\n      tag_59\n      jump\t// in\n    tag_190:\n        /* \"#utility.yul\":9474:9475   */\n      0x00\n        /* \"#utility.yul\":9488:9696   */\n    tag_191:\n        /* \"#utility.yul\":9502:9509   */\n      dup3\n        /* \"#utility.yul\":9499:9500   */\n      dup2\n        /* \"#utility.yul\":9496:9510   */\n      lt\n        /* \"#utility.yul\":9488:9696   */\n      iszero\n      tag_193\n      jumpi\n        /* \"#utility.yul\":9581:9590   */\n      dup5\n        /* \"#utility.yul\":9576:9579   */\n      dup10\n        /* \"#utility.yul\":9572:9591   */\n      add\n        /* \"#utility.yul\":9566:9592   */\n      mload\n        /* \"#utility.yul\":9558:9564   */\n      dup3\n        /* \"#utility.yul\":9551:9593   */\n      sstore\n        /* \"#utility.yul\":9632:9633   */\n      0x01\n        /* \"#utility.yul\":9624:9630   */\n      dup3\n        /* \"#utility.yul\":9620:9634   */\n      add\n        /* \"#utility.yul\":9610:9634   */\n      swap2\n      pop\n        /* \"#utility.yul\":9679:9681   */\n      0x20\n        /* \"#utility.yul\":9668:9677   */\n      dup6\n        /* \"#utility.yul\":9664:9682   */\n      add\n        /* \"#utility.yul\":9651:9682   */\n      swap5\n      pop\n        /* \"#utility.yul\":9525:9529   */\n      0x20\n        /* \"#utility.yul\":9522:9523   */\n      dup2\n        /* \"#utility.yul\":9518:9530   */\n      add\n        /* \"#utility.yul\":9513:9530   */\n      swap1\n      pop\n        /* \"#utility.yul\":9488:9696   */\n      jump(tag_191)\n    tag_193:\n        /* \"#utility.yul\":9724:9730   */\n      dup7\n        /* \"#utility.yul\":9715:9722   */\n      dup4\n        /* \"#utility.yul\":9712:9731   */\n      lt\n        /* \"#utility.yul\":9709:9888   */\n      iszero\n      tag_194\n      jumpi\n        /* \"#utility.yul\":9782:9791   */\n      dup5\n        /* \"#utility.yul\":9777:9780   */\n      dup10\n        /* \"#utility.yul\":9773:9792   */\n      add\n        /* \"#utility.yul\":9767:9793   */\n      mload\n        /* \"#utility.yul\":9825:9873   */\n      tag_195\n        /* \"#utility.yul\":9867:9871   */\n      0x1f\n        /* \"#utility.yul\":9859:9865   */\n      dup10\n        /* \"#utility.yul\":9855:9872   */\n      and\n        /* \"#utility.yul\":9844:9853   */\n      dup3\n        /* \"#utility.yul\":9825:9873   */\n      tag_72\n      jump\t// in\n    tag_195:\n        /* \"#utility.yul\":9817:9823   */\n      dup4\n        /* \"#utility.yul\":9810:9874   */\n      sstore\n        /* \"#utility.yul\":9732:9888   */\n      pop\n        /* \"#utility.yul\":9709:9888   */\n    tag_194:\n        /* \"#utility.yul\":9934:9935   */\n      0x01\n        /* \"#utility.yul\":9930:9931   */\n      0x02\n        /* \"#utility.yul\":9922:9928   */\n      dup9\n        /* \"#utility.yul\":9918:9932   */\n      mul\n        /* \"#utility.yul\":9914:9936   */\n      add\n        /* \"#utility.yul\":9908:9912   */\n      dup9\n        /* \"#utility.yul\":9901:9937   */\n      sstore\n        /* \"#utility.yul\":9336:9947   */\n      pop\n      pop\n      pop\n        /* \"#utility.yul\":9299:10186   */\n    tag_186:\n      pop\n        /* \"#utility.yul\":8889:10192   */\n      pop\n      pop\n      pop\n        /* \"#utility.yul\":8797:10192   */\n      pop\n      pop\n      jump\t// out\n\n    auxdata: 0xa2646970667358221220600111afe23512aab15d1e72380cf2e0779e5cdd69d1ccc649c953253f3de31664736f6c634300080f0033\n}\n",
				"bytecode": {
					"linkReferences": {},
					"object": "608060405234801561001057600080fd5b506107fd806100206000396000f3fe608060405234801561001057600080fd5b506004361061004c5760003560e01c806309e96008146100515780633bc5de301461006d578063b6a46b3b14610077578063bc8bc2b414610093575b600080fd5b61006b6004803603810190610066919061025a565b6100c4565b005b6100756100c7565b005b610091600480360381019061008c91906103cd565b6100c9565b005b6100ad60048036038101906100a8919061025a565b610147565b6040516100bb9291906104b9565b60405180910390f35b50565b565b60006040518060400160405280838152602001600115158152509080600181540180825580915050600190039060005260206000209060020201600090919091909150600082015181600001908161012191906106f5565b5060208201518160010160006101000a81548160ff021916908315150217905550505050565b6000818154811061015757600080fd5b906000526020600020906002020160009150905080600001805461017a90610518565b80601f01602080910402602001604051908101604052809291908181526020018280546101a690610518565b80156101f35780601f106101c8576101008083540402835291602001916101f3565b820191906000526020600020905b8154815290600101906020018083116101d657829003601f168201915b5050505050908060010160009054906101000a900460ff16905082565b6000604051905090565b600080fd5b600080fd5b6000819050919050565b61023781610224565b811461024257600080fd5b50565b6000813590506102548161022e565b92915050565b6000602082840312156102705761026f61021a565b5b600061027e84828501610245565b91505092915050565b600080fd5b600080fd5b6000601f19601f8301169050919050565b7f4e487b7100000000000000000000000000000000000000000000000000000000600052604160045260246000fd5b6102da82610291565b810181811067ffffffffffffffff821117156102f9576102f86102a2565b5b80604052505050565b600061030c610210565b905061031882826102d1565b919050565b600067ffffffffffffffff821115610338576103376102a2565b5b61034182610291565b9050602081019050919050565b82818337600083830152505050565b600061037061036b8461031d565b610302565b90508281526020810184848401111561038c5761038b61028c565b5b61039784828561034e565b509392505050565b600082601f8301126103b4576103b3610287565b5b81356103c484826020860161035d565b91505092915050565b6000602082840312156103e3576103e261021a565b5b600082013567ffffffffffffffff8111156104015761040061021f565b5b61040d8482850161039f565b91505092915050565b600081519050919050565b600082825260208201905092915050565b60005b83811015610450578082015181840152602081019050610435565b8381111561045f576000848401525b50505050565b600061047082610416565b61047a8185610421565b935061048a818560208601610432565b61049381610291565b840191505092915050565b60008115159050919050565b6104b38161049e565b82525050565b600060408201905081810360008301526104d38185610465565b90506104e260208301846104aa565b9392505050565b7f4e487b7100000000000000000000000000000000000000000000000000000000600052602260045260246000fd5b6000600282049050600182168061053057607f821691505b602082108103610543576105426104e9565b5b50919050565b60008190508160005260206000209050919050565b60006020601f8301049050919050565b600082821b905092915050565b6000600883026105ab7fffffffffffffffffffffffffffffffffffffffffffffffffffffffffffffffff8261056e565b6105b5868361056e565b95508019841693508086168417925050509392505050565b6000819050919050565b60006105f26105ed6105e884610224565b6105cd565b610224565b9050919050565b6000819050919050565b61060c836105d7565b610620610618826105f9565b84845461057b565b825550505050565b600090565b610635610628565b610640818484610603565b505050565b5b818110156106645761065960008261062d565b600181019050610646565b5050565b601f8211156106a95761067a81610549565b6106838461055e565b81016020851015610692578190505b6106a661069e8561055e565b830182610645565b50505b505050565b600082821c905092915050565b60006106cc600019846008026106ae565b1980831691505092915050565b60006106e583836106bb565b9150826002028217905092915050565b6106fe82610416565b67ffffffffffffffff811115610717576107166102a2565b5b6107218254610518565b61072c828285610668565b600060209050601f83116001811461075f576000841561074d578287015190505b61075785826106d9565b8655506107bf565b601f19841661076d86610549565b60005b8281101561079557848901518255600182019150602085019450602081019050610770565b868310156107b257848901516107ae601f8916826106bb565b8355505b6001600288020188555050505b50505050505056fea2646970667358221220600111afe23512aab15d1e72380cf2e0779e5cdd69d1ccc649c953253f3de31664736f6c634300080f0033",
					"opcodes": "PUSH1 0x80 PUSH1 0x40 MSTORE CALLVALUE DUP1 ISZERO PUSH2 0x10 JUMPI PUSH1 0x0 DUP1 REVERT JUMPDEST POP PUSH2 0x7FD DUP1 PUSH2 0x20 PUSH1 0x0 CODECOPY PUSH1 0x0 RETURN INVALID PUSH1 0x80 PUSH1 0x40 MSTORE CALLVALUE DUP1 ISZERO PUSH2 0x10 JUMPI PUSH1 0x0 DUP1 REVERT JUMPDEST POP PUSH1 0x4 CALLDATASIZE LT PUSH2 0x4C JUMPI PUSH1 0x0 CALLDATALOAD PUSH1 0xE0 SHR DUP1 PUSH4 0x9E96008 EQ PUSH2 0x51 JUMPI DUP1 PUSH4 0x3BC5DE30 EQ PUSH2 0x6D JUMPI DUP1 PUSH4 0xB6A46B3B EQ PUSH2 0x77 JUMPI DUP1 PUSH4 0xBC8BC2B4 EQ PUSH2 0x93 JUMPI JUMPDEST PUSH1 0x0 DUP1 REVERT JUMPDEST PUSH2 0x6B PUSH1 0x4 DUP1 CALLDATASIZE SUB DUP2 ADD SWAP1 PUSH2 0x66 SWAP2 SWAP1 PUSH2 0x25A JUMP JUMPDEST PUSH2 0xC4 JUMP JUMPDEST STOP JUMPDEST PUSH2 0x75 PUSH2 0xC7 JUMP JUMPDEST STOP JUMPDEST PUSH2 0x91 PUSH1 0x4 DUP1 CALLDATASIZE SUB DUP2 ADD SWAP1 PUSH2 0x8C SWAP2 SWAP1 PUSH2 0x3CD JUMP JUMPDEST PUSH2 0xC9 JUMP JUMPDEST STOP JUMPDEST PUSH2 0xAD PUSH1 0x4 DUP1 CALLDATASIZE SUB DUP2 ADD SWAP1 PUSH2 0xA8 SWAP2 SWAP1 PUSH2 0x25A JUMP JUMPDEST PUSH2 0x147 JUMP JUMPDEST PUSH1 0x40 MLOAD PUSH2 0xBB SWAP3 SWAP2 SWAP1 PUSH2 0x4B9 JUMP JUMPDEST PUSH1 0x40 MLOAD DUP1 SWAP2 SUB SWAP1 RETURN JUMPDEST POP JUMP JUMPDEST JUMP JUMPDEST PUSH1 0x0 PUSH1 0x40 MLOAD DUP1 PUSH1 0x40 ADD PUSH1 0x40 MSTORE DUP1 DUP4 DUP2 MSTORE PUSH1 0x20 ADD PUSH1 0x1 ISZERO ISZERO DUP2 MSTORE POP SWAP1 DUP1 PUSH1 0x1 DUP2 SLOAD ADD DUP1 DUP3 SSTORE DUP1 SWAP2 POP POP PUSH1 0x1 SWAP1 SUB SWAP1 PUSH1 0x0 MSTORE PUSH1 0x20 PUSH1 0x0 KECCAK256 SWAP1 PUSH1 0x2 MUL ADD PUSH1 0x0 SWAP1 SWAP2 SWAP1 SWAP2 SWAP1 SWAP2 POP PUSH1 0x0 DUP3 ADD MLOAD DUP2 PUSH1 0x0 ADD SWAP1 DUP2 PUSH2 0x121 SWAP2 SWAP1 PUSH2 0x6F5 JUMP JUMPDEST POP PUSH1 0x20 DUP3 ADD MLOAD DUP2 PUSH1 0x1 ADD PUSH1 0x0 PUSH2 0x100 EXP DUP2 SLOAD DUP2 PUSH1 0xFF MUL NOT AND SWAP1 DUP4 ISZERO ISZERO MUL OR SWAP1 SSTORE POP POP POP POP JUMP JUMPDEST PUSH1 0x0 DUP2 DUP2 SLOAD DUP2 LT PUSH2 0x157 JUMPI PUSH1 0x0 DUP1 REVERT JUMPDEST SWAP1 PUSH1 0x0 MSTORE PUSH1 0x20 PUSH1 0x0 KECCAK256 SWAP1 PUSH1 0x2 MUL ADD PUSH1 0x0 SWAP2 POP SWAP1 POP DUP1 PUSH1 0x0 ADD DUP1 SLOAD PUSH2 0x17A SWAP1 PUSH2 0x518 JUMP JUMPDEST DUP1 PUSH1 0x1F ADD PUSH1 0x20 DUP1 SWAP2 DIV MUL PUSH1 0x20 ADD PUSH1 0x40 MLOAD SWAP1 DUP2 ADD PUSH1 0x40 MSTORE DUP1 SWAP3 SWAP2 SWAP1 DUP2 DUP2 MSTORE PUSH1 0x20 ADD DUP3 DUP1 SLOAD PUSH2 0x1A6 SWAP1 PUSH2 0x518 JUMP JUMPDEST DUP1 ISZERO PUSH2 0x1F3 JUMPI DUP1 PUSH1 0x1F LT PUSH2 0x1C8 JUMPI PUSH2 0x100 DUP1 DUP4 SLOAD DIV MUL DUP4 MSTORE SWAP2 PUSH1 0x20 ADD SWAP2 PUSH2 0x1F3 JUMP JUMPDEST DUP3 ADD SWAP2 SWAP1 PUSH1 0x0 MSTORE PUSH1 0x20 PUSH1 0x0 KECCAK256 SWAP1 JUMPDEST DUP2 SLOAD DUP2 MSTORE SWAP1 PUSH1 0x1 ADD SWAP1 PUSH1 0x20 ADD DUP1 DUP4 GT PUSH2 0x1D6 JUMPI DUP3 SWAP1 SUB PUSH1 0x1F AND DUP3 ADD SWAP2 JUMPDEST POP POP POP POP POP SWAP1 DUP1 PUSH1 0x1 ADD PUSH1 0x0 SWAP1 SLOAD SWAP1 PUSH2 0x100 EXP SWAP1 DIV PUSH1 0xFF AND SWAP1 POP DUP3 JUMP JUMPDEST PUSH1 0x0 PUSH1 0x40 MLOAD SWAP1 POP SWAP1 JUMP JUMPDEST PUSH1 0x0 DUP1 REVERT JUMPDEST PUSH1 0x0 DUP1 REVERT JUMPDEST PUSH1 0x0 DUP2 SWAP1 POP SWAP2 SWAP1 POP JUMP JUMPDEST PUSH2 0x237 DUP2 PUSH2 0x224 JUMP JUMPDEST DUP2 EQ PUSH2 0x242 JUMPI PUSH1 0x0 DUP1 REVERT JUMPDEST POP JUMP JUMPDEST PUSH1 0x0 DUP2 CALLDATALOAD SWAP1 POP PUSH2 0x254 DUP2 PUSH2 0x22E JUMP JUMPDEST SWAP3 SWAP2 POP POP JUMP JUMPDEST PUSH1 0x0 PUSH1 0x20 DUP3 DUP5 SUB SLT ISZERO PUSH2 0x270 JUMPI PUSH2 0x26F PUSH2 0x21A JUMP JUMPDEST JUMPDEST PUSH1 0x0 PUSH2 0x27E DUP5 DUP3 DUP6 ADD PUSH2 0x245 JUMP JUMPDEST SWAP2 POP POP SWAP3 SWAP2 POP POP JUMP JUMPDEST PUSH1 0x0 DUP1 REVERT JUMPDEST PUSH1 0x0 DUP1 REVERT JUMPDEST PUSH1 0x0 PUSH1 0x1F NOT PUSH1 0x1F DUP4 ADD AND SWAP1 POP SWAP2 SWAP1 POP JUMP JUMPDEST PUSH32 0x4E487B7100000000000000000000000000000000000000000000000000000000 PUSH1 0x0 MSTORE PUSH1 0x41 PUSH1 0x4 MSTORE PUSH1 0x24 PUSH1 0x0 REVERT JUMPDEST PUSH2 0x2DA DUP3 PUSH2 0x291 JUMP JUMPDEST DUP2 ADD DUP2 DUP2 LT PUSH8 0xFFFFFFFFFFFFFFFF DUP3 GT OR ISZERO PUSH2 0x2F9 JUMPI PUSH2 0x2F8 PUSH2 0x2A2 JUMP JUMPDEST JUMPDEST DUP1 PUSH1 0x40 MSTORE POP POP POP JUMP JUMPDEST PUSH1 0x0 PUSH2 0x30C PUSH2 0x210 JUMP JUMPDEST SWAP1 POP PUSH2 0x318 DUP3 DUP3 PUSH2 0x2D1 JUMP JUMPDEST SWAP2 SWAP1 POP JUMP JUMPDEST PUSH1 0x0 PUSH8 0xFFFFFFFFFFFFFFFF DUP3 GT ISZERO PUSH2 0x338 JUMPI PUSH2 0x337 PUSH2 0x2A2 JUMP JUMPDEST JUMPDEST PUSH2 0x341 DUP3 PUSH2 0x291 JUMP JUMPDEST SWAP1 POP PUSH1 0x20 DUP2 ADD SWAP1 POP SWAP2 SWAP1 POP JUMP JUMPDEST DUP3 DUP2 DUP4 CALLDATACOPY PUSH1 0x0 DUP4 DUP4 ADD MSTORE POP POP POP JUMP JUMPDEST PUSH1 0x0 PUSH2 0x370 PUSH2 0x36B DUP5 PUSH2 0x31D JUMP JUMPDEST PUSH2 0x302 JUMP JUMPDEST SWAP1 POP DUP3 DUP2 MSTORE PUSH1 0x20 DUP2 ADD DUP5 DUP5 DUP5 ADD GT ISZERO PUSH2 0x38C JUMPI PUSH2 0x38B PUSH2 0x28C JUMP JUMPDEST JUMPDEST PUSH2 0x397 DUP5 DUP3 DUP6 PUSH2 0x34E JUMP JUMPDEST POP SWAP4 SWAP3 POP POP POP JUMP JUMPDEST PUSH1 0x0 DUP3 PUSH1 0x1F DUP4 ADD SLT PUSH2 0x3B4 JUMPI PUSH2 0x3B3 PUSH2 0x287 JUMP JUMPDEST JUMPDEST DUP2 CALLDATALOAD PUSH2 0x3C4 DUP5 DUP3 PUSH1 0x20 DUP7 ADD PUSH2 0x35D JUMP JUMPDEST SWAP2 POP POP SWAP3 SWAP2 POP POP JUMP JUMPDEST PUSH1 0x0 PUSH1 0x20 DUP3 DUP5 SUB SLT ISZERO PUSH2 0x3E3 JUMPI PUSH2 0x3E2 PUSH2 0x21A JUMP JUMPDEST JUMPDEST PUSH1 0x0 DUP3 ADD CALLDATALOAD PUSH8 0xFFFFFFFFFFFFFFFF DUP2 GT ISZERO PUSH2 0x401 JUMPI PUSH2 0x400 PUSH2 0x21F JUMP JUMPDEST JUMPDEST PUSH2 0x40D DUP5 DUP3 DUP6 ADD PUSH2 0x39F JUMP JUMPDEST SWAP2 POP POP SWAP3 SWAP2 POP POP JUMP JUMPDEST PUSH1 0x0 DUP2 MLOAD SWAP1 POP SWAP2 SWAP1 POP JUMP JUMPDEST PUSH1 0x0 DUP3 DUP3 MSTORE PUSH1 0x20 DUP3 ADD SWAP1 POP SWAP3 SWAP2 POP POP JUMP JUMPDEST PUSH1 0x0 JUMPDEST DUP4 DUP2 LT ISZERO PUSH2 0x450 JUMPI DUP1 DUP3 ADD MLOAD DUP2 DUP5 ADD MSTORE PUSH1 0x20 DUP2 ADD SWAP1 POP PUSH2 0x435 JUMP JUMPDEST DUP4 DUP2 GT ISZERO PUSH2 0x45F JUMPI PUSH1 0x0 DUP5 DUP5 ADD MSTORE JUMPDEST POP POP POP POP JUMP JUMPDEST PUSH1 0x0 PUSH2 0x470 DUP3 PUSH2 0x416 JUMP JUMPDEST PUSH2 0x47A DUP2 DUP6 PUSH2 0x421 JUMP JUMPDEST SWAP4 POP PUSH2 0x48A DUP2 DUP6 PUSH1 0x20 DUP7 ADD PUSH2 0x432 JUMP JUMPDEST PUSH2 0x493 DUP2 PUSH2 0x291 JUMP JUMPDEST DUP5 ADD SWAP2 POP POP SWAP3 SWAP2 POP POP JUMP JUMPDEST PUSH1 0x0 DUP2 ISZERO ISZERO SWAP1 POP SWAP2 SWAP1 POP JUMP JUMPDEST PUSH2 0x4B3 DUP2 PUSH2 0x49E JUMP JUMPDEST DUP3 MSTORE POP POP JUMP JUMPDEST PUSH1 0x0 PUSH1 0x40 DUP3 ADD SWAP1 POP DUP2 DUP2 SUB PUSH1 0x0 DUP4 ADD MSTORE PUSH2 0x4D3 DUP2 DUP6 PUSH2 0x465 JUMP JUMPDEST SWAP1 POP PUSH2 0x4E2 PUSH1 0x20 DUP4 ADD DUP5 PUSH2 0x4AA JUMP JUMPDEST SWAP4 SWAP3 POP POP POP JUMP JUMPDEST PUSH32 0x4E487B7100000000000000000000000000000000000000000000000000000000 PUSH1 0x0 MSTORE PUSH1 0x22 PUSH1 0x4 MSTORE PUSH1 0x24 PUSH1 0x0 REVERT JUMPDEST PUSH1 0x0 PUSH1 0x2 DUP3 DIV SWAP1 POP PUSH1 0x1 DUP3 AND DUP1 PUSH2 0x530 JUMPI PUSH1 0x7F DUP3 AND SWAP2 POP JUMPDEST PUSH1 0x20 DUP3 LT DUP2 SUB PUSH2 0x543 JUMPI PUSH2 0x542 PUSH2 0x4E9 JUMP JUMPDEST JUMPDEST POP SWAP2 SWAP1 POP JUMP JUMPDEST PUSH1 0x0 DUP2 SWAP1 POP DUP2 PUSH1 0x0 MSTORE PUSH1 0x20 PUSH1 0x0 KECCAK256 SWAP1 POP SWAP2 SWAP1 POP JUMP JUMPDEST PUSH1 0x0 PUSH1 0x20 PUSH1 0x1F DUP4 ADD DIV SWAP1 POP SWAP2 SWAP1 POP JUMP JUMPDEST PUSH1 0x0 DUP3 DUP3 SHL SWAP1 POP SWAP3 SWAP2 POP POP JUMP JUMPDEST PUSH1 0x0 PUSH1 0x8 DUP4 MUL PUSH2 0x5AB PUSH32 0xFFFFFFFFFFFFFFFFFFFFFFFFFFFFFFFFFFFFFFFFFFFFFFFFFFFFFFFFFFFFFFFF DUP3 PUSH2 0x56E JUMP JUMPDEST PUSH2 0x5B5 DUP7 DUP4 PUSH2 0x56E JUMP JUMPDEST SWAP6 POP DUP1 NOT DUP5 AND SWAP4 POP DUP1 DUP7 AND DUP5 OR SWAP3 POP POP POP SWAP4 SWAP3 POP POP POP JUMP JUMPDEST PUSH1 0x0 DUP2 SWAP1 POP SWAP2 SWAP1 POP JUMP JUMPDEST PUSH1 0x0 PUSH2 0x5F2 PUSH2 0x5ED PUSH2 0x5E8 DUP5 PUSH2 0x224 JUMP JUMPDEST PUSH2 0x5CD JUMP JUMPDEST PUSH2 0x224 JUMP JUMPDEST SWAP1 POP SWAP2 SWAP1 POP JUMP JUMPDEST PUSH1 0x0 DUP2 SWAP1 POP SWAP2 SWAP1 POP JUMP JUMPDEST PUSH2 0x60C DUP4 PUSH2 0x5D7 JUMP JUMPDEST PUSH2 0x620 PUSH2 0x618 DUP3 PUSH2 0x5F9 JUMP JUMPDEST DUP5 DUP5 SLOAD PUSH2 0x57B JUMP JUMPDEST DUP3 SSTORE POP POP POP POP JUMP JUMPDEST PUSH1 0x0 SWAP1 JUMP JUMPDEST PUSH2 0x635 PUSH2 0x628 JUMP JUMPDEST PUSH2 0x640 DUP2 DUP5 DUP5 PUSH2 0x603 JUMP JUMPDEST POP POP POP JUMP JUMPDEST JUMPDEST DUP2 DUP2 LT ISZERO PUSH2 0x664 JUMPI PUSH2 0x659 PUSH1 0x0 DUP3 PUSH2 0x62D JUMP JUMPDEST PUSH1 0x1 DUP2 ADD SWAP1 POP PUSH2 0x646 JUMP JUMPDEST POP POP JUMP JUMPDEST PUSH1 0x1F DUP3 GT ISZERO PUSH2 0x6A9 JUMPI PUSH2 0x67A DUP2 PUSH2 0x549 JUMP JUMPDEST PUSH2 0x683 DUP5 PUSH2 0x55E JUMP JUMPDEST DUP2 ADD PUSH1 0x20 DUP6 LT ISZERO PUSH2 0x692 JUMPI DUP2 SWAP1 POP JUMPDEST PUSH2 0x6A6 PUSH2 0x69E DUP6 PUSH2 0x55E JUMP JUMPDEST DUP4 ADD DUP3 PUSH2 0x645 JUMP JUMPDEST POP POP JUMPDEST POP POP POP JUMP JUMPDEST PUSH1 0x0 DUP3 DUP3 SHR SWAP1 POP SWAP3 SWAP2 POP POP JUMP JUMPDEST PUSH1 0x0 PUSH2 0x6CC PUSH1 0x0 NOT DUP5 PUSH1 0x8 MUL PUSH2 0x6AE JUMP JUMPDEST NOT DUP1 DUP4 AND SWAP2 POP POP SWAP3 SWAP2 POP POP JUMP JUMPDEST PUSH1 0x0 PUSH2 0x6E5 DUP4 DUP4 PUSH2 0x6BB JUMP JUMPDEST SWAP2 POP DUP3 PUSH1 0x2 MUL DUP3 OR SWAP1 POP SWAP3 SWAP2 POP POP JUMP JUMPDEST PUSH2 0x6FE DUP3 PUSH2 0x416 JUMP JUMPDEST PUSH8 0xFFFFFFFFFFFFFFFF DUP2 GT ISZERO PUSH2 0x717 JUMPI PUSH2 0x716 PUSH2 0x2A2 JUMP JUMPDEST JUMPDEST PUSH2 0x721 DUP3 SLOAD PUSH2 0x518 JUMP JUMPDEST PUSH2 0x72C DUP3 DUP3 DUP6 PUSH2 0x668 JUMP JUMPDEST PUSH1 0x0 PUSH1 0x20 SWAP1 POP PUSH1 0x1F DUP4 GT PUSH1 0x1 DUP2 EQ PUSH2 0x75F JUMPI PUSH1 0x0 DUP5 ISZERO PUSH2 0x74D JUMPI DUP3 DUP8 ADD MLOAD SWAP1 POP JUMPDEST PUSH2 0x757 DUP6 DUP3 PUSH2 0x6D9 JUMP JUMPDEST DUP7 SSTORE POP PUSH2 0x7BF JUMP JUMPDEST PUSH1 0x1F NOT DUP5 AND PUSH2 0x76D DUP7 PUSH2 0x549 JUMP JUMPDEST PUSH1 0x0 JUMPDEST DUP3 DUP2 LT ISZERO PUSH2 0x795 JUMPI DUP5 DUP10 ADD MLOAD DUP3 SSTORE PUSH1 0x1 DUP3 ADD SWAP2 POP PUSH1 0x20 DUP6 ADD SWAP5 POP PUSH1 0x20 DUP2 ADD SWAP1 POP PUSH2 0x770 JUMP JUMPDEST DUP7 DUP4 LT ISZERO PUSH2 0x7B2 JUMPI DUP5 DUP10 ADD MLOAD PUSH2 0x7AE PUSH1 0x1F DUP10 AND DUP3 PUSH2 0x6BB JUMP JUMPDEST DUP4 SSTORE POP JUMPDEST PUSH1 0x1 PUSH1 0x2 DUP9 MUL ADD DUP9 SSTORE POP POP POP JUMPDEST POP POP POP POP POP POP JUMP INVALID LOG2 PUSH5 0x6970667358 0x22 SLT KECCAK256 PUSH1 0x1 GT 0xAF 0xE2 CALLDATALOAD SLT 0xAA 0xB1 0x5D 0x1E PUSH19 0x380CF2E0779E5CDD69D1CCC649C953253F3DE3 AND PUSH5 0x736F6C6343 STOP ADDMOD 0xF STOP CALLER "
				},
				"gasEstimates": {
					"creation": {
						"codeDepositCost": "409000",
						"executionCost": "443",
						"totalCost": "409443"
					},
					"external": {
						"create(string)": "infinite",
						"getData()": "144",
						"todos(uint256)": "infinite",
						"updateData(uint256)": "384"
					}
				},
				"methodIdentifiers": {
					"create(string)": "b6a46b3b",
					"getData()": "3bc5de30",
					"todos(uint256)": "bc8bc2b4",
					"updateData(uint256)": "09e96008"
				}
			},
			"storageLayout": {
				"storage": [
					{
						"astId": 10,
						"contract": "SolidityCodes/Todo_List.sol:Todo_List",
						"label": "todos",
						"offset": 0,
						"slot": "0",
						"type": "t_array(t_struct(Todo)6_storage)dyn_storage"
					}
				],
				"types": {
					"t_array(t_struct(Todo)6_storage)dyn_storage": {
						"base": "t_struct(Todo)6_storage",
						"encoding": "dynamic_array",
						"label": "struct Todo_List.Todo[]",
						"numberOfBytes": "32"
					},
					"t_bool": {
						"encoding": "inplace",
						"label": "bool",
						"numberOfBytes": "1"
					},
					"t_string_storage": {
						"encoding": "bytes",
						"label": "string",
						"numberOfBytes": "32"
					},
					"t_struct(Todo)6_storage": {
						"encoding": "inplace",
						"label": "struct Todo_List.Todo",
						"members": [
							{
								"astId": 3,
								"contract": "SolidityCodes/Todo_List.sol:Todo_List",
								"label": "text",
								"offset": 0,
								"slot": "0",
								"type": "t_string_storage"
							},
							{
								"astId": 5,
								"contract": "SolidityCodes/Todo_List.sol:Todo_List",
								"label": "complete",
								"offset": 0,
								"slot": "1",
								"type": "t_bool"
							}
						],
						"numberOfBytes": "64"
					}
				}
			},
			"userdoc": {
				"kind": "user",
				"methods": {},
				"version": 1
			}
		}
	}
}