{
	"SolidityCodes/Todo_List.sol": {
		"Todo_List": {
			"abi": [
				{
					"inputs": [
						{
							"internalType": "string",
							"name": "_text",
							"type": "string"
						}
					],
					"name": "create",
					"outputs": [],
					"stateMutability": "nonpayable",
					"type": "function"
				},
				{
					"inputs": [
						{
							"internalType": "uint256",
							"name": "_ind",
							"type": "uint256"
						}
					],
					"name": "getData",
					"outputs": [],
					"stateMutability": "view",
					"type": "function"
				},
				{
					"inputs": [
						{
							"internalType": "uint256",
							"name": "",
							"type": "uint256"
						}
					],
					"name": "todos",
					"outputs": [
						{
							"internalType": "string",
							"name": "text",
							"type": "string"
						},
						{
							"internalType": "bool",
							"name": "complete",
							"type": "bool"
						}
					],
					"stateMutability": "view",
					"type": "function"
				},
				{
					"inputs": [
						{
							"internalType": "uint256",
							"name": "_ind",
							"type": "uint256"
						},
						{
							"internalType": "string",
							"name": "_text",
							"type": "string"
						}
					],
					"name": "updateData",
					"outputs": [],
					"stateMutability": "nonpayable",
					"type": "function"
				}
			],
			"devdoc": {
				"kind": "dev",
				"methods": {},
				"version": 1
			},
			"evm": {
				"assembly": "    /* \"SolidityCodes/Todo_List.sol\":63:498  contract Todo_List{... */\n  mstore(0x40, 0x80)\n  callvalue\n  dup1\n  iszero\n  tag_1\n  jumpi\n  0x00\n  dup1\n  revert\ntag_1:\n  pop\n  dataSize(sub_0)\n  dup1\n  dataOffset(sub_0)\n  0x00\n  codecopy\n  0x00\n  return\nstop\n\nsub_0: assembly {\n        /* \"SolidityCodes/Todo_List.sol\":63:498  contract Todo_List{... */\n      mstore(0x40, 0x80)\n      callvalue\n      dup1\n      iszero\n      tag_1\n      jumpi\n      0x00\n      dup1\n      revert\n    tag_1:\n      pop\n      jumpi(tag_2, lt(calldatasize, 0x04))\n      shr(0xe0, calldataload(0x00))\n      dup1\n      0x0178fe3f\n      eq\n      tag_3\n      jumpi\n      dup1\n      0x89a8e2a7\n      eq\n      tag_4\n      jumpi\n      dup1\n      0xb6a46b3b\n      eq\n      tag_5\n      jumpi\n      dup1\n      0xbc8bc2b4\n      eq\n      tag_6\n      jumpi\n    tag_2:\n      0x00\n      dup1\n      revert\n        /* \"SolidityCodes/Todo_List.sol\":430:493  function getData(uint _ind) external view{... */\n    tag_3:\n      tag_7\n      0x04\n      dup1\n      calldatasize\n      sub\n      dup2\n      add\n      swap1\n      tag_8\n      swap2\n      swap1\n      tag_9\n      jump\t// in\n    tag_8:\n      tag_10\n      jump\t// in\n    tag_7:\n      stop\n        /* \"SolidityCodes/Todo_List.sol\":290:422  function updateData(uint _ind, string memory _text) external{... */\n    tag_4:\n      tag_11\n      0x04\n      dup1\n      calldatasize\n      sub\n      dup2\n      add\n      swap1\n      tag_12\n      swap2\n      swap1\n      tag_13\n      jump\t// in\n    tag_12:\n      tag_14\n      jump\t// in\n    tag_11:\n      stop\n        /* \"SolidityCodes/Todo_List.sol\":190:282  function create(string memory _text) external{... */\n    tag_5:\n      tag_15\n      0x04\n      dup1\n      calldatasize\n      sub\n      dup2\n      add\n      swap1\n      tag_16\n      swap2\n      swap1\n      tag_17\n      jump\t// in\n    tag_16:\n      tag_18\n      jump\t// in\n    tag_15:\n      stop\n        /* \"SolidityCodes/Todo_List.sol\":161:181  Todo [] public todos */\n    tag_6:\n      tag_19\n      0x04\n      dup1\n      calldatasize\n      sub\n      dup2\n      add\n      swap1\n      tag_20\n      swap2\n      swap1\n      tag_9\n      jump\t// in\n    tag_20:\n      tag_21\n      jump\t// in\n    tag_19:\n      mload(0x40)\n      tag_22\n      swap3\n      swap2\n      swap1\n      tag_23\n      jump\t// in\n    tag_22:\n      mload(0x40)\n      dup1\n      swap2\n      sub\n      swap1\n      return\n        /* \"SolidityCodes/Todo_List.sol\":430:493  function getData(uint _ind) external view{... */\n    tag_10:\n      pop\n      jump\t// out\n        /* \"SolidityCodes/Todo_List.sol\":290:422  function updateData(uint _ind, string memory _text) external{... */\n    tag_14:\n        /* \"SolidityCodes/Todo_List.sol\":361:376  Todo storage td */\n      0x00\n        /* \"SolidityCodes/Todo_List.sol\":377:382  todos */\n      dup1\n        /* \"SolidityCodes/Todo_List.sol\":383:387  _ind */\n      dup4\n        /* \"SolidityCodes/Todo_List.sol\":377:388  todos[_ind] */\n      dup2\n      sload\n      dup2\n      lt\n      tag_26\n      jumpi\n      tag_27\n      tag_28\n      jump\t// in\n    tag_27:\n    tag_26:\n      swap1\n      0x00\n      mstore\n      keccak256(0x00, 0x20)\n      swap1\n      0x02\n      mul\n      add\n        /* \"SolidityCodes/Todo_List.sol\":361:388  Todo storage td=todos[_ind] */\n      swap1\n      pop\n        /* \"SolidityCodes/Todo_List.sol\":407:412  _text */\n      dup2\n        /* \"SolidityCodes/Todo_List.sol\":399:401  td */\n      dup2\n        /* \"SolidityCodes/Todo_List.sol\":399:406  td.text */\n      0x00\n      add\n        /* \"SolidityCodes/Todo_List.sol\":399:412  td.text=_text */\n      swap1\n      dup2\n      tag_30\n      swap2\n      swap1\n      tag_31\n      jump\t// in\n    tag_30:\n      pop\n        /* \"SolidityCodes/Todo_List.sol\":350:422  {... */\n      pop\n        /* \"SolidityCodes/Todo_List.sol\":290:422  function updateData(uint _ind, string memory _text) external{... */\n      pop\n      pop\n      jump\t// out\n        /* \"SolidityCodes/Todo_List.sol\":190:282  function create(string memory _text) external{... */\n    tag_18:\n        /* \"SolidityCodes/Todo_List.sol\":246:251  todos */\n      0x00\n        /* \"SolidityCodes/Todo_List.sol\":257:273  Todo(_text,true) */\n      mload(0x40)\n      dup1\n      0x40\n      add\n      0x40\n      mstore\n      dup1\n        /* \"SolidityCodes/Todo_List.sol\":262:267  _text */\n      dup4\n        /* \"SolidityCodes/Todo_List.sol\":257:273  Todo(_text,true) */\n      dup2\n      mstore\n      0x20\n      add\n        /* \"SolidityCodes/Todo_List.sol\":268:272  true */\n      0x01\n        /* \"SolidityCodes/Todo_List.sol\":257:273  Todo(_text,true) */\n      iszero\n      iszero\n      dup2\n      mstore\n      pop\n        /* \"SolidityCodes/Todo_List.sol\":246:274  todos.push(Todo(_text,true)) */\n      swap1\n      dup1\n      0x01\n      dup2\n      sload\n      add\n      dup1\n      dup3\n      sstore\n      dup1\n      swap2\n      pop\n      pop\n      0x01\n      swap1\n      sub\n      swap1\n      0x00\n      mstore\n      keccak256(0x00, 0x20)\n      swap1\n      0x02\n      mul\n      add\n      0x00\n      swap1\n      swap2\n      swap1\n      swap2\n      swap1\n      swap2\n      pop\n      0x00\n      dup3\n      add\n      mload\n      dup2\n      0x00\n      add\n      swap1\n      dup2\n      tag_34\n      swap2\n      swap1\n      tag_31\n      jump\t// in\n    tag_34:\n      pop\n      0x20\n      dup3\n      add\n      mload\n      dup2\n      0x01\n      add\n      exp(0x0100, 0x00)\n      dup2\n      sload\n      dup2\n      0xff\n      mul\n      not\n      and\n      swap1\n      dup4\n      iszero\n      iszero\n      mul\n      or\n      swap1\n      sstore\n      pop\n      pop\n      pop\n        /* \"SolidityCodes/Todo_List.sol\":190:282  function create(string memory _text) external{... */\n      pop\n      jump\t// out\n        /* \"SolidityCodes/Todo_List.sol\":161:181  Todo [] public todos */\n    tag_21:\n      0x00\n      dup2\n      dup2\n      sload\n      dup2\n      lt\n      tag_35\n      jumpi\n      0x00\n      dup1\n      revert\n    tag_35:\n      swap1\n      0x00\n      mstore\n      keccak256(0x00, 0x20)\n      swap1\n      0x02\n      mul\n      add\n      0x00\n      swap2\n      pop\n      swap1\n      pop\n      dup1\n      0x00\n      add\n      dup1\n      sload\n      tag_37\n      swap1\n      tag_38\n      jump\t// in\n    tag_37:\n      dup1\n      0x1f\n      add\n      0x20\n      dup1\n      swap2\n      div\n      mul\n      0x20\n      add\n      mload(0x40)\n      swap1\n      dup2\n      add\n      0x40\n      mstore\n      dup1\n      swap3\n      swap2\n      swap1\n      dup2\n      dup2\n      mstore\n      0x20\n      add\n      dup3\n      dup1\n      sload\n      tag_39\n      swap1\n      tag_38\n      jump\t// in\n    tag_39:\n      dup1\n      iszero\n      tag_40\n      jumpi\n      dup1\n      0x1f\n      lt\n      tag_41\n      jumpi\n      0x0100\n      dup1\n      dup4\n      sload\n      div\n      mul\n      dup4\n      mstore\n      swap2\n      0x20\n      add\n      swap2\n      jump(tag_40)\n    tag_41:\n      dup3\n      add\n      swap2\n      swap1\n      0x00\n      mstore\n      keccak256(0x00, 0x20)\n      swap1\n    tag_42:\n      dup2\n      sload\n      dup2\n      mstore\n      swap1\n      0x01\n      add\n      swap1\n      0x20\n      add\n      dup1\n      dup4\n      gt\n      tag_42\n      jumpi\n      dup3\n      swap1\n      sub\n      0x1f\n      and\n      dup3\n      add\n      swap2\n    tag_40:\n      pop\n      pop\n      pop\n      pop\n      pop\n      swap1\n      dup1\n      0x01\n      add\n      0x00\n      swap1\n      sload\n      swap1\n      0x0100\n      exp\n      swap1\n      div\n      0xff\n      and\n      swap1\n      pop\n      dup3\n      jump\t// out\n        /* \"#utility.yul\":7:82   */\n    tag_43:\n        /* \"#utility.yul\":40:46   */\n      0x00\n        /* \"#utility.yul\":73:75   */\n      0x40\n        /* \"#utility.yul\":67:76   */\n      mload\n        /* \"#utility.yul\":57:76   */\n      swap1\n      pop\n        /* \"#utility.yul\":7:82   */\n      swap1\n      jump\t// out\n        /* \"#utility.yul\":88:205   */\n    tag_44:\n        /* \"#utility.yul\":197:198   */\n      0x00\n        /* \"#utility.yul\":194:195   */\n      dup1\n        /* \"#utility.yul\":187:199   */\n      revert\n        /* \"#utility.yul\":211:328   */\n    tag_45:\n        /* \"#utility.yul\":320:321   */\n      0x00\n        /* \"#utility.yul\":317:318   */\n      dup1\n        /* \"#utility.yul\":310:322   */\n      revert\n        /* \"#utility.yul\":334:411   */\n    tag_46:\n        /* \"#utility.yul\":371:378   */\n      0x00\n        /* \"#utility.yul\":400:405   */\n      dup2\n        /* \"#utility.yul\":389:405   */\n      swap1\n      pop\n        /* \"#utility.yul\":334:411   */\n      swap2\n      swap1\n      pop\n      jump\t// out\n        /* \"#utility.yul\":417:539   */\n    tag_47:\n        /* \"#utility.yul\":490:514   */\n      tag_87\n        /* \"#utility.yul\":508:513   */\n      dup2\n        /* \"#utility.yul\":490:514   */\n      tag_46\n      jump\t// in\n    tag_87:\n        /* \"#utility.yul\":483:488   */\n      dup2\n        /* \"#utility.yul\":480:515   */\n      eq\n        /* \"#utility.yul\":470:533   */\n      tag_88\n      jumpi\n        /* \"#utility.yul\":529:530   */\n      0x00\n        /* \"#utility.yul\":526:527   */\n      dup1\n        /* \"#utility.yul\":519:531   */\n      revert\n        /* \"#utility.yul\":470:533   */\n    tag_88:\n        /* \"#utility.yul\":417:539   */\n      pop\n      jump\t// out\n        /* \"#utility.yul\":545:684   */\n    tag_48:\n        /* \"#utility.yul\":591:596   */\n      0x00\n        /* \"#utility.yul\":629:635   */\n      dup2\n        /* \"#utility.yul\":616:636   */\n      calldataload\n        /* \"#utility.yul\":607:636   */\n      swap1\n      pop\n        /* \"#utility.yul\":645:678   */\n      tag_90\n        /* \"#utility.yul\":672:677   */\n      dup2\n        /* \"#utility.yul\":645:678   */\n      tag_47\n      jump\t// in\n    tag_90:\n        /* \"#utility.yul\":545:684   */\n      swap3\n      swap2\n      pop\n      pop\n      jump\t// out\n        /* \"#utility.yul\":690:1019   */\n    tag_9:\n        /* \"#utility.yul\":749:755   */\n      0x00\n        /* \"#utility.yul\":798:800   */\n      0x20\n        /* \"#utility.yul\":786:795   */\n      dup3\n        /* \"#utility.yul\":777:784   */\n      dup5\n        /* \"#utility.yul\":773:796   */\n      sub\n        /* \"#utility.yul\":769:801   */\n      slt\n        /* \"#utility.yul\":766:885   */\n      iszero\n      tag_92\n      jumpi\n        /* \"#utility.yul\":804:883   */\n      tag_93\n      tag_44\n      jump\t// in\n    tag_93:\n        /* \"#utility.yul\":766:885   */\n    tag_92:\n        /* \"#utility.yul\":924:925   */\n      0x00\n        /* \"#utility.yul\":949:1002   */\n      tag_94\n        /* \"#utility.yul\":994:1001   */\n      dup5\n        /* \"#utility.yul\":985:991   */\n      dup3\n        /* \"#utility.yul\":974:983   */\n      dup6\n        /* \"#utility.yul\":970:992   */\n      add\n        /* \"#utility.yul\":949:1002   */\n      tag_48\n      jump\t// in\n    tag_94:\n        /* \"#utility.yul\":939:1002   */\n      swap2\n      pop\n        /* \"#utility.yul\":895:1012   */\n      pop\n        /* \"#utility.yul\":690:1019   */\n      swap3\n      swap2\n      pop\n      pop\n      jump\t// out\n        /* \"#utility.yul\":1025:1142   */\n    tag_49:\n        /* \"#utility.yul\":1134:1135   */\n      0x00\n        /* \"#utility.yul\":1131:1132   */\n      dup1\n        /* \"#utility.yul\":1124:1136   */\n      revert\n        /* \"#utility.yul\":1148:1265   */\n    tag_50:\n        /* \"#utility.yul\":1257:1258   */\n      0x00\n        /* \"#utility.yul\":1254:1255   */\n      dup1\n        /* \"#utility.yul\":1247:1259   */\n      revert\n        /* \"#utility.yul\":1271:1373   */\n    tag_51:\n        /* \"#utility.yul\":1312:1318   */\n      0x00\n        /* \"#utility.yul\":1363:1365   */\n      0x1f\n        /* \"#utility.yul\":1359:1366   */\n      not\n        /* \"#utility.yul\":1354:1356   */\n      0x1f\n        /* \"#utility.yul\":1347:1352   */\n      dup4\n        /* \"#utility.yul\":1343:1357   */\n      add\n        /* \"#utility.yul\":1339:1367   */\n      and\n        /* \"#utility.yul\":1329:1367   */\n      swap1\n      pop\n        /* \"#utility.yul\":1271:1373   */\n      swap2\n      swap1\n      pop\n      jump\t// out\n        /* \"#utility.yul\":1379:1559   */\n    tag_52:\n        /* \"#utility.yul\":1427:1504   */\n      0x4e487b7100000000000000000000000000000000000000000000000000000000\n        /* \"#utility.yul\":1424:1425   */\n      0x00\n        /* \"#utility.yul\":1417:1505   */\n      mstore\n        /* \"#utility.yul\":1524:1528   */\n      0x41\n        /* \"#utility.yul\":1521:1522   */\n      0x04\n        /* \"#utility.yul\":1514:1529   */\n      mstore\n        /* \"#utility.yul\":1548:1552   */\n      0x24\n        /* \"#utility.yul\":1545:1546   */\n      0x00\n        /* \"#utility.yul\":1538:1553   */\n      revert\n        /* \"#utility.yul\":1565:1846   */\n    tag_53:\n        /* \"#utility.yul\":1648:1675   */\n      tag_100\n        /* \"#utility.yul\":1670:1674   */\n      dup3\n        /* \"#utility.yul\":1648:1675   */\n      tag_51\n      jump\t// in\n    tag_100:\n        /* \"#utility.yul\":1640:1646   */\n      dup2\n        /* \"#utility.yul\":1636:1676   */\n      add\n        /* \"#utility.yul\":1778:1784   */\n      dup2\n        /* \"#utility.yul\":1766:1776   */\n      dup2\n        /* \"#utility.yul\":1763:1785   */\n      lt\n        /* \"#utility.yul\":1742:1760   */\n      0xffffffffffffffff\n        /* \"#utility.yul\":1730:1740   */\n      dup3\n        /* \"#utility.yul\":1727:1761   */\n      gt\n        /* \"#utility.yul\":1724:1786   */\n      or\n        /* \"#utility.yul\":1721:1809   */\n      iszero\n      tag_101\n      jumpi\n        /* \"#utility.yul\":1789:1807   */\n      tag_102\n      tag_52\n      jump\t// in\n    tag_102:\n        /* \"#utility.yul\":1721:1809   */\n    tag_101:\n        /* \"#utility.yul\":1829:1839   */\n      dup1\n        /* \"#utility.yul\":1825:1827   */\n      0x40\n        /* \"#utility.yul\":1818:1840   */\n      mstore\n        /* \"#utility.yul\":1608:1846   */\n      pop\n        /* \"#utility.yul\":1565:1846   */\n      pop\n      pop\n      jump\t// out\n        /* \"#utility.yul\":1852:1981   */\n    tag_54:\n        /* \"#utility.yul\":1886:1892   */\n      0x00\n        /* \"#utility.yul\":1913:1933   */\n      tag_104\n      tag_43\n      jump\t// in\n    tag_104:\n        /* \"#utility.yul\":1903:1933   */\n      swap1\n      pop\n        /* \"#utility.yul\":1942:1975   */\n      tag_105\n        /* \"#utility.yul\":1970:1974   */\n      dup3\n        /* \"#utility.yul\":1962:1968   */\n      dup3\n        /* \"#utility.yul\":1942:1975   */\n      tag_53\n      jump\t// in\n    tag_105:\n        /* \"#utility.yul\":1852:1981   */\n      swap2\n      swap1\n      pop\n      jump\t// out\n        /* \"#utility.yul\":1987:2295   */\n    tag_55:\n        /* \"#utility.yul\":2049:2053   */\n      0x00\n        /* \"#utility.yul\":2139:2157   */\n      0xffffffffffffffff\n        /* \"#utility.yul\":2131:2137   */\n      dup3\n        /* \"#utility.yul\":2128:2158   */\n      gt\n        /* \"#utility.yul\":2125:2181   */\n      iszero\n      tag_107\n      jumpi\n        /* \"#utility.yul\":2161:2179   */\n      tag_108\n      tag_52\n      jump\t// in\n    tag_108:\n        /* \"#utility.yul\":2125:2181   */\n    tag_107:\n        /* \"#utility.yul\":2199:2228   */\n      tag_109\n        /* \"#utility.yul\":2221:2227   */\n      dup3\n        /* \"#utility.yul\":2199:2228   */\n      tag_51\n      jump\t// in\n    tag_109:\n        /* \"#utility.yul\":2191:2228   */\n      swap1\n      pop\n        /* \"#utility.yul\":2283:2287   */\n      0x20\n        /* \"#utility.yul\":2277:2281   */\n      dup2\n        /* \"#utility.yul\":2273:2288   */\n      add\n        /* \"#utility.yul\":2265:2288   */\n      swap1\n      pop\n        /* \"#utility.yul\":1987:2295   */\n      swap2\n      swap1\n      pop\n      jump\t// out\n        /* \"#utility.yul\":2301:2455   */\n    tag_56:\n        /* \"#utility.yul\":2385:2391   */\n      dup3\n        /* \"#utility.yul\":2380:2383   */\n      dup2\n        /* \"#utility.yul\":2375:2378   */\n      dup4\n        /* \"#utility.yul\":2362:2392   */\n      calldatacopy\n        /* \"#utility.yul\":2447:2448   */\n      0x00\n        /* \"#utility.yul\":2438:2444   */\n      dup4\n        /* \"#utility.yul\":2433:2436   */\n      dup4\n        /* \"#utility.yul\":2429:2445   */\n      add\n        /* \"#utility.yul\":2422:2449   */\n      mstore\n        /* \"#utility.yul\":2301:2455   */\n      pop\n      pop\n      pop\n      jump\t// out\n        /* \"#utility.yul\":2461:2873   */\n    tag_57:\n        /* \"#utility.yul\":2539:2544   */\n      0x00\n        /* \"#utility.yul\":2564:2630   */\n      tag_112\n        /* \"#utility.yul\":2580:2629   */\n      tag_113\n        /* \"#utility.yul\":2622:2628   */\n      dup5\n        /* \"#utility.yul\":2580:2629   */\n      tag_55\n      jump\t// in\n    tag_113:\n        /* \"#utility.yul\":2564:2630   */\n      tag_54\n      jump\t// in\n    tag_112:\n        /* \"#utility.yul\":2555:2630   */\n      swap1\n      pop\n        /* \"#utility.yul\":2653:2659   */\n      dup3\n        /* \"#utility.yul\":2646:2651   */\n      dup2\n        /* \"#utility.yul\":2639:2660   */\n      mstore\n        /* \"#utility.yul\":2691:2695   */\n      0x20\n        /* \"#utility.yul\":2684:2689   */\n      dup2\n        /* \"#utility.yul\":2680:2696   */\n      add\n        /* \"#utility.yul\":2729:2732   */\n      dup5\n        /* \"#utility.yul\":2720:2726   */\n      dup5\n        /* \"#utility.yul\":2715:2718   */\n      dup5\n        /* \"#utility.yul\":2711:2727   */\n      add\n        /* \"#utility.yul\":2708:2733   */\n      gt\n        /* \"#utility.yul\":2705:2817   */\n      iszero\n      tag_114\n      jumpi\n        /* \"#utility.yul\":2736:2815   */\n      tag_115\n      tag_50\n      jump\t// in\n    tag_115:\n        /* \"#utility.yul\":2705:2817   */\n    tag_114:\n        /* \"#utility.yul\":2826:2867   */\n      tag_116\n        /* \"#utility.yul\":2860:2866   */\n      dup5\n        /* \"#utility.yul\":2855:2858   */\n      dup3\n        /* \"#utility.yul\":2850:2853   */\n      dup6\n        /* \"#utility.yul\":2826:2867   */\n      tag_56\n      jump\t// in\n    tag_116:\n        /* \"#utility.yul\":2545:2873   */\n      pop\n        /* \"#utility.yul\":2461:2873   */\n      swap4\n      swap3\n      pop\n      pop\n      pop\n      jump\t// out\n        /* \"#utility.yul\":2893:3233   */\n    tag_58:\n        /* \"#utility.yul\":2949:2954   */\n      0x00\n        /* \"#utility.yul\":2998:3001   */\n      dup3\n        /* \"#utility.yul\":2991:2995   */\n      0x1f\n        /* \"#utility.yul\":2983:2989   */\n      dup4\n        /* \"#utility.yul\":2979:2996   */\n      add\n        /* \"#utility.yul\":2975:3002   */\n      slt\n        /* \"#utility.yul\":2965:3087   */\n      tag_118\n      jumpi\n        /* \"#utility.yul\":3006:3085   */\n      tag_119\n      tag_49\n      jump\t// in\n    tag_119:\n        /* \"#utility.yul\":2965:3087   */\n    tag_118:\n        /* \"#utility.yul\":3123:3129   */\n      dup2\n        /* \"#utility.yul\":3110:3130   */\n      calldataload\n        /* \"#utility.yul\":3148:3227   */\n      tag_120\n        /* \"#utility.yul\":3223:3226   */\n      dup5\n        /* \"#utility.yul\":3215:3221   */\n      dup3\n        /* \"#utility.yul\":3208:3212   */\n      0x20\n        /* \"#utility.yul\":3200:3206   */\n      dup7\n        /* \"#utility.yul\":3196:3213   */\n      add\n        /* \"#utility.yul\":3148:3227   */\n      tag_57\n      jump\t// in\n    tag_120:\n        /* \"#utility.yul\":3139:3227   */\n      swap2\n      pop\n        /* \"#utility.yul\":2955:3233   */\n      pop\n        /* \"#utility.yul\":2893:3233   */\n      swap3\n      swap2\n      pop\n      pop\n      jump\t// out\n        /* \"#utility.yul\":3239:3893   */\n    tag_13:\n        /* \"#utility.yul\":3317:3323   */\n      0x00\n        /* \"#utility.yul\":3325:3331   */\n      dup1\n        /* \"#utility.yul\":3374:3376   */\n      0x40\n        /* \"#utility.yul\":3362:3371   */\n      dup4\n        /* \"#utility.yul\":3353:3360   */\n      dup6\n        /* \"#utility.yul\":3349:3372   */\n      sub\n        /* \"#utility.yul\":3345:3377   */\n      slt\n        /* \"#utility.yul\":3342:3461   */\n      iszero\n      tag_122\n      jumpi\n        /* \"#utility.yul\":3380:3459   */\n      tag_123\n      tag_44\n      jump\t// in\n    tag_123:\n        /* \"#utility.yul\":3342:3461   */\n    tag_122:\n        /* \"#utility.yul\":3500:3501   */\n      0x00\n        /* \"#utility.yul\":3525:3578   */\n      tag_124\n        /* \"#utility.yul\":3570:3577   */\n      dup6\n        /* \"#utility.yul\":3561:3567   */\n      dup3\n        /* \"#utility.yul\":3550:3559   */\n      dup7\n        /* \"#utility.yul\":3546:3568   */\n      add\n        /* \"#utility.yul\":3525:3578   */\n      tag_48\n      jump\t// in\n    tag_124:\n        /* \"#utility.yul\":3515:3578   */\n      swap3\n      pop\n        /* \"#utility.yul\":3471:3588   */\n      pop\n        /* \"#utility.yul\":3655:3657   */\n      0x20\n        /* \"#utility.yul\":3644:3653   */\n      dup4\n        /* \"#utility.yul\":3640:3658   */\n      add\n        /* \"#utility.yul\":3627:3659   */\n      calldataload\n        /* \"#utility.yul\":3686:3704   */\n      0xffffffffffffffff\n        /* \"#utility.yul\":3678:3684   */\n      dup2\n        /* \"#utility.yul\":3675:3705   */\n      gt\n        /* \"#utility.yul\":3672:3789   */\n      iszero\n      tag_125\n      jumpi\n        /* \"#utility.yul\":3708:3787   */\n      tag_126\n      tag_45\n      jump\t// in\n    tag_126:\n        /* \"#utility.yul\":3672:3789   */\n    tag_125:\n        /* \"#utility.yul\":3813:3876   */\n      tag_127\n        /* \"#utility.yul\":3868:3875   */\n      dup6\n        /* \"#utility.yul\":3859:3865   */\n      dup3\n        /* \"#utility.yul\":3848:3857   */\n      dup7\n        /* \"#utility.yul\":3844:3866   */\n      add\n        /* \"#utility.yul\":3813:3876   */\n      tag_58\n      jump\t// in\n    tag_127:\n        /* \"#utility.yul\":3803:3876   */\n      swap2\n      pop\n        /* \"#utility.yul\":3598:3886   */\n      pop\n        /* \"#utility.yul\":3239:3893   */\n      swap3\n      pop\n      swap3\n      swap1\n      pop\n      jump\t// out\n        /* \"#utility.yul\":3899:4408   */\n    tag_17:\n        /* \"#utility.yul\":3968:3974   */\n      0x00\n        /* \"#utility.yul\":4017:4019   */\n      0x20\n        /* \"#utility.yul\":4005:4014   */\n      dup3\n        /* \"#utility.yul\":3996:4003   */\n      dup5\n        /* \"#utility.yul\":3992:4015   */\n      sub\n        /* \"#utility.yul\":3988:4020   */\n      slt\n        /* \"#utility.yul\":3985:4104   */\n      iszero\n      tag_129\n      jumpi\n        /* \"#utility.yul\":4023:4102   */\n      tag_130\n      tag_44\n      jump\t// in\n    tag_130:\n        /* \"#utility.yul\":3985:4104   */\n    tag_129:\n        /* \"#utility.yul\":4171:4172   */\n      0x00\n        /* \"#utility.yul\":4160:4169   */\n      dup3\n        /* \"#utility.yul\":4156:4173   */\n      add\n        /* \"#utility.yul\":4143:4174   */\n      calldataload\n        /* \"#utility.yul\":4201:4219   */\n      0xffffffffffffffff\n        /* \"#utility.yul\":4193:4199   */\n      dup2\n        /* \"#utility.yul\":4190:4220   */\n      gt\n        /* \"#utility.yul\":4187:4304   */\n      iszero\n      tag_131\n      jumpi\n        /* \"#utility.yul\":4223:4302   */\n      tag_132\n      tag_45\n      jump\t// in\n    tag_132:\n        /* \"#utility.yul\":4187:4304   */\n    tag_131:\n        /* \"#utility.yul\":4328:4391   */\n      tag_133\n        /* \"#utility.yul\":4383:4390   */\n      dup5\n        /* \"#utility.yul\":4374:4380   */\n      dup3\n        /* \"#utility.yul\":4363:4372   */\n      dup6\n        /* \"#utility.yul\":4359:4381   */\n      add\n        /* \"#utility.yul\":4328:4391   */\n      tag_58\n      jump\t// in\n    tag_133:\n        /* \"#utility.yul\":4318:4391   */\n      swap2\n      pop\n        /* \"#utility.yul\":4114:4401   */\n      pop\n        /* \"#utility.yul\":3899:4408   */\n      swap3\n      swap2\n      pop\n      pop\n      jump\t// out\n        /* \"#utility.yul\":4414:4513   */\n    tag_59:\n        /* \"#utility.yul\":4466:4472   */\n      0x00\n        /* \"#utility.yul\":4500:4505   */\n      dup2\n        /* \"#utility.yul\":4494:4506   */\n      mload\n        /* \"#utility.yul\":4484:4506   */\n      swap1\n      pop\n        /* \"#utility.yul\":4414:4513   */\n      swap2\n      swap1\n      pop\n      jump\t// out\n        /* \"#utility.yul\":4519:4688   */\n    tag_60:\n        /* \"#utility.yul\":4603:4614   */\n      0x00\n        /* \"#utility.yul\":4637:4643   */\n      dup3\n        /* \"#utility.yul\":4632:4635   */\n      dup3\n        /* \"#utility.yul\":4625:4644   */\n      mstore\n        /* \"#utility.yul\":4677:4681   */\n      0x20\n        /* \"#utility.yul\":4672:4675   */\n      dup3\n        /* \"#utility.yul\":4668:4682   */\n      add\n        /* \"#utility.yul\":4653:4682   */\n      swap1\n      pop\n        /* \"#utility.yul\":4519:4688   */\n      swap3\n      swap2\n      pop\n      pop\n      jump\t// out\n        /* \"#utility.yul\":4694:5001   */\n    tag_61:\n        /* \"#utility.yul\":4762:4763   */\n      0x00\n        /* \"#utility.yul\":4772:4885   */\n    tag_137:\n        /* \"#utility.yul\":4786:4792   */\n      dup4\n        /* \"#utility.yul\":4783:4784   */\n      dup2\n        /* \"#utility.yul\":4780:4793   */\n      lt\n        /* \"#utility.yul\":4772:4885   */\n      iszero\n      tag_139\n      jumpi\n        /* \"#utility.yul\":4871:4872   */\n      dup1\n        /* \"#utility.yul\":4866:4869   */\n      dup3\n        /* \"#utility.yul\":4862:4873   */\n      add\n        /* \"#utility.yul\":4856:4874   */\n      mload\n        /* \"#utility.yul\":4852:4853   */\n      dup2\n        /* \"#utility.yul\":4847:4850   */\n      dup5\n        /* \"#utility.yul\":4843:4854   */\n      add\n        /* \"#utility.yul\":4836:4875   */\n      mstore\n        /* \"#utility.yul\":4808:4810   */\n      0x20\n        /* \"#utility.yul\":4805:4806   */\n      dup2\n        /* \"#utility.yul\":4801:4811   */\n      add\n        /* \"#utility.yul\":4796:4811   */\n      swap1\n      pop\n        /* \"#utility.yul\":4772:4885   */\n      jump(tag_137)\n    tag_139:\n        /* \"#utility.yul\":4903:4909   */\n      dup4\n        /* \"#utility.yul\":4900:4901   */\n      dup2\n        /* \"#utility.yul\":4897:4910   */\n      gt\n        /* \"#utility.yul\":4894:4995   */\n      iszero\n      tag_140\n      jumpi\n        /* \"#utility.yul\":4983:4984   */\n      0x00\n        /* \"#utility.yul\":4974:4980   */\n      dup5\n        /* \"#utility.yul\":4969:4972   */\n      dup5\n        /* \"#utility.yul\":4965:4981   */\n      add\n        /* \"#utility.yul\":4958:4985   */\n      mstore\n        /* \"#utility.yul\":4894:4995   */\n    tag_140:\n        /* \"#utility.yul\":4743:5001   */\n      pop\n        /* \"#utility.yul\":4694:5001   */\n      pop\n      pop\n      pop\n      jump\t// out\n        /* \"#utility.yul\":5007:5371   */\n    tag_62:\n        /* \"#utility.yul\":5095:5098   */\n      0x00\n        /* \"#utility.yul\":5123:5162   */\n      tag_142\n        /* \"#utility.yul\":5156:5161   */\n      dup3\n        /* \"#utility.yul\":5123:5162   */\n      tag_59\n      jump\t// in\n    tag_142:\n        /* \"#utility.yul\":5178:5249   */\n      tag_143\n        /* \"#utility.yul\":5242:5248   */\n      dup2\n        /* \"#utility.yul\":5237:5240   */\n      dup6\n        /* \"#utility.yul\":5178:5249   */\n      tag_60\n      jump\t// in\n    tag_143:\n        /* \"#utility.yul\":5171:5249   */\n      swap4\n      pop\n        /* \"#utility.yul\":5258:5310   */\n      tag_144\n        /* \"#utility.yul\":5303:5309   */\n      dup2\n        /* \"#utility.yul\":5298:5301   */\n      dup6\n        /* \"#utility.yul\":5291:5295   */\n      0x20\n        /* \"#utility.yul\":5284:5289   */\n      dup7\n        /* \"#utility.yul\":5280:5296   */\n      add\n        /* \"#utility.yul\":5258:5310   */\n      tag_61\n      jump\t// in\n    tag_144:\n        /* \"#utility.yul\":5335:5364   */\n      tag_145\n        /* \"#utility.yul\":5357:5363   */\n      dup2\n        /* \"#utility.yul\":5335:5364   */\n      tag_51\n      jump\t// in\n    tag_145:\n        /* \"#utility.yul\":5330:5333   */\n      dup5\n        /* \"#utility.yul\":5326:5365   */\n      add\n        /* \"#utility.yul\":5319:5365   */\n      swap2\n      pop\n        /* \"#utility.yul\":5099:5371   */\n      pop\n        /* \"#utility.yul\":5007:5371   */\n      swap3\n      swap2\n      pop\n      pop\n      jump\t// out\n        /* \"#utility.yul\":5377:5467   */\n    tag_63:\n        /* \"#utility.yul\":5411:5418   */\n      0x00\n        /* \"#utility.yul\":5454:5459   */\n      dup2\n        /* \"#utility.yul\":5447:5460   */\n      iszero\n        /* \"#utility.yul\":5440:5461   */\n      iszero\n        /* \"#utility.yul\":5429:5461   */\n      swap1\n      pop\n        /* \"#utility.yul\":5377:5467   */\n      swap2\n      swap1\n      pop\n      jump\t// out\n        /* \"#utility.yul\":5473:5582   */\n    tag_64:\n        /* \"#utility.yul\":5554:5575   */\n      tag_148\n        /* \"#utility.yul\":5569:5574   */\n      dup2\n        /* \"#utility.yul\":5554:5575   */\n      tag_63\n      jump\t// in\n    tag_148:\n        /* \"#utility.yul\":5549:5552   */\n      dup3\n        /* \"#utility.yul\":5542:5576   */\n      mstore\n        /* \"#utility.yul\":5473:5582   */\n      pop\n      pop\n      jump\t// out\n        /* \"#utility.yul\":5588:5999   */\n    tag_23:\n        /* \"#utility.yul\":5723:5727   */\n      0x00\n        /* \"#utility.yul\":5761:5763   */\n      0x40\n        /* \"#utility.yul\":5750:5759   */\n      dup3\n        /* \"#utility.yul\":5746:5764   */\n      add\n        /* \"#utility.yul\":5738:5764   */\n      swap1\n      pop\n        /* \"#utility.yul\":5810:5819   */\n      dup2\n        /* \"#utility.yul\":5804:5808   */\n      dup2\n        /* \"#utility.yul\":5800:5820   */\n      sub\n        /* \"#utility.yul\":5796:5797   */\n      0x00\n        /* \"#utility.yul\":5785:5794   */\n      dup4\n        /* \"#utility.yul\":5781:5798   */\n      add\n        /* \"#utility.yul\":5774:5821   */\n      mstore\n        /* \"#utility.yul\":5838:5916   */\n      tag_150\n        /* \"#utility.yul\":5911:5915   */\n      dup2\n        /* \"#utility.yul\":5902:5908   */\n      dup6\n        /* \"#utility.yul\":5838:5916   */\n      tag_62\n      jump\t// in\n    tag_150:\n        /* \"#utility.yul\":5830:5916   */\n      swap1\n      pop\n        /* \"#utility.yul\":5926:5992   */\n      tag_151\n        /* \"#utility.yul\":5988:5990   */\n      0x20\n        /* \"#utility.yul\":5977:5986   */\n      dup4\n        /* \"#utility.yul\":5973:5991   */\n      add\n        /* \"#utility.yul\":5964:5970   */\n      dup5\n        /* \"#utility.yul\":5926:5992   */\n      tag_64\n      jump\t// in\n    tag_151:\n        /* \"#utility.yul\":5588:5999   */\n      swap4\n      swap3\n      pop\n      pop\n      pop\n      jump\t// out\n        /* \"#utility.yul\":6005:6185   */\n    tag_28:\n        /* \"#utility.yul\":6053:6130   */\n      0x4e487b7100000000000000000000000000000000000000000000000000000000\n        /* \"#utility.yul\":6050:6051   */\n      0x00\n        /* \"#utility.yul\":6043:6131   */\n      mstore\n        /* \"#utility.yul\":6150:6154   */\n      0x32\n        /* \"#utility.yul\":6147:6148   */\n      0x04\n        /* \"#utility.yul\":6140:6155   */\n      mstore\n        /* \"#utility.yul\":6174:6178   */\n      0x24\n        /* \"#utility.yul\":6171:6172   */\n      0x00\n        /* \"#utility.yul\":6164:6179   */\n      revert\n        /* \"#utility.yul\":6191:6371   */\n    tag_65:\n        /* \"#utility.yul\":6239:6316   */\n      0x4e487b7100000000000000000000000000000000000000000000000000000000\n        /* \"#utility.yul\":6236:6237   */\n      0x00\n        /* \"#utility.yul\":6229:6317   */\n      mstore\n        /* \"#utility.yul\":6336:6340   */\n      0x22\n        /* \"#utility.yul\":6333:6334   */\n      0x04\n        /* \"#utility.yul\":6326:6341   */\n      mstore\n        /* \"#utility.yul\":6360:6364   */\n      0x24\n        /* \"#utility.yul\":6357:6358   */\n      0x00\n        /* \"#utility.yul\":6350:6365   */\n      revert\n        /* \"#utility.yul\":6377:6697   */\n    tag_38:\n        /* \"#utility.yul\":6421:6427   */\n      0x00\n        /* \"#utility.yul\":6458:6459   */\n      0x02\n        /* \"#utility.yul\":6452:6456   */\n      dup3\n        /* \"#utility.yul\":6448:6460   */\n      div\n        /* \"#utility.yul\":6438:6460   */\n      swap1\n      pop\n        /* \"#utility.yul\":6505:6506   */\n      0x01\n        /* \"#utility.yul\":6499:6503   */\n      dup3\n        /* \"#utility.yul\":6495:6507   */\n      and\n        /* \"#utility.yul\":6526:6544   */\n      dup1\n        /* \"#utility.yul\":6516:6597   */\n      tag_155\n      jumpi\n        /* \"#utility.yul\":6582:6586   */\n      0x7f\n        /* \"#utility.yul\":6574:6580   */\n      dup3\n        /* \"#utility.yul\":6570:6587   */\n      and\n        /* \"#utility.yul\":6560:6587   */\n      swap2\n      pop\n        /* \"#utility.yul\":6516:6597   */\n    tag_155:\n        /* \"#utility.yul\":6644:6646   */\n      0x20\n        /* \"#utility.yul\":6636:6642   */\n      dup3\n        /* \"#utility.yul\":6633:6647   */\n      lt\n        /* \"#utility.yul\":6613:6631   */\n      dup2\n        /* \"#utility.yul\":6610:6648   */\n      sub\n        /* \"#utility.yul\":6607:6691   */\n      tag_156\n      jumpi\n        /* \"#utility.yul\":6663:6681   */\n      tag_157\n      tag_65\n      jump\t// in\n    tag_157:\n        /* \"#utility.yul\":6607:6691   */\n    tag_156:\n        /* \"#utility.yul\":6428:6697   */\n      pop\n        /* \"#utility.yul\":6377:6697   */\n      swap2\n      swap1\n      pop\n      jump\t// out\n        /* \"#utility.yul\":6703:6844   */\n    tag_66:\n        /* \"#utility.yul\":6752:6756   */\n      0x00\n        /* \"#utility.yul\":6775:6778   */\n      dup2\n        /* \"#utility.yul\":6767:6778   */\n      swap1\n      pop\n        /* \"#utility.yul\":6798:6801   */\n      dup2\n        /* \"#utility.yul\":6795:6796   */\n      0x00\n        /* \"#utility.yul\":6788:6802   */\n      mstore\n        /* \"#utility.yul\":6832:6836   */\n      0x20\n        /* \"#utility.yul\":6829:6830   */\n      0x00\n        /* \"#utility.yul\":6819:6837   */\n      keccak256\n        /* \"#utility.yul\":6811:6837   */\n      swap1\n      pop\n        /* \"#utility.yul\":6703:6844   */\n      swap2\n      swap1\n      pop\n      jump\t// out\n        /* \"#utility.yul\":6850:6943   */\n    tag_67:\n        /* \"#utility.yul\":6887:6893   */\n      0x00\n        /* \"#utility.yul\":6934:6936   */\n      0x20\n        /* \"#utility.yul\":6929:6931   */\n      0x1f\n        /* \"#utility.yul\":6922:6927   */\n      dup4\n        /* \"#utility.yul\":6918:6932   */\n      add\n        /* \"#utility.yul\":6914:6937   */\n      div\n        /* \"#utility.yul\":6904:6937   */\n      swap1\n      pop\n        /* \"#utility.yul\":6850:6943   */\n      swap2\n      swap1\n      pop\n      jump\t// out\n        /* \"#utility.yul\":6949:7056   */\n    tag_68:\n        /* \"#utility.yul\":6993:7001   */\n      0x00\n        /* \"#utility.yul\":7043:7048   */\n      dup3\n        /* \"#utility.yul\":7037:7041   */\n      dup3\n        /* \"#utility.yul\":7033:7049   */\n      shl\n        /* \"#utility.yul\":7012:7049   */\n      swap1\n      pop\n        /* \"#utility.yul\":6949:7056   */\n      swap3\n      swap2\n      pop\n      pop\n      jump\t// out\n        /* \"#utility.yul\":7062:7455   */\n    tag_69:\n        /* \"#utility.yul\":7131:7137   */\n      0x00\n        /* \"#utility.yul\":7181:7182   */\n      0x08\n        /* \"#utility.yul\":7169:7179   */\n      dup4\n        /* \"#utility.yul\":7165:7183   */\n      mul\n        /* \"#utility.yul\":7204:7301   */\n      tag_162\n        /* \"#utility.yul\":7234:7300   */\n      0xffffffffffffffffffffffffffffffffffffffffffffffffffffffffffffffff\n        /* \"#utility.yul\":7223:7232   */\n      dup3\n        /* \"#utility.yul\":7204:7301   */\n      tag_68\n      jump\t// in\n    tag_162:\n        /* \"#utility.yul\":7322:7361   */\n      tag_163\n        /* \"#utility.yul\":7352:7360   */\n      dup7\n        /* \"#utility.yul\":7341:7350   */\n      dup4\n        /* \"#utility.yul\":7322:7361   */\n      tag_68\n      jump\t// in\n    tag_163:\n        /* \"#utility.yul\":7310:7361   */\n      swap6\n      pop\n        /* \"#utility.yul\":7394:7398   */\n      dup1\n        /* \"#utility.yul\":7390:7399   */\n      not\n        /* \"#utility.yul\":7383:7388   */\n      dup5\n        /* \"#utility.yul\":7379:7400   */\n      and\n        /* \"#utility.yul\":7370:7400   */\n      swap4\n      pop\n        /* \"#utility.yul\":7443:7447   */\n      dup1\n        /* \"#utility.yul\":7433:7441   */\n      dup7\n        /* \"#utility.yul\":7429:7448   */\n      and\n        /* \"#utility.yul\":7422:7427   */\n      dup5\n        /* \"#utility.yul\":7419:7449   */\n      or\n        /* \"#utility.yul\":7409:7449   */\n      swap3\n      pop\n        /* \"#utility.yul\":7138:7455   */\n      pop\n      pop\n        /* \"#utility.yul\":7062:7455   */\n      swap4\n      swap3\n      pop\n      pop\n      pop\n      jump\t// out\n        /* \"#utility.yul\":7461:7521   */\n    tag_70:\n        /* \"#utility.yul\":7489:7492   */\n      0x00\n        /* \"#utility.yul\":7510:7515   */\n      dup2\n        /* \"#utility.yul\":7503:7515   */\n      swap1\n      pop\n        /* \"#utility.yul\":7461:7521   */\n      swap2\n      swap1\n      pop\n      jump\t// out\n        /* \"#utility.yul\":7527:7669   */\n    tag_71:\n        /* \"#utility.yul\":7577:7586   */\n      0x00\n        /* \"#utility.yul\":7610:7663   */\n      tag_166\n        /* \"#utility.yul\":7628:7662   */\n      tag_167\n        /* \"#utility.yul\":7637:7661   */\n      tag_168\n        /* \"#utility.yul\":7655:7660   */\n      dup5\n        /* \"#utility.yul\":7637:7661   */\n      tag_46\n      jump\t// in\n    tag_168:\n        /* \"#utility.yul\":7628:7662   */\n      tag_70\n      jump\t// in\n    tag_167:\n        /* \"#utility.yul\":7610:7663   */\n      tag_46\n      jump\t// in\n    tag_166:\n        /* \"#utility.yul\":7597:7663   */\n      swap1\n      pop\n        /* \"#utility.yul\":7527:7669   */\n      swap2\n      swap1\n      pop\n      jump\t// out\n        /* \"#utility.yul\":7675:7750   */\n    tag_72:\n        /* \"#utility.yul\":7718:7721   */\n      0x00\n        /* \"#utility.yul\":7739:7744   */\n      dup2\n        /* \"#utility.yul\":7732:7744   */\n      swap1\n      pop\n        /* \"#utility.yul\":7675:7750   */\n      swap2\n      swap1\n      pop\n      jump\t// out\n        /* \"#utility.yul\":7756:8025   */\n    tag_73:\n        /* \"#utility.yul\":7866:7905   */\n      tag_171\n        /* \"#utility.yul\":7897:7904   */\n      dup4\n        /* \"#utility.yul\":7866:7905   */\n      tag_71\n      jump\t// in\n    tag_171:\n        /* \"#utility.yul\":7927:8018   */\n      tag_172\n        /* \"#utility.yul\":7976:8017   */\n      tag_173\n        /* \"#utility.yul\":8000:8016   */\n      dup3\n        /* \"#utility.yul\":7976:8017   */\n      tag_72\n      jump\t// in\n    tag_173:\n        /* \"#utility.yul\":7968:7974   */\n      dup5\n        /* \"#utility.yul\":7961:7965   */\n      dup5\n        /* \"#utility.yul\":7955:7966   */\n      sload\n        /* \"#utility.yul\":7927:8018   */\n      tag_69\n      jump\t// in\n    tag_172:\n        /* \"#utility.yul\":7921:7925   */\n      dup3\n        /* \"#utility.yul\":7914:8019   */\n      sstore\n        /* \"#utility.yul\":7832:8025   */\n      pop\n        /* \"#utility.yul\":7756:8025   */\n      pop\n      pop\n      pop\n      jump\t// out\n        /* \"#utility.yul\":8031:8104   */\n    tag_74:\n        /* \"#utility.yul\":8076:8079   */\n      0x00\n        /* \"#utility.yul\":8031:8104   */\n      swap1\n      jump\t// out\n        /* \"#utility.yul\":8110:8299   */\n    tag_75:\n        /* \"#utility.yul\":8187:8219   */\n      tag_176\n      tag_74\n      jump\t// in\n    tag_176:\n        /* \"#utility.yul\":8228:8293   */\n      tag_177\n        /* \"#utility.yul\":8286:8292   */\n      dup2\n        /* \"#utility.yul\":8278:8284   */\n      dup5\n        /* \"#utility.yul\":8272:8276   */\n      dup5\n        /* \"#utility.yul\":8228:8293   */\n      tag_73\n      jump\t// in\n    tag_177:\n        /* \"#utility.yul\":8163:8299   */\n      pop\n        /* \"#utility.yul\":8110:8299   */\n      pop\n      pop\n      jump\t// out\n        /* \"#utility.yul\":8305:8491   */\n    tag_76:\n        /* \"#utility.yul\":8365:8485   */\n    tag_179:\n        /* \"#utility.yul\":8382:8385   */\n      dup2\n        /* \"#utility.yul\":8375:8380   */\n      dup2\n        /* \"#utility.yul\":8372:8386   */\n      lt\n        /* \"#utility.yul\":8365:8485   */\n      iszero\n      tag_181\n      jumpi\n        /* \"#utility.yul\":8436:8475   */\n      tag_182\n        /* \"#utility.yul\":8473:8474   */\n      0x00\n        /* \"#utility.yul\":8466:8471   */\n      dup3\n        /* \"#utility.yul\":8436:8475   */\n      tag_75\n      jump\t// in\n    tag_182:\n        /* \"#utility.yul\":8409:8410   */\n      0x01\n        /* \"#utility.yul\":8402:8407   */\n      dup2\n        /* \"#utility.yul\":8398:8411   */\n      add\n        /* \"#utility.yul\":8389:8411   */\n      swap1\n      pop\n        /* \"#utility.yul\":8365:8485   */\n      jump(tag_179)\n    tag_181:\n        /* \"#utility.yul\":8305:8491   */\n      pop\n      pop\n      jump\t// out\n        /* \"#utility.yul\":8497:9040   */\n    tag_77:\n        /* \"#utility.yul\":8598:8600   */\n      0x1f\n        /* \"#utility.yul\":8593:8596   */\n      dup3\n        /* \"#utility.yul\":8590:8601   */\n      gt\n        /* \"#utility.yul\":8587:9033   */\n      iszero\n      tag_184\n      jumpi\n        /* \"#utility.yul\":8632:8670   */\n      tag_185\n        /* \"#utility.yul\":8664:8669   */\n      dup2\n        /* \"#utility.yul\":8632:8670   */\n      tag_66\n      jump\t// in\n    tag_185:\n        /* \"#utility.yul\":8716:8745   */\n      tag_186\n        /* \"#utility.yul\":8734:8744   */\n      dup5\n        /* \"#utility.yul\":8716:8745   */\n      tag_67\n      jump\t// in\n    tag_186:\n        /* \"#utility.yul\":8706:8714   */\n      dup2\n        /* \"#utility.yul\":8702:8746   */\n      add\n        /* \"#utility.yul\":8899:8901   */\n      0x20\n        /* \"#utility.yul\":8887:8897   */\n      dup6\n        /* \"#utility.yul\":8884:8902   */\n      lt\n        /* \"#utility.yul\":8881:8930   */\n      iszero\n      tag_187\n      jumpi\n        /* \"#utility.yul\":8920:8928   */\n      dup2\n        /* \"#utility.yul\":8905:8928   */\n      swap1\n      pop\n        /* \"#utility.yul\":8881:8930   */\n    tag_187:\n        /* \"#utility.yul\":8943:9023   */\n      tag_188\n        /* \"#utility.yul\":8999:9021   */\n      tag_189\n        /* \"#utility.yul\":9017:9020   */\n      dup6\n        /* \"#utility.yul\":8999:9021   */\n      tag_67\n      jump\t// in\n    tag_189:\n        /* \"#utility.yul\":8989:8997   */\n      dup4\n        /* \"#utility.yul\":8985:9022   */\n      add\n        /* \"#utility.yul\":8972:8983   */\n      dup3\n        /* \"#utility.yul\":8943:9023   */\n      tag_76\n      jump\t// in\n    tag_188:\n        /* \"#utility.yul\":8602:9033   */\n      pop\n      pop\n        /* \"#utility.yul\":8587:9033   */\n    tag_184:\n        /* \"#utility.yul\":8497:9040   */\n      pop\n      pop\n      pop\n      jump\t// out\n        /* \"#utility.yul\":9046:9163   */\n    tag_78:\n        /* \"#utility.yul\":9100:9108   */\n      0x00\n        /* \"#utility.yul\":9150:9155   */\n      dup3\n        /* \"#utility.yul\":9144:9148   */\n      dup3\n        /* \"#utility.yul\":9140:9156   */\n      shr\n        /* \"#utility.yul\":9119:9156   */\n      swap1\n      pop\n        /* \"#utility.yul\":9046:9163   */\n      swap3\n      swap2\n      pop\n      pop\n      jump\t// out\n        /* \"#utility.yul\":9169:9338   */\n    tag_79:\n        /* \"#utility.yul\":9213:9219   */\n      0x00\n        /* \"#utility.yul\":9246:9297   */\n      tag_192\n        /* \"#utility.yul\":9294:9295   */\n      0x00\n        /* \"#utility.yul\":9290:9296   */\n      not\n        /* \"#utility.yul\":9282:9287   */\n      dup5\n        /* \"#utility.yul\":9279:9280   */\n      0x08\n        /* \"#utility.yul\":9275:9288   */\n      mul\n        /* \"#utility.yul\":9246:9297   */\n      tag_78\n      jump\t// in\n    tag_192:\n        /* \"#utility.yul\":9242:9298   */\n      not\n        /* \"#utility.yul\":9327:9331   */\n      dup1\n        /* \"#utility.yul\":9321:9325   */\n      dup4\n        /* \"#utility.yul\":9317:9332   */\n      and\n        /* \"#utility.yul\":9307:9332   */\n      swap2\n      pop\n        /* \"#utility.yul\":9220:9338   */\n      pop\n        /* \"#utility.yul\":9169:9338   */\n      swap3\n      swap2\n      pop\n      pop\n      jump\t// out\n        /* \"#utility.yul\":9343:9638   */\n    tag_80:\n        /* \"#utility.yul\":9419:9423   */\n      0x00\n        /* \"#utility.yul\":9565:9594   */\n      tag_194\n        /* \"#utility.yul\":9590:9593   */\n      dup4\n        /* \"#utility.yul\":9584:9588   */\n      dup4\n        /* \"#utility.yul\":9565:9594   */\n      tag_79\n      jump\t// in\n    tag_194:\n        /* \"#utility.yul\":9557:9594   */\n      swap2\n      pop\n        /* \"#utility.yul\":9627:9630   */\n      dup3\n        /* \"#utility.yul\":9624:9625   */\n      0x02\n        /* \"#utility.yul\":9620:9631   */\n      mul\n        /* \"#utility.yul\":9614:9618   */\n      dup3\n        /* \"#utility.yul\":9611:9632   */\n      or\n        /* \"#utility.yul\":9603:9632   */\n      swap1\n      pop\n        /* \"#utility.yul\":9343:9638   */\n      swap3\n      swap2\n      pop\n      pop\n      jump\t// out\n        /* \"#utility.yul\":9643:11038   */\n    tag_31:\n        /* \"#utility.yul\":9760:9797   */\n      tag_196\n        /* \"#utility.yul\":9793:9796   */\n      dup3\n        /* \"#utility.yul\":9760:9797   */\n      tag_59\n      jump\t// in\n    tag_196:\n        /* \"#utility.yul\":9862:9880   */\n      0xffffffffffffffff\n        /* \"#utility.yul\":9854:9860   */\n      dup2\n        /* \"#utility.yul\":9851:9881   */\n      gt\n        /* \"#utility.yul\":9848:9904   */\n      iszero\n      tag_197\n      jumpi\n        /* \"#utility.yul\":9884:9902   */\n      tag_198\n      tag_52\n      jump\t// in\n    tag_198:\n        /* \"#utility.yul\":9848:9904   */\n    tag_197:\n        /* \"#utility.yul\":9928:9966   */\n      tag_199\n        /* \"#utility.yul\":9960:9964   */\n      dup3\n        /* \"#utility.yul\":9954:9965   */\n      sload\n        /* \"#utility.yul\":9928:9966   */\n      tag_38\n      jump\t// in\n    tag_199:\n        /* \"#utility.yul\":10013:10080   */\n      tag_200\n        /* \"#utility.yul\":10073:10079   */\n      dup3\n        /* \"#utility.yul\":10065:10071   */\n      dup3\n        /* \"#utility.yul\":10059:10063   */\n      dup6\n        /* \"#utility.yul\":10013:10080   */\n      tag_77\n      jump\t// in\n    tag_200:\n        /* \"#utility.yul\":10107:10108   */\n      0x00\n        /* \"#utility.yul\":10131:10135   */\n      0x20\n        /* \"#utility.yul\":10118:10135   */\n      swap1\n      pop\n        /* \"#utility.yul\":10163:10165   */\n      0x1f\n        /* \"#utility.yul\":10155:10161   */\n      dup4\n        /* \"#utility.yul\":10152:10166   */\n      gt\n        /* \"#utility.yul\":10180:10181   */\n      0x01\n        /* \"#utility.yul\":10175:10793   */\n      dup2\n      eq\n      tag_202\n      jumpi\n        /* \"#utility.yul\":10837:10838   */\n      0x00\n        /* \"#utility.yul\":10854:10860   */\n      dup5\n        /* \"#utility.yul\":10851:10928   */\n      iszero\n      tag_203\n      jumpi\n        /* \"#utility.yul\":10903:10912   */\n      dup3\n        /* \"#utility.yul\":10898:10901   */\n      dup8\n        /* \"#utility.yul\":10894:10913   */\n      add\n        /* \"#utility.yul\":10888:10914   */\n      mload\n        /* \"#utility.yul\":10879:10914   */\n      swap1\n      pop\n        /* \"#utility.yul\":10851:10928   */\n    tag_203:\n        /* \"#utility.yul\":10954:11021   */\n      tag_204\n        /* \"#utility.yul\":11014:11020   */\n      dup6\n        /* \"#utility.yul\":11007:11012   */\n      dup3\n        /* \"#utility.yul\":10954:11021   */\n      tag_80\n      jump\t// in\n    tag_204:\n        /* \"#utility.yul\":10948:10952   */\n      dup7\n        /* \"#utility.yul\":10941:11022   */\n      sstore\n        /* \"#utility.yul\":10810:11032   */\n      pop\n        /* \"#utility.yul\":10145:11032   */\n      jump(tag_201)\n        /* \"#utility.yul\":10175:10793   */\n    tag_202:\n        /* \"#utility.yul\":10227:10231   */\n      0x1f\n        /* \"#utility.yul\":10223:10232   */\n      not\n        /* \"#utility.yul\":10215:10221   */\n      dup5\n        /* \"#utility.yul\":10211:10233   */\n      and\n        /* \"#utility.yul\":10261:10298   */\n      tag_205\n        /* \"#utility.yul\":10293:10297   */\n      dup7\n        /* \"#utility.yul\":10261:10298   */\n      tag_66\n      jump\t// in\n    tag_205:\n        /* \"#utility.yul\":10320:10321   */\n      0x00\n        /* \"#utility.yul\":10334:10542   */\n    tag_206:\n        /* \"#utility.yul\":10348:10355   */\n      dup3\n        /* \"#utility.yul\":10345:10346   */\n      dup2\n        /* \"#utility.yul\":10342:10356   */\n      lt\n        /* \"#utility.yul\":10334:10542   */\n      iszero\n      tag_208\n      jumpi\n        /* \"#utility.yul\":10427:10436   */\n      dup5\n        /* \"#utility.yul\":10422:10425   */\n      dup10\n        /* \"#utility.yul\":10418:10437   */\n      add\n        /* \"#utility.yul\":10412:10438   */\n      mload\n        /* \"#utility.yul\":10404:10410   */\n      dup3\n        /* \"#utility.yul\":10397:10439   */\n      sstore\n        /* \"#utility.yul\":10478:10479   */\n      0x01\n        /* \"#utility.yul\":10470:10476   */\n      dup3\n        /* \"#utility.yul\":10466:10480   */\n      add\n        /* \"#utility.yul\":10456:10480   */\n      swap2\n      pop\n        /* \"#utility.yul\":10525:10527   */\n      0x20\n        /* \"#utility.yul\":10514:10523   */\n      dup6\n        /* \"#utility.yul\":10510:10528   */\n      add\n        /* \"#utility.yul\":10497:10528   */\n      swap5\n      pop\n        /* \"#utility.yul\":10371:10375   */\n      0x20\n        /* \"#utility.yul\":10368:10369   */\n      dup2\n        /* \"#utility.yul\":10364:10376   */\n      add\n        /* \"#utility.yul\":10359:10376   */\n      swap1\n      pop\n        /* \"#utility.yul\":10334:10542   */\n      jump(tag_206)\n    tag_208:\n        /* \"#utility.yul\":10570:10576   */\n      dup7\n        /* \"#utility.yul\":10561:10568   */\n      dup4\n        /* \"#utility.yul\":10558:10577   */\n      lt\n        /* \"#utility.yul\":10555:10734   */\n      iszero\n      tag_209\n      jumpi\n        /* \"#utility.yul\":10628:10637   */\n      dup5\n        /* \"#utility.yul\":10623:10626   */\n      dup10\n        /* \"#utility.yul\":10619:10638   */\n      add\n        /* \"#utility.yul\":10613:10639   */\n      mload\n        /* \"#utility.yul\":10671:10719   */\n      tag_210\n        /* \"#utility.yul\":10713:10717   */\n      0x1f\n        /* \"#utility.yul\":10705:10711   */\n      dup10\n        /* \"#utility.yul\":10701:10718   */\n      and\n        /* \"#utility.yul\":10690:10699   */\n      dup3\n        /* \"#utility.yul\":10671:10719   */\n      tag_79\n      jump\t// in\n    tag_210:\n        /* \"#utility.yul\":10663:10669   */\n      dup4\n        /* \"#utility.yul\":10656:10720   */\n      sstore\n        /* \"#utility.yul\":10578:10734   */\n      pop\n        /* \"#utility.yul\":10555:10734   */\n    tag_209:\n        /* \"#utility.yul\":10780:10781   */\n      0x01\n        /* \"#utility.yul\":10776:10777   */\n      0x02\n        /* \"#utility.yul\":10768:10774   */\n      dup9\n        /* \"#utility.yul\":10764:10778   */\n      mul\n        /* \"#utility.yul\":10760:10782   */\n      add\n        /* \"#utility.yul\":10754:10758   */\n      dup9\n        /* \"#utility.yul\":10747:10783   */\n      sstore\n        /* \"#utility.yul\":10182:10793   */\n      pop\n      pop\n      pop\n        /* \"#utility.yul\":10145:11032   */\n    tag_201:\n      pop\n        /* \"#utility.yul\":9735:11038   */\n      pop\n      pop\n      pop\n        /* \"#utility.yul\":9643:11038   */\n      pop\n      pop\n      jump\t// out\n\n    auxdata: 0xa2646970667358221220b8c3de3ebb5ce4ecce8b08932fc74b174fd0c1486f046ba15a9fd86254d4b9a164736f6c634300080f0033\n}\n",
				"bytecode": {
					"linkReferences": {},
					"object": "608060405234801561001057600080fd5b506108d4806100206000396000f3fe608060405234801561001057600080fd5b506004361061004c5760003560e01c80630178fe3f1461005157806389a8e2a71461006d578063b6a46b3b14610089578063bc8bc2b4146100a5575b600080fd5b61006b600480360381019061006691906102a6565b6100d6565b005b61008760048036038101906100829190610419565b6100d9565b005b6100a3600480360381019061009e9190610475565b610115565b005b6100bf60048036038101906100ba91906102a6565b610193565b6040516100cd929190610561565b60405180910390f35b50565b60008083815481106100ee576100ed610591565b5b906000526020600020906002020190508181600001908161010f91906107cc565b50505050565b60006040518060400160405280838152602001600115158152509080600181540180825580915050600190039060005260206000209060020201600090919091909150600082015181600001908161016d91906107cc565b5060208201518160010160006101000a81548160ff021916908315150217905550505050565b600081815481106101a357600080fd5b90600052602060002090600202016000915090508060000180546101c6906105ef565b80601f01602080910402602001604051908101604052809291908181526020018280546101f2906105ef565b801561023f5780601f106102145761010080835404028352916020019161023f565b820191906000526020600020905b81548152906001019060200180831161022257829003601f168201915b5050505050908060010160009054906101000a900460ff16905082565b6000604051905090565b600080fd5b600080fd5b6000819050919050565b61028381610270565b811461028e57600080fd5b50565b6000813590506102a08161027a565b92915050565b6000602082840312156102bc576102bb610266565b5b60006102ca84828501610291565b91505092915050565b600080fd5b600080fd5b6000601f19601f8301169050919050565b7f4e487b7100000000000000000000000000000000000000000000000000000000600052604160045260246000fd5b610326826102dd565b810181811067ffffffffffffffff82111715610345576103446102ee565b5b80604052505050565b600061035861025c565b9050610364828261031d565b919050565b600067ffffffffffffffff821115610384576103836102ee565b5b61038d826102dd565b9050602081019050919050565b82818337600083830152505050565b60006103bc6103b784610369565b61034e565b9050828152602081018484840111156103d8576103d76102d8565b5b6103e384828561039a565b509392505050565b600082601f830112610400576103ff6102d3565b5b81356104108482602086016103a9565b91505092915050565b600080604083850312156104305761042f610266565b5b600061043e85828601610291565b925050602083013567ffffffffffffffff81111561045f5761045e61026b565b5b61046b858286016103eb565b9150509250929050565b60006020828403121561048b5761048a610266565b5b600082013567ffffffffffffffff8111156104a9576104a861026b565b5b6104b5848285016103eb565b91505092915050565b600081519050919050565b600082825260208201905092915050565b60005b838110156104f85780820151818401526020810190506104dd565b83811115610507576000848401525b50505050565b6000610518826104be565b61052281856104c9565b93506105328185602086016104da565b61053b816102dd565b840191505092915050565b60008115159050919050565b61055b81610546565b82525050565b6000604082019050818103600083015261057b818561050d565b905061058a6020830184610552565b9392505050565b7f4e487b7100000000000000000000000000000000000000000000000000000000600052603260045260246000fd5b7f4e487b7100000000000000000000000000000000000000000000000000000000600052602260045260246000fd5b6000600282049050600182168061060757607f821691505b60208210810361061a576106196105c0565b5b50919050565b60008190508160005260206000209050919050565b60006020601f8301049050919050565b600082821b905092915050565b6000600883026106827fffffffffffffffffffffffffffffffffffffffffffffffffffffffffffffffff82610645565b61068c8683610645565b95508019841693508086168417925050509392505050565b6000819050919050565b60006106c96106c46106bf84610270565b6106a4565b610270565b9050919050565b6000819050919050565b6106e3836106ae565b6106f76106ef826106d0565b848454610652565b825550505050565b600090565b61070c6106ff565b6107178184846106da565b505050565b5b8181101561073b57610730600082610704565b60018101905061071d565b5050565b601f8211156107805761075181610620565b61075a84610635565b81016020851015610769578190505b61077d61077585610635565b83018261071c565b50505b505050565b600082821c905092915050565b60006107a360001984600802610785565b1980831691505092915050565b60006107bc8383610792565b9150826002028217905092915050565b6107d5826104be565b67ffffffffffffffff8111156107ee576107ed6102ee565b5b6107f882546105ef565b61080382828561073f565b600060209050601f8311600181146108365760008415610824578287015190505b61082e85826107b0565b865550610896565b601f19841661084486610620565b60005b8281101561086c57848901518255600182019150602085019450602081019050610847565b868310156108895784890151610885601f891682610792565b8355505b6001600288020188555050505b50505050505056fea2646970667358221220b8c3de3ebb5ce4ecce8b08932fc74b174fd0c1486f046ba15a9fd86254d4b9a164736f6c634300080f0033",
					"opcodes": "PUSH1 0x80 PUSH1 0x40 MSTORE CALLVALUE DUP1 ISZERO PUSH2 0x10 JUMPI PUSH1 0x0 DUP1 REVERT JUMPDEST POP PUSH2 0x8D4 DUP1 PUSH2 0x20 PUSH1 0x0 CODECOPY PUSH1 0x0 RETURN INVALID PUSH1 0x80 PUSH1 0x40 MSTORE CALLVALUE DUP1 ISZERO PUSH2 0x10 JUMPI PUSH1 0x0 DUP1 REVERT JUMPDEST POP PUSH1 0x4 CALLDATASIZE LT PUSH2 0x4C JUMPI PUSH1 0x0 CALLDATALOAD PUSH1 0xE0 SHR DUP1 PUSH4 0x178FE3F EQ PUSH2 0x51 JUMPI DUP1 PUSH4 0x89A8E2A7 EQ PUSH2 0x6D JUMPI DUP1 PUSH4 0xB6A46B3B EQ PUSH2 0x89 JUMPI DUP1 PUSH4 0xBC8BC2B4 EQ PUSH2 0xA5 JUMPI JUMPDEST PUSH1 0x0 DUP1 REVERT JUMPDEST PUSH2 0x6B PUSH1 0x4 DUP1 CALLDATASIZE SUB DUP2 ADD SWAP1 PUSH2 0x66 SWAP2 SWAP1 PUSH2 0x2A6 JUMP JUMPDEST PUSH2 0xD6 JUMP JUMPDEST STOP JUMPDEST PUSH2 0x87 PUSH1 0x4 DUP1 CALLDATASIZE SUB DUP2 ADD SWAP1 PUSH2 0x82 SWAP2 SWAP1 PUSH2 0x419 JUMP JUMPDEST PUSH2 0xD9 JUMP JUMPDEST STOP JUMPDEST PUSH2 0xA3 PUSH1 0x4 DUP1 CALLDATASIZE SUB DUP2 ADD SWAP1 PUSH2 0x9E SWAP2 SWAP1 PUSH2 0x475 JUMP JUMPDEST PUSH2 0x115 JUMP JUMPDEST STOP JUMPDEST PUSH2 0xBF PUSH1 0x4 DUP1 CALLDATASIZE SUB DUP2 ADD SWAP1 PUSH2 0xBA SWAP2 SWAP1 PUSH2 0x2A6 JUMP JUMPDEST PUSH2 0x193 JUMP JUMPDEST PUSH1 0x40 MLOAD PUSH2 0xCD SWAP3 SWAP2 SWAP1 PUSH2 0x561 JUMP JUMPDEST PUSH1 0x40 MLOAD DUP1 SWAP2 SUB SWAP1 RETURN JUMPDEST POP JUMP JUMPDEST PUSH1 0x0 DUP1 DUP4 DUP2 SLOAD DUP2 LT PUSH2 0xEE JUMPI PUSH2 0xED PUSH2 0x591 JUMP JUMPDEST JUMPDEST SWAP1 PUSH1 0x0 MSTORE PUSH1 0x20 PUSH1 0x0 KECCAK256 SWAP1 PUSH1 0x2 MUL ADD SWAP1 POP DUP2 DUP2 PUSH1 0x0 ADD SWAP1 DUP2 PUSH2 0x10F SWAP2 SWAP1 PUSH2 0x7CC JUMP JUMPDEST POP POP POP POP JUMP JUMPDEST PUSH1 0x0 PUSH1 0x40 MLOAD DUP1 PUSH1 0x40 ADD PUSH1 0x40 MSTORE DUP1 DUP4 DUP2 MSTORE PUSH1 0x20 ADD PUSH1 0x1 ISZERO ISZERO DUP2 MSTORE POP SWAP1 DUP1 PUSH1 0x1 DUP2 SLOAD ADD DUP1 DUP3 SSTORE DUP1 SWAP2 POP POP PUSH1 0x1 SWAP1 SUB SWAP1 PUSH1 0x0 MSTORE PUSH1 0x20 PUSH1 0x0 KECCAK256 SWAP1 PUSH1 0x2 MUL ADD PUSH1 0x0 SWAP1 SWAP2 SWAP1 SWAP2 SWAP1 SWAP2 POP PUSH1 0x0 DUP3 ADD MLOAD DUP2 PUSH1 0x0 ADD SWAP1 DUP2 PUSH2 0x16D SWAP2 SWAP1 PUSH2 0x7CC JUMP JUMPDEST POP PUSH1 0x20 DUP3 ADD MLOAD DUP2 PUSH1 0x1 ADD PUSH1 0x0 PUSH2 0x100 EXP DUP2 SLOAD DUP2 PUSH1 0xFF MUL NOT AND SWAP1 DUP4 ISZERO ISZERO MUL OR SWAP1 SSTORE POP POP POP POP JUMP JUMPDEST PUSH1 0x0 DUP2 DUP2 SLOAD DUP2 LT PUSH2 0x1A3 JUMPI PUSH1 0x0 DUP1 REVERT JUMPDEST SWAP1 PUSH1 0x0 MSTORE PUSH1 0x20 PUSH1 0x0 KECCAK256 SWAP1 PUSH1 0x2 MUL ADD PUSH1 0x0 SWAP2 POP SWAP1 POP DUP1 PUSH1 0x0 ADD DUP1 SLOAD PUSH2 0x1C6 SWAP1 PUSH2 0x5EF JUMP JUMPDEST DUP1 PUSH1 0x1F ADD PUSH1 0x20 DUP1 SWAP2 DIV MUL PUSH1 0x20 ADD PUSH1 0x40 MLOAD SWAP1 DUP2 ADD PUSH1 0x40 MSTORE DUP1 SWAP3 SWAP2 SWAP1 DUP2 DUP2 MSTORE PUSH1 0x20 ADD DUP3 DUP1 SLOAD PUSH2 0x1F2 SWAP1 PUSH2 0x5EF JUMP JUMPDEST DUP1 ISZERO PUSH2 0x23F JUMPI DUP1 PUSH1 0x1F LT PUSH2 0x214 JUMPI PUSH2 0x100 DUP1 DUP4 SLOAD DIV MUL DUP4 MSTORE SWAP2 PUSH1 0x20 ADD SWAP2 PUSH2 0x23F JUMP JUMPDEST DUP3 ADD SWAP2 SWAP1 PUSH1 0x0 MSTORE PUSH1 0x20 PUSH1 0x0 KECCAK256 SWAP1 JUMPDEST DUP2 SLOAD DUP2 MSTORE SWAP1 PUSH1 0x1 ADD SWAP1 PUSH1 0x20 ADD DUP1 DUP4 GT PUSH2 0x222 JUMPI DUP3 SWAP1 SUB PUSH1 0x1F AND DUP3 ADD SWAP2 JUMPDEST POP POP POP POP POP SWAP1 DUP1 PUSH1 0x1 ADD PUSH1 0x0 SWAP1 SLOAD SWAP1 PUSH2 0x100 EXP SWAP1 DIV PUSH1 0xFF AND SWAP1 POP DUP3 JUMP JUMPDEST PUSH1 0x0 PUSH1 0x40 MLOAD SWAP1 POP SWAP1 JUMP JUMPDEST PUSH1 0x0 DUP1 REVERT JUMPDEST PUSH1 0x0 DUP1 REVERT JUMPDEST PUSH1 0x0 DUP2 SWAP1 POP SWAP2 SWAP1 POP JUMP JUMPDEST PUSH2 0x283 DUP2 PUSH2 0x270 JUMP JUMPDEST DUP2 EQ PUSH2 0x28E JUMPI PUSH1 0x0 DUP1 REVERT JUMPDEST POP JUMP JUMPDEST PUSH1 0x0 DUP2 CALLDATALOAD SWAP1 POP PUSH2 0x2A0 DUP2 PUSH2 0x27A JUMP JUMPDEST SWAP3 SWAP2 POP POP JUMP JUMPDEST PUSH1 0x0 PUSH1 0x20 DUP3 DUP5 SUB SLT ISZERO PUSH2 0x2BC JUMPI PUSH2 0x2BB PUSH2 0x266 JUMP JUMPDEST JUMPDEST PUSH1 0x0 PUSH2 0x2CA DUP5 DUP3 DUP6 ADD PUSH2 0x291 JUMP JUMPDEST SWAP2 POP POP SWAP3 SWAP2 POP POP JUMP JUMPDEST PUSH1 0x0 DUP1 REVERT JUMPDEST PUSH1 0x0 DUP1 REVERT JUMPDEST PUSH1 0x0 PUSH1 0x1F NOT PUSH1 0x1F DUP4 ADD AND SWAP1 POP SWAP2 SWAP1 POP JUMP JUMPDEST PUSH32 0x4E487B7100000000000000000000000000000000000000000000000000000000 PUSH1 0x0 MSTORE PUSH1 0x41 PUSH1 0x4 MSTORE PUSH1 0x24 PUSH1 0x0 REVERT JUMPDEST PUSH2 0x326 DUP3 PUSH2 0x2DD JUMP JUMPDEST DUP2 ADD DUP2 DUP2 LT PUSH8 0xFFFFFFFFFFFFFFFF DUP3 GT OR ISZERO PUSH2 0x345 JUMPI PUSH2 0x344 PUSH2 0x2EE JUMP JUMPDEST JUMPDEST DUP1 PUSH1 0x40 MSTORE POP POP POP JUMP JUMPDEST PUSH1 0x0 PUSH2 0x358 PUSH2 0x25C JUMP JUMPDEST SWAP1 POP PUSH2 0x364 DUP3 DUP3 PUSH2 0x31D JUMP JUMPDEST SWAP2 SWAP1 POP JUMP JUMPDEST PUSH1 0x0 PUSH8 0xFFFFFFFFFFFFFFFF DUP3 GT ISZERO PUSH2 0x384 JUMPI PUSH2 0x383 PUSH2 0x2EE JUMP JUMPDEST JUMPDEST PUSH2 0x38D DUP3 PUSH2 0x2DD JUMP JUMPDEST SWAP1 POP PUSH1 0x20 DUP2 ADD SWAP1 POP SWAP2 SWAP1 POP JUMP JUMPDEST DUP3 DUP2 DUP4 CALLDATACOPY PUSH1 0x0 DUP4 DUP4 ADD MSTORE POP POP POP JUMP JUMPDEST PUSH1 0x0 PUSH2 0x3BC PUSH2 0x3B7 DUP5 PUSH2 0x369 JUMP JUMPDEST PUSH2 0x34E JUMP JUMPDEST SWAP1 POP DUP3 DUP2 MSTORE PUSH1 0x20 DUP2 ADD DUP5 DUP5 DUP5 ADD GT ISZERO PUSH2 0x3D8 JUMPI PUSH2 0x3D7 PUSH2 0x2D8 JUMP JUMPDEST JUMPDEST PUSH2 0x3E3 DUP5 DUP3 DUP6 PUSH2 0x39A JUMP JUMPDEST POP SWAP4 SWAP3 POP POP POP JUMP JUMPDEST PUSH1 0x0 DUP3 PUSH1 0x1F DUP4 ADD SLT PUSH2 0x400 JUMPI PUSH2 0x3FF PUSH2 0x2D3 JUMP JUMPDEST JUMPDEST DUP2 CALLDATALOAD PUSH2 0x410 DUP5 DUP3 PUSH1 0x20 DUP7 ADD PUSH2 0x3A9 JUMP JUMPDEST SWAP2 POP POP SWAP3 SWAP2 POP POP JUMP JUMPDEST PUSH1 0x0 DUP1 PUSH1 0x40 DUP4 DUP6 SUB SLT ISZERO PUSH2 0x430 JUMPI PUSH2 0x42F PUSH2 0x266 JUMP JUMPDEST JUMPDEST PUSH1 0x0 PUSH2 0x43E DUP6 DUP3 DUP7 ADD PUSH2 0x291 JUMP JUMPDEST SWAP3 POP POP PUSH1 0x20 DUP4 ADD CALLDATALOAD PUSH8 0xFFFFFFFFFFFFFFFF DUP2 GT ISZERO PUSH2 0x45F JUMPI PUSH2 0x45E PUSH2 0x26B JUMP JUMPDEST JUMPDEST PUSH2 0x46B DUP6 DUP3 DUP7 ADD PUSH2 0x3EB JUMP JUMPDEST SWAP2 POP POP SWAP3 POP SWAP3 SWAP1 POP JUMP JUMPDEST PUSH1 0x0 PUSH1 0x20 DUP3 DUP5 SUB SLT ISZERO PUSH2 0x48B JUMPI PUSH2 0x48A PUSH2 0x266 JUMP JUMPDEST JUMPDEST PUSH1 0x0 DUP3 ADD CALLDATALOAD PUSH8 0xFFFFFFFFFFFFFFFF DUP2 GT ISZERO PUSH2 0x4A9 JUMPI PUSH2 0x4A8 PUSH2 0x26B JUMP JUMPDEST JUMPDEST PUSH2 0x4B5 DUP5 DUP3 DUP6 ADD PUSH2 0x3EB JUMP JUMPDEST SWAP2 POP POP SWAP3 SWAP2 POP POP JUMP JUMPDEST PUSH1 0x0 DUP2 MLOAD SWAP1 POP SWAP2 SWAP1 POP JUMP JUMPDEST PUSH1 0x0 DUP3 DUP3 MSTORE PUSH1 0x20 DUP3 ADD SWAP1 POP SWAP3 SWAP2 POP POP JUMP JUMPDEST PUSH1 0x0 JUMPDEST DUP4 DUP2 LT ISZERO PUSH2 0x4F8 JUMPI DUP1 DUP3 ADD MLOAD DUP2 DUP5 ADD MSTORE PUSH1 0x20 DUP2 ADD SWAP1 POP PUSH2 0x4DD JUMP JUMPDEST DUP4 DUP2 GT ISZERO PUSH2 0x507 JUMPI PUSH1 0x0 DUP5 DUP5 ADD MSTORE JUMPDEST POP POP POP POP JUMP JUMPDEST PUSH1 0x0 PUSH2 0x518 DUP3 PUSH2 0x4BE JUMP JUMPDEST PUSH2 0x522 DUP2 DUP6 PUSH2 0x4C9 JUMP JUMPDEST SWAP4 POP PUSH2 0x532 DUP2 DUP6 PUSH1 0x20 DUP7 ADD PUSH2 0x4DA JUMP JUMPDEST PUSH2 0x53B DUP2 PUSH2 0x2DD JUMP JUMPDEST DUP5 ADD SWAP2 POP POP SWAP3 SWAP2 POP POP JUMP JUMPDEST PUSH1 0x0 DUP2 ISZERO ISZERO SWAP1 POP SWAP2 SWAP1 POP JUMP JUMPDEST PUSH2 0x55B DUP2 PUSH2 0x546 JUMP JUMPDEST DUP3 MSTORE POP POP JUMP JUMPDEST PUSH1 0x0 PUSH1 0x40 DUP3 ADD SWAP1 POP DUP2 DUP2 SUB PUSH1 0x0 DUP4 ADD MSTORE PUSH2 0x57B DUP2 DUP6 PUSH2 0x50D JUMP JUMPDEST SWAP1 POP PUSH2 0x58A PUSH1 0x20 DUP4 ADD DUP5 PUSH2 0x552 JUMP JUMPDEST SWAP4 SWAP3 POP POP POP JUMP JUMPDEST PUSH32 0x4E487B7100000000000000000000000000000000000000000000000000000000 PUSH1 0x0 MSTORE PUSH1 0x32 PUSH1 0x4 MSTORE PUSH1 0x24 PUSH1 0x0 REVERT JUMPDEST PUSH32 0x4E487B7100000000000000000000000000000000000000000000000000000000 PUSH1 0x0 MSTORE PUSH1 0x22 PUSH1 0x4 MSTORE PUSH1 0x24 PUSH1 0x0 REVERT JUMPDEST PUSH1 0x0 PUSH1 0x2 DUP3 DIV SWAP1 POP PUSH1 0x1 DUP3 AND DUP1 PUSH2 0x607 JUMPI PUSH1 0x7F DUP3 AND SWAP2 POP JUMPDEST PUSH1 0x20 DUP3 LT DUP2 SUB PUSH2 0x61A JUMPI PUSH2 0x619 PUSH2 0x5C0 JUMP JUMPDEST JUMPDEST POP SWAP2 SWAP1 POP JUMP JUMPDEST PUSH1 0x0 DUP2 SWAP1 POP DUP2 PUSH1 0x0 MSTORE PUSH1 0x20 PUSH1 0x0 KECCAK256 SWAP1 POP SWAP2 SWAP1 POP JUMP JUMPDEST PUSH1 0x0 PUSH1 0x20 PUSH1 0x1F DUP4 ADD DIV SWAP1 POP SWAP2 SWAP1 POP JUMP JUMPDEST PUSH1 0x0 DUP3 DUP3 SHL SWAP1 POP SWAP3 SWAP2 POP POP JUMP JUMPDEST PUSH1 0x0 PUSH1 0x8 DUP4 MUL PUSH2 0x682 PUSH32 0xFFFFFFFFFFFFFFFFFFFFFFFFFFFFFFFFFFFFFFFFFFFFFFFFFFFFFFFFFFFFFFFF DUP3 PUSH2 0x645 JUMP JUMPDEST PUSH2 0x68C DUP7 DUP4 PUSH2 0x645 JUMP JUMPDEST SWAP6 POP DUP1 NOT DUP5 AND SWAP4 POP DUP1 DUP7 AND DUP5 OR SWAP3 POP POP POP SWAP4 SWAP3 POP POP POP JUMP JUMPDEST PUSH1 0x0 DUP2 SWAP1 POP SWAP2 SWAP1 POP JUMP JUMPDEST PUSH1 0x0 PUSH2 0x6C9 PUSH2 0x6C4 PUSH2 0x6BF DUP5 PUSH2 0x270 JUMP JUMPDEST PUSH2 0x6A4 JUMP JUMPDEST PUSH2 0x270 JUMP JUMPDEST SWAP1 POP SWAP2 SWAP1 POP JUMP JUMPDEST PUSH1 0x0 DUP2 SWAP1 POP SWAP2 SWAP1 POP JUMP JUMPDEST PUSH2 0x6E3 DUP4 PUSH2 0x6AE JUMP JUMPDEST PUSH2 0x6F7 PUSH2 0x6EF DUP3 PUSH2 0x6D0 JUMP JUMPDEST DUP5 DUP5 SLOAD PUSH2 0x652 JUMP JUMPDEST DUP3 SSTORE POP POP POP POP JUMP JUMPDEST PUSH1 0x0 SWAP1 JUMP JUMPDEST PUSH2 0x70C PUSH2 0x6FF JUMP JUMPDEST PUSH2 0x717 DUP2 DUP5 DUP5 PUSH2 0x6DA JUMP JUMPDEST POP POP POP JUMP JUMPDEST JUMPDEST DUP2 DUP2 LT ISZERO PUSH2 0x73B JUMPI PUSH2 0x730 PUSH1 0x0 DUP3 PUSH2 0x704 JUMP JUMPDEST PUSH1 0x1 DUP2 ADD SWAP1 POP PUSH2 0x71D JUMP JUMPDEST POP POP JUMP JUMPDEST PUSH1 0x1F DUP3 GT ISZERO PUSH2 0x780 JUMPI PUSH2 0x751 DUP2 PUSH2 0x620 JUMP JUMPDEST PUSH2 0x75A DUP5 PUSH2 0x635 JUMP JUMPDEST DUP2 ADD PUSH1 0x20 DUP6 LT ISZERO PUSH2 0x769 JUMPI DUP2 SWAP1 POP JUMPDEST PUSH2 0x77D PUSH2 0x775 DUP6 PUSH2 0x635 JUMP JUMPDEST DUP4 ADD DUP3 PUSH2 0x71C JUMP JUMPDEST POP POP JUMPDEST POP POP POP JUMP JUMPDEST PUSH1 0x0 DUP3 DUP3 SHR SWAP1 POP SWAP3 SWAP2 POP POP JUMP JUMPDEST PUSH1 0x0 PUSH2 0x7A3 PUSH1 0x0 NOT DUP5 PUSH1 0x8 MUL PUSH2 0x785 JUMP JUMPDEST NOT DUP1 DUP4 AND SWAP2 POP POP SWAP3 SWAP2 POP POP JUMP JUMPDEST PUSH1 0x0 PUSH2 0x7BC DUP4 DUP4 PUSH2 0x792 JUMP JUMPDEST SWAP2 POP DUP3 PUSH1 0x2 MUL DUP3 OR SWAP1 POP SWAP3 SWAP2 POP POP JUMP JUMPDEST PUSH2 0x7D5 DUP3 PUSH2 0x4BE JUMP JUMPDEST PUSH8 0xFFFFFFFFFFFFFFFF DUP2 GT ISZERO PUSH2 0x7EE JUMPI PUSH2 0x7ED PUSH2 0x2EE JUMP JUMPDEST JUMPDEST PUSH2 0x7F8 DUP3 SLOAD PUSH2 0x5EF JUMP JUMPDEST PUSH2 0x803 DUP3 DUP3 DUP6 PUSH2 0x73F JUMP JUMPDEST PUSH1 0x0 PUSH1 0x20 SWAP1 POP PUSH1 0x1F DUP4 GT PUSH1 0x1 DUP2 EQ PUSH2 0x836 JUMPI PUSH1 0x0 DUP5 ISZERO PUSH2 0x824 JUMPI DUP3 DUP8 ADD MLOAD SWAP1 POP JUMPDEST PUSH2 0x82E DUP6 DUP3 PUSH2 0x7B0 JUMP JUMPDEST DUP7 SSTORE POP PUSH2 0x896 JUMP JUMPDEST PUSH1 0x1F NOT DUP5 AND PUSH2 0x844 DUP7 PUSH2 0x620 JUMP JUMPDEST PUSH1 0x0 JUMPDEST DUP3 DUP2 LT ISZERO PUSH2 0x86C JUMPI DUP5 DUP10 ADD MLOAD DUP3 SSTORE PUSH1 0x1 DUP3 ADD SWAP2 POP PUSH1 0x20 DUP6 ADD SWAP5 POP PUSH1 0x20 DUP2 ADD SWAP1 POP PUSH2 0x847 JUMP JUMPDEST DUP7 DUP4 LT ISZERO PUSH2 0x889 JUMPI DUP5 DUP10 ADD MLOAD PUSH2 0x885 PUSH1 0x1F DUP10 AND DUP3 PUSH2 0x792 JUMP JUMPDEST DUP4 SSTORE POP JUMPDEST PUSH1 0x1 PUSH1 0x2 DUP9 MUL ADD DUP9 SSTORE POP POP POP JUMPDEST POP POP POP POP POP POP JUMP INVALID LOG2 PUSH5 0x6970667358 0x22 SLT KECCAK256 0xB8 0xC3 0xDE RETURNDATACOPY 0xBB 0x5C 0xE4 0xEC 0xCE DUP12 ADDMOD SWAP4 0x2F 0xC7 0x4B OR 0x4F 0xD0 0xC1 BASEFEE PUSH16 0x46BA15A9FD86254D4B9A164736F6C63 NUMBER STOP ADDMOD 0xF STOP CALLER "
				},
				"gasEstimates": {
					"creation": {
						"codeDepositCost": "452000",
						"executionCost": "486",
						"totalCost": "452486"
					},
					"external": {
						"create(string)": "infinite",
						"getData(uint256)": "384",
						"todos(uint256)": "infinite",
						"updateData(uint256,string)": "infinite"
					}
				},
				"methodIdentifiers": {
					"create(string)": "b6a46b3b",
					"getData(uint256)": "0178fe3f",
					"todos(uint256)": "bc8bc2b4",
					"updateData(uint256,string)": "89a8e2a7"
				}
			},
			"storageLayout": {
				"storage": [
					{
						"astId": 10,
						"contract": "SolidityCodes/Todo_List.sol:Todo_List",
						"label": "todos",
						"offset": 0,
						"slot": "0",
						"type": "t_array(t_struct(Todo)6_storage)dyn_storage"
					}
				],
				"types": {
					"t_array(t_struct(Todo)6_storage)dyn_storage": {
						"base": "t_struct(Todo)6_storage",
						"encoding": "dynamic_array",
						"label": "struct Todo_List.Todo[]",
						"numberOfBytes": "32"
					},
					"t_bool": {
						"encoding": "inplace",
						"label": "bool",
						"numberOfBytes": "1"
					},
					"t_string_storage": {
						"encoding": "bytes",
						"label": "string",
						"numberOfBytes": "32"
					},
					"t_struct(Todo)6_storage": {
						"encoding": "inplace",
						"label": "struct Todo_List.Todo",
						"members": [
							{
								"astId": 3,
								"contract": "SolidityCodes/Todo_List.sol:Todo_List",
								"label": "text",
								"offset": 0,
								"slot": "0",
								"type": "t_string_storage"
							},
							{
								"astId": 5,
								"contract": "SolidityCodes/Todo_List.sol:Todo_List",
								"label": "complete",
								"offset": 0,
								"slot": "1",
								"type": "t_bool"
							}
						],
						"numberOfBytes": "64"
					}
				}
			},
			"userdoc": {
				"kind": "user",
				"methods": {},
				"version": 1
			}
		}
	}
}