{
	"SolidityCodes/Struct.sol": {
		"Struct": {
			"abi": [
				{
					"inputs": [
						{
							"internalType": "uint256",
							"name": "ind",
							"type": "uint256"
						}
					],
					"name": "getData",
					"outputs": [
						{
							"internalType": "string",
							"name": "_name",
							"type": "string"
						},
						{
							"internalType": "uint256",
							"name": "age",
							"type": "uint256"
						}
					],
					"stateMutability": "view",
					"type": "function"
				},
				{
					"inputs": [
						{
							"internalType": "uint256",
							"name": "",
							"type": "uint256"
						}
					],
					"name": "person",
					"outputs": [
						{
							"internalType": "string",
							"name": "name",
							"type": "string"
						},
						{
							"internalType": "uint256",
							"name": "age",
							"type": "uint256"
						}
					],
					"stateMutability": "view",
					"type": "function"
				},
				{
					"inputs": [
						{
							"internalType": "string",
							"name": "_name",
							"type": "string"
						},
						{
							"internalType": "uint256",
							"name": "_age",
							"type": "uint256"
						}
					],
					"name": "setData",
					"outputs": [],
					"stateMutability": "nonpayable",
					"type": "function"
				}
			],
			"devdoc": {
				"kind": "dev",
				"methods": {},
				"version": 1
			},
			"evm": {
				"assembly": "    /* \"SolidityCodes/Struct.sol\":61:436  contract Struct{... */\n  mstore(0x40, 0x80)\n  callvalue\n  dup1\n  iszero\n  tag_1\n  jumpi\n  0x00\n  dup1\n  revert\ntag_1:\n  pop\n  dataSize(sub_0)\n  dup1\n  dataOffset(sub_0)\n  0x00\n  codecopy\n  0x00\n  return\nstop\n\nsub_0: assembly {\n        /* \"SolidityCodes/Struct.sol\":61:436  contract Struct{... */\n      mstore(0x40, 0x80)\n      callvalue\n      dup1\n      iszero\n      tag_1\n      jumpi\n      0x00\n      dup1\n      revert\n    tag_1:\n      pop\n      jumpi(tag_2, lt(calldatasize, 0x04))\n      shr(0xe0, calldataload(0x00))\n      dup1\n      0x0178fe3f\n      eq\n      tag_3\n      jumpi\n      dup1\n      0x092a1820\n      eq\n      tag_4\n      jumpi\n      dup1\n      0xaf22068e\n      eq\n      tag_5\n      jumpi\n    tag_2:\n      0x00\n      dup1\n      revert\n        /* \"SolidityCodes/Struct.sol\":296:421  function getData(uint ind) public view returns(string memory _name,uint age){... */\n    tag_3:\n      tag_6\n      0x04\n      dup1\n      calldatasize\n      sub\n      dup2\n      add\n      swap1\n      tag_7\n      swap2\n      swap1\n      tag_8\n      jump\t// in\n    tag_7:\n      tag_9\n      jump\t// in\n    tag_6:\n      mload(0x40)\n      tag_10\n      swap3\n      swap2\n      swap1\n      tag_11\n      jump\t// in\n    tag_10:\n      mload(0x40)\n      dup1\n      swap2\n      sub\n      swap1\n      return\n        /* \"SolidityCodes/Struct.sol\":153:175  Person[] public person */\n    tag_4:\n      tag_12\n      0x04\n      dup1\n      calldatasize\n      sub\n      dup2\n      add\n      swap1\n      tag_13\n      swap2\n      swap1\n      tag_8\n      jump\t// in\n    tag_13:\n      tag_14\n      jump\t// in\n    tag_12:\n      mload(0x40)\n      tag_15\n      swap3\n      swap2\n      swap1\n      tag_11\n      jump\t// in\n    tag_15:\n      mload(0x40)\n      dup1\n      swap2\n      sub\n      swap1\n      return\n        /* \"SolidityCodes/Struct.sol\":184:288  function setData(string memory _name,uint _age) public{... */\n    tag_5:\n      tag_16\n      0x04\n      dup1\n      calldatasize\n      sub\n      dup2\n      add\n      swap1\n      tag_17\n      swap2\n      swap1\n      tag_18\n      jump\t// in\n    tag_17:\n      tag_19\n      jump\t// in\n    tag_16:\n      stop\n        /* \"SolidityCodes/Struct.sol\":296:421  function getData(uint ind) public view returns(string memory _name,uint age){... */\n    tag_9:\n        /* \"SolidityCodes/Struct.sol\":343:362  string memory _name */\n      0x60\n        /* \"SolidityCodes/Struct.sol\":363:371  uint age */\n      0x00\n        /* \"SolidityCodes/Struct.sol\":383:399  Person storage p */\n      dup1\n        /* \"SolidityCodes/Struct.sol\":400:406  person */\n      0x00\n        /* \"SolidityCodes/Struct.sol\":407:410  ind */\n      dup5\n        /* \"SolidityCodes/Struct.sol\":400:411  person[ind] */\n      dup2\n      sload\n      dup2\n      lt\n      tag_21\n      jumpi\n      tag_22\n      tag_23\n      jump\t// in\n    tag_22:\n    tag_21:\n      swap1\n      0x00\n      mstore\n      keccak256(0x00, 0x20)\n      swap1\n      0x02\n      mul\n      add\n        /* \"SolidityCodes/Struct.sol\":383:411  Person storage p=person[ind] */\n      swap1\n      pop\n        /* \"SolidityCodes/Struct.sol\":372:421  {... */\n      pop\n        /* \"SolidityCodes/Struct.sol\":296:421  function getData(uint ind) public view returns(string memory _name,uint age){... */\n      swap2\n      pop\n      swap2\n      jump\t// out\n        /* \"SolidityCodes/Struct.sol\":153:175  Person[] public person */\n    tag_14:\n      0x00\n      dup2\n      dup2\n      sload\n      dup2\n      lt\n      tag_25\n      jumpi\n      0x00\n      dup1\n      revert\n    tag_25:\n      swap1\n      0x00\n      mstore\n      keccak256(0x00, 0x20)\n      swap1\n      0x02\n      mul\n      add\n      0x00\n      swap2\n      pop\n      swap1\n      pop\n      dup1\n      0x00\n      add\n      dup1\n      sload\n      tag_27\n      swap1\n      tag_28\n      jump\t// in\n    tag_27:\n      dup1\n      0x1f\n      add\n      0x20\n      dup1\n      swap2\n      div\n      mul\n      0x20\n      add\n      mload(0x40)\n      swap1\n      dup2\n      add\n      0x40\n      mstore\n      dup1\n      swap3\n      swap2\n      swap1\n      dup2\n      dup2\n      mstore\n      0x20\n      add\n      dup3\n      dup1\n      sload\n      tag_29\n      swap1\n      tag_28\n      jump\t// in\n    tag_29:\n      dup1\n      iszero\n      tag_30\n      jumpi\n      dup1\n      0x1f\n      lt\n      tag_31\n      jumpi\n      0x0100\n      dup1\n      dup4\n      sload\n      div\n      mul\n      dup4\n      mstore\n      swap2\n      0x20\n      add\n      swap2\n      jump(tag_30)\n    tag_31:\n      dup3\n      add\n      swap2\n      swap1\n      0x00\n      mstore\n      keccak256(0x00, 0x20)\n      swap1\n    tag_32:\n      dup2\n      sload\n      dup2\n      mstore\n      swap1\n      0x01\n      add\n      swap1\n      0x20\n      add\n      dup1\n      dup4\n      gt\n      tag_32\n      jumpi\n      dup3\n      swap1\n      sub\n      0x1f\n      and\n      dup3\n      add\n      swap2\n    tag_30:\n      pop\n      pop\n      pop\n      pop\n      pop\n      swap1\n      dup1\n      0x01\n      add\n      sload\n      swap1\n      pop\n      dup3\n      jump\t// out\n        /* \"SolidityCodes/Struct.sol\":184:288  function setData(string memory _name,uint _age) public{... */\n    tag_19:\n        /* \"SolidityCodes/Struct.sol\":249:255  person */\n      0x00\n        /* \"SolidityCodes/Struct.sol\":261:279  Person(_name,_age) */\n      mload(0x40)\n      dup1\n      0x40\n      add\n      0x40\n      mstore\n      dup1\n        /* \"SolidityCodes/Struct.sol\":268:273  _name */\n      dup5\n        /* \"SolidityCodes/Struct.sol\":261:279  Person(_name,_age) */\n      dup2\n      mstore\n      0x20\n      add\n        /* \"SolidityCodes/Struct.sol\":274:278  _age */\n      dup4\n        /* \"SolidityCodes/Struct.sol\":261:279  Person(_name,_age) */\n      dup2\n      mstore\n      pop\n        /* \"SolidityCodes/Struct.sol\":249:280  person.push(Person(_name,_age)) */\n      swap1\n      dup1\n      0x01\n      dup2\n      sload\n      add\n      dup1\n      dup3\n      sstore\n      dup1\n      swap2\n      pop\n      pop\n      0x01\n      swap1\n      sub\n      swap1\n      0x00\n      mstore\n      keccak256(0x00, 0x20)\n      swap1\n      0x02\n      mul\n      add\n      0x00\n      swap1\n      swap2\n      swap1\n      swap2\n      swap1\n      swap2\n      pop\n      0x00\n      dup3\n      add\n      mload\n      dup2\n      0x00\n      add\n      swap1\n      dup2\n      tag_35\n      swap2\n      swap1\n      tag_36\n      jump\t// in\n    tag_35:\n      pop\n      0x20\n      dup3\n      add\n      mload\n      dup2\n      0x01\n      add\n      sstore\n      pop\n      pop\n        /* \"SolidityCodes/Struct.sol\":184:288  function setData(string memory _name,uint _age) public{... */\n      pop\n      pop\n      jump\t// out\n        /* \"#utility.yul\":7:82   */\n    tag_37:\n        /* \"#utility.yul\":40:46   */\n      0x00\n        /* \"#utility.yul\":73:75   */\n      0x40\n        /* \"#utility.yul\":67:76   */\n      mload\n        /* \"#utility.yul\":57:76   */\n      swap1\n      pop\n        /* \"#utility.yul\":7:82   */\n      swap1\n      jump\t// out\n        /* \"#utility.yul\":88:205   */\n    tag_38:\n        /* \"#utility.yul\":197:198   */\n      0x00\n        /* \"#utility.yul\":194:195   */\n      dup1\n        /* \"#utility.yul\":187:199   */\n      revert\n        /* \"#utility.yul\":211:328   */\n    tag_39:\n        /* \"#utility.yul\":320:321   */\n      0x00\n        /* \"#utility.yul\":317:318   */\n      dup1\n        /* \"#utility.yul\":310:322   */\n      revert\n        /* \"#utility.yul\":334:411   */\n    tag_40:\n        /* \"#utility.yul\":371:378   */\n      0x00\n        /* \"#utility.yul\":400:405   */\n      dup2\n        /* \"#utility.yul\":389:405   */\n      swap1\n      pop\n        /* \"#utility.yul\":334:411   */\n      swap2\n      swap1\n      pop\n      jump\t// out\n        /* \"#utility.yul\":417:539   */\n    tag_41:\n        /* \"#utility.yul\":490:514   */\n      tag_80\n        /* \"#utility.yul\":508:513   */\n      dup2\n        /* \"#utility.yul\":490:514   */\n      tag_40\n      jump\t// in\n    tag_80:\n        /* \"#utility.yul\":483:488   */\n      dup2\n        /* \"#utility.yul\":480:515   */\n      eq\n        /* \"#utility.yul\":470:533   */\n      tag_81\n      jumpi\n        /* \"#utility.yul\":529:530   */\n      0x00\n        /* \"#utility.yul\":526:527   */\n      dup1\n        /* \"#utility.yul\":519:531   */\n      revert\n        /* \"#utility.yul\":470:533   */\n    tag_81:\n        /* \"#utility.yul\":417:539   */\n      pop\n      jump\t// out\n        /* \"#utility.yul\":545:684   */\n    tag_42:\n        /* \"#utility.yul\":591:596   */\n      0x00\n        /* \"#utility.yul\":629:635   */\n      dup2\n        /* \"#utility.yul\":616:636   */\n      calldataload\n        /* \"#utility.yul\":607:636   */\n      swap1\n      pop\n        /* \"#utility.yul\":645:678   */\n      tag_83\n        /* \"#utility.yul\":672:677   */\n      dup2\n        /* \"#utility.yul\":645:678   */\n      tag_41\n      jump\t// in\n    tag_83:\n        /* \"#utility.yul\":545:684   */\n      swap3\n      swap2\n      pop\n      pop\n      jump\t// out\n        /* \"#utility.yul\":690:1019   */\n    tag_8:\n        /* \"#utility.yul\":749:755   */\n      0x00\n        /* \"#utility.yul\":798:800   */\n      0x20\n        /* \"#utility.yul\":786:795   */\n      dup3\n        /* \"#utility.yul\":777:784   */\n      dup5\n        /* \"#utility.yul\":773:796   */\n      sub\n        /* \"#utility.yul\":769:801   */\n      slt\n        /* \"#utility.yul\":766:885   */\n      iszero\n      tag_85\n      jumpi\n        /* \"#utility.yul\":804:883   */\n      tag_86\n      tag_38\n      jump\t// in\n    tag_86:\n        /* \"#utility.yul\":766:885   */\n    tag_85:\n        /* \"#utility.yul\":924:925   */\n      0x00\n        /* \"#utility.yul\":949:1002   */\n      tag_87\n        /* \"#utility.yul\":994:1001   */\n      dup5\n        /* \"#utility.yul\":985:991   */\n      dup3\n        /* \"#utility.yul\":974:983   */\n      dup6\n        /* \"#utility.yul\":970:992   */\n      add\n        /* \"#utility.yul\":949:1002   */\n      tag_42\n      jump\t// in\n    tag_87:\n        /* \"#utility.yul\":939:1002   */\n      swap2\n      pop\n        /* \"#utility.yul\":895:1012   */\n      pop\n        /* \"#utility.yul\":690:1019   */\n      swap3\n      swap2\n      pop\n      pop\n      jump\t// out\n        /* \"#utility.yul\":1025:1124   */\n    tag_43:\n        /* \"#utility.yul\":1077:1083   */\n      0x00\n        /* \"#utility.yul\":1111:1116   */\n      dup2\n        /* \"#utility.yul\":1105:1117   */\n      mload\n        /* \"#utility.yul\":1095:1117   */\n      swap1\n      pop\n        /* \"#utility.yul\":1025:1124   */\n      swap2\n      swap1\n      pop\n      jump\t// out\n        /* \"#utility.yul\":1130:1299   */\n    tag_44:\n        /* \"#utility.yul\":1214:1225   */\n      0x00\n        /* \"#utility.yul\":1248:1254   */\n      dup3\n        /* \"#utility.yul\":1243:1246   */\n      dup3\n        /* \"#utility.yul\":1236:1255   */\n      mstore\n        /* \"#utility.yul\":1288:1292   */\n      0x20\n        /* \"#utility.yul\":1283:1286   */\n      dup3\n        /* \"#utility.yul\":1279:1293   */\n      add\n        /* \"#utility.yul\":1264:1293   */\n      swap1\n      pop\n        /* \"#utility.yul\":1130:1299   */\n      swap3\n      swap2\n      pop\n      pop\n      jump\t// out\n        /* \"#utility.yul\":1305:1612   */\n    tag_45:\n        /* \"#utility.yul\":1373:1374   */\n      0x00\n        /* \"#utility.yul\":1383:1496   */\n    tag_91:\n        /* \"#utility.yul\":1397:1403   */\n      dup4\n        /* \"#utility.yul\":1394:1395   */\n      dup2\n        /* \"#utility.yul\":1391:1404   */\n      lt\n        /* \"#utility.yul\":1383:1496   */\n      iszero\n      tag_93\n      jumpi\n        /* \"#utility.yul\":1482:1483   */\n      dup1\n        /* \"#utility.yul\":1477:1480   */\n      dup3\n        /* \"#utility.yul\":1473:1484   */\n      add\n        /* \"#utility.yul\":1467:1485   */\n      mload\n        /* \"#utility.yul\":1463:1464   */\n      dup2\n        /* \"#utility.yul\":1458:1461   */\n      dup5\n        /* \"#utility.yul\":1454:1465   */\n      add\n        /* \"#utility.yul\":1447:1486   */\n      mstore\n        /* \"#utility.yul\":1419:1421   */\n      0x20\n        /* \"#utility.yul\":1416:1417   */\n      dup2\n        /* \"#utility.yul\":1412:1422   */\n      add\n        /* \"#utility.yul\":1407:1422   */\n      swap1\n      pop\n        /* \"#utility.yul\":1383:1496   */\n      jump(tag_91)\n    tag_93:\n        /* \"#utility.yul\":1514:1520   */\n      dup4\n        /* \"#utility.yul\":1511:1512   */\n      dup2\n        /* \"#utility.yul\":1508:1521   */\n      gt\n        /* \"#utility.yul\":1505:1606   */\n      iszero\n      tag_94\n      jumpi\n        /* \"#utility.yul\":1594:1595   */\n      0x00\n        /* \"#utility.yul\":1585:1591   */\n      dup5\n        /* \"#utility.yul\":1580:1583   */\n      dup5\n        /* \"#utility.yul\":1576:1592   */\n      add\n        /* \"#utility.yul\":1569:1596   */\n      mstore\n        /* \"#utility.yul\":1505:1606   */\n    tag_94:\n        /* \"#utility.yul\":1354:1612   */\n      pop\n        /* \"#utility.yul\":1305:1612   */\n      pop\n      pop\n      pop\n      jump\t// out\n        /* \"#utility.yul\":1618:1720   */\n    tag_46:\n        /* \"#utility.yul\":1659:1665   */\n      0x00\n        /* \"#utility.yul\":1710:1712   */\n      0x1f\n        /* \"#utility.yul\":1706:1713   */\n      not\n        /* \"#utility.yul\":1701:1703   */\n      0x1f\n        /* \"#utility.yul\":1694:1699   */\n      dup4\n        /* \"#utility.yul\":1690:1704   */\n      add\n        /* \"#utility.yul\":1686:1714   */\n      and\n        /* \"#utility.yul\":1676:1714   */\n      swap1\n      pop\n        /* \"#utility.yul\":1618:1720   */\n      swap2\n      swap1\n      pop\n      jump\t// out\n        /* \"#utility.yul\":1726:2090   */\n    tag_47:\n        /* \"#utility.yul\":1814:1817   */\n      0x00\n        /* \"#utility.yul\":1842:1881   */\n      tag_97\n        /* \"#utility.yul\":1875:1880   */\n      dup3\n        /* \"#utility.yul\":1842:1881   */\n      tag_43\n      jump\t// in\n    tag_97:\n        /* \"#utility.yul\":1897:1968   */\n      tag_98\n        /* \"#utility.yul\":1961:1967   */\n      dup2\n        /* \"#utility.yul\":1956:1959   */\n      dup6\n        /* \"#utility.yul\":1897:1968   */\n      tag_44\n      jump\t// in\n    tag_98:\n        /* \"#utility.yul\":1890:1968   */\n      swap4\n      pop\n        /* \"#utility.yul\":1977:2029   */\n      tag_99\n        /* \"#utility.yul\":2022:2028   */\n      dup2\n        /* \"#utility.yul\":2017:2020   */\n      dup6\n        /* \"#utility.yul\":2010:2014   */\n      0x20\n        /* \"#utility.yul\":2003:2008   */\n      dup7\n        /* \"#utility.yul\":1999:2015   */\n      add\n        /* \"#utility.yul\":1977:2029   */\n      tag_45\n      jump\t// in\n    tag_99:\n        /* \"#utility.yul\":2054:2083   */\n      tag_100\n        /* \"#utility.yul\":2076:2082   */\n      dup2\n        /* \"#utility.yul\":2054:2083   */\n      tag_46\n      jump\t// in\n    tag_100:\n        /* \"#utility.yul\":2049:2052   */\n      dup5\n        /* \"#utility.yul\":2045:2084   */\n      add\n        /* \"#utility.yul\":2038:2084   */\n      swap2\n      pop\n        /* \"#utility.yul\":1818:2090   */\n      pop\n        /* \"#utility.yul\":1726:2090   */\n      swap3\n      swap2\n      pop\n      pop\n      jump\t// out\n        /* \"#utility.yul\":2096:2214   */\n    tag_48:\n        /* \"#utility.yul\":2183:2207   */\n      tag_102\n        /* \"#utility.yul\":2201:2206   */\n      dup2\n        /* \"#utility.yul\":2183:2207   */\n      tag_40\n      jump\t// in\n    tag_102:\n        /* \"#utility.yul\":2178:2181   */\n      dup3\n        /* \"#utility.yul\":2171:2208   */\n      mstore\n        /* \"#utility.yul\":2096:2214   */\n      pop\n      pop\n      jump\t// out\n        /* \"#utility.yul\":2220:2643   */\n    tag_11:\n        /* \"#utility.yul\":2361:2365   */\n      0x00\n        /* \"#utility.yul\":2399:2401   */\n      0x40\n        /* \"#utility.yul\":2388:2397   */\n      dup3\n        /* \"#utility.yul\":2384:2402   */\n      add\n        /* \"#utility.yul\":2376:2402   */\n      swap1\n      pop\n        /* \"#utility.yul\":2448:2457   */\n      dup2\n        /* \"#utility.yul\":2442:2446   */\n      dup2\n        /* \"#utility.yul\":2438:2458   */\n      sub\n        /* \"#utility.yul\":2434:2435   */\n      0x00\n        /* \"#utility.yul\":2423:2432   */\n      dup4\n        /* \"#utility.yul\":2419:2436   */\n      add\n        /* \"#utility.yul\":2412:2459   */\n      mstore\n        /* \"#utility.yul\":2476:2554   */\n      tag_104\n        /* \"#utility.yul\":2549:2553   */\n      dup2\n        /* \"#utility.yul\":2540:2546   */\n      dup6\n        /* \"#utility.yul\":2476:2554   */\n      tag_47\n      jump\t// in\n    tag_104:\n        /* \"#utility.yul\":2468:2554   */\n      swap1\n      pop\n        /* \"#utility.yul\":2564:2636   */\n      tag_105\n        /* \"#utility.yul\":2632:2634   */\n      0x20\n        /* \"#utility.yul\":2621:2630   */\n      dup4\n        /* \"#utility.yul\":2617:2635   */\n      add\n        /* \"#utility.yul\":2608:2614   */\n      dup5\n        /* \"#utility.yul\":2564:2636   */\n      tag_48\n      jump\t// in\n    tag_105:\n        /* \"#utility.yul\":2220:2643   */\n      swap4\n      swap3\n      pop\n      pop\n      pop\n      jump\t// out\n        /* \"#utility.yul\":2649:2766   */\n    tag_49:\n        /* \"#utility.yul\":2758:2759   */\n      0x00\n        /* \"#utility.yul\":2755:2756   */\n      dup1\n        /* \"#utility.yul\":2748:2760   */\n      revert\n        /* \"#utility.yul\":2772:2889   */\n    tag_50:\n        /* \"#utility.yul\":2881:2882   */\n      0x00\n        /* \"#utility.yul\":2878:2879   */\n      dup1\n        /* \"#utility.yul\":2871:2883   */\n      revert\n        /* \"#utility.yul\":2895:3075   */\n    tag_51:\n        /* \"#utility.yul\":2943:3020   */\n      0x4e487b7100000000000000000000000000000000000000000000000000000000\n        /* \"#utility.yul\":2940:2941   */\n      0x00\n        /* \"#utility.yul\":2933:3021   */\n      mstore\n        /* \"#utility.yul\":3040:3044   */\n      0x41\n        /* \"#utility.yul\":3037:3038   */\n      0x04\n        /* \"#utility.yul\":3030:3045   */\n      mstore\n        /* \"#utility.yul\":3064:3068   */\n      0x24\n        /* \"#utility.yul\":3061:3062   */\n      0x00\n        /* \"#utility.yul\":3054:3069   */\n      revert\n        /* \"#utility.yul\":3081:3362   */\n    tag_52:\n        /* \"#utility.yul\":3164:3191   */\n      tag_110\n        /* \"#utility.yul\":3186:3190   */\n      dup3\n        /* \"#utility.yul\":3164:3191   */\n      tag_46\n      jump\t// in\n    tag_110:\n        /* \"#utility.yul\":3156:3162   */\n      dup2\n        /* \"#utility.yul\":3152:3192   */\n      add\n        /* \"#utility.yul\":3294:3300   */\n      dup2\n        /* \"#utility.yul\":3282:3292   */\n      dup2\n        /* \"#utility.yul\":3279:3301   */\n      lt\n        /* \"#utility.yul\":3258:3276   */\n      0xffffffffffffffff\n        /* \"#utility.yul\":3246:3256   */\n      dup3\n        /* \"#utility.yul\":3243:3277   */\n      gt\n        /* \"#utility.yul\":3240:3302   */\n      or\n        /* \"#utility.yul\":3237:3325   */\n      iszero\n      tag_111\n      jumpi\n        /* \"#utility.yul\":3305:3323   */\n      tag_112\n      tag_51\n      jump\t// in\n    tag_112:\n        /* \"#utility.yul\":3237:3325   */\n    tag_111:\n        /* \"#utility.yul\":3345:3355   */\n      dup1\n        /* \"#utility.yul\":3341:3343   */\n      0x40\n        /* \"#utility.yul\":3334:3356   */\n      mstore\n        /* \"#utility.yul\":3124:3362   */\n      pop\n        /* \"#utility.yul\":3081:3362   */\n      pop\n      pop\n      jump\t// out\n        /* \"#utility.yul\":3368:3497   */\n    tag_53:\n        /* \"#utility.yul\":3402:3408   */\n      0x00\n        /* \"#utility.yul\":3429:3449   */\n      tag_114\n      tag_37\n      jump\t// in\n    tag_114:\n        /* \"#utility.yul\":3419:3449   */\n      swap1\n      pop\n        /* \"#utility.yul\":3458:3491   */\n      tag_115\n        /* \"#utility.yul\":3486:3490   */\n      dup3\n        /* \"#utility.yul\":3478:3484   */\n      dup3\n        /* \"#utility.yul\":3458:3491   */\n      tag_52\n      jump\t// in\n    tag_115:\n        /* \"#utility.yul\":3368:3497   */\n      swap2\n      swap1\n      pop\n      jump\t// out\n        /* \"#utility.yul\":3503:3811   */\n    tag_54:\n        /* \"#utility.yul\":3565:3569   */\n      0x00\n        /* \"#utility.yul\":3655:3673   */\n      0xffffffffffffffff\n        /* \"#utility.yul\":3647:3653   */\n      dup3\n        /* \"#utility.yul\":3644:3674   */\n      gt\n        /* \"#utility.yul\":3641:3697   */\n      iszero\n      tag_117\n      jumpi\n        /* \"#utility.yul\":3677:3695   */\n      tag_118\n      tag_51\n      jump\t// in\n    tag_118:\n        /* \"#utility.yul\":3641:3697   */\n    tag_117:\n        /* \"#utility.yul\":3715:3744   */\n      tag_119\n        /* \"#utility.yul\":3737:3743   */\n      dup3\n        /* \"#utility.yul\":3715:3744   */\n      tag_46\n      jump\t// in\n    tag_119:\n        /* \"#utility.yul\":3707:3744   */\n      swap1\n      pop\n        /* \"#utility.yul\":3799:3803   */\n      0x20\n        /* \"#utility.yul\":3793:3797   */\n      dup2\n        /* \"#utility.yul\":3789:3804   */\n      add\n        /* \"#utility.yul\":3781:3804   */\n      swap1\n      pop\n        /* \"#utility.yul\":3503:3811   */\n      swap2\n      swap1\n      pop\n      jump\t// out\n        /* \"#utility.yul\":3817:3971   */\n    tag_55:\n        /* \"#utility.yul\":3901:3907   */\n      dup3\n        /* \"#utility.yul\":3896:3899   */\n      dup2\n        /* \"#utility.yul\":3891:3894   */\n      dup4\n        /* \"#utility.yul\":3878:3908   */\n      calldatacopy\n        /* \"#utility.yul\":3963:3964   */\n      0x00\n        /* \"#utility.yul\":3954:3960   */\n      dup4\n        /* \"#utility.yul\":3949:3952   */\n      dup4\n        /* \"#utility.yul\":3945:3961   */\n      add\n        /* \"#utility.yul\":3938:3965   */\n      mstore\n        /* \"#utility.yul\":3817:3971   */\n      pop\n      pop\n      pop\n      jump\t// out\n        /* \"#utility.yul\":3977:4389   */\n    tag_56:\n        /* \"#utility.yul\":4055:4060   */\n      0x00\n        /* \"#utility.yul\":4080:4146   */\n      tag_122\n        /* \"#utility.yul\":4096:4145   */\n      tag_123\n        /* \"#utility.yul\":4138:4144   */\n      dup5\n        /* \"#utility.yul\":4096:4145   */\n      tag_54\n      jump\t// in\n    tag_123:\n        /* \"#utility.yul\":4080:4146   */\n      tag_53\n      jump\t// in\n    tag_122:\n        /* \"#utility.yul\":4071:4146   */\n      swap1\n      pop\n        /* \"#utility.yul\":4169:4175   */\n      dup3\n        /* \"#utility.yul\":4162:4167   */\n      dup2\n        /* \"#utility.yul\":4155:4176   */\n      mstore\n        /* \"#utility.yul\":4207:4211   */\n      0x20\n        /* \"#utility.yul\":4200:4205   */\n      dup2\n        /* \"#utility.yul\":4196:4212   */\n      add\n        /* \"#utility.yul\":4245:4248   */\n      dup5\n        /* \"#utility.yul\":4236:4242   */\n      dup5\n        /* \"#utility.yul\":4231:4234   */\n      dup5\n        /* \"#utility.yul\":4227:4243   */\n      add\n        /* \"#utility.yul\":4224:4249   */\n      gt\n        /* \"#utility.yul\":4221:4333   */\n      iszero\n      tag_124\n      jumpi\n        /* \"#utility.yul\":4252:4331   */\n      tag_125\n      tag_50\n      jump\t// in\n    tag_125:\n        /* \"#utility.yul\":4221:4333   */\n    tag_124:\n        /* \"#utility.yul\":4342:4383   */\n      tag_126\n        /* \"#utility.yul\":4376:4382   */\n      dup5\n        /* \"#utility.yul\":4371:4374   */\n      dup3\n        /* \"#utility.yul\":4366:4369   */\n      dup6\n        /* \"#utility.yul\":4342:4383   */\n      tag_55\n      jump\t// in\n    tag_126:\n        /* \"#utility.yul\":4061:4389   */\n      pop\n        /* \"#utility.yul\":3977:4389   */\n      swap4\n      swap3\n      pop\n      pop\n      pop\n      jump\t// out\n        /* \"#utility.yul\":4409:4749   */\n    tag_57:\n        /* \"#utility.yul\":4465:4470   */\n      0x00\n        /* \"#utility.yul\":4514:4517   */\n      dup3\n        /* \"#utility.yul\":4507:4511   */\n      0x1f\n        /* \"#utility.yul\":4499:4505   */\n      dup4\n        /* \"#utility.yul\":4495:4512   */\n      add\n        /* \"#utility.yul\":4491:4518   */\n      slt\n        /* \"#utility.yul\":4481:4603   */\n      tag_128\n      jumpi\n        /* \"#utility.yul\":4522:4601   */\n      tag_129\n      tag_49\n      jump\t// in\n    tag_129:\n        /* \"#utility.yul\":4481:4603   */\n    tag_128:\n        /* \"#utility.yul\":4639:4645   */\n      dup2\n        /* \"#utility.yul\":4626:4646   */\n      calldataload\n        /* \"#utility.yul\":4664:4743   */\n      tag_130\n        /* \"#utility.yul\":4739:4742   */\n      dup5\n        /* \"#utility.yul\":4731:4737   */\n      dup3\n        /* \"#utility.yul\":4724:4728   */\n      0x20\n        /* \"#utility.yul\":4716:4722   */\n      dup7\n        /* \"#utility.yul\":4712:4729   */\n      add\n        /* \"#utility.yul\":4664:4743   */\n      tag_56\n      jump\t// in\n    tag_130:\n        /* \"#utility.yul\":4655:4743   */\n      swap2\n      pop\n        /* \"#utility.yul\":4471:4749   */\n      pop\n        /* \"#utility.yul\":4409:4749   */\n      swap3\n      swap2\n      pop\n      pop\n      jump\t// out\n        /* \"#utility.yul\":4755:5409   */\n    tag_18:\n        /* \"#utility.yul\":4833:4839   */\n      0x00\n        /* \"#utility.yul\":4841:4847   */\n      dup1\n        /* \"#utility.yul\":4890:4892   */\n      0x40\n        /* \"#utility.yul\":4878:4887   */\n      dup4\n        /* \"#utility.yul\":4869:4876   */\n      dup6\n        /* \"#utility.yul\":4865:4888   */\n      sub\n        /* \"#utility.yul\":4861:4893   */\n      slt\n        /* \"#utility.yul\":4858:4977   */\n      iszero\n      tag_132\n      jumpi\n        /* \"#utility.yul\":4896:4975   */\n      tag_133\n      tag_38\n      jump\t// in\n    tag_133:\n        /* \"#utility.yul\":4858:4977   */\n    tag_132:\n        /* \"#utility.yul\":5044:5045   */\n      0x00\n        /* \"#utility.yul\":5033:5042   */\n      dup4\n        /* \"#utility.yul\":5029:5046   */\n      add\n        /* \"#utility.yul\":5016:5047   */\n      calldataload\n        /* \"#utility.yul\":5074:5092   */\n      0xffffffffffffffff\n        /* \"#utility.yul\":5066:5072   */\n      dup2\n        /* \"#utility.yul\":5063:5093   */\n      gt\n        /* \"#utility.yul\":5060:5177   */\n      iszero\n      tag_134\n      jumpi\n        /* \"#utility.yul\":5096:5175   */\n      tag_135\n      tag_39\n      jump\t// in\n    tag_135:\n        /* \"#utility.yul\":5060:5177   */\n    tag_134:\n        /* \"#utility.yul\":5201:5264   */\n      tag_136\n        /* \"#utility.yul\":5256:5263   */\n      dup6\n        /* \"#utility.yul\":5247:5253   */\n      dup3\n        /* \"#utility.yul\":5236:5245   */\n      dup7\n        /* \"#utility.yul\":5232:5254   */\n      add\n        /* \"#utility.yul\":5201:5264   */\n      tag_57\n      jump\t// in\n    tag_136:\n        /* \"#utility.yul\":5191:5264   */\n      swap3\n      pop\n        /* \"#utility.yul\":4987:5274   */\n      pop\n        /* \"#utility.yul\":5313:5315   */\n      0x20\n        /* \"#utility.yul\":5339:5392   */\n      tag_137\n        /* \"#utility.yul\":5384:5391   */\n      dup6\n        /* \"#utility.yul\":5375:5381   */\n      dup3\n        /* \"#utility.yul\":5364:5373   */\n      dup7\n        /* \"#utility.yul\":5360:5382   */\n      add\n        /* \"#utility.yul\":5339:5392   */\n      tag_42\n      jump\t// in\n    tag_137:\n        /* \"#utility.yul\":5329:5392   */\n      swap2\n      pop\n        /* \"#utility.yul\":5284:5402   */\n      pop\n        /* \"#utility.yul\":4755:5409   */\n      swap3\n      pop\n      swap3\n      swap1\n      pop\n      jump\t// out\n        /* \"#utility.yul\":5415:5595   */\n    tag_23:\n        /* \"#utility.yul\":5463:5540   */\n      0x4e487b7100000000000000000000000000000000000000000000000000000000\n        /* \"#utility.yul\":5460:5461   */\n      0x00\n        /* \"#utility.yul\":5453:5541   */\n      mstore\n        /* \"#utility.yul\":5560:5564   */\n      0x32\n        /* \"#utility.yul\":5557:5558   */\n      0x04\n        /* \"#utility.yul\":5550:5565   */\n      mstore\n        /* \"#utility.yul\":5584:5588   */\n      0x24\n        /* \"#utility.yul\":5581:5582   */\n      0x00\n        /* \"#utility.yul\":5574:5589   */\n      revert\n        /* \"#utility.yul\":5601:5781   */\n    tag_58:\n        /* \"#utility.yul\":5649:5726   */\n      0x4e487b7100000000000000000000000000000000000000000000000000000000\n        /* \"#utility.yul\":5646:5647   */\n      0x00\n        /* \"#utility.yul\":5639:5727   */\n      mstore\n        /* \"#utility.yul\":5746:5750   */\n      0x22\n        /* \"#utility.yul\":5743:5744   */\n      0x04\n        /* \"#utility.yul\":5736:5751   */\n      mstore\n        /* \"#utility.yul\":5770:5774   */\n      0x24\n        /* \"#utility.yul\":5767:5768   */\n      0x00\n        /* \"#utility.yul\":5760:5775   */\n      revert\n        /* \"#utility.yul\":5787:6107   */\n    tag_28:\n        /* \"#utility.yul\":5831:5837   */\n      0x00\n        /* \"#utility.yul\":5868:5869   */\n      0x02\n        /* \"#utility.yul\":5862:5866   */\n      dup3\n        /* \"#utility.yul\":5858:5870   */\n      div\n        /* \"#utility.yul\":5848:5870   */\n      swap1\n      pop\n        /* \"#utility.yul\":5915:5916   */\n      0x01\n        /* \"#utility.yul\":5909:5913   */\n      dup3\n        /* \"#utility.yul\":5905:5917   */\n      and\n        /* \"#utility.yul\":5936:5954   */\n      dup1\n        /* \"#utility.yul\":5926:6007   */\n      tag_141\n      jumpi\n        /* \"#utility.yul\":5992:5996   */\n      0x7f\n        /* \"#utility.yul\":5984:5990   */\n      dup3\n        /* \"#utility.yul\":5980:5997   */\n      and\n        /* \"#utility.yul\":5970:5997   */\n      swap2\n      pop\n        /* \"#utility.yul\":5926:6007   */\n    tag_141:\n        /* \"#utility.yul\":6054:6056   */\n      0x20\n        /* \"#utility.yul\":6046:6052   */\n      dup3\n        /* \"#utility.yul\":6043:6057   */\n      lt\n        /* \"#utility.yul\":6023:6041   */\n      dup2\n        /* \"#utility.yul\":6020:6058   */\n      sub\n        /* \"#utility.yul\":6017:6101   */\n      tag_142\n      jumpi\n        /* \"#utility.yul\":6073:6091   */\n      tag_143\n      tag_58\n      jump\t// in\n    tag_143:\n        /* \"#utility.yul\":6017:6101   */\n    tag_142:\n        /* \"#utility.yul\":5838:6107   */\n      pop\n        /* \"#utility.yul\":5787:6107   */\n      swap2\n      swap1\n      pop\n      jump\t// out\n        /* \"#utility.yul\":6113:6254   */\n    tag_59:\n        /* \"#utility.yul\":6162:6166   */\n      0x00\n        /* \"#utility.yul\":6185:6188   */\n      dup2\n        /* \"#utility.yul\":6177:6188   */\n      swap1\n      pop\n        /* \"#utility.yul\":6208:6211   */\n      dup2\n        /* \"#utility.yul\":6205:6206   */\n      0x00\n        /* \"#utility.yul\":6198:6212   */\n      mstore\n        /* \"#utility.yul\":6242:6246   */\n      0x20\n        /* \"#utility.yul\":6239:6240   */\n      0x00\n        /* \"#utility.yul\":6229:6247   */\n      keccak256\n        /* \"#utility.yul\":6221:6247   */\n      swap1\n      pop\n        /* \"#utility.yul\":6113:6254   */\n      swap2\n      swap1\n      pop\n      jump\t// out\n        /* \"#utility.yul\":6260:6353   */\n    tag_60:\n        /* \"#utility.yul\":6297:6303   */\n      0x00\n        /* \"#utility.yul\":6344:6346   */\n      0x20\n        /* \"#utility.yul\":6339:6341   */\n      0x1f\n        /* \"#utility.yul\":6332:6337   */\n      dup4\n        /* \"#utility.yul\":6328:6342   */\n      add\n        /* \"#utility.yul\":6324:6347   */\n      div\n        /* \"#utility.yul\":6314:6347   */\n      swap1\n      pop\n        /* \"#utility.yul\":6260:6353   */\n      swap2\n      swap1\n      pop\n      jump\t// out\n        /* \"#utility.yul\":6359:6466   */\n    tag_61:\n        /* \"#utility.yul\":6403:6411   */\n      0x00\n        /* \"#utility.yul\":6453:6458   */\n      dup3\n        /* \"#utility.yul\":6447:6451   */\n      dup3\n        /* \"#utility.yul\":6443:6459   */\n      shl\n        /* \"#utility.yul\":6422:6459   */\n      swap1\n      pop\n        /* \"#utility.yul\":6359:6466   */\n      swap3\n      swap2\n      pop\n      pop\n      jump\t// out\n        /* \"#utility.yul\":6472:6865   */\n    tag_62:\n        /* \"#utility.yul\":6541:6547   */\n      0x00\n        /* \"#utility.yul\":6591:6592   */\n      0x08\n        /* \"#utility.yul\":6579:6589   */\n      dup4\n        /* \"#utility.yul\":6575:6593   */\n      mul\n        /* \"#utility.yul\":6614:6711   */\n      tag_148\n        /* \"#utility.yul\":6644:6710   */\n      0xffffffffffffffffffffffffffffffffffffffffffffffffffffffffffffffff\n        /* \"#utility.yul\":6633:6642   */\n      dup3\n        /* \"#utility.yul\":6614:6711   */\n      tag_61\n      jump\t// in\n    tag_148:\n        /* \"#utility.yul\":6732:6771   */\n      tag_149\n        /* \"#utility.yul\":6762:6770   */\n      dup7\n        /* \"#utility.yul\":6751:6760   */\n      dup4\n        /* \"#utility.yul\":6732:6771   */\n      tag_61\n      jump\t// in\n    tag_149:\n        /* \"#utility.yul\":6720:6771   */\n      swap6\n      pop\n        /* \"#utility.yul\":6804:6808   */\n      dup1\n        /* \"#utility.yul\":6800:6809   */\n      not\n        /* \"#utility.yul\":6793:6798   */\n      dup5\n        /* \"#utility.yul\":6789:6810   */\n      and\n        /* \"#utility.yul\":6780:6810   */\n      swap4\n      pop\n        /* \"#utility.yul\":6853:6857   */\n      dup1\n        /* \"#utility.yul\":6843:6851   */\n      dup7\n        /* \"#utility.yul\":6839:6858   */\n      and\n        /* \"#utility.yul\":6832:6837   */\n      dup5\n        /* \"#utility.yul\":6829:6859   */\n      or\n        /* \"#utility.yul\":6819:6859   */\n      swap3\n      pop\n        /* \"#utility.yul\":6548:6865   */\n      pop\n      pop\n        /* \"#utility.yul\":6472:6865   */\n      swap4\n      swap3\n      pop\n      pop\n      pop\n      jump\t// out\n        /* \"#utility.yul\":6871:6931   */\n    tag_63:\n        /* \"#utility.yul\":6899:6902   */\n      0x00\n        /* \"#utility.yul\":6920:6925   */\n      dup2\n        /* \"#utility.yul\":6913:6925   */\n      swap1\n      pop\n        /* \"#utility.yul\":6871:6931   */\n      swap2\n      swap1\n      pop\n      jump\t// out\n        /* \"#utility.yul\":6937:7079   */\n    tag_64:\n        /* \"#utility.yul\":6987:6996   */\n      0x00\n        /* \"#utility.yul\":7020:7073   */\n      tag_152\n        /* \"#utility.yul\":7038:7072   */\n      tag_153\n        /* \"#utility.yul\":7047:7071   */\n      tag_154\n        /* \"#utility.yul\":7065:7070   */\n      dup5\n        /* \"#utility.yul\":7047:7071   */\n      tag_40\n      jump\t// in\n    tag_154:\n        /* \"#utility.yul\":7038:7072   */\n      tag_63\n      jump\t// in\n    tag_153:\n        /* \"#utility.yul\":7020:7073   */\n      tag_40\n      jump\t// in\n    tag_152:\n        /* \"#utility.yul\":7007:7073   */\n      swap1\n      pop\n        /* \"#utility.yul\":6937:7079   */\n      swap2\n      swap1\n      pop\n      jump\t// out\n        /* \"#utility.yul\":7085:7160   */\n    tag_65:\n        /* \"#utility.yul\":7128:7131   */\n      0x00\n        /* \"#utility.yul\":7149:7154   */\n      dup2\n        /* \"#utility.yul\":7142:7154   */\n      swap1\n      pop\n        /* \"#utility.yul\":7085:7160   */\n      swap2\n      swap1\n      pop\n      jump\t// out\n        /* \"#utility.yul\":7166:7435   */\n    tag_66:\n        /* \"#utility.yul\":7276:7315   */\n      tag_157\n        /* \"#utility.yul\":7307:7314   */\n      dup4\n        /* \"#utility.yul\":7276:7315   */\n      tag_64\n      jump\t// in\n    tag_157:\n        /* \"#utility.yul\":7337:7428   */\n      tag_158\n        /* \"#utility.yul\":7386:7427   */\n      tag_159\n        /* \"#utility.yul\":7410:7426   */\n      dup3\n        /* \"#utility.yul\":7386:7427   */\n      tag_65\n      jump\t// in\n    tag_159:\n        /* \"#utility.yul\":7378:7384   */\n      dup5\n        /* \"#utility.yul\":7371:7375   */\n      dup5\n        /* \"#utility.yul\":7365:7376   */\n      sload\n        /* \"#utility.yul\":7337:7428   */\n      tag_62\n      jump\t// in\n    tag_158:\n        /* \"#utility.yul\":7331:7335   */\n      dup3\n        /* \"#utility.yul\":7324:7429   */\n      sstore\n        /* \"#utility.yul\":7242:7435   */\n      pop\n        /* \"#utility.yul\":7166:7435   */\n      pop\n      pop\n      pop\n      jump\t// out\n        /* \"#utility.yul\":7441:7514   */\n    tag_67:\n        /* \"#utility.yul\":7486:7489   */\n      0x00\n        /* \"#utility.yul\":7441:7514   */\n      swap1\n      jump\t// out\n        /* \"#utility.yul\":7520:7709   */\n    tag_68:\n        /* \"#utility.yul\":7597:7629   */\n      tag_162\n      tag_67\n      jump\t// in\n    tag_162:\n        /* \"#utility.yul\":7638:7703   */\n      tag_163\n        /* \"#utility.yul\":7696:7702   */\n      dup2\n        /* \"#utility.yul\":7688:7694   */\n      dup5\n        /* \"#utility.yul\":7682:7686   */\n      dup5\n        /* \"#utility.yul\":7638:7703   */\n      tag_66\n      jump\t// in\n    tag_163:\n        /* \"#utility.yul\":7573:7709   */\n      pop\n        /* \"#utility.yul\":7520:7709   */\n      pop\n      pop\n      jump\t// out\n        /* \"#utility.yul\":7715:7901   */\n    tag_69:\n        /* \"#utility.yul\":7775:7895   */\n    tag_165:\n        /* \"#utility.yul\":7792:7795   */\n      dup2\n        /* \"#utility.yul\":7785:7790   */\n      dup2\n        /* \"#utility.yul\":7782:7796   */\n      lt\n        /* \"#utility.yul\":7775:7895   */\n      iszero\n      tag_167\n      jumpi\n        /* \"#utility.yul\":7846:7885   */\n      tag_168\n        /* \"#utility.yul\":7883:7884   */\n      0x00\n        /* \"#utility.yul\":7876:7881   */\n      dup3\n        /* \"#utility.yul\":7846:7885   */\n      tag_68\n      jump\t// in\n    tag_168:\n        /* \"#utility.yul\":7819:7820   */\n      0x01\n        /* \"#utility.yul\":7812:7817   */\n      dup2\n        /* \"#utility.yul\":7808:7821   */\n      add\n        /* \"#utility.yul\":7799:7821   */\n      swap1\n      pop\n        /* \"#utility.yul\":7775:7895   */\n      jump(tag_165)\n    tag_167:\n        /* \"#utility.yul\":7715:7901   */\n      pop\n      pop\n      jump\t// out\n        /* \"#utility.yul\":7907:8450   */\n    tag_70:\n        /* \"#utility.yul\":8008:8010   */\n      0x1f\n        /* \"#utility.yul\":8003:8006   */\n      dup3\n        /* \"#utility.yul\":8000:8011   */\n      gt\n        /* \"#utility.yul\":7997:8443   */\n      iszero\n      tag_170\n      jumpi\n        /* \"#utility.yul\":8042:8080   */\n      tag_171\n        /* \"#utility.yul\":8074:8079   */\n      dup2\n        /* \"#utility.yul\":8042:8080   */\n      tag_59\n      jump\t// in\n    tag_171:\n        /* \"#utility.yul\":8126:8155   */\n      tag_172\n        /* \"#utility.yul\":8144:8154   */\n      dup5\n        /* \"#utility.yul\":8126:8155   */\n      tag_60\n      jump\t// in\n    tag_172:\n        /* \"#utility.yul\":8116:8124   */\n      dup2\n        /* \"#utility.yul\":8112:8156   */\n      add\n        /* \"#utility.yul\":8309:8311   */\n      0x20\n        /* \"#utility.yul\":8297:8307   */\n      dup6\n        /* \"#utility.yul\":8294:8312   */\n      lt\n        /* \"#utility.yul\":8291:8340   */\n      iszero\n      tag_173\n      jumpi\n        /* \"#utility.yul\":8330:8338   */\n      dup2\n        /* \"#utility.yul\":8315:8338   */\n      swap1\n      pop\n        /* \"#utility.yul\":8291:8340   */\n    tag_173:\n        /* \"#utility.yul\":8353:8433   */\n      tag_174\n        /* \"#utility.yul\":8409:8431   */\n      tag_175\n        /* \"#utility.yul\":8427:8430   */\n      dup6\n        /* \"#utility.yul\":8409:8431   */\n      tag_60\n      jump\t// in\n    tag_175:\n        /* \"#utility.yul\":8399:8407   */\n      dup4\n        /* \"#utility.yul\":8395:8432   */\n      add\n        /* \"#utility.yul\":8382:8393   */\n      dup3\n        /* \"#utility.yul\":8353:8433   */\n      tag_69\n      jump\t// in\n    tag_174:\n        /* \"#utility.yul\":8012:8443   */\n      pop\n      pop\n        /* \"#utility.yul\":7997:8443   */\n    tag_170:\n        /* \"#utility.yul\":7907:8450   */\n      pop\n      pop\n      pop\n      jump\t// out\n        /* \"#utility.yul\":8456:8573   */\n    tag_71:\n        /* \"#utility.yul\":8510:8518   */\n      0x00\n        /* \"#utility.yul\":8560:8565   */\n      dup3\n        /* \"#utility.yul\":8554:8558   */\n      dup3\n        /* \"#utility.yul\":8550:8566   */\n      shr\n        /* \"#utility.yul\":8529:8566   */\n      swap1\n      pop\n        /* \"#utility.yul\":8456:8573   */\n      swap3\n      swap2\n      pop\n      pop\n      jump\t// out\n        /* \"#utility.yul\":8579:8748   */\n    tag_72:\n        /* \"#utility.yul\":8623:8629   */\n      0x00\n        /* \"#utility.yul\":8656:8707   */\n      tag_178\n        /* \"#utility.yul\":8704:8705   */\n      0x00\n        /* \"#utility.yul\":8700:8706   */\n      not\n        /* \"#utility.yul\":8692:8697   */\n      dup5\n        /* \"#utility.yul\":8689:8690   */\n      0x08\n        /* \"#utility.yul\":8685:8698   */\n      mul\n        /* \"#utility.yul\":8656:8707   */\n      tag_71\n      jump\t// in\n    tag_178:\n        /* \"#utility.yul\":8652:8708   */\n      not\n        /* \"#utility.yul\":8737:8741   */\n      dup1\n        /* \"#utility.yul\":8731:8735   */\n      dup4\n        /* \"#utility.yul\":8727:8742   */\n      and\n        /* \"#utility.yul\":8717:8742   */\n      swap2\n      pop\n        /* \"#utility.yul\":8630:8748   */\n      pop\n        /* \"#utility.yul\":8579:8748   */\n      swap3\n      swap2\n      pop\n      pop\n      jump\t// out\n        /* \"#utility.yul\":8753:9048   */\n    tag_73:\n        /* \"#utility.yul\":8829:8833   */\n      0x00\n        /* \"#utility.yul\":8975:9004   */\n      tag_180\n        /* \"#utility.yul\":9000:9003   */\n      dup4\n        /* \"#utility.yul\":8994:8998   */\n      dup4\n        /* \"#utility.yul\":8975:9004   */\n      tag_72\n      jump\t// in\n    tag_180:\n        /* \"#utility.yul\":8967:9004   */\n      swap2\n      pop\n        /* \"#utility.yul\":9037:9040   */\n      dup3\n        /* \"#utility.yul\":9034:9035   */\n      0x02\n        /* \"#utility.yul\":9030:9041   */\n      mul\n        /* \"#utility.yul\":9024:9028   */\n      dup3\n        /* \"#utility.yul\":9021:9042   */\n      or\n        /* \"#utility.yul\":9013:9042   */\n      swap1\n      pop\n        /* \"#utility.yul\":8753:9048   */\n      swap3\n      swap2\n      pop\n      pop\n      jump\t// out\n        /* \"#utility.yul\":9053:10448   */\n    tag_36:\n        /* \"#utility.yul\":9170:9207   */\n      tag_182\n        /* \"#utility.yul\":9203:9206   */\n      dup3\n        /* \"#utility.yul\":9170:9207   */\n      tag_43\n      jump\t// in\n    tag_182:\n        /* \"#utility.yul\":9272:9290   */\n      0xffffffffffffffff\n        /* \"#utility.yul\":9264:9270   */\n      dup2\n        /* \"#utility.yul\":9261:9291   */\n      gt\n        /* \"#utility.yul\":9258:9314   */\n      iszero\n      tag_183\n      jumpi\n        /* \"#utility.yul\":9294:9312   */\n      tag_184\n      tag_51\n      jump\t// in\n    tag_184:\n        /* \"#utility.yul\":9258:9314   */\n    tag_183:\n        /* \"#utility.yul\":9338:9376   */\n      tag_185\n        /* \"#utility.yul\":9370:9374   */\n      dup3\n        /* \"#utility.yul\":9364:9375   */\n      sload\n        /* \"#utility.yul\":9338:9376   */\n      tag_28\n      jump\t// in\n    tag_185:\n        /* \"#utility.yul\":9423:9490   */\n      tag_186\n        /* \"#utility.yul\":9483:9489   */\n      dup3\n        /* \"#utility.yul\":9475:9481   */\n      dup3\n        /* \"#utility.yul\":9469:9473   */\n      dup6\n        /* \"#utility.yul\":9423:9490   */\n      tag_70\n      jump\t// in\n    tag_186:\n        /* \"#utility.yul\":9517:9518   */\n      0x00\n        /* \"#utility.yul\":9541:9545   */\n      0x20\n        /* \"#utility.yul\":9528:9545   */\n      swap1\n      pop\n        /* \"#utility.yul\":9573:9575   */\n      0x1f\n        /* \"#utility.yul\":9565:9571   */\n      dup4\n        /* \"#utility.yul\":9562:9576   */\n      gt\n        /* \"#utility.yul\":9590:9591   */\n      0x01\n        /* \"#utility.yul\":9585:10203   */\n      dup2\n      eq\n      tag_188\n      jumpi\n        /* \"#utility.yul\":10247:10248   */\n      0x00\n        /* \"#utility.yul\":10264:10270   */\n      dup5\n        /* \"#utility.yul\":10261:10338   */\n      iszero\n      tag_189\n      jumpi\n        /* \"#utility.yul\":10313:10322   */\n      dup3\n        /* \"#utility.yul\":10308:10311   */\n      dup8\n        /* \"#utility.yul\":10304:10323   */\n      add\n        /* \"#utility.yul\":10298:10324   */\n      mload\n        /* \"#utility.yul\":10289:10324   */\n      swap1\n      pop\n        /* \"#utility.yul\":10261:10338   */\n    tag_189:\n        /* \"#utility.yul\":10364:10431   */\n      tag_190\n        /* \"#utility.yul\":10424:10430   */\n      dup6\n        /* \"#utility.yul\":10417:10422   */\n      dup3\n        /* \"#utility.yul\":10364:10431   */\n      tag_73\n      jump\t// in\n    tag_190:\n        /* \"#utility.yul\":10358:10362   */\n      dup7\n        /* \"#utility.yul\":10351:10432   */\n      sstore\n        /* \"#utility.yul\":10220:10442   */\n      pop\n        /* \"#utility.yul\":9555:10442   */\n      jump(tag_187)\n        /* \"#utility.yul\":9585:10203   */\n    tag_188:\n        /* \"#utility.yul\":9637:9641   */\n      0x1f\n        /* \"#utility.yul\":9633:9642   */\n      not\n        /* \"#utility.yul\":9625:9631   */\n      dup5\n        /* \"#utility.yul\":9621:9643   */\n      and\n        /* \"#utility.yul\":9671:9708   */\n      tag_191\n        /* \"#utility.yul\":9703:9707   */\n      dup7\n        /* \"#utility.yul\":9671:9708   */\n      tag_59\n      jump\t// in\n    tag_191:\n        /* \"#utility.yul\":9730:9731   */\n      0x00\n        /* \"#utility.yul\":9744:9952   */\n    tag_192:\n        /* \"#utility.yul\":9758:9765   */\n      dup3\n        /* \"#utility.yul\":9755:9756   */\n      dup2\n        /* \"#utility.yul\":9752:9766   */\n      lt\n        /* \"#utility.yul\":9744:9952   */\n      iszero\n      tag_194\n      jumpi\n        /* \"#utility.yul\":9837:9846   */\n      dup5\n        /* \"#utility.yul\":9832:9835   */\n      dup10\n        /* \"#utility.yul\":9828:9847   */\n      add\n        /* \"#utility.yul\":9822:9848   */\n      mload\n        /* \"#utility.yul\":9814:9820   */\n      dup3\n        /* \"#utility.yul\":9807:9849   */\n      sstore\n        /* \"#utility.yul\":9888:9889   */\n      0x01\n        /* \"#utility.yul\":9880:9886   */\n      dup3\n        /* \"#utility.yul\":9876:9890   */\n      add\n        /* \"#utility.yul\":9866:9890   */\n      swap2\n      pop\n        /* \"#utility.yul\":9935:9937   */\n      0x20\n        /* \"#utility.yul\":9924:9933   */\n      dup6\n        /* \"#utility.yul\":9920:9938   */\n      add\n        /* \"#utility.yul\":9907:9938   */\n      swap5\n      pop\n        /* \"#utility.yul\":9781:9785   */\n      0x20\n        /* \"#utility.yul\":9778:9779   */\n      dup2\n        /* \"#utility.yul\":9774:9786   */\n      add\n        /* \"#utility.yul\":9769:9786   */\n      swap1\n      pop\n        /* \"#utility.yul\":9744:9952   */\n      jump(tag_192)\n    tag_194:\n        /* \"#utility.yul\":9980:9986   */\n      dup7\n        /* \"#utility.yul\":9971:9978   */\n      dup4\n        /* \"#utility.yul\":9968:9987   */\n      lt\n        /* \"#utility.yul\":9965:10144   */\n      iszero\n      tag_195\n      jumpi\n        /* \"#utility.yul\":10038:10047   */\n      dup5\n        /* \"#utility.yul\":10033:10036   */\n      dup10\n        /* \"#utility.yul\":10029:10048   */\n      add\n        /* \"#utility.yul\":10023:10049   */\n      mload\n        /* \"#utility.yul\":10081:10129   */\n      tag_196\n        /* \"#utility.yul\":10123:10127   */\n      0x1f\n        /* \"#utility.yul\":10115:10121   */\n      dup10\n        /* \"#utility.yul\":10111:10128   */\n      and\n        /* \"#utility.yul\":10100:10109   */\n      dup3\n        /* \"#utility.yul\":10081:10129   */\n      tag_72\n      jump\t// in\n    tag_196:\n        /* \"#utility.yul\":10073:10079   */\n      dup4\n        /* \"#utility.yul\":10066:10130   */\n      sstore\n        /* \"#utility.yul\":9988:10144   */\n      pop\n        /* \"#utility.yul\":9965:10144   */\n    tag_195:\n        /* \"#utility.yul\":10190:10191   */\n      0x01\n        /* \"#utility.yul\":10186:10187   */\n      0x02\n        /* \"#utility.yul\":10178:10184   */\n      dup9\n        /* \"#utility.yul\":10174:10188   */\n      mul\n        /* \"#utility.yul\":10170:10192   */\n      add\n        /* \"#utility.yul\":10164:10168   */\n      dup9\n        /* \"#utility.yul\":10157:10193   */\n      sstore\n        /* \"#utility.yul\":9592:10203   */\n      pop\n      pop\n      pop\n        /* \"#utility.yul\":9555:10442   */\n    tag_187:\n      pop\n        /* \"#utility.yul\":9145:10448   */\n      pop\n      pop\n      pop\n        /* \"#utility.yul\":9053:10448   */\n      pop\n      pop\n      jump\t// out\n\n    auxdata: 0xa2646970667358221220f0599dda7fd093944213fddf1b958d9f38d6bdb8a0c1a1908dc0006d98ad150c64736f6c634300080f0033\n}\n",
				"bytecode": {
					"linkReferences": {},
					"object": "608060405234801561001057600080fd5b50610838806100206000396000f3fe608060405234801561001057600080fd5b50600436106100415760003560e01c80630178fe3f14610046578063092a182014610077578063af22068e146100a8575b600080fd5b610060600480360381019061005b919061025f565b6100c4565b60405161006e929190610334565b60405180910390f35b610091600480360381019061008c919061025f565b6100f3565b60405161009f929190610334565b60405180910390f35b6100c260048036038101906100bd9190610499565b6101af565b005b6060600080600084815481106100dd576100dc6104f5565b5b9060005260206000209060020201905050915091565b6000818154811061010357600080fd5b906000526020600020906002020160009150905080600001805461012690610553565b80601f016020809104026020016040519081016040528092919081815260200182805461015290610553565b801561019f5780601f106101745761010080835404028352916020019161019f565b820191906000526020600020905b81548152906001019060200180831161018257829003601f168201915b5050505050908060010154905082565b6000604051806040016040528084815260200183815250908060018154018082558091505060019003906000526020600020906002020160009091909190915060008201518160000190816102049190610730565b506020820151816001015550505050565b6000604051905090565b600080fd5b600080fd5b6000819050919050565b61023c81610229565b811461024757600080fd5b50565b60008135905061025981610233565b92915050565b6000602082840312156102755761027461021f565b5b60006102838482850161024a565b91505092915050565b600081519050919050565b600082825260208201905092915050565b60005b838110156102c65780820151818401526020810190506102ab565b838111156102d5576000848401525b50505050565b6000601f19601f8301169050919050565b60006102f78261028c565b6103018185610297565b93506103118185602086016102a8565b61031a816102db565b840191505092915050565b61032e81610229565b82525050565b6000604082019050818103600083015261034e81856102ec565b905061035d6020830184610325565b9392505050565b600080fd5b600080fd5b7f4e487b7100000000000000000000000000000000000000000000000000000000600052604160045260246000fd5b6103a6826102db565b810181811067ffffffffffffffff821117156103c5576103c461036e565b5b80604052505050565b60006103d8610215565b90506103e4828261039d565b919050565b600067ffffffffffffffff8211156104045761040361036e565b5b61040d826102db565b9050602081019050919050565b82818337600083830152505050565b600061043c610437846103e9565b6103ce565b90508281526020810184848401111561045857610457610369565b5b61046384828561041a565b509392505050565b600082601f8301126104805761047f610364565b5b8135610490848260208601610429565b91505092915050565b600080604083850312156104b0576104af61021f565b5b600083013567ffffffffffffffff8111156104ce576104cd610224565b5b6104da8582860161046b565b92505060206104eb8582860161024a565b9150509250929050565b7f4e487b7100000000000000000000000000000000000000000000000000000000600052603260045260246000fd5b7f4e487b7100000000000000000000000000000000000000000000000000000000600052602260045260246000fd5b6000600282049050600182168061056b57607f821691505b60208210810361057e5761057d610524565b5b50919050565b60008190508160005260206000209050919050565b60006020601f8301049050919050565b600082821b905092915050565b6000600883026105e67fffffffffffffffffffffffffffffffffffffffffffffffffffffffffffffffff826105a9565b6105f086836105a9565b95508019841693508086168417925050509392505050565b6000819050919050565b600061062d61062861062384610229565b610608565b610229565b9050919050565b6000819050919050565b61064783610612565b61065b61065382610634565b8484546105b6565b825550505050565b600090565b610670610663565b61067b81848461063e565b505050565b5b8181101561069f57610694600082610668565b600181019050610681565b5050565b601f8211156106e4576106b581610584565b6106be84610599565b810160208510156106cd578190505b6106e16106d985610599565b830182610680565b50505b505050565b600082821c905092915050565b6000610707600019846008026106e9565b1980831691505092915050565b600061072083836106f6565b9150826002028217905092915050565b6107398261028c565b67ffffffffffffffff8111156107525761075161036e565b5b61075c8254610553565b6107678282856106a3565b600060209050601f83116001811461079a5760008415610788578287015190505b6107928582610714565b8655506107fa565b601f1984166107a886610584565b60005b828110156107d0578489015182556001820191506020850194506020810190506107ab565b868310156107ed57848901516107e9601f8916826106f6565b8355505b6001600288020188555050505b50505050505056fea2646970667358221220f0599dda7fd093944213fddf1b958d9f38d6bdb8a0c1a1908dc0006d98ad150c64736f6c634300080f0033",
					"opcodes": "PUSH1 0x80 PUSH1 0x40 MSTORE CALLVALUE DUP1 ISZERO PUSH2 0x10 JUMPI PUSH1 0x0 DUP1 REVERT JUMPDEST POP PUSH2 0x838 DUP1 PUSH2 0x20 PUSH1 0x0 CODECOPY PUSH1 0x0 RETURN INVALID PUSH1 0x80 PUSH1 0x40 MSTORE CALLVALUE DUP1 ISZERO PUSH2 0x10 JUMPI PUSH1 0x0 DUP1 REVERT JUMPDEST POP PUSH1 0x4 CALLDATASIZE LT PUSH2 0x41 JUMPI PUSH1 0x0 CALLDATALOAD PUSH1 0xE0 SHR DUP1 PUSH4 0x178FE3F EQ PUSH2 0x46 JUMPI DUP1 PUSH4 0x92A1820 EQ PUSH2 0x77 JUMPI DUP1 PUSH4 0xAF22068E EQ PUSH2 0xA8 JUMPI JUMPDEST PUSH1 0x0 DUP1 REVERT JUMPDEST PUSH2 0x60 PUSH1 0x4 DUP1 CALLDATASIZE SUB DUP2 ADD SWAP1 PUSH2 0x5B SWAP2 SWAP1 PUSH2 0x25F JUMP JUMPDEST PUSH2 0xC4 JUMP JUMPDEST PUSH1 0x40 MLOAD PUSH2 0x6E SWAP3 SWAP2 SWAP1 PUSH2 0x334 JUMP JUMPDEST PUSH1 0x40 MLOAD DUP1 SWAP2 SUB SWAP1 RETURN JUMPDEST PUSH2 0x91 PUSH1 0x4 DUP1 CALLDATASIZE SUB DUP2 ADD SWAP1 PUSH2 0x8C SWAP2 SWAP1 PUSH2 0x25F JUMP JUMPDEST PUSH2 0xF3 JUMP JUMPDEST PUSH1 0x40 MLOAD PUSH2 0x9F SWAP3 SWAP2 SWAP1 PUSH2 0x334 JUMP JUMPDEST PUSH1 0x40 MLOAD DUP1 SWAP2 SUB SWAP1 RETURN JUMPDEST PUSH2 0xC2 PUSH1 0x4 DUP1 CALLDATASIZE SUB DUP2 ADD SWAP1 PUSH2 0xBD SWAP2 SWAP1 PUSH2 0x499 JUMP JUMPDEST PUSH2 0x1AF JUMP JUMPDEST STOP JUMPDEST PUSH1 0x60 PUSH1 0x0 DUP1 PUSH1 0x0 DUP5 DUP2 SLOAD DUP2 LT PUSH2 0xDD JUMPI PUSH2 0xDC PUSH2 0x4F5 JUMP JUMPDEST JUMPDEST SWAP1 PUSH1 0x0 MSTORE PUSH1 0x20 PUSH1 0x0 KECCAK256 SWAP1 PUSH1 0x2 MUL ADD SWAP1 POP POP SWAP2 POP SWAP2 JUMP JUMPDEST PUSH1 0x0 DUP2 DUP2 SLOAD DUP2 LT PUSH2 0x103 JUMPI PUSH1 0x0 DUP1 REVERT JUMPDEST SWAP1 PUSH1 0x0 MSTORE PUSH1 0x20 PUSH1 0x0 KECCAK256 SWAP1 PUSH1 0x2 MUL ADD PUSH1 0x0 SWAP2 POP SWAP1 POP DUP1 PUSH1 0x0 ADD DUP1 SLOAD PUSH2 0x126 SWAP1 PUSH2 0x553 JUMP JUMPDEST DUP1 PUSH1 0x1F ADD PUSH1 0x20 DUP1 SWAP2 DIV MUL PUSH1 0x20 ADD PUSH1 0x40 MLOAD SWAP1 DUP2 ADD PUSH1 0x40 MSTORE DUP1 SWAP3 SWAP2 SWAP1 DUP2 DUP2 MSTORE PUSH1 0x20 ADD DUP3 DUP1 SLOAD PUSH2 0x152 SWAP1 PUSH2 0x553 JUMP JUMPDEST DUP1 ISZERO PUSH2 0x19F JUMPI DUP1 PUSH1 0x1F LT PUSH2 0x174 JUMPI PUSH2 0x100 DUP1 DUP4 SLOAD DIV MUL DUP4 MSTORE SWAP2 PUSH1 0x20 ADD SWAP2 PUSH2 0x19F JUMP JUMPDEST DUP3 ADD SWAP2 SWAP1 PUSH1 0x0 MSTORE PUSH1 0x20 PUSH1 0x0 KECCAK256 SWAP1 JUMPDEST DUP2 SLOAD DUP2 MSTORE SWAP1 PUSH1 0x1 ADD SWAP1 PUSH1 0x20 ADD DUP1 DUP4 GT PUSH2 0x182 JUMPI DUP3 SWAP1 SUB PUSH1 0x1F AND DUP3 ADD SWAP2 JUMPDEST POP POP POP POP POP SWAP1 DUP1 PUSH1 0x1 ADD SLOAD SWAP1 POP DUP3 JUMP JUMPDEST PUSH1 0x0 PUSH1 0x40 MLOAD DUP1 PUSH1 0x40 ADD PUSH1 0x40 MSTORE DUP1 DUP5 DUP2 MSTORE PUSH1 0x20 ADD DUP4 DUP2 MSTORE POP SWAP1 DUP1 PUSH1 0x1 DUP2 SLOAD ADD DUP1 DUP3 SSTORE DUP1 SWAP2 POP POP PUSH1 0x1 SWAP1 SUB SWAP1 PUSH1 0x0 MSTORE PUSH1 0x20 PUSH1 0x0 KECCAK256 SWAP1 PUSH1 0x2 MUL ADD PUSH1 0x0 SWAP1 SWAP2 SWAP1 SWAP2 SWAP1 SWAP2 POP PUSH1 0x0 DUP3 ADD MLOAD DUP2 PUSH1 0x0 ADD SWAP1 DUP2 PUSH2 0x204 SWAP2 SWAP1 PUSH2 0x730 JUMP JUMPDEST POP PUSH1 0x20 DUP3 ADD MLOAD DUP2 PUSH1 0x1 ADD SSTORE POP POP POP POP JUMP JUMPDEST PUSH1 0x0 PUSH1 0x40 MLOAD SWAP1 POP SWAP1 JUMP JUMPDEST PUSH1 0x0 DUP1 REVERT JUMPDEST PUSH1 0x0 DUP1 REVERT JUMPDEST PUSH1 0x0 DUP2 SWAP1 POP SWAP2 SWAP1 POP JUMP JUMPDEST PUSH2 0x23C DUP2 PUSH2 0x229 JUMP JUMPDEST DUP2 EQ PUSH2 0x247 JUMPI PUSH1 0x0 DUP1 REVERT JUMPDEST POP JUMP JUMPDEST PUSH1 0x0 DUP2 CALLDATALOAD SWAP1 POP PUSH2 0x259 DUP2 PUSH2 0x233 JUMP JUMPDEST SWAP3 SWAP2 POP POP JUMP JUMPDEST PUSH1 0x0 PUSH1 0x20 DUP3 DUP5 SUB SLT ISZERO PUSH2 0x275 JUMPI PUSH2 0x274 PUSH2 0x21F JUMP JUMPDEST JUMPDEST PUSH1 0x0 PUSH2 0x283 DUP5 DUP3 DUP6 ADD PUSH2 0x24A JUMP JUMPDEST SWAP2 POP POP SWAP3 SWAP2 POP POP JUMP JUMPDEST PUSH1 0x0 DUP2 MLOAD SWAP1 POP SWAP2 SWAP1 POP JUMP JUMPDEST PUSH1 0x0 DUP3 DUP3 MSTORE PUSH1 0x20 DUP3 ADD SWAP1 POP SWAP3 SWAP2 POP POP JUMP JUMPDEST PUSH1 0x0 JUMPDEST DUP4 DUP2 LT ISZERO PUSH2 0x2C6 JUMPI DUP1 DUP3 ADD MLOAD DUP2 DUP5 ADD MSTORE PUSH1 0x20 DUP2 ADD SWAP1 POP PUSH2 0x2AB JUMP JUMPDEST DUP4 DUP2 GT ISZERO PUSH2 0x2D5 JUMPI PUSH1 0x0 DUP5 DUP5 ADD MSTORE JUMPDEST POP POP POP POP JUMP JUMPDEST PUSH1 0x0 PUSH1 0x1F NOT PUSH1 0x1F DUP4 ADD AND SWAP1 POP SWAP2 SWAP1 POP JUMP JUMPDEST PUSH1 0x0 PUSH2 0x2F7 DUP3 PUSH2 0x28C JUMP JUMPDEST PUSH2 0x301 DUP2 DUP6 PUSH2 0x297 JUMP JUMPDEST SWAP4 POP PUSH2 0x311 DUP2 DUP6 PUSH1 0x20 DUP7 ADD PUSH2 0x2A8 JUMP JUMPDEST PUSH2 0x31A DUP2 PUSH2 0x2DB JUMP JUMPDEST DUP5 ADD SWAP2 POP POP SWAP3 SWAP2 POP POP JUMP JUMPDEST PUSH2 0x32E DUP2 PUSH2 0x229 JUMP JUMPDEST DUP3 MSTORE POP POP JUMP JUMPDEST PUSH1 0x0 PUSH1 0x40 DUP3 ADD SWAP1 POP DUP2 DUP2 SUB PUSH1 0x0 DUP4 ADD MSTORE PUSH2 0x34E DUP2 DUP6 PUSH2 0x2EC JUMP JUMPDEST SWAP1 POP PUSH2 0x35D PUSH1 0x20 DUP4 ADD DUP5 PUSH2 0x325 JUMP JUMPDEST SWAP4 SWAP3 POP POP POP JUMP JUMPDEST PUSH1 0x0 DUP1 REVERT JUMPDEST PUSH1 0x0 DUP1 REVERT JUMPDEST PUSH32 0x4E487B7100000000000000000000000000000000000000000000000000000000 PUSH1 0x0 MSTORE PUSH1 0x41 PUSH1 0x4 MSTORE PUSH1 0x24 PUSH1 0x0 REVERT JUMPDEST PUSH2 0x3A6 DUP3 PUSH2 0x2DB JUMP JUMPDEST DUP2 ADD DUP2 DUP2 LT PUSH8 0xFFFFFFFFFFFFFFFF DUP3 GT OR ISZERO PUSH2 0x3C5 JUMPI PUSH2 0x3C4 PUSH2 0x36E JUMP JUMPDEST JUMPDEST DUP1 PUSH1 0x40 MSTORE POP POP POP JUMP JUMPDEST PUSH1 0x0 PUSH2 0x3D8 PUSH2 0x215 JUMP JUMPDEST SWAP1 POP PUSH2 0x3E4 DUP3 DUP3 PUSH2 0x39D JUMP JUMPDEST SWAP2 SWAP1 POP JUMP JUMPDEST PUSH1 0x0 PUSH8 0xFFFFFFFFFFFFFFFF DUP3 GT ISZERO PUSH2 0x404 JUMPI PUSH2 0x403 PUSH2 0x36E JUMP JUMPDEST JUMPDEST PUSH2 0x40D DUP3 PUSH2 0x2DB JUMP JUMPDEST SWAP1 POP PUSH1 0x20 DUP2 ADD SWAP1 POP SWAP2 SWAP1 POP JUMP JUMPDEST DUP3 DUP2 DUP4 CALLDATACOPY PUSH1 0x0 DUP4 DUP4 ADD MSTORE POP POP POP JUMP JUMPDEST PUSH1 0x0 PUSH2 0x43C PUSH2 0x437 DUP5 PUSH2 0x3E9 JUMP JUMPDEST PUSH2 0x3CE JUMP JUMPDEST SWAP1 POP DUP3 DUP2 MSTORE PUSH1 0x20 DUP2 ADD DUP5 DUP5 DUP5 ADD GT ISZERO PUSH2 0x458 JUMPI PUSH2 0x457 PUSH2 0x369 JUMP JUMPDEST JUMPDEST PUSH2 0x463 DUP5 DUP3 DUP6 PUSH2 0x41A JUMP JUMPDEST POP SWAP4 SWAP3 POP POP POP JUMP JUMPDEST PUSH1 0x0 DUP3 PUSH1 0x1F DUP4 ADD SLT PUSH2 0x480 JUMPI PUSH2 0x47F PUSH2 0x364 JUMP JUMPDEST JUMPDEST DUP2 CALLDATALOAD PUSH2 0x490 DUP5 DUP3 PUSH1 0x20 DUP7 ADD PUSH2 0x429 JUMP JUMPDEST SWAP2 POP POP SWAP3 SWAP2 POP POP JUMP JUMPDEST PUSH1 0x0 DUP1 PUSH1 0x40 DUP4 DUP6 SUB SLT ISZERO PUSH2 0x4B0 JUMPI PUSH2 0x4AF PUSH2 0x21F JUMP JUMPDEST JUMPDEST PUSH1 0x0 DUP4 ADD CALLDATALOAD PUSH8 0xFFFFFFFFFFFFFFFF DUP2 GT ISZERO PUSH2 0x4CE JUMPI PUSH2 0x4CD PUSH2 0x224 JUMP JUMPDEST JUMPDEST PUSH2 0x4DA DUP6 DUP3 DUP7 ADD PUSH2 0x46B JUMP JUMPDEST SWAP3 POP POP PUSH1 0x20 PUSH2 0x4EB DUP6 DUP3 DUP7 ADD PUSH2 0x24A JUMP JUMPDEST SWAP2 POP POP SWAP3 POP SWAP3 SWAP1 POP JUMP JUMPDEST PUSH32 0x4E487B7100000000000000000000000000000000000000000000000000000000 PUSH1 0x0 MSTORE PUSH1 0x32 PUSH1 0x4 MSTORE PUSH1 0x24 PUSH1 0x0 REVERT JUMPDEST PUSH32 0x4E487B7100000000000000000000000000000000000000000000000000000000 PUSH1 0x0 MSTORE PUSH1 0x22 PUSH1 0x4 MSTORE PUSH1 0x24 PUSH1 0x0 REVERT JUMPDEST PUSH1 0x0 PUSH1 0x2 DUP3 DIV SWAP1 POP PUSH1 0x1 DUP3 AND DUP1 PUSH2 0x56B JUMPI PUSH1 0x7F DUP3 AND SWAP2 POP JUMPDEST PUSH1 0x20 DUP3 LT DUP2 SUB PUSH2 0x57E JUMPI PUSH2 0x57D PUSH2 0x524 JUMP JUMPDEST JUMPDEST POP SWAP2 SWAP1 POP JUMP JUMPDEST PUSH1 0x0 DUP2 SWAP1 POP DUP2 PUSH1 0x0 MSTORE PUSH1 0x20 PUSH1 0x0 KECCAK256 SWAP1 POP SWAP2 SWAP1 POP JUMP JUMPDEST PUSH1 0x0 PUSH1 0x20 PUSH1 0x1F DUP4 ADD DIV SWAP1 POP SWAP2 SWAP1 POP JUMP JUMPDEST PUSH1 0x0 DUP3 DUP3 SHL SWAP1 POP SWAP3 SWAP2 POP POP JUMP JUMPDEST PUSH1 0x0 PUSH1 0x8 DUP4 MUL PUSH2 0x5E6 PUSH32 0xFFFFFFFFFFFFFFFFFFFFFFFFFFFFFFFFFFFFFFFFFFFFFFFFFFFFFFFFFFFFFFFF DUP3 PUSH2 0x5A9 JUMP JUMPDEST PUSH2 0x5F0 DUP7 DUP4 PUSH2 0x5A9 JUMP JUMPDEST SWAP6 POP DUP1 NOT DUP5 AND SWAP4 POP DUP1 DUP7 AND DUP5 OR SWAP3 POP POP POP SWAP4 SWAP3 POP POP POP JUMP JUMPDEST PUSH1 0x0 DUP2 SWAP1 POP SWAP2 SWAP1 POP JUMP JUMPDEST PUSH1 0x0 PUSH2 0x62D PUSH2 0x628 PUSH2 0x623 DUP5 PUSH2 0x229 JUMP JUMPDEST PUSH2 0x608 JUMP JUMPDEST PUSH2 0x229 JUMP JUMPDEST SWAP1 POP SWAP2 SWAP1 POP JUMP JUMPDEST PUSH1 0x0 DUP2 SWAP1 POP SWAP2 SWAP1 POP JUMP JUMPDEST PUSH2 0x647 DUP4 PUSH2 0x612 JUMP JUMPDEST PUSH2 0x65B PUSH2 0x653 DUP3 PUSH2 0x634 JUMP JUMPDEST DUP5 DUP5 SLOAD PUSH2 0x5B6 JUMP JUMPDEST DUP3 SSTORE POP POP POP POP JUMP JUMPDEST PUSH1 0x0 SWAP1 JUMP JUMPDEST PUSH2 0x670 PUSH2 0x663 JUMP JUMPDEST PUSH2 0x67B DUP2 DUP5 DUP5 PUSH2 0x63E JUMP JUMPDEST POP POP POP JUMP JUMPDEST JUMPDEST DUP2 DUP2 LT ISZERO PUSH2 0x69F JUMPI PUSH2 0x694 PUSH1 0x0 DUP3 PUSH2 0x668 JUMP JUMPDEST PUSH1 0x1 DUP2 ADD SWAP1 POP PUSH2 0x681 JUMP JUMPDEST POP POP JUMP JUMPDEST PUSH1 0x1F DUP3 GT ISZERO PUSH2 0x6E4 JUMPI PUSH2 0x6B5 DUP2 PUSH2 0x584 JUMP JUMPDEST PUSH2 0x6BE DUP5 PUSH2 0x599 JUMP JUMPDEST DUP2 ADD PUSH1 0x20 DUP6 LT ISZERO PUSH2 0x6CD JUMPI DUP2 SWAP1 POP JUMPDEST PUSH2 0x6E1 PUSH2 0x6D9 DUP6 PUSH2 0x599 JUMP JUMPDEST DUP4 ADD DUP3 PUSH2 0x680 JUMP JUMPDEST POP POP JUMPDEST POP POP POP JUMP JUMPDEST PUSH1 0x0 DUP3 DUP3 SHR SWAP1 POP SWAP3 SWAP2 POP POP JUMP JUMPDEST PUSH1 0x0 PUSH2 0x707 PUSH1 0x0 NOT DUP5 PUSH1 0x8 MUL PUSH2 0x6E9 JUMP JUMPDEST NOT DUP1 DUP4 AND SWAP2 POP POP SWAP3 SWAP2 POP POP JUMP JUMPDEST PUSH1 0x0 PUSH2 0x720 DUP4 DUP4 PUSH2 0x6F6 JUMP JUMPDEST SWAP2 POP DUP3 PUSH1 0x2 MUL DUP3 OR SWAP1 POP SWAP3 SWAP2 POP POP JUMP JUMPDEST PUSH2 0x739 DUP3 PUSH2 0x28C JUMP JUMPDEST PUSH8 0xFFFFFFFFFFFFFFFF DUP2 GT ISZERO PUSH2 0x752 JUMPI PUSH2 0x751 PUSH2 0x36E JUMP JUMPDEST JUMPDEST PUSH2 0x75C DUP3 SLOAD PUSH2 0x553 JUMP JUMPDEST PUSH2 0x767 DUP3 DUP3 DUP6 PUSH2 0x6A3 JUMP JUMPDEST PUSH1 0x0 PUSH1 0x20 SWAP1 POP PUSH1 0x1F DUP4 GT PUSH1 0x1 DUP2 EQ PUSH2 0x79A JUMPI PUSH1 0x0 DUP5 ISZERO PUSH2 0x788 JUMPI DUP3 DUP8 ADD MLOAD SWAP1 POP JUMPDEST PUSH2 0x792 DUP6 DUP3 PUSH2 0x714 JUMP JUMPDEST DUP7 SSTORE POP PUSH2 0x7FA JUMP JUMPDEST PUSH1 0x1F NOT DUP5 AND PUSH2 0x7A8 DUP7 PUSH2 0x584 JUMP JUMPDEST PUSH1 0x0 JUMPDEST DUP3 DUP2 LT ISZERO PUSH2 0x7D0 JUMPI DUP5 DUP10 ADD MLOAD DUP3 SSTORE PUSH1 0x1 DUP3 ADD SWAP2 POP PUSH1 0x20 DUP6 ADD SWAP5 POP PUSH1 0x20 DUP2 ADD SWAP1 POP PUSH2 0x7AB JUMP JUMPDEST DUP7 DUP4 LT ISZERO PUSH2 0x7ED JUMPI DUP5 DUP10 ADD MLOAD PUSH2 0x7E9 PUSH1 0x1F DUP10 AND DUP3 PUSH2 0x6F6 JUMP JUMPDEST DUP4 SSTORE POP JUMPDEST PUSH1 0x1 PUSH1 0x2 DUP9 MUL ADD DUP9 SSTORE POP POP POP JUMPDEST POP POP POP POP POP POP JUMP INVALID LOG2 PUSH5 0x6970667358 0x22 SLT KECCAK256 CREATE MSIZE SWAP14 0xDA PUSH32 0xD093944213FDDF1B958D9F38D6BDB8A0C1A1908DC0006D98AD150C64736F6C63 NUMBER STOP ADDMOD 0xF STOP CALLER "
				},
				"gasEstimates": {
					"creation": {
						"codeDepositCost": "420800",
						"executionCost": "455",
						"totalCost": "421255"
					},
					"external": {
						"getData(uint256)": "infinite",
						"person(uint256)": "infinite",
						"setData(string,uint256)": "infinite"
					}
				},
				"methodIdentifiers": {
					"getData(uint256)": "0178fe3f",
					"person(uint256)": "092a1820",
					"setData(string,uint256)": "af22068e"
				}
			},
			"storageLayout": {
				"storage": [
					{
						"astId": 10,
						"contract": "SolidityCodes/Struct.sol:Struct",
						"label": "person",
						"offset": 0,
						"slot": "0",
						"type": "t_array(t_struct(Person)6_storage)dyn_storage"
					}
				],
				"types": {
					"t_array(t_struct(Person)6_storage)dyn_storage": {
						"base": "t_struct(Person)6_storage",
						"encoding": "dynamic_array",
						"label": "struct Struct.Person[]",
						"numberOfBytes": "32"
					},
					"t_string_storage": {
						"encoding": "bytes",
						"label": "string",
						"numberOfBytes": "32"
					},
					"t_struct(Person)6_storage": {
						"encoding": "inplace",
						"label": "struct Struct.Person",
						"members": [
							{
								"astId": 3,
								"contract": "SolidityCodes/Struct.sol:Struct",
								"label": "name",
								"offset": 0,
								"slot": "0",
								"type": "t_string_storage"
							},
							{
								"astId": 5,
								"contract": "SolidityCodes/Struct.sol:Struct",
								"label": "age",
								"offset": 0,
								"slot": "1",
								"type": "t_uint256"
							}
						],
						"numberOfBytes": "64"
					},
					"t_uint256": {
						"encoding": "inplace",
						"label": "uint256",
						"numberOfBytes": "32"
					}
				}
			},
			"userdoc": {
				"kind": "user",
				"methods": {},
				"version": 1
			}
		}
	}
}