{
	"SolidityCodes/Struct.sol": {
		"Struct": {
			"abi": [
				{
					"inputs": [],
					"name": "getData",
					"outputs": [
						{
							"internalType": "string",
							"name": "_n",
							"type": "string"
						}
					],
					"stateMutability": "view",
					"type": "function"
				},
				{
					"inputs": [
						{
							"internalType": "uint256",
							"name": "",
							"type": "uint256"
						}
					],
					"name": "person",
					"outputs": [
						{
							"internalType": "string",
							"name": "name",
							"type": "string"
						},
						{
							"internalType": "uint256",
							"name": "age",
							"type": "uint256"
						}
					],
					"stateMutability": "view",
					"type": "function"
				},
				{
					"inputs": [
						{
							"internalType": "string",
							"name": "_name",
							"type": "string"
						},
						{
							"internalType": "uint256",
							"name": "_age",
							"type": "uint256"
						}
					],
					"name": "setData",
					"outputs": [],
					"stateMutability": "nonpayable",
					"type": "function"
				}
			],
			"devdoc": {
				"kind": "dev",
				"methods": {},
				"version": 1
			},
			"evm": {
				"assembly": "    /* \"SolidityCodes/Struct.sol\":61:377  contract Struct{... */\n  mstore(0x40, 0x80)\n  callvalue\n  dup1\n  iszero\n  tag_1\n  jumpi\n  0x00\n  dup1\n  revert\ntag_1:\n  pop\n  dataSize(sub_0)\n  dup1\n  dataOffset(sub_0)\n  0x00\n  codecopy\n  0x00\n  return\nstop\n\nsub_0: assembly {\n        /* \"SolidityCodes/Struct.sol\":61:377  contract Struct{... */\n      mstore(0x40, 0x80)\n      callvalue\n      dup1\n      iszero\n      tag_1\n      jumpi\n      0x00\n      dup1\n      revert\n    tag_1:\n      pop\n      jumpi(tag_2, lt(calldatasize, 0x04))\n      shr(0xe0, calldataload(0x00))\n      dup1\n      0x092a1820\n      eq\n      tag_3\n      jumpi\n      dup1\n      0x3bc5de30\n      eq\n      tag_4\n      jumpi\n      dup1\n      0xaf22068e\n      eq\n      tag_5\n      jumpi\n    tag_2:\n      0x00\n      dup1\n      revert\n        /* \"SolidityCodes/Struct.sol\":153:175  Person[] public person */\n    tag_3:\n      tag_6\n      0x04\n      dup1\n      calldatasize\n      sub\n      dup2\n      add\n      swap1\n      tag_7\n      swap2\n      swap1\n      tag_8\n      jump\t// in\n    tag_7:\n      tag_9\n      jump\t// in\n    tag_6:\n      mload(0x40)\n      tag_10\n      swap3\n      swap2\n      swap1\n      tag_11\n      jump\t// in\n    tag_10:\n      mload(0x40)\n      dup1\n      swap2\n      sub\n      swap1\n      return\n        /* \"SolidityCodes/Struct.sol\":296:362  function getData() public view returns(string memory _n){... */\n    tag_4:\n      tag_12\n      tag_13\n      jump\t// in\n    tag_12:\n      mload(0x40)\n      tag_14\n      swap2\n      swap1\n      tag_15\n      jump\t// in\n    tag_14:\n      mload(0x40)\n      dup1\n      swap2\n      sub\n      swap1\n      return\n        /* \"SolidityCodes/Struct.sol\":184:288  function setData(string memory _name,uint _age) public{... */\n    tag_5:\n      tag_16\n      0x04\n      dup1\n      calldatasize\n      sub\n      dup2\n      add\n      swap1\n      tag_17\n      swap2\n      swap1\n      tag_18\n      jump\t// in\n    tag_17:\n      tag_19\n      jump\t// in\n    tag_16:\n      stop\n        /* \"SolidityCodes/Struct.sol\":153:175  Person[] public person */\n    tag_9:\n      0x00\n      dup2\n      dup2\n      sload\n      dup2\n      lt\n      tag_20\n      jumpi\n      0x00\n      dup1\n      revert\n    tag_20:\n      swap1\n      0x00\n      mstore\n      keccak256(0x00, 0x20)\n      swap1\n      0x02\n      mul\n      add\n      0x00\n      swap2\n      pop\n      swap1\n      pop\n      dup1\n      0x00\n      add\n      dup1\n      sload\n      tag_22\n      swap1\n      tag_23\n      jump\t// in\n    tag_22:\n      dup1\n      0x1f\n      add\n      0x20\n      dup1\n      swap2\n      div\n      mul\n      0x20\n      add\n      mload(0x40)\n      swap1\n      dup2\n      add\n      0x40\n      mstore\n      dup1\n      swap3\n      swap2\n      swap1\n      dup2\n      dup2\n      mstore\n      0x20\n      add\n      dup3\n      dup1\n      sload\n      tag_24\n      swap1\n      tag_23\n      jump\t// in\n    tag_24:\n      dup1\n      iszero\n      tag_25\n      jumpi\n      dup1\n      0x1f\n      lt\n      tag_26\n      jumpi\n      0x0100\n      dup1\n      dup4\n      sload\n      div\n      mul\n      dup4\n      mstore\n      swap2\n      0x20\n      add\n      swap2\n      jump(tag_25)\n    tag_26:\n      dup3\n      add\n      swap2\n      swap1\n      0x00\n      mstore\n      keccak256(0x00, 0x20)\n      swap1\n    tag_27:\n      dup2\n      sload\n      dup2\n      mstore\n      swap1\n      0x01\n      add\n      swap1\n      0x20\n      add\n      dup1\n      dup4\n      gt\n      tag_27\n      jumpi\n      dup3\n      swap1\n      sub\n      0x1f\n      and\n      dup3\n      add\n      swap2\n    tag_25:\n      pop\n      pop\n      pop\n      pop\n      pop\n      swap1\n      dup1\n      0x01\n      add\n      sload\n      swap1\n      pop\n      dup3\n      jump\t// out\n        /* \"SolidityCodes/Struct.sol\":296:362  function getData() public view returns(string memory _n){... */\n    tag_13:\n        /* \"SolidityCodes/Struct.sol\":335:351  string memory _n */\n      0x60\n        /* \"SolidityCodes/Struct.sol\":296:362  function getData() public view returns(string memory _n){... */\n      swap1\n      jump\t// out\n        /* \"SolidityCodes/Struct.sol\":184:288  function setData(string memory _name,uint _age) public{... */\n    tag_19:\n        /* \"SolidityCodes/Struct.sol\":249:255  person */\n      0x00\n        /* \"SolidityCodes/Struct.sol\":261:279  Person(_name,_age) */\n      mload(0x40)\n      dup1\n      0x40\n      add\n      0x40\n      mstore\n      dup1\n        /* \"SolidityCodes/Struct.sol\":268:273  _name */\n      dup5\n        /* \"SolidityCodes/Struct.sol\":261:279  Person(_name,_age) */\n      dup2\n      mstore\n      0x20\n      add\n        /* \"SolidityCodes/Struct.sol\":274:278  _age */\n      dup4\n        /* \"SolidityCodes/Struct.sol\":261:279  Person(_name,_age) */\n      dup2\n      mstore\n      pop\n        /* \"SolidityCodes/Struct.sol\":249:280  person.push(Person(_name,_age)) */\n      swap1\n      dup1\n      0x01\n      dup2\n      sload\n      add\n      dup1\n      dup3\n      sstore\n      dup1\n      swap2\n      pop\n      pop\n      0x01\n      swap1\n      sub\n      swap1\n      0x00\n      mstore\n      keccak256(0x00, 0x20)\n      swap1\n      0x02\n      mul\n      add\n      0x00\n      swap1\n      swap2\n      swap1\n      swap2\n      swap1\n      swap2\n      pop\n      0x00\n      dup3\n      add\n      mload\n      dup2\n      0x00\n      add\n      swap1\n      dup2\n      tag_31\n      swap2\n      swap1\n      tag_32\n      jump\t// in\n    tag_31:\n      pop\n      0x20\n      dup3\n      add\n      mload\n      dup2\n      0x01\n      add\n      sstore\n      pop\n      pop\n        /* \"SolidityCodes/Struct.sol\":184:288  function setData(string memory _name,uint _age) public{... */\n      pop\n      pop\n      jump\t// out\n        /* \"#utility.yul\":7:82   */\n    tag_33:\n        /* \"#utility.yul\":40:46   */\n      0x00\n        /* \"#utility.yul\":73:75   */\n      0x40\n        /* \"#utility.yul\":67:76   */\n      mload\n        /* \"#utility.yul\":57:76   */\n      swap1\n      pop\n        /* \"#utility.yul\":7:82   */\n      swap1\n      jump\t// out\n        /* \"#utility.yul\":88:205   */\n    tag_34:\n        /* \"#utility.yul\":197:198   */\n      0x00\n        /* \"#utility.yul\":194:195   */\n      dup1\n        /* \"#utility.yul\":187:199   */\n      revert\n        /* \"#utility.yul\":211:328   */\n    tag_35:\n        /* \"#utility.yul\":320:321   */\n      0x00\n        /* \"#utility.yul\":317:318   */\n      dup1\n        /* \"#utility.yul\":310:322   */\n      revert\n        /* \"#utility.yul\":334:411   */\n    tag_36:\n        /* \"#utility.yul\":371:378   */\n      0x00\n        /* \"#utility.yul\":400:405   */\n      dup2\n        /* \"#utility.yul\":389:405   */\n      swap1\n      pop\n        /* \"#utility.yul\":334:411   */\n      swap2\n      swap1\n      pop\n      jump\t// out\n        /* \"#utility.yul\":417:539   */\n    tag_37:\n        /* \"#utility.yul\":490:514   */\n      tag_76\n        /* \"#utility.yul\":508:513   */\n      dup2\n        /* \"#utility.yul\":490:514   */\n      tag_36\n      jump\t// in\n    tag_76:\n        /* \"#utility.yul\":483:488   */\n      dup2\n        /* \"#utility.yul\":480:515   */\n      eq\n        /* \"#utility.yul\":470:533   */\n      tag_77\n      jumpi\n        /* \"#utility.yul\":529:530   */\n      0x00\n        /* \"#utility.yul\":526:527   */\n      dup1\n        /* \"#utility.yul\":519:531   */\n      revert\n        /* \"#utility.yul\":470:533   */\n    tag_77:\n        /* \"#utility.yul\":417:539   */\n      pop\n      jump\t// out\n        /* \"#utility.yul\":545:684   */\n    tag_38:\n        /* \"#utility.yul\":591:596   */\n      0x00\n        /* \"#utility.yul\":629:635   */\n      dup2\n        /* \"#utility.yul\":616:636   */\n      calldataload\n        /* \"#utility.yul\":607:636   */\n      swap1\n      pop\n        /* \"#utility.yul\":645:678   */\n      tag_79\n        /* \"#utility.yul\":672:677   */\n      dup2\n        /* \"#utility.yul\":645:678   */\n      tag_37\n      jump\t// in\n    tag_79:\n        /* \"#utility.yul\":545:684   */\n      swap3\n      swap2\n      pop\n      pop\n      jump\t// out\n        /* \"#utility.yul\":690:1019   */\n    tag_8:\n        /* \"#utility.yul\":749:755   */\n      0x00\n        /* \"#utility.yul\":798:800   */\n      0x20\n        /* \"#utility.yul\":786:795   */\n      dup3\n        /* \"#utility.yul\":777:784   */\n      dup5\n        /* \"#utility.yul\":773:796   */\n      sub\n        /* \"#utility.yul\":769:801   */\n      slt\n        /* \"#utility.yul\":766:885   */\n      iszero\n      tag_81\n      jumpi\n        /* \"#utility.yul\":804:883   */\n      tag_82\n      tag_34\n      jump\t// in\n    tag_82:\n        /* \"#utility.yul\":766:885   */\n    tag_81:\n        /* \"#utility.yul\":924:925   */\n      0x00\n        /* \"#utility.yul\":949:1002   */\n      tag_83\n        /* \"#utility.yul\":994:1001   */\n      dup5\n        /* \"#utility.yul\":985:991   */\n      dup3\n        /* \"#utility.yul\":974:983   */\n      dup6\n        /* \"#utility.yul\":970:992   */\n      add\n        /* \"#utility.yul\":949:1002   */\n      tag_38\n      jump\t// in\n    tag_83:\n        /* \"#utility.yul\":939:1002   */\n      swap2\n      pop\n        /* \"#utility.yul\":895:1012   */\n      pop\n        /* \"#utility.yul\":690:1019   */\n      swap3\n      swap2\n      pop\n      pop\n      jump\t// out\n        /* \"#utility.yul\":1025:1124   */\n    tag_39:\n        /* \"#utility.yul\":1077:1083   */\n      0x00\n        /* \"#utility.yul\":1111:1116   */\n      dup2\n        /* \"#utility.yul\":1105:1117   */\n      mload\n        /* \"#utility.yul\":1095:1117   */\n      swap1\n      pop\n        /* \"#utility.yul\":1025:1124   */\n      swap2\n      swap1\n      pop\n      jump\t// out\n        /* \"#utility.yul\":1130:1299   */\n    tag_40:\n        /* \"#utility.yul\":1214:1225   */\n      0x00\n        /* \"#utility.yul\":1248:1254   */\n      dup3\n        /* \"#utility.yul\":1243:1246   */\n      dup3\n        /* \"#utility.yul\":1236:1255   */\n      mstore\n        /* \"#utility.yul\":1288:1292   */\n      0x20\n        /* \"#utility.yul\":1283:1286   */\n      dup3\n        /* \"#utility.yul\":1279:1293   */\n      add\n        /* \"#utility.yul\":1264:1293   */\n      swap1\n      pop\n        /* \"#utility.yul\":1130:1299   */\n      swap3\n      swap2\n      pop\n      pop\n      jump\t// out\n        /* \"#utility.yul\":1305:1612   */\n    tag_41:\n        /* \"#utility.yul\":1373:1374   */\n      0x00\n        /* \"#utility.yul\":1383:1496   */\n    tag_87:\n        /* \"#utility.yul\":1397:1403   */\n      dup4\n        /* \"#utility.yul\":1394:1395   */\n      dup2\n        /* \"#utility.yul\":1391:1404   */\n      lt\n        /* \"#utility.yul\":1383:1496   */\n      iszero\n      tag_89\n      jumpi\n        /* \"#utility.yul\":1482:1483   */\n      dup1\n        /* \"#utility.yul\":1477:1480   */\n      dup3\n        /* \"#utility.yul\":1473:1484   */\n      add\n        /* \"#utility.yul\":1467:1485   */\n      mload\n        /* \"#utility.yul\":1463:1464   */\n      dup2\n        /* \"#utility.yul\":1458:1461   */\n      dup5\n        /* \"#utility.yul\":1454:1465   */\n      add\n        /* \"#utility.yul\":1447:1486   */\n      mstore\n        /* \"#utility.yul\":1419:1421   */\n      0x20\n        /* \"#utility.yul\":1416:1417   */\n      dup2\n        /* \"#utility.yul\":1412:1422   */\n      add\n        /* \"#utility.yul\":1407:1422   */\n      swap1\n      pop\n        /* \"#utility.yul\":1383:1496   */\n      jump(tag_87)\n    tag_89:\n        /* \"#utility.yul\":1514:1520   */\n      dup4\n        /* \"#utility.yul\":1511:1512   */\n      dup2\n        /* \"#utility.yul\":1508:1521   */\n      gt\n        /* \"#utility.yul\":1505:1606   */\n      iszero\n      tag_90\n      jumpi\n        /* \"#utility.yul\":1594:1595   */\n      0x00\n        /* \"#utility.yul\":1585:1591   */\n      dup5\n        /* \"#utility.yul\":1580:1583   */\n      dup5\n        /* \"#utility.yul\":1576:1592   */\n      add\n        /* \"#utility.yul\":1569:1596   */\n      mstore\n        /* \"#utility.yul\":1505:1606   */\n    tag_90:\n        /* \"#utility.yul\":1354:1612   */\n      pop\n        /* \"#utility.yul\":1305:1612   */\n      pop\n      pop\n      pop\n      jump\t// out\n        /* \"#utility.yul\":1618:1720   */\n    tag_42:\n        /* \"#utility.yul\":1659:1665   */\n      0x00\n        /* \"#utility.yul\":1710:1712   */\n      0x1f\n        /* \"#utility.yul\":1706:1713   */\n      not\n        /* \"#utility.yul\":1701:1703   */\n      0x1f\n        /* \"#utility.yul\":1694:1699   */\n      dup4\n        /* \"#utility.yul\":1690:1704   */\n      add\n        /* \"#utility.yul\":1686:1714   */\n      and\n        /* \"#utility.yul\":1676:1714   */\n      swap1\n      pop\n        /* \"#utility.yul\":1618:1720   */\n      swap2\n      swap1\n      pop\n      jump\t// out\n        /* \"#utility.yul\":1726:2090   */\n    tag_43:\n        /* \"#utility.yul\":1814:1817   */\n      0x00\n        /* \"#utility.yul\":1842:1881   */\n      tag_93\n        /* \"#utility.yul\":1875:1880   */\n      dup3\n        /* \"#utility.yul\":1842:1881   */\n      tag_39\n      jump\t// in\n    tag_93:\n        /* \"#utility.yul\":1897:1968   */\n      tag_94\n        /* \"#utility.yul\":1961:1967   */\n      dup2\n        /* \"#utility.yul\":1956:1959   */\n      dup6\n        /* \"#utility.yul\":1897:1968   */\n      tag_40\n      jump\t// in\n    tag_94:\n        /* \"#utility.yul\":1890:1968   */\n      swap4\n      pop\n        /* \"#utility.yul\":1977:2029   */\n      tag_95\n        /* \"#utility.yul\":2022:2028   */\n      dup2\n        /* \"#utility.yul\":2017:2020   */\n      dup6\n        /* \"#utility.yul\":2010:2014   */\n      0x20\n        /* \"#utility.yul\":2003:2008   */\n      dup7\n        /* \"#utility.yul\":1999:2015   */\n      add\n        /* \"#utility.yul\":1977:2029   */\n      tag_41\n      jump\t// in\n    tag_95:\n        /* \"#utility.yul\":2054:2083   */\n      tag_96\n        /* \"#utility.yul\":2076:2082   */\n      dup2\n        /* \"#utility.yul\":2054:2083   */\n      tag_42\n      jump\t// in\n    tag_96:\n        /* \"#utility.yul\":2049:2052   */\n      dup5\n        /* \"#utility.yul\":2045:2084   */\n      add\n        /* \"#utility.yul\":2038:2084   */\n      swap2\n      pop\n        /* \"#utility.yul\":1818:2090   */\n      pop\n        /* \"#utility.yul\":1726:2090   */\n      swap3\n      swap2\n      pop\n      pop\n      jump\t// out\n        /* \"#utility.yul\":2096:2214   */\n    tag_44:\n        /* \"#utility.yul\":2183:2207   */\n      tag_98\n        /* \"#utility.yul\":2201:2206   */\n      dup2\n        /* \"#utility.yul\":2183:2207   */\n      tag_36\n      jump\t// in\n    tag_98:\n        /* \"#utility.yul\":2178:2181   */\n      dup3\n        /* \"#utility.yul\":2171:2208   */\n      mstore\n        /* \"#utility.yul\":2096:2214   */\n      pop\n      pop\n      jump\t// out\n        /* \"#utility.yul\":2220:2643   */\n    tag_11:\n        /* \"#utility.yul\":2361:2365   */\n      0x00\n        /* \"#utility.yul\":2399:2401   */\n      0x40\n        /* \"#utility.yul\":2388:2397   */\n      dup3\n        /* \"#utility.yul\":2384:2402   */\n      add\n        /* \"#utility.yul\":2376:2402   */\n      swap1\n      pop\n        /* \"#utility.yul\":2448:2457   */\n      dup2\n        /* \"#utility.yul\":2442:2446   */\n      dup2\n        /* \"#utility.yul\":2438:2458   */\n      sub\n        /* \"#utility.yul\":2434:2435   */\n      0x00\n        /* \"#utility.yul\":2423:2432   */\n      dup4\n        /* \"#utility.yul\":2419:2436   */\n      add\n        /* \"#utility.yul\":2412:2459   */\n      mstore\n        /* \"#utility.yul\":2476:2554   */\n      tag_100\n        /* \"#utility.yul\":2549:2553   */\n      dup2\n        /* \"#utility.yul\":2540:2546   */\n      dup6\n        /* \"#utility.yul\":2476:2554   */\n      tag_43\n      jump\t// in\n    tag_100:\n        /* \"#utility.yul\":2468:2554   */\n      swap1\n      pop\n        /* \"#utility.yul\":2564:2636   */\n      tag_101\n        /* \"#utility.yul\":2632:2634   */\n      0x20\n        /* \"#utility.yul\":2621:2630   */\n      dup4\n        /* \"#utility.yul\":2617:2635   */\n      add\n        /* \"#utility.yul\":2608:2614   */\n      dup5\n        /* \"#utility.yul\":2564:2636   */\n      tag_44\n      jump\t// in\n    tag_101:\n        /* \"#utility.yul\":2220:2643   */\n      swap4\n      swap3\n      pop\n      pop\n      pop\n      jump\t// out\n        /* \"#utility.yul\":2649:2962   */\n    tag_15:\n        /* \"#utility.yul\":2762:2766   */\n      0x00\n        /* \"#utility.yul\":2800:2802   */\n      0x20\n        /* \"#utility.yul\":2789:2798   */\n      dup3\n        /* \"#utility.yul\":2785:2803   */\n      add\n        /* \"#utility.yul\":2777:2803   */\n      swap1\n      pop\n        /* \"#utility.yul\":2849:2858   */\n      dup2\n        /* \"#utility.yul\":2843:2847   */\n      dup2\n        /* \"#utility.yul\":2839:2859   */\n      sub\n        /* \"#utility.yul\":2835:2836   */\n      0x00\n        /* \"#utility.yul\":2824:2833   */\n      dup4\n        /* \"#utility.yul\":2820:2837   */\n      add\n        /* \"#utility.yul\":2813:2860   */\n      mstore\n        /* \"#utility.yul\":2877:2955   */\n      tag_103\n        /* \"#utility.yul\":2950:2954   */\n      dup2\n        /* \"#utility.yul\":2941:2947   */\n      dup5\n        /* \"#utility.yul\":2877:2955   */\n      tag_43\n      jump\t// in\n    tag_103:\n        /* \"#utility.yul\":2869:2955   */\n      swap1\n      pop\n        /* \"#utility.yul\":2649:2962   */\n      swap3\n      swap2\n      pop\n      pop\n      jump\t// out\n        /* \"#utility.yul\":2968:3085   */\n    tag_45:\n        /* \"#utility.yul\":3077:3078   */\n      0x00\n        /* \"#utility.yul\":3074:3075   */\n      dup1\n        /* \"#utility.yul\":3067:3079   */\n      revert\n        /* \"#utility.yul\":3091:3208   */\n    tag_46:\n        /* \"#utility.yul\":3200:3201   */\n      0x00\n        /* \"#utility.yul\":3197:3198   */\n      dup1\n        /* \"#utility.yul\":3190:3202   */\n      revert\n        /* \"#utility.yul\":3214:3394   */\n    tag_47:\n        /* \"#utility.yul\":3262:3339   */\n      0x4e487b7100000000000000000000000000000000000000000000000000000000\n        /* \"#utility.yul\":3259:3260   */\n      0x00\n        /* \"#utility.yul\":3252:3340   */\n      mstore\n        /* \"#utility.yul\":3359:3363   */\n      0x41\n        /* \"#utility.yul\":3356:3357   */\n      0x04\n        /* \"#utility.yul\":3349:3364   */\n      mstore\n        /* \"#utility.yul\":3383:3387   */\n      0x24\n        /* \"#utility.yul\":3380:3381   */\n      0x00\n        /* \"#utility.yul\":3373:3388   */\n      revert\n        /* \"#utility.yul\":3400:3681   */\n    tag_48:\n        /* \"#utility.yul\":3483:3510   */\n      tag_108\n        /* \"#utility.yul\":3505:3509   */\n      dup3\n        /* \"#utility.yul\":3483:3510   */\n      tag_42\n      jump\t// in\n    tag_108:\n        /* \"#utility.yul\":3475:3481   */\n      dup2\n        /* \"#utility.yul\":3471:3511   */\n      add\n        /* \"#utility.yul\":3613:3619   */\n      dup2\n        /* \"#utility.yul\":3601:3611   */\n      dup2\n        /* \"#utility.yul\":3598:3620   */\n      lt\n        /* \"#utility.yul\":3577:3595   */\n      0xffffffffffffffff\n        /* \"#utility.yul\":3565:3575   */\n      dup3\n        /* \"#utility.yul\":3562:3596   */\n      gt\n        /* \"#utility.yul\":3559:3621   */\n      or\n        /* \"#utility.yul\":3556:3644   */\n      iszero\n      tag_109\n      jumpi\n        /* \"#utility.yul\":3624:3642   */\n      tag_110\n      tag_47\n      jump\t// in\n    tag_110:\n        /* \"#utility.yul\":3556:3644   */\n    tag_109:\n        /* \"#utility.yul\":3664:3674   */\n      dup1\n        /* \"#utility.yul\":3660:3662   */\n      0x40\n        /* \"#utility.yul\":3653:3675   */\n      mstore\n        /* \"#utility.yul\":3443:3681   */\n      pop\n        /* \"#utility.yul\":3400:3681   */\n      pop\n      pop\n      jump\t// out\n        /* \"#utility.yul\":3687:3816   */\n    tag_49:\n        /* \"#utility.yul\":3721:3727   */\n      0x00\n        /* \"#utility.yul\":3748:3768   */\n      tag_112\n      tag_33\n      jump\t// in\n    tag_112:\n        /* \"#utility.yul\":3738:3768   */\n      swap1\n      pop\n        /* \"#utility.yul\":3777:3810   */\n      tag_113\n        /* \"#utility.yul\":3805:3809   */\n      dup3\n        /* \"#utility.yul\":3797:3803   */\n      dup3\n        /* \"#utility.yul\":3777:3810   */\n      tag_48\n      jump\t// in\n    tag_113:\n        /* \"#utility.yul\":3687:3816   */\n      swap2\n      swap1\n      pop\n      jump\t// out\n        /* \"#utility.yul\":3822:4130   */\n    tag_50:\n        /* \"#utility.yul\":3884:3888   */\n      0x00\n        /* \"#utility.yul\":3974:3992   */\n      0xffffffffffffffff\n        /* \"#utility.yul\":3966:3972   */\n      dup3\n        /* \"#utility.yul\":3963:3993   */\n      gt\n        /* \"#utility.yul\":3960:4016   */\n      iszero\n      tag_115\n      jumpi\n        /* \"#utility.yul\":3996:4014   */\n      tag_116\n      tag_47\n      jump\t// in\n    tag_116:\n        /* \"#utility.yul\":3960:4016   */\n    tag_115:\n        /* \"#utility.yul\":4034:4063   */\n      tag_117\n        /* \"#utility.yul\":4056:4062   */\n      dup3\n        /* \"#utility.yul\":4034:4063   */\n      tag_42\n      jump\t// in\n    tag_117:\n        /* \"#utility.yul\":4026:4063   */\n      swap1\n      pop\n        /* \"#utility.yul\":4118:4122   */\n      0x20\n        /* \"#utility.yul\":4112:4116   */\n      dup2\n        /* \"#utility.yul\":4108:4123   */\n      add\n        /* \"#utility.yul\":4100:4123   */\n      swap1\n      pop\n        /* \"#utility.yul\":3822:4130   */\n      swap2\n      swap1\n      pop\n      jump\t// out\n        /* \"#utility.yul\":4136:4290   */\n    tag_51:\n        /* \"#utility.yul\":4220:4226   */\n      dup3\n        /* \"#utility.yul\":4215:4218   */\n      dup2\n        /* \"#utility.yul\":4210:4213   */\n      dup4\n        /* \"#utility.yul\":4197:4227   */\n      calldatacopy\n        /* \"#utility.yul\":4282:4283   */\n      0x00\n        /* \"#utility.yul\":4273:4279   */\n      dup4\n        /* \"#utility.yul\":4268:4271   */\n      dup4\n        /* \"#utility.yul\":4264:4280   */\n      add\n        /* \"#utility.yul\":4257:4284   */\n      mstore\n        /* \"#utility.yul\":4136:4290   */\n      pop\n      pop\n      pop\n      jump\t// out\n        /* \"#utility.yul\":4296:4708   */\n    tag_52:\n        /* \"#utility.yul\":4374:4379   */\n      0x00\n        /* \"#utility.yul\":4399:4465   */\n      tag_120\n        /* \"#utility.yul\":4415:4464   */\n      tag_121\n        /* \"#utility.yul\":4457:4463   */\n      dup5\n        /* \"#utility.yul\":4415:4464   */\n      tag_50\n      jump\t// in\n    tag_121:\n        /* \"#utility.yul\":4399:4465   */\n      tag_49\n      jump\t// in\n    tag_120:\n        /* \"#utility.yul\":4390:4465   */\n      swap1\n      pop\n        /* \"#utility.yul\":4488:4494   */\n      dup3\n        /* \"#utility.yul\":4481:4486   */\n      dup2\n        /* \"#utility.yul\":4474:4495   */\n      mstore\n        /* \"#utility.yul\":4526:4530   */\n      0x20\n        /* \"#utility.yul\":4519:4524   */\n      dup2\n        /* \"#utility.yul\":4515:4531   */\n      add\n        /* \"#utility.yul\":4564:4567   */\n      dup5\n        /* \"#utility.yul\":4555:4561   */\n      dup5\n        /* \"#utility.yul\":4550:4553   */\n      dup5\n        /* \"#utility.yul\":4546:4562   */\n      add\n        /* \"#utility.yul\":4543:4568   */\n      gt\n        /* \"#utility.yul\":4540:4652   */\n      iszero\n      tag_122\n      jumpi\n        /* \"#utility.yul\":4571:4650   */\n      tag_123\n      tag_46\n      jump\t// in\n    tag_123:\n        /* \"#utility.yul\":4540:4652   */\n    tag_122:\n        /* \"#utility.yul\":4661:4702   */\n      tag_124\n        /* \"#utility.yul\":4695:4701   */\n      dup5\n        /* \"#utility.yul\":4690:4693   */\n      dup3\n        /* \"#utility.yul\":4685:4688   */\n      dup6\n        /* \"#utility.yul\":4661:4702   */\n      tag_51\n      jump\t// in\n    tag_124:\n        /* \"#utility.yul\":4380:4708   */\n      pop\n        /* \"#utility.yul\":4296:4708   */\n      swap4\n      swap3\n      pop\n      pop\n      pop\n      jump\t// out\n        /* \"#utility.yul\":4728:5068   */\n    tag_53:\n        /* \"#utility.yul\":4784:4789   */\n      0x00\n        /* \"#utility.yul\":4833:4836   */\n      dup3\n        /* \"#utility.yul\":4826:4830   */\n      0x1f\n        /* \"#utility.yul\":4818:4824   */\n      dup4\n        /* \"#utility.yul\":4814:4831   */\n      add\n        /* \"#utility.yul\":4810:4837   */\n      slt\n        /* \"#utility.yul\":4800:4922   */\n      tag_126\n      jumpi\n        /* \"#utility.yul\":4841:4920   */\n      tag_127\n      tag_45\n      jump\t// in\n    tag_127:\n        /* \"#utility.yul\":4800:4922   */\n    tag_126:\n        /* \"#utility.yul\":4958:4964   */\n      dup2\n        /* \"#utility.yul\":4945:4965   */\n      calldataload\n        /* \"#utility.yul\":4983:5062   */\n      tag_128\n        /* \"#utility.yul\":5058:5061   */\n      dup5\n        /* \"#utility.yul\":5050:5056   */\n      dup3\n        /* \"#utility.yul\":5043:5047   */\n      0x20\n        /* \"#utility.yul\":5035:5041   */\n      dup7\n        /* \"#utility.yul\":5031:5048   */\n      add\n        /* \"#utility.yul\":4983:5062   */\n      tag_52\n      jump\t// in\n    tag_128:\n        /* \"#utility.yul\":4974:5062   */\n      swap2\n      pop\n        /* \"#utility.yul\":4790:5068   */\n      pop\n        /* \"#utility.yul\":4728:5068   */\n      swap3\n      swap2\n      pop\n      pop\n      jump\t// out\n        /* \"#utility.yul\":5074:5728   */\n    tag_18:\n        /* \"#utility.yul\":5152:5158   */\n      0x00\n        /* \"#utility.yul\":5160:5166   */\n      dup1\n        /* \"#utility.yul\":5209:5211   */\n      0x40\n        /* \"#utility.yul\":5197:5206   */\n      dup4\n        /* \"#utility.yul\":5188:5195   */\n      dup6\n        /* \"#utility.yul\":5184:5207   */\n      sub\n        /* \"#utility.yul\":5180:5212   */\n      slt\n        /* \"#utility.yul\":5177:5296   */\n      iszero\n      tag_130\n      jumpi\n        /* \"#utility.yul\":5215:5294   */\n      tag_131\n      tag_34\n      jump\t// in\n    tag_131:\n        /* \"#utility.yul\":5177:5296   */\n    tag_130:\n        /* \"#utility.yul\":5363:5364   */\n      0x00\n        /* \"#utility.yul\":5352:5361   */\n      dup4\n        /* \"#utility.yul\":5348:5365   */\n      add\n        /* \"#utility.yul\":5335:5366   */\n      calldataload\n        /* \"#utility.yul\":5393:5411   */\n      0xffffffffffffffff\n        /* \"#utility.yul\":5385:5391   */\n      dup2\n        /* \"#utility.yul\":5382:5412   */\n      gt\n        /* \"#utility.yul\":5379:5496   */\n      iszero\n      tag_132\n      jumpi\n        /* \"#utility.yul\":5415:5494   */\n      tag_133\n      tag_35\n      jump\t// in\n    tag_133:\n        /* \"#utility.yul\":5379:5496   */\n    tag_132:\n        /* \"#utility.yul\":5520:5583   */\n      tag_134\n        /* \"#utility.yul\":5575:5582   */\n      dup6\n        /* \"#utility.yul\":5566:5572   */\n      dup3\n        /* \"#utility.yul\":5555:5564   */\n      dup7\n        /* \"#utility.yul\":5551:5573   */\n      add\n        /* \"#utility.yul\":5520:5583   */\n      tag_53\n      jump\t// in\n    tag_134:\n        /* \"#utility.yul\":5510:5583   */\n      swap3\n      pop\n        /* \"#utility.yul\":5306:5593   */\n      pop\n        /* \"#utility.yul\":5632:5634   */\n      0x20\n        /* \"#utility.yul\":5658:5711   */\n      tag_135\n        /* \"#utility.yul\":5703:5710   */\n      dup6\n        /* \"#utility.yul\":5694:5700   */\n      dup3\n        /* \"#utility.yul\":5683:5692   */\n      dup7\n        /* \"#utility.yul\":5679:5701   */\n      add\n        /* \"#utility.yul\":5658:5711   */\n      tag_38\n      jump\t// in\n    tag_135:\n        /* \"#utility.yul\":5648:5711   */\n      swap2\n      pop\n        /* \"#utility.yul\":5603:5721   */\n      pop\n        /* \"#utility.yul\":5074:5728   */\n      swap3\n      pop\n      swap3\n      swap1\n      pop\n      jump\t// out\n        /* \"#utility.yul\":5734:5914   */\n    tag_54:\n        /* \"#utility.yul\":5782:5859   */\n      0x4e487b7100000000000000000000000000000000000000000000000000000000\n        /* \"#utility.yul\":5779:5780   */\n      0x00\n        /* \"#utility.yul\":5772:5860   */\n      mstore\n        /* \"#utility.yul\":5879:5883   */\n      0x22\n        /* \"#utility.yul\":5876:5877   */\n      0x04\n        /* \"#utility.yul\":5869:5884   */\n      mstore\n        /* \"#utility.yul\":5903:5907   */\n      0x24\n        /* \"#utility.yul\":5900:5901   */\n      0x00\n        /* \"#utility.yul\":5893:5908   */\n      revert\n        /* \"#utility.yul\":5920:6240   */\n    tag_23:\n        /* \"#utility.yul\":5964:5970   */\n      0x00\n        /* \"#utility.yul\":6001:6002   */\n      0x02\n        /* \"#utility.yul\":5995:5999   */\n      dup3\n        /* \"#utility.yul\":5991:6003   */\n      div\n        /* \"#utility.yul\":5981:6003   */\n      swap1\n      pop\n        /* \"#utility.yul\":6048:6049   */\n      0x01\n        /* \"#utility.yul\":6042:6046   */\n      dup3\n        /* \"#utility.yul\":6038:6050   */\n      and\n        /* \"#utility.yul\":6069:6087   */\n      dup1\n        /* \"#utility.yul\":6059:6140   */\n      tag_138\n      jumpi\n        /* \"#utility.yul\":6125:6129   */\n      0x7f\n        /* \"#utility.yul\":6117:6123   */\n      dup3\n        /* \"#utility.yul\":6113:6130   */\n      and\n        /* \"#utility.yul\":6103:6130   */\n      swap2\n      pop\n        /* \"#utility.yul\":6059:6140   */\n    tag_138:\n        /* \"#utility.yul\":6187:6189   */\n      0x20\n        /* \"#utility.yul\":6179:6185   */\n      dup3\n        /* \"#utility.yul\":6176:6190   */\n      lt\n        /* \"#utility.yul\":6156:6174   */\n      dup2\n        /* \"#utility.yul\":6153:6191   */\n      sub\n        /* \"#utility.yul\":6150:6234   */\n      tag_139\n      jumpi\n        /* \"#utility.yul\":6206:6224   */\n      tag_140\n      tag_54\n      jump\t// in\n    tag_140:\n        /* \"#utility.yul\":6150:6234   */\n    tag_139:\n        /* \"#utility.yul\":5971:6240   */\n      pop\n        /* \"#utility.yul\":5920:6240   */\n      swap2\n      swap1\n      pop\n      jump\t// out\n        /* \"#utility.yul\":6246:6387   */\n    tag_55:\n        /* \"#utility.yul\":6295:6299   */\n      0x00\n        /* \"#utility.yul\":6318:6321   */\n      dup2\n        /* \"#utility.yul\":6310:6321   */\n      swap1\n      pop\n        /* \"#utility.yul\":6341:6344   */\n      dup2\n        /* \"#utility.yul\":6338:6339   */\n      0x00\n        /* \"#utility.yul\":6331:6345   */\n      mstore\n        /* \"#utility.yul\":6375:6379   */\n      0x20\n        /* \"#utility.yul\":6372:6373   */\n      0x00\n        /* \"#utility.yul\":6362:6380   */\n      keccak256\n        /* \"#utility.yul\":6354:6380   */\n      swap1\n      pop\n        /* \"#utility.yul\":6246:6387   */\n      swap2\n      swap1\n      pop\n      jump\t// out\n        /* \"#utility.yul\":6393:6486   */\n    tag_56:\n        /* \"#utility.yul\":6430:6436   */\n      0x00\n        /* \"#utility.yul\":6477:6479   */\n      0x20\n        /* \"#utility.yul\":6472:6474   */\n      0x1f\n        /* \"#utility.yul\":6465:6470   */\n      dup4\n        /* \"#utility.yul\":6461:6475   */\n      add\n        /* \"#utility.yul\":6457:6480   */\n      div\n        /* \"#utility.yul\":6447:6480   */\n      swap1\n      pop\n        /* \"#utility.yul\":6393:6486   */\n      swap2\n      swap1\n      pop\n      jump\t// out\n        /* \"#utility.yul\":6492:6599   */\n    tag_57:\n        /* \"#utility.yul\":6536:6544   */\n      0x00\n        /* \"#utility.yul\":6586:6591   */\n      dup3\n        /* \"#utility.yul\":6580:6584   */\n      dup3\n        /* \"#utility.yul\":6576:6592   */\n      shl\n        /* \"#utility.yul\":6555:6592   */\n      swap1\n      pop\n        /* \"#utility.yul\":6492:6599   */\n      swap3\n      swap2\n      pop\n      pop\n      jump\t// out\n        /* \"#utility.yul\":6605:6998   */\n    tag_58:\n        /* \"#utility.yul\":6674:6680   */\n      0x00\n        /* \"#utility.yul\":6724:6725   */\n      0x08\n        /* \"#utility.yul\":6712:6722   */\n      dup4\n        /* \"#utility.yul\":6708:6726   */\n      mul\n        /* \"#utility.yul\":6747:6844   */\n      tag_145\n        /* \"#utility.yul\":6777:6843   */\n      0xffffffffffffffffffffffffffffffffffffffffffffffffffffffffffffffff\n        /* \"#utility.yul\":6766:6775   */\n      dup3\n        /* \"#utility.yul\":6747:6844   */\n      tag_57\n      jump\t// in\n    tag_145:\n        /* \"#utility.yul\":6865:6904   */\n      tag_146\n        /* \"#utility.yul\":6895:6903   */\n      dup7\n        /* \"#utility.yul\":6884:6893   */\n      dup4\n        /* \"#utility.yul\":6865:6904   */\n      tag_57\n      jump\t// in\n    tag_146:\n        /* \"#utility.yul\":6853:6904   */\n      swap6\n      pop\n        /* \"#utility.yul\":6937:6941   */\n      dup1\n        /* \"#utility.yul\":6933:6942   */\n      not\n        /* \"#utility.yul\":6926:6931   */\n      dup5\n        /* \"#utility.yul\":6922:6943   */\n      and\n        /* \"#utility.yul\":6913:6943   */\n      swap4\n      pop\n        /* \"#utility.yul\":6986:6990   */\n      dup1\n        /* \"#utility.yul\":6976:6984   */\n      dup7\n        /* \"#utility.yul\":6972:6991   */\n      and\n        /* \"#utility.yul\":6965:6970   */\n      dup5\n        /* \"#utility.yul\":6962:6992   */\n      or\n        /* \"#utility.yul\":6952:6992   */\n      swap3\n      pop\n        /* \"#utility.yul\":6681:6998   */\n      pop\n      pop\n        /* \"#utility.yul\":6605:6998   */\n      swap4\n      swap3\n      pop\n      pop\n      pop\n      jump\t// out\n        /* \"#utility.yul\":7004:7064   */\n    tag_59:\n        /* \"#utility.yul\":7032:7035   */\n      0x00\n        /* \"#utility.yul\":7053:7058   */\n      dup2\n        /* \"#utility.yul\":7046:7058   */\n      swap1\n      pop\n        /* \"#utility.yul\":7004:7064   */\n      swap2\n      swap1\n      pop\n      jump\t// out\n        /* \"#utility.yul\":7070:7212   */\n    tag_60:\n        /* \"#utility.yul\":7120:7129   */\n      0x00\n        /* \"#utility.yul\":7153:7206   */\n      tag_149\n        /* \"#utility.yul\":7171:7205   */\n      tag_150\n        /* \"#utility.yul\":7180:7204   */\n      tag_151\n        /* \"#utility.yul\":7198:7203   */\n      dup5\n        /* \"#utility.yul\":7180:7204   */\n      tag_36\n      jump\t// in\n    tag_151:\n        /* \"#utility.yul\":7171:7205   */\n      tag_59\n      jump\t// in\n    tag_150:\n        /* \"#utility.yul\":7153:7206   */\n      tag_36\n      jump\t// in\n    tag_149:\n        /* \"#utility.yul\":7140:7206   */\n      swap1\n      pop\n        /* \"#utility.yul\":7070:7212   */\n      swap2\n      swap1\n      pop\n      jump\t// out\n        /* \"#utility.yul\":7218:7293   */\n    tag_61:\n        /* \"#utility.yul\":7261:7264   */\n      0x00\n        /* \"#utility.yul\":7282:7287   */\n      dup2\n        /* \"#utility.yul\":7275:7287   */\n      swap1\n      pop\n        /* \"#utility.yul\":7218:7293   */\n      swap2\n      swap1\n      pop\n      jump\t// out\n        /* \"#utility.yul\":7299:7568   */\n    tag_62:\n        /* \"#utility.yul\":7409:7448   */\n      tag_154\n        /* \"#utility.yul\":7440:7447   */\n      dup4\n        /* \"#utility.yul\":7409:7448   */\n      tag_60\n      jump\t// in\n    tag_154:\n        /* \"#utility.yul\":7470:7561   */\n      tag_155\n        /* \"#utility.yul\":7519:7560   */\n      tag_156\n        /* \"#utility.yul\":7543:7559   */\n      dup3\n        /* \"#utility.yul\":7519:7560   */\n      tag_61\n      jump\t// in\n    tag_156:\n        /* \"#utility.yul\":7511:7517   */\n      dup5\n        /* \"#utility.yul\":7504:7508   */\n      dup5\n        /* \"#utility.yul\":7498:7509   */\n      sload\n        /* \"#utility.yul\":7470:7561   */\n      tag_58\n      jump\t// in\n    tag_155:\n        /* \"#utility.yul\":7464:7468   */\n      dup3\n        /* \"#utility.yul\":7457:7562   */\n      sstore\n        /* \"#utility.yul\":7375:7568   */\n      pop\n        /* \"#utility.yul\":7299:7568   */\n      pop\n      pop\n      pop\n      jump\t// out\n        /* \"#utility.yul\":7574:7647   */\n    tag_63:\n        /* \"#utility.yul\":7619:7622   */\n      0x00\n        /* \"#utility.yul\":7574:7647   */\n      swap1\n      jump\t// out\n        /* \"#utility.yul\":7653:7842   */\n    tag_64:\n        /* \"#utility.yul\":7730:7762   */\n      tag_159\n      tag_63\n      jump\t// in\n    tag_159:\n        /* \"#utility.yul\":7771:7836   */\n      tag_160\n        /* \"#utility.yul\":7829:7835   */\n      dup2\n        /* \"#utility.yul\":7821:7827   */\n      dup5\n        /* \"#utility.yul\":7815:7819   */\n      dup5\n        /* \"#utility.yul\":7771:7836   */\n      tag_62\n      jump\t// in\n    tag_160:\n        /* \"#utility.yul\":7706:7842   */\n      pop\n        /* \"#utility.yul\":7653:7842   */\n      pop\n      pop\n      jump\t// out\n        /* \"#utility.yul\":7848:8034   */\n    tag_65:\n        /* \"#utility.yul\":7908:8028   */\n    tag_162:\n        /* \"#utility.yul\":7925:7928   */\n      dup2\n        /* \"#utility.yul\":7918:7923   */\n      dup2\n        /* \"#utility.yul\":7915:7929   */\n      lt\n        /* \"#utility.yul\":7908:8028   */\n      iszero\n      tag_164\n      jumpi\n        /* \"#utility.yul\":7979:8018   */\n      tag_165\n        /* \"#utility.yul\":8016:8017   */\n      0x00\n        /* \"#utility.yul\":8009:8014   */\n      dup3\n        /* \"#utility.yul\":7979:8018   */\n      tag_64\n      jump\t// in\n    tag_165:\n        /* \"#utility.yul\":7952:7953   */\n      0x01\n        /* \"#utility.yul\":7945:7950   */\n      dup2\n        /* \"#utility.yul\":7941:7954   */\n      add\n        /* \"#utility.yul\":7932:7954   */\n      swap1\n      pop\n        /* \"#utility.yul\":7908:8028   */\n      jump(tag_162)\n    tag_164:\n        /* \"#utility.yul\":7848:8034   */\n      pop\n      pop\n      jump\t// out\n        /* \"#utility.yul\":8040:8583   */\n    tag_66:\n        /* \"#utility.yul\":8141:8143   */\n      0x1f\n        /* \"#utility.yul\":8136:8139   */\n      dup3\n        /* \"#utility.yul\":8133:8144   */\n      gt\n        /* \"#utility.yul\":8130:8576   */\n      iszero\n      tag_167\n      jumpi\n        /* \"#utility.yul\":8175:8213   */\n      tag_168\n        /* \"#utility.yul\":8207:8212   */\n      dup2\n        /* \"#utility.yul\":8175:8213   */\n      tag_55\n      jump\t// in\n    tag_168:\n        /* \"#utility.yul\":8259:8288   */\n      tag_169\n        /* \"#utility.yul\":8277:8287   */\n      dup5\n        /* \"#utility.yul\":8259:8288   */\n      tag_56\n      jump\t// in\n    tag_169:\n        /* \"#utility.yul\":8249:8257   */\n      dup2\n        /* \"#utility.yul\":8245:8289   */\n      add\n        /* \"#utility.yul\":8442:8444   */\n      0x20\n        /* \"#utility.yul\":8430:8440   */\n      dup6\n        /* \"#utility.yul\":8427:8445   */\n      lt\n        /* \"#utility.yul\":8424:8473   */\n      iszero\n      tag_170\n      jumpi\n        /* \"#utility.yul\":8463:8471   */\n      dup2\n        /* \"#utility.yul\":8448:8471   */\n      swap1\n      pop\n        /* \"#utility.yul\":8424:8473   */\n    tag_170:\n        /* \"#utility.yul\":8486:8566   */\n      tag_171\n        /* \"#utility.yul\":8542:8564   */\n      tag_172\n        /* \"#utility.yul\":8560:8563   */\n      dup6\n        /* \"#utility.yul\":8542:8564   */\n      tag_56\n      jump\t// in\n    tag_172:\n        /* \"#utility.yul\":8532:8540   */\n      dup4\n        /* \"#utility.yul\":8528:8565   */\n      add\n        /* \"#utility.yul\":8515:8526   */\n      dup3\n        /* \"#utility.yul\":8486:8566   */\n      tag_65\n      jump\t// in\n    tag_171:\n        /* \"#utility.yul\":8145:8576   */\n      pop\n      pop\n        /* \"#utility.yul\":8130:8576   */\n    tag_167:\n        /* \"#utility.yul\":8040:8583   */\n      pop\n      pop\n      pop\n      jump\t// out\n        /* \"#utility.yul\":8589:8706   */\n    tag_67:\n        /* \"#utility.yul\":8643:8651   */\n      0x00\n        /* \"#utility.yul\":8693:8698   */\n      dup3\n        /* \"#utility.yul\":8687:8691   */\n      dup3\n        /* \"#utility.yul\":8683:8699   */\n      shr\n        /* \"#utility.yul\":8662:8699   */\n      swap1\n      pop\n        /* \"#utility.yul\":8589:8706   */\n      swap3\n      swap2\n      pop\n      pop\n      jump\t// out\n        /* \"#utility.yul\":8712:8881   */\n    tag_68:\n        /* \"#utility.yul\":8756:8762   */\n      0x00\n        /* \"#utility.yul\":8789:8840   */\n      tag_175\n        /* \"#utility.yul\":8837:8838   */\n      0x00\n        /* \"#utility.yul\":8833:8839   */\n      not\n        /* \"#utility.yul\":8825:8830   */\n      dup5\n        /* \"#utility.yul\":8822:8823   */\n      0x08\n        /* \"#utility.yul\":8818:8831   */\n      mul\n        /* \"#utility.yul\":8789:8840   */\n      tag_67\n      jump\t// in\n    tag_175:\n        /* \"#utility.yul\":8785:8841   */\n      not\n        /* \"#utility.yul\":8870:8874   */\n      dup1\n        /* \"#utility.yul\":8864:8868   */\n      dup4\n        /* \"#utility.yul\":8860:8875   */\n      and\n        /* \"#utility.yul\":8850:8875   */\n      swap2\n      pop\n        /* \"#utility.yul\":8763:8881   */\n      pop\n        /* \"#utility.yul\":8712:8881   */\n      swap3\n      swap2\n      pop\n      pop\n      jump\t// out\n        /* \"#utility.yul\":8886:9181   */\n    tag_69:\n        /* \"#utility.yul\":8962:8966   */\n      0x00\n        /* \"#utility.yul\":9108:9137   */\n      tag_177\n        /* \"#utility.yul\":9133:9136   */\n      dup4\n        /* \"#utility.yul\":9127:9131   */\n      dup4\n        /* \"#utility.yul\":9108:9137   */\n      tag_68\n      jump\t// in\n    tag_177:\n        /* \"#utility.yul\":9100:9137   */\n      swap2\n      pop\n        /* \"#utility.yul\":9170:9173   */\n      dup3\n        /* \"#utility.yul\":9167:9168   */\n      0x02\n        /* \"#utility.yul\":9163:9174   */\n      mul\n        /* \"#utility.yul\":9157:9161   */\n      dup3\n        /* \"#utility.yul\":9154:9175   */\n      or\n        /* \"#utility.yul\":9146:9175   */\n      swap1\n      pop\n        /* \"#utility.yul\":8886:9181   */\n      swap3\n      swap2\n      pop\n      pop\n      jump\t// out\n        /* \"#utility.yul\":9186:10581   */\n    tag_32:\n        /* \"#utility.yul\":9303:9340   */\n      tag_179\n        /* \"#utility.yul\":9336:9339   */\n      dup3\n        /* \"#utility.yul\":9303:9340   */\n      tag_39\n      jump\t// in\n    tag_179:\n        /* \"#utility.yul\":9405:9423   */\n      0xffffffffffffffff\n        /* \"#utility.yul\":9397:9403   */\n      dup2\n        /* \"#utility.yul\":9394:9424   */\n      gt\n        /* \"#utility.yul\":9391:9447   */\n      iszero\n      tag_180\n      jumpi\n        /* \"#utility.yul\":9427:9445   */\n      tag_181\n      tag_47\n      jump\t// in\n    tag_181:\n        /* \"#utility.yul\":9391:9447   */\n    tag_180:\n        /* \"#utility.yul\":9471:9509   */\n      tag_182\n        /* \"#utility.yul\":9503:9507   */\n      dup3\n        /* \"#utility.yul\":9497:9508   */\n      sload\n        /* \"#utility.yul\":9471:9509   */\n      tag_23\n      jump\t// in\n    tag_182:\n        /* \"#utility.yul\":9556:9623   */\n      tag_183\n        /* \"#utility.yul\":9616:9622   */\n      dup3\n        /* \"#utility.yul\":9608:9614   */\n      dup3\n        /* \"#utility.yul\":9602:9606   */\n      dup6\n        /* \"#utility.yul\":9556:9623   */\n      tag_66\n      jump\t// in\n    tag_183:\n        /* \"#utility.yul\":9650:9651   */\n      0x00\n        /* \"#utility.yul\":9674:9678   */\n      0x20\n        /* \"#utility.yul\":9661:9678   */\n      swap1\n      pop\n        /* \"#utility.yul\":9706:9708   */\n      0x1f\n        /* \"#utility.yul\":9698:9704   */\n      dup4\n        /* \"#utility.yul\":9695:9709   */\n      gt\n        /* \"#utility.yul\":9723:9724   */\n      0x01\n        /* \"#utility.yul\":9718:10336   */\n      dup2\n      eq\n      tag_185\n      jumpi\n        /* \"#utility.yul\":10380:10381   */\n      0x00\n        /* \"#utility.yul\":10397:10403   */\n      dup5\n        /* \"#utility.yul\":10394:10471   */\n      iszero\n      tag_186\n      jumpi\n        /* \"#utility.yul\":10446:10455   */\n      dup3\n        /* \"#utility.yul\":10441:10444   */\n      dup8\n        /* \"#utility.yul\":10437:10456   */\n      add\n        /* \"#utility.yul\":10431:10457   */\n      mload\n        /* \"#utility.yul\":10422:10457   */\n      swap1\n      pop\n        /* \"#utility.yul\":10394:10471   */\n    tag_186:\n        /* \"#utility.yul\":10497:10564   */\n      tag_187\n        /* \"#utility.yul\":10557:10563   */\n      dup6\n        /* \"#utility.yul\":10550:10555   */\n      dup3\n        /* \"#utility.yul\":10497:10564   */\n      tag_69\n      jump\t// in\n    tag_187:\n        /* \"#utility.yul\":10491:10495   */\n      dup7\n        /* \"#utility.yul\":10484:10565   */\n      sstore\n        /* \"#utility.yul\":10353:10575   */\n      pop\n        /* \"#utility.yul\":9688:10575   */\n      jump(tag_184)\n        /* \"#utility.yul\":9718:10336   */\n    tag_185:\n        /* \"#utility.yul\":9770:9774   */\n      0x1f\n        /* \"#utility.yul\":9766:9775   */\n      not\n        /* \"#utility.yul\":9758:9764   */\n      dup5\n        /* \"#utility.yul\":9754:9776   */\n      and\n        /* \"#utility.yul\":9804:9841   */\n      tag_188\n        /* \"#utility.yul\":9836:9840   */\n      dup7\n        /* \"#utility.yul\":9804:9841   */\n      tag_55\n      jump\t// in\n    tag_188:\n        /* \"#utility.yul\":9863:9864   */\n      0x00\n        /* \"#utility.yul\":9877:10085   */\n    tag_189:\n        /* \"#utility.yul\":9891:9898   */\n      dup3\n        /* \"#utility.yul\":9888:9889   */\n      dup2\n        /* \"#utility.yul\":9885:9899   */\n      lt\n        /* \"#utility.yul\":9877:10085   */\n      iszero\n      tag_191\n      jumpi\n        /* \"#utility.yul\":9970:9979   */\n      dup5\n        /* \"#utility.yul\":9965:9968   */\n      dup10\n        /* \"#utility.yul\":9961:9980   */\n      add\n        /* \"#utility.yul\":9955:9981   */\n      mload\n        /* \"#utility.yul\":9947:9953   */\n      dup3\n        /* \"#utility.yul\":9940:9982   */\n      sstore\n        /* \"#utility.yul\":10021:10022   */\n      0x01\n        /* \"#utility.yul\":10013:10019   */\n      dup3\n        /* \"#utility.yul\":10009:10023   */\n      add\n        /* \"#utility.yul\":9999:10023   */\n      swap2\n      pop\n        /* \"#utility.yul\":10068:10070   */\n      0x20\n        /* \"#utility.yul\":10057:10066   */\n      dup6\n        /* \"#utility.yul\":10053:10071   */\n      add\n        /* \"#utility.yul\":10040:10071   */\n      swap5\n      pop\n        /* \"#utility.yul\":9914:9918   */\n      0x20\n        /* \"#utility.yul\":9911:9912   */\n      dup2\n        /* \"#utility.yul\":9907:9919   */\n      add\n        /* \"#utility.yul\":9902:9919   */\n      swap1\n      pop\n        /* \"#utility.yul\":9877:10085   */\n      jump(tag_189)\n    tag_191:\n        /* \"#utility.yul\":10113:10119   */\n      dup7\n        /* \"#utility.yul\":10104:10111   */\n      dup4\n        /* \"#utility.yul\":10101:10120   */\n      lt\n        /* \"#utility.yul\":10098:10277   */\n      iszero\n      tag_192\n      jumpi\n        /* \"#utility.yul\":10171:10180   */\n      dup5\n        /* \"#utility.yul\":10166:10169   */\n      dup10\n        /* \"#utility.yul\":10162:10181   */\n      add\n        /* \"#utility.yul\":10156:10182   */\n      mload\n        /* \"#utility.yul\":10214:10262   */\n      tag_193\n        /* \"#utility.yul\":10256:10260   */\n      0x1f\n        /* \"#utility.yul\":10248:10254   */\n      dup10\n        /* \"#utility.yul\":10244:10261   */\n      and\n        /* \"#utility.yul\":10233:10242   */\n      dup3\n        /* \"#utility.yul\":10214:10262   */\n      tag_68\n      jump\t// in\n    tag_193:\n        /* \"#utility.yul\":10206:10212   */\n      dup4\n        /* \"#utility.yul\":10199:10263   */\n      sstore\n        /* \"#utility.yul\":10121:10277   */\n      pop\n        /* \"#utility.yul\":10098:10277   */\n    tag_192:\n        /* \"#utility.yul\":10323:10324   */\n      0x01\n        /* \"#utility.yul\":10319:10320   */\n      0x02\n        /* \"#utility.yul\":10311:10317   */\n      dup9\n        /* \"#utility.yul\":10307:10321   */\n      mul\n        /* \"#utility.yul\":10303:10325   */\n      add\n        /* \"#utility.yul\":10297:10301   */\n      dup9\n        /* \"#utility.yul\":10290:10326   */\n      sstore\n        /* \"#utility.yul\":9725:10336   */\n      pop\n      pop\n      pop\n        /* \"#utility.yul\":9688:10575   */\n    tag_184:\n      pop\n        /* \"#utility.yul\":9278:10581   */\n      pop\n      pop\n      pop\n        /* \"#utility.yul\":9186:10581   */\n      pop\n      pop\n      jump\t// out\n\n    auxdata: 0xa264697066735822122017a4308f51579457b256910c34320b84f55dadf4053db0487cd6aaebc1370f9f64736f6c634300080f0033\n}\n",
				"bytecode": {
					"linkReferences": {},
					"object": "608060405234801561001057600080fd5b506107ee806100206000396000f3fe608060405234801561001057600080fd5b50600436106100415760003560e01c8063092a1820146100465780633bc5de3014610077578063af22068e14610095575b600080fd5b610060600480360381019061005b9190610222565b6100b1565b60405161006e9291906102f7565b60405180910390f35b61007f61016d565b60405161008c9190610327565b60405180910390f35b6100af60048036038101906100aa919061047e565b610172565b005b600081815481106100c157600080fd5b90600052602060002090600202016000915090508060000180546100e490610509565b80601f016020809104026020016040519081016040528092919081815260200182805461011090610509565b801561015d5780601f106101325761010080835404028352916020019161015d565b820191906000526020600020905b81548152906001019060200180831161014057829003601f168201915b5050505050908060010154905082565b606090565b6000604051806040016040528084815260200183815250908060018154018082558091505060019003906000526020600020906002020160009091909190915060008201518160000190816101c791906106e6565b506020820151816001015550505050565b6000604051905090565b600080fd5b600080fd5b6000819050919050565b6101ff816101ec565b811461020a57600080fd5b50565b60008135905061021c816101f6565b92915050565b600060208284031215610238576102376101e2565b5b60006102468482850161020d565b91505092915050565b600081519050919050565b600082825260208201905092915050565b60005b8381101561028957808201518184015260208101905061026e565b83811115610298576000848401525b50505050565b6000601f19601f8301169050919050565b60006102ba8261024f565b6102c4818561025a565b93506102d481856020860161026b565b6102dd8161029e565b840191505092915050565b6102f1816101ec565b82525050565b6000604082019050818103600083015261031181856102af565b905061032060208301846102e8565b9392505050565b6000602082019050818103600083015261034181846102af565b905092915050565b600080fd5b600080fd5b7f4e487b7100000000000000000000000000000000000000000000000000000000600052604160045260246000fd5b61038b8261029e565b810181811067ffffffffffffffff821117156103aa576103a9610353565b5b80604052505050565b60006103bd6101d8565b90506103c98282610382565b919050565b600067ffffffffffffffff8211156103e9576103e8610353565b5b6103f28261029e565b9050602081019050919050565b82818337600083830152505050565b600061042161041c846103ce565b6103b3565b90508281526020810184848401111561043d5761043c61034e565b5b6104488482856103ff565b509392505050565b600082601f83011261046557610464610349565b5b813561047584826020860161040e565b91505092915050565b60008060408385031215610495576104946101e2565b5b600083013567ffffffffffffffff8111156104b3576104b26101e7565b5b6104bf85828601610450565b92505060206104d08582860161020d565b9150509250929050565b7f4e487b7100000000000000000000000000000000000000000000000000000000600052602260045260246000fd5b6000600282049050600182168061052157607f821691505b602082108103610534576105336104da565b5b50919050565b60008190508160005260206000209050919050565b60006020601f8301049050919050565b600082821b905092915050565b60006008830261059c7fffffffffffffffffffffffffffffffffffffffffffffffffffffffffffffffff8261055f565b6105a6868361055f565b95508019841693508086168417925050509392505050565b6000819050919050565b60006105e36105de6105d9846101ec565b6105be565b6101ec565b9050919050565b6000819050919050565b6105fd836105c8565b610611610609826105ea565b84845461056c565b825550505050565b600090565b610626610619565b6106318184846105f4565b505050565b5b818110156106555761064a60008261061e565b600181019050610637565b5050565b601f82111561069a5761066b8161053a565b6106748461054f565b81016020851015610683578190505b61069761068f8561054f565b830182610636565b50505b505050565b600082821c905092915050565b60006106bd6000198460080261069f565b1980831691505092915050565b60006106d683836106ac565b9150826002028217905092915050565b6106ef8261024f565b67ffffffffffffffff81111561070857610707610353565b5b6107128254610509565b61071d828285610659565b600060209050601f831160018114610750576000841561073e578287015190505b61074885826106ca565b8655506107b0565b601f19841661075e8661053a565b60005b8281101561078657848901518255600182019150602085019450602081019050610761565b868310156107a3578489015161079f601f8916826106ac565b8355505b6001600288020188555050505b50505050505056fea264697066735822122017a4308f51579457b256910c34320b84f55dadf4053db0487cd6aaebc1370f9f64736f6c634300080f0033",
					"opcodes": "PUSH1 0x80 PUSH1 0x40 MSTORE CALLVALUE DUP1 ISZERO PUSH2 0x10 JUMPI PUSH1 0x0 DUP1 REVERT JUMPDEST POP PUSH2 0x7EE DUP1 PUSH2 0x20 PUSH1 0x0 CODECOPY PUSH1 0x0 RETURN INVALID PUSH1 0x80 PUSH1 0x40 MSTORE CALLVALUE DUP1 ISZERO PUSH2 0x10 JUMPI PUSH1 0x0 DUP1 REVERT JUMPDEST POP PUSH1 0x4 CALLDATASIZE LT PUSH2 0x41 JUMPI PUSH1 0x0 CALLDATALOAD PUSH1 0xE0 SHR DUP1 PUSH4 0x92A1820 EQ PUSH2 0x46 JUMPI DUP1 PUSH4 0x3BC5DE30 EQ PUSH2 0x77 JUMPI DUP1 PUSH4 0xAF22068E EQ PUSH2 0x95 JUMPI JUMPDEST PUSH1 0x0 DUP1 REVERT JUMPDEST PUSH2 0x60 PUSH1 0x4 DUP1 CALLDATASIZE SUB DUP2 ADD SWAP1 PUSH2 0x5B SWAP2 SWAP1 PUSH2 0x222 JUMP JUMPDEST PUSH2 0xB1 JUMP JUMPDEST PUSH1 0x40 MLOAD PUSH2 0x6E SWAP3 SWAP2 SWAP1 PUSH2 0x2F7 JUMP JUMPDEST PUSH1 0x40 MLOAD DUP1 SWAP2 SUB SWAP1 RETURN JUMPDEST PUSH2 0x7F PUSH2 0x16D JUMP JUMPDEST PUSH1 0x40 MLOAD PUSH2 0x8C SWAP2 SWAP1 PUSH2 0x327 JUMP JUMPDEST PUSH1 0x40 MLOAD DUP1 SWAP2 SUB SWAP1 RETURN JUMPDEST PUSH2 0xAF PUSH1 0x4 DUP1 CALLDATASIZE SUB DUP2 ADD SWAP1 PUSH2 0xAA SWAP2 SWAP1 PUSH2 0x47E JUMP JUMPDEST PUSH2 0x172 JUMP JUMPDEST STOP JUMPDEST PUSH1 0x0 DUP2 DUP2 SLOAD DUP2 LT PUSH2 0xC1 JUMPI PUSH1 0x0 DUP1 REVERT JUMPDEST SWAP1 PUSH1 0x0 MSTORE PUSH1 0x20 PUSH1 0x0 KECCAK256 SWAP1 PUSH1 0x2 MUL ADD PUSH1 0x0 SWAP2 POP SWAP1 POP DUP1 PUSH1 0x0 ADD DUP1 SLOAD PUSH2 0xE4 SWAP1 PUSH2 0x509 JUMP JUMPDEST DUP1 PUSH1 0x1F ADD PUSH1 0x20 DUP1 SWAP2 DIV MUL PUSH1 0x20 ADD PUSH1 0x40 MLOAD SWAP1 DUP2 ADD PUSH1 0x40 MSTORE DUP1 SWAP3 SWAP2 SWAP1 DUP2 DUP2 MSTORE PUSH1 0x20 ADD DUP3 DUP1 SLOAD PUSH2 0x110 SWAP1 PUSH2 0x509 JUMP JUMPDEST DUP1 ISZERO PUSH2 0x15D JUMPI DUP1 PUSH1 0x1F LT PUSH2 0x132 JUMPI PUSH2 0x100 DUP1 DUP4 SLOAD DIV MUL DUP4 MSTORE SWAP2 PUSH1 0x20 ADD SWAP2 PUSH2 0x15D JUMP JUMPDEST DUP3 ADD SWAP2 SWAP1 PUSH1 0x0 MSTORE PUSH1 0x20 PUSH1 0x0 KECCAK256 SWAP1 JUMPDEST DUP2 SLOAD DUP2 MSTORE SWAP1 PUSH1 0x1 ADD SWAP1 PUSH1 0x20 ADD DUP1 DUP4 GT PUSH2 0x140 JUMPI DUP3 SWAP1 SUB PUSH1 0x1F AND DUP3 ADD SWAP2 JUMPDEST POP POP POP POP POP SWAP1 DUP1 PUSH1 0x1 ADD SLOAD SWAP1 POP DUP3 JUMP JUMPDEST PUSH1 0x60 SWAP1 JUMP JUMPDEST PUSH1 0x0 PUSH1 0x40 MLOAD DUP1 PUSH1 0x40 ADD PUSH1 0x40 MSTORE DUP1 DUP5 DUP2 MSTORE PUSH1 0x20 ADD DUP4 DUP2 MSTORE POP SWAP1 DUP1 PUSH1 0x1 DUP2 SLOAD ADD DUP1 DUP3 SSTORE DUP1 SWAP2 POP POP PUSH1 0x1 SWAP1 SUB SWAP1 PUSH1 0x0 MSTORE PUSH1 0x20 PUSH1 0x0 KECCAK256 SWAP1 PUSH1 0x2 MUL ADD PUSH1 0x0 SWAP1 SWAP2 SWAP1 SWAP2 SWAP1 SWAP2 POP PUSH1 0x0 DUP3 ADD MLOAD DUP2 PUSH1 0x0 ADD SWAP1 DUP2 PUSH2 0x1C7 SWAP2 SWAP1 PUSH2 0x6E6 JUMP JUMPDEST POP PUSH1 0x20 DUP3 ADD MLOAD DUP2 PUSH1 0x1 ADD SSTORE POP POP POP POP JUMP JUMPDEST PUSH1 0x0 PUSH1 0x40 MLOAD SWAP1 POP SWAP1 JUMP JUMPDEST PUSH1 0x0 DUP1 REVERT JUMPDEST PUSH1 0x0 DUP1 REVERT JUMPDEST PUSH1 0x0 DUP2 SWAP1 POP SWAP2 SWAP1 POP JUMP JUMPDEST PUSH2 0x1FF DUP2 PUSH2 0x1EC JUMP JUMPDEST DUP2 EQ PUSH2 0x20A JUMPI PUSH1 0x0 DUP1 REVERT JUMPDEST POP JUMP JUMPDEST PUSH1 0x0 DUP2 CALLDATALOAD SWAP1 POP PUSH2 0x21C DUP2 PUSH2 0x1F6 JUMP JUMPDEST SWAP3 SWAP2 POP POP JUMP JUMPDEST PUSH1 0x0 PUSH1 0x20 DUP3 DUP5 SUB SLT ISZERO PUSH2 0x238 JUMPI PUSH2 0x237 PUSH2 0x1E2 JUMP JUMPDEST JUMPDEST PUSH1 0x0 PUSH2 0x246 DUP5 DUP3 DUP6 ADD PUSH2 0x20D JUMP JUMPDEST SWAP2 POP POP SWAP3 SWAP2 POP POP JUMP JUMPDEST PUSH1 0x0 DUP2 MLOAD SWAP1 POP SWAP2 SWAP1 POP JUMP JUMPDEST PUSH1 0x0 DUP3 DUP3 MSTORE PUSH1 0x20 DUP3 ADD SWAP1 POP SWAP3 SWAP2 POP POP JUMP JUMPDEST PUSH1 0x0 JUMPDEST DUP4 DUP2 LT ISZERO PUSH2 0x289 JUMPI DUP1 DUP3 ADD MLOAD DUP2 DUP5 ADD MSTORE PUSH1 0x20 DUP2 ADD SWAP1 POP PUSH2 0x26E JUMP JUMPDEST DUP4 DUP2 GT ISZERO PUSH2 0x298 JUMPI PUSH1 0x0 DUP5 DUP5 ADD MSTORE JUMPDEST POP POP POP POP JUMP JUMPDEST PUSH1 0x0 PUSH1 0x1F NOT PUSH1 0x1F DUP4 ADD AND SWAP1 POP SWAP2 SWAP1 POP JUMP JUMPDEST PUSH1 0x0 PUSH2 0x2BA DUP3 PUSH2 0x24F JUMP JUMPDEST PUSH2 0x2C4 DUP2 DUP6 PUSH2 0x25A JUMP JUMPDEST SWAP4 POP PUSH2 0x2D4 DUP2 DUP6 PUSH1 0x20 DUP7 ADD PUSH2 0x26B JUMP JUMPDEST PUSH2 0x2DD DUP2 PUSH2 0x29E JUMP JUMPDEST DUP5 ADD SWAP2 POP POP SWAP3 SWAP2 POP POP JUMP JUMPDEST PUSH2 0x2F1 DUP2 PUSH2 0x1EC JUMP JUMPDEST DUP3 MSTORE POP POP JUMP JUMPDEST PUSH1 0x0 PUSH1 0x40 DUP3 ADD SWAP1 POP DUP2 DUP2 SUB PUSH1 0x0 DUP4 ADD MSTORE PUSH2 0x311 DUP2 DUP6 PUSH2 0x2AF JUMP JUMPDEST SWAP1 POP PUSH2 0x320 PUSH1 0x20 DUP4 ADD DUP5 PUSH2 0x2E8 JUMP JUMPDEST SWAP4 SWAP3 POP POP POP JUMP JUMPDEST PUSH1 0x0 PUSH1 0x20 DUP3 ADD SWAP1 POP DUP2 DUP2 SUB PUSH1 0x0 DUP4 ADD MSTORE PUSH2 0x341 DUP2 DUP5 PUSH2 0x2AF JUMP JUMPDEST SWAP1 POP SWAP3 SWAP2 POP POP JUMP JUMPDEST PUSH1 0x0 DUP1 REVERT JUMPDEST PUSH1 0x0 DUP1 REVERT JUMPDEST PUSH32 0x4E487B7100000000000000000000000000000000000000000000000000000000 PUSH1 0x0 MSTORE PUSH1 0x41 PUSH1 0x4 MSTORE PUSH1 0x24 PUSH1 0x0 REVERT JUMPDEST PUSH2 0x38B DUP3 PUSH2 0x29E JUMP JUMPDEST DUP2 ADD DUP2 DUP2 LT PUSH8 0xFFFFFFFFFFFFFFFF DUP3 GT OR ISZERO PUSH2 0x3AA JUMPI PUSH2 0x3A9 PUSH2 0x353 JUMP JUMPDEST JUMPDEST DUP1 PUSH1 0x40 MSTORE POP POP POP JUMP JUMPDEST PUSH1 0x0 PUSH2 0x3BD PUSH2 0x1D8 JUMP JUMPDEST SWAP1 POP PUSH2 0x3C9 DUP3 DUP3 PUSH2 0x382 JUMP JUMPDEST SWAP2 SWAP1 POP JUMP JUMPDEST PUSH1 0x0 PUSH8 0xFFFFFFFFFFFFFFFF DUP3 GT ISZERO PUSH2 0x3E9 JUMPI PUSH2 0x3E8 PUSH2 0x353 JUMP JUMPDEST JUMPDEST PUSH2 0x3F2 DUP3 PUSH2 0x29E JUMP JUMPDEST SWAP1 POP PUSH1 0x20 DUP2 ADD SWAP1 POP SWAP2 SWAP1 POP JUMP JUMPDEST DUP3 DUP2 DUP4 CALLDATACOPY PUSH1 0x0 DUP4 DUP4 ADD MSTORE POP POP POP JUMP JUMPDEST PUSH1 0x0 PUSH2 0x421 PUSH2 0x41C DUP5 PUSH2 0x3CE JUMP JUMPDEST PUSH2 0x3B3 JUMP JUMPDEST SWAP1 POP DUP3 DUP2 MSTORE PUSH1 0x20 DUP2 ADD DUP5 DUP5 DUP5 ADD GT ISZERO PUSH2 0x43D JUMPI PUSH2 0x43C PUSH2 0x34E JUMP JUMPDEST JUMPDEST PUSH2 0x448 DUP5 DUP3 DUP6 PUSH2 0x3FF JUMP JUMPDEST POP SWAP4 SWAP3 POP POP POP JUMP JUMPDEST PUSH1 0x0 DUP3 PUSH1 0x1F DUP4 ADD SLT PUSH2 0x465 JUMPI PUSH2 0x464 PUSH2 0x349 JUMP JUMPDEST JUMPDEST DUP2 CALLDATALOAD PUSH2 0x475 DUP5 DUP3 PUSH1 0x20 DUP7 ADD PUSH2 0x40E JUMP JUMPDEST SWAP2 POP POP SWAP3 SWAP2 POP POP JUMP JUMPDEST PUSH1 0x0 DUP1 PUSH1 0x40 DUP4 DUP6 SUB SLT ISZERO PUSH2 0x495 JUMPI PUSH2 0x494 PUSH2 0x1E2 JUMP JUMPDEST JUMPDEST PUSH1 0x0 DUP4 ADD CALLDATALOAD PUSH8 0xFFFFFFFFFFFFFFFF DUP2 GT ISZERO PUSH2 0x4B3 JUMPI PUSH2 0x4B2 PUSH2 0x1E7 JUMP JUMPDEST JUMPDEST PUSH2 0x4BF DUP6 DUP3 DUP7 ADD PUSH2 0x450 JUMP JUMPDEST SWAP3 POP POP PUSH1 0x20 PUSH2 0x4D0 DUP6 DUP3 DUP7 ADD PUSH2 0x20D JUMP JUMPDEST SWAP2 POP POP SWAP3 POP SWAP3 SWAP1 POP JUMP JUMPDEST PUSH32 0x4E487B7100000000000000000000000000000000000000000000000000000000 PUSH1 0x0 MSTORE PUSH1 0x22 PUSH1 0x4 MSTORE PUSH1 0x24 PUSH1 0x0 REVERT JUMPDEST PUSH1 0x0 PUSH1 0x2 DUP3 DIV SWAP1 POP PUSH1 0x1 DUP3 AND DUP1 PUSH2 0x521 JUMPI PUSH1 0x7F DUP3 AND SWAP2 POP JUMPDEST PUSH1 0x20 DUP3 LT DUP2 SUB PUSH2 0x534 JUMPI PUSH2 0x533 PUSH2 0x4DA JUMP JUMPDEST JUMPDEST POP SWAP2 SWAP1 POP JUMP JUMPDEST PUSH1 0x0 DUP2 SWAP1 POP DUP2 PUSH1 0x0 MSTORE PUSH1 0x20 PUSH1 0x0 KECCAK256 SWAP1 POP SWAP2 SWAP1 POP JUMP JUMPDEST PUSH1 0x0 PUSH1 0x20 PUSH1 0x1F DUP4 ADD DIV SWAP1 POP SWAP2 SWAP1 POP JUMP JUMPDEST PUSH1 0x0 DUP3 DUP3 SHL SWAP1 POP SWAP3 SWAP2 POP POP JUMP JUMPDEST PUSH1 0x0 PUSH1 0x8 DUP4 MUL PUSH2 0x59C PUSH32 0xFFFFFFFFFFFFFFFFFFFFFFFFFFFFFFFFFFFFFFFFFFFFFFFFFFFFFFFFFFFFFFFF DUP3 PUSH2 0x55F JUMP JUMPDEST PUSH2 0x5A6 DUP7 DUP4 PUSH2 0x55F JUMP JUMPDEST SWAP6 POP DUP1 NOT DUP5 AND SWAP4 POP DUP1 DUP7 AND DUP5 OR SWAP3 POP POP POP SWAP4 SWAP3 POP POP POP JUMP JUMPDEST PUSH1 0x0 DUP2 SWAP1 POP SWAP2 SWAP1 POP JUMP JUMPDEST PUSH1 0x0 PUSH2 0x5E3 PUSH2 0x5DE PUSH2 0x5D9 DUP5 PUSH2 0x1EC JUMP JUMPDEST PUSH2 0x5BE JUMP JUMPDEST PUSH2 0x1EC JUMP JUMPDEST SWAP1 POP SWAP2 SWAP1 POP JUMP JUMPDEST PUSH1 0x0 DUP2 SWAP1 POP SWAP2 SWAP1 POP JUMP JUMPDEST PUSH2 0x5FD DUP4 PUSH2 0x5C8 JUMP JUMPDEST PUSH2 0x611 PUSH2 0x609 DUP3 PUSH2 0x5EA JUMP JUMPDEST DUP5 DUP5 SLOAD PUSH2 0x56C JUMP JUMPDEST DUP3 SSTORE POP POP POP POP JUMP JUMPDEST PUSH1 0x0 SWAP1 JUMP JUMPDEST PUSH2 0x626 PUSH2 0x619 JUMP JUMPDEST PUSH2 0x631 DUP2 DUP5 DUP5 PUSH2 0x5F4 JUMP JUMPDEST POP POP POP JUMP JUMPDEST JUMPDEST DUP2 DUP2 LT ISZERO PUSH2 0x655 JUMPI PUSH2 0x64A PUSH1 0x0 DUP3 PUSH2 0x61E JUMP JUMPDEST PUSH1 0x1 DUP2 ADD SWAP1 POP PUSH2 0x637 JUMP JUMPDEST POP POP JUMP JUMPDEST PUSH1 0x1F DUP3 GT ISZERO PUSH2 0x69A JUMPI PUSH2 0x66B DUP2 PUSH2 0x53A JUMP JUMPDEST PUSH2 0x674 DUP5 PUSH2 0x54F JUMP JUMPDEST DUP2 ADD PUSH1 0x20 DUP6 LT ISZERO PUSH2 0x683 JUMPI DUP2 SWAP1 POP JUMPDEST PUSH2 0x697 PUSH2 0x68F DUP6 PUSH2 0x54F JUMP JUMPDEST DUP4 ADD DUP3 PUSH2 0x636 JUMP JUMPDEST POP POP JUMPDEST POP POP POP JUMP JUMPDEST PUSH1 0x0 DUP3 DUP3 SHR SWAP1 POP SWAP3 SWAP2 POP POP JUMP JUMPDEST PUSH1 0x0 PUSH2 0x6BD PUSH1 0x0 NOT DUP5 PUSH1 0x8 MUL PUSH2 0x69F JUMP JUMPDEST NOT DUP1 DUP4 AND SWAP2 POP POP SWAP3 SWAP2 POP POP JUMP JUMPDEST PUSH1 0x0 PUSH2 0x6D6 DUP4 DUP4 PUSH2 0x6AC JUMP JUMPDEST SWAP2 POP DUP3 PUSH1 0x2 MUL DUP3 OR SWAP1 POP SWAP3 SWAP2 POP POP JUMP JUMPDEST PUSH2 0x6EF DUP3 PUSH2 0x24F JUMP JUMPDEST PUSH8 0xFFFFFFFFFFFFFFFF DUP2 GT ISZERO PUSH2 0x708 JUMPI PUSH2 0x707 PUSH2 0x353 JUMP JUMPDEST JUMPDEST PUSH2 0x712 DUP3 SLOAD PUSH2 0x509 JUMP JUMPDEST PUSH2 0x71D DUP3 DUP3 DUP6 PUSH2 0x659 JUMP JUMPDEST PUSH1 0x0 PUSH1 0x20 SWAP1 POP PUSH1 0x1F DUP4 GT PUSH1 0x1 DUP2 EQ PUSH2 0x750 JUMPI PUSH1 0x0 DUP5 ISZERO PUSH2 0x73E JUMPI DUP3 DUP8 ADD MLOAD SWAP1 POP JUMPDEST PUSH2 0x748 DUP6 DUP3 PUSH2 0x6CA JUMP JUMPDEST DUP7 SSTORE POP PUSH2 0x7B0 JUMP JUMPDEST PUSH1 0x1F NOT DUP5 AND PUSH2 0x75E DUP7 PUSH2 0x53A JUMP JUMPDEST PUSH1 0x0 JUMPDEST DUP3 DUP2 LT ISZERO PUSH2 0x786 JUMPI DUP5 DUP10 ADD MLOAD DUP3 SSTORE PUSH1 0x1 DUP3 ADD SWAP2 POP PUSH1 0x20 DUP6 ADD SWAP5 POP PUSH1 0x20 DUP2 ADD SWAP1 POP PUSH2 0x761 JUMP JUMPDEST DUP7 DUP4 LT ISZERO PUSH2 0x7A3 JUMPI DUP5 DUP10 ADD MLOAD PUSH2 0x79F PUSH1 0x1F DUP10 AND DUP3 PUSH2 0x6AC JUMP JUMPDEST DUP4 SSTORE POP JUMPDEST PUSH1 0x1 PUSH1 0x2 DUP9 MUL ADD DUP9 SSTORE POP POP POP JUMPDEST POP POP POP POP POP POP JUMP INVALID LOG2 PUSH5 0x6970667358 0x22 SLT KECCAK256 OR LOG4 ADDRESS DUP16 MLOAD JUMPI SWAP5 JUMPI 0xB2 JUMP SWAP2 0xC CALLVALUE ORIGIN SIGNEXTEND DUP5 CREATE2 0x5D 0xAD DELEGATECALL SDIV RETURNDATASIZE 0xB0 BASEFEE PUSH29 0xD6AAEBC1370F9F64736F6C634300080F00330000000000000000000000 "
				},
				"gasEstimates": {
					"creation": {
						"codeDepositCost": "406000",
						"executionCost": "443",
						"totalCost": "406443"
					},
					"external": {
						"getData()": "infinite",
						"person(uint256)": "infinite",
						"setData(string,uint256)": "infinite"
					}
				},
				"methodIdentifiers": {
					"getData()": "3bc5de30",
					"person(uint256)": "092a1820",
					"setData(string,uint256)": "af22068e"
				}
			},
			"storageLayout": {
				"storage": [
					{
						"astId": 10,
						"contract": "SolidityCodes/Struct.sol:Struct",
						"label": "person",
						"offset": 0,
						"slot": "0",
						"type": "t_array(t_struct(Person)6_storage)dyn_storage"
					}
				],
				"types": {
					"t_array(t_struct(Person)6_storage)dyn_storage": {
						"base": "t_struct(Person)6_storage",
						"encoding": "dynamic_array",
						"label": "struct Struct.Person[]",
						"numberOfBytes": "32"
					},
					"t_string_storage": {
						"encoding": "bytes",
						"label": "string",
						"numberOfBytes": "32"
					},
					"t_struct(Person)6_storage": {
						"encoding": "inplace",
						"label": "struct Struct.Person",
						"members": [
							{
								"astId": 3,
								"contract": "SolidityCodes/Struct.sol:Struct",
								"label": "name",
								"offset": 0,
								"slot": "0",
								"type": "t_string_storage"
							},
							{
								"astId": 5,
								"contract": "SolidityCodes/Struct.sol:Struct",
								"label": "age",
								"offset": 0,
								"slot": "1",
								"type": "t_uint256"
							}
						],
						"numberOfBytes": "64"
					},
					"t_uint256": {
						"encoding": "inplace",
						"label": "uint256",
						"numberOfBytes": "32"
					}
				}
			},
			"userdoc": {
				"kind": "user",
				"methods": {},
				"version": 1
			}
		}
	}
}