{
	"SolidityCodes/Struct.sol": {
		"Struct": {
			"abi": [
				{
					"inputs": [],
					"name": "getData",
					"outputs": [
						{
							"internalType": "string",
							"name": "_name",
							"type": "string"
						},
						{
							"internalType": "uint256",
							"name": "age",
							"type": "uint256"
						}
					],
					"stateMutability": "view",
					"type": "function"
				},
				{
					"inputs": [
						{
							"internalType": "uint256",
							"name": "",
							"type": "uint256"
						}
					],
					"name": "person",
					"outputs": [
						{
							"internalType": "string",
							"name": "name",
							"type": "string"
						},
						{
							"internalType": "uint256",
							"name": "age",
							"type": "uint256"
						}
					],
					"stateMutability": "view",
					"type": "function"
				},
				{
					"inputs": [
						{
							"internalType": "string",
							"name": "_name",
							"type": "string"
						},
						{
							"internalType": "uint256",
							"name": "_age",
							"type": "uint256"
						}
					],
					"name": "setData",
					"outputs": [],
					"stateMutability": "nonpayable",
					"type": "function"
				}
			],
			"devdoc": {
				"kind": "dev",
				"methods": {},
				"version": 1
			},
			"evm": {
				"assembly": "    /* \"SolidityCodes/Struct.sol\":61:399  contract Struct{... */\n  mstore(0x40, 0x80)\n  callvalue\n  dup1\n  iszero\n  tag_1\n  jumpi\n  0x00\n  dup1\n  revert\ntag_1:\n  pop\n  dataSize(sub_0)\n  dup1\n  dataOffset(sub_0)\n  0x00\n  codecopy\n  0x00\n  return\nstop\n\nsub_0: assembly {\n        /* \"SolidityCodes/Struct.sol\":61:399  contract Struct{... */\n      mstore(0x40, 0x80)\n      callvalue\n      dup1\n      iszero\n      tag_1\n      jumpi\n      0x00\n      dup1\n      revert\n    tag_1:\n      pop\n      jumpi(tag_2, lt(calldatasize, 0x04))\n      shr(0xe0, calldataload(0x00))\n      dup1\n      0x092a1820\n      eq\n      tag_3\n      jumpi\n      dup1\n      0x3bc5de30\n      eq\n      tag_4\n      jumpi\n      dup1\n      0xaf22068e\n      eq\n      tag_5\n      jumpi\n    tag_2:\n      0x00\n      dup1\n      revert\n        /* \"SolidityCodes/Struct.sol\":153:175  Person[] public person */\n    tag_3:\n      tag_6\n      0x04\n      dup1\n      calldatasize\n      sub\n      dup2\n      add\n      swap1\n      tag_7\n      swap2\n      swap1\n      tag_8\n      jump\t// in\n    tag_7:\n      tag_9\n      jump\t// in\n    tag_6:\n      mload(0x40)\n      tag_10\n      swap3\n      swap2\n      swap1\n      tag_11\n      jump\t// in\n    tag_10:\n      mload(0x40)\n      dup1\n      swap2\n      sub\n      swap1\n      return\n        /* \"SolidityCodes/Struct.sol\":296:384  function getData() public view returns(string memory _name,uint age){... */\n    tag_4:\n      tag_12\n      tag_13\n      jump\t// in\n    tag_12:\n      mload(0x40)\n      tag_14\n      swap3\n      swap2\n      swap1\n      tag_11\n      jump\t// in\n    tag_14:\n      mload(0x40)\n      dup1\n      swap2\n      sub\n      swap1\n      return\n        /* \"SolidityCodes/Struct.sol\":184:288  function setData(string memory _name,uint _age) public{... */\n    tag_5:\n      tag_15\n      0x04\n      dup1\n      calldatasize\n      sub\n      dup2\n      add\n      swap1\n      tag_16\n      swap2\n      swap1\n      tag_17\n      jump\t// in\n    tag_16:\n      tag_18\n      jump\t// in\n    tag_15:\n      stop\n        /* \"SolidityCodes/Struct.sol\":153:175  Person[] public person */\n    tag_9:\n      0x00\n      dup2\n      dup2\n      sload\n      dup2\n      lt\n      tag_19\n      jumpi\n      0x00\n      dup1\n      revert\n    tag_19:\n      swap1\n      0x00\n      mstore\n      keccak256(0x00, 0x20)\n      swap1\n      0x02\n      mul\n      add\n      0x00\n      swap2\n      pop\n      swap1\n      pop\n      dup1\n      0x00\n      add\n      dup1\n      sload\n      tag_21\n      swap1\n      tag_22\n      jump\t// in\n    tag_21:\n      dup1\n      0x1f\n      add\n      0x20\n      dup1\n      swap2\n      div\n      mul\n      0x20\n      add\n      mload(0x40)\n      swap1\n      dup2\n      add\n      0x40\n      mstore\n      dup1\n      swap3\n      swap2\n      swap1\n      dup2\n      dup2\n      mstore\n      0x20\n      add\n      dup3\n      dup1\n      sload\n      tag_23\n      swap1\n      tag_22\n      jump\t// in\n    tag_23:\n      dup1\n      iszero\n      tag_24\n      jumpi\n      dup1\n      0x1f\n      lt\n      tag_25\n      jumpi\n      0x0100\n      dup1\n      dup4\n      sload\n      div\n      mul\n      dup4\n      mstore\n      swap2\n      0x20\n      add\n      swap2\n      jump(tag_24)\n    tag_25:\n      dup3\n      add\n      swap2\n      swap1\n      0x00\n      mstore\n      keccak256(0x00, 0x20)\n      swap1\n    tag_26:\n      dup2\n      sload\n      dup2\n      mstore\n      swap1\n      0x01\n      add\n      swap1\n      0x20\n      add\n      dup1\n      dup4\n      gt\n      tag_26\n      jumpi\n      dup3\n      swap1\n      sub\n      0x1f\n      and\n      dup3\n      add\n      swap2\n    tag_24:\n      pop\n      pop\n      pop\n      pop\n      pop\n      swap1\n      dup1\n      0x01\n      add\n      sload\n      swap1\n      pop\n      dup3\n      jump\t// out\n        /* \"SolidityCodes/Struct.sol\":296:384  function getData() public view returns(string memory _name,uint age){... */\n    tag_13:\n        /* \"SolidityCodes/Struct.sol\":335:354  string memory _name */\n      0x60\n        /* \"SolidityCodes/Struct.sol\":355:363  uint age */\n      0x00\n        /* \"SolidityCodes/Struct.sol\":296:384  function getData() public view returns(string memory _name,uint age){... */\n      swap1\n      swap2\n      jump\t// out\n        /* \"SolidityCodes/Struct.sol\":184:288  function setData(string memory _name,uint _age) public{... */\n    tag_18:\n        /* \"SolidityCodes/Struct.sol\":249:255  person */\n      0x00\n        /* \"SolidityCodes/Struct.sol\":261:279  Person(_name,_age) */\n      mload(0x40)\n      dup1\n      0x40\n      add\n      0x40\n      mstore\n      dup1\n        /* \"SolidityCodes/Struct.sol\":268:273  _name */\n      dup5\n        /* \"SolidityCodes/Struct.sol\":261:279  Person(_name,_age) */\n      dup2\n      mstore\n      0x20\n      add\n        /* \"SolidityCodes/Struct.sol\":274:278  _age */\n      dup4\n        /* \"SolidityCodes/Struct.sol\":261:279  Person(_name,_age) */\n      dup2\n      mstore\n      pop\n        /* \"SolidityCodes/Struct.sol\":249:280  person.push(Person(_name,_age)) */\n      swap1\n      dup1\n      0x01\n      dup2\n      sload\n      add\n      dup1\n      dup3\n      sstore\n      dup1\n      swap2\n      pop\n      pop\n      0x01\n      swap1\n      sub\n      swap1\n      0x00\n      mstore\n      keccak256(0x00, 0x20)\n      swap1\n      0x02\n      mul\n      add\n      0x00\n      swap1\n      swap2\n      swap1\n      swap2\n      swap1\n      swap2\n      pop\n      0x00\n      dup3\n      add\n      mload\n      dup2\n      0x00\n      add\n      swap1\n      dup2\n      tag_30\n      swap2\n      swap1\n      tag_31\n      jump\t// in\n    tag_30:\n      pop\n      0x20\n      dup3\n      add\n      mload\n      dup2\n      0x01\n      add\n      sstore\n      pop\n      pop\n        /* \"SolidityCodes/Struct.sol\":184:288  function setData(string memory _name,uint _age) public{... */\n      pop\n      pop\n      jump\t// out\n        /* \"#utility.yul\":7:82   */\n    tag_32:\n        /* \"#utility.yul\":40:46   */\n      0x00\n        /* \"#utility.yul\":73:75   */\n      0x40\n        /* \"#utility.yul\":67:76   */\n      mload\n        /* \"#utility.yul\":57:76   */\n      swap1\n      pop\n        /* \"#utility.yul\":7:82   */\n      swap1\n      jump\t// out\n        /* \"#utility.yul\":88:205   */\n    tag_33:\n        /* \"#utility.yul\":197:198   */\n      0x00\n        /* \"#utility.yul\":194:195   */\n      dup1\n        /* \"#utility.yul\":187:199   */\n      revert\n        /* \"#utility.yul\":211:328   */\n    tag_34:\n        /* \"#utility.yul\":320:321   */\n      0x00\n        /* \"#utility.yul\":317:318   */\n      dup1\n        /* \"#utility.yul\":310:322   */\n      revert\n        /* \"#utility.yul\":334:411   */\n    tag_35:\n        /* \"#utility.yul\":371:378   */\n      0x00\n        /* \"#utility.yul\":400:405   */\n      dup2\n        /* \"#utility.yul\":389:405   */\n      swap1\n      pop\n        /* \"#utility.yul\":334:411   */\n      swap2\n      swap1\n      pop\n      jump\t// out\n        /* \"#utility.yul\":417:539   */\n    tag_36:\n        /* \"#utility.yul\":490:514   */\n      tag_75\n        /* \"#utility.yul\":508:513   */\n      dup2\n        /* \"#utility.yul\":490:514   */\n      tag_35\n      jump\t// in\n    tag_75:\n        /* \"#utility.yul\":483:488   */\n      dup2\n        /* \"#utility.yul\":480:515   */\n      eq\n        /* \"#utility.yul\":470:533   */\n      tag_76\n      jumpi\n        /* \"#utility.yul\":529:530   */\n      0x00\n        /* \"#utility.yul\":526:527   */\n      dup1\n        /* \"#utility.yul\":519:531   */\n      revert\n        /* \"#utility.yul\":470:533   */\n    tag_76:\n        /* \"#utility.yul\":417:539   */\n      pop\n      jump\t// out\n        /* \"#utility.yul\":545:684   */\n    tag_37:\n        /* \"#utility.yul\":591:596   */\n      0x00\n        /* \"#utility.yul\":629:635   */\n      dup2\n        /* \"#utility.yul\":616:636   */\n      calldataload\n        /* \"#utility.yul\":607:636   */\n      swap1\n      pop\n        /* \"#utility.yul\":645:678   */\n      tag_78\n        /* \"#utility.yul\":672:677   */\n      dup2\n        /* \"#utility.yul\":645:678   */\n      tag_36\n      jump\t// in\n    tag_78:\n        /* \"#utility.yul\":545:684   */\n      swap3\n      swap2\n      pop\n      pop\n      jump\t// out\n        /* \"#utility.yul\":690:1019   */\n    tag_8:\n        /* \"#utility.yul\":749:755   */\n      0x00\n        /* \"#utility.yul\":798:800   */\n      0x20\n        /* \"#utility.yul\":786:795   */\n      dup3\n        /* \"#utility.yul\":777:784   */\n      dup5\n        /* \"#utility.yul\":773:796   */\n      sub\n        /* \"#utility.yul\":769:801   */\n      slt\n        /* \"#utility.yul\":766:885   */\n      iszero\n      tag_80\n      jumpi\n        /* \"#utility.yul\":804:883   */\n      tag_81\n      tag_33\n      jump\t// in\n    tag_81:\n        /* \"#utility.yul\":766:885   */\n    tag_80:\n        /* \"#utility.yul\":924:925   */\n      0x00\n        /* \"#utility.yul\":949:1002   */\n      tag_82\n        /* \"#utility.yul\":994:1001   */\n      dup5\n        /* \"#utility.yul\":985:991   */\n      dup3\n        /* \"#utility.yul\":974:983   */\n      dup6\n        /* \"#utility.yul\":970:992   */\n      add\n        /* \"#utility.yul\":949:1002   */\n      tag_37\n      jump\t// in\n    tag_82:\n        /* \"#utility.yul\":939:1002   */\n      swap2\n      pop\n        /* \"#utility.yul\":895:1012   */\n      pop\n        /* \"#utility.yul\":690:1019   */\n      swap3\n      swap2\n      pop\n      pop\n      jump\t// out\n        /* \"#utility.yul\":1025:1124   */\n    tag_38:\n        /* \"#utility.yul\":1077:1083   */\n      0x00\n        /* \"#utility.yul\":1111:1116   */\n      dup2\n        /* \"#utility.yul\":1105:1117   */\n      mload\n        /* \"#utility.yul\":1095:1117   */\n      swap1\n      pop\n        /* \"#utility.yul\":1025:1124   */\n      swap2\n      swap1\n      pop\n      jump\t// out\n        /* \"#utility.yul\":1130:1299   */\n    tag_39:\n        /* \"#utility.yul\":1214:1225   */\n      0x00\n        /* \"#utility.yul\":1248:1254   */\n      dup3\n        /* \"#utility.yul\":1243:1246   */\n      dup3\n        /* \"#utility.yul\":1236:1255   */\n      mstore\n        /* \"#utility.yul\":1288:1292   */\n      0x20\n        /* \"#utility.yul\":1283:1286   */\n      dup3\n        /* \"#utility.yul\":1279:1293   */\n      add\n        /* \"#utility.yul\":1264:1293   */\n      swap1\n      pop\n        /* \"#utility.yul\":1130:1299   */\n      swap3\n      swap2\n      pop\n      pop\n      jump\t// out\n        /* \"#utility.yul\":1305:1612   */\n    tag_40:\n        /* \"#utility.yul\":1373:1374   */\n      0x00\n        /* \"#utility.yul\":1383:1496   */\n    tag_86:\n        /* \"#utility.yul\":1397:1403   */\n      dup4\n        /* \"#utility.yul\":1394:1395   */\n      dup2\n        /* \"#utility.yul\":1391:1404   */\n      lt\n        /* \"#utility.yul\":1383:1496   */\n      iszero\n      tag_88\n      jumpi\n        /* \"#utility.yul\":1482:1483   */\n      dup1\n        /* \"#utility.yul\":1477:1480   */\n      dup3\n        /* \"#utility.yul\":1473:1484   */\n      add\n        /* \"#utility.yul\":1467:1485   */\n      mload\n        /* \"#utility.yul\":1463:1464   */\n      dup2\n        /* \"#utility.yul\":1458:1461   */\n      dup5\n        /* \"#utility.yul\":1454:1465   */\n      add\n        /* \"#utility.yul\":1447:1486   */\n      mstore\n        /* \"#utility.yul\":1419:1421   */\n      0x20\n        /* \"#utility.yul\":1416:1417   */\n      dup2\n        /* \"#utility.yul\":1412:1422   */\n      add\n        /* \"#utility.yul\":1407:1422   */\n      swap1\n      pop\n        /* \"#utility.yul\":1383:1496   */\n      jump(tag_86)\n    tag_88:\n        /* \"#utility.yul\":1514:1520   */\n      dup4\n        /* \"#utility.yul\":1511:1512   */\n      dup2\n        /* \"#utility.yul\":1508:1521   */\n      gt\n        /* \"#utility.yul\":1505:1606   */\n      iszero\n      tag_89\n      jumpi\n        /* \"#utility.yul\":1594:1595   */\n      0x00\n        /* \"#utility.yul\":1585:1591   */\n      dup5\n        /* \"#utility.yul\":1580:1583   */\n      dup5\n        /* \"#utility.yul\":1576:1592   */\n      add\n        /* \"#utility.yul\":1569:1596   */\n      mstore\n        /* \"#utility.yul\":1505:1606   */\n    tag_89:\n        /* \"#utility.yul\":1354:1612   */\n      pop\n        /* \"#utility.yul\":1305:1612   */\n      pop\n      pop\n      pop\n      jump\t// out\n        /* \"#utility.yul\":1618:1720   */\n    tag_41:\n        /* \"#utility.yul\":1659:1665   */\n      0x00\n        /* \"#utility.yul\":1710:1712   */\n      0x1f\n        /* \"#utility.yul\":1706:1713   */\n      not\n        /* \"#utility.yul\":1701:1703   */\n      0x1f\n        /* \"#utility.yul\":1694:1699   */\n      dup4\n        /* \"#utility.yul\":1690:1704   */\n      add\n        /* \"#utility.yul\":1686:1714   */\n      and\n        /* \"#utility.yul\":1676:1714   */\n      swap1\n      pop\n        /* \"#utility.yul\":1618:1720   */\n      swap2\n      swap1\n      pop\n      jump\t// out\n        /* \"#utility.yul\":1726:2090   */\n    tag_42:\n        /* \"#utility.yul\":1814:1817   */\n      0x00\n        /* \"#utility.yul\":1842:1881   */\n      tag_92\n        /* \"#utility.yul\":1875:1880   */\n      dup3\n        /* \"#utility.yul\":1842:1881   */\n      tag_38\n      jump\t// in\n    tag_92:\n        /* \"#utility.yul\":1897:1968   */\n      tag_93\n        /* \"#utility.yul\":1961:1967   */\n      dup2\n        /* \"#utility.yul\":1956:1959   */\n      dup6\n        /* \"#utility.yul\":1897:1968   */\n      tag_39\n      jump\t// in\n    tag_93:\n        /* \"#utility.yul\":1890:1968   */\n      swap4\n      pop\n        /* \"#utility.yul\":1977:2029   */\n      tag_94\n        /* \"#utility.yul\":2022:2028   */\n      dup2\n        /* \"#utility.yul\":2017:2020   */\n      dup6\n        /* \"#utility.yul\":2010:2014   */\n      0x20\n        /* \"#utility.yul\":2003:2008   */\n      dup7\n        /* \"#utility.yul\":1999:2015   */\n      add\n        /* \"#utility.yul\":1977:2029   */\n      tag_40\n      jump\t// in\n    tag_94:\n        /* \"#utility.yul\":2054:2083   */\n      tag_95\n        /* \"#utility.yul\":2076:2082   */\n      dup2\n        /* \"#utility.yul\":2054:2083   */\n      tag_41\n      jump\t// in\n    tag_95:\n        /* \"#utility.yul\":2049:2052   */\n      dup5\n        /* \"#utility.yul\":2045:2084   */\n      add\n        /* \"#utility.yul\":2038:2084   */\n      swap2\n      pop\n        /* \"#utility.yul\":1818:2090   */\n      pop\n        /* \"#utility.yul\":1726:2090   */\n      swap3\n      swap2\n      pop\n      pop\n      jump\t// out\n        /* \"#utility.yul\":2096:2214   */\n    tag_43:\n        /* \"#utility.yul\":2183:2207   */\n      tag_97\n        /* \"#utility.yul\":2201:2206   */\n      dup2\n        /* \"#utility.yul\":2183:2207   */\n      tag_35\n      jump\t// in\n    tag_97:\n        /* \"#utility.yul\":2178:2181   */\n      dup3\n        /* \"#utility.yul\":2171:2208   */\n      mstore\n        /* \"#utility.yul\":2096:2214   */\n      pop\n      pop\n      jump\t// out\n        /* \"#utility.yul\":2220:2643   */\n    tag_11:\n        /* \"#utility.yul\":2361:2365   */\n      0x00\n        /* \"#utility.yul\":2399:2401   */\n      0x40\n        /* \"#utility.yul\":2388:2397   */\n      dup3\n        /* \"#utility.yul\":2384:2402   */\n      add\n        /* \"#utility.yul\":2376:2402   */\n      swap1\n      pop\n        /* \"#utility.yul\":2448:2457   */\n      dup2\n        /* \"#utility.yul\":2442:2446   */\n      dup2\n        /* \"#utility.yul\":2438:2458   */\n      sub\n        /* \"#utility.yul\":2434:2435   */\n      0x00\n        /* \"#utility.yul\":2423:2432   */\n      dup4\n        /* \"#utility.yul\":2419:2436   */\n      add\n        /* \"#utility.yul\":2412:2459   */\n      mstore\n        /* \"#utility.yul\":2476:2554   */\n      tag_99\n        /* \"#utility.yul\":2549:2553   */\n      dup2\n        /* \"#utility.yul\":2540:2546   */\n      dup6\n        /* \"#utility.yul\":2476:2554   */\n      tag_42\n      jump\t// in\n    tag_99:\n        /* \"#utility.yul\":2468:2554   */\n      swap1\n      pop\n        /* \"#utility.yul\":2564:2636   */\n      tag_100\n        /* \"#utility.yul\":2632:2634   */\n      0x20\n        /* \"#utility.yul\":2621:2630   */\n      dup4\n        /* \"#utility.yul\":2617:2635   */\n      add\n        /* \"#utility.yul\":2608:2614   */\n      dup5\n        /* \"#utility.yul\":2564:2636   */\n      tag_43\n      jump\t// in\n    tag_100:\n        /* \"#utility.yul\":2220:2643   */\n      swap4\n      swap3\n      pop\n      pop\n      pop\n      jump\t// out\n        /* \"#utility.yul\":2649:2766   */\n    tag_44:\n        /* \"#utility.yul\":2758:2759   */\n      0x00\n        /* \"#utility.yul\":2755:2756   */\n      dup1\n        /* \"#utility.yul\":2748:2760   */\n      revert\n        /* \"#utility.yul\":2772:2889   */\n    tag_45:\n        /* \"#utility.yul\":2881:2882   */\n      0x00\n        /* \"#utility.yul\":2878:2879   */\n      dup1\n        /* \"#utility.yul\":2871:2883   */\n      revert\n        /* \"#utility.yul\":2895:3075   */\n    tag_46:\n        /* \"#utility.yul\":2943:3020   */\n      0x4e487b7100000000000000000000000000000000000000000000000000000000\n        /* \"#utility.yul\":2940:2941   */\n      0x00\n        /* \"#utility.yul\":2933:3021   */\n      mstore\n        /* \"#utility.yul\":3040:3044   */\n      0x41\n        /* \"#utility.yul\":3037:3038   */\n      0x04\n        /* \"#utility.yul\":3030:3045   */\n      mstore\n        /* \"#utility.yul\":3064:3068   */\n      0x24\n        /* \"#utility.yul\":3061:3062   */\n      0x00\n        /* \"#utility.yul\":3054:3069   */\n      revert\n        /* \"#utility.yul\":3081:3362   */\n    tag_47:\n        /* \"#utility.yul\":3164:3191   */\n      tag_105\n        /* \"#utility.yul\":3186:3190   */\n      dup3\n        /* \"#utility.yul\":3164:3191   */\n      tag_41\n      jump\t// in\n    tag_105:\n        /* \"#utility.yul\":3156:3162   */\n      dup2\n        /* \"#utility.yul\":3152:3192   */\n      add\n        /* \"#utility.yul\":3294:3300   */\n      dup2\n        /* \"#utility.yul\":3282:3292   */\n      dup2\n        /* \"#utility.yul\":3279:3301   */\n      lt\n        /* \"#utility.yul\":3258:3276   */\n      0xffffffffffffffff\n        /* \"#utility.yul\":3246:3256   */\n      dup3\n        /* \"#utility.yul\":3243:3277   */\n      gt\n        /* \"#utility.yul\":3240:3302   */\n      or\n        /* \"#utility.yul\":3237:3325   */\n      iszero\n      tag_106\n      jumpi\n        /* \"#utility.yul\":3305:3323   */\n      tag_107\n      tag_46\n      jump\t// in\n    tag_107:\n        /* \"#utility.yul\":3237:3325   */\n    tag_106:\n        /* \"#utility.yul\":3345:3355   */\n      dup1\n        /* \"#utility.yul\":3341:3343   */\n      0x40\n        /* \"#utility.yul\":3334:3356   */\n      mstore\n        /* \"#utility.yul\":3124:3362   */\n      pop\n        /* \"#utility.yul\":3081:3362   */\n      pop\n      pop\n      jump\t// out\n        /* \"#utility.yul\":3368:3497   */\n    tag_48:\n        /* \"#utility.yul\":3402:3408   */\n      0x00\n        /* \"#utility.yul\":3429:3449   */\n      tag_109\n      tag_32\n      jump\t// in\n    tag_109:\n        /* \"#utility.yul\":3419:3449   */\n      swap1\n      pop\n        /* \"#utility.yul\":3458:3491   */\n      tag_110\n        /* \"#utility.yul\":3486:3490   */\n      dup3\n        /* \"#utility.yul\":3478:3484   */\n      dup3\n        /* \"#utility.yul\":3458:3491   */\n      tag_47\n      jump\t// in\n    tag_110:\n        /* \"#utility.yul\":3368:3497   */\n      swap2\n      swap1\n      pop\n      jump\t// out\n        /* \"#utility.yul\":3503:3811   */\n    tag_49:\n        /* \"#utility.yul\":3565:3569   */\n      0x00\n        /* \"#utility.yul\":3655:3673   */\n      0xffffffffffffffff\n        /* \"#utility.yul\":3647:3653   */\n      dup3\n        /* \"#utility.yul\":3644:3674   */\n      gt\n        /* \"#utility.yul\":3641:3697   */\n      iszero\n      tag_112\n      jumpi\n        /* \"#utility.yul\":3677:3695   */\n      tag_113\n      tag_46\n      jump\t// in\n    tag_113:\n        /* \"#utility.yul\":3641:3697   */\n    tag_112:\n        /* \"#utility.yul\":3715:3744   */\n      tag_114\n        /* \"#utility.yul\":3737:3743   */\n      dup3\n        /* \"#utility.yul\":3715:3744   */\n      tag_41\n      jump\t// in\n    tag_114:\n        /* \"#utility.yul\":3707:3744   */\n      swap1\n      pop\n        /* \"#utility.yul\":3799:3803   */\n      0x20\n        /* \"#utility.yul\":3793:3797   */\n      dup2\n        /* \"#utility.yul\":3789:3804   */\n      add\n        /* \"#utility.yul\":3781:3804   */\n      swap1\n      pop\n        /* \"#utility.yul\":3503:3811   */\n      swap2\n      swap1\n      pop\n      jump\t// out\n        /* \"#utility.yul\":3817:3971   */\n    tag_50:\n        /* \"#utility.yul\":3901:3907   */\n      dup3\n        /* \"#utility.yul\":3896:3899   */\n      dup2\n        /* \"#utility.yul\":3891:3894   */\n      dup4\n        /* \"#utility.yul\":3878:3908   */\n      calldatacopy\n        /* \"#utility.yul\":3963:3964   */\n      0x00\n        /* \"#utility.yul\":3954:3960   */\n      dup4\n        /* \"#utility.yul\":3949:3952   */\n      dup4\n        /* \"#utility.yul\":3945:3961   */\n      add\n        /* \"#utility.yul\":3938:3965   */\n      mstore\n        /* \"#utility.yul\":3817:3971   */\n      pop\n      pop\n      pop\n      jump\t// out\n        /* \"#utility.yul\":3977:4389   */\n    tag_51:\n        /* \"#utility.yul\":4055:4060   */\n      0x00\n        /* \"#utility.yul\":4080:4146   */\n      tag_117\n        /* \"#utility.yul\":4096:4145   */\n      tag_118\n        /* \"#utility.yul\":4138:4144   */\n      dup5\n        /* \"#utility.yul\":4096:4145   */\n      tag_49\n      jump\t// in\n    tag_118:\n        /* \"#utility.yul\":4080:4146   */\n      tag_48\n      jump\t// in\n    tag_117:\n        /* \"#utility.yul\":4071:4146   */\n      swap1\n      pop\n        /* \"#utility.yul\":4169:4175   */\n      dup3\n        /* \"#utility.yul\":4162:4167   */\n      dup2\n        /* \"#utility.yul\":4155:4176   */\n      mstore\n        /* \"#utility.yul\":4207:4211   */\n      0x20\n        /* \"#utility.yul\":4200:4205   */\n      dup2\n        /* \"#utility.yul\":4196:4212   */\n      add\n        /* \"#utility.yul\":4245:4248   */\n      dup5\n        /* \"#utility.yul\":4236:4242   */\n      dup5\n        /* \"#utility.yul\":4231:4234   */\n      dup5\n        /* \"#utility.yul\":4227:4243   */\n      add\n        /* \"#utility.yul\":4224:4249   */\n      gt\n        /* \"#utility.yul\":4221:4333   */\n      iszero\n      tag_119\n      jumpi\n        /* \"#utility.yul\":4252:4331   */\n      tag_120\n      tag_45\n      jump\t// in\n    tag_120:\n        /* \"#utility.yul\":4221:4333   */\n    tag_119:\n        /* \"#utility.yul\":4342:4383   */\n      tag_121\n        /* \"#utility.yul\":4376:4382   */\n      dup5\n        /* \"#utility.yul\":4371:4374   */\n      dup3\n        /* \"#utility.yul\":4366:4369   */\n      dup6\n        /* \"#utility.yul\":4342:4383   */\n      tag_50\n      jump\t// in\n    tag_121:\n        /* \"#utility.yul\":4061:4389   */\n      pop\n        /* \"#utility.yul\":3977:4389   */\n      swap4\n      swap3\n      pop\n      pop\n      pop\n      jump\t// out\n        /* \"#utility.yul\":4409:4749   */\n    tag_52:\n        /* \"#utility.yul\":4465:4470   */\n      0x00\n        /* \"#utility.yul\":4514:4517   */\n      dup3\n        /* \"#utility.yul\":4507:4511   */\n      0x1f\n        /* \"#utility.yul\":4499:4505   */\n      dup4\n        /* \"#utility.yul\":4495:4512   */\n      add\n        /* \"#utility.yul\":4491:4518   */\n      slt\n        /* \"#utility.yul\":4481:4603   */\n      tag_123\n      jumpi\n        /* \"#utility.yul\":4522:4601   */\n      tag_124\n      tag_44\n      jump\t// in\n    tag_124:\n        /* \"#utility.yul\":4481:4603   */\n    tag_123:\n        /* \"#utility.yul\":4639:4645   */\n      dup2\n        /* \"#utility.yul\":4626:4646   */\n      calldataload\n        /* \"#utility.yul\":4664:4743   */\n      tag_125\n        /* \"#utility.yul\":4739:4742   */\n      dup5\n        /* \"#utility.yul\":4731:4737   */\n      dup3\n        /* \"#utility.yul\":4724:4728   */\n      0x20\n        /* \"#utility.yul\":4716:4722   */\n      dup7\n        /* \"#utility.yul\":4712:4729   */\n      add\n        /* \"#utility.yul\":4664:4743   */\n      tag_51\n      jump\t// in\n    tag_125:\n        /* \"#utility.yul\":4655:4743   */\n      swap2\n      pop\n        /* \"#utility.yul\":4471:4749   */\n      pop\n        /* \"#utility.yul\":4409:4749   */\n      swap3\n      swap2\n      pop\n      pop\n      jump\t// out\n        /* \"#utility.yul\":4755:5409   */\n    tag_17:\n        /* \"#utility.yul\":4833:4839   */\n      0x00\n        /* \"#utility.yul\":4841:4847   */\n      dup1\n        /* \"#utility.yul\":4890:4892   */\n      0x40\n        /* \"#utility.yul\":4878:4887   */\n      dup4\n        /* \"#utility.yul\":4869:4876   */\n      dup6\n        /* \"#utility.yul\":4865:4888   */\n      sub\n        /* \"#utility.yul\":4861:4893   */\n      slt\n        /* \"#utility.yul\":4858:4977   */\n      iszero\n      tag_127\n      jumpi\n        /* \"#utility.yul\":4896:4975   */\n      tag_128\n      tag_33\n      jump\t// in\n    tag_128:\n        /* \"#utility.yul\":4858:4977   */\n    tag_127:\n        /* \"#utility.yul\":5044:5045   */\n      0x00\n        /* \"#utility.yul\":5033:5042   */\n      dup4\n        /* \"#utility.yul\":5029:5046   */\n      add\n        /* \"#utility.yul\":5016:5047   */\n      calldataload\n        /* \"#utility.yul\":5074:5092   */\n      0xffffffffffffffff\n        /* \"#utility.yul\":5066:5072   */\n      dup2\n        /* \"#utility.yul\":5063:5093   */\n      gt\n        /* \"#utility.yul\":5060:5177   */\n      iszero\n      tag_129\n      jumpi\n        /* \"#utility.yul\":5096:5175   */\n      tag_130\n      tag_34\n      jump\t// in\n    tag_130:\n        /* \"#utility.yul\":5060:5177   */\n    tag_129:\n        /* \"#utility.yul\":5201:5264   */\n      tag_131\n        /* \"#utility.yul\":5256:5263   */\n      dup6\n        /* \"#utility.yul\":5247:5253   */\n      dup3\n        /* \"#utility.yul\":5236:5245   */\n      dup7\n        /* \"#utility.yul\":5232:5254   */\n      add\n        /* \"#utility.yul\":5201:5264   */\n      tag_52\n      jump\t// in\n    tag_131:\n        /* \"#utility.yul\":5191:5264   */\n      swap3\n      pop\n        /* \"#utility.yul\":4987:5274   */\n      pop\n        /* \"#utility.yul\":5313:5315   */\n      0x20\n        /* \"#utility.yul\":5339:5392   */\n      tag_132\n        /* \"#utility.yul\":5384:5391   */\n      dup6\n        /* \"#utility.yul\":5375:5381   */\n      dup3\n        /* \"#utility.yul\":5364:5373   */\n      dup7\n        /* \"#utility.yul\":5360:5382   */\n      add\n        /* \"#utility.yul\":5339:5392   */\n      tag_37\n      jump\t// in\n    tag_132:\n        /* \"#utility.yul\":5329:5392   */\n      swap2\n      pop\n        /* \"#utility.yul\":5284:5402   */\n      pop\n        /* \"#utility.yul\":4755:5409   */\n      swap3\n      pop\n      swap3\n      swap1\n      pop\n      jump\t// out\n        /* \"#utility.yul\":5415:5595   */\n    tag_53:\n        /* \"#utility.yul\":5463:5540   */\n      0x4e487b7100000000000000000000000000000000000000000000000000000000\n        /* \"#utility.yul\":5460:5461   */\n      0x00\n        /* \"#utility.yul\":5453:5541   */\n      mstore\n        /* \"#utility.yul\":5560:5564   */\n      0x22\n        /* \"#utility.yul\":5557:5558   */\n      0x04\n        /* \"#utility.yul\":5550:5565   */\n      mstore\n        /* \"#utility.yul\":5584:5588   */\n      0x24\n        /* \"#utility.yul\":5581:5582   */\n      0x00\n        /* \"#utility.yul\":5574:5589   */\n      revert\n        /* \"#utility.yul\":5601:5921   */\n    tag_22:\n        /* \"#utility.yul\":5645:5651   */\n      0x00\n        /* \"#utility.yul\":5682:5683   */\n      0x02\n        /* \"#utility.yul\":5676:5680   */\n      dup3\n        /* \"#utility.yul\":5672:5684   */\n      div\n        /* \"#utility.yul\":5662:5684   */\n      swap1\n      pop\n        /* \"#utility.yul\":5729:5730   */\n      0x01\n        /* \"#utility.yul\":5723:5727   */\n      dup3\n        /* \"#utility.yul\":5719:5731   */\n      and\n        /* \"#utility.yul\":5750:5768   */\n      dup1\n        /* \"#utility.yul\":5740:5821   */\n      tag_135\n      jumpi\n        /* \"#utility.yul\":5806:5810   */\n      0x7f\n        /* \"#utility.yul\":5798:5804   */\n      dup3\n        /* \"#utility.yul\":5794:5811   */\n      and\n        /* \"#utility.yul\":5784:5811   */\n      swap2\n      pop\n        /* \"#utility.yul\":5740:5821   */\n    tag_135:\n        /* \"#utility.yul\":5868:5870   */\n      0x20\n        /* \"#utility.yul\":5860:5866   */\n      dup3\n        /* \"#utility.yul\":5857:5871   */\n      lt\n        /* \"#utility.yul\":5837:5855   */\n      dup2\n        /* \"#utility.yul\":5834:5872   */\n      sub\n        /* \"#utility.yul\":5831:5915   */\n      tag_136\n      jumpi\n        /* \"#utility.yul\":5887:5905   */\n      tag_137\n      tag_53\n      jump\t// in\n    tag_137:\n        /* \"#utility.yul\":5831:5915   */\n    tag_136:\n        /* \"#utility.yul\":5652:5921   */\n      pop\n        /* \"#utility.yul\":5601:5921   */\n      swap2\n      swap1\n      pop\n      jump\t// out\n        /* \"#utility.yul\":5927:6068   */\n    tag_54:\n        /* \"#utility.yul\":5976:5980   */\n      0x00\n        /* \"#utility.yul\":5999:6002   */\n      dup2\n        /* \"#utility.yul\":5991:6002   */\n      swap1\n      pop\n        /* \"#utility.yul\":6022:6025   */\n      dup2\n        /* \"#utility.yul\":6019:6020   */\n      0x00\n        /* \"#utility.yul\":6012:6026   */\n      mstore\n        /* \"#utility.yul\":6056:6060   */\n      0x20\n        /* \"#utility.yul\":6053:6054   */\n      0x00\n        /* \"#utility.yul\":6043:6061   */\n      keccak256\n        /* \"#utility.yul\":6035:6061   */\n      swap1\n      pop\n        /* \"#utility.yul\":5927:6068   */\n      swap2\n      swap1\n      pop\n      jump\t// out\n        /* \"#utility.yul\":6074:6167   */\n    tag_55:\n        /* \"#utility.yul\":6111:6117   */\n      0x00\n        /* \"#utility.yul\":6158:6160   */\n      0x20\n        /* \"#utility.yul\":6153:6155   */\n      0x1f\n        /* \"#utility.yul\":6146:6151   */\n      dup4\n        /* \"#utility.yul\":6142:6156   */\n      add\n        /* \"#utility.yul\":6138:6161   */\n      div\n        /* \"#utility.yul\":6128:6161   */\n      swap1\n      pop\n        /* \"#utility.yul\":6074:6167   */\n      swap2\n      swap1\n      pop\n      jump\t// out\n        /* \"#utility.yul\":6173:6280   */\n    tag_56:\n        /* \"#utility.yul\":6217:6225   */\n      0x00\n        /* \"#utility.yul\":6267:6272   */\n      dup3\n        /* \"#utility.yul\":6261:6265   */\n      dup3\n        /* \"#utility.yul\":6257:6273   */\n      shl\n        /* \"#utility.yul\":6236:6273   */\n      swap1\n      pop\n        /* \"#utility.yul\":6173:6280   */\n      swap3\n      swap2\n      pop\n      pop\n      jump\t// out\n        /* \"#utility.yul\":6286:6679   */\n    tag_57:\n        /* \"#utility.yul\":6355:6361   */\n      0x00\n        /* \"#utility.yul\":6405:6406   */\n      0x08\n        /* \"#utility.yul\":6393:6403   */\n      dup4\n        /* \"#utility.yul\":6389:6407   */\n      mul\n        /* \"#utility.yul\":6428:6525   */\n      tag_142\n        /* \"#utility.yul\":6458:6524   */\n      0xffffffffffffffffffffffffffffffffffffffffffffffffffffffffffffffff\n        /* \"#utility.yul\":6447:6456   */\n      dup3\n        /* \"#utility.yul\":6428:6525   */\n      tag_56\n      jump\t// in\n    tag_142:\n        /* \"#utility.yul\":6546:6585   */\n      tag_143\n        /* \"#utility.yul\":6576:6584   */\n      dup7\n        /* \"#utility.yul\":6565:6574   */\n      dup4\n        /* \"#utility.yul\":6546:6585   */\n      tag_56\n      jump\t// in\n    tag_143:\n        /* \"#utility.yul\":6534:6585   */\n      swap6\n      pop\n        /* \"#utility.yul\":6618:6622   */\n      dup1\n        /* \"#utility.yul\":6614:6623   */\n      not\n        /* \"#utility.yul\":6607:6612   */\n      dup5\n        /* \"#utility.yul\":6603:6624   */\n      and\n        /* \"#utility.yul\":6594:6624   */\n      swap4\n      pop\n        /* \"#utility.yul\":6667:6671   */\n      dup1\n        /* \"#utility.yul\":6657:6665   */\n      dup7\n        /* \"#utility.yul\":6653:6672   */\n      and\n        /* \"#utility.yul\":6646:6651   */\n      dup5\n        /* \"#utility.yul\":6643:6673   */\n      or\n        /* \"#utility.yul\":6633:6673   */\n      swap3\n      pop\n        /* \"#utility.yul\":6362:6679   */\n      pop\n      pop\n        /* \"#utility.yul\":6286:6679   */\n      swap4\n      swap3\n      pop\n      pop\n      pop\n      jump\t// out\n        /* \"#utility.yul\":6685:6745   */\n    tag_58:\n        /* \"#utility.yul\":6713:6716   */\n      0x00\n        /* \"#utility.yul\":6734:6739   */\n      dup2\n        /* \"#utility.yul\":6727:6739   */\n      swap1\n      pop\n        /* \"#utility.yul\":6685:6745   */\n      swap2\n      swap1\n      pop\n      jump\t// out\n        /* \"#utility.yul\":6751:6893   */\n    tag_59:\n        /* \"#utility.yul\":6801:6810   */\n      0x00\n        /* \"#utility.yul\":6834:6887   */\n      tag_146\n        /* \"#utility.yul\":6852:6886   */\n      tag_147\n        /* \"#utility.yul\":6861:6885   */\n      tag_148\n        /* \"#utility.yul\":6879:6884   */\n      dup5\n        /* \"#utility.yul\":6861:6885   */\n      tag_35\n      jump\t// in\n    tag_148:\n        /* \"#utility.yul\":6852:6886   */\n      tag_58\n      jump\t// in\n    tag_147:\n        /* \"#utility.yul\":6834:6887   */\n      tag_35\n      jump\t// in\n    tag_146:\n        /* \"#utility.yul\":6821:6887   */\n      swap1\n      pop\n        /* \"#utility.yul\":6751:6893   */\n      swap2\n      swap1\n      pop\n      jump\t// out\n        /* \"#utility.yul\":6899:6974   */\n    tag_60:\n        /* \"#utility.yul\":6942:6945   */\n      0x00\n        /* \"#utility.yul\":6963:6968   */\n      dup2\n        /* \"#utility.yul\":6956:6968   */\n      swap1\n      pop\n        /* \"#utility.yul\":6899:6974   */\n      swap2\n      swap1\n      pop\n      jump\t// out\n        /* \"#utility.yul\":6980:7249   */\n    tag_61:\n        /* \"#utility.yul\":7090:7129   */\n      tag_151\n        /* \"#utility.yul\":7121:7128   */\n      dup4\n        /* \"#utility.yul\":7090:7129   */\n      tag_59\n      jump\t// in\n    tag_151:\n        /* \"#utility.yul\":7151:7242   */\n      tag_152\n        /* \"#utility.yul\":7200:7241   */\n      tag_153\n        /* \"#utility.yul\":7224:7240   */\n      dup3\n        /* \"#utility.yul\":7200:7241   */\n      tag_60\n      jump\t// in\n    tag_153:\n        /* \"#utility.yul\":7192:7198   */\n      dup5\n        /* \"#utility.yul\":7185:7189   */\n      dup5\n        /* \"#utility.yul\":7179:7190   */\n      sload\n        /* \"#utility.yul\":7151:7242   */\n      tag_57\n      jump\t// in\n    tag_152:\n        /* \"#utility.yul\":7145:7149   */\n      dup3\n        /* \"#utility.yul\":7138:7243   */\n      sstore\n        /* \"#utility.yul\":7056:7249   */\n      pop\n        /* \"#utility.yul\":6980:7249   */\n      pop\n      pop\n      pop\n      jump\t// out\n        /* \"#utility.yul\":7255:7328   */\n    tag_62:\n        /* \"#utility.yul\":7300:7303   */\n      0x00\n        /* \"#utility.yul\":7255:7328   */\n      swap1\n      jump\t// out\n        /* \"#utility.yul\":7334:7523   */\n    tag_63:\n        /* \"#utility.yul\":7411:7443   */\n      tag_156\n      tag_62\n      jump\t// in\n    tag_156:\n        /* \"#utility.yul\":7452:7517   */\n      tag_157\n        /* \"#utility.yul\":7510:7516   */\n      dup2\n        /* \"#utility.yul\":7502:7508   */\n      dup5\n        /* \"#utility.yul\":7496:7500   */\n      dup5\n        /* \"#utility.yul\":7452:7517   */\n      tag_61\n      jump\t// in\n    tag_157:\n        /* \"#utility.yul\":7387:7523   */\n      pop\n        /* \"#utility.yul\":7334:7523   */\n      pop\n      pop\n      jump\t// out\n        /* \"#utility.yul\":7529:7715   */\n    tag_64:\n        /* \"#utility.yul\":7589:7709   */\n    tag_159:\n        /* \"#utility.yul\":7606:7609   */\n      dup2\n        /* \"#utility.yul\":7599:7604   */\n      dup2\n        /* \"#utility.yul\":7596:7610   */\n      lt\n        /* \"#utility.yul\":7589:7709   */\n      iszero\n      tag_161\n      jumpi\n        /* \"#utility.yul\":7660:7699   */\n      tag_162\n        /* \"#utility.yul\":7697:7698   */\n      0x00\n        /* \"#utility.yul\":7690:7695   */\n      dup3\n        /* \"#utility.yul\":7660:7699   */\n      tag_63\n      jump\t// in\n    tag_162:\n        /* \"#utility.yul\":7633:7634   */\n      0x01\n        /* \"#utility.yul\":7626:7631   */\n      dup2\n        /* \"#utility.yul\":7622:7635   */\n      add\n        /* \"#utility.yul\":7613:7635   */\n      swap1\n      pop\n        /* \"#utility.yul\":7589:7709   */\n      jump(tag_159)\n    tag_161:\n        /* \"#utility.yul\":7529:7715   */\n      pop\n      pop\n      jump\t// out\n        /* \"#utility.yul\":7721:8264   */\n    tag_65:\n        /* \"#utility.yul\":7822:7824   */\n      0x1f\n        /* \"#utility.yul\":7817:7820   */\n      dup3\n        /* \"#utility.yul\":7814:7825   */\n      gt\n        /* \"#utility.yul\":7811:8257   */\n      iszero\n      tag_164\n      jumpi\n        /* \"#utility.yul\":7856:7894   */\n      tag_165\n        /* \"#utility.yul\":7888:7893   */\n      dup2\n        /* \"#utility.yul\":7856:7894   */\n      tag_54\n      jump\t// in\n    tag_165:\n        /* \"#utility.yul\":7940:7969   */\n      tag_166\n        /* \"#utility.yul\":7958:7968   */\n      dup5\n        /* \"#utility.yul\":7940:7969   */\n      tag_55\n      jump\t// in\n    tag_166:\n        /* \"#utility.yul\":7930:7938   */\n      dup2\n        /* \"#utility.yul\":7926:7970   */\n      add\n        /* \"#utility.yul\":8123:8125   */\n      0x20\n        /* \"#utility.yul\":8111:8121   */\n      dup6\n        /* \"#utility.yul\":8108:8126   */\n      lt\n        /* \"#utility.yul\":8105:8154   */\n      iszero\n      tag_167\n      jumpi\n        /* \"#utility.yul\":8144:8152   */\n      dup2\n        /* \"#utility.yul\":8129:8152   */\n      swap1\n      pop\n        /* \"#utility.yul\":8105:8154   */\n    tag_167:\n        /* \"#utility.yul\":8167:8247   */\n      tag_168\n        /* \"#utility.yul\":8223:8245   */\n      tag_169\n        /* \"#utility.yul\":8241:8244   */\n      dup6\n        /* \"#utility.yul\":8223:8245   */\n      tag_55\n      jump\t// in\n    tag_169:\n        /* \"#utility.yul\":8213:8221   */\n      dup4\n        /* \"#utility.yul\":8209:8246   */\n      add\n        /* \"#utility.yul\":8196:8207   */\n      dup3\n        /* \"#utility.yul\":8167:8247   */\n      tag_64\n      jump\t// in\n    tag_168:\n        /* \"#utility.yul\":7826:8257   */\n      pop\n      pop\n        /* \"#utility.yul\":7811:8257   */\n    tag_164:\n        /* \"#utility.yul\":7721:8264   */\n      pop\n      pop\n      pop\n      jump\t// out\n        /* \"#utility.yul\":8270:8387   */\n    tag_66:\n        /* \"#utility.yul\":8324:8332   */\n      0x00\n        /* \"#utility.yul\":8374:8379   */\n      dup3\n        /* \"#utility.yul\":8368:8372   */\n      dup3\n        /* \"#utility.yul\":8364:8380   */\n      shr\n        /* \"#utility.yul\":8343:8380   */\n      swap1\n      pop\n        /* \"#utility.yul\":8270:8387   */\n      swap3\n      swap2\n      pop\n      pop\n      jump\t// out\n        /* \"#utility.yul\":8393:8562   */\n    tag_67:\n        /* \"#utility.yul\":8437:8443   */\n      0x00\n        /* \"#utility.yul\":8470:8521   */\n      tag_172\n        /* \"#utility.yul\":8518:8519   */\n      0x00\n        /* \"#utility.yul\":8514:8520   */\n      not\n        /* \"#utility.yul\":8506:8511   */\n      dup5\n        /* \"#utility.yul\":8503:8504   */\n      0x08\n        /* \"#utility.yul\":8499:8512   */\n      mul\n        /* \"#utility.yul\":8470:8521   */\n      tag_66\n      jump\t// in\n    tag_172:\n        /* \"#utility.yul\":8466:8522   */\n      not\n        /* \"#utility.yul\":8551:8555   */\n      dup1\n        /* \"#utility.yul\":8545:8549   */\n      dup4\n        /* \"#utility.yul\":8541:8556   */\n      and\n        /* \"#utility.yul\":8531:8556   */\n      swap2\n      pop\n        /* \"#utility.yul\":8444:8562   */\n      pop\n        /* \"#utility.yul\":8393:8562   */\n      swap3\n      swap2\n      pop\n      pop\n      jump\t// out\n        /* \"#utility.yul\":8567:8862   */\n    tag_68:\n        /* \"#utility.yul\":8643:8647   */\n      0x00\n        /* \"#utility.yul\":8789:8818   */\n      tag_174\n        /* \"#utility.yul\":8814:8817   */\n      dup4\n        /* \"#utility.yul\":8808:8812   */\n      dup4\n        /* \"#utility.yul\":8789:8818   */\n      tag_67\n      jump\t// in\n    tag_174:\n        /* \"#utility.yul\":8781:8818   */\n      swap2\n      pop\n        /* \"#utility.yul\":8851:8854   */\n      dup3\n        /* \"#utility.yul\":8848:8849   */\n      0x02\n        /* \"#utility.yul\":8844:8855   */\n      mul\n        /* \"#utility.yul\":8838:8842   */\n      dup3\n        /* \"#utility.yul\":8835:8856   */\n      or\n        /* \"#utility.yul\":8827:8856   */\n      swap1\n      pop\n        /* \"#utility.yul\":8567:8862   */\n      swap3\n      swap2\n      pop\n      pop\n      jump\t// out\n        /* \"#utility.yul\":8867:10262   */\n    tag_31:\n        /* \"#utility.yul\":8984:9021   */\n      tag_176\n        /* \"#utility.yul\":9017:9020   */\n      dup3\n        /* \"#utility.yul\":8984:9021   */\n      tag_38\n      jump\t// in\n    tag_176:\n        /* \"#utility.yul\":9086:9104   */\n      0xffffffffffffffff\n        /* \"#utility.yul\":9078:9084   */\n      dup2\n        /* \"#utility.yul\":9075:9105   */\n      gt\n        /* \"#utility.yul\":9072:9128   */\n      iszero\n      tag_177\n      jumpi\n        /* \"#utility.yul\":9108:9126   */\n      tag_178\n      tag_46\n      jump\t// in\n    tag_178:\n        /* \"#utility.yul\":9072:9128   */\n    tag_177:\n        /* \"#utility.yul\":9152:9190   */\n      tag_179\n        /* \"#utility.yul\":9184:9188   */\n      dup3\n        /* \"#utility.yul\":9178:9189   */\n      sload\n        /* \"#utility.yul\":9152:9190   */\n      tag_22\n      jump\t// in\n    tag_179:\n        /* \"#utility.yul\":9237:9304   */\n      tag_180\n        /* \"#utility.yul\":9297:9303   */\n      dup3\n        /* \"#utility.yul\":9289:9295   */\n      dup3\n        /* \"#utility.yul\":9283:9287   */\n      dup6\n        /* \"#utility.yul\":9237:9304   */\n      tag_65\n      jump\t// in\n    tag_180:\n        /* \"#utility.yul\":9331:9332   */\n      0x00\n        /* \"#utility.yul\":9355:9359   */\n      0x20\n        /* \"#utility.yul\":9342:9359   */\n      swap1\n      pop\n        /* \"#utility.yul\":9387:9389   */\n      0x1f\n        /* \"#utility.yul\":9379:9385   */\n      dup4\n        /* \"#utility.yul\":9376:9390   */\n      gt\n        /* \"#utility.yul\":9404:9405   */\n      0x01\n        /* \"#utility.yul\":9399:10017   */\n      dup2\n      eq\n      tag_182\n      jumpi\n        /* \"#utility.yul\":10061:10062   */\n      0x00\n        /* \"#utility.yul\":10078:10084   */\n      dup5\n        /* \"#utility.yul\":10075:10152   */\n      iszero\n      tag_183\n      jumpi\n        /* \"#utility.yul\":10127:10136   */\n      dup3\n        /* \"#utility.yul\":10122:10125   */\n      dup8\n        /* \"#utility.yul\":10118:10137   */\n      add\n        /* \"#utility.yul\":10112:10138   */\n      mload\n        /* \"#utility.yul\":10103:10138   */\n      swap1\n      pop\n        /* \"#utility.yul\":10075:10152   */\n    tag_183:\n        /* \"#utility.yul\":10178:10245   */\n      tag_184\n        /* \"#utility.yul\":10238:10244   */\n      dup6\n        /* \"#utility.yul\":10231:10236   */\n      dup3\n        /* \"#utility.yul\":10178:10245   */\n      tag_68\n      jump\t// in\n    tag_184:\n        /* \"#utility.yul\":10172:10176   */\n      dup7\n        /* \"#utility.yul\":10165:10246   */\n      sstore\n        /* \"#utility.yul\":10034:10256   */\n      pop\n        /* \"#utility.yul\":9369:10256   */\n      jump(tag_181)\n        /* \"#utility.yul\":9399:10017   */\n    tag_182:\n        /* \"#utility.yul\":9451:9455   */\n      0x1f\n        /* \"#utility.yul\":9447:9456   */\n      not\n        /* \"#utility.yul\":9439:9445   */\n      dup5\n        /* \"#utility.yul\":9435:9457   */\n      and\n        /* \"#utility.yul\":9485:9522   */\n      tag_185\n        /* \"#utility.yul\":9517:9521   */\n      dup7\n        /* \"#utility.yul\":9485:9522   */\n      tag_54\n      jump\t// in\n    tag_185:\n        /* \"#utility.yul\":9544:9545   */\n      0x00\n        /* \"#utility.yul\":9558:9766   */\n    tag_186:\n        /* \"#utility.yul\":9572:9579   */\n      dup3\n        /* \"#utility.yul\":9569:9570   */\n      dup2\n        /* \"#utility.yul\":9566:9580   */\n      lt\n        /* \"#utility.yul\":9558:9766   */\n      iszero\n      tag_188\n      jumpi\n        /* \"#utility.yul\":9651:9660   */\n      dup5\n        /* \"#utility.yul\":9646:9649   */\n      dup10\n        /* \"#utility.yul\":9642:9661   */\n      add\n        /* \"#utility.yul\":9636:9662   */\n      mload\n        /* \"#utility.yul\":9628:9634   */\n      dup3\n        /* \"#utility.yul\":9621:9663   */\n      sstore\n        /* \"#utility.yul\":9702:9703   */\n      0x01\n        /* \"#utility.yul\":9694:9700   */\n      dup3\n        /* \"#utility.yul\":9690:9704   */\n      add\n        /* \"#utility.yul\":9680:9704   */\n      swap2\n      pop\n        /* \"#utility.yul\":9749:9751   */\n      0x20\n        /* \"#utility.yul\":9738:9747   */\n      dup6\n        /* \"#utility.yul\":9734:9752   */\n      add\n        /* \"#utility.yul\":9721:9752   */\n      swap5\n      pop\n        /* \"#utility.yul\":9595:9599   */\n      0x20\n        /* \"#utility.yul\":9592:9593   */\n      dup2\n        /* \"#utility.yul\":9588:9600   */\n      add\n        /* \"#utility.yul\":9583:9600   */\n      swap1\n      pop\n        /* \"#utility.yul\":9558:9766   */\n      jump(tag_186)\n    tag_188:\n        /* \"#utility.yul\":9794:9800   */\n      dup7\n        /* \"#utility.yul\":9785:9792   */\n      dup4\n        /* \"#utility.yul\":9782:9801   */\n      lt\n        /* \"#utility.yul\":9779:9958   */\n      iszero\n      tag_189\n      jumpi\n        /* \"#utility.yul\":9852:9861   */\n      dup5\n        /* \"#utility.yul\":9847:9850   */\n      dup10\n        /* \"#utility.yul\":9843:9862   */\n      add\n        /* \"#utility.yul\":9837:9863   */\n      mload\n        /* \"#utility.yul\":9895:9943   */\n      tag_190\n        /* \"#utility.yul\":9937:9941   */\n      0x1f\n        /* \"#utility.yul\":9929:9935   */\n      dup10\n        /* \"#utility.yul\":9925:9942   */\n      and\n        /* \"#utility.yul\":9914:9923   */\n      dup3\n        /* \"#utility.yul\":9895:9943   */\n      tag_67\n      jump\t// in\n    tag_190:\n        /* \"#utility.yul\":9887:9893   */\n      dup4\n        /* \"#utility.yul\":9880:9944   */\n      sstore\n        /* \"#utility.yul\":9802:9958   */\n      pop\n        /* \"#utility.yul\":9779:9958   */\n    tag_189:\n        /* \"#utility.yul\":10004:10005   */\n      0x01\n        /* \"#utility.yul\":10000:10001   */\n      0x02\n        /* \"#utility.yul\":9992:9998   */\n      dup9\n        /* \"#utility.yul\":9988:10002   */\n      mul\n        /* \"#utility.yul\":9984:10006   */\n      add\n        /* \"#utility.yul\":9978:9982   */\n      dup9\n        /* \"#utility.yul\":9971:10007   */\n      sstore\n        /* \"#utility.yul\":9406:10017   */\n      pop\n      pop\n      pop\n        /* \"#utility.yul\":9369:10256   */\n    tag_181:\n      pop\n        /* \"#utility.yul\":8959:10262   */\n      pop\n      pop\n      pop\n        /* \"#utility.yul\":8867:10262   */\n      pop\n      pop\n      jump\t// out\n\n    auxdata: 0xa264697066735822122010df048ede3b8372626b64aa18b2311a0acef6372ba25a2f3d2d7418b0ce760d64736f6c634300080f0033\n}\n",
				"bytecode": {
					"linkReferences": {},
					"object": "608060405234801561001057600080fd5b506107d0806100206000396000f3fe608060405234801561001057600080fd5b50600436106100415760003560e01c8063092a1820146100465780633bc5de3014610077578063af22068e14610096575b600080fd5b610060600480360381019061005b9190610226565b6100b2565b60405161006e9291906102fb565b60405180910390f35b61007f61016e565b60405161008d9291906102fb565b60405180910390f35b6100b060048036038101906100ab9190610460565b610176565b005b600081815481106100c257600080fd5b90600052602060002090600202016000915090508060000180546100e5906104eb565b80601f0160208091040260200160405190810160405280929190818152602001828054610111906104eb565b801561015e5780601f106101335761010080835404028352916020019161015e565b820191906000526020600020905b81548152906001019060200180831161014157829003601f168201915b5050505050908060010154905082565b606060009091565b6000604051806040016040528084815260200183815250908060018154018082558091505060019003906000526020600020906002020160009091909190915060008201518160000190816101cb91906106c8565b506020820151816001015550505050565b6000604051905090565b600080fd5b600080fd5b6000819050919050565b610203816101f0565b811461020e57600080fd5b50565b600081359050610220816101fa565b92915050565b60006020828403121561023c5761023b6101e6565b5b600061024a84828501610211565b91505092915050565b600081519050919050565b600082825260208201905092915050565b60005b8381101561028d578082015181840152602081019050610272565b8381111561029c576000848401525b50505050565b6000601f19601f8301169050919050565b60006102be82610253565b6102c8818561025e565b93506102d881856020860161026f565b6102e1816102a2565b840191505092915050565b6102f5816101f0565b82525050565b6000604082019050818103600083015261031581856102b3565b905061032460208301846102ec565b9392505050565b600080fd5b600080fd5b7f4e487b7100000000000000000000000000000000000000000000000000000000600052604160045260246000fd5b61036d826102a2565b810181811067ffffffffffffffff8211171561038c5761038b610335565b5b80604052505050565b600061039f6101dc565b90506103ab8282610364565b919050565b600067ffffffffffffffff8211156103cb576103ca610335565b5b6103d4826102a2565b9050602081019050919050565b82818337600083830152505050565b60006104036103fe846103b0565b610395565b90508281526020810184848401111561041f5761041e610330565b5b61042a8482856103e1565b509392505050565b600082601f8301126104475761044661032b565b5b81356104578482602086016103f0565b91505092915050565b60008060408385031215610477576104766101e6565b5b600083013567ffffffffffffffff811115610495576104946101eb565b5b6104a185828601610432565b92505060206104b285828601610211565b9150509250929050565b7f4e487b7100000000000000000000000000000000000000000000000000000000600052602260045260246000fd5b6000600282049050600182168061050357607f821691505b602082108103610516576105156104bc565b5b50919050565b60008190508160005260206000209050919050565b60006020601f8301049050919050565b600082821b905092915050565b60006008830261057e7fffffffffffffffffffffffffffffffffffffffffffffffffffffffffffffffff82610541565b6105888683610541565b95508019841693508086168417925050509392505050565b6000819050919050565b60006105c56105c06105bb846101f0565b6105a0565b6101f0565b9050919050565b6000819050919050565b6105df836105aa565b6105f36105eb826105cc565b84845461054e565b825550505050565b600090565b6106086105fb565b6106138184846105d6565b505050565b5b818110156106375761062c600082610600565b600181019050610619565b5050565b601f82111561067c5761064d8161051c565b61065684610531565b81016020851015610665578190505b61067961067185610531565b830182610618565b50505b505050565b600082821c905092915050565b600061069f60001984600802610681565b1980831691505092915050565b60006106b8838361068e565b9150826002028217905092915050565b6106d182610253565b67ffffffffffffffff8111156106ea576106e9610335565b5b6106f482546104eb565b6106ff82828561063b565b600060209050601f8311600181146107325760008415610720578287015190505b61072a85826106ac565b865550610792565b601f1984166107408661051c565b60005b8281101561076857848901518255600182019150602085019450602081019050610743565b868310156107855784890151610781601f89168261068e565b8355505b6001600288020188555050505b50505050505056fea264697066735822122010df048ede3b8372626b64aa18b2311a0acef6372ba25a2f3d2d7418b0ce760d64736f6c634300080f0033",
					"opcodes": "PUSH1 0x80 PUSH1 0x40 MSTORE CALLVALUE DUP1 ISZERO PUSH2 0x10 JUMPI PUSH1 0x0 DUP1 REVERT JUMPDEST POP PUSH2 0x7D0 DUP1 PUSH2 0x20 PUSH1 0x0 CODECOPY PUSH1 0x0 RETURN INVALID PUSH1 0x80 PUSH1 0x40 MSTORE CALLVALUE DUP1 ISZERO PUSH2 0x10 JUMPI PUSH1 0x0 DUP1 REVERT JUMPDEST POP PUSH1 0x4 CALLDATASIZE LT PUSH2 0x41 JUMPI PUSH1 0x0 CALLDATALOAD PUSH1 0xE0 SHR DUP1 PUSH4 0x92A1820 EQ PUSH2 0x46 JUMPI DUP1 PUSH4 0x3BC5DE30 EQ PUSH2 0x77 JUMPI DUP1 PUSH4 0xAF22068E EQ PUSH2 0x96 JUMPI JUMPDEST PUSH1 0x0 DUP1 REVERT JUMPDEST PUSH2 0x60 PUSH1 0x4 DUP1 CALLDATASIZE SUB DUP2 ADD SWAP1 PUSH2 0x5B SWAP2 SWAP1 PUSH2 0x226 JUMP JUMPDEST PUSH2 0xB2 JUMP JUMPDEST PUSH1 0x40 MLOAD PUSH2 0x6E SWAP3 SWAP2 SWAP1 PUSH2 0x2FB JUMP JUMPDEST PUSH1 0x40 MLOAD DUP1 SWAP2 SUB SWAP1 RETURN JUMPDEST PUSH2 0x7F PUSH2 0x16E JUMP JUMPDEST PUSH1 0x40 MLOAD PUSH2 0x8D SWAP3 SWAP2 SWAP1 PUSH2 0x2FB JUMP JUMPDEST PUSH1 0x40 MLOAD DUP1 SWAP2 SUB SWAP1 RETURN JUMPDEST PUSH2 0xB0 PUSH1 0x4 DUP1 CALLDATASIZE SUB DUP2 ADD SWAP1 PUSH2 0xAB SWAP2 SWAP1 PUSH2 0x460 JUMP JUMPDEST PUSH2 0x176 JUMP JUMPDEST STOP JUMPDEST PUSH1 0x0 DUP2 DUP2 SLOAD DUP2 LT PUSH2 0xC2 JUMPI PUSH1 0x0 DUP1 REVERT JUMPDEST SWAP1 PUSH1 0x0 MSTORE PUSH1 0x20 PUSH1 0x0 KECCAK256 SWAP1 PUSH1 0x2 MUL ADD PUSH1 0x0 SWAP2 POP SWAP1 POP DUP1 PUSH1 0x0 ADD DUP1 SLOAD PUSH2 0xE5 SWAP1 PUSH2 0x4EB JUMP JUMPDEST DUP1 PUSH1 0x1F ADD PUSH1 0x20 DUP1 SWAP2 DIV MUL PUSH1 0x20 ADD PUSH1 0x40 MLOAD SWAP1 DUP2 ADD PUSH1 0x40 MSTORE DUP1 SWAP3 SWAP2 SWAP1 DUP2 DUP2 MSTORE PUSH1 0x20 ADD DUP3 DUP1 SLOAD PUSH2 0x111 SWAP1 PUSH2 0x4EB JUMP JUMPDEST DUP1 ISZERO PUSH2 0x15E JUMPI DUP1 PUSH1 0x1F LT PUSH2 0x133 JUMPI PUSH2 0x100 DUP1 DUP4 SLOAD DIV MUL DUP4 MSTORE SWAP2 PUSH1 0x20 ADD SWAP2 PUSH2 0x15E JUMP JUMPDEST DUP3 ADD SWAP2 SWAP1 PUSH1 0x0 MSTORE PUSH1 0x20 PUSH1 0x0 KECCAK256 SWAP1 JUMPDEST DUP2 SLOAD DUP2 MSTORE SWAP1 PUSH1 0x1 ADD SWAP1 PUSH1 0x20 ADD DUP1 DUP4 GT PUSH2 0x141 JUMPI DUP3 SWAP1 SUB PUSH1 0x1F AND DUP3 ADD SWAP2 JUMPDEST POP POP POP POP POP SWAP1 DUP1 PUSH1 0x1 ADD SLOAD SWAP1 POP DUP3 JUMP JUMPDEST PUSH1 0x60 PUSH1 0x0 SWAP1 SWAP2 JUMP JUMPDEST PUSH1 0x0 PUSH1 0x40 MLOAD DUP1 PUSH1 0x40 ADD PUSH1 0x40 MSTORE DUP1 DUP5 DUP2 MSTORE PUSH1 0x20 ADD DUP4 DUP2 MSTORE POP SWAP1 DUP1 PUSH1 0x1 DUP2 SLOAD ADD DUP1 DUP3 SSTORE DUP1 SWAP2 POP POP PUSH1 0x1 SWAP1 SUB SWAP1 PUSH1 0x0 MSTORE PUSH1 0x20 PUSH1 0x0 KECCAK256 SWAP1 PUSH1 0x2 MUL ADD PUSH1 0x0 SWAP1 SWAP2 SWAP1 SWAP2 SWAP1 SWAP2 POP PUSH1 0x0 DUP3 ADD MLOAD DUP2 PUSH1 0x0 ADD SWAP1 DUP2 PUSH2 0x1CB SWAP2 SWAP1 PUSH2 0x6C8 JUMP JUMPDEST POP PUSH1 0x20 DUP3 ADD MLOAD DUP2 PUSH1 0x1 ADD SSTORE POP POP POP POP JUMP JUMPDEST PUSH1 0x0 PUSH1 0x40 MLOAD SWAP1 POP SWAP1 JUMP JUMPDEST PUSH1 0x0 DUP1 REVERT JUMPDEST PUSH1 0x0 DUP1 REVERT JUMPDEST PUSH1 0x0 DUP2 SWAP1 POP SWAP2 SWAP1 POP JUMP JUMPDEST PUSH2 0x203 DUP2 PUSH2 0x1F0 JUMP JUMPDEST DUP2 EQ PUSH2 0x20E JUMPI PUSH1 0x0 DUP1 REVERT JUMPDEST POP JUMP JUMPDEST PUSH1 0x0 DUP2 CALLDATALOAD SWAP1 POP PUSH2 0x220 DUP2 PUSH2 0x1FA JUMP JUMPDEST SWAP3 SWAP2 POP POP JUMP JUMPDEST PUSH1 0x0 PUSH1 0x20 DUP3 DUP5 SUB SLT ISZERO PUSH2 0x23C JUMPI PUSH2 0x23B PUSH2 0x1E6 JUMP JUMPDEST JUMPDEST PUSH1 0x0 PUSH2 0x24A DUP5 DUP3 DUP6 ADD PUSH2 0x211 JUMP JUMPDEST SWAP2 POP POP SWAP3 SWAP2 POP POP JUMP JUMPDEST PUSH1 0x0 DUP2 MLOAD SWAP1 POP SWAP2 SWAP1 POP JUMP JUMPDEST PUSH1 0x0 DUP3 DUP3 MSTORE PUSH1 0x20 DUP3 ADD SWAP1 POP SWAP3 SWAP2 POP POP JUMP JUMPDEST PUSH1 0x0 JUMPDEST DUP4 DUP2 LT ISZERO PUSH2 0x28D JUMPI DUP1 DUP3 ADD MLOAD DUP2 DUP5 ADD MSTORE PUSH1 0x20 DUP2 ADD SWAP1 POP PUSH2 0x272 JUMP JUMPDEST DUP4 DUP2 GT ISZERO PUSH2 0x29C JUMPI PUSH1 0x0 DUP5 DUP5 ADD MSTORE JUMPDEST POP POP POP POP JUMP JUMPDEST PUSH1 0x0 PUSH1 0x1F NOT PUSH1 0x1F DUP4 ADD AND SWAP1 POP SWAP2 SWAP1 POP JUMP JUMPDEST PUSH1 0x0 PUSH2 0x2BE DUP3 PUSH2 0x253 JUMP JUMPDEST PUSH2 0x2C8 DUP2 DUP6 PUSH2 0x25E JUMP JUMPDEST SWAP4 POP PUSH2 0x2D8 DUP2 DUP6 PUSH1 0x20 DUP7 ADD PUSH2 0x26F JUMP JUMPDEST PUSH2 0x2E1 DUP2 PUSH2 0x2A2 JUMP JUMPDEST DUP5 ADD SWAP2 POP POP SWAP3 SWAP2 POP POP JUMP JUMPDEST PUSH2 0x2F5 DUP2 PUSH2 0x1F0 JUMP JUMPDEST DUP3 MSTORE POP POP JUMP JUMPDEST PUSH1 0x0 PUSH1 0x40 DUP3 ADD SWAP1 POP DUP2 DUP2 SUB PUSH1 0x0 DUP4 ADD MSTORE PUSH2 0x315 DUP2 DUP6 PUSH2 0x2B3 JUMP JUMPDEST SWAP1 POP PUSH2 0x324 PUSH1 0x20 DUP4 ADD DUP5 PUSH2 0x2EC JUMP JUMPDEST SWAP4 SWAP3 POP POP POP JUMP JUMPDEST PUSH1 0x0 DUP1 REVERT JUMPDEST PUSH1 0x0 DUP1 REVERT JUMPDEST PUSH32 0x4E487B7100000000000000000000000000000000000000000000000000000000 PUSH1 0x0 MSTORE PUSH1 0x41 PUSH1 0x4 MSTORE PUSH1 0x24 PUSH1 0x0 REVERT JUMPDEST PUSH2 0x36D DUP3 PUSH2 0x2A2 JUMP JUMPDEST DUP2 ADD DUP2 DUP2 LT PUSH8 0xFFFFFFFFFFFFFFFF DUP3 GT OR ISZERO PUSH2 0x38C JUMPI PUSH2 0x38B PUSH2 0x335 JUMP JUMPDEST JUMPDEST DUP1 PUSH1 0x40 MSTORE POP POP POP JUMP JUMPDEST PUSH1 0x0 PUSH2 0x39F PUSH2 0x1DC JUMP JUMPDEST SWAP1 POP PUSH2 0x3AB DUP3 DUP3 PUSH2 0x364 JUMP JUMPDEST SWAP2 SWAP1 POP JUMP JUMPDEST PUSH1 0x0 PUSH8 0xFFFFFFFFFFFFFFFF DUP3 GT ISZERO PUSH2 0x3CB JUMPI PUSH2 0x3CA PUSH2 0x335 JUMP JUMPDEST JUMPDEST PUSH2 0x3D4 DUP3 PUSH2 0x2A2 JUMP JUMPDEST SWAP1 POP PUSH1 0x20 DUP2 ADD SWAP1 POP SWAP2 SWAP1 POP JUMP JUMPDEST DUP3 DUP2 DUP4 CALLDATACOPY PUSH1 0x0 DUP4 DUP4 ADD MSTORE POP POP POP JUMP JUMPDEST PUSH1 0x0 PUSH2 0x403 PUSH2 0x3FE DUP5 PUSH2 0x3B0 JUMP JUMPDEST PUSH2 0x395 JUMP JUMPDEST SWAP1 POP DUP3 DUP2 MSTORE PUSH1 0x20 DUP2 ADD DUP5 DUP5 DUP5 ADD GT ISZERO PUSH2 0x41F JUMPI PUSH2 0x41E PUSH2 0x330 JUMP JUMPDEST JUMPDEST PUSH2 0x42A DUP5 DUP3 DUP6 PUSH2 0x3E1 JUMP JUMPDEST POP SWAP4 SWAP3 POP POP POP JUMP JUMPDEST PUSH1 0x0 DUP3 PUSH1 0x1F DUP4 ADD SLT PUSH2 0x447 JUMPI PUSH2 0x446 PUSH2 0x32B JUMP JUMPDEST JUMPDEST DUP2 CALLDATALOAD PUSH2 0x457 DUP5 DUP3 PUSH1 0x20 DUP7 ADD PUSH2 0x3F0 JUMP JUMPDEST SWAP2 POP POP SWAP3 SWAP2 POP POP JUMP JUMPDEST PUSH1 0x0 DUP1 PUSH1 0x40 DUP4 DUP6 SUB SLT ISZERO PUSH2 0x477 JUMPI PUSH2 0x476 PUSH2 0x1E6 JUMP JUMPDEST JUMPDEST PUSH1 0x0 DUP4 ADD CALLDATALOAD PUSH8 0xFFFFFFFFFFFFFFFF DUP2 GT ISZERO PUSH2 0x495 JUMPI PUSH2 0x494 PUSH2 0x1EB JUMP JUMPDEST JUMPDEST PUSH2 0x4A1 DUP6 DUP3 DUP7 ADD PUSH2 0x432 JUMP JUMPDEST SWAP3 POP POP PUSH1 0x20 PUSH2 0x4B2 DUP6 DUP3 DUP7 ADD PUSH2 0x211 JUMP JUMPDEST SWAP2 POP POP SWAP3 POP SWAP3 SWAP1 POP JUMP JUMPDEST PUSH32 0x4E487B7100000000000000000000000000000000000000000000000000000000 PUSH1 0x0 MSTORE PUSH1 0x22 PUSH1 0x4 MSTORE PUSH1 0x24 PUSH1 0x0 REVERT JUMPDEST PUSH1 0x0 PUSH1 0x2 DUP3 DIV SWAP1 POP PUSH1 0x1 DUP3 AND DUP1 PUSH2 0x503 JUMPI PUSH1 0x7F DUP3 AND SWAP2 POP JUMPDEST PUSH1 0x20 DUP3 LT DUP2 SUB PUSH2 0x516 JUMPI PUSH2 0x515 PUSH2 0x4BC JUMP JUMPDEST JUMPDEST POP SWAP2 SWAP1 POP JUMP JUMPDEST PUSH1 0x0 DUP2 SWAP1 POP DUP2 PUSH1 0x0 MSTORE PUSH1 0x20 PUSH1 0x0 KECCAK256 SWAP1 POP SWAP2 SWAP1 POP JUMP JUMPDEST PUSH1 0x0 PUSH1 0x20 PUSH1 0x1F DUP4 ADD DIV SWAP1 POP SWAP2 SWAP1 POP JUMP JUMPDEST PUSH1 0x0 DUP3 DUP3 SHL SWAP1 POP SWAP3 SWAP2 POP POP JUMP JUMPDEST PUSH1 0x0 PUSH1 0x8 DUP4 MUL PUSH2 0x57E PUSH32 0xFFFFFFFFFFFFFFFFFFFFFFFFFFFFFFFFFFFFFFFFFFFFFFFFFFFFFFFFFFFFFFFF DUP3 PUSH2 0x541 JUMP JUMPDEST PUSH2 0x588 DUP7 DUP4 PUSH2 0x541 JUMP JUMPDEST SWAP6 POP DUP1 NOT DUP5 AND SWAP4 POP DUP1 DUP7 AND DUP5 OR SWAP3 POP POP POP SWAP4 SWAP3 POP POP POP JUMP JUMPDEST PUSH1 0x0 DUP2 SWAP1 POP SWAP2 SWAP1 POP JUMP JUMPDEST PUSH1 0x0 PUSH2 0x5C5 PUSH2 0x5C0 PUSH2 0x5BB DUP5 PUSH2 0x1F0 JUMP JUMPDEST PUSH2 0x5A0 JUMP JUMPDEST PUSH2 0x1F0 JUMP JUMPDEST SWAP1 POP SWAP2 SWAP1 POP JUMP JUMPDEST PUSH1 0x0 DUP2 SWAP1 POP SWAP2 SWAP1 POP JUMP JUMPDEST PUSH2 0x5DF DUP4 PUSH2 0x5AA JUMP JUMPDEST PUSH2 0x5F3 PUSH2 0x5EB DUP3 PUSH2 0x5CC JUMP JUMPDEST DUP5 DUP5 SLOAD PUSH2 0x54E JUMP JUMPDEST DUP3 SSTORE POP POP POP POP JUMP JUMPDEST PUSH1 0x0 SWAP1 JUMP JUMPDEST PUSH2 0x608 PUSH2 0x5FB JUMP JUMPDEST PUSH2 0x613 DUP2 DUP5 DUP5 PUSH2 0x5D6 JUMP JUMPDEST POP POP POP JUMP JUMPDEST JUMPDEST DUP2 DUP2 LT ISZERO PUSH2 0x637 JUMPI PUSH2 0x62C PUSH1 0x0 DUP3 PUSH2 0x600 JUMP JUMPDEST PUSH1 0x1 DUP2 ADD SWAP1 POP PUSH2 0x619 JUMP JUMPDEST POP POP JUMP JUMPDEST PUSH1 0x1F DUP3 GT ISZERO PUSH2 0x67C JUMPI PUSH2 0x64D DUP2 PUSH2 0x51C JUMP JUMPDEST PUSH2 0x656 DUP5 PUSH2 0x531 JUMP JUMPDEST DUP2 ADD PUSH1 0x20 DUP6 LT ISZERO PUSH2 0x665 JUMPI DUP2 SWAP1 POP JUMPDEST PUSH2 0x679 PUSH2 0x671 DUP6 PUSH2 0x531 JUMP JUMPDEST DUP4 ADD DUP3 PUSH2 0x618 JUMP JUMPDEST POP POP JUMPDEST POP POP POP JUMP JUMPDEST PUSH1 0x0 DUP3 DUP3 SHR SWAP1 POP SWAP3 SWAP2 POP POP JUMP JUMPDEST PUSH1 0x0 PUSH2 0x69F PUSH1 0x0 NOT DUP5 PUSH1 0x8 MUL PUSH2 0x681 JUMP JUMPDEST NOT DUP1 DUP4 AND SWAP2 POP POP SWAP3 SWAP2 POP POP JUMP JUMPDEST PUSH1 0x0 PUSH2 0x6B8 DUP4 DUP4 PUSH2 0x68E JUMP JUMPDEST SWAP2 POP DUP3 PUSH1 0x2 MUL DUP3 OR SWAP1 POP SWAP3 SWAP2 POP POP JUMP JUMPDEST PUSH2 0x6D1 DUP3 PUSH2 0x253 JUMP JUMPDEST PUSH8 0xFFFFFFFFFFFFFFFF DUP2 GT ISZERO PUSH2 0x6EA JUMPI PUSH2 0x6E9 PUSH2 0x335 JUMP JUMPDEST JUMPDEST PUSH2 0x6F4 DUP3 SLOAD PUSH2 0x4EB JUMP JUMPDEST PUSH2 0x6FF DUP3 DUP3 DUP6 PUSH2 0x63B JUMP JUMPDEST PUSH1 0x0 PUSH1 0x20 SWAP1 POP PUSH1 0x1F DUP4 GT PUSH1 0x1 DUP2 EQ PUSH2 0x732 JUMPI PUSH1 0x0 DUP5 ISZERO PUSH2 0x720 JUMPI DUP3 DUP8 ADD MLOAD SWAP1 POP JUMPDEST PUSH2 0x72A DUP6 DUP3 PUSH2 0x6AC JUMP JUMPDEST DUP7 SSTORE POP PUSH2 0x792 JUMP JUMPDEST PUSH1 0x1F NOT DUP5 AND PUSH2 0x740 DUP7 PUSH2 0x51C JUMP JUMPDEST PUSH1 0x0 JUMPDEST DUP3 DUP2 LT ISZERO PUSH2 0x768 JUMPI DUP5 DUP10 ADD MLOAD DUP3 SSTORE PUSH1 0x1 DUP3 ADD SWAP2 POP PUSH1 0x20 DUP6 ADD SWAP5 POP PUSH1 0x20 DUP2 ADD SWAP1 POP PUSH2 0x743 JUMP JUMPDEST DUP7 DUP4 LT ISZERO PUSH2 0x785 JUMPI DUP5 DUP10 ADD MLOAD PUSH2 0x781 PUSH1 0x1F DUP10 AND DUP3 PUSH2 0x68E JUMP JUMPDEST DUP4 SSTORE POP JUMPDEST PUSH1 0x1 PUSH1 0x2 DUP9 MUL ADD DUP9 SSTORE POP POP POP JUMPDEST POP POP POP POP POP POP JUMP INVALID LOG2 PUSH5 0x6970667358 0x22 SLT KECCAK256 LT 0xDF DIV DUP15 0xDE EXTCODESIZE DUP4 PUSH19 0x626B64AA18B2311A0ACEF6372BA25A2F3D2D74 XOR 0xB0 0xCE PUSH23 0xD64736F6C634300080F00330000000000000000000000 "
				},
				"gasEstimates": {
					"creation": {
						"codeDepositCost": "400000",
						"executionCost": "436",
						"totalCost": "400436"
					},
					"external": {
						"getData()": "infinite",
						"person(uint256)": "infinite",
						"setData(string,uint256)": "infinite"
					}
				},
				"methodIdentifiers": {
					"getData()": "3bc5de30",
					"person(uint256)": "092a1820",
					"setData(string,uint256)": "af22068e"
				}
			},
			"storageLayout": {
				"storage": [
					{
						"astId": 10,
						"contract": "SolidityCodes/Struct.sol:Struct",
						"label": "person",
						"offset": 0,
						"slot": "0",
						"type": "t_array(t_struct(Person)6_storage)dyn_storage"
					}
				],
				"types": {
					"t_array(t_struct(Person)6_storage)dyn_storage": {
						"base": "t_struct(Person)6_storage",
						"encoding": "dynamic_array",
						"label": "struct Struct.Person[]",
						"numberOfBytes": "32"
					},
					"t_string_storage": {
						"encoding": "bytes",
						"label": "string",
						"numberOfBytes": "32"
					},
					"t_struct(Person)6_storage": {
						"encoding": "inplace",
						"label": "struct Struct.Person",
						"members": [
							{
								"astId": 3,
								"contract": "SolidityCodes/Struct.sol:Struct",
								"label": "name",
								"offset": 0,
								"slot": "0",
								"type": "t_string_storage"
							},
							{
								"astId": 5,
								"contract": "SolidityCodes/Struct.sol:Struct",
								"label": "age",
								"offset": 0,
								"slot": "1",
								"type": "t_uint256"
							}
						],
						"numberOfBytes": "64"
					},
					"t_uint256": {
						"encoding": "inplace",
						"label": "uint256",
						"numberOfBytes": "32"
					}
				}
			},
			"userdoc": {
				"kind": "user",
				"methods": {},
				"version": 1
			}
		}
	}
}