{
	"SolidityCodes/Visibility.sol": {
		"Visibility": {
			"abi": [
				{
					"inputs": [],
					"name": "externalFunc",
					"outputs": [
						{
							"internalType": "uint256",
							"name": "",
							"type": "uint256"
						}
					],
					"stateMutability": "pure",
					"type": "function"
				},
				{
					"inputs": [],
					"name": "publicFunc",
					"outputs": [
						{
							"internalType": "uint256",
							"name": "",
							"type": "uint256"
						}
					],
					"stateMutability": "pure",
					"type": "function"
				},
				{
					"inputs": [],
					"name": "z",
					"outputs": [
						{
							"internalType": "uint256",
							"name": "",
							"type": "uint256"
						}
					],
					"stateMutability": "view",
					"type": "function"
				}
			],
			"devdoc": {
				"kind": "dev",
				"methods": {},
				"version": 1
			},
			"evm": {
				"assembly": "    /* \"SolidityCodes/Visibility.sol\":62:489  contract Visibility{... */\n  mstore(0x40, 0x80)\n    /* \"SolidityCodes/Visibility.sol\":104:105  0 */\n  0x00\n    /* \"SolidityCodes/Visibility.sol\":89:105  uint private x=0 */\n  dup1\n  sstore\n    /* \"SolidityCodes/Visibility.sol\":129:130  1 */\n  0x01\n    /* \"SolidityCodes/Visibility.sol\":113:130  uint internal y=1 */\n  dup1\n  sstore\n    /* \"SolidityCodes/Visibility.sol\":152:153  2 */\n  0x02\n    /* \"SolidityCodes/Visibility.sol\":138:153  uint public z=2 */\n  dup1\n  sstore\n    /* \"SolidityCodes/Visibility.sol\":62:489  contract Visibility{... */\n  callvalue\n  dup1\n  iszero\n  tag_1\n  jumpi\n  0x00\n  dup1\n  revert\ntag_1:\n  pop\n  dataSize(sub_0)\n  dup1\n  dataOffset(sub_0)\n  0x00\n  codecopy\n  0x00\n  return\nstop\n\nsub_0: assembly {\n        /* \"SolidityCodes/Visibility.sol\":62:489  contract Visibility{... */\n      mstore(0x40, 0x80)\n      callvalue\n      dup1\n      iszero\n      tag_1\n      jumpi\n      0x00\n      dup1\n      revert\n    tag_1:\n      pop\n      jumpi(tag_2, lt(calldatasize, 0x04))\n      shr(0xe0, calldataload(0x00))\n      dup1\n      0x42b148aa\n      eq\n      tag_3\n      jumpi\n      dup1\n      0x4b73383f\n      eq\n      tag_4\n      jumpi\n      dup1\n      0xc5d7802e\n      eq\n      tag_5\n      jumpi\n    tag_2:\n      0x00\n      dup1\n      revert\n        /* \"SolidityCodes/Visibility.sol\":432:485  function externalFunc() external pure returns(uint){} */\n    tag_3:\n      tag_6\n      tag_7\n      jump\t// in\n    tag_6:\n      mload(0x40)\n      tag_8\n      swap2\n      swap1\n      tag_9\n      jump\t// in\n    tag_8:\n      mload(0x40)\n      dup1\n      swap2\n      sub\n      swap1\n      return\n        /* \"SolidityCodes/Visibility.sol\":345:423  function publicFunc() public pure returns(uint){... */\n    tag_4:\n      tag_10\n      tag_11\n      jump\t// in\n    tag_10:\n      mload(0x40)\n      tag_12\n      swap2\n      swap1\n      tag_9\n      jump\t// in\n    tag_12:\n      mload(0x40)\n      dup1\n      swap2\n      sub\n      swap1\n      return\n        /* \"SolidityCodes/Visibility.sol\":138:153  uint public z=2 */\n    tag_5:\n      tag_13\n      tag_14\n      jump\t// in\n    tag_13:\n      mload(0x40)\n      tag_15\n      swap2\n      swap1\n      tag_9\n      jump\t// in\n    tag_15:\n      mload(0x40)\n      dup1\n      swap2\n      sub\n      swap1\n      return\n        /* \"SolidityCodes/Visibility.sol\":432:485  function externalFunc() external pure returns(uint){} */\n    tag_7:\n        /* \"SolidityCodes/Visibility.sol\":478:482  uint */\n      0x00\n        /* \"SolidityCodes/Visibility.sol\":432:485  function externalFunc() external pure returns(uint){} */\n      swap1\n      jump\t// out\n        /* \"SolidityCodes/Visibility.sol\":345:423  function publicFunc() public pure returns(uint){... */\n    tag_11:\n        /* \"SolidityCodes/Visibility.sol\":387:391  uint */\n      0x00\n        /* \"SolidityCodes/Visibility.sol\":411:414  200 */\n      0xc8\n        /* \"SolidityCodes/Visibility.sol\":404:414  return 200 */\n      swap1\n      pop\n        /* \"SolidityCodes/Visibility.sol\":345:423  function publicFunc() public pure returns(uint){... */\n      swap1\n      jump\t// out\n        /* \"SolidityCodes/Visibility.sol\":138:153  uint public z=2 */\n    tag_14:\n      sload(0x02)\n      dup2\n      jump\t// out\n        /* \"#utility.yul\":7:84   */\n    tag_18:\n        /* \"#utility.yul\":44:51   */\n      0x00\n        /* \"#utility.yul\":73:78   */\n      dup2\n        /* \"#utility.yul\":62:78   */\n      swap1\n      pop\n        /* \"#utility.yul\":7:84   */\n      swap2\n      swap1\n      pop\n      jump\t// out\n        /* \"#utility.yul\":90:208   */\n    tag_19:\n        /* \"#utility.yul\":177:201   */\n      tag_23\n        /* \"#utility.yul\":195:200   */\n      dup2\n        /* \"#utility.yul\":177:201   */\n      tag_18\n      jump\t// in\n    tag_23:\n        /* \"#utility.yul\":172:175   */\n      dup3\n        /* \"#utility.yul\":165:202   */\n      mstore\n        /* \"#utility.yul\":90:208   */\n      pop\n      pop\n      jump\t// out\n        /* \"#utility.yul\":214:436   */\n    tag_9:\n        /* \"#utility.yul\":307:311   */\n      0x00\n        /* \"#utility.yul\":345:347   */\n      0x20\n        /* \"#utility.yul\":334:343   */\n      dup3\n        /* \"#utility.yul\":330:348   */\n      add\n        /* \"#utility.yul\":322:348   */\n      swap1\n      pop\n        /* \"#utility.yul\":358:429   */\n      tag_25\n        /* \"#utility.yul\":426:427   */\n      0x00\n        /* \"#utility.yul\":415:424   */\n      dup4\n        /* \"#utility.yul\":411:428   */\n      add\n        /* \"#utility.yul\":402:408   */\n      dup5\n        /* \"#utility.yul\":358:429   */\n      tag_19\n      jump\t// in\n    tag_25:\n        /* \"#utility.yul\":214:436   */\n      swap3\n      swap2\n      pop\n      pop\n      jump\t// out\n\n    auxdata: 0xa264697066735822122011a50cecd26cc356052560e971292f42c3ed92f8669ff9b7255ebb89ec274e4164736f6c634300080f0033\n}\n",
				"bytecode": {
					"linkReferences": {},
					"object": "608060405260008055600180556002805534801561001c57600080fd5b506101098061002c6000396000f3fe6080604052348015600f57600080fd5b5060043610603c5760003560e01c806342b148aa1460415780634b73383f14605b578063c5d7802e146075575b600080fd5b6047608f565b6040516052919060ba565b60405180910390f35b60616094565b604051606c919060ba565b60405180910390f35b607b609d565b6040516086919060ba565b60405180910390f35b600090565b600060c8905090565b60025481565b6000819050919050565b60b48160a3565b82525050565b600060208201905060cd600083018460ad565b9291505056fea264697066735822122011a50cecd26cc356052560e971292f42c3ed92f8669ff9b7255ebb89ec274e4164736f6c634300080f0033",
					"opcodes": "PUSH1 0x80 PUSH1 0x40 MSTORE PUSH1 0x0 DUP1 SSTORE PUSH1 0x1 DUP1 SSTORE PUSH1 0x2 DUP1 SSTORE CALLVALUE DUP1 ISZERO PUSH2 0x1C JUMPI PUSH1 0x0 DUP1 REVERT JUMPDEST POP PUSH2 0x109 DUP1 PUSH2 0x2C PUSH1 0x0 CODECOPY PUSH1 0x0 RETURN INVALID PUSH1 0x80 PUSH1 0x40 MSTORE CALLVALUE DUP1 ISZERO PUSH1 0xF JUMPI PUSH1 0x0 DUP1 REVERT JUMPDEST POP PUSH1 0x4 CALLDATASIZE LT PUSH1 0x3C JUMPI PUSH1 0x0 CALLDATALOAD PUSH1 0xE0 SHR DUP1 PUSH4 0x42B148AA EQ PUSH1 0x41 JUMPI DUP1 PUSH4 0x4B73383F EQ PUSH1 0x5B JUMPI DUP1 PUSH4 0xC5D7802E EQ PUSH1 0x75 JUMPI JUMPDEST PUSH1 0x0 DUP1 REVERT JUMPDEST PUSH1 0x47 PUSH1 0x8F JUMP JUMPDEST PUSH1 0x40 MLOAD PUSH1 0x52 SWAP2 SWAP1 PUSH1 0xBA JUMP JUMPDEST PUSH1 0x40 MLOAD DUP1 SWAP2 SUB SWAP1 RETURN JUMPDEST PUSH1 0x61 PUSH1 0x94 JUMP JUMPDEST PUSH1 0x40 MLOAD PUSH1 0x6C SWAP2 SWAP1 PUSH1 0xBA JUMP JUMPDEST PUSH1 0x40 MLOAD DUP1 SWAP2 SUB SWAP1 RETURN JUMPDEST PUSH1 0x7B PUSH1 0x9D JUMP JUMPDEST PUSH1 0x40 MLOAD PUSH1 0x86 SWAP2 SWAP1 PUSH1 0xBA JUMP JUMPDEST PUSH1 0x40 MLOAD DUP1 SWAP2 SUB SWAP1 RETURN JUMPDEST PUSH1 0x0 SWAP1 JUMP JUMPDEST PUSH1 0x0 PUSH1 0xC8 SWAP1 POP SWAP1 JUMP JUMPDEST PUSH1 0x2 SLOAD DUP2 JUMP JUMPDEST PUSH1 0x0 DUP2 SWAP1 POP SWAP2 SWAP1 POP JUMP JUMPDEST PUSH1 0xB4 DUP2 PUSH1 0xA3 JUMP JUMPDEST DUP3 MSTORE POP POP JUMP JUMPDEST PUSH1 0x0 PUSH1 0x20 DUP3 ADD SWAP1 POP PUSH1 0xCD PUSH1 0x0 DUP4 ADD DUP5 PUSH1 0xAD JUMP JUMPDEST SWAP3 SWAP2 POP POP JUMP INVALID LOG2 PUSH5 0x6970667358 0x22 SLT KECCAK256 GT 0xA5 0xC 0xEC 0xD2 PUSH13 0xC356052560E971292F42C3ED92 0xF8 PUSH7 0x9FF9B7255EBB89 0xEC 0x27 0x4E COINBASE PUSH5 0x736F6C6343 STOP ADDMOD 0xF STOP CALLER "
				},
				"gasEstimates": {
					"creation": {
						"codeDepositCost": "53000",
						"executionCost": "49323",
						"totalCost": "102323"
					},
					"external": {
						"externalFunc()": "307",
						"publicFunc()": "337",
						"z()": "2451"
					},
					"internal": {
						"internalFunc()": "infinite",
						"privateFunc()": "infinite"
					}
				},
				"methodIdentifiers": {
					"externalFunc()": "42b148aa",
					"publicFunc()": "4b73383f",
					"z()": "c5d7802e"
				}
			},
			"storageLayout": {
				"storage": [
					{
						"astId": 4,
						"contract": "SolidityCodes/Visibility.sol:Visibility",
						"label": "x",
						"offset": 0,
						"slot": "0",
						"type": "t_uint256"
					},
					{
						"astId": 7,
						"contract": "SolidityCodes/Visibility.sol:Visibility",
						"label": "y",
						"offset": 0,
						"slot": "1",
						"type": "t_uint256"
					},
					{
						"astId": 10,
						"contract": "SolidityCodes/Visibility.sol:Visibility",
						"label": "z",
						"offset": 0,
						"slot": "2",
						"type": "t_uint256"
					}
				],
				"types": {
					"t_uint256": {
						"encoding": "inplace",
						"label": "uint256",
						"numberOfBytes": "32"
					}
				}
			},
			"userdoc": {
				"kind": "user",
				"methods": {},
				"version": 1
			}
		}
	}
}